
X-CUBE-SPN2_F302.elf:     file format elf32-littlearm

Sections:
Idx Name          Size      VMA       LMA       File off  Algn
  0 .isr_vector   00000188  08000000  08000000  00010000  2**0
                  CONTENTS, ALLOC, LOAD, READONLY, DATA
  1 .text         00003fa4  08000188  08000188  00010188  2**2
                  CONTENTS, ALLOC, LOAD, READONLY, CODE
  2 .rodata       00000ca4  0800412c  0800412c  0001412c  2**2
                  CONTENTS, ALLOC, LOAD, READONLY, DATA
  3 .init_array   00000004  08004dd0  08004dd0  00014dd0  2**2
                  CONTENTS, ALLOC, LOAD, DATA
  4 .fini_array   00000004  08004dd4  08004dd4  00014dd4  2**2
                  CONTENTS, ALLOC, LOAD, DATA
  5 .data         00000378  20000000  08004dd8  00020000  2**2
                  CONTENTS, ALLOC, LOAD, DATA
  6 .bss          0000025c  20000378  08005150  00020378  2**2
                  ALLOC
  7 ._user_heap_stack 00000604  200005d4  08005150  000205d4  2**0
                  ALLOC
  8 .ARM.attributes 00000030  00000000  00000000  00020378  2**0
                  CONTENTS, READONLY
  9 .debug_info   00019e87  00000000  00000000  000203a8  2**0
                  CONTENTS, READONLY, DEBUGGING, OCTETS
 10 .debug_abbrev 00002d5d  00000000  00000000  0003a22f  2**0
                  CONTENTS, READONLY, DEBUGGING, OCTETS
 11 .debug_loc    00008c10  00000000  00000000  0003cf8c  2**0
                  CONTENTS, READONLY, DEBUGGING, OCTETS
 12 .debug_aranges 00000bf8  00000000  00000000  00045ba0  2**3
                  CONTENTS, READONLY, DEBUGGING, OCTETS
 13 .debug_ranges 00000ce0  00000000  00000000  00046798  2**3
                  CONTENTS, READONLY, DEBUGGING, OCTETS
 14 .debug_macro  0000df5a  00000000  00000000  00047478  2**0
                  CONTENTS, READONLY, DEBUGGING, OCTETS
 15 .debug_line   000118a6  00000000  00000000  000553d2  2**0
                  CONTENTS, READONLY, DEBUGGING, OCTETS
 16 .debug_str    000520a1  00000000  00000000  00066c78  2**0
                  CONTENTS, READONLY, DEBUGGING, OCTETS
 17 .comment      00000053  00000000  00000000  000b8d19  2**0
                  CONTENTS, READONLY
 18 .debug_frame  00002114  00000000  00000000  000b8d6c  2**2
                  CONTENTS, READONLY, DEBUGGING, OCTETS

Disassembly of section .text:

08000188 <__do_global_dtors_aux>:
 8000188:	b510      	push	{r4, lr}
 800018a:	4c05      	ldr	r4, [pc, #20]	; (80001a0 <__do_global_dtors_aux+0x18>)
 800018c:	7823      	ldrb	r3, [r4, #0]
 800018e:	b933      	cbnz	r3, 800019e <__do_global_dtors_aux+0x16>
 8000190:	4b04      	ldr	r3, [pc, #16]	; (80001a4 <__do_global_dtors_aux+0x1c>)
 8000192:	b113      	cbz	r3, 800019a <__do_global_dtors_aux+0x12>
 8000194:	4804      	ldr	r0, [pc, #16]	; (80001a8 <__do_global_dtors_aux+0x20>)
 8000196:	f3af 8000 	nop.w
 800019a:	2301      	movs	r3, #1
 800019c:	7023      	strb	r3, [r4, #0]
 800019e:	bd10      	pop	{r4, pc}
 80001a0:	20000378 	.word	0x20000378
 80001a4:	00000000 	.word	0x00000000
 80001a8:	08004114 	.word	0x08004114

080001ac <frame_dummy>:
 80001ac:	b508      	push	{r3, lr}
 80001ae:	4b03      	ldr	r3, [pc, #12]	; (80001bc <frame_dummy+0x10>)
 80001b0:	b11b      	cbz	r3, 80001ba <frame_dummy+0xe>
 80001b2:	4903      	ldr	r1, [pc, #12]	; (80001c0 <frame_dummy+0x14>)
 80001b4:	4803      	ldr	r0, [pc, #12]	; (80001c4 <frame_dummy+0x18>)
 80001b6:	f3af 8000 	nop.w
 80001ba:	bd08      	pop	{r3, pc}
 80001bc:	00000000 	.word	0x00000000
 80001c0:	2000037c 	.word	0x2000037c
 80001c4:	08004114 	.word	0x08004114

080001c8 <L6470_ResetAppCmdPkg>:
{
  uint8_t id;
  
  for(id=0; id<L6470DAISYCHAINSIZE; id++)
  {
    (pL6470_AppCmdPkg+id)->L6470_AppCmdId=(eL6470_AppCmdId_t)0;
 80001c8:	2300      	movs	r3, #0
 80001ca:	7003      	strb	r3, [r0, #0]
    (pL6470_AppCmdPkg+id)->p1=0;
 80001cc:	6043      	str	r3, [r0, #4]
    (pL6470_AppCmdPkg+id)->p2=0;
 80001ce:	6083      	str	r3, [r0, #8]
    (pL6470_AppCmdPkg+id)->p3=0;
 80001d0:	60c3      	str	r3, [r0, #12]
    (pL6470_AppCmdPkg+id)->L6470_AppCmdId=(eL6470_AppCmdId_t)0;
 80001d2:	7403      	strb	r3, [r0, #16]
    (pL6470_AppCmdPkg+id)->p1=0;
 80001d4:	6143      	str	r3, [r0, #20]
    (pL6470_AppCmdPkg+id)->p2=0;
 80001d6:	6183      	str	r3, [r0, #24]
    (pL6470_AppCmdPkg+id)->p3=0;
 80001d8:	61c3      	str	r3, [r0, #28]
  }
}
 80001da:	4770      	bx	lr

080001dc <L6470_PrepareAppCmdPkg>:
  * @param  p1                The 1st parameter (if it is not needed it will be not considered).
  * @param  p2                The 2nd parameter (if it is not needed it will be not considered).
  * @param  p3                The 3rd parameter (if it is not needed it will be not considered).
  */
void L6470_PrepareAppCmdPkg(uint8_t L6470_Id, sL6470_AppCmdPkg_t* pL6470_AppCmdPkg, eL6470_AppCmdId_t L6470_AppCmdId, uint32_t p1, uint32_t p2, uint32_t p3)
{
 80001dc:	b5f8      	push	{r3, r4, r5, r6, r7, lr}
 80001de:	4604      	mov	r4, r0
 80001e0:	460d      	mov	r5, r1
 80001e2:	4617      	mov	r7, r2
 80001e4:	461e      	mov	r6, r3
  if(!L6470_DaisyChain_HalfPrepared)
 80001e6:	4b0a      	ldr	r3, [pc, #40]	; (8000210 <L6470_PrepareAppCmdPkg+0x34>)
 80001e8:	781b      	ldrb	r3, [r3, #0]
 80001ea:	b14b      	cbz	r3, 8000200 <L6470_PrepareAppCmdPkg+0x24>
  (pL6470_AppCmdPkg+L6470_Id)->L6470_AppCmdId = L6470_AppCmdId;
 80001ec:	0123      	lsls	r3, r4, #4
 80001ee:	eb05 1004 	add.w	r0, r5, r4, lsl #4
 80001f2:	54ef      	strb	r7, [r5, r3]
  (pL6470_AppCmdPkg+L6470_Id)->p1 = p1;
 80001f4:	6046      	str	r6, [r0, #4]
  (pL6470_AppCmdPkg+L6470_Id)->p2 = p2;
 80001f6:	9b06      	ldr	r3, [sp, #24]
 80001f8:	6083      	str	r3, [r0, #8]
  (pL6470_AppCmdPkg+L6470_Id)->p3 = p3;
 80001fa:	9b07      	ldr	r3, [sp, #28]
 80001fc:	60c3      	str	r3, [r0, #12]
    L6470_DaisyChain_HalfPrepared = ONE_F; /* To avoid to delete the previous entered command */
    L6470_ResetAppCmdPkg(pL6470_AppCmdPkg);
  }
  
  L6470_FillAppCmdPkg(L6470_Id, pL6470_AppCmdPkg, L6470_AppCmdId, p1, p2, p3);
}
 80001fe:	bdf8      	pop	{r3, r4, r5, r6, r7, pc}
    L6470_DaisyChain_HalfPrepared = ONE_F; /* To avoid to delete the previous entered command */
 8000200:	4b03      	ldr	r3, [pc, #12]	; (8000210 <L6470_PrepareAppCmdPkg+0x34>)
 8000202:	2201      	movs	r2, #1
 8000204:	701a      	strb	r2, [r3, #0]
    L6470_ResetAppCmdPkg(pL6470_AppCmdPkg);
 8000206:	4608      	mov	r0, r1
 8000208:	f7ff ffde 	bl	80001c8 <L6470_ResetAppCmdPkg>
 800020c:	e7ee      	b.n	80001ec <L6470_PrepareAppCmdPkg+0x10>
 800020e:	bf00      	nop
 8000210:	20000394 	.word	0x20000394

08000214 <L6470_PrepareSetParam>:
  *
  * @note   This function will properly fill the right column of the L6470_AppCmdPkg.
  * @note   The commad will be sent by @ref L6470_PerformPreparedApplicationCommand.
  */
void L6470_PrepareSetParam(uint8_t L6470_Id, eL6470_RegId_t L6470_RegId, uint32_t Value)
{
 8000214:	b500      	push	{lr}
 8000216:	b083      	sub	sp, #12
 8000218:	460b      	mov	r3, r1
    L6470_PrepareAppCmdPkg(L6470_Id, L6470_AppCmdPkg, L6470_SETPARAM_ID, L6470_RegId, Value, 0);
 800021a:	2100      	movs	r1, #0
 800021c:	9101      	str	r1, [sp, #4]
 800021e:	9200      	str	r2, [sp, #0]
 8000220:	2201      	movs	r2, #1
 8000222:	4903      	ldr	r1, [pc, #12]	; (8000230 <L6470_PrepareSetParam+0x1c>)
 8000224:	f7ff ffda 	bl	80001dc <L6470_PrepareAppCmdPkg>
}
 8000228:	b003      	add	sp, #12
 800022a:	f85d fb04 	ldr.w	pc, [sp], #4
 800022e:	bf00      	nop
 8000230:	200003c0 	.word	0x200003c0

08000234 <L6470_PrepareGetParam>:
  *
  * @note   This function will properly fill the right column of the L6470_AppCmdPkg.
  * @note   The commad will be sent by @ref L6470_PerformPreparedApplicationCommand.
  */
void L6470_PrepareGetParam(uint8_t L6470_Id, eL6470_RegId_t L6470_RegId)
{
 8000234:	b500      	push	{lr}
 8000236:	b083      	sub	sp, #12
 8000238:	460b      	mov	r3, r1
  L6470_PrepareAppCmdPkg(L6470_Id, L6470_AppCmdPkg, L6470_GETPARAM_ID, L6470_RegId, 0, 0);
 800023a:	2200      	movs	r2, #0
 800023c:	9201      	str	r2, [sp, #4]
 800023e:	9200      	str	r2, [sp, #0]
 8000240:	2202      	movs	r2, #2
 8000242:	4903      	ldr	r1, [pc, #12]	; (8000250 <L6470_PrepareGetParam+0x1c>)
 8000244:	f7ff ffca 	bl	80001dc <L6470_PrepareAppCmdPkg>
}
 8000248:	b003      	add	sp, #12
 800024a:	f85d fb04 	ldr.w	pc, [sp], #4
 800024e:	bf00      	nop
 8000250:	200003c0 	.word	0x200003c0

08000254 <L6470_PrepareRun>:
  *
  * @note   This function will properly fill the right column of the L6470_AppCmdPkg.
  * @note   The commad will be sent by @ref L6470_PerformPreparedApplicationCommand.
  */
void L6470_PrepareRun(uint8_t L6470_Id, eL6470_DirId_t L6470_DirId, uint32_t Speed)
{
 8000254:	b500      	push	{lr}
 8000256:	b083      	sub	sp, #12
 8000258:	460b      	mov	r3, r1
  L6470_PrepareAppCmdPkg(L6470_Id, L6470_AppCmdPkg, L6470_RUN_ID, L6470_DirId, Speed, 0);
 800025a:	2100      	movs	r1, #0
 800025c:	9101      	str	r1, [sp, #4]
 800025e:	9200      	str	r2, [sp, #0]
 8000260:	2203      	movs	r2, #3
 8000262:	4903      	ldr	r1, [pc, #12]	; (8000270 <L6470_PrepareRun+0x1c>)
 8000264:	f7ff ffba 	bl	80001dc <L6470_PrepareAppCmdPkg>
}
 8000268:	b003      	add	sp, #12
 800026a:	f85d fb04 	ldr.w	pc, [sp], #4
 800026e:	bf00      	nop
 8000270:	200003c0 	.word	0x200003c0

08000274 <L6470_PrepareStepClock>:
  *
  * @note   This function will properly fill the right column of the L6470_AppCmdPkg.
  * @note   The commad will be sent by @ref L6470_PerformPreparedApplicationCommand.
  */
void L6470_PrepareStepClock(uint8_t L6470_Id, eL6470_DirId_t L6470_DirId)
{
 8000274:	b500      	push	{lr}
 8000276:	b083      	sub	sp, #12
 8000278:	460b      	mov	r3, r1
  L6470_PrepareAppCmdPkg(L6470_Id, L6470_AppCmdPkg, L6470_STEPCLOCK_ID, L6470_DirId, 0, 0);
 800027a:	2200      	movs	r2, #0
 800027c:	9201      	str	r2, [sp, #4]
 800027e:	9200      	str	r2, [sp, #0]
 8000280:	2204      	movs	r2, #4
 8000282:	4903      	ldr	r1, [pc, #12]	; (8000290 <L6470_PrepareStepClock+0x1c>)
 8000284:	f7ff ffaa 	bl	80001dc <L6470_PrepareAppCmdPkg>
}
 8000288:	b003      	add	sp, #12
 800028a:	f85d fb04 	ldr.w	pc, [sp], #4
 800028e:	bf00      	nop
 8000290:	200003c0 	.word	0x200003c0

08000294 <L6470_PrepareMove>:
  *
  * @note   This function will properly fill the right column of the L6470_AppCmdPkg.
  * @note   The commad will be sent by @ref L6470_PerformPreparedApplicationCommand.
  */
void L6470_PrepareMove(uint8_t L6470_Id, eL6470_DirId_t L6470_DirId, uint32_t N_Step)
{
 8000294:	b500      	push	{lr}
 8000296:	b083      	sub	sp, #12
 8000298:	460b      	mov	r3, r1
  L6470_PrepareAppCmdPkg(L6470_Id, L6470_AppCmdPkg, L6470_MOVE_ID, L6470_DirId, N_Step, 0);
 800029a:	2100      	movs	r1, #0
 800029c:	9101      	str	r1, [sp, #4]
 800029e:	9200      	str	r2, [sp, #0]
 80002a0:	2205      	movs	r2, #5
 80002a2:	4903      	ldr	r1, [pc, #12]	; (80002b0 <L6470_PrepareMove+0x1c>)
 80002a4:	f7ff ff9a 	bl	80001dc <L6470_PrepareAppCmdPkg>
}
 80002a8:	b003      	add	sp, #12
 80002aa:	f85d fb04 	ldr.w	pc, [sp], #4
 80002ae:	bf00      	nop
 80002b0:	200003c0 	.word	0x200003c0

080002b4 <L6470_PrepareGoTo>:
  *
  * @note   This function will properly fill the right column of the L6470_AppCmdPkg.
  * @note   The commad will be sent by @ref L6470_PerformPreparedApplicationCommand.
  */
void L6470_PrepareGoTo(uint8_t L6470_Id, uint32_t AbsPos)
{
 80002b4:	b500      	push	{lr}
 80002b6:	b083      	sub	sp, #12
 80002b8:	460b      	mov	r3, r1
  L6470_PrepareAppCmdPkg(L6470_Id, L6470_AppCmdPkg, L6470_GOTO_ID, AbsPos, 0, 0);
 80002ba:	2200      	movs	r2, #0
 80002bc:	9201      	str	r2, [sp, #4]
 80002be:	9200      	str	r2, [sp, #0]
 80002c0:	2206      	movs	r2, #6
 80002c2:	4903      	ldr	r1, [pc, #12]	; (80002d0 <L6470_PrepareGoTo+0x1c>)
 80002c4:	f7ff ff8a 	bl	80001dc <L6470_PrepareAppCmdPkg>
}
 80002c8:	b003      	add	sp, #12
 80002ca:	f85d fb04 	ldr.w	pc, [sp], #4
 80002ce:	bf00      	nop
 80002d0:	200003c0 	.word	0x200003c0

080002d4 <L6470_PrepareGoToDir>:
  *
  * @note   This function will properly fill the right column of the L6470_AppCmdPkg.
  * @note   The commad will be sent by @ref L6470_PerformPreparedApplicationCommand.
  */
void L6470_PrepareGoToDir(uint8_t L6470_Id, eL6470_DirId_t L6470_DirId, uint32_t AbsPos)
{
 80002d4:	b500      	push	{lr}
 80002d6:	b083      	sub	sp, #12
 80002d8:	460b      	mov	r3, r1
  L6470_PrepareAppCmdPkg(L6470_Id, L6470_AppCmdPkg, L6470_GOTODIR_ID, L6470_DirId, AbsPos, 0);
 80002da:	2100      	movs	r1, #0
 80002dc:	9101      	str	r1, [sp, #4]
 80002de:	9200      	str	r2, [sp, #0]
 80002e0:	2207      	movs	r2, #7
 80002e2:	4903      	ldr	r1, [pc, #12]	; (80002f0 <L6470_PrepareGoToDir+0x1c>)
 80002e4:	f7ff ff7a 	bl	80001dc <L6470_PrepareAppCmdPkg>
}
 80002e8:	b003      	add	sp, #12
 80002ea:	f85d fb04 	ldr.w	pc, [sp], #4
 80002ee:	bf00      	nop
 80002f0:	200003c0 	.word	0x200003c0

080002f4 <L6470_PrepareGoUntil>:
  *
  * @note   This function will properly fill the right column of the L6470_AppCmdPkg.
  * @note   The commad will be sent by @ref L6470_PerformPreparedApplicationCommand.
  */
void L6470_PrepareGoUntil(uint8_t L6470_Id, eL6470_ActId_t L6470_ActId, eL6470_DirId_t L6470_DirId, uint32_t Speed)
{
 80002f4:	b500      	push	{lr}
 80002f6:	b083      	sub	sp, #12
  L6470_PrepareAppCmdPkg(L6470_Id, L6470_AppCmdPkg, L6470_GOUNTIL_ID, L6470_ActId, L6470_DirId, Speed);
 80002f8:	9301      	str	r3, [sp, #4]
 80002fa:	9200      	str	r2, [sp, #0]
 80002fc:	460b      	mov	r3, r1
 80002fe:	2208      	movs	r2, #8
 8000300:	4902      	ldr	r1, [pc, #8]	; (800030c <L6470_PrepareGoUntil+0x18>)
 8000302:	f7ff ff6b 	bl	80001dc <L6470_PrepareAppCmdPkg>
}
 8000306:	b003      	add	sp, #12
 8000308:	f85d fb04 	ldr.w	pc, [sp], #4
 800030c:	200003c0 	.word	0x200003c0

08000310 <L6470_PrepareReleaseSW>:
  *
  * @note   This function will properly fill the right column of the L6470_AppCmdPkg.
  * @note   The commad will be sent by @ref L6470_PerformPreparedApplicationCommand.
  */
void L6470_PrepareReleaseSW(uint8_t L6470_Id, eL6470_ActId_t L6470_ActId, eL6470_DirId_t L6470_DirId)
{
 8000310:	b500      	push	{lr}
 8000312:	b083      	sub	sp, #12
 8000314:	460b      	mov	r3, r1
  L6470_PrepareAppCmdPkg(L6470_Id, L6470_AppCmdPkg, L6470_RELEASESW_ID, L6470_ActId, L6470_DirId, 0);
 8000316:	2100      	movs	r1, #0
 8000318:	9101      	str	r1, [sp, #4]
 800031a:	9200      	str	r2, [sp, #0]
 800031c:	2209      	movs	r2, #9
 800031e:	4903      	ldr	r1, [pc, #12]	; (800032c <L6470_PrepareReleaseSW+0x1c>)
 8000320:	f7ff ff5c 	bl	80001dc <L6470_PrepareAppCmdPkg>
}
 8000324:	b003      	add	sp, #12
 8000326:	f85d fb04 	ldr.w	pc, [sp], #4
 800032a:	bf00      	nop
 800032c:	200003c0 	.word	0x200003c0

08000330 <L6470_PrepareGoHome>:
  *
  * @note   This function will properly fill the right column of the L6470_AppCmdPkg.
  * @note   The commad will be sent by @ref L6470_PerformPreparedApplicationCommand.
  */
void L6470_PrepareGoHome(uint8_t L6470_Id)
{
 8000330:	b500      	push	{lr}
 8000332:	b083      	sub	sp, #12
  L6470_PrepareAppCmdPkg(L6470_Id, L6470_AppCmdPkg, L6470_GOHOME_ID, 0, 0, 0);
 8000334:	2300      	movs	r3, #0
 8000336:	9301      	str	r3, [sp, #4]
 8000338:	9300      	str	r3, [sp, #0]
 800033a:	220a      	movs	r2, #10
 800033c:	4902      	ldr	r1, [pc, #8]	; (8000348 <L6470_PrepareGoHome+0x18>)
 800033e:	f7ff ff4d 	bl	80001dc <L6470_PrepareAppCmdPkg>
}
 8000342:	b003      	add	sp, #12
 8000344:	f85d fb04 	ldr.w	pc, [sp], #4
 8000348:	200003c0 	.word	0x200003c0

0800034c <L6470_PrepareGoMark>:
  *
  * @note   This function will properly fill the right column of the L6470_AppCmdPkg.
  * @note   The commad will be sent by @ref L6470_PerformPreparedApplicationCommand.
  */
void L6470_PrepareGoMark(uint8_t L6470_Id)
{
 800034c:	b500      	push	{lr}
 800034e:	b083      	sub	sp, #12
  L6470_PrepareAppCmdPkg(L6470_Id, L6470_AppCmdPkg, L6470_GOMARK_ID, 0, 0, 0);
 8000350:	2300      	movs	r3, #0
 8000352:	9301      	str	r3, [sp, #4]
 8000354:	9300      	str	r3, [sp, #0]
 8000356:	220b      	movs	r2, #11
 8000358:	4902      	ldr	r1, [pc, #8]	; (8000364 <L6470_PrepareGoMark+0x18>)
 800035a:	f7ff ff3f 	bl	80001dc <L6470_PrepareAppCmdPkg>
}
 800035e:	b003      	add	sp, #12
 8000360:	f85d fb04 	ldr.w	pc, [sp], #4
 8000364:	200003c0 	.word	0x200003c0

08000368 <L6470_PrepareResetPos>:
  *
  * @note   This function will properly fill the right column of the L6470_AppCmdPkg.
  * @note   The commad will be sent by @ref L6470_PerformPreparedApplicationCommand.
  */
void L6470_PrepareResetPos(uint8_t L6470_Id)
{
 8000368:	b500      	push	{lr}
 800036a:	b083      	sub	sp, #12
  L6470_PrepareAppCmdPkg(L6470_Id, L6470_AppCmdPkg, L6470_RESETPOS_ID, 0, 0, 0);
 800036c:	2300      	movs	r3, #0
 800036e:	9301      	str	r3, [sp, #4]
 8000370:	9300      	str	r3, [sp, #0]
 8000372:	220c      	movs	r2, #12
 8000374:	4902      	ldr	r1, [pc, #8]	; (8000380 <L6470_PrepareResetPos+0x18>)
 8000376:	f7ff ff31 	bl	80001dc <L6470_PrepareAppCmdPkg>
}
 800037a:	b003      	add	sp, #12
 800037c:	f85d fb04 	ldr.w	pc, [sp], #4
 8000380:	200003c0 	.word	0x200003c0

08000384 <L6470_PrepareResetDevice>:
  *
  * @note   This function will properly fill the right column of the L6470_AppCmdPkg.
  * @note   The commad will be sent by @ref L6470_PerformPreparedApplicationCommand.
  */
void L6470_PrepareResetDevice(uint8_t L6470_Id)
{
 8000384:	b500      	push	{lr}
 8000386:	b083      	sub	sp, #12
  L6470_PrepareAppCmdPkg(L6470_Id, L6470_AppCmdPkg, L6470_RESETDEVICE_ID, 0, 0, 0);
 8000388:	2300      	movs	r3, #0
 800038a:	9301      	str	r3, [sp, #4]
 800038c:	9300      	str	r3, [sp, #0]
 800038e:	220d      	movs	r2, #13
 8000390:	4902      	ldr	r1, [pc, #8]	; (800039c <L6470_PrepareResetDevice+0x18>)
 8000392:	f7ff ff23 	bl	80001dc <L6470_PrepareAppCmdPkg>
}
 8000396:	b003      	add	sp, #12
 8000398:	f85d fb04 	ldr.w	pc, [sp], #4
 800039c:	200003c0 	.word	0x200003c0

080003a0 <L6470_PrepareSoftStop>:
  *
  * @note   This function will properly fill the right column of the L6470_AppCmdPkg.
  * @note   The commad will be sent by @ref L6470_PerformPreparedApplicationCommand.
  */
void L6470_PrepareSoftStop(uint8_t L6470_Id)
{
 80003a0:	b500      	push	{lr}
 80003a2:	b083      	sub	sp, #12
  L6470_PrepareAppCmdPkg(L6470_Id, L6470_AppCmdPkg, L6470_SOFTSTOP_ID, 0, 0, 0);
 80003a4:	2300      	movs	r3, #0
 80003a6:	9301      	str	r3, [sp, #4]
 80003a8:	9300      	str	r3, [sp, #0]
 80003aa:	220e      	movs	r2, #14
 80003ac:	4902      	ldr	r1, [pc, #8]	; (80003b8 <L6470_PrepareSoftStop+0x18>)
 80003ae:	f7ff ff15 	bl	80001dc <L6470_PrepareAppCmdPkg>
}
 80003b2:	b003      	add	sp, #12
 80003b4:	f85d fb04 	ldr.w	pc, [sp], #4
 80003b8:	200003c0 	.word	0x200003c0

080003bc <L6470_PrepareHardStop>:
  *
  * @note   This function will properly fill the right column of the L6470_AppCmdPkg.
  * @note   The commad will be sent by @ref L6470_PerformPreparedApplicationCommand.
  */
void L6470_PrepareHardStop(uint8_t L6470_Id)
{
 80003bc:	b500      	push	{lr}
 80003be:	b083      	sub	sp, #12
  L6470_PrepareAppCmdPkg(L6470_Id, L6470_AppCmdPkg, L6470_HARDSTOP_ID, 0, 0, 0);
 80003c0:	2300      	movs	r3, #0
 80003c2:	9301      	str	r3, [sp, #4]
 80003c4:	9300      	str	r3, [sp, #0]
 80003c6:	220f      	movs	r2, #15
 80003c8:	4902      	ldr	r1, [pc, #8]	; (80003d4 <L6470_PrepareHardStop+0x18>)
 80003ca:	f7ff ff07 	bl	80001dc <L6470_PrepareAppCmdPkg>
}
 80003ce:	b003      	add	sp, #12
 80003d0:	f85d fb04 	ldr.w	pc, [sp], #4
 80003d4:	200003c0 	.word	0x200003c0

080003d8 <L6470_PrepareSoftHiZ>:
  *
  * @note   This function will properly fill the right column of the L6470_AppCmdPkg.
  * @note   The commad will be sent by @ref L6470_PerformPreparedApplicationCommand.
  */
void L6470_PrepareSoftHiZ(uint8_t L6470_Id)
{
 80003d8:	b500      	push	{lr}
 80003da:	b083      	sub	sp, #12
  L6470_PrepareAppCmdPkg(L6470_Id, L6470_AppCmdPkg, L6470_SOFTHIZ_ID, 0, 0, 0);
 80003dc:	2300      	movs	r3, #0
 80003de:	9301      	str	r3, [sp, #4]
 80003e0:	9300      	str	r3, [sp, #0]
 80003e2:	2210      	movs	r2, #16
 80003e4:	4902      	ldr	r1, [pc, #8]	; (80003f0 <L6470_PrepareSoftHiZ+0x18>)
 80003e6:	f7ff fef9 	bl	80001dc <L6470_PrepareAppCmdPkg>
}
 80003ea:	b003      	add	sp, #12
 80003ec:	f85d fb04 	ldr.w	pc, [sp], #4
 80003f0:	200003c0 	.word	0x200003c0

080003f4 <L6470_PrepareHardHiZ>:
  *
  * @note   This function will properly fill the right column of the L6470_AppCmdPkg.
  * @note   The commad will be sent by @ref L6470_PerformPreparedApplicationCommand.
  */
void L6470_PrepareHardHiZ(uint8_t L6470_Id)
{
 80003f4:	b500      	push	{lr}
 80003f6:	b083      	sub	sp, #12
  L6470_PrepareAppCmdPkg(L6470_Id, L6470_AppCmdPkg, L6470_HARDHIZ_ID, 0, 0, 0);
 80003f8:	2300      	movs	r3, #0
 80003fa:	9301      	str	r3, [sp, #4]
 80003fc:	9300      	str	r3, [sp, #0]
 80003fe:	2211      	movs	r2, #17
 8000400:	4902      	ldr	r1, [pc, #8]	; (800040c <L6470_PrepareHardHiZ+0x18>)
 8000402:	f7ff feeb 	bl	80001dc <L6470_PrepareAppCmdPkg>
}
 8000406:	b003      	add	sp, #12
 8000408:	f85d fb04 	ldr.w	pc, [sp], #4
 800040c:	200003c0 	.word	0x200003c0

08000410 <L6470_PrepareGetStatus>:
  *
  * @note   This function will properly fill the right column of the L6470_AppCmdPkg.
  * @note   The commad will be sent by @ref L6470_PerformPreparedApplicationCommand.
  */
void L6470_PrepareGetStatus(uint8_t L6470_Id)
{
 8000410:	b500      	push	{lr}
 8000412:	b083      	sub	sp, #12
  L6470_PrepareAppCmdPkg(L6470_Id, L6470_AppCmdPkg, L6470_GETSTATUS_ID, 0, 0, 0);
 8000414:	2300      	movs	r3, #0
 8000416:	9301      	str	r3, [sp, #4]
 8000418:	9300      	str	r3, [sp, #0]
 800041a:	2212      	movs	r2, #18
 800041c:	4902      	ldr	r1, [pc, #8]	; (8000428 <L6470_PrepareGetStatus+0x18>)
 800041e:	f7ff fedd 	bl	80001dc <L6470_PrepareAppCmdPkg>
}
 8000422:	b003      	add	sp, #12
 8000424:	f85d fb04 	ldr.w	pc, [sp], #4
 8000428:	200003c0 	.word	0x200003c0

0800042c <L6470_PrepareDaisyChainCommand>:
{
 800042c:	e92d 47f0 	stmdb	sp!, {r4, r5, r6, r7, r8, r9, sl, lr}
      *(pL6470_DaisyChainSpiTxStruct+(i++)) = 0x00;
 8000430:	2300      	movs	r3, #0
 8000432:	700b      	strb	r3, [r1, #0]
 8000434:	704b      	strb	r3, [r1, #1]
 8000436:	708b      	strb	r3, [r1, #2]
 8000438:	70cb      	strb	r3, [r1, #3]
 800043a:	710b      	strb	r3, [r1, #4]
 800043c:	714b      	strb	r3, [r1, #5]
 800043e:	718b      	strb	r3, [r1, #6]
 8000440:	71cb      	strb	r3, [r1, #7]
  for(spibyte=0;spibyte<L6470MAXSPICMDBYTESIZE;spibyte++)
 8000442:	1e4a      	subs	r2, r1, #1
 8000444:	460e      	mov	r6, r1
    *(pL6470_DaisyChainSpiTxStruct+((0*L6470DAISYCHAINSIZE)+PkgId)) = (L6470_ApplicationCommand[(pL6470_AppCmdPkg+PkgId)->L6470_AppCmdId].BinaryCode);
 8000446:	4d66      	ldr	r5, [pc, #408]	; (80005e0 <L6470_PrepareDaisyChainCommand+0x1b4>)
 8000448:	e034      	b.n	80004b4 <L6470_PrepareDaisyChainCommand+0x88>
      *(pL6470_DaisyChainSpiTxStruct+((0*L6470DAISYCHAINSIZE)+PkgId)) |= (L6470_Register[((pL6470_AppCmdPkg+PkgId)->p1)].Address);
 800044a:	f8d0 e004 	ldr.w	lr, [r0, #4]
 800044e:	eb0e 0e8e 	add.w	lr, lr, lr, lsl #2
 8000452:	eb05 0e8e 	add.w	lr, r5, lr, lsl #2
 8000456:	f89e e10c 	ldrb.w	lr, [lr, #268]	; 0x10c
 800045a:	ea44 040e 	orr.w	r4, r4, lr
 800045e:	7014      	strb	r4, [r2, #0]
      PARAMLengthBytes = L6470_Register[((pL6470_AppCmdPkg+PkgId)->p1)].LengthByte;
 8000460:	6844      	ldr	r4, [r0, #4]
 8000462:	eb04 0484 	add.w	r4, r4, r4, lsl #2
 8000466:	eb05 0484 	add.w	r4, r5, r4, lsl #2
 800046a:	f894 811a 	ldrb.w	r8, [r4, #282]	; 0x11a
      for (spibyte=1; spibyte<(PARAMLengthBytes+1); spibyte++)
 800046e:	f1b8 0f00 	cmp.w	r8, #0
 8000472:	d01b      	beq.n	80004ac <L6470_PrepareDaisyChainCommand+0x80>
        *(pL6470_DaisyChainSpiTxStruct+((spibyte*L6470DAISYCHAINSIZE)+PkgId)) = (uint8_t)(((pL6470_AppCmdPkg+PkgId)->p2) >> (8*(PARAMLengthBytes-spibyte)));
 8000474:	eba2 0a06 	sub.w	sl, r2, r6
 8000478:	eb01 0943 	add.w	r9, r1, r3, lsl #1
 800047c:	eba8 0403 	sub.w	r4, r8, r3
 8000480:	ea4f 0ec4 	mov.w	lr, r4, lsl #3
 8000484:	f8dc 4008 	ldr.w	r4, [ip, #8]
 8000488:	fa24 f40e 	lsr.w	r4, r4, lr
 800048c:	f809 400a 	strb.w	r4, [r9, sl]
      for (spibyte=1; spibyte<(PARAMLengthBytes+1); spibyte++)
 8000490:	3301      	adds	r3, #1
 8000492:	b2db      	uxtb	r3, r3
 8000494:	4598      	cmp	r8, r3
 8000496:	d2ef      	bcs.n	8000478 <L6470_PrepareDaisyChainCommand+0x4c>
 8000498:	e008      	b.n	80004ac <L6470_PrepareDaisyChainCommand+0x80>
      *(pL6470_DaisyChainSpiTxStruct+((0*L6470DAISYCHAINSIZE)+PkgId)) |= (L6470_Register[((pL6470_AppCmdPkg+PkgId)->p1)].Address);
 800049a:	6843      	ldr	r3, [r0, #4]
 800049c:	eb03 0383 	add.w	r3, r3, r3, lsl #2
 80004a0:	eb05 0383 	add.w	r3, r5, r3, lsl #2
 80004a4:	f893 310c 	ldrb.w	r3, [r3, #268]	; 0x10c
 80004a8:	431c      	orrs	r4, r3
 80004aa:	7014      	strb	r4, [r2, #0]
  for(PkgId=0; PkgId<L6470DAISYCHAINSIZE; PkgId++)
 80004ac:	3010      	adds	r0, #16
 80004ae:	42b7      	cmp	r7, r6
 80004b0:	f000 8094 	beq.w	80005dc <L6470_PrepareDaisyChainCommand+0x1b0>
    *(pL6470_DaisyChainSpiTxStruct+((0*L6470DAISYCHAINSIZE)+PkgId)) = (L6470_ApplicationCommand[(pL6470_AppCmdPkg+PkgId)->L6470_AppCmdId].BinaryCode);
 80004b4:	4684      	mov	ip, r0
 80004b6:	7803      	ldrb	r3, [r0, #0]
 80004b8:	ebc3 03c3 	rsb	r3, r3, r3, lsl #3
 80004bc:	eb05 0343 	add.w	r3, r5, r3, lsl #1
 80004c0:	7b1c      	ldrb	r4, [r3, #12]
 80004c2:	4617      	mov	r7, r2
 80004c4:	f802 4f01 	strb.w	r4, [r2, #1]!
    switch((pL6470_AppCmdPkg+PkgId)->L6470_AppCmdId)
 80004c8:	7803      	ldrb	r3, [r0, #0]
 80004ca:	f103 3eff 	add.w	lr, r3, #4294967295
 80004ce:	f1be 0f08 	cmp.w	lr, #8
 80004d2:	d8eb      	bhi.n	80004ac <L6470_PrepareDaisyChainCommand+0x80>
 80004d4:	f20f 0804 	addw	r8, pc, #4
 80004d8:	f858 f02e 	ldr.w	pc, [r8, lr, lsl #2]
 80004dc:	0800044b 	.word	0x0800044b
 80004e0:	0800049b 	.word	0x0800049b
 80004e4:	08000501 	.word	0x08000501
 80004e8:	08000521 	.word	0x08000521
 80004ec:	08000533 	.word	0x08000533
 80004f0:	08000553 	.word	0x08000553
 80004f4:	08000563 	.word	0x08000563
 80004f8:	08000583 	.word	0x08000583
 80004fc:	080005b7 	.word	0x080005b7
      *(pL6470_DaisyChainSpiTxStruct+((0*L6470DAISYCHAINSIZE)+PkgId)) |= (L6470_Direction[((pL6470_AppCmdPkg+PkgId)->p1)].BinaryCode);
 8000500:	6843      	ldr	r3, [r0, #4]
 8000502:	eb03 03c3 	add.w	r3, r3, r3, lsl #3
 8000506:	442b      	add	r3, r5
 8000508:	f893 3308 	ldrb.w	r3, [r3, #776]	; 0x308
 800050c:	431c      	orrs	r4, r3
 800050e:	7014      	strb	r4, [r2, #0]
        *(pL6470_DaisyChainSpiTxStruct+((spibyte*L6470DAISYCHAINSIZE)+PkgId)) = (uint8_t)(((pL6470_AppCmdPkg+PkgId)->p2) >> (8*(3-spibyte)));
 8000510:	8943      	ldrh	r3, [r0, #10]
 8000512:	7093      	strb	r3, [r2, #2]
 8000514:	6883      	ldr	r3, [r0, #8]
 8000516:	0a1b      	lsrs	r3, r3, #8
 8000518:	7113      	strb	r3, [r2, #4]
 800051a:	6883      	ldr	r3, [r0, #8]
 800051c:	7193      	strb	r3, [r2, #6]
      for (spibyte=1; spibyte<(3+1); spibyte++)
 800051e:	e7c5      	b.n	80004ac <L6470_PrepareDaisyChainCommand+0x80>
      *(pL6470_DaisyChainSpiTxStruct+((0*L6470DAISYCHAINSIZE)+PkgId)) |= (L6470_Direction[((pL6470_AppCmdPkg+PkgId)->p1)].BinaryCode);
 8000520:	6843      	ldr	r3, [r0, #4]
 8000522:	eb03 03c3 	add.w	r3, r3, r3, lsl #3
 8000526:	442b      	add	r3, r5
 8000528:	f893 3308 	ldrb.w	r3, [r3, #776]	; 0x308
 800052c:	431c      	orrs	r4, r3
 800052e:	7014      	strb	r4, [r2, #0]
      break;
 8000530:	e7bc      	b.n	80004ac <L6470_PrepareDaisyChainCommand+0x80>
      *(pL6470_DaisyChainSpiTxStruct+((0*L6470DAISYCHAINSIZE)+PkgId)) |= (L6470_Direction[((pL6470_AppCmdPkg+PkgId)->p1)].BinaryCode);
 8000532:	6843      	ldr	r3, [r0, #4]
 8000534:	eb03 03c3 	add.w	r3, r3, r3, lsl #3
 8000538:	442b      	add	r3, r5
 800053a:	f893 3308 	ldrb.w	r3, [r3, #776]	; 0x308
 800053e:	431c      	orrs	r4, r3
 8000540:	7014      	strb	r4, [r2, #0]
        *(pL6470_DaisyChainSpiTxStruct+((spibyte*L6470DAISYCHAINSIZE)+PkgId)) = (uint8_t)(((pL6470_AppCmdPkg+PkgId)->p2) >> (8*(3-spibyte)));
 8000542:	8943      	ldrh	r3, [r0, #10]
 8000544:	7093      	strb	r3, [r2, #2]
 8000546:	6883      	ldr	r3, [r0, #8]
 8000548:	0a1b      	lsrs	r3, r3, #8
 800054a:	7113      	strb	r3, [r2, #4]
 800054c:	6883      	ldr	r3, [r0, #8]
 800054e:	7193      	strb	r3, [r2, #6]
      for (spibyte=1; spibyte<(3+1); spibyte++)
 8000550:	e7ac      	b.n	80004ac <L6470_PrepareDaisyChainCommand+0x80>
        *(pL6470_DaisyChainSpiTxStruct+((spibyte*L6470DAISYCHAINSIZE)+PkgId)) = (uint8_t)(((pL6470_AppCmdPkg+PkgId)->p1) >> (8*(3-spibyte)));
 8000552:	88c3      	ldrh	r3, [r0, #6]
 8000554:	7093      	strb	r3, [r2, #2]
 8000556:	6843      	ldr	r3, [r0, #4]
 8000558:	0a1b      	lsrs	r3, r3, #8
 800055a:	7113      	strb	r3, [r2, #4]
 800055c:	6843      	ldr	r3, [r0, #4]
 800055e:	7193      	strb	r3, [r2, #6]
      for (spibyte=1; spibyte<(3+1); spibyte++)
 8000560:	e7a4      	b.n	80004ac <L6470_PrepareDaisyChainCommand+0x80>
      *(pL6470_DaisyChainSpiTxStruct+((0*L6470DAISYCHAINSIZE)+PkgId)) |= (L6470_Direction[((pL6470_AppCmdPkg+PkgId)->p1)].BinaryCode);
 8000562:	6843      	ldr	r3, [r0, #4]
 8000564:	eb03 03c3 	add.w	r3, r3, r3, lsl #3
 8000568:	442b      	add	r3, r5
 800056a:	f893 3308 	ldrb.w	r3, [r3, #776]	; 0x308
 800056e:	431c      	orrs	r4, r3
 8000570:	7014      	strb	r4, [r2, #0]
        *(pL6470_DaisyChainSpiTxStruct+((spibyte*L6470DAISYCHAINSIZE)+PkgId)) = (uint8_t)(((pL6470_AppCmdPkg+PkgId)->p2) >> (8*(3-spibyte)));
 8000572:	8943      	ldrh	r3, [r0, #10]
 8000574:	7093      	strb	r3, [r2, #2]
 8000576:	6883      	ldr	r3, [r0, #8]
 8000578:	0a1b      	lsrs	r3, r3, #8
 800057a:	7113      	strb	r3, [r2, #4]
 800057c:	6883      	ldr	r3, [r0, #8]
 800057e:	7193      	strb	r3, [r2, #6]
      for (spibyte=1; spibyte<(3+1); spibyte++)
 8000580:	e794      	b.n	80004ac <L6470_PrepareDaisyChainCommand+0x80>
      *(pL6470_DaisyChainSpiTxStruct+((0*L6470DAISYCHAINSIZE)+PkgId)) |= ((L6470_ACT[((pL6470_AppCmdPkg+PkgId)->p1)].BinaryCode)<<3);
 8000582:	6843      	ldr	r3, [r0, #4]
 8000584:	eb03 0383 	add.w	r3, r3, r3, lsl #2
 8000588:	442b      	add	r3, r5
 800058a:	f893 3318 	ldrb.w	r3, [r3, #792]	; 0x318
 800058e:	ea44 04c3 	orr.w	r4, r4, r3, lsl #3
 8000592:	b2e4      	uxtb	r4, r4
 8000594:	7014      	strb	r4, [r2, #0]
      *(pL6470_DaisyChainSpiTxStruct+((0*L6470DAISYCHAINSIZE)+PkgId)) |= (L6470_Direction[((pL6470_AppCmdPkg+PkgId)->p2)].BinaryCode);
 8000596:	6883      	ldr	r3, [r0, #8]
 8000598:	eb03 03c3 	add.w	r3, r3, r3, lsl #3
 800059c:	442b      	add	r3, r5
 800059e:	f893 3308 	ldrb.w	r3, [r3, #776]	; 0x308
 80005a2:	431c      	orrs	r4, r3
 80005a4:	7014      	strb	r4, [r2, #0]
        *(pL6470_DaisyChainSpiTxStruct+((spibyte*L6470DAISYCHAINSIZE)+PkgId)) = (uint8_t)(((pL6470_AppCmdPkg+PkgId)->p3) >> (8*(3-spibyte)));
 80005a6:	89c3      	ldrh	r3, [r0, #14]
 80005a8:	7093      	strb	r3, [r2, #2]
 80005aa:	68c3      	ldr	r3, [r0, #12]
 80005ac:	0a1b      	lsrs	r3, r3, #8
 80005ae:	7113      	strb	r3, [r2, #4]
 80005b0:	68c3      	ldr	r3, [r0, #12]
 80005b2:	7193      	strb	r3, [r2, #6]
      for (spibyte=1; spibyte<(3+1); spibyte++)
 80005b4:	e77a      	b.n	80004ac <L6470_PrepareDaisyChainCommand+0x80>
      *(pL6470_DaisyChainSpiTxStruct+((0*L6470DAISYCHAINSIZE)+PkgId)) |= ((L6470_ACT[((pL6470_AppCmdPkg+PkgId)->p1)].BinaryCode)<<3);
 80005b6:	6843      	ldr	r3, [r0, #4]
 80005b8:	eb03 0383 	add.w	r3, r3, r3, lsl #2
 80005bc:	442b      	add	r3, r5
 80005be:	f893 3318 	ldrb.w	r3, [r3, #792]	; 0x318
 80005c2:	ea44 04c3 	orr.w	r4, r4, r3, lsl #3
 80005c6:	b2e4      	uxtb	r4, r4
 80005c8:	7014      	strb	r4, [r2, #0]
      *(pL6470_DaisyChainSpiTxStruct+((0*L6470DAISYCHAINSIZE)+PkgId)) |= (L6470_Direction[((pL6470_AppCmdPkg+PkgId)->p2)].BinaryCode);
 80005ca:	6883      	ldr	r3, [r0, #8]
 80005cc:	eb03 03c3 	add.w	r3, r3, r3, lsl #3
 80005d0:	442b      	add	r3, r5
 80005d2:	f893 3308 	ldrb.w	r3, [r3, #776]	; 0x308
 80005d6:	431c      	orrs	r4, r3
 80005d8:	7014      	strb	r4, [r2, #0]
      break;
 80005da:	e767      	b.n	80004ac <L6470_PrepareDaisyChainCommand+0x80>
}
 80005dc:	e8bd 87f0 	ldmia.w	sp!, {r4, r5, r6, r7, r8, r9, sl, pc}
 80005e0:	0800412c 	.word	0x0800412c

080005e4 <Step_s_2_Speed>:
  if (Step_s <= (L6470_MAX_SPEED * ((float)14.9012e-3)))
 80005e4:	eddf 7a08 	vldr	s15, [pc, #32]	; 8000608 <Step_s_2_Speed+0x24>
 80005e8:	eeb4 0ae7 	vcmpe.f32	s0, s15
 80005ec:	eef1 fa10 	vmrs	APSR_nzcv, fpscr
 80005f0:	d808      	bhi.n	8000604 <Step_s_2_Speed+0x20>
    return (uint32_t)(Step_s / ((float)14.9012e-3));
 80005f2:	ed9f 7a06 	vldr	s14, [pc, #24]	; 800060c <Step_s_2_Speed+0x28>
 80005f6:	eec0 7a07 	vdiv.f32	s15, s0, s14
 80005fa:	eefc 7ae7 	vcvt.u32.f32	s15, s15
 80005fe:	ee17 0a90 	vmov	r0, s15
 8000602:	4770      	bx	lr
    return 0;   // Warning
 8000604:	2000      	movs	r0, #0
}
 8000606:	4770      	bx	lr
 8000608:	4674241b 	.word	0x4674241b
 800060c:	3c74242a 	.word	0x3c74242a

08000610 <Step_s2_2_Acc>:
  if (Step_s2 <= (L6470_MAX_ACC * ((float)1.4552e1)))
 8000610:	eddf 7a09 	vldr	s15, [pc, #36]	; 8000638 <Step_s2_2_Acc+0x28>
 8000614:	eeb4 0ae7 	vcmpe.f32	s0, s15
 8000618:	eef1 fa10 	vmrs	APSR_nzcv, fpscr
 800061c:	d809      	bhi.n	8000632 <Step_s2_2_Acc+0x22>
    return (uint16_t)(Step_s2 / ((float)1.4552e1));
 800061e:	ed9f 7a07 	vldr	s14, [pc, #28]	; 800063c <Step_s2_2_Acc+0x2c>
 8000622:	eec0 7a07 	vdiv.f32	s15, s0, s14
 8000626:	eefc 7ae7 	vcvt.u32.f32	s15, s15
 800062a:	ee17 3a90 	vmov	r3, s15
 800062e:	b298      	uxth	r0, r3
 8000630:	4770      	bx	lr
    return 0;   // Warning
 8000632:	2000      	movs	r0, #0
}
 8000634:	4770      	bx	lr
 8000636:	bf00      	nop
 8000638:	4768c671 	.word	0x4768c671
 800063c:	4168d4fe 	.word	0x4168d4fe

08000640 <Step_s2_2_Dec>:
  if (Step_s2 <= (L6470_MAX_DEC * ((float)1.4552e1)))
 8000640:	eddf 7a09 	vldr	s15, [pc, #36]	; 8000668 <Step_s2_2_Dec+0x28>
 8000644:	eeb4 0ae7 	vcmpe.f32	s0, s15
 8000648:	eef1 fa10 	vmrs	APSR_nzcv, fpscr
 800064c:	d809      	bhi.n	8000662 <Step_s2_2_Dec+0x22>
    return (uint16_t)(Step_s2 / ((float)1.4552e1));
 800064e:	ed9f 7a07 	vldr	s14, [pc, #28]	; 800066c <Step_s2_2_Dec+0x2c>
 8000652:	eec0 7a07 	vdiv.f32	s15, s0, s14
 8000656:	eefc 7ae7 	vcvt.u32.f32	s15, s15
 800065a:	ee17 3a90 	vmov	r3, s15
 800065e:	b298      	uxth	r0, r3
 8000660:	4770      	bx	lr
    return 0;   // Warning
 8000662:	2000      	movs	r0, #0
}
 8000664:	4770      	bx	lr
 8000666:	bf00      	nop
 8000668:	4768c671 	.word	0x4768c671
 800066c:	4168d4fe 	.word	0x4168d4fe

08000670 <Step_s_2_MaxSpeed>:
  if (Step_s <= (L6470_MAX_MAX_SPEED * ((float)15.2588)))
 8000670:	eddf 7a09 	vldr	s15, [pc, #36]	; 8000698 <Step_s_2_MaxSpeed+0x28>
 8000674:	eeb4 0ae7 	vcmpe.f32	s0, s15
 8000678:	eef1 fa10 	vmrs	APSR_nzcv, fpscr
 800067c:	d809      	bhi.n	8000692 <Step_s_2_MaxSpeed+0x22>
    return (uint16_t)(Step_s / ((float)15.2588));
 800067e:	ed9f 7a07 	vldr	s14, [pc, #28]	; 800069c <Step_s_2_MaxSpeed+0x2c>
 8000682:	eec0 7a07 	vdiv.f32	s15, s0, s14
 8000686:	eefc 7ae7 	vcvt.u32.f32	s15, s15
 800068a:	ee17 3a90 	vmov	r3, s15
 800068e:	b298      	uxth	r0, r3
 8000690:	4770      	bx	lr
    return 0;   // Warning
 8000692:	2000      	movs	r0, #0
}
 8000694:	4770      	bx	lr
 8000696:	bf00      	nop
 8000698:	4673e702 	.word	0x4673e702
 800069c:	4174240b 	.word	0x4174240b

080006a0 <Step_s_2_MinSpeed>:
  if (Step_s <= (L6470_MAX_MIN_SPEED * ((float)238.4186e-3)))
 80006a0:	eddf 7a09 	vldr	s15, [pc, #36]	; 80006c8 <Step_s_2_MinSpeed+0x28>
 80006a4:	eeb4 0ae7 	vcmpe.f32	s0, s15
 80006a8:	eef1 fa10 	vmrs	APSR_nzcv, fpscr
 80006ac:	d809      	bhi.n	80006c2 <Step_s_2_MinSpeed+0x22>
    return (uint16_t)(Step_s / ((float)238.4186e-3));
 80006ae:	ed9f 7a07 	vldr	s14, [pc, #28]	; 80006cc <Step_s_2_MinSpeed+0x2c>
 80006b2:	eec0 7a07 	vdiv.f32	s15, s0, s14
 80006b6:	eefc 7ae7 	vcvt.u32.f32	s15, s15
 80006ba:	ee17 3a90 	vmov	r3, s15
 80006be:	b298      	uxth	r0, r3
 80006c0:	4770      	bx	lr
    return 0;   // Warning
 80006c2:	2000      	movs	r0, #0
}
 80006c4:	4770      	bx	lr
 80006c6:	bf00      	nop
 80006c8:	447414bf 	.word	0x447414bf
 80006cc:	3e742401 	.word	0x3e742401

080006d0 <Step_s_2_FsSpd>:
  if (Step_s <= ((L6470_MAX_FS_SPD+0.5) * ((float)15.25)))
 80006d0:	eddf 7a0b 	vldr	s15, [pc, #44]	; 8000700 <Step_s_2_FsSpd+0x30>
 80006d4:	eeb4 0ae7 	vcmpe.f32	s0, s15
 80006d8:	eef1 fa10 	vmrs	APSR_nzcv, fpscr
 80006dc:	d80d      	bhi.n	80006fa <Step_s_2_FsSpd+0x2a>
    return (uint16_t)((float)(Step_s / ((float)15.25)) - (float)0.5);
 80006de:	ed9f 7a09 	vldr	s14, [pc, #36]	; 8000704 <Step_s_2_FsSpd+0x34>
 80006e2:	eec0 7a07 	vdiv.f32	s15, s0, s14
 80006e6:	eeb6 7a00 	vmov.f32	s14, #96	; 0x3f000000  0.5
 80006ea:	ee77 7ac7 	vsub.f32	s15, s15, s14
 80006ee:	eefc 7ae7 	vcvt.u32.f32	s15, s15
 80006f2:	ee17 3a90 	vmov	r3, s15
 80006f6:	b298      	uxth	r0, r3
 80006f8:	4770      	bx	lr
    return 0;   // Warning
 80006fa:	2000      	movs	r0, #0
}
 80006fc:	4770      	bx	lr
 80006fe:	bf00      	nop
 8000700:	4673e180 	.word	0x4673e180
 8000704:	41740000 	.word	0x41740000

08000708 <Step_s_2_IntSpeed>:
  if (Step_s <= (L6470_MAX_INT_SPEED * ((float)59.6046e-3)))
 8000708:	eddf 7a09 	vldr	s15, [pc, #36]	; 8000730 <Step_s_2_IntSpeed+0x28>
 800070c:	eeb4 0ae7 	vcmpe.f32	s0, s15
 8000710:	eef1 fa10 	vmrs	APSR_nzcv, fpscr
 8000714:	d809      	bhi.n	800072a <Step_s_2_IntSpeed+0x22>
    return (uint16_t)(Step_s / ((float)59.6046e-3));
 8000716:	ed9f 7a07 	vldr	s14, [pc, #28]	; 8000734 <Step_s_2_IntSpeed+0x2c>
 800071a:	eec0 7a07 	vdiv.f32	s15, s0, s14
 800071e:	eefc 7ae7 	vcvt.u32.f32	s15, s15
 8000722:	ee17 3a90 	vmov	r3, s15
 8000726:	b298      	uxth	r0, r3
 8000728:	4770      	bx	lr
    return 0;   // Warning
 800072a:	2000      	movs	r0, #0
}
 800072c:	4770      	bx	lr
 800072e:	bf00      	nop
 8000730:	44742023 	.word	0x44742023
 8000734:	3d7423f4 	.word	0x3d7423f4

08000738 <s_Step_2_StSlp>:
  if (s_Step <= (L6470_MAX_ST_SLP * ((float)1.5686e-5)))
 8000738:	eddf 7a0a 	vldr	s15, [pc, #40]	; 8000764 <s_Step_2_StSlp+0x2c>
 800073c:	eeb4 0ae7 	vcmpe.f32	s0, s15
 8000740:	eef1 fa10 	vmrs	APSR_nzcv, fpscr
 8000744:	d80c      	bhi.n	8000760 <s_Step_2_StSlp+0x28>
{
 8000746:	b082      	sub	sp, #8
    return (uint8_t)(s_Step / ((float)1.5686e-5));
 8000748:	ed9f 7a07 	vldr	s14, [pc, #28]	; 8000768 <s_Step_2_StSlp+0x30>
 800074c:	eec0 7a07 	vdiv.f32	s15, s0, s14
 8000750:	eefc 7ae7 	vcvt.u32.f32	s15, s15
 8000754:	edcd 7a01 	vstr	s15, [sp, #4]
 8000758:	f89d 0004 	ldrb.w	r0, [sp, #4]
}
 800075c:	b002      	add	sp, #8
 800075e:	4770      	bx	lr
    return 0;   // Warning
 8000760:	2000      	movs	r0, #0
}
 8000762:	4770      	bx	lr
 8000764:	3b8311d9 	.word	0x3b8311d9
 8000768:	3783956e 	.word	0x3783956e

0800076c <s_Step_2_FnSlpAcc>:
  if (s_Step <= (L6470_MAX_FN_SLP_ACC * ((float)1.5686e-5)))
 800076c:	eddf 7a0a 	vldr	s15, [pc, #40]	; 8000798 <s_Step_2_FnSlpAcc+0x2c>
 8000770:	eeb4 0ae7 	vcmpe.f32	s0, s15
 8000774:	eef1 fa10 	vmrs	APSR_nzcv, fpscr
 8000778:	d80c      	bhi.n	8000794 <s_Step_2_FnSlpAcc+0x28>
{
 800077a:	b082      	sub	sp, #8
    return (uint8_t)(s_Step / ((float)1.5686e-5));
 800077c:	ed9f 7a07 	vldr	s14, [pc, #28]	; 800079c <s_Step_2_FnSlpAcc+0x30>
 8000780:	eec0 7a07 	vdiv.f32	s15, s0, s14
 8000784:	eefc 7ae7 	vcvt.u32.f32	s15, s15
 8000788:	edcd 7a01 	vstr	s15, [sp, #4]
 800078c:	f89d 0004 	ldrb.w	r0, [sp, #4]
}
 8000790:	b002      	add	sp, #8
 8000792:	4770      	bx	lr
    return 0;   // Warning
 8000794:	2000      	movs	r0, #0
}
 8000796:	4770      	bx	lr
 8000798:	3b8311d9 	.word	0x3b8311d9
 800079c:	3783956e 	.word	0x3783956e

080007a0 <s_Step_2_FnSlpDec>:
  if (s_Step <= (L6470_MAX_FN_SLP_DEC * ((float)1.5686e-5)))
 80007a0:	eddf 7a0a 	vldr	s15, [pc, #40]	; 80007cc <s_Step_2_FnSlpDec+0x2c>
 80007a4:	eeb4 0ae7 	vcmpe.f32	s0, s15
 80007a8:	eef1 fa10 	vmrs	APSR_nzcv, fpscr
 80007ac:	d80c      	bhi.n	80007c8 <s_Step_2_FnSlpDec+0x28>
{
 80007ae:	b082      	sub	sp, #8
    return (uint8_t)(s_Step / ((float)1.5686e-5));
 80007b0:	ed9f 7a07 	vldr	s14, [pc, #28]	; 80007d0 <s_Step_2_FnSlpDec+0x30>
 80007b4:	eec0 7a07 	vdiv.f32	s15, s0, s14
 80007b8:	eefc 7ae7 	vcvt.u32.f32	s15, s15
 80007bc:	edcd 7a01 	vstr	s15, [sp, #4]
 80007c0:	f89d 0004 	ldrb.w	r0, [sp, #4]
}
 80007c4:	b002      	add	sp, #8
 80007c6:	4770      	bx	lr
    return 0;   // Warning
 80007c8:	2000      	movs	r0, #0
}
 80007ca:	4770      	bx	lr
 80007cc:	3b8311d9 	.word	0x3b8311d9
 80007d0:	3783956e 	.word	0x3783956e

080007d4 <mA_2_OcdTh>:
  if (mA <= ((L6470_MAX_OCD_TH+1) * ((float)375)))
 80007d4:	eddf 7a12 	vldr	s15, [pc, #72]	; 8000820 <mA_2_OcdTh+0x4c>
 80007d8:	eeb4 0ae7 	vcmpe.f32	s0, s15
 80007dc:	eef1 fa10 	vmrs	APSR_nzcv, fpscr
 80007e0:	d81b      	bhi.n	800081a <mA_2_OcdTh+0x46>
{
 80007e2:	b082      	sub	sp, #8
    result = (mA / ((float)375));
 80007e4:	ed9f 7a0f 	vldr	s14, [pc, #60]	; 8000824 <mA_2_OcdTh+0x50>
 80007e8:	eec0 7a07 	vdiv.f32	s15, s0, s14
    decimal = result - (uint8_t)result;
 80007ec:	eebc 7ae7 	vcvt.u32.f32	s14, s15
 80007f0:	ed8d 7a01 	vstr	s14, [sp, #4]
 80007f4:	f89d 0004 	ldrb.w	r0, [sp, #4]
 80007f8:	ee07 0a10 	vmov	s14, r0
 80007fc:	eeb8 7ac7 	vcvt.f32.s32	s14, s14
 8000800:	ee77 7ac7 	vsub.f32	s15, s15, s14
    if (decimal < (float)0.5)
 8000804:	eeb6 7a00 	vmov.f32	s14, #96	; 0x3f000000  0.5
 8000808:	eef4 7ac7 	vcmpe.f32	s15, s14
 800080c:	eef1 fa10 	vmrs	APSR_nzcv, fpscr
 8000810:	d501      	bpl.n	8000816 <mA_2_OcdTh+0x42>
      return ((uint8_t)result - 1);
 8000812:	3801      	subs	r0, #1
 8000814:	b2c0      	uxtb	r0, r0
}
 8000816:	b002      	add	sp, #8
 8000818:	4770      	bx	lr
    return 0;   // Warning
 800081a:	2000      	movs	r0, #0
}
 800081c:	4770      	bx	lr
 800081e:	bf00      	nop
 8000820:	45bb8000 	.word	0x45bb8000
 8000824:	43bb8000 	.word	0x43bb8000

08000828 <mA_2_StallTh>:
  if (mA <= ((L6470_MAX_STALL_TH+1) * ((float)31.25)))
 8000828:	eddf 7a12 	vldr	s15, [pc, #72]	; 8000874 <mA_2_StallTh+0x4c>
 800082c:	eeb4 0ae7 	vcmpe.f32	s0, s15
 8000830:	eef1 fa10 	vmrs	APSR_nzcv, fpscr
 8000834:	d81b      	bhi.n	800086e <mA_2_StallTh+0x46>
{
 8000836:	b082      	sub	sp, #8
    result = (mA / ((float)31.25));
 8000838:	ed9f 7a0f 	vldr	s14, [pc, #60]	; 8000878 <mA_2_StallTh+0x50>
 800083c:	eec0 7a07 	vdiv.f32	s15, s0, s14
    decimal = result - (uint8_t)result;
 8000840:	eebc 7ae7 	vcvt.u32.f32	s14, s15
 8000844:	ed8d 7a01 	vstr	s14, [sp, #4]
 8000848:	f89d 0004 	ldrb.w	r0, [sp, #4]
 800084c:	ee07 0a10 	vmov	s14, r0
 8000850:	eeb8 7ac7 	vcvt.f32.s32	s14, s14
 8000854:	ee77 7ac7 	vsub.f32	s15, s15, s14
    if (decimal < (float)0.5)
 8000858:	eeb6 7a00 	vmov.f32	s14, #96	; 0x3f000000  0.5
 800085c:	eef4 7ac7 	vcmpe.f32	s15, s14
 8000860:	eef1 fa10 	vmrs	APSR_nzcv, fpscr
 8000864:	d501      	bpl.n	800086a <mA_2_StallTh+0x42>
      return ((uint8_t)result - 1);
 8000866:	3801      	subs	r0, #1
 8000868:	b2c0      	uxtb	r0, r0
}
 800086a:	b002      	add	sp, #8
 800086c:	4770      	bx	lr
    return 0;   // Warning
 800086e:	2000      	movs	r0, #0
}
 8000870:	4770      	bx	lr
 8000872:	bf00      	nop
 8000874:	457a0000 	.word	0x457a0000
 8000878:	41fa0000 	.word	0x41fa0000

0800087c <L6470_ID>:
  }
  else
  {
    return 0xFF;
  }
}
 800087c:	2801      	cmp	r0, #1
 800087e:	bf88      	it	hi
 8000880:	20ff      	movhi	r0, #255	; 0xff
 8000882:	4770      	bx	lr

08000884 <L6470_DaisyChainCommand>:
  * @brief  Send command to the L6470 daisy chain via SPI
  * @param  pL6470_DaisyChainSpiTxStruct  Pointer to the matrix array of bytes to be sent to the daisy chain L6470
  * @param  pL6470_DaisyChainSpiRxStruct  Pointer to the matrix array of bytes to be received from the daisy chain L6470
  */
void L6470_DaisyChainCommand(uint8_t* pL6470_DaisyChainSpiTxStruct, uint8_t* pL6470_DaisyChainSpiRxStruct)
{
 8000884:	e92d 43f0 	stmdb	sp!, {r4, r5, r6, r7, r8, r9, lr}
 8000888:	b083      	sub	sp, #12
 800088a:	4681      	mov	r9, r0
 800088c:	4688      	mov	r8, r1
  uint8_t spibyte;
  
  L6470_DaisyChain_HalfPrepared = ZERO_F;
 800088e:	2500      	movs	r5, #0
 8000890:	4b13      	ldr	r3, [pc, #76]	; (80008e0 <L6470_DaisyChainCommand+0x5c>)
 8000892:	701d      	strb	r5, [r3, #0]
  
  /* Send all command bytes via SPI */
  for(spibyte=0; spibyte < L6470MAXSPICMDBYTESIZE; spibyte++)
  {
    /* Enable SPI communication for L6470 */
    L6470_nCS_LOW();
 8000894:	4e13      	ldr	r6, [pc, #76]	; (80008e4 <L6470_DaisyChainCommand+0x60>)
 8000896:	462f      	mov	r7, r5
    L6470_SPI_Communication(&HSPI, (pL6470_DaisyChainSpiTxStruct+(spibyte * L6470DAISYCHAINSIZE)), (pL6470_DaisyChainSpiRxStruct+(spibyte * L6470DAISYCHAINSIZE)), L6470DAISYCHAINSIZE, 10);
    
    /* Allow the device to decode the received command */
    L6470_nCS_HIGH();
    
    _DELAY(TDISCS);
 8000898:	4c13      	ldr	r4, [pc, #76]	; (80008e8 <L6470_DaisyChainCommand+0x64>)
    L6470_nCS_LOW();
 800089a:	463a      	mov	r2, r7
 800089c:	8931      	ldrh	r1, [r6, #8]
 800089e:	6870      	ldr	r0, [r6, #4]
 80008a0:	f001 f930 	bl	8001b04 <HAL_GPIO_WritePin>
    L6470_SPI_Communication(&HSPI, (pL6470_DaisyChainSpiTxStruct+(spibyte * L6470DAISYCHAINSIZE)), (pL6470_DaisyChainSpiRxStruct+(spibyte * L6470DAISYCHAINSIZE)), L6470DAISYCHAINSIZE, 10);
 80008a4:	230a      	movs	r3, #10
 80008a6:	9300      	str	r3, [sp, #0]
 80008a8:	2302      	movs	r3, #2
 80008aa:	eb08 0205 	add.w	r2, r8, r5
 80008ae:	eb09 0105 	add.w	r1, r9, r5
 80008b2:	480e      	ldr	r0, [pc, #56]	; (80008ec <L6470_DaisyChainCommand+0x68>)
 80008b4:	f002 fa62 	bl	8002d7c <HAL_SPI_TransmitReceive>
    L6470_nCS_HIGH();
 80008b8:	2201      	movs	r2, #1
 80008ba:	8931      	ldrh	r1, [r6, #8]
 80008bc:	6870      	ldr	r0, [r6, #4]
 80008be:	f001 f921 	bl	8001b04 <HAL_GPIO_WritePin>
    _DELAY(TDISCS);
 80008c2:	7027      	strb	r7, [r4, #0]

    No Operation does nothing. This instruction can be used for code alignment purposes.
 */
__attribute__((always_inline)) __STATIC_INLINE void __NOP(void)
{
  __ASM volatile ("nop");
 80008c4:	bf00      	nop
 80008c6:	7823      	ldrb	r3, [r4, #0]
 80008c8:	3301      	adds	r3, #1
 80008ca:	b2db      	uxtb	r3, r3
 80008cc:	7023      	strb	r3, [r4, #0]
 80008ce:	2b13      	cmp	r3, #19
 80008d0:	d9f8      	bls.n	80008c4 <L6470_DaisyChainCommand+0x40>
  for(spibyte=0; spibyte < L6470MAXSPICMDBYTESIZE; spibyte++)
 80008d2:	3502      	adds	r5, #2
 80008d4:	2d08      	cmp	r5, #8
 80008d6:	d1e0      	bne.n	800089a <L6470_DaisyChainCommand+0x16>
  }
}
 80008d8:	b003      	add	sp, #12
 80008da:	e8bd 83f0 	ldmia.w	sp!, {r4, r5, r6, r7, r8, r9, pc}
 80008de:	bf00      	nop
 80008e0:	20000394 	.word	0x20000394
 80008e4:	200003e4 	.word	0x200003e4
 80008e8:	200003e2 	.word	0x200003e2
 80008ec:	200003f4 	.word	0x200003f4

080008f0 <L6470_SetParam>:
{
 80008f0:	b530      	push	{r4, r5, lr}
 80008f2:	b083      	sub	sp, #12
 80008f4:	460b      	mov	r3, r1
  L6470_PrepareAppCmdPkg(L6470_Id, L6470_AppCmdPkg, L6470_SETPARAM_ID, L6470_RegId, Value, 0);
 80008f6:	4d09      	ldr	r5, [pc, #36]	; (800091c <L6470_SetParam+0x2c>)
 80008f8:	2100      	movs	r1, #0
 80008fa:	9101      	str	r1, [sp, #4]
 80008fc:	9200      	str	r2, [sp, #0]
 80008fe:	2201      	movs	r2, #1
 8000900:	4629      	mov	r1, r5
 8000902:	f7ff fc6b 	bl	80001dc <L6470_PrepareAppCmdPkg>
  L6470_PrepareDaisyChainCommand(L6470_AppCmdPkg, (uint8_t*)L6470_DaisyChainSpiTxStruct);
 8000906:	4c06      	ldr	r4, [pc, #24]	; (8000920 <L6470_SetParam+0x30>)
 8000908:	4621      	mov	r1, r4
 800090a:	4628      	mov	r0, r5
 800090c:	f7ff fd8e 	bl	800042c <L6470_PrepareDaisyChainCommand>
  L6470_DaisyChainCommand((uint8_t*)L6470_DaisyChainSpiTxStruct, (uint8_t*)L6470_DaisyChainSpiRxStruct);
 8000910:	4904      	ldr	r1, [pc, #16]	; (8000924 <L6470_SetParam+0x34>)
 8000912:	4620      	mov	r0, r4
 8000914:	f7ff ffb6 	bl	8000884 <L6470_DaisyChainCommand>
}
 8000918:	b003      	add	sp, #12
 800091a:	bd30      	pop	{r4, r5, pc}
 800091c:	200003c0 	.word	0x200003c0
 8000920:	200003b8 	.word	0x200003b8
 8000924:	200003b0 	.word	0x200003b0

08000928 <L6470_Run>:
{
 8000928:	b530      	push	{r4, r5, lr}
 800092a:	b083      	sub	sp, #12
 800092c:	460b      	mov	r3, r1
  L6470_PrepareAppCmdPkg(L6470_Id, L6470_AppCmdPkg, L6470_RUN_ID, L6470_DirId, Speed, 0);
 800092e:	4d09      	ldr	r5, [pc, #36]	; (8000954 <L6470_Run+0x2c>)
 8000930:	2100      	movs	r1, #0
 8000932:	9101      	str	r1, [sp, #4]
 8000934:	9200      	str	r2, [sp, #0]
 8000936:	2203      	movs	r2, #3
 8000938:	4629      	mov	r1, r5
 800093a:	f7ff fc4f 	bl	80001dc <L6470_PrepareAppCmdPkg>
  L6470_PrepareDaisyChainCommand(L6470_AppCmdPkg, (uint8_t*)L6470_DaisyChainSpiTxStruct);
 800093e:	4c06      	ldr	r4, [pc, #24]	; (8000958 <L6470_Run+0x30>)
 8000940:	4621      	mov	r1, r4
 8000942:	4628      	mov	r0, r5
 8000944:	f7ff fd72 	bl	800042c <L6470_PrepareDaisyChainCommand>
  L6470_DaisyChainCommand((uint8_t*)L6470_DaisyChainSpiTxStruct, (uint8_t*)L6470_DaisyChainSpiRxStruct);
 8000948:	4904      	ldr	r1, [pc, #16]	; (800095c <L6470_Run+0x34>)
 800094a:	4620      	mov	r0, r4
 800094c:	f7ff ff9a 	bl	8000884 <L6470_DaisyChainCommand>
}
 8000950:	b003      	add	sp, #12
 8000952:	bd30      	pop	{r4, r5, pc}
 8000954:	200003c0 	.word	0x200003c0
 8000958:	200003b8 	.word	0x200003b8
 800095c:	200003b0 	.word	0x200003b0

08000960 <L6470_StepClock>:
{
 8000960:	b530      	push	{r4, r5, lr}
 8000962:	b083      	sub	sp, #12
 8000964:	460b      	mov	r3, r1
  L6470_PrepareAppCmdPkg(L6470_Id, L6470_AppCmdPkg, L6470_STEPCLOCK_ID, L6470_DirId, 0, 0);
 8000966:	4d09      	ldr	r5, [pc, #36]	; (800098c <L6470_StepClock+0x2c>)
 8000968:	2200      	movs	r2, #0
 800096a:	9201      	str	r2, [sp, #4]
 800096c:	9200      	str	r2, [sp, #0]
 800096e:	2204      	movs	r2, #4
 8000970:	4629      	mov	r1, r5
 8000972:	f7ff fc33 	bl	80001dc <L6470_PrepareAppCmdPkg>
  L6470_PrepareDaisyChainCommand(L6470_AppCmdPkg, (uint8_t*)L6470_DaisyChainSpiTxStruct);
 8000976:	4c06      	ldr	r4, [pc, #24]	; (8000990 <L6470_StepClock+0x30>)
 8000978:	4621      	mov	r1, r4
 800097a:	4628      	mov	r0, r5
 800097c:	f7ff fd56 	bl	800042c <L6470_PrepareDaisyChainCommand>
  L6470_DaisyChainCommand((uint8_t*)L6470_DaisyChainSpiTxStruct, (uint8_t*)L6470_DaisyChainSpiRxStruct);
 8000980:	4904      	ldr	r1, [pc, #16]	; (8000994 <L6470_StepClock+0x34>)
 8000982:	4620      	mov	r0, r4
 8000984:	f7ff ff7e 	bl	8000884 <L6470_DaisyChainCommand>
}
 8000988:	b003      	add	sp, #12
 800098a:	bd30      	pop	{r4, r5, pc}
 800098c:	200003c0 	.word	0x200003c0
 8000990:	200003b8 	.word	0x200003b8
 8000994:	200003b0 	.word	0x200003b0

08000998 <L6470_Move>:
{
 8000998:	b530      	push	{r4, r5, lr}
 800099a:	b083      	sub	sp, #12
 800099c:	460b      	mov	r3, r1
  L6470_PrepareAppCmdPkg(L6470_Id, L6470_AppCmdPkg, L6470_MOVE_ID, L6470_DirId, N_Step, 0);
 800099e:	4d09      	ldr	r5, [pc, #36]	; (80009c4 <L6470_Move+0x2c>)
 80009a0:	2100      	movs	r1, #0
 80009a2:	9101      	str	r1, [sp, #4]
 80009a4:	9200      	str	r2, [sp, #0]
 80009a6:	2205      	movs	r2, #5
 80009a8:	4629      	mov	r1, r5
 80009aa:	f7ff fc17 	bl	80001dc <L6470_PrepareAppCmdPkg>
  L6470_PrepareDaisyChainCommand(L6470_AppCmdPkg, (uint8_t*)L6470_DaisyChainSpiTxStruct);
 80009ae:	4c06      	ldr	r4, [pc, #24]	; (80009c8 <L6470_Move+0x30>)
 80009b0:	4621      	mov	r1, r4
 80009b2:	4628      	mov	r0, r5
 80009b4:	f7ff fd3a 	bl	800042c <L6470_PrepareDaisyChainCommand>
  L6470_DaisyChainCommand((uint8_t*)L6470_DaisyChainSpiTxStruct, (uint8_t*)L6470_DaisyChainSpiRxStruct);
 80009b8:	4904      	ldr	r1, [pc, #16]	; (80009cc <L6470_Move+0x34>)
 80009ba:	4620      	mov	r0, r4
 80009bc:	f7ff ff62 	bl	8000884 <L6470_DaisyChainCommand>
}
 80009c0:	b003      	add	sp, #12
 80009c2:	bd30      	pop	{r4, r5, pc}
 80009c4:	200003c0 	.word	0x200003c0
 80009c8:	200003b8 	.word	0x200003b8
 80009cc:	200003b0 	.word	0x200003b0

080009d0 <L6470_GoTo>:
  if (AbsPos <= L6470_POSITION_RANGE)
 80009d0:	f5b1 0f80 	cmp.w	r1, #4194304	; 0x400000
 80009d4:	d300      	bcc.n	80009d8 <L6470_GoTo+0x8>
 80009d6:	4770      	bx	lr
{
 80009d8:	b530      	push	{r4, r5, lr}
 80009da:	b083      	sub	sp, #12
    L6470_PrepareAppCmdPkg(L6470_Id, L6470_AppCmdPkg, L6470_GOTO_ID, AbsPos, 0, 0);
 80009dc:	4d09      	ldr	r5, [pc, #36]	; (8000a04 <L6470_GoTo+0x34>)
 80009de:	2200      	movs	r2, #0
 80009e0:	9201      	str	r2, [sp, #4]
 80009e2:	9200      	str	r2, [sp, #0]
 80009e4:	460b      	mov	r3, r1
 80009e6:	2206      	movs	r2, #6
 80009e8:	4629      	mov	r1, r5
 80009ea:	f7ff fbf7 	bl	80001dc <L6470_PrepareAppCmdPkg>
    L6470_PrepareDaisyChainCommand(L6470_AppCmdPkg, (uint8_t*)L6470_DaisyChainSpiTxStruct);
 80009ee:	4c06      	ldr	r4, [pc, #24]	; (8000a08 <L6470_GoTo+0x38>)
 80009f0:	4621      	mov	r1, r4
 80009f2:	4628      	mov	r0, r5
 80009f4:	f7ff fd1a 	bl	800042c <L6470_PrepareDaisyChainCommand>
    L6470_DaisyChainCommand((uint8_t*)L6470_DaisyChainSpiTxStruct, (uint8_t*)L6470_DaisyChainSpiRxStruct);
 80009f8:	4904      	ldr	r1, [pc, #16]	; (8000a0c <L6470_GoTo+0x3c>)
 80009fa:	4620      	mov	r0, r4
 80009fc:	f7ff ff42 	bl	8000884 <L6470_DaisyChainCommand>
}
 8000a00:	b003      	add	sp, #12
 8000a02:	bd30      	pop	{r4, r5, pc}
 8000a04:	200003c0 	.word	0x200003c0
 8000a08:	200003b8 	.word	0x200003b8
 8000a0c:	200003b0 	.word	0x200003b0

08000a10 <L6470_GoToDir>:
  if (AbsPos <= L6470_POSITION_RANGE)
 8000a10:	f5b2 0f80 	cmp.w	r2, #4194304	; 0x400000
 8000a14:	d300      	bcc.n	8000a18 <L6470_GoToDir+0x8>
 8000a16:	4770      	bx	lr
{
 8000a18:	b530      	push	{r4, r5, lr}
 8000a1a:	b083      	sub	sp, #12
    L6470_PrepareAppCmdPkg(L6470_Id, L6470_AppCmdPkg, L6470_GOTODIR_ID, L6470_DirId, AbsPos, 0);
 8000a1c:	4d09      	ldr	r5, [pc, #36]	; (8000a44 <L6470_GoToDir+0x34>)
 8000a1e:	2300      	movs	r3, #0
 8000a20:	9301      	str	r3, [sp, #4]
 8000a22:	9200      	str	r2, [sp, #0]
 8000a24:	460b      	mov	r3, r1
 8000a26:	2207      	movs	r2, #7
 8000a28:	4629      	mov	r1, r5
 8000a2a:	f7ff fbd7 	bl	80001dc <L6470_PrepareAppCmdPkg>
    L6470_PrepareDaisyChainCommand(L6470_AppCmdPkg, (uint8_t*)L6470_DaisyChainSpiTxStruct);
 8000a2e:	4c06      	ldr	r4, [pc, #24]	; (8000a48 <L6470_GoToDir+0x38>)
 8000a30:	4621      	mov	r1, r4
 8000a32:	4628      	mov	r0, r5
 8000a34:	f7ff fcfa 	bl	800042c <L6470_PrepareDaisyChainCommand>
    L6470_DaisyChainCommand((uint8_t*)L6470_DaisyChainSpiTxStruct, (uint8_t*)L6470_DaisyChainSpiRxStruct);
 8000a38:	4904      	ldr	r1, [pc, #16]	; (8000a4c <L6470_GoToDir+0x3c>)
 8000a3a:	4620      	mov	r0, r4
 8000a3c:	f7ff ff22 	bl	8000884 <L6470_DaisyChainCommand>
}
 8000a40:	b003      	add	sp, #12
 8000a42:	bd30      	pop	{r4, r5, pc}
 8000a44:	200003c0 	.word	0x200003c0
 8000a48:	200003b8 	.word	0x200003b8
 8000a4c:	200003b0 	.word	0x200003b0

08000a50 <L6470_GoUntil>:
{
 8000a50:	b530      	push	{r4, r5, lr}
 8000a52:	b083      	sub	sp, #12
  L6470_PrepareAppCmdPkg(L6470_Id, L6470_AppCmdPkg, L6470_GOUNTIL_ID, L6470_ActId, L6470_DirId, Speed);
 8000a54:	4d09      	ldr	r5, [pc, #36]	; (8000a7c <L6470_GoUntil+0x2c>)
 8000a56:	9301      	str	r3, [sp, #4]
 8000a58:	9200      	str	r2, [sp, #0]
 8000a5a:	460b      	mov	r3, r1
 8000a5c:	2208      	movs	r2, #8
 8000a5e:	4629      	mov	r1, r5
 8000a60:	f7ff fbbc 	bl	80001dc <L6470_PrepareAppCmdPkg>
  L6470_PrepareDaisyChainCommand(L6470_AppCmdPkg, (uint8_t*)L6470_DaisyChainSpiTxStruct);
 8000a64:	4c06      	ldr	r4, [pc, #24]	; (8000a80 <L6470_GoUntil+0x30>)
 8000a66:	4621      	mov	r1, r4
 8000a68:	4628      	mov	r0, r5
 8000a6a:	f7ff fcdf 	bl	800042c <L6470_PrepareDaisyChainCommand>
  L6470_DaisyChainCommand((uint8_t*)L6470_DaisyChainSpiTxStruct, (uint8_t*)L6470_DaisyChainSpiRxStruct);
 8000a6e:	4905      	ldr	r1, [pc, #20]	; (8000a84 <L6470_GoUntil+0x34>)
 8000a70:	4620      	mov	r0, r4
 8000a72:	f7ff ff07 	bl	8000884 <L6470_DaisyChainCommand>
}
 8000a76:	b003      	add	sp, #12
 8000a78:	bd30      	pop	{r4, r5, pc}
 8000a7a:	bf00      	nop
 8000a7c:	200003c0 	.word	0x200003c0
 8000a80:	200003b8 	.word	0x200003b8
 8000a84:	200003b0 	.word	0x200003b0

08000a88 <L6470_ReleaseSW>:
{
 8000a88:	b530      	push	{r4, r5, lr}
 8000a8a:	b083      	sub	sp, #12
 8000a8c:	460b      	mov	r3, r1
  L6470_PrepareAppCmdPkg(L6470_Id, L6470_AppCmdPkg, L6470_RELEASESW_ID, L6470_ActId, L6470_DirId, 0);
 8000a8e:	4d09      	ldr	r5, [pc, #36]	; (8000ab4 <L6470_ReleaseSW+0x2c>)
 8000a90:	2100      	movs	r1, #0
 8000a92:	9101      	str	r1, [sp, #4]
 8000a94:	9200      	str	r2, [sp, #0]
 8000a96:	2209      	movs	r2, #9
 8000a98:	4629      	mov	r1, r5
 8000a9a:	f7ff fb9f 	bl	80001dc <L6470_PrepareAppCmdPkg>
  L6470_PrepareDaisyChainCommand(L6470_AppCmdPkg, (uint8_t*)L6470_DaisyChainSpiTxStruct);
 8000a9e:	4c06      	ldr	r4, [pc, #24]	; (8000ab8 <L6470_ReleaseSW+0x30>)
 8000aa0:	4621      	mov	r1, r4
 8000aa2:	4628      	mov	r0, r5
 8000aa4:	f7ff fcc2 	bl	800042c <L6470_PrepareDaisyChainCommand>
  L6470_DaisyChainCommand((uint8_t*)L6470_DaisyChainSpiTxStruct, (uint8_t*)L6470_DaisyChainSpiRxStruct);
 8000aa8:	4904      	ldr	r1, [pc, #16]	; (8000abc <L6470_ReleaseSW+0x34>)
 8000aaa:	4620      	mov	r0, r4
 8000aac:	f7ff feea 	bl	8000884 <L6470_DaisyChainCommand>
}
 8000ab0:	b003      	add	sp, #12
 8000ab2:	bd30      	pop	{r4, r5, pc}
 8000ab4:	200003c0 	.word	0x200003c0
 8000ab8:	200003b8 	.word	0x200003b8
 8000abc:	200003b0 	.word	0x200003b0

08000ac0 <L6470_GoHome>:
{
 8000ac0:	b530      	push	{r4, r5, lr}
 8000ac2:	b083      	sub	sp, #12
  L6470_PrepareAppCmdPkg(L6470_Id, L6470_AppCmdPkg, L6470_GOHOME_ID, 0, 0, 0);
 8000ac4:	4d09      	ldr	r5, [pc, #36]	; (8000aec <L6470_GoHome+0x2c>)
 8000ac6:	2300      	movs	r3, #0
 8000ac8:	9301      	str	r3, [sp, #4]
 8000aca:	9300      	str	r3, [sp, #0]
 8000acc:	220a      	movs	r2, #10
 8000ace:	4629      	mov	r1, r5
 8000ad0:	f7ff fb84 	bl	80001dc <L6470_PrepareAppCmdPkg>
  L6470_PrepareDaisyChainCommand(L6470_AppCmdPkg, (uint8_t*)L6470_DaisyChainSpiTxStruct);
 8000ad4:	4c06      	ldr	r4, [pc, #24]	; (8000af0 <L6470_GoHome+0x30>)
 8000ad6:	4621      	mov	r1, r4
 8000ad8:	4628      	mov	r0, r5
 8000ada:	f7ff fca7 	bl	800042c <L6470_PrepareDaisyChainCommand>
  L6470_DaisyChainCommand((uint8_t*)L6470_DaisyChainSpiTxStruct, (uint8_t*)L6470_DaisyChainSpiRxStruct);
 8000ade:	4905      	ldr	r1, [pc, #20]	; (8000af4 <L6470_GoHome+0x34>)
 8000ae0:	4620      	mov	r0, r4
 8000ae2:	f7ff fecf 	bl	8000884 <L6470_DaisyChainCommand>
}
 8000ae6:	b003      	add	sp, #12
 8000ae8:	bd30      	pop	{r4, r5, pc}
 8000aea:	bf00      	nop
 8000aec:	200003c0 	.word	0x200003c0
 8000af0:	200003b8 	.word	0x200003b8
 8000af4:	200003b0 	.word	0x200003b0

08000af8 <L6470_GoMark>:
{
 8000af8:	b530      	push	{r4, r5, lr}
 8000afa:	b083      	sub	sp, #12
  L6470_PrepareAppCmdPkg(L6470_Id, L6470_AppCmdPkg, L6470_GOMARK_ID, 0, 0, 0);
 8000afc:	4d09      	ldr	r5, [pc, #36]	; (8000b24 <L6470_GoMark+0x2c>)
 8000afe:	2300      	movs	r3, #0
 8000b00:	9301      	str	r3, [sp, #4]
 8000b02:	9300      	str	r3, [sp, #0]
 8000b04:	220b      	movs	r2, #11
 8000b06:	4629      	mov	r1, r5
 8000b08:	f7ff fb68 	bl	80001dc <L6470_PrepareAppCmdPkg>
  L6470_PrepareDaisyChainCommand(L6470_AppCmdPkg, (uint8_t*)L6470_DaisyChainSpiTxStruct);
 8000b0c:	4c06      	ldr	r4, [pc, #24]	; (8000b28 <L6470_GoMark+0x30>)
 8000b0e:	4621      	mov	r1, r4
 8000b10:	4628      	mov	r0, r5
 8000b12:	f7ff fc8b 	bl	800042c <L6470_PrepareDaisyChainCommand>
  L6470_DaisyChainCommand((uint8_t*)L6470_DaisyChainSpiTxStruct, (uint8_t*)L6470_DaisyChainSpiRxStruct);
 8000b16:	4905      	ldr	r1, [pc, #20]	; (8000b2c <L6470_GoMark+0x34>)
 8000b18:	4620      	mov	r0, r4
 8000b1a:	f7ff feb3 	bl	8000884 <L6470_DaisyChainCommand>
}
 8000b1e:	b003      	add	sp, #12
 8000b20:	bd30      	pop	{r4, r5, pc}
 8000b22:	bf00      	nop
 8000b24:	200003c0 	.word	0x200003c0
 8000b28:	200003b8 	.word	0x200003b8
 8000b2c:	200003b0 	.word	0x200003b0

08000b30 <L6470_ResetPos>:
{
 8000b30:	b530      	push	{r4, r5, lr}
 8000b32:	b083      	sub	sp, #12
  L6470_PrepareAppCmdPkg(L6470_Id, L6470_AppCmdPkg, L6470_RESETPOS_ID, 0, 0, 0);
 8000b34:	4d09      	ldr	r5, [pc, #36]	; (8000b5c <L6470_ResetPos+0x2c>)
 8000b36:	2300      	movs	r3, #0
 8000b38:	9301      	str	r3, [sp, #4]
 8000b3a:	9300      	str	r3, [sp, #0]
 8000b3c:	220c      	movs	r2, #12
 8000b3e:	4629      	mov	r1, r5
 8000b40:	f7ff fb4c 	bl	80001dc <L6470_PrepareAppCmdPkg>
  L6470_PrepareDaisyChainCommand(L6470_AppCmdPkg, (uint8_t*)L6470_DaisyChainSpiTxStruct);
 8000b44:	4c06      	ldr	r4, [pc, #24]	; (8000b60 <L6470_ResetPos+0x30>)
 8000b46:	4621      	mov	r1, r4
 8000b48:	4628      	mov	r0, r5
 8000b4a:	f7ff fc6f 	bl	800042c <L6470_PrepareDaisyChainCommand>
  L6470_DaisyChainCommand((uint8_t*)L6470_DaisyChainSpiTxStruct, (uint8_t*)L6470_DaisyChainSpiRxStruct);
 8000b4e:	4905      	ldr	r1, [pc, #20]	; (8000b64 <L6470_ResetPos+0x34>)
 8000b50:	4620      	mov	r0, r4
 8000b52:	f7ff fe97 	bl	8000884 <L6470_DaisyChainCommand>
}
 8000b56:	b003      	add	sp, #12
 8000b58:	bd30      	pop	{r4, r5, pc}
 8000b5a:	bf00      	nop
 8000b5c:	200003c0 	.word	0x200003c0
 8000b60:	200003b8 	.word	0x200003b8
 8000b64:	200003b0 	.word	0x200003b0

08000b68 <L6470_ResetDevice>:
{
 8000b68:	b530      	push	{r4, r5, lr}
 8000b6a:	b083      	sub	sp, #12
  L6470_PrepareAppCmdPkg(L6470_Id, L6470_AppCmdPkg, L6470_RESETDEVICE_ID, 0, 0, 0);
 8000b6c:	4d09      	ldr	r5, [pc, #36]	; (8000b94 <L6470_ResetDevice+0x2c>)
 8000b6e:	2300      	movs	r3, #0
 8000b70:	9301      	str	r3, [sp, #4]
 8000b72:	9300      	str	r3, [sp, #0]
 8000b74:	220d      	movs	r2, #13
 8000b76:	4629      	mov	r1, r5
 8000b78:	f7ff fb30 	bl	80001dc <L6470_PrepareAppCmdPkg>
  L6470_PrepareDaisyChainCommand(L6470_AppCmdPkg, (uint8_t*)L6470_DaisyChainSpiTxStruct);
 8000b7c:	4c06      	ldr	r4, [pc, #24]	; (8000b98 <L6470_ResetDevice+0x30>)
 8000b7e:	4621      	mov	r1, r4
 8000b80:	4628      	mov	r0, r5
 8000b82:	f7ff fc53 	bl	800042c <L6470_PrepareDaisyChainCommand>
  L6470_DaisyChainCommand((uint8_t*)L6470_DaisyChainSpiTxStruct, (uint8_t*)L6470_DaisyChainSpiRxStruct);
 8000b86:	4905      	ldr	r1, [pc, #20]	; (8000b9c <L6470_ResetDevice+0x34>)
 8000b88:	4620      	mov	r0, r4
 8000b8a:	f7ff fe7b 	bl	8000884 <L6470_DaisyChainCommand>
}
 8000b8e:	b003      	add	sp, #12
 8000b90:	bd30      	pop	{r4, r5, pc}
 8000b92:	bf00      	nop
 8000b94:	200003c0 	.word	0x200003c0
 8000b98:	200003b8 	.word	0x200003b8
 8000b9c:	200003b0 	.word	0x200003b0

08000ba0 <L6470_SoftStop>:
{
 8000ba0:	b530      	push	{r4, r5, lr}
 8000ba2:	b083      	sub	sp, #12
  L6470_PrepareAppCmdPkg(L6470_Id, L6470_AppCmdPkg, L6470_SOFTSTOP_ID, 0, 0, 0);
 8000ba4:	4d09      	ldr	r5, [pc, #36]	; (8000bcc <L6470_SoftStop+0x2c>)
 8000ba6:	2300      	movs	r3, #0
 8000ba8:	9301      	str	r3, [sp, #4]
 8000baa:	9300      	str	r3, [sp, #0]
 8000bac:	220e      	movs	r2, #14
 8000bae:	4629      	mov	r1, r5
 8000bb0:	f7ff fb14 	bl	80001dc <L6470_PrepareAppCmdPkg>
  L6470_PrepareDaisyChainCommand(L6470_AppCmdPkg, (uint8_t*)L6470_DaisyChainSpiTxStruct);
 8000bb4:	4c06      	ldr	r4, [pc, #24]	; (8000bd0 <L6470_SoftStop+0x30>)
 8000bb6:	4621      	mov	r1, r4
 8000bb8:	4628      	mov	r0, r5
 8000bba:	f7ff fc37 	bl	800042c <L6470_PrepareDaisyChainCommand>
  L6470_DaisyChainCommand((uint8_t*)L6470_DaisyChainSpiTxStruct, (uint8_t*)L6470_DaisyChainSpiRxStruct);
 8000bbe:	4905      	ldr	r1, [pc, #20]	; (8000bd4 <L6470_SoftStop+0x34>)
 8000bc0:	4620      	mov	r0, r4
 8000bc2:	f7ff fe5f 	bl	8000884 <L6470_DaisyChainCommand>
}
 8000bc6:	b003      	add	sp, #12
 8000bc8:	bd30      	pop	{r4, r5, pc}
 8000bca:	bf00      	nop
 8000bcc:	200003c0 	.word	0x200003c0
 8000bd0:	200003b8 	.word	0x200003b8
 8000bd4:	200003b0 	.word	0x200003b0

08000bd8 <L6470_HardStop>:
{
 8000bd8:	b530      	push	{r4, r5, lr}
 8000bda:	b083      	sub	sp, #12
  L6470_PrepareAppCmdPkg(L6470_Id, L6470_AppCmdPkg, L6470_HARDSTOP_ID, 0, 0, 0);
 8000bdc:	4d09      	ldr	r5, [pc, #36]	; (8000c04 <L6470_HardStop+0x2c>)
 8000bde:	2300      	movs	r3, #0
 8000be0:	9301      	str	r3, [sp, #4]
 8000be2:	9300      	str	r3, [sp, #0]
 8000be4:	220f      	movs	r2, #15
 8000be6:	4629      	mov	r1, r5
 8000be8:	f7ff faf8 	bl	80001dc <L6470_PrepareAppCmdPkg>
  L6470_PrepareDaisyChainCommand(L6470_AppCmdPkg, (uint8_t*)L6470_DaisyChainSpiTxStruct);
 8000bec:	4c06      	ldr	r4, [pc, #24]	; (8000c08 <L6470_HardStop+0x30>)
 8000bee:	4621      	mov	r1, r4
 8000bf0:	4628      	mov	r0, r5
 8000bf2:	f7ff fc1b 	bl	800042c <L6470_PrepareDaisyChainCommand>
  L6470_DaisyChainCommand((uint8_t*)L6470_DaisyChainSpiTxStruct, (uint8_t*)L6470_DaisyChainSpiRxStruct);
 8000bf6:	4905      	ldr	r1, [pc, #20]	; (8000c0c <L6470_HardStop+0x34>)
 8000bf8:	4620      	mov	r0, r4
 8000bfa:	f7ff fe43 	bl	8000884 <L6470_DaisyChainCommand>
}
 8000bfe:	b003      	add	sp, #12
 8000c00:	bd30      	pop	{r4, r5, pc}
 8000c02:	bf00      	nop
 8000c04:	200003c0 	.word	0x200003c0
 8000c08:	200003b8 	.word	0x200003b8
 8000c0c:	200003b0 	.word	0x200003b0

08000c10 <L6470_SoftHiZ>:
{
 8000c10:	b530      	push	{r4, r5, lr}
 8000c12:	b083      	sub	sp, #12
  L6470_PrepareAppCmdPkg(L6470_Id, L6470_AppCmdPkg, L6470_SOFTHIZ_ID, 0, 0, 0);
 8000c14:	4d09      	ldr	r5, [pc, #36]	; (8000c3c <L6470_SoftHiZ+0x2c>)
 8000c16:	2300      	movs	r3, #0
 8000c18:	9301      	str	r3, [sp, #4]
 8000c1a:	9300      	str	r3, [sp, #0]
 8000c1c:	2210      	movs	r2, #16
 8000c1e:	4629      	mov	r1, r5
 8000c20:	f7ff fadc 	bl	80001dc <L6470_PrepareAppCmdPkg>
  L6470_PrepareDaisyChainCommand(L6470_AppCmdPkg, (uint8_t*)L6470_DaisyChainSpiTxStruct);
 8000c24:	4c06      	ldr	r4, [pc, #24]	; (8000c40 <L6470_SoftHiZ+0x30>)
 8000c26:	4621      	mov	r1, r4
 8000c28:	4628      	mov	r0, r5
 8000c2a:	f7ff fbff 	bl	800042c <L6470_PrepareDaisyChainCommand>
  L6470_DaisyChainCommand((uint8_t*)L6470_DaisyChainSpiTxStruct, (uint8_t*)L6470_DaisyChainSpiRxStruct);
 8000c2e:	4905      	ldr	r1, [pc, #20]	; (8000c44 <L6470_SoftHiZ+0x34>)
 8000c30:	4620      	mov	r0, r4
 8000c32:	f7ff fe27 	bl	8000884 <L6470_DaisyChainCommand>
}
 8000c36:	b003      	add	sp, #12
 8000c38:	bd30      	pop	{r4, r5, pc}
 8000c3a:	bf00      	nop
 8000c3c:	200003c0 	.word	0x200003c0
 8000c40:	200003b8 	.word	0x200003b8
 8000c44:	200003b0 	.word	0x200003b0

08000c48 <L6470_HardHiZ>:
{
 8000c48:	b530      	push	{r4, r5, lr}
 8000c4a:	b083      	sub	sp, #12
  L6470_PrepareAppCmdPkg(L6470_Id, L6470_AppCmdPkg, L6470_HARDHIZ_ID, 0, 0, 0);
 8000c4c:	4d09      	ldr	r5, [pc, #36]	; (8000c74 <L6470_HardHiZ+0x2c>)
 8000c4e:	2300      	movs	r3, #0
 8000c50:	9301      	str	r3, [sp, #4]
 8000c52:	9300      	str	r3, [sp, #0]
 8000c54:	2211      	movs	r2, #17
 8000c56:	4629      	mov	r1, r5
 8000c58:	f7ff fac0 	bl	80001dc <L6470_PrepareAppCmdPkg>
  L6470_PrepareDaisyChainCommand(L6470_AppCmdPkg, (uint8_t*)L6470_DaisyChainSpiTxStruct);
 8000c5c:	4c06      	ldr	r4, [pc, #24]	; (8000c78 <L6470_HardHiZ+0x30>)
 8000c5e:	4621      	mov	r1, r4
 8000c60:	4628      	mov	r0, r5
 8000c62:	f7ff fbe3 	bl	800042c <L6470_PrepareDaisyChainCommand>
  L6470_DaisyChainCommand((uint8_t*)L6470_DaisyChainSpiTxStruct, (uint8_t*)L6470_DaisyChainSpiRxStruct);
 8000c66:	4905      	ldr	r1, [pc, #20]	; (8000c7c <L6470_HardHiZ+0x34>)
 8000c68:	4620      	mov	r0, r4
 8000c6a:	f7ff fe0b 	bl	8000884 <L6470_DaisyChainCommand>
}
 8000c6e:	b003      	add	sp, #12
 8000c70:	bd30      	pop	{r4, r5, pc}
 8000c72:	bf00      	nop
 8000c74:	200003c0 	.word	0x200003c0
 8000c78:	200003b8 	.word	0x200003b8
 8000c7c:	200003b0 	.word	0x200003b0

08000c80 <L6470_PerformPreparedApplicationCommand>:
{
 8000c80:	b538      	push	{r3, r4, r5, lr}
  L6470_PrepareDaisyChainCommand(L6470_AppCmdPkg, (uint8_t*)L6470_DaisyChainSpiTxStruct);
 8000c82:	4d06      	ldr	r5, [pc, #24]	; (8000c9c <L6470_PerformPreparedApplicationCommand+0x1c>)
 8000c84:	4629      	mov	r1, r5
 8000c86:	4806      	ldr	r0, [pc, #24]	; (8000ca0 <L6470_PerformPreparedApplicationCommand+0x20>)
 8000c88:	f7ff fbd0 	bl	800042c <L6470_PrepareDaisyChainCommand>
  L6470_DaisyChainCommand((uint8_t*)L6470_DaisyChainSpiTxStruct, (uint8_t*)L6470_DaisyChainSpiRxStruct);
 8000c8c:	4c05      	ldr	r4, [pc, #20]	; (8000ca4 <L6470_PerformPreparedApplicationCommand+0x24>)
 8000c8e:	4621      	mov	r1, r4
 8000c90:	4628      	mov	r0, r5
 8000c92:	f7ff fdf7 	bl	8000884 <L6470_DaisyChainCommand>
}
 8000c96:	4620      	mov	r0, r4
 8000c98:	bd38      	pop	{r3, r4, r5, pc}
 8000c9a:	bf00      	nop
 8000c9c:	200003b8 	.word	0x200003b8
 8000ca0:	200003c0 	.word	0x200003c0
 8000ca4:	200003b0 	.word	0x200003b0

08000ca8 <L6470_ExtractReturnedData>:
  * @param    pL6470_DaisyChainSpiRxStruct  uint8_t-pointer to the matrix that
  *           contains the received data by SPI from the L6470 daisy chain.
  * @param    LengthByte  The number of bytes about the received value.
  */
uint32_t L6470_ExtractReturnedData(uint8_t L6470_Id, uint8_t* pL6470_DaisyChainSpiRxStruct, uint8_t LengthByte)
{
 8000ca8:	b410      	push	{r4}
  uint32_t value;
  uint8_t i;
  
  value = 0x000000;
  for (i=1; i<=(L6470MAXSPICMDBYTESIZE-1); i++)
 8000caa:	4401      	add	r1, r0
 8000cac:	1e53      	subs	r3, r2, #1
 8000cae:	00db      	lsls	r3, r3, #3
 8000cb0:	f102 5200 	add.w	r2, r2, #536870912	; 0x20000000
 8000cb4:	3a04      	subs	r2, #4
 8000cb6:	00d2      	lsls	r2, r2, #3
  value = 0x000000;
 8000cb8:	2000      	movs	r0, #0
  {
    value |= (*(pL6470_DaisyChainSpiRxStruct+(i*L6470DAISYCHAINSIZE)+L6470_Id))<<((LengthByte-i)*8);
 8000cba:	f811 4f02 	ldrb.w	r4, [r1, #2]!
 8000cbe:	409c      	lsls	r4, r3
 8000cc0:	4320      	orrs	r0, r4
  for (i=1; i<=(L6470MAXSPICMDBYTESIZE-1); i++)
 8000cc2:	3b08      	subs	r3, #8
 8000cc4:	4293      	cmp	r3, r2
 8000cc6:	d1f8      	bne.n	8000cba <L6470_ExtractReturnedData+0x12>
  }
  
  return value;
}
 8000cc8:	f85d 4b04 	ldr.w	r4, [sp], #4
 8000ccc:	4770      	bx	lr
	...

08000cd0 <L6470_GetParam>:
{
 8000cd0:	b5f0      	push	{r4, r5, r6, r7, lr}
 8000cd2:	b083      	sub	sp, #12
 8000cd4:	4605      	mov	r5, r0
 8000cd6:	460c      	mov	r4, r1
  L6470_PrepareAppCmdPkg(L6470_Id, L6470_AppCmdPkg, L6470_GETPARAM_ID, L6470_RegId, 0, 0);
 8000cd8:	4e0f      	ldr	r6, [pc, #60]	; (8000d18 <L6470_GetParam+0x48>)
 8000cda:	2300      	movs	r3, #0
 8000cdc:	9301      	str	r3, [sp, #4]
 8000cde:	9300      	str	r3, [sp, #0]
 8000ce0:	460b      	mov	r3, r1
 8000ce2:	2202      	movs	r2, #2
 8000ce4:	4631      	mov	r1, r6
 8000ce6:	f7ff fa79 	bl	80001dc <L6470_PrepareAppCmdPkg>
  L6470_PrepareDaisyChainCommand(L6470_AppCmdPkg, (uint8_t*)L6470_DaisyChainSpiTxStruct);
 8000cea:	4f0c      	ldr	r7, [pc, #48]	; (8000d1c <L6470_GetParam+0x4c>)
 8000cec:	4639      	mov	r1, r7
 8000cee:	4630      	mov	r0, r6
 8000cf0:	f7ff fb9c 	bl	800042c <L6470_PrepareDaisyChainCommand>
  L6470_DaisyChainCommand((uint8_t*)L6470_DaisyChainSpiTxStruct, (uint8_t*)L6470_DaisyChainSpiRxStruct);
 8000cf4:	4e0a      	ldr	r6, [pc, #40]	; (8000d20 <L6470_GetParam+0x50>)
 8000cf6:	4631      	mov	r1, r6
 8000cf8:	4638      	mov	r0, r7
 8000cfa:	f7ff fdc3 	bl	8000884 <L6470_DaisyChainCommand>
  ValueLengthByte = L6470_Register[L6470_RegId].LengthByte;
 8000cfe:	eb04 0484 	add.w	r4, r4, r4, lsl #2
 8000d02:	4908      	ldr	r1, [pc, #32]	; (8000d24 <L6470_GetParam+0x54>)
 8000d04:	eb01 0484 	add.w	r4, r1, r4, lsl #2
  ReceivedValue = L6470_ExtractReturnedData(L6470_Id, (uint8_t*)L6470_DaisyChainSpiRxStruct, ValueLengthByte);
 8000d08:	f894 211a 	ldrb.w	r2, [r4, #282]	; 0x11a
 8000d0c:	4631      	mov	r1, r6
 8000d0e:	4628      	mov	r0, r5
 8000d10:	f7ff ffca 	bl	8000ca8 <L6470_ExtractReturnedData>
}
 8000d14:	b003      	add	sp, #12
 8000d16:	bdf0      	pop	{r4, r5, r6, r7, pc}
 8000d18:	200003c0 	.word	0x200003c0
 8000d1c:	200003b8 	.word	0x200003b8
 8000d20:	200003b0 	.word	0x200003b0
 8000d24:	0800412c 	.word	0x0800412c

08000d28 <L6470_CheckStatusRegisterFlag>:
  *
  * @retval state The flag state.
  */

uint8_t L6470_CheckStatusRegisterFlag(uint8_t L6470_Id, uint8_t L6470_StatusRegisterFlagId)
{
 8000d28:	b510      	push	{r4, lr}
 8000d2a:	460c      	mov	r4, r1
  uint8_t state = 0;
  
  *((uint16_t*)pL6470_StatusRegister) = L6470_GetParam(L6470_Id, L6470_STATUS_ID);
 8000d2c:	2118      	movs	r1, #24
 8000d2e:	f7ff ffcf 	bl	8000cd0 <L6470_GetParam>
 8000d32:	4b34      	ldr	r3, [pc, #208]	; (8000e04 <L6470_CheckStatusRegisterFlag+0xdc>)
 8000d34:	681b      	ldr	r3, [r3, #0]
 8000d36:	8018      	strh	r0, [r3, #0]
  
  switch(L6470_StatusRegisterFlagId)
 8000d38:	2c0e      	cmp	r4, #14
 8000d3a:	d861      	bhi.n	8000e00 <L6470_CheckStatusRegisterFlag+0xd8>
 8000d3c:	e8df f004 	tbb	[pc, r4]
 8000d40:	1a140e08 	.word	0x1a140e08
 8000d44:	312c2620 	.word	0x312c2620
 8000d48:	49433d37 	.word	0x49433d37
 8000d4c:	554f      	.short	0x554f
 8000d4e:	5b          	.byte	0x5b
 8000d4f:	00          	.byte	0x00
  {
  case HiZ_ID:
    state = pL6470_StatusRegister->HiZ;
 8000d50:	4b2c      	ldr	r3, [pc, #176]	; (8000e04 <L6470_CheckStatusRegisterFlag+0xdc>)
 8000d52:	681b      	ldr	r3, [r3, #0]
 8000d54:	7818      	ldrb	r0, [r3, #0]
 8000d56:	f000 0001 	and.w	r0, r0, #1
    state = pL6470_StatusRegister->SCK_MOD;
    break;
  }
  
  return state;
}
 8000d5a:	bd10      	pop	{r4, pc}
    state = pL6470_StatusRegister->BUSY;
 8000d5c:	4b29      	ldr	r3, [pc, #164]	; (8000e04 <L6470_CheckStatusRegisterFlag+0xdc>)
 8000d5e:	681b      	ldr	r3, [r3, #0]
 8000d60:	7818      	ldrb	r0, [r3, #0]
 8000d62:	f3c0 0040 	ubfx	r0, r0, #1, #1
    break;
 8000d66:	e7f8      	b.n	8000d5a <L6470_CheckStatusRegisterFlag+0x32>
    state = pL6470_StatusRegister->SW_F;
 8000d68:	4b26      	ldr	r3, [pc, #152]	; (8000e04 <L6470_CheckStatusRegisterFlag+0xdc>)
 8000d6a:	681b      	ldr	r3, [r3, #0]
 8000d6c:	7818      	ldrb	r0, [r3, #0]
 8000d6e:	f3c0 0080 	ubfx	r0, r0, #2, #1
    break;
 8000d72:	e7f2      	b.n	8000d5a <L6470_CheckStatusRegisterFlag+0x32>
    state = pL6470_StatusRegister->SW_EVN;
 8000d74:	4b23      	ldr	r3, [pc, #140]	; (8000e04 <L6470_CheckStatusRegisterFlag+0xdc>)
 8000d76:	681b      	ldr	r3, [r3, #0]
 8000d78:	7818      	ldrb	r0, [r3, #0]
 8000d7a:	f3c0 00c0 	ubfx	r0, r0, #3, #1
    break;
 8000d7e:	e7ec      	b.n	8000d5a <L6470_CheckStatusRegisterFlag+0x32>
    state = pL6470_StatusRegister->DIR;
 8000d80:	4b20      	ldr	r3, [pc, #128]	; (8000e04 <L6470_CheckStatusRegisterFlag+0xdc>)
 8000d82:	681b      	ldr	r3, [r3, #0]
 8000d84:	7818      	ldrb	r0, [r3, #0]
 8000d86:	f3c0 1000 	ubfx	r0, r0, #4, #1
    break;
 8000d8a:	e7e6      	b.n	8000d5a <L6470_CheckStatusRegisterFlag+0x32>
    state = pL6470_StatusRegister->MOT_STATUS;
 8000d8c:	4b1d      	ldr	r3, [pc, #116]	; (8000e04 <L6470_CheckStatusRegisterFlag+0xdc>)
 8000d8e:	681b      	ldr	r3, [r3, #0]
 8000d90:	7818      	ldrb	r0, [r3, #0]
 8000d92:	f3c0 1041 	ubfx	r0, r0, #5, #2
    break;
 8000d96:	e7e0      	b.n	8000d5a <L6470_CheckStatusRegisterFlag+0x32>
    state = pL6470_StatusRegister->NOTPERF_CMD;
 8000d98:	4b1a      	ldr	r3, [pc, #104]	; (8000e04 <L6470_CheckStatusRegisterFlag+0xdc>)
 8000d9a:	681b      	ldr	r3, [r3, #0]
 8000d9c:	7818      	ldrb	r0, [r3, #0]
 8000d9e:	09c0      	lsrs	r0, r0, #7
    break;
 8000da0:	e7db      	b.n	8000d5a <L6470_CheckStatusRegisterFlag+0x32>
    state = pL6470_StatusRegister->WRONG_CMD;
 8000da2:	4b18      	ldr	r3, [pc, #96]	; (8000e04 <L6470_CheckStatusRegisterFlag+0xdc>)
 8000da4:	681b      	ldr	r3, [r3, #0]
 8000da6:	7858      	ldrb	r0, [r3, #1]
 8000da8:	f000 0001 	and.w	r0, r0, #1
    break;
 8000dac:	e7d5      	b.n	8000d5a <L6470_CheckStatusRegisterFlag+0x32>
    state = pL6470_StatusRegister->UVLO;
 8000dae:	4b15      	ldr	r3, [pc, #84]	; (8000e04 <L6470_CheckStatusRegisterFlag+0xdc>)
 8000db0:	681b      	ldr	r3, [r3, #0]
 8000db2:	7858      	ldrb	r0, [r3, #1]
 8000db4:	f3c0 0040 	ubfx	r0, r0, #1, #1
    break;
 8000db8:	e7cf      	b.n	8000d5a <L6470_CheckStatusRegisterFlag+0x32>
    state = pL6470_StatusRegister->TH_WRN;
 8000dba:	4b12      	ldr	r3, [pc, #72]	; (8000e04 <L6470_CheckStatusRegisterFlag+0xdc>)
 8000dbc:	681b      	ldr	r3, [r3, #0]
 8000dbe:	7858      	ldrb	r0, [r3, #1]
 8000dc0:	f3c0 0080 	ubfx	r0, r0, #2, #1
    break;
 8000dc4:	e7c9      	b.n	8000d5a <L6470_CheckStatusRegisterFlag+0x32>
    state = pL6470_StatusRegister->TH_SD;
 8000dc6:	4b0f      	ldr	r3, [pc, #60]	; (8000e04 <L6470_CheckStatusRegisterFlag+0xdc>)
 8000dc8:	681b      	ldr	r3, [r3, #0]
 8000dca:	7858      	ldrb	r0, [r3, #1]
 8000dcc:	f3c0 00c0 	ubfx	r0, r0, #3, #1
    break;
 8000dd0:	e7c3      	b.n	8000d5a <L6470_CheckStatusRegisterFlag+0x32>
    state = pL6470_StatusRegister->OCD;
 8000dd2:	4b0c      	ldr	r3, [pc, #48]	; (8000e04 <L6470_CheckStatusRegisterFlag+0xdc>)
 8000dd4:	681b      	ldr	r3, [r3, #0]
 8000dd6:	7858      	ldrb	r0, [r3, #1]
 8000dd8:	f3c0 1000 	ubfx	r0, r0, #4, #1
    break;
 8000ddc:	e7bd      	b.n	8000d5a <L6470_CheckStatusRegisterFlag+0x32>
    state = pL6470_StatusRegister->STEP_LOSS_A;
 8000dde:	4b09      	ldr	r3, [pc, #36]	; (8000e04 <L6470_CheckStatusRegisterFlag+0xdc>)
 8000de0:	681b      	ldr	r3, [r3, #0]
 8000de2:	7858      	ldrb	r0, [r3, #1]
 8000de4:	f3c0 1040 	ubfx	r0, r0, #5, #1
    break;
 8000de8:	e7b7      	b.n	8000d5a <L6470_CheckStatusRegisterFlag+0x32>
    state = pL6470_StatusRegister->STEP_LOSS_B;
 8000dea:	4b06      	ldr	r3, [pc, #24]	; (8000e04 <L6470_CheckStatusRegisterFlag+0xdc>)
 8000dec:	681b      	ldr	r3, [r3, #0]
 8000dee:	7858      	ldrb	r0, [r3, #1]
 8000df0:	f3c0 1080 	ubfx	r0, r0, #6, #1
    break;
 8000df4:	e7b1      	b.n	8000d5a <L6470_CheckStatusRegisterFlag+0x32>
    state = pL6470_StatusRegister->SCK_MOD;
 8000df6:	4b03      	ldr	r3, [pc, #12]	; (8000e04 <L6470_CheckStatusRegisterFlag+0xdc>)
 8000df8:	681b      	ldr	r3, [r3, #0]
 8000dfa:	7858      	ldrb	r0, [r3, #1]
 8000dfc:	09c0      	lsrs	r0, r0, #7
    break;
 8000dfe:	e7ac      	b.n	8000d5a <L6470_CheckStatusRegisterFlag+0x32>
  *((uint16_t*)pL6470_StatusRegister) = L6470_GetParam(L6470_Id, L6470_STATUS_ID);
 8000e00:	2000      	movs	r0, #0
 8000e02:	e7aa      	b.n	8000d5a <L6470_CheckStatusRegisterFlag+0x32>
 8000e04:	20000000 	.word	0x20000000

08000e08 <L6470_GetStatus>:
{
 8000e08:	b570      	push	{r4, r5, r6, lr}
 8000e0a:	b082      	sub	sp, #8
 8000e0c:	4604      	mov	r4, r0
  L6470_PrepareAppCmdPkg(L6470_Id, L6470_AppCmdPkg, L6470_GETSTATUS_ID, 0, 0, 0);
 8000e0e:	4d0d      	ldr	r5, [pc, #52]	; (8000e44 <L6470_GetStatus+0x3c>)
 8000e10:	2300      	movs	r3, #0
 8000e12:	9301      	str	r3, [sp, #4]
 8000e14:	9300      	str	r3, [sp, #0]
 8000e16:	2212      	movs	r2, #18
 8000e18:	4629      	mov	r1, r5
 8000e1a:	f7ff f9df 	bl	80001dc <L6470_PrepareAppCmdPkg>
  L6470_PrepareDaisyChainCommand(L6470_AppCmdPkg, (uint8_t*)L6470_DaisyChainSpiTxStruct);
 8000e1e:	4e0a      	ldr	r6, [pc, #40]	; (8000e48 <L6470_GetStatus+0x40>)
 8000e20:	4631      	mov	r1, r6
 8000e22:	4628      	mov	r0, r5
 8000e24:	f7ff fb02 	bl	800042c <L6470_PrepareDaisyChainCommand>
  L6470_DaisyChainCommand((uint8_t*)L6470_DaisyChainSpiTxStruct, (uint8_t*)L6470_DaisyChainSpiRxStruct);
 8000e28:	4d08      	ldr	r5, [pc, #32]	; (8000e4c <L6470_GetStatus+0x44>)
 8000e2a:	4629      	mov	r1, r5
 8000e2c:	4630      	mov	r0, r6
 8000e2e:	f7ff fd29 	bl	8000884 <L6470_DaisyChainCommand>
  ReceivedValue = (uint16_t)L6470_ExtractReturnedData(L6470_Id, (uint8_t*)L6470_DaisyChainSpiRxStruct, 2);
 8000e32:	2202      	movs	r2, #2
 8000e34:	4629      	mov	r1, r5
 8000e36:	4620      	mov	r0, r4
 8000e38:	f7ff ff36 	bl	8000ca8 <L6470_ExtractReturnedData>
}
 8000e3c:	b280      	uxth	r0, r0
 8000e3e:	b002      	add	sp, #8
 8000e40:	bd70      	pop	{r4, r5, r6, pc}
 8000e42:	bf00      	nop
 8000e44:	200003c0 	.word	0x200003c0
 8000e48:	200003b8 	.word	0x200003b8
 8000e4c:	200003b0 	.word	0x200003b0

08000e50 <L6470_GetRegisterName>:
  * @brief  Return the mnemonic name for the L6470 register.
  * @param  id  The identifier of the L6470 register.
  */
uint8_t *L6470_GetRegisterName(uint8_t id)
{
  if (id < L6470REGIDSIZE)
 8000e50:	2818      	cmp	r0, #24
 8000e52:	d806      	bhi.n	8000e62 <L6470_GetRegisterName+0x12>
  {
    return (uint8_t*)L6470_Register[id].Name;
 8000e54:	eb00 0080 	add.w	r0, r0, r0, lsl #2
 8000e58:	4b03      	ldr	r3, [pc, #12]	; (8000e68 <L6470_GetRegisterName+0x18>)
 8000e5a:	eb03 0080 	add.w	r0, r3, r0, lsl #2
 8000e5e:	3001      	adds	r0, #1
 8000e60:	4770      	bx	lr
  }
  else
  {
    return (uint8_t*)"";
 8000e62:	4802      	ldr	r0, [pc, #8]	; (8000e6c <L6470_GetRegisterName+0x1c>)
  }
}
 8000e64:	4770      	bx	lr
 8000e66:	bf00      	nop
 8000e68:	08004238 	.word	0x08004238
 8000e6c:	08004c40 	.word	0x08004c40

08000e70 <L6470_Config>:
  * @brief  Configures the L6470 registers.
  * @param  StepperMotorDriverHandle_t* The pointer to the stepper motor driver handle structure.
  * @param  MotorParameterData_t* The pointer to the related parameter data structure.
  */
void L6470_Config(StepperMotorDriverHandle_t *StepperMotorDriverHandle, MotorParameterData_t *MotorParameterData)
{
 8000e70:	b570      	push	{r4, r5, r6, lr}
 8000e72:	4604      	mov	r4, r0
 8000e74:	460d      	mov	r5, r1
  /* Prepare the 'Register' field of StepperMotorDriverHandle */
  StepperMotorDriverHandle->Register.ACC = Step_s2_2_Acc(MotorParameterData->acc);
 8000e76:	ed91 0a05 	vldr	s0, [r1, #20]
 8000e7a:	f7ff fbc9 	bl	8000610 <Step_s2_2_Acc>
 8000e7e:	4606      	mov	r6, r0
 8000e80:	83a0      	strh	r0, [r4, #28]
  StepperMotorDriverHandle->Register.DEC = Step_s2_2_Dec(MotorParameterData->dec);
 8000e82:	ed95 0a06 	vldr	s0, [r5, #24]
 8000e86:	f7ff fbdb 	bl	8000640 <Step_s2_2_Dec>
 8000e8a:	83e0      	strh	r0, [r4, #30]
  StepperMotorDriverHandle->Register.MAX_SPEED = Step_s_2_MaxSpeed(MotorParameterData->maxspeed);
 8000e8c:	ed95 0a07 	vldr	s0, [r5, #28]
 8000e90:	f7ff fbee 	bl	8000670 <Step_s_2_MaxSpeed>
 8000e94:	8420      	strh	r0, [r4, #32]
  StepperMotorDriverHandle->Register.MIN_SPEED = Step_s_2_MinSpeed(MotorParameterData->minspeed);
 8000e96:	ed95 0a08 	vldr	s0, [r5, #32]
 8000e9a:	f7ff fc01 	bl	80006a0 <Step_s_2_MinSpeed>
 8000e9e:	8460      	strh	r0, [r4, #34]	; 0x22
  StepperMotorDriverHandle->Register.FS_SPD = Step_s_2_FsSpd(MotorParameterData->fsspd);
 8000ea0:	ed95 0a09 	vldr	s0, [r5, #36]	; 0x24
 8000ea4:	f7ff fc14 	bl	80006d0 <Step_s_2_FsSpd>
 8000ea8:	84a0      	strh	r0, [r4, #36]	; 0x24
  StepperMotorDriverHandle->Register.KVAL_HOLD = (uint8_t)((float)((float)(MotorParameterData->kvalhold * 256) / (MotorParameterData->motorvoltage)));
 8000eaa:	edd5 6a0a 	vldr	s13, [r5, #40]	; 0x28
 8000eae:	eddf 7a74 	vldr	s15, [pc, #464]	; 8001080 <L6470_Config+0x210>
 8000eb2:	ee66 6aa7 	vmul.f32	s13, s13, s15
 8000eb6:	ed95 6a00 	vldr	s12, [r5]
 8000eba:	ee86 7a86 	vdiv.f32	s14, s13, s12
 8000ebe:	eebc 7ac7 	vcvt.u32.f32	s14, s14
 8000ec2:	ee17 3a10 	vmov	r3, s14
 8000ec6:	f884 3026 	strb.w	r3, [r4, #38]	; 0x26
  StepperMotorDriverHandle->Register.KVAL_RUN = (uint8_t)((float)((float)(MotorParameterData->kvalrun * 256) / (MotorParameterData->motorvoltage)));
 8000eca:	edd5 6a0b 	vldr	s13, [r5, #44]	; 0x2c
 8000ece:	ee66 6aa7 	vmul.f32	s13, s13, s15
 8000ed2:	ed95 6a00 	vldr	s12, [r5]
 8000ed6:	ee86 7a86 	vdiv.f32	s14, s13, s12
 8000eda:	eebc 7ac7 	vcvt.u32.f32	s14, s14
 8000ede:	ee17 3a10 	vmov	r3, s14
 8000ee2:	f884 3027 	strb.w	r3, [r4, #39]	; 0x27
  StepperMotorDriverHandle->Register.KVAL_ACC = (uint8_t)((float)((float)(MotorParameterData->kvalacc * 256) / (MotorParameterData->motorvoltage)));
 8000ee6:	edd5 6a0c 	vldr	s13, [r5, #48]	; 0x30
 8000eea:	ee66 6aa7 	vmul.f32	s13, s13, s15
 8000eee:	ed95 6a00 	vldr	s12, [r5]
 8000ef2:	ee86 7a86 	vdiv.f32	s14, s13, s12
 8000ef6:	eebc 7ac7 	vcvt.u32.f32	s14, s14
 8000efa:	ee17 3a10 	vmov	r3, s14
 8000efe:	f884 3028 	strb.w	r3, [r4, #40]	; 0x28
  StepperMotorDriverHandle->Register.KVAL_DEC = (uint8_t)((float)((float)(MotorParameterData->kvaldec * 256) / (MotorParameterData->motorvoltage)));
 8000f02:	ed95 7a0d 	vldr	s14, [r5, #52]	; 0x34
 8000f06:	ee67 7a27 	vmul.f32	s15, s14, s15
 8000f0a:	edd5 6a00 	vldr	s13, [r5]
 8000f0e:	ee87 7aa6 	vdiv.f32	s14, s15, s13
 8000f12:	eefc 7ac7 	vcvt.u32.f32	s15, s14
 8000f16:	ee17 3a90 	vmov	r3, s15
 8000f1a:	f884 3029 	strb.w	r3, [r4, #41]	; 0x29
  StepperMotorDriverHandle->Register.INT_SPEED = Step_s_2_IntSpeed(MotorParameterData->intspeed);
 8000f1e:	ed95 0a0e 	vldr	s0, [r5, #56]	; 0x38
 8000f22:	f7ff fbf1 	bl	8000708 <Step_s_2_IntSpeed>
 8000f26:	8560      	strh	r0, [r4, #42]	; 0x2a
  StepperMotorDriverHandle->Register.ST_SLP = s_Step_2_StSlp(MotorParameterData->stslp);
 8000f28:	ed95 0a0f 	vldr	s0, [r5, #60]	; 0x3c
 8000f2c:	f7ff fc04 	bl	8000738 <s_Step_2_StSlp>
 8000f30:	f884 002c 	strb.w	r0, [r4, #44]	; 0x2c
  StepperMotorDriverHandle->Register.FN_SLP_ACC = s_Step_2_FnSlpAcc(MotorParameterData->fnslpacc);
 8000f34:	ed95 0a10 	vldr	s0, [r5, #64]	; 0x40
 8000f38:	f7ff fc18 	bl	800076c <s_Step_2_FnSlpAcc>
 8000f3c:	f884 002d 	strb.w	r0, [r4, #45]	; 0x2d
  StepperMotorDriverHandle->Register.FN_SLP_DEC = s_Step_2_FnSlpDec(MotorParameterData->fnslpdec);
 8000f40:	ed95 0a11 	vldr	s0, [r5, #68]	; 0x44
 8000f44:	f7ff fc2c 	bl	80007a0 <s_Step_2_FnSlpDec>
 8000f48:	f884 002e 	strb.w	r0, [r4, #46]	; 0x2e
  StepperMotorDriverHandle->Register.K_THERM = MotorParameterData->kterm;
 8000f4c:	f895 3048 	ldrb.w	r3, [r5, #72]	; 0x48
 8000f50:	f884 302f 	strb.w	r3, [r4, #47]	; 0x2f
  StepperMotorDriverHandle->Register.OCD_TH = mA_2_OcdTh(MotorParameterData->ocdth);
 8000f54:	ed95 0a13 	vldr	s0, [r5, #76]	; 0x4c
 8000f58:	f7ff fc3c 	bl	80007d4 <mA_2_OcdTh>
 8000f5c:	f884 0031 	strb.w	r0, [r4, #49]	; 0x31
  StepperMotorDriverHandle->Register.STALL_TH = mA_2_StallTh(MotorParameterData->stallth);
 8000f60:	ed95 0a14 	vldr	s0, [r5, #80]	; 0x50
 8000f64:	f7ff fc60 	bl	8000828 <mA_2_StallTh>
 8000f68:	f884 0032 	strb.w	r0, [r4, #50]	; 0x32
  StepperMotorDriverHandle->Register.STEP_MODE = MotorParameterData->step_sel;
 8000f6c:	f895 3054 	ldrb.w	r3, [r5, #84]	; 0x54
 8000f70:	f884 3033 	strb.w	r3, [r4, #51]	; 0x33
  StepperMotorDriverHandle->Register.ALARM_EN = MotorParameterData->alarmen;
 8000f74:	f895 3055 	ldrb.w	r3, [r5, #85]	; 0x55
 8000f78:	f884 3034 	strb.w	r3, [r4, #52]	; 0x34
  StepperMotorDriverHandle->Register.CONFIG = MotorParameterData->config;
 8000f7c:	f8b5 3056 	ldrh.w	r3, [r5, #86]	; 0x56
 8000f80:	86e3      	strh	r3, [r4, #54]	; 0x36
  
  /* Write the L6470 registers with the prepared data */
  StepperMotorDriverHandle->Command->SetParam(StepperMotorDriverHandle->DaisyChainPosition, L6470_ACC_ID, StepperMotorDriverHandle->Register.ACC);
 8000f82:	68a3      	ldr	r3, [r4, #8]
 8000f84:	681b      	ldr	r3, [r3, #0]
 8000f86:	4632      	mov	r2, r6
 8000f88:	2104      	movs	r1, #4
 8000f8a:	7820      	ldrb	r0, [r4, #0]
 8000f8c:	4798      	blx	r3
  StepperMotorDriverHandle->Command->SetParam(StepperMotorDriverHandle->DaisyChainPosition, L6470_DEC_ID, StepperMotorDriverHandle->Register.DEC);
 8000f8e:	68a3      	ldr	r3, [r4, #8]
 8000f90:	681b      	ldr	r3, [r3, #0]
 8000f92:	8be2      	ldrh	r2, [r4, #30]
 8000f94:	2105      	movs	r1, #5
 8000f96:	7820      	ldrb	r0, [r4, #0]
 8000f98:	4798      	blx	r3
  StepperMotorDriverHandle->Command->SetParam(StepperMotorDriverHandle->DaisyChainPosition, L6470_MAX_SPEED_ID, StepperMotorDriverHandle->Register.MAX_SPEED);
 8000f9a:	68a3      	ldr	r3, [r4, #8]
 8000f9c:	681b      	ldr	r3, [r3, #0]
 8000f9e:	8c22      	ldrh	r2, [r4, #32]
 8000fa0:	2106      	movs	r1, #6
 8000fa2:	7820      	ldrb	r0, [r4, #0]
 8000fa4:	4798      	blx	r3
  StepperMotorDriverHandle->Command->SetParam(StepperMotorDriverHandle->DaisyChainPosition, L6470_MIN_SPEED_ID, StepperMotorDriverHandle->Register.MIN_SPEED);
 8000fa6:	68a3      	ldr	r3, [r4, #8]
 8000fa8:	681b      	ldr	r3, [r3, #0]
 8000faa:	8c62      	ldrh	r2, [r4, #34]	; 0x22
 8000fac:	2107      	movs	r1, #7
 8000fae:	7820      	ldrb	r0, [r4, #0]
 8000fb0:	4798      	blx	r3
  StepperMotorDriverHandle->Command->SetParam(StepperMotorDriverHandle->DaisyChainPosition, L6470_FS_SPD_ID, StepperMotorDriverHandle->Register.FS_SPD);
 8000fb2:	68a3      	ldr	r3, [r4, #8]
 8000fb4:	681b      	ldr	r3, [r3, #0]
 8000fb6:	8ca2      	ldrh	r2, [r4, #36]	; 0x24
 8000fb8:	2108      	movs	r1, #8
 8000fba:	7820      	ldrb	r0, [r4, #0]
 8000fbc:	4798      	blx	r3
  StepperMotorDriverHandle->Command->SetParam(StepperMotorDriverHandle->DaisyChainPosition, L6470_KVAL_HOLD_ID, StepperMotorDriverHandle->Register.KVAL_HOLD);
 8000fbe:	68a3      	ldr	r3, [r4, #8]
 8000fc0:	681b      	ldr	r3, [r3, #0]
 8000fc2:	f894 2026 	ldrb.w	r2, [r4, #38]	; 0x26
 8000fc6:	2109      	movs	r1, #9
 8000fc8:	7820      	ldrb	r0, [r4, #0]
 8000fca:	4798      	blx	r3
  StepperMotorDriverHandle->Command->SetParam(StepperMotorDriverHandle->DaisyChainPosition, L6470_KVAL_RUN_ID, StepperMotorDriverHandle->Register.KVAL_RUN);
 8000fcc:	68a3      	ldr	r3, [r4, #8]
 8000fce:	681b      	ldr	r3, [r3, #0]
 8000fd0:	f894 2027 	ldrb.w	r2, [r4, #39]	; 0x27
 8000fd4:	210a      	movs	r1, #10
 8000fd6:	7820      	ldrb	r0, [r4, #0]
 8000fd8:	4798      	blx	r3
  StepperMotorDriverHandle->Command->SetParam(StepperMotorDriverHandle->DaisyChainPosition, L6470_KVAL_ACC_ID, StepperMotorDriverHandle->Register.KVAL_ACC);
 8000fda:	68a3      	ldr	r3, [r4, #8]
 8000fdc:	681b      	ldr	r3, [r3, #0]
 8000fde:	f894 2028 	ldrb.w	r2, [r4, #40]	; 0x28
 8000fe2:	210b      	movs	r1, #11
 8000fe4:	7820      	ldrb	r0, [r4, #0]
 8000fe6:	4798      	blx	r3
  StepperMotorDriverHandle->Command->SetParam(StepperMotorDriverHandle->DaisyChainPosition, L6470_KVAL_DEC_ID, StepperMotorDriverHandle->Register.KVAL_DEC);
 8000fe8:	68a3      	ldr	r3, [r4, #8]
 8000fea:	681b      	ldr	r3, [r3, #0]
 8000fec:	f894 2029 	ldrb.w	r2, [r4, #41]	; 0x29
 8000ff0:	210c      	movs	r1, #12
 8000ff2:	7820      	ldrb	r0, [r4, #0]
 8000ff4:	4798      	blx	r3
  StepperMotorDriverHandle->Command->SetParam(StepperMotorDriverHandle->DaisyChainPosition, L6470_INT_SPEED_ID, StepperMotorDriverHandle->Register.INT_SPEED);
 8000ff6:	68a3      	ldr	r3, [r4, #8]
 8000ff8:	681b      	ldr	r3, [r3, #0]
 8000ffa:	8d62      	ldrh	r2, [r4, #42]	; 0x2a
 8000ffc:	210d      	movs	r1, #13
 8000ffe:	7820      	ldrb	r0, [r4, #0]
 8001000:	4798      	blx	r3
  StepperMotorDriverHandle->Command->SetParam(StepperMotorDriverHandle->DaisyChainPosition, L6470_ST_SLP_ID, StepperMotorDriverHandle->Register.ST_SLP);
 8001002:	68a3      	ldr	r3, [r4, #8]
 8001004:	681b      	ldr	r3, [r3, #0]
 8001006:	f894 202c 	ldrb.w	r2, [r4, #44]	; 0x2c
 800100a:	210e      	movs	r1, #14
 800100c:	7820      	ldrb	r0, [r4, #0]
 800100e:	4798      	blx	r3
  StepperMotorDriverHandle->Command->SetParam(StepperMotorDriverHandle->DaisyChainPosition, L6470_FN_SLP_ACC_ID, StepperMotorDriverHandle->Register.FN_SLP_ACC);
 8001010:	68a3      	ldr	r3, [r4, #8]
 8001012:	681b      	ldr	r3, [r3, #0]
 8001014:	f894 202d 	ldrb.w	r2, [r4, #45]	; 0x2d
 8001018:	210f      	movs	r1, #15
 800101a:	7820      	ldrb	r0, [r4, #0]
 800101c:	4798      	blx	r3
  StepperMotorDriverHandle->Command->SetParam(StepperMotorDriverHandle->DaisyChainPosition, L6470_FN_SLP_DEC_ID, StepperMotorDriverHandle->Register.FN_SLP_DEC);
 800101e:	68a3      	ldr	r3, [r4, #8]
 8001020:	681b      	ldr	r3, [r3, #0]
 8001022:	f894 202e 	ldrb.w	r2, [r4, #46]	; 0x2e
 8001026:	2110      	movs	r1, #16
 8001028:	7820      	ldrb	r0, [r4, #0]
 800102a:	4798      	blx	r3
  StepperMotorDriverHandle->Command->SetParam(StepperMotorDriverHandle->DaisyChainPosition, L6470_K_THERM_ID, StepperMotorDriverHandle->Register.K_THERM);
 800102c:	68a3      	ldr	r3, [r4, #8]
 800102e:	681b      	ldr	r3, [r3, #0]
 8001030:	f894 202f 	ldrb.w	r2, [r4, #47]	; 0x2f
 8001034:	2111      	movs	r1, #17
 8001036:	7820      	ldrb	r0, [r4, #0]
 8001038:	4798      	blx	r3
  StepperMotorDriverHandle->Command->SetParam(StepperMotorDriverHandle->DaisyChainPosition, L6470_OCD_TH_ID, StepperMotorDriverHandle->Register.OCD_TH);
 800103a:	68a3      	ldr	r3, [r4, #8]
 800103c:	681b      	ldr	r3, [r3, #0]
 800103e:	f894 2031 	ldrb.w	r2, [r4, #49]	; 0x31
 8001042:	2113      	movs	r1, #19
 8001044:	7820      	ldrb	r0, [r4, #0]
 8001046:	4798      	blx	r3
  StepperMotorDriverHandle->Command->SetParam(StepperMotorDriverHandle->DaisyChainPosition, L6470_STALL_TH_ID, StepperMotorDriverHandle->Register.STALL_TH);
 8001048:	68a3      	ldr	r3, [r4, #8]
 800104a:	681b      	ldr	r3, [r3, #0]
 800104c:	f894 2032 	ldrb.w	r2, [r4, #50]	; 0x32
 8001050:	2114      	movs	r1, #20
 8001052:	7820      	ldrb	r0, [r4, #0]
 8001054:	4798      	blx	r3
  StepperMotorDriverHandle->Command->SetParam(StepperMotorDriverHandle->DaisyChainPosition, L6470_STEP_MODE_ID, StepperMotorDriverHandle->Register.STEP_MODE);
 8001056:	68a3      	ldr	r3, [r4, #8]
 8001058:	681b      	ldr	r3, [r3, #0]
 800105a:	f894 2033 	ldrb.w	r2, [r4, #51]	; 0x33
 800105e:	2115      	movs	r1, #21
 8001060:	7820      	ldrb	r0, [r4, #0]
 8001062:	4798      	blx	r3
  StepperMotorDriverHandle->Command->SetParam(StepperMotorDriverHandle->DaisyChainPosition, L6470_ALARM_EN_ID, StepperMotorDriverHandle->Register.ALARM_EN);
 8001064:	68a3      	ldr	r3, [r4, #8]
 8001066:	681b      	ldr	r3, [r3, #0]
 8001068:	f894 2034 	ldrb.w	r2, [r4, #52]	; 0x34
 800106c:	2116      	movs	r1, #22
 800106e:	7820      	ldrb	r0, [r4, #0]
 8001070:	4798      	blx	r3
  StepperMotorDriverHandle->Command->SetParam(StepperMotorDriverHandle->DaisyChainPosition, L6470_CONFIG_ID, StepperMotorDriverHandle->Register.CONFIG);
 8001072:	68a3      	ldr	r3, [r4, #8]
 8001074:	681b      	ldr	r3, [r3, #0]
 8001076:	8ee2      	ldrh	r2, [r4, #54]	; 0x36
 8001078:	2117      	movs	r1, #23
 800107a:	7820      	ldrb	r0, [r4, #0]
 800107c:	4798      	blx	r3
}
 800107e:	bd70      	pop	{r4, r5, r6, pc}
 8001080:	43800000 	.word	0x43800000

08001084 <BSP_LED_On>:
  *   This parameter can be one of following parameters:
  *     @arg LED2
  * @retval None
  */
void BSP_LED_On(Led_TypeDef Led)
{
 8001084:	b508      	push	{r3, lr}
  HAL_GPIO_WritePin(LED_PORT[Led], LED_PIN[Led], GPIO_PIN_SET); 
 8001086:	4b05      	ldr	r3, [pc, #20]	; (800109c <BSP_LED_On+0x18>)
 8001088:	eb03 0080 	add.w	r0, r3, r0, lsl #2
 800108c:	2201      	movs	r2, #1
 800108e:	f44f 5100 	mov.w	r1, #8192	; 0x2000
 8001092:	6840      	ldr	r0, [r0, #4]
 8001094:	f000 fd36 	bl	8001b04 <HAL_GPIO_WritePin>
}
 8001098:	bd08      	pop	{r3, pc}
 800109a:	bf00      	nop
 800109c:	20000098 	.word	0x20000098

080010a0 <BSP_PB_Init>:
  *     @arg BUTTON_MODE_EXTI: Button will be connected to EXTI line with interrupt
  *                            generation capability  
  * @retval None
  */
void BSP_PB_Init(Button_TypeDef Button, ButtonMode_TypeDef ButtonMode)
{
 80010a0:	b530      	push	{r4, r5, lr}
 80010a2:	b087      	sub	sp, #28
  GPIO_InitTypeDef GPIO_InitStruct;

  /* Enable the BUTTON Clock */
  BUTTONx_GPIO_CLK_ENABLE(Button);
 80010a4:	4604      	mov	r4, r0
 80010a6:	b920      	cbnz	r0, 80010b2 <BSP_PB_Init+0x12>
 80010a8:	4a1b      	ldr	r2, [pc, #108]	; (8001118 <BSP_PB_Init+0x78>)
 80010aa:	6953      	ldr	r3, [r2, #20]
 80010ac:	f443 2300 	orr.w	r3, r3, #524288	; 0x80000
 80010b0:	6153      	str	r3, [r2, #20]
  __SYSCFG_CLK_ENABLE();
 80010b2:	4a19      	ldr	r2, [pc, #100]	; (8001118 <BSP_PB_Init+0x78>)
 80010b4:	6993      	ldr	r3, [r2, #24]
 80010b6:	f043 0301 	orr.w	r3, r3, #1
 80010ba:	6193      	str	r3, [r2, #24]

  if(ButtonMode == BUTTON_MODE_GPIO)
 80010bc:	b119      	cbz	r1, 80010c6 <BSP_PB_Init+0x26>
    GPIO_InitStruct.Pull = GPIO_PULLDOWN;
    GPIO_InitStruct.Speed = GPIO_SPEED_HIGH;
    HAL_GPIO_Init(BUTTON_PORT[Button], &GPIO_InitStruct);
  }
 
  if(ButtonMode == BUTTON_MODE_EXTI)
 80010be:	2901      	cmp	r1, #1
 80010c0:	d012      	beq.n	80010e8 <BSP_PB_Init+0x48>

    /* Enable and set Button EXTI Interrupt to the lowest priority */
    HAL_NVIC_SetPriority((IRQn_Type)(BUTTON_IRQn[Button]), 0x0F, 0x00);
    HAL_NVIC_EnableIRQ((IRQn_Type)(BUTTON_IRQn[Button]));
  }
}
 80010c2:	b007      	add	sp, #28
 80010c4:	bd30      	pop	{r4, r5, pc}
    GPIO_InitStruct.Pin = BUTTON_PIN[Button];
 80010c6:	f44f 5300 	mov.w	r3, #8192	; 0x2000
 80010ca:	9301      	str	r3, [sp, #4]
    GPIO_InitStruct.Mode = GPIO_MODE_INPUT;
 80010cc:	2300      	movs	r3, #0
 80010ce:	9302      	str	r3, [sp, #8]
    GPIO_InitStruct.Pull = GPIO_PULLDOWN;
 80010d0:	2302      	movs	r3, #2
 80010d2:	9303      	str	r3, [sp, #12]
    GPIO_InitStruct.Speed = GPIO_SPEED_HIGH;
 80010d4:	2303      	movs	r3, #3
 80010d6:	9304      	str	r3, [sp, #16]
    HAL_GPIO_Init(BUTTON_PORT[Button], &GPIO_InitStruct);
 80010d8:	4b10      	ldr	r3, [pc, #64]	; (800111c <BSP_PB_Init+0x7c>)
 80010da:	eb03 0484 	add.w	r4, r3, r4, lsl #2
 80010de:	a901      	add	r1, sp, #4
 80010e0:	68a0      	ldr	r0, [r4, #8]
 80010e2:	f000 fbff 	bl	80018e4 <HAL_GPIO_Init>
  if(ButtonMode == BUTTON_MODE_EXTI)
 80010e6:	e7ec      	b.n	80010c2 <BSP_PB_Init+0x22>
    GPIO_InitStruct.Pin = BUTTON_PIN[Button];
 80010e8:	f44f 5300 	mov.w	r3, #8192	; 0x2000
 80010ec:	9301      	str	r3, [sp, #4]
    GPIO_InitStruct.Pull = GPIO_NOPULL;
 80010ee:	2500      	movs	r5, #0
 80010f0:	9503      	str	r5, [sp, #12]
    GPIO_InitStruct.Mode = GPIO_MODE_IT_RISING; 
 80010f2:	4b0b      	ldr	r3, [pc, #44]	; (8001120 <BSP_PB_Init+0x80>)
 80010f4:	9302      	str	r3, [sp, #8]
    HAL_GPIO_Init(BUTTON_PORT[Button], &GPIO_InitStruct);
 80010f6:	4b09      	ldr	r3, [pc, #36]	; (800111c <BSP_PB_Init+0x7c>)
 80010f8:	eb03 0484 	add.w	r4, r3, r4, lsl #2
 80010fc:	a901      	add	r1, sp, #4
 80010fe:	68a0      	ldr	r0, [r4, #8]
 8001100:	f000 fbf0 	bl	80018e4 <HAL_GPIO_Init>
    HAL_NVIC_SetPriority((IRQn_Type)(BUTTON_IRQn[Button]), 0x0F, 0x00);
 8001104:	462a      	mov	r2, r5
 8001106:	210f      	movs	r1, #15
 8001108:	2028      	movs	r0, #40	; 0x28
 800110a:	f000 fb71 	bl	80017f0 <HAL_NVIC_SetPriority>
    HAL_NVIC_EnableIRQ((IRQn_Type)(BUTTON_IRQn[Button]));
 800110e:	2028      	movs	r0, #40	; 0x28
 8001110:	f000 fbb2 	bl	8001878 <HAL_NVIC_EnableIRQ>
}
 8001114:	e7d5      	b.n	80010c2 <BSP_PB_Init+0x22>
 8001116:	bf00      	nop
 8001118:	40021000 	.word	0x40021000
 800111c:	20000098 	.word	0x20000098
 8001120:	10110000 	.word	0x10110000

08001124 <BSP_Select>:
  * @param  ExpBrd_Id   The identifier of the Expansion Board to be addressed.
  * @retval FlagStatus  SET or RESET related to the result.
  */
uint8_t BSP_Select(uint8_t ExpBrd_Id)
{
  if (ExpBrd_Id < EXPBRD_MOUNTED_NR)
 8001124:	b948      	cbnz	r0, 800113a <BSP_Select+0x16>
  {
    L6470_nCS_GPIO.gpio_clk_enable = L6470_nCS_GPIO_Array[ExpBrd_Id].gpio_clk_enable;
 8001126:	4b06      	ldr	r3, [pc, #24]	; (8001140 <BSP_Select+0x1c>)
 8001128:	4a06      	ldr	r2, [pc, #24]	; (8001144 <BSP_Select+0x20>)
 800112a:	6811      	ldr	r1, [r2, #0]
 800112c:	6019      	str	r1, [r3, #0]
    L6470_nCS_GPIO.port = L6470_nCS_GPIO_Array[ExpBrd_Id].port;
 800112e:	6851      	ldr	r1, [r2, #4]
 8001130:	6059      	str	r1, [r3, #4]
    L6470_nCS_GPIO.pin = L6470_nCS_GPIO_Array[ExpBrd_Id].pin;
 8001132:	8912      	ldrh	r2, [r2, #8]
 8001134:	811a      	strh	r2, [r3, #8]
    return SET;
 8001136:	2001      	movs	r0, #1
 8001138:	4770      	bx	lr
  }
  else
    return RESET;
 800113a:	2000      	movs	r0, #0
}
 800113c:	4770      	bx	lr
 800113e:	bf00      	nop
 8001140:	200003e4 	.word	0x200003e4
 8001144:	200000a4 	.word	0x200000a4

08001148 <BSP_L6470_ResetDevice>:
{
 8001148:	b510      	push	{r4, lr}
 800114a:	460c      	mov	r4, r1
  if (BSP_Select(ExpBrd_Id))
 800114c:	f7ff ffea 	bl	8001124 <BSP_Select>
 8001150:	b900      	cbnz	r0, 8001154 <BSP_L6470_ResetDevice+0xc>
}
 8001152:	bd10      	pop	{r4, pc}
    L6470_ResetDevice(L6470_Id);
 8001154:	4620      	mov	r0, r4
 8001156:	f7ff fd07 	bl	8000b68 <L6470_ResetDevice>
}
 800115a:	e7fa      	b.n	8001152 <BSP_L6470_ResetDevice+0xa>

0800115c <BSP_L6470_GetStatus>:
{
 800115c:	b510      	push	{r4, lr}
 800115e:	460c      	mov	r4, r1
  if (BSP_Select(ExpBrd_Id))
 8001160:	f7ff ffe0 	bl	8001124 <BSP_Select>
 8001164:	b908      	cbnz	r0, 800116a <BSP_L6470_GetStatus+0xe>
    return 0;
 8001166:	2000      	movs	r0, #0
}
 8001168:	bd10      	pop	{r4, pc}
    return L6470_GetStatus(L6470_Id);
 800116a:	4620      	mov	r0, r4
 800116c:	f7ff fe4c 	bl	8000e08 <L6470_GetStatus>
 8001170:	e7fa      	b.n	8001168 <BSP_L6470_GetStatus+0xc>

08001172 <BSP_L6470_SetParam>:
{
 8001172:	b570      	push	{r4, r5, r6, lr}
 8001174:	460c      	mov	r4, r1
 8001176:	4615      	mov	r5, r2
 8001178:	461e      	mov	r6, r3
  if (BSP_Select(ExpBrd_Id))
 800117a:	f7ff ffd3 	bl	8001124 <BSP_Select>
 800117e:	b900      	cbnz	r0, 8001182 <BSP_L6470_SetParam+0x10>
}
 8001180:	bd70      	pop	{r4, r5, r6, pc}
    L6470_SetParam(L6470_Id, L6470_RegId, Value);
 8001182:	4632      	mov	r2, r6
 8001184:	4629      	mov	r1, r5
 8001186:	4620      	mov	r0, r4
 8001188:	f7ff fbb2 	bl	80008f0 <L6470_SetParam>
}
 800118c:	e7f8      	b.n	8001180 <BSP_L6470_SetParam+0xe>

0800118e <BSP_L6470_GetParam>:
{
 800118e:	b538      	push	{r3, r4, r5, lr}
 8001190:	460c      	mov	r4, r1
 8001192:	4615      	mov	r5, r2
  if (BSP_Select(ExpBrd_Id))
 8001194:	f7ff ffc6 	bl	8001124 <BSP_Select>
 8001198:	b908      	cbnz	r0, 800119e <BSP_L6470_GetParam+0x10>
    return 0xFF;
 800119a:	20ff      	movs	r0, #255	; 0xff
}
 800119c:	bd38      	pop	{r3, r4, r5, pc}
    return L6470_GetParam(L6470_Id, L6470_RegId);
 800119e:	4629      	mov	r1, r5
 80011a0:	4620      	mov	r0, r4
 80011a2:	f7ff fd95 	bl	8000cd0 <L6470_GetParam>
 80011a6:	e7f9      	b.n	800119c <BSP_L6470_GetParam+0xe>

080011a8 <BSP_L6470_Run>:
{
 80011a8:	b570      	push	{r4, r5, r6, lr}
 80011aa:	460c      	mov	r4, r1
 80011ac:	4615      	mov	r5, r2
 80011ae:	461e      	mov	r6, r3
  if (BSP_Select(ExpBrd_Id))
 80011b0:	f7ff ffb8 	bl	8001124 <BSP_Select>
 80011b4:	b900      	cbnz	r0, 80011b8 <BSP_L6470_Run+0x10>
}
 80011b6:	bd70      	pop	{r4, r5, r6, pc}
    L6470_Run(L6470_Id, L6470_DirId, Speed);
 80011b8:	4632      	mov	r2, r6
 80011ba:	4629      	mov	r1, r5
 80011bc:	4620      	mov	r0, r4
 80011be:	f7ff fbb3 	bl	8000928 <L6470_Run>
}
 80011c2:	e7f8      	b.n	80011b6 <BSP_L6470_Run+0xe>

080011c4 <BSP_L6470_StepClock>:
{
 80011c4:	b538      	push	{r3, r4, r5, lr}
 80011c6:	460c      	mov	r4, r1
 80011c8:	4615      	mov	r5, r2
  if (BSP_Select(ExpBrd_Id))
 80011ca:	f7ff ffab 	bl	8001124 <BSP_Select>
 80011ce:	b900      	cbnz	r0, 80011d2 <BSP_L6470_StepClock+0xe>
}
 80011d0:	bd38      	pop	{r3, r4, r5, pc}
    L6470_StepClock(L6470_Id, L6470_DirId);
 80011d2:	4629      	mov	r1, r5
 80011d4:	4620      	mov	r0, r4
 80011d6:	f7ff fbc3 	bl	8000960 <L6470_StepClock>
}
 80011da:	e7f9      	b.n	80011d0 <BSP_L6470_StepClock+0xc>

080011dc <BSP_L6470_Move>:
{
 80011dc:	b570      	push	{r4, r5, r6, lr}
 80011de:	460c      	mov	r4, r1
 80011e0:	4615      	mov	r5, r2
 80011e2:	461e      	mov	r6, r3
  if (BSP_Select(ExpBrd_Id))
 80011e4:	f7ff ff9e 	bl	8001124 <BSP_Select>
 80011e8:	b900      	cbnz	r0, 80011ec <BSP_L6470_Move+0x10>
}
 80011ea:	bd70      	pop	{r4, r5, r6, pc}
    L6470_Move(L6470_Id, L6470_DirId, N_Step);
 80011ec:	4632      	mov	r2, r6
 80011ee:	4629      	mov	r1, r5
 80011f0:	4620      	mov	r0, r4
 80011f2:	f7ff fbd1 	bl	8000998 <L6470_Move>
}
 80011f6:	e7f8      	b.n	80011ea <BSP_L6470_Move+0xe>

080011f8 <BSP_L6470_GoTo>:
{
 80011f8:	b538      	push	{r3, r4, r5, lr}
 80011fa:	460c      	mov	r4, r1
 80011fc:	4615      	mov	r5, r2
  if (BSP_Select(ExpBrd_Id))
 80011fe:	f7ff ff91 	bl	8001124 <BSP_Select>
 8001202:	b900      	cbnz	r0, 8001206 <BSP_L6470_GoTo+0xe>
}
 8001204:	bd38      	pop	{r3, r4, r5, pc}
    L6470_GoTo(L6470_Id, AbsPos);
 8001206:	4629      	mov	r1, r5
 8001208:	4620      	mov	r0, r4
 800120a:	f7ff fbe1 	bl	80009d0 <L6470_GoTo>
}
 800120e:	e7f9      	b.n	8001204 <BSP_L6470_GoTo+0xc>

08001210 <BSP_L6470_GoToDir>:
{
 8001210:	b570      	push	{r4, r5, r6, lr}
 8001212:	460c      	mov	r4, r1
 8001214:	4615      	mov	r5, r2
 8001216:	461e      	mov	r6, r3
  if (BSP_Select(ExpBrd_Id))
 8001218:	f7ff ff84 	bl	8001124 <BSP_Select>
 800121c:	b900      	cbnz	r0, 8001220 <BSP_L6470_GoToDir+0x10>
}
 800121e:	bd70      	pop	{r4, r5, r6, pc}
    L6470_GoToDir(L6470_Id, L6470_DirId, AbsPos);
 8001220:	4632      	mov	r2, r6
 8001222:	4629      	mov	r1, r5
 8001224:	4620      	mov	r0, r4
 8001226:	f7ff fbf3 	bl	8000a10 <L6470_GoToDir>
}
 800122a:	e7f8      	b.n	800121e <BSP_L6470_GoToDir+0xe>

0800122c <BSP_L6470_GoUntil>:
{
 800122c:	b570      	push	{r4, r5, r6, lr}
 800122e:	460c      	mov	r4, r1
 8001230:	4615      	mov	r5, r2
 8001232:	461e      	mov	r6, r3
  if (BSP_Select(ExpBrd_Id))
 8001234:	f7ff ff76 	bl	8001124 <BSP_Select>
 8001238:	b900      	cbnz	r0, 800123c <BSP_L6470_GoUntil+0x10>
}
 800123a:	bd70      	pop	{r4, r5, r6, pc}
    L6470_GoUntil(L6470_Id, L6470_ActId, L6470_DirId, Speed);
 800123c:	9b04      	ldr	r3, [sp, #16]
 800123e:	4632      	mov	r2, r6
 8001240:	4629      	mov	r1, r5
 8001242:	4620      	mov	r0, r4
 8001244:	f7ff fc04 	bl	8000a50 <L6470_GoUntil>
}
 8001248:	e7f7      	b.n	800123a <BSP_L6470_GoUntil+0xe>

0800124a <BSP_L6470_ReleaseSW>:
{
 800124a:	b570      	push	{r4, r5, r6, lr}
 800124c:	460c      	mov	r4, r1
 800124e:	4615      	mov	r5, r2
 8001250:	461e      	mov	r6, r3
  if (BSP_Select(ExpBrd_Id))
 8001252:	f7ff ff67 	bl	8001124 <BSP_Select>
 8001256:	b900      	cbnz	r0, 800125a <BSP_L6470_ReleaseSW+0x10>
}
 8001258:	bd70      	pop	{r4, r5, r6, pc}
    L6470_ReleaseSW(L6470_Id, L6470_ActId, L6470_DirId);
 800125a:	4632      	mov	r2, r6
 800125c:	4629      	mov	r1, r5
 800125e:	4620      	mov	r0, r4
 8001260:	f7ff fc12 	bl	8000a88 <L6470_ReleaseSW>
}
 8001264:	e7f8      	b.n	8001258 <BSP_L6470_ReleaseSW+0xe>

08001266 <BSP_L6470_GoHome>:
{
 8001266:	b510      	push	{r4, lr}
 8001268:	460c      	mov	r4, r1
  if (BSP_Select(ExpBrd_Id))
 800126a:	f7ff ff5b 	bl	8001124 <BSP_Select>
 800126e:	b900      	cbnz	r0, 8001272 <BSP_L6470_GoHome+0xc>
}
 8001270:	bd10      	pop	{r4, pc}
    L6470_GoHome(L6470_Id);
 8001272:	4620      	mov	r0, r4
 8001274:	f7ff fc24 	bl	8000ac0 <L6470_GoHome>
}
 8001278:	e7fa      	b.n	8001270 <BSP_L6470_GoHome+0xa>

0800127a <BSP_L6470_GoMark>:
{
 800127a:	b510      	push	{r4, lr}
 800127c:	460c      	mov	r4, r1
  if (BSP_Select(ExpBrd_Id))
 800127e:	f7ff ff51 	bl	8001124 <BSP_Select>
 8001282:	b900      	cbnz	r0, 8001286 <BSP_L6470_GoMark+0xc>
}
 8001284:	bd10      	pop	{r4, pc}
    L6470_GoMark(L6470_Id);
 8001286:	4620      	mov	r0, r4
 8001288:	f7ff fc36 	bl	8000af8 <L6470_GoMark>
}
 800128c:	e7fa      	b.n	8001284 <BSP_L6470_GoMark+0xa>

0800128e <BSP_L6470_ResetPos>:
{
 800128e:	b510      	push	{r4, lr}
 8001290:	460c      	mov	r4, r1
  if (BSP_Select(ExpBrd_Id))
 8001292:	f7ff ff47 	bl	8001124 <BSP_Select>
 8001296:	b900      	cbnz	r0, 800129a <BSP_L6470_ResetPos+0xc>
}
 8001298:	bd10      	pop	{r4, pc}
    L6470_ResetPos(L6470_Id);
 800129a:	4620      	mov	r0, r4
 800129c:	f7ff fc48 	bl	8000b30 <L6470_ResetPos>
}
 80012a0:	e7fa      	b.n	8001298 <BSP_L6470_ResetPos+0xa>

080012a2 <BSP_L6470_SoftStop>:
{
 80012a2:	b510      	push	{r4, lr}
 80012a4:	460c      	mov	r4, r1
  if (BSP_Select(ExpBrd_Id))
 80012a6:	f7ff ff3d 	bl	8001124 <BSP_Select>
 80012aa:	b900      	cbnz	r0, 80012ae <BSP_L6470_SoftStop+0xc>
}
 80012ac:	bd10      	pop	{r4, pc}
    L6470_SoftStop(L6470_Id);
 80012ae:	4620      	mov	r0, r4
 80012b0:	f7ff fc76 	bl	8000ba0 <L6470_SoftStop>
}
 80012b4:	e7fa      	b.n	80012ac <BSP_L6470_SoftStop+0xa>

080012b6 <BSP_L6470_HardStop>:
{
 80012b6:	b510      	push	{r4, lr}
 80012b8:	460c      	mov	r4, r1
  if (BSP_Select(ExpBrd_Id))
 80012ba:	f7ff ff33 	bl	8001124 <BSP_Select>
 80012be:	b900      	cbnz	r0, 80012c2 <BSP_L6470_HardStop+0xc>
}
 80012c0:	bd10      	pop	{r4, pc}
    L6470_HardStop(L6470_Id);
 80012c2:	4620      	mov	r0, r4
 80012c4:	f7ff fc88 	bl	8000bd8 <L6470_HardStop>
}
 80012c8:	e7fa      	b.n	80012c0 <BSP_L6470_HardStop+0xa>

080012ca <BSP_L6470_SoftHiZ>:
{
 80012ca:	b510      	push	{r4, lr}
 80012cc:	460c      	mov	r4, r1
  if (BSP_Select(ExpBrd_Id))
 80012ce:	f7ff ff29 	bl	8001124 <BSP_Select>
 80012d2:	b900      	cbnz	r0, 80012d6 <BSP_L6470_SoftHiZ+0xc>
}
 80012d4:	bd10      	pop	{r4, pc}
    L6470_SoftHiZ(L6470_Id);
 80012d6:	4620      	mov	r0, r4
 80012d8:	f7ff fc9a 	bl	8000c10 <L6470_SoftHiZ>
}
 80012dc:	e7fa      	b.n	80012d4 <BSP_L6470_SoftHiZ+0xa>

080012de <BSP_L6470_HardHiZ>:
{
 80012de:	b510      	push	{r4, lr}
 80012e0:	460c      	mov	r4, r1
  if (BSP_Select(ExpBrd_Id))
 80012e2:	f7ff ff1f 	bl	8001124 <BSP_Select>
 80012e6:	b900      	cbnz	r0, 80012ea <BSP_L6470_HardHiZ+0xc>
}
 80012e8:	bd10      	pop	{r4, pc}
    L6470_HardHiZ(L6470_Id);
 80012ea:	4620      	mov	r0, r4
 80012ec:	f7ff fcac 	bl	8000c48 <L6470_HardHiZ>
}
 80012f0:	e7fa      	b.n	80012e8 <BSP_L6470_HardHiZ+0xa>

080012f2 <BSP_L6470_CheckStatusRegisterFlag>:
{
 80012f2:	b538      	push	{r3, r4, r5, lr}
 80012f4:	460c      	mov	r4, r1
 80012f6:	4615      	mov	r5, r2
  if (BSP_Select(ExpBrd_Id))
 80012f8:	f7ff ff14 	bl	8001124 <BSP_Select>
 80012fc:	b908      	cbnz	r0, 8001302 <BSP_L6470_CheckStatusRegisterFlag+0x10>
    return 0xFF;
 80012fe:	20ff      	movs	r0, #255	; 0xff
}
 8001300:	bd38      	pop	{r3, r4, r5, pc}
    return L6470_CheckStatusRegisterFlag(L6470_Id, L6470_StatusRegisterFlagId);
 8001302:	4629      	mov	r1, r5
 8001304:	4620      	mov	r0, r4
 8001306:	f7ff fd0f 	bl	8000d28 <L6470_CheckStatusRegisterFlag>
 800130a:	e7f9      	b.n	8001300 <BSP_L6470_CheckStatusRegisterFlag+0xe>

0800130c <BSP_L6470_0_0_Config>:
 * @brief   Initialize the data structure related to the stepper motor driver #0
 *          of the expansion board #0.
 * @param   MotorParameterData_t* The pointer to the related parameter data structure.
*/
void BSP_L6470_0_0_Config(MotorParameterData_t *MotorParameterData)
{
 800130c:	b508      	push	{r3, lr}
 800130e:	4601      	mov	r1, r0
  StepperMotorDriverHandle_t *StepperMotorDriverHandle;
  
  StepperMotorDriverHandle = &L6470DrvMtx[0][0];
  L6470_Config(StepperMotorDriverHandle, MotorParameterData);
 8001310:	4801      	ldr	r0, [pc, #4]	; (8001318 <BSP_L6470_0_0_Config+0xc>)
 8001312:	f7ff fdad 	bl	8000e70 <L6470_Config>
}
 8001316:	bd08      	pop	{r3, pc}
 8001318:	200000b0 	.word	0x200000b0

0800131c <BSP_L6470_0_1_Config>:
 * @brief   Initialize the data structure related to the stepper motor driver #1
 *          of the expansion board #0.
 * @param   MotorParameterData_t* The pointer to the related parameter data structure.
 */
void BSP_L6470_0_1_Config(MotorParameterData_t *MotorParameterData)
{
 800131c:	b508      	push	{r3, lr}
 800131e:	4601      	mov	r1, r0
  StepperMotorDriverHandle_t *StepperMotorDriverHandle;
  
  StepperMotorDriverHandle = &L6470DrvMtx[0][1];
  L6470_Config(StepperMotorDriverHandle, MotorParameterData);
 8001320:	4801      	ldr	r0, [pc, #4]	; (8001328 <BSP_L6470_0_1_Config+0xc>)
 8001322:	f7ff fda5 	bl	8000e70 <L6470_Config>
}
 8001326:	bd08      	pop	{r3, pc}
 8001328:	200000ec 	.word	0x200000ec

0800132c <BSP_L6470_1_0_Config>:
 * @brief   Initialize the data structure related to the stepper motor driver #0
 *          of the expansion board #1.
 * @param   MotorParameterData_t* The pointer to the related parameter data structure.
 */
void BSP_L6470_1_0_Config(MotorParameterData_t *MotorParameterData)
{
 800132c:	b508      	push	{r3, lr}
 800132e:	4601      	mov	r1, r0
  StepperMotorDriverHandle_t *StepperMotorDriverHandle;
  
  StepperMotorDriverHandle = &L6470DrvMtx[1][0];
  L6470_Config(StepperMotorDriverHandle, MotorParameterData);
 8001330:	4801      	ldr	r0, [pc, #4]	; (8001338 <BSP_L6470_1_0_Config+0xc>)
 8001332:	f7ff fd9d 	bl	8000e70 <L6470_Config>
}
 8001336:	bd08      	pop	{r3, pc}
 8001338:	20000128 	.word	0x20000128

0800133c <BSP_L6470_1_1_Config>:
 * @brief   Initialize the data structure related to the stepper motor driver #1
 *          of the expansion board #1.
 * @param   MotorParameterData_t* The pointer to the related parameter data structure.
 */
void BSP_L6470_1_1_Config(MotorParameterData_t *MotorParameterData)
{
 800133c:	b508      	push	{r3, lr}
 800133e:	4601      	mov	r1, r0
  StepperMotorDriverHandle_t *StepperMotorDriverHandle;
  
  StepperMotorDriverHandle = &L6470DrvMtx[1][1];
  L6470_Config(StepperMotorDriverHandle, MotorParameterData);
 8001340:	4801      	ldr	r0, [pc, #4]	; (8001348 <BSP_L6470_1_1_Config+0xc>)
 8001342:	f7ff fd95 	bl	8000e70 <L6470_Config>
}
 8001346:	bd08      	pop	{r3, pc}
 8001348:	20000164 	.word	0x20000164

0800134c <BSP_L6470_2_0_Config>:
 * @brief   Initialize the data structure related to the stepper motor driver #0
 *          of the expansion board #2.
 * @param   MotorParameterData_t* The pointer to the related parameter data structure.
 */
void BSP_L6470_2_0_Config(MotorParameterData_t *MotorParameterData)
{
 800134c:	b508      	push	{r3, lr}
 800134e:	4601      	mov	r1, r0
  StepperMotorDriverHandle_t *StepperMotorDriverHandle;
  
  StepperMotorDriverHandle = &L6470DrvMtx[2][0];
  L6470_Config(StepperMotorDriverHandle, MotorParameterData);
 8001350:	4801      	ldr	r0, [pc, #4]	; (8001358 <BSP_L6470_2_0_Config+0xc>)
 8001352:	f7ff fd8d 	bl	8000e70 <L6470_Config>
}
 8001356:	bd08      	pop	{r3, pc}
 8001358:	200001a0 	.word	0x200001a0

0800135c <BSP_L6470_2_1_Config>:
 * @brief   Initialize the data structure related to the stepper motor driver #1
 *          of the expansion board #2.
 * @param   MotorParameterData_t* The pointer to the related parameter data structure.
 */
void BSP_L6470_2_1_Config(MotorParameterData_t *MotorParameterData)
{
 800135c:	b508      	push	{r3, lr}
 800135e:	4601      	mov	r1, r0
  StepperMotorDriverHandle_t *StepperMotorDriverHandle;
  
  StepperMotorDriverHandle = &L6470DrvMtx[2][1];
  L6470_Config(StepperMotorDriverHandle, MotorParameterData);
 8001360:	4801      	ldr	r0, [pc, #4]	; (8001368 <BSP_L6470_2_1_Config+0xc>)
 8001362:	f7ff fd85 	bl	8000e70 <L6470_Config>
}
 8001366:	bd08      	pop	{r3, pc}
 8001368:	200001dc 	.word	0x200001dc

0800136c <BSP_L6470_3_0_Config>:
 * @brief   Initialize the data structure related to the stepper motor driver #0
 *          of the expansion board #3.
 * @param   MotorParameterData_t* The pointer to the related parameter data structure.
 */
void BSP_L6470_3_0_Config(MotorParameterData_t *MotorParameterData)
{
 800136c:	b508      	push	{r3, lr}
 800136e:	4601      	mov	r1, r0
  StepperMotorDriverHandle_t *StepperMotorDriverHandle;
  
  StepperMotorDriverHandle = &L6470DrvMtx[3][0];
  L6470_Config(StepperMotorDriverHandle, MotorParameterData);
 8001370:	4801      	ldr	r0, [pc, #4]	; (8001378 <BSP_L6470_3_0_Config+0xc>)
 8001372:	f7ff fd7d 	bl	8000e70 <L6470_Config>
}
 8001376:	bd08      	pop	{r3, pc}
 8001378:	20000218 	.word	0x20000218

0800137c <BSP_L6470_3_1_Config>:
 * @brief   Initialize the data structure related to the stepper motor driver #1
 *          of the expansion board #3.
 * @param   MotorParameterData_t* The pointer to the related parameter data structure.
 */
void BSP_L6470_3_1_Config(MotorParameterData_t *MotorParameterData)
{
 800137c:	b508      	push	{r3, lr}
 800137e:	4601      	mov	r1, r0
  StepperMotorDriverHandle_t *StepperMotorDriverHandle;
  
  StepperMotorDriverHandle = &L6470DrvMtx[3][1];
  L6470_Config(StepperMotorDriverHandle, MotorParameterData);
 8001380:	4801      	ldr	r0, [pc, #4]	; (8001388 <BSP_L6470_3_1_Config+0xc>)
 8001382:	f7ff fd75 	bl	8000e70 <L6470_Config>
}
 8001386:	bd08      	pop	{r3, pc}
 8001388:	20000254 	.word	0x20000254

0800138c <BSP_NUCLEO_GPIO_Init>:
{
 800138c:	e92d 41f0 	stmdb	sp!, {r4, r5, r6, r7, r8, lr}
 8001390:	b086      	sub	sp, #24
  GPIO_CLK_ENABLE(L6470_nSTBY_nRST_GPIO.gpio_clk_enable);
 8001392:	4e29      	ldr	r6, [pc, #164]	; (8001438 <BSP_NUCLEO_GPIO_Init+0xac>)
 8001394:	6973      	ldr	r3, [r6, #20]
 8001396:	4c29      	ldr	r4, [pc, #164]	; (800143c <BSP_NUCLEO_GPIO_Init+0xb0>)
 8001398:	f8d4 21ec 	ldr.w	r2, [r4, #492]	; 0x1ec
 800139c:	4313      	orrs	r3, r2
 800139e:	6173      	str	r3, [r6, #20]
  GPIO_InitStruct.Pin = L6470_nSTBY_nRST_GPIO.pin;
 80013a0:	f8b4 31f4 	ldrh.w	r3, [r4, #500]	; 0x1f4
 80013a4:	9301      	str	r3, [sp, #4]
  GPIO_InitStruct.Mode = GPIO_MODE_OUTPUT_OD;
 80013a6:	2311      	movs	r3, #17
 80013a8:	9302      	str	r3, [sp, #8]
  GPIO_InitStruct.Pull = GPIO_NOPULL;
 80013aa:	2500      	movs	r5, #0
 80013ac:	9503      	str	r5, [sp, #12]
  GPIO_InitStruct.Speed = GPIO_SPEED_HIGH;
 80013ae:	2703      	movs	r7, #3
 80013b0:	9704      	str	r7, [sp, #16]
  HAL_GPIO_Init(L6470_nSTBY_nRST_GPIO.port, &GPIO_InitStruct);
 80013b2:	a901      	add	r1, sp, #4
 80013b4:	f8d4 01f0 	ldr.w	r0, [r4, #496]	; 0x1f0
 80013b8:	f000 fa94 	bl	80018e4 <HAL_GPIO_Init>
  GPIO_CLK_ENABLE(L6470_nBUSY_SYNC_GPIO.gpio_clk_enable);
 80013bc:	6973      	ldr	r3, [r6, #20]
 80013be:	f8d4 21f8 	ldr.w	r2, [r4, #504]	; 0x1f8
 80013c2:	4313      	orrs	r3, r2
 80013c4:	6173      	str	r3, [r6, #20]
  GPIO_InitStruct.Pin = L6470_nBUSY_SYNC_GPIO.pin;
 80013c6:	f8b4 3200 	ldrh.w	r3, [r4, #512]	; 0x200
 80013ca:	9301      	str	r3, [sp, #4]
  GPIO_InitStruct.Mode = GPIO_MODE_IT_FALLING;
 80013cc:	f8df 8070 	ldr.w	r8, [pc, #112]	; 8001440 <BSP_NUCLEO_GPIO_Init+0xb4>
 80013d0:	f8cd 8008 	str.w	r8, [sp, #8]
  GPIO_InitStruct.Pull = GPIO_NOPULL;
 80013d4:	9503      	str	r5, [sp, #12]
  HAL_GPIO_Init(L6470_nBUSY_SYNC_GPIO.port, &GPIO_InitStruct);
 80013d6:	a901      	add	r1, sp, #4
 80013d8:	f8d4 01fc 	ldr.w	r0, [r4, #508]	; 0x1fc
 80013dc:	f000 fa82 	bl	80018e4 <HAL_GPIO_Init>
  HAL_NVIC_SetPriority(L6470_nBUSY_SYNC_IRQn, 0, 0);
 80013e0:	462a      	mov	r2, r5
 80013e2:	4629      	mov	r1, r5
 80013e4:	2006      	movs	r0, #6
 80013e6:	f000 fa03 	bl	80017f0 <HAL_NVIC_SetPriority>
  GPIO_CLK_ENABLE(L6470_nFLAG_GPIO.gpio_clk_enable);
 80013ea:	6973      	ldr	r3, [r6, #20]
 80013ec:	f8d4 2204 	ldr.w	r2, [r4, #516]	; 0x204
 80013f0:	4313      	orrs	r3, r2
 80013f2:	6173      	str	r3, [r6, #20]
  GPIO_InitStruct.Pin = L6470_nFLAG_GPIO.pin;
 80013f4:	f8b4 320c 	ldrh.w	r3, [r4, #524]	; 0x20c
 80013f8:	9301      	str	r3, [sp, #4]
  GPIO_InitStruct.Mode = GPIO_MODE_IT_FALLING;
 80013fa:	f8cd 8008 	str.w	r8, [sp, #8]
  GPIO_InitStruct.Pull = GPIO_NOPULL;
 80013fe:	9503      	str	r5, [sp, #12]
  HAL_GPIO_Init(L6470_nFLAG_GPIO.port, &GPIO_InitStruct);
 8001400:	a901      	add	r1, sp, #4
 8001402:	f8d4 0208 	ldr.w	r0, [r4, #520]	; 0x208
 8001406:	f000 fa6d 	bl	80018e4 <HAL_GPIO_Init>
  HAL_NVIC_SetPriority(L6470_nFLAG_IRQn, 0, 0);
 800140a:	462a      	mov	r2, r5
 800140c:	4629      	mov	r1, r5
 800140e:	2007      	movs	r0, #7
 8001410:	f000 f9ee 	bl	80017f0 <HAL_NVIC_SetPriority>
    GPIO_CLK_ENABLE(L6470_nCS_GPIO_Array[ExpBrd].gpio_clk_enable);
 8001414:	6973      	ldr	r3, [r6, #20]
 8001416:	6822      	ldr	r2, [r4, #0]
 8001418:	4313      	orrs	r3, r2
 800141a:	6173      	str	r3, [r6, #20]
    GPIO_InitStruct.Pin = L6470_nCS_GPIO_Array[ExpBrd].pin;
 800141c:	8923      	ldrh	r3, [r4, #8]
 800141e:	9301      	str	r3, [sp, #4]
    GPIO_InitStruct.Mode = GPIO_MODE_OUTPUT_PP;
 8001420:	2301      	movs	r3, #1
 8001422:	9302      	str	r3, [sp, #8]
    GPIO_InitStruct.Pull = GPIO_NOPULL;
 8001424:	9503      	str	r5, [sp, #12]
    GPIO_InitStruct.Speed = GPIO_SPEED_HIGH;
 8001426:	9704      	str	r7, [sp, #16]
    HAL_GPIO_Init(L6470_nCS_GPIO_Array[ExpBrd].port, &GPIO_InitStruct);
 8001428:	a901      	add	r1, sp, #4
 800142a:	6860      	ldr	r0, [r4, #4]
 800142c:	f000 fa5a 	bl	80018e4 <HAL_GPIO_Init>
}
 8001430:	b006      	add	sp, #24
 8001432:	e8bd 81f0 	ldmia.w	sp!, {r4, r5, r6, r7, r8, pc}
 8001436:	bf00      	nop
 8001438:	40021000 	.word	0x40021000
 800143c:	200000a4 	.word	0x200000a4
 8001440:	10210000 	.word	0x10210000

08001444 <BSP_L6470_Init>:
{
 8001444:	b538      	push	{r3, r4, r5, lr}
  L6470_DISABLE();
 8001446:	4c17      	ldr	r4, [pc, #92]	; (80014a4 <BSP_L6470_Init+0x60>)
 8001448:	2200      	movs	r2, #0
 800144a:	f8b4 11f4 	ldrh.w	r1, [r4, #500]	; 0x1f4
 800144e:	f8d4 01f0 	ldr.w	r0, [r4, #496]	; 0x1f0
 8001452:	f000 fb57 	bl	8001b04 <HAL_GPIO_WritePin>
  L6470_ENABLE();
 8001456:	2201      	movs	r2, #1
 8001458:	f8b4 11f4 	ldrh.w	r1, [r4, #500]	; 0x1f4
 800145c:	f8d4 01f0 	ldr.w	r0, [r4, #496]	; 0x1f0
 8001460:	f000 fb50 	bl	8001b04 <HAL_GPIO_WritePin>
    BSP_Select(ExpBrd);
 8001464:	2000      	movs	r0, #0
 8001466:	f7ff fe5d 	bl	8001124 <BSP_Select>
    L6470_nCS_HIGH();
 800146a:	4b0f      	ldr	r3, [pc, #60]	; (80014a8 <BSP_L6470_Init+0x64>)
 800146c:	2201      	movs	r2, #1
 800146e:	8919      	ldrh	r1, [r3, #8]
 8001470:	6858      	ldr	r0, [r3, #4]
 8001472:	f000 fb47 	bl	8001b04 <HAL_GPIO_WritePin>
    for (L6470_Id = L6470_ID(0); L6470_Id<=L6470_ID(L6470DAISYCHAINSIZE-1); L6470_Id++)
 8001476:	2000      	movs	r0, #0
 8001478:	f7ff fa00 	bl	800087c <L6470_ID>
 800147c:	4604      	mov	r4, r0
 800147e:	2501      	movs	r5, #1
 8001480:	e007      	b.n	8001492 <BSP_L6470_Init+0x4e>
      L6470_ResetDevice(L6470_Id);
 8001482:	4620      	mov	r0, r4
 8001484:	f7ff fb70 	bl	8000b68 <L6470_ResetDevice>
      L6470_GetStatus(L6470_Id);
 8001488:	4620      	mov	r0, r4
 800148a:	f7ff fcbd 	bl	8000e08 <L6470_GetStatus>
    for (L6470_Id = L6470_ID(0); L6470_Id<=L6470_ID(L6470DAISYCHAINSIZE-1); L6470_Id++)
 800148e:	3401      	adds	r4, #1
 8001490:	b2e4      	uxtb	r4, r4
 8001492:	4628      	mov	r0, r5
 8001494:	f7ff f9f2 	bl	800087c <L6470_ID>
 8001498:	42a0      	cmp	r0, r4
 800149a:	d2f2      	bcs.n	8001482 <BSP_L6470_Init+0x3e>
  BSP_Select(EXPBRD_ID(0));
 800149c:	2000      	movs	r0, #0
 800149e:	f7ff fe41 	bl	8001124 <BSP_Select>
}
 80014a2:	bd38      	pop	{r3, r4, r5, pc}
 80014a4:	200000a4 	.word	0x200000a4
 80014a8:	200003e4 	.word	0x200003e4

080014ac <BSP_IRQ>:
{
 80014ac:	b508      	push	{r3, lr}
  if(fs == ENABLE)
 80014ae:	2801      	cmp	r0, #1
 80014b0:	d006      	beq.n	80014c0 <BSP_IRQ+0x14>
    HAL_NVIC_DisableIRQ(L6470_nBUSY_SYNC_IRQn);
 80014b2:	2006      	movs	r0, #6
 80014b4:	f000 f9ec 	bl	8001890 <HAL_NVIC_DisableIRQ>
    HAL_NVIC_DisableIRQ(L6470_nFLAG_IRQn);
 80014b8:	2007      	movs	r0, #7
 80014ba:	f000 f9e9 	bl	8001890 <HAL_NVIC_DisableIRQ>
}
 80014be:	bd08      	pop	{r3, pc}
    HAL_NVIC_EnableIRQ(L6470_nBUSY_SYNC_IRQn);
 80014c0:	2006      	movs	r0, #6
 80014c2:	f000 f9d9 	bl	8001878 <HAL_NVIC_EnableIRQ>
    HAL_NVIC_EnableIRQ(L6470_nFLAG_IRQn);
 80014c6:	2007      	movs	r0, #7
 80014c8:	f000 f9d6 	bl	8001878 <HAL_NVIC_EnableIRQ>
 80014cc:	e7f7      	b.n	80014be <BSP_IRQ+0x12>

080014ce <EXPBRD_ID>:
}
 80014ce:	2800      	cmp	r0, #0
 80014d0:	bf14      	ite	ne
 80014d2:	20ff      	movne	r0, #255	; 0xff
 80014d4:	2000      	moveq	r0, #0
 80014d6:	4770      	bx	lr

080014d8 <BSP_Init>:
{
 80014d8:	b508      	push	{r3, lr}
  BSP_Select(EXPBRD_ID(0));
 80014da:	2000      	movs	r0, #0
 80014dc:	f7ff fe22 	bl	8001124 <BSP_Select>
  BSP_NUCLEO_GPIO_Init();
 80014e0:	f7ff ff54 	bl	800138c <BSP_NUCLEO_GPIO_Init>
  BSP_L6470_Init();
 80014e4:	f7ff ffae 	bl	8001444 <BSP_L6470_Init>
  BSP_IRQ(ENABLE);
 80014e8:	2001      	movs	r0, #1
 80014ea:	f7ff ffdf 	bl	80014ac <BSP_IRQ>
}
 80014ee:	bd08      	pop	{r3, pc}

080014f0 <BSP_L6470_BusySynchEventManager>:
 80014f0:	bf00      	nop
}
 80014f2:	4770      	bx	lr

080014f4 <BSP_L6470_FlagEventManager>:
 80014f4:	bf00      	nop
}
 80014f6:	4770      	bx	lr

080014f8 <BSP_EmergencyStop>:
{
 80014f8:	b508      	push	{r3, lr}
  L6470_DISABLE();
 80014fa:	4b04      	ldr	r3, [pc, #16]	; (800150c <BSP_EmergencyStop+0x14>)
 80014fc:	2200      	movs	r2, #0
 80014fe:	f8b3 11f4 	ldrh.w	r1, [r3, #500]	; 0x1f4
 8001502:	f8d3 01f0 	ldr.w	r0, [r3, #496]	; 0x1f0
 8001506:	f000 fafd 	bl	8001b04 <HAL_GPIO_WritePin>
  while(1);
 800150a:	e7fe      	b.n	800150a <BSP_EmergencyStop+0x12>
 800150c:	200000a4 	.word	0x200000a4

08001510 <BSP_GetExpansionBoardHandle>:
 * @param id Identifier inside the daisy chain
 * @retval Pointer to the StepperMotorDriverHandle_t structure
 */
StepperMotorBoardHandle_t *BSP_GetExpansionBoardHandle(uint8_t id)
{
  if (id == EXPBRD_ID(0))
 8001510:	b120      	cbz	r0, 800151c <BSP_GetExpansionBoardHandle+0xc>
    return (&XNUCLEOIHM02A1Drv[0]);
  if (id == EXPBRD_ID(1))
 8001512:	28ff      	cmp	r0, #255	; 0xff
  if (id == EXPBRD_ID(2))
    return (&XNUCLEOIHM02A1Drv[2]);
  if (id == EXPBRD_ID(3))
    return (&XNUCLEOIHM02A1Drv[3]);
  
  return 0;
 8001514:	4802      	ldr	r0, [pc, #8]	; (8001520 <BSP_GetExpansionBoardHandle+0x10>)
 8001516:	bf18      	it	ne
 8001518:	2000      	movne	r0, #0
 800151a:	4770      	bx	lr
    return (&XNUCLEOIHM02A1Drv[0]);
 800151c:	4801      	ldr	r0, [pc, #4]	; (8001524 <BSP_GetExpansionBoardHandle+0x14>)
}
 800151e:	4770      	bx	lr
 8001520:	200002cc 	.word	0x200002cc
 8001524:	200002b4 	.word	0x200002b4

08001528 <BSP_Config>:
  * @brief  Configures each L6470 mounted on the X-NUCLEO-IHM02A1.
  * @param  StepperMotorBoardHandle_t* The pointer to the stepper motor board handle structure.
  * @param  MotorParameterData_t* The pointer to the parameter data structure.
  */
void BSP_Config(StepperMotorBoardHandle_t *StepperMotorBoardHandle, MotorParameterData_t *MotorParameterData)
{
 8001528:	b538      	push	{r3, r4, r5, lr}
 800152a:	4604      	mov	r4, r0
 800152c:	460d      	mov	r5, r1
  StepperMotorBoardHandle->Select(StepperMotorBoardHandle->StackedPosition);
 800152e:	6943      	ldr	r3, [r0, #20]
 8001530:	7800      	ldrb	r0, [r0, #0]
 8001532:	4798      	blx	r3
  
  StepperMotorBoardHandle->StepperMotorDriverHandle[0]->Config(MotorParameterData+0);
 8001534:	68e3      	ldr	r3, [r4, #12]
 8001536:	685b      	ldr	r3, [r3, #4]
 8001538:	4628      	mov	r0, r5
 800153a:	4798      	blx	r3
  StepperMotorBoardHandle->StepperMotorDriverHandle[1]->Config(MotorParameterData+1);
 800153c:	6923      	ldr	r3, [r4, #16]
 800153e:	685b      	ldr	r3, [r3, #4]
 8001540:	f105 0058 	add.w	r0, r5, #88	; 0x58
 8001544:	4798      	blx	r3
}
 8001546:	bd38      	pop	{r3, r4, r5, pc}

08001548 <BSP_0_Config>:
{
 8001548:	b508      	push	{r3, lr}
 800154a:	4601      	mov	r1, r0
  BSP_Config(StepperMotorBoardHandle, MotorParameterData);
 800154c:	4801      	ldr	r0, [pc, #4]	; (8001554 <BSP_0_Config+0xc>)
 800154e:	f7ff ffeb 	bl	8001528 <BSP_Config>
}
 8001552:	bd08      	pop	{r3, pc}
 8001554:	200002b4 	.word	0x200002b4

08001558 <BSP_1_Config>:
{
 8001558:	b508      	push	{r3, lr}
 800155a:	4601      	mov	r1, r0
  BSP_Config(StepperMotorBoardHandle, MotorParameterData);
 800155c:	4801      	ldr	r0, [pc, #4]	; (8001564 <BSP_1_Config+0xc>)
 800155e:	f7ff ffe3 	bl	8001528 <BSP_Config>
}
 8001562:	bd08      	pop	{r3, pc}
 8001564:	200002cc 	.word	0x200002cc

08001568 <BSP_2_Config>:
{
 8001568:	b508      	push	{r3, lr}
 800156a:	4601      	mov	r1, r0
  BSP_Config(StepperMotorBoardHandle, MotorParameterData);
 800156c:	4801      	ldr	r0, [pc, #4]	; (8001574 <BSP_2_Config+0xc>)
 800156e:	f7ff ffdb 	bl	8001528 <BSP_Config>
}
 8001572:	bd08      	pop	{r3, pc}
 8001574:	200002e4 	.word	0x200002e4

08001578 <BSP_3_Config>:
{
 8001578:	b508      	push	{r3, lr}
 800157a:	4601      	mov	r1, r0
  BSP_Config(StepperMotorBoardHandle, MotorParameterData);
 800157c:	4801      	ldr	r0, [pc, #4]	; (8001584 <BSP_3_Config+0xc>)
 800157e:	f7ff ffd3 	bl	8001528 <BSP_Config>
}
 8001582:	bd08      	pop	{r3, pc}
 8001584:	200002fc 	.word	0x200002fc

08001588 <SystemClock_Config>:
  *         - APB2 Timer Clocks: 64 MHz
  *
  *
  */
void SystemClock_Config(void)
{
 8001588:	b530      	push	{r4, r5, lr}
 800158a:	b09f      	sub	sp, #124	; 0x7c

  RCC_OscInitTypeDef RCC_OscInitStruct;
  RCC_ClkInitTypeDef RCC_ClkInitStruct;
  RCC_PeriphCLKInitTypeDef PeriphClkInit;

  RCC_OscInitStruct.OscillatorType = RCC_OSCILLATORTYPE_HSI;
 800158c:	2402      	movs	r4, #2
 800158e:	9414      	str	r4, [sp, #80]	; 0x50
  RCC_OscInitStruct.HSIState = RCC_HSI_ON;
 8001590:	2301      	movs	r3, #1
 8001592:	9318      	str	r3, [sp, #96]	; 0x60
  RCC_OscInitStruct.HSICalibrationValue = 16;
 8001594:	2310      	movs	r3, #16
 8001596:	9319      	str	r3, [sp, #100]	; 0x64
  RCC_OscInitStruct.PLL.PLLState = RCC_PLL_ON;
 8001598:	941b      	str	r4, [sp, #108]	; 0x6c
  RCC_OscInitStruct.PLL.PLLSource = RCC_PLLSOURCE_HSI;
 800159a:	2500      	movs	r5, #0
 800159c:	951c      	str	r5, [sp, #112]	; 0x70
  RCC_OscInitStruct.PLL.PLLMUL = RCC_PLL_MUL16;
 800159e:	f44f 1360 	mov.w	r3, #3670016	; 0x380000
 80015a2:	931d      	str	r3, [sp, #116]	; 0x74
  HAL_RCC_OscConfig(&RCC_OscInitStruct);
 80015a4:	a814      	add	r0, sp, #80	; 0x50
 80015a6:	f000 fe9d 	bl	80022e4 <HAL_RCC_OscConfig>

  RCC_ClkInitStruct.ClockType = RCC_CLOCKTYPE_SYSCLK|RCC_CLOCKTYPE_PCLK1;
 80015aa:	2305      	movs	r3, #5
 80015ac:	930f      	str	r3, [sp, #60]	; 0x3c
  RCC_ClkInitStruct.SYSCLKSource = RCC_SYSCLKSOURCE_PLLCLK;
 80015ae:	9410      	str	r4, [sp, #64]	; 0x40
  RCC_ClkInitStruct.AHBCLKDivider = RCC_SYSCLK_DIV1;
 80015b0:	9511      	str	r5, [sp, #68]	; 0x44
  RCC_ClkInitStruct.APB1CLKDivider = RCC_HCLK_DIV2;
 80015b2:	f44f 6380 	mov.w	r3, #1024	; 0x400
 80015b6:	9312      	str	r3, [sp, #72]	; 0x48
  RCC_ClkInitStruct.APB2CLKDivider = RCC_HCLK_DIV1;
 80015b8:	9513      	str	r5, [sp, #76]	; 0x4c
  HAL_RCC_ClockConfig(&RCC_ClkInitStruct, FLASH_LATENCY_2);
 80015ba:	4621      	mov	r1, r4
 80015bc:	a80f      	add	r0, sp, #60	; 0x3c
 80015be:	f000 fac9 	bl	8001b54 <HAL_RCC_ClockConfig>

  PeriphClkInit.PeriphClockSelection = RCC_PERIPHCLK_USART2;
 80015c2:	9400      	str	r4, [sp, #0]
  PeriphClkInit.Usart2ClockSelection = RCC_USART2CLKSOURCE_PCLK1;
 80015c4:	9503      	str	r5, [sp, #12]
  HAL_RCCEx_PeriphCLKConfig(&PeriphClkInit);
 80015c6:	4668      	mov	r0, sp
 80015c8:	f000 fcea 	bl	8001fa0 <HAL_RCCEx_PeriphCLKConfig>

  __SYSCFG_CLK_ENABLE();
 80015cc:	4a03      	ldr	r2, [pc, #12]	; (80015dc <SystemClock_Config+0x54>)
 80015ce:	6993      	ldr	r3, [r2, #24]
 80015d0:	f043 0301 	orr.w	r3, r3, #1
 80015d4:	6193      	str	r3, [r2, #24]

}
 80015d6:	b01f      	add	sp, #124	; 0x7c
 80015d8:	bd30      	pop	{r4, r5, pc}
 80015da:	bf00      	nop
 80015dc:	40021000 	.word	0x40021000

080015e0 <MX_GPIO_Init>:

/**
  * @brief  This function initializes the GPIO MX.
  */
void MX_GPIO_Init(void)
{
 80015e0:	b508      	push	{r3, lr}
#ifdef NUCLEO_USE_USER_BUTTON
  /* Configures Button GPIO and EXTI Line */
  BSP_PB_Init(BUTTON_USER, BUTTON_MODE_EXTI);
 80015e2:	2101      	movs	r1, #1
 80015e4:	2000      	movs	r0, #0
 80015e6:	f7ff fd5b 	bl	80010a0 <BSP_PB_Init>

#ifdef NUCLEO_USE_USER_LED
  /* Configures LED GPIO */
  BSP_LED_Init(LED2);
#endif
}
 80015ea:	bd08      	pop	{r3, pc}

080015ec <MX_SPI2_Init>:
  *         - CPOL High
  *         - CPHA 2nd Edge
  *         - Baud Rate lower than 5 MBits/s
  */
void MX_SPI2_Init(void)
{
 80015ec:	b508      	push	{r3, lr}
  #define MAX_BAUDRATE  5000000
  uint32_t freq;
  uint16_t freq_div;
  uint32_t spi_baudrateprescaler;
  
  hspi2.Instance = SPI2;
 80015ee:	4b21      	ldr	r3, [pc, #132]	; (8001674 <MX_SPI2_Init+0x88>)
 80015f0:	4a21      	ldr	r2, [pc, #132]	; (8001678 <MX_SPI2_Init+0x8c>)
 80015f2:	601a      	str	r2, [r3, #0]
  hspi2.Init.Mode = SPI_MODE_MASTER;
 80015f4:	f44f 7282 	mov.w	r2, #260	; 0x104
 80015f8:	605a      	str	r2, [r3, #4]
  hspi2.Init.Direction = SPI_DIRECTION_2LINES;
 80015fa:	2200      	movs	r2, #0
 80015fc:	609a      	str	r2, [r3, #8]
  hspi2.Init.DataSize = SPI_DATASIZE_8BIT;
 80015fe:	f44f 61e0 	mov.w	r1, #1792	; 0x700
 8001602:	60d9      	str	r1, [r3, #12]
  hspi2.Init.CLKPolarity = SPI_POLARITY_HIGH;
 8001604:	2102      	movs	r1, #2
 8001606:	6119      	str	r1, [r3, #16]
  hspi2.Init.CLKPhase = SPI_PHASE_2EDGE;
 8001608:	2101      	movs	r1, #1
 800160a:	6159      	str	r1, [r3, #20]
  hspi2.Init.NSS = SPI_NSS_SOFT;
 800160c:	f44f 7100 	mov.w	r1, #512	; 0x200
 8001610:	6199      	str	r1, [r3, #24]
  hspi2.Init.FirstBit = SPI_FIRSTBIT_MSB;
 8001612:	621a      	str	r2, [r3, #32]
  hspi2.Init.TIMode = SPI_TIMODE_DISABLED;
 8001614:	625a      	str	r2, [r3, #36]	; 0x24
  hspi2.Init.CRCCalculation = SPI_CRCCALCULATION_DISABLED;
 8001616:	629a      	str	r2, [r3, #40]	; 0x28
  hspi2.Init.NSSPMode = SPI_NSS_PULSE_DISABLED;
 8001618:	635a      	str	r2, [r3, #52]	; 0x34
  
  freq = HAL_RCC_GetPCLK1Freq();
 800161a:	f000 fc95 	bl	8001f48 <HAL_RCC_GetPCLK1Freq>
  freq_div = (freq / MAX_BAUDRATE);
 800161e:	4b17      	ldr	r3, [pc, #92]	; (800167c <MX_SPI2_Init+0x90>)
 8001620:	fba3 2300 	umull	r2, r3, r3, r0
  
  if (freq_div < 2)
 8001624:	f5b3 0f80 	cmp.w	r3, #4194304	; 0x400000
 8001628:	d30f      	bcc.n	800164a <MX_SPI2_Init+0x5e>
 800162a:	0d5a      	lsrs	r2, r3, #21
  {
    spi_baudrateprescaler = SPI_BAUDRATEPRESCALER_2;
  }
  else
  {
    if (freq_div < 4)
 800162c:	2a03      	cmp	r2, #3
 800162e:	d90e      	bls.n	800164e <MX_SPI2_Init+0x62>
    {
      spi_baudrateprescaler = SPI_BAUDRATEPRESCALER_4;
    }
    else
    {
      if (freq_div < 8)
 8001630:	2a07      	cmp	r2, #7
 8001632:	d912      	bls.n	800165a <MX_SPI2_Init+0x6e>
      {
        spi_baudrateprescaler = SPI_BAUDRATEPRESCALER_8;
      }
      else
      {
        if (freq_div < 16)
 8001634:	2a0f      	cmp	r2, #15
 8001636:	d912      	bls.n	800165e <MX_SPI2_Init+0x72>
        {
          spi_baudrateprescaler = SPI_BAUDRATEPRESCALER_16;
        }
        else
        {
          if (freq_div < 32)
 8001638:	2a1f      	cmp	r2, #31
 800163a:	d912      	bls.n	8001662 <MX_SPI2_Init+0x76>
          {
            spi_baudrateprescaler = SPI_BAUDRATEPRESCALER_32;
          }
          else
          {
            if (freq_div < 64)
 800163c:	2a3f      	cmp	r2, #63	; 0x3f
 800163e:	d912      	bls.n	8001666 <MX_SPI2_Init+0x7a>
            {
              spi_baudrateprescaler = SPI_BAUDRATEPRESCALER_64;
            }
            else
            {
              if (freq_div < 128)
 8001640:	2a7f      	cmp	r2, #127	; 0x7f
 8001642:	d912      	bls.n	800166a <MX_SPI2_Init+0x7e>
              {
                spi_baudrateprescaler = SPI_BAUDRATEPRESCALER_128;
              }
              else
              {
                if (freq_div < 256)
 8001644:	2aff      	cmp	r2, #255	; 0xff
 8001646:	d912      	bls.n	800166e <MX_SPI2_Init+0x82>
                  spi_baudrateprescaler = SPI_BAUDRATEPRESCALER_256;
                }
                else
                {
                  /* the condition is not possible, you should reduce the CPU frequency */
                  while(1);
 8001648:	e7fe      	b.n	8001648 <MX_SPI2_Init+0x5c>
    spi_baudrateprescaler = SPI_BAUDRATEPRESCALER_2;
 800164a:	2300      	movs	r3, #0
 800164c:	e000      	b.n	8001650 <MX_SPI2_Init+0x64>
      spi_baudrateprescaler = SPI_BAUDRATEPRESCALER_4;
 800164e:	2308      	movs	r3, #8
        }
      }
    }
  }
  
  hspi2.Init.BaudRatePrescaler = spi_baudrateprescaler; // the baudrate will be lower than MAX_BAUDRATE (5 MBits/s)
 8001650:	4808      	ldr	r0, [pc, #32]	; (8001674 <MX_SPI2_Init+0x88>)
 8001652:	61c3      	str	r3, [r0, #28]
  HAL_SPI_Init(&hspi2);
 8001654:	f001 fa7a 	bl	8002b4c <HAL_SPI_Init>
}
 8001658:	bd08      	pop	{r3, pc}
        spi_baudrateprescaler = SPI_BAUDRATEPRESCALER_8;
 800165a:	2310      	movs	r3, #16
 800165c:	e7f8      	b.n	8001650 <MX_SPI2_Init+0x64>
          spi_baudrateprescaler = SPI_BAUDRATEPRESCALER_16;
 800165e:	2318      	movs	r3, #24
 8001660:	e7f6      	b.n	8001650 <MX_SPI2_Init+0x64>
            spi_baudrateprescaler = SPI_BAUDRATEPRESCALER_32;
 8001662:	2320      	movs	r3, #32
 8001664:	e7f4      	b.n	8001650 <MX_SPI2_Init+0x64>
              spi_baudrateprescaler = SPI_BAUDRATEPRESCALER_64;
 8001666:	2328      	movs	r3, #40	; 0x28
 8001668:	e7f2      	b.n	8001650 <MX_SPI2_Init+0x64>
                spi_baudrateprescaler = SPI_BAUDRATEPRESCALER_128;
 800166a:	2330      	movs	r3, #48	; 0x30
 800166c:	e7f0      	b.n	8001650 <MX_SPI2_Init+0x64>
                  spi_baudrateprescaler = SPI_BAUDRATEPRESCALER_256;
 800166e:	2338      	movs	r3, #56	; 0x38
 8001670:	e7ee      	b.n	8001650 <MX_SPI2_Init+0x64>
 8001672:	bf00      	nop
 8001674:	200003f4 	.word	0x200003f4
 8001678:	40003800 	.word	0x40003800
 800167c:	6b5fca6b 	.word	0x6b5fca6b

08001680 <MX_USART2_Init>:
  *         - Stop Bit:   1
  *         - Parity:     None
  *         - Mode:       TX/RX
  */
void MX_USART2_Init(void)
{
 8001680:	b508      	push	{r3, lr}
  huart2.Instance = USART2;
 8001682:	4809      	ldr	r0, [pc, #36]	; (80016a8 <MX_USART2_Init+0x28>)
 8001684:	4b09      	ldr	r3, [pc, #36]	; (80016ac <MX_USART2_Init+0x2c>)
 8001686:	6003      	str	r3, [r0, #0]
  huart2.Init.BaudRate = 115200;
 8001688:	f44f 33e1 	mov.w	r3, #115200	; 0x1c200
 800168c:	6043      	str	r3, [r0, #4]
  huart2.Init.WordLength = UART_WORDLENGTH_8B;
 800168e:	2300      	movs	r3, #0
 8001690:	6083      	str	r3, [r0, #8]
  huart2.Init.StopBits = UART_STOPBITS_1;
 8001692:	60c3      	str	r3, [r0, #12]
  huart2.Init.Parity = UART_PARITY_NONE;
 8001694:	6103      	str	r3, [r0, #16]
  huart2.Init.Mode = UART_MODE_TX_RX;
 8001696:	220c      	movs	r2, #12
 8001698:	6142      	str	r2, [r0, #20]
  huart2.Init.HwFlowCtl = UART_HWCONTROL_NONE;
 800169a:	6183      	str	r3, [r0, #24]
  huart2.Init.OverSampling = UART_OVERSAMPLING_16;
 800169c:	61c3      	str	r3, [r0, #28]
  huart2.Init.OneBitSampling = UART_ONEBIT_SAMPLING_DISABLED ;
 800169e:	6203      	str	r3, [r0, #32]
  huart2.AdvancedInit.AdvFeatureInit = UART_ADVFEATURE_NO_INIT;
 80016a0:	6243      	str	r3, [r0, #36]	; 0x24
  HAL_UART_Init(&huart2);
 80016a2:	f002 f92d 	bl	8003900 <HAL_UART_Init>
}
 80016a6:	bd08      	pop	{r3, pc}
 80016a8:	200004c8 	.word	0x200004c8
 80016ac:	40004400 	.word	0x40004400

080016b0 <NUCLEO_Board_Init>:
/**
  * @brief  This function initializes some peripherals of the NUCELO board
  *         (HAL, Clock, NVIC, LED and user button)
  */
void NUCLEO_Board_Init(void)
{
 80016b0:	b508      	push	{r3, lr}
  /* MCU Configuration----------------------------------------------------------*/

  /* Reset of all peripherals, Initializes the Flash interface and the Systick. */
  HAL_Init();
 80016b2:	f000 f851 	bl	8001758 <HAL_Init>

  /* Configure the system clock */
  SystemClock_Config();
 80016b6:	f7ff ff67 	bl	8001588 <SystemClock_Config>

  /* Initialize all configured peripherals */
  MX_GPIO_Init();
 80016ba:	f7ff ff91 	bl	80015e0 <MX_GPIO_Init>
  
  /* Initialize the SPI used by the X-NUCLEO-IHM02A1 */
  MX_SPI2_Init();
 80016be:	f7ff ff95 	bl	80015ec <MX_SPI2_Init>
  
#ifdef NUCLEO_USE_USART
  /* Initialize the USART peripheral */
  MX_USART2_Init();
 80016c2:	f7ff ffdd 	bl	8001680 <MX_USART2_Init>

#ifdef NUCLEO_USE_USER_LED
  /* Perform 3 repetition of blinking user LED at 50% duty cycle with 250 ms as period */
  User_LED_Blinking(3, 750);
#endif
}
 80016c6:	bd08      	pop	{r3, pc}

080016c8 <SystemInit>:
  */
void SystemInit(void)
{
  /* FPU settings ------------------------------------------------------------*/
  #if (__FPU_PRESENT == 1) && (__FPU_USED == 1)
    SCB->CPACR |= ((3UL << 10*2)|(3UL << 11*2));  /* set CP10 and CP11 Full Access */
 80016c8:	4915      	ldr	r1, [pc, #84]	; (8001720 <SystemInit+0x58>)
 80016ca:	f8d1 3088 	ldr.w	r3, [r1, #136]	; 0x88
 80016ce:	f443 0370 	orr.w	r3, r3, #15728640	; 0xf00000
 80016d2:	f8c1 3088 	str.w	r3, [r1, #136]	; 0x88
  #endif

  /* Reset the RCC clock configuration to the default reset state ------------*/
  /* Set HSION bit */
  RCC->CR |= (uint32_t)0x00000001;
 80016d6:	4b13      	ldr	r3, [pc, #76]	; (8001724 <SystemInit+0x5c>)
 80016d8:	681a      	ldr	r2, [r3, #0]
 80016da:	f042 0201 	orr.w	r2, r2, #1
 80016de:	601a      	str	r2, [r3, #0]

  /* Reset CFGR register */
  RCC->CFGR &= 0xF87FC00C;
 80016e0:	6858      	ldr	r0, [r3, #4]
 80016e2:	4a11      	ldr	r2, [pc, #68]	; (8001728 <SystemInit+0x60>)
 80016e4:	4002      	ands	r2, r0
 80016e6:	605a      	str	r2, [r3, #4]

  /* Reset HSEON, CSSON and PLLON bits */
  RCC->CR &= (uint32_t)0xFEF6FFFF;
 80016e8:	681a      	ldr	r2, [r3, #0]
 80016ea:	f022 7284 	bic.w	r2, r2, #17301504	; 0x1080000
 80016ee:	f422 3280 	bic.w	r2, r2, #65536	; 0x10000
 80016f2:	601a      	str	r2, [r3, #0]

  /* Reset HSEBYP bit */
  RCC->CR &= (uint32_t)0xFFFBFFFF;
 80016f4:	681a      	ldr	r2, [r3, #0]
 80016f6:	f422 2280 	bic.w	r2, r2, #262144	; 0x40000
 80016fa:	601a      	str	r2, [r3, #0]

  /* Reset PLLSRC, PLLXTPRE, PLLMUL and USBPRE bits */
  RCC->CFGR &= (uint32_t)0xFF80FFFF;
 80016fc:	685a      	ldr	r2, [r3, #4]
 80016fe:	f422 02fe 	bic.w	r2, r2, #8323072	; 0x7f0000
 8001702:	605a      	str	r2, [r3, #4]

  /* Reset PREDIV1[3:0] bits */
  RCC->CFGR2 &= (uint32_t)0xFFFFFFF0;
 8001704:	6ada      	ldr	r2, [r3, #44]	; 0x2c
 8001706:	f022 020f 	bic.w	r2, r2, #15
 800170a:	62da      	str	r2, [r3, #44]	; 0x2c

  /* Reset USARTSW[1:0], I2CSW and TIMs bits */
  RCC->CFGR3 &= (uint32_t)0xFF00FCCC;
 800170c:	6b18      	ldr	r0, [r3, #48]	; 0x30
 800170e:	4a07      	ldr	r2, [pc, #28]	; (800172c <SystemInit+0x64>)
 8001710:	4002      	ands	r2, r0
 8001712:	631a      	str	r2, [r3, #48]	; 0x30

  /* Disable all interrupts */
  RCC->CIR = 0x00000000;
 8001714:	2200      	movs	r2, #0
 8001716:	609a      	str	r2, [r3, #8]

#ifdef VECT_TAB_SRAM
  SCB->VTOR = SRAM_BASE | VECT_TAB_OFFSET; /* Vector Table Relocation in Internal SRAM */
#else
  SCB->VTOR = FLASH_BASE | VECT_TAB_OFFSET; /* Vector Table Relocation in Internal FLASH */
 8001718:	f04f 6300 	mov.w	r3, #134217728	; 0x8000000
 800171c:	608b      	str	r3, [r1, #8]
#endif
}
 800171e:	4770      	bx	lr
 8001720:	e000ed00 	.word	0xe000ed00
 8001724:	40021000 	.word	0x40021000
 8001728:	f87fc00c 	.word	0xf87fc00c
 800172c:	ff00fccc 	.word	0xff00fccc

08001730 <HAL_InitTick>:
  * @param  TickPriority: Tick interrupt priorty.
  * @retval HAL status
  */
__weak HAL_StatusTypeDef HAL_InitTick(uint32_t TickPriority)

{
 8001730:	b510      	push	{r4, lr}
 8001732:	4604      	mov	r4, r0
  /*Configure the SysTick to have interrupt in 1ms time basis*/
  HAL_SYSTICK_Config(HAL_RCC_GetHCLKFreq()/1000);
 8001734:	f000 fbee 	bl	8001f14 <HAL_RCC_GetHCLKFreq>
 8001738:	4b06      	ldr	r3, [pc, #24]	; (8001754 <HAL_InitTick+0x24>)
 800173a:	fba3 3000 	umull	r3, r0, r3, r0
 800173e:	0980      	lsrs	r0, r0, #6
 8001740:	f000 f8b4 	bl	80018ac <HAL_SYSTICK_Config>
 
  /*Configure the SysTick IRQ priority */
  HAL_NVIC_SetPriority(SysTick_IRQn, TickPriority ,0);
 8001744:	2200      	movs	r2, #0
 8001746:	4621      	mov	r1, r4
 8001748:	f04f 30ff 	mov.w	r0, #4294967295
 800174c:	f000 f850 	bl	80017f0 <HAL_NVIC_SetPriority>

   /* Return function status */
  return HAL_OK;
}
 8001750:	2000      	movs	r0, #0
 8001752:	bd10      	pop	{r4, pc}
 8001754:	10624dd3 	.word	0x10624dd3

08001758 <HAL_Init>:
{
 8001758:	b508      	push	{r3, lr}
  __HAL_FLASH_PREFETCH_BUFFER_ENABLE();
 800175a:	4a07      	ldr	r2, [pc, #28]	; (8001778 <HAL_Init+0x20>)
 800175c:	6813      	ldr	r3, [r2, #0]
 800175e:	f043 0310 	orr.w	r3, r3, #16
 8001762:	6013      	str	r3, [r2, #0]
  HAL_NVIC_SetPriorityGrouping(NVIC_PRIORITYGROUP_4);
 8001764:	2003      	movs	r0, #3
 8001766:	f000 f825 	bl	80017b4 <HAL_NVIC_SetPriorityGrouping>
  HAL_InitTick(TICK_INT_PRIORITY);
 800176a:	2000      	movs	r0, #0
 800176c:	f7ff ffe0 	bl	8001730 <HAL_InitTick>
  HAL_MspInit();
 8001770:	f002 fc2a 	bl	8003fc8 <HAL_MspInit>
}
 8001774:	2000      	movs	r0, #0
 8001776:	bd08      	pop	{r3, pc}
 8001778:	40022000 	.word	0x40022000

0800177c <HAL_IncTick>:
  *         implementations  in user file.
  * @retval None
  */
__weak void HAL_IncTick(void)
{
  uwTick++;
 800177c:	4a02      	ldr	r2, [pc, #8]	; (8001788 <HAL_IncTick+0xc>)
 800177e:	6813      	ldr	r3, [r2, #0]
 8001780:	3301      	adds	r3, #1
 8001782:	6013      	str	r3, [r2, #0]
}
 8001784:	4770      	bx	lr
 8001786:	bf00      	nop
 8001788:	20000398 	.word	0x20000398

0800178c <HAL_GetTick>:
  *         implementations  in user file.
  * @retval tick value
  */
__weak uint32_t HAL_GetTick(void)
{
  return uwTick;  
 800178c:	4b01      	ldr	r3, [pc, #4]	; (8001794 <HAL_GetTick+0x8>)
 800178e:	6818      	ldr	r0, [r3, #0]
}
 8001790:	4770      	bx	lr
 8001792:	bf00      	nop
 8001794:	20000398 	.word	0x20000398

08001798 <HAL_Delay>:
  *         implementations  in user file.
  * @param  Delay: specifies the delay time length, in milliseconds.
  * @retval None
  */
__weak void HAL_Delay(__IO uint32_t Delay)
{
 8001798:	b510      	push	{r4, lr}
 800179a:	b082      	sub	sp, #8
 800179c:	9001      	str	r0, [sp, #4]
  uint32_t tickstart = HAL_GetTick();
 800179e:	f7ff fff5 	bl	800178c <HAL_GetTick>
 80017a2:	4604      	mov	r4, r0
  while((HAL_GetTick() - tickstart) < Delay)
 80017a4:	f7ff fff2 	bl	800178c <HAL_GetTick>
 80017a8:	9b01      	ldr	r3, [sp, #4]
 80017aa:	1b00      	subs	r0, r0, r4
 80017ac:	4298      	cmp	r0, r3
 80017ae:	d3f9      	bcc.n	80017a4 <HAL_Delay+0xc>
  {
  }
}
 80017b0:	b002      	add	sp, #8
 80017b2:	bd10      	pop	{r4, pc}

080017b4 <HAL_NVIC_SetPriorityGrouping>:
  * @note   When the NVIC_PriorityGroup_0 is selected, IRQ pre-emption is no more possible.
  *         The pending IRQ priority will be managed only by the subpriority.
  * @retval None
  */
void HAL_NVIC_SetPriorityGrouping(uint32_t PriorityGroup)
{
 80017b4:	b510      	push	{r4, lr}
 80017b6:	4604      	mov	r4, r0
  /* Check the parameters */
  assert_param(IS_NVIC_PRIORITY_GROUP(PriorityGroup));
 80017b8:	1ec3      	subs	r3, r0, #3
 80017ba:	2b04      	cmp	r3, #4
 80017bc:	d80e      	bhi.n	80017dc <HAL_NVIC_SetPriorityGrouping+0x28>
__STATIC_INLINE void NVIC_SetPriorityGrouping(uint32_t PriorityGroup)
{
  uint32_t reg_value;
  uint32_t PriorityGroupTmp = (PriorityGroup & (uint32_t)0x07UL);             /* only values 0..7 are used          */

  reg_value  =  SCB->AIRCR;                                                   /* read old register configuration    */
 80017be:	490a      	ldr	r1, [pc, #40]	; (80017e8 <HAL_NVIC_SetPriorityGrouping+0x34>)
 80017c0:	68ca      	ldr	r2, [r1, #12]
  reg_value &= ~((uint32_t)(SCB_AIRCR_VECTKEY_Msk | SCB_AIRCR_PRIGROUP_Msk));             /* clear bits to change               */
  reg_value  =  (reg_value                                   |
                ((uint32_t)0x5FAUL << SCB_AIRCR_VECTKEY_Pos) |
                (PriorityGroupTmp << 8)                       );              /* Insert write key and priorty group */
 80017c2:	0223      	lsls	r3, r4, #8
 80017c4:	f403 63e0 	and.w	r3, r3, #1792	; 0x700
  reg_value &= ~((uint32_t)(SCB_AIRCR_VECTKEY_Msk | SCB_AIRCR_PRIGROUP_Msk));             /* clear bits to change               */
 80017c8:	f64f 04ff 	movw	r4, #63743	; 0xf8ff
 80017cc:	4014      	ands	r4, r2
                ((uint32_t)0x5FAUL << SCB_AIRCR_VECTKEY_Pos) |
 80017ce:	4323      	orrs	r3, r4
  reg_value  =  (reg_value                                   |
 80017d0:	f043 63bf 	orr.w	r3, r3, #100139008	; 0x5f80000
 80017d4:	f443 3300 	orr.w	r3, r3, #131072	; 0x20000
  SCB->AIRCR =  reg_value;
 80017d8:	60cb      	str	r3, [r1, #12]

  /* Set the PRIGROUP[10:8] bits according to the PriorityGroup parameter value */
  NVIC_SetPriorityGrouping(PriorityGroup);
}
 80017da:	bd10      	pop	{r4, pc}
  assert_param(IS_NVIC_PRIORITY_GROUP(PriorityGroup));
 80017dc:	21bc      	movs	r1, #188	; 0xbc
 80017de:	4803      	ldr	r0, [pc, #12]	; (80017ec <HAL_NVIC_SetPriorityGrouping+0x38>)
 80017e0:	f002 fbec 	bl	8003fbc <assert_failed>
 80017e4:	e7eb      	b.n	80017be <HAL_NVIC_SetPriorityGrouping+0xa>
 80017e6:	bf00      	nop
 80017e8:	e000ed00 	.word	0xe000ed00
 80017ec:	0800473c 	.word	0x0800473c

080017f0 <HAL_NVIC_SetPriority>:
  *         This parameter can be a value between 0 and 15 as described in the table CORTEX_NVIC_Priority_Table
  *         A lower priority value indicates a higher priority.
  * @retval None
  */
void HAL_NVIC_SetPriority(IRQn_Type IRQn, uint32_t PreemptPriority, uint32_t SubPriority)
{
 80017f0:	b570      	push	{r4, r5, r6, lr}
 80017f2:	4605      	mov	r5, r0
 80017f4:	460c      	mov	r4, r1
 80017f6:	4616      	mov	r6, r2
  uint32_t prioritygroup = 0x00;
  
  /* Check the parameters */
  assert_param(IS_NVIC_SUB_PRIORITY(SubPriority));
 80017f8:	2a0f      	cmp	r2, #15
 80017fa:	d826      	bhi.n	800184a <HAL_NVIC_SetPriority+0x5a>
  assert_param(IS_NVIC_PREEMPTION_PRIORITY(PreemptPriority));
 80017fc:	2c0f      	cmp	r4, #15
 80017fe:	d829      	bhi.n	8001854 <HAL_NVIC_SetPriority+0x64>

    \return                Priority grouping field (SCB->AIRCR [10:8] PRIGROUP field).
 */
__STATIC_INLINE uint32_t NVIC_GetPriorityGrouping(void)
{
  return ((uint32_t)((SCB->AIRCR & SCB_AIRCR_PRIGROUP_Msk) >> SCB_AIRCR_PRIGROUP_Pos));
 8001800:	4b1a      	ldr	r3, [pc, #104]	; (800186c <HAL_NVIC_SetPriority+0x7c>)
 8001802:	68db      	ldr	r3, [r3, #12]
 8001804:	f3c3 2302 	ubfx	r3, r3, #8, #3
{
  uint32_t PriorityGroupTmp = (PriorityGroup & (uint32_t)0x07UL);   /* only values 0..7 are used          */
  uint32_t PreemptPriorityBits;
  uint32_t SubPriorityBits;

  PreemptPriorityBits = ((7UL - PriorityGroupTmp) > (uint32_t)(__NVIC_PRIO_BITS)) ? (uint32_t)(__NVIC_PRIO_BITS) : (uint32_t)(7UL - PriorityGroupTmp);
 8001808:	f1c3 0107 	rsb	r1, r3, #7
 800180c:	2904      	cmp	r1, #4
 800180e:	bf28      	it	cs
 8001810:	2104      	movcs	r1, #4
  SubPriorityBits     = ((PriorityGroupTmp + (uint32_t)(__NVIC_PRIO_BITS)) < (uint32_t)7UL) ? (uint32_t)0UL : (uint32_t)((PriorityGroupTmp - 7UL) + (uint32_t)(__NVIC_PRIO_BITS));
 8001812:	1d1a      	adds	r2, r3, #4
 8001814:	2a06      	cmp	r2, #6
 8001816:	bf8c      	ite	hi
 8001818:	3b03      	subhi	r3, #3
 800181a:	2300      	movls	r3, #0

  return (
           ((PreemptPriority & (uint32_t)((1UL << (PreemptPriorityBits)) - 1UL)) << SubPriorityBits) |
 800181c:	f04f 32ff 	mov.w	r2, #4294967295
 8001820:	fa02 f101 	lsl.w	r1, r2, r1
 8001824:	ea24 0401 	bic.w	r4, r4, r1
 8001828:	409c      	lsls	r4, r3
           ((SubPriority     & (uint32_t)((1UL << (SubPriorityBits    )) - 1UL)))
 800182a:	fa02 f303 	lsl.w	r3, r2, r3
 800182e:	ea26 0603 	bic.w	r6, r6, r3
           ((PreemptPriority & (uint32_t)((1UL << (PreemptPriorityBits)) - 1UL)) << SubPriorityBits) |
 8001832:	4334      	orrs	r4, r6
  if((int32_t)IRQn < 0) {
 8001834:	2d00      	cmp	r5, #0
 8001836:	db12      	blt.n	800185e <HAL_NVIC_SetPriority+0x6e>
    NVIC->IP[((uint32_t)(int32_t)IRQn)]               = (uint8_t)((priority << (8 - __NVIC_PRIO_BITS)) & (uint32_t)0xFFUL);
 8001838:	0124      	lsls	r4, r4, #4
 800183a:	b2e4      	uxtb	r4, r4
 800183c:	f105 4560 	add.w	r5, r5, #3758096384	; 0xe0000000
 8001840:	f505 4561 	add.w	r5, r5, #57600	; 0xe100
 8001844:	f885 4300 	strb.w	r4, [r5, #768]	; 0x300
  
  prioritygroup = NVIC_GetPriorityGrouping();
  
  NVIC_SetPriority(IRQn, NVIC_EncodePriority(prioritygroup, PreemptPriority, SubPriority));
}
 8001848:	bd70      	pop	{r4, r5, r6, pc}
  assert_param(IS_NVIC_SUB_PRIORITY(SubPriority));
 800184a:	21d4      	movs	r1, #212	; 0xd4
 800184c:	4808      	ldr	r0, [pc, #32]	; (8001870 <HAL_NVIC_SetPriority+0x80>)
 800184e:	f002 fbb5 	bl	8003fbc <assert_failed>
 8001852:	e7d3      	b.n	80017fc <HAL_NVIC_SetPriority+0xc>
  assert_param(IS_NVIC_PREEMPTION_PRIORITY(PreemptPriority));
 8001854:	21d5      	movs	r1, #213	; 0xd5
 8001856:	4806      	ldr	r0, [pc, #24]	; (8001870 <HAL_NVIC_SetPriority+0x80>)
 8001858:	f002 fbb0 	bl	8003fbc <assert_failed>
 800185c:	e7d0      	b.n	8001800 <HAL_NVIC_SetPriority+0x10>
    SCB->SHP[(((uint32_t)(int32_t)IRQn) & 0xFUL)-4UL] = (uint8_t)((priority << (8 - __NVIC_PRIO_BITS)) & (uint32_t)0xFFUL);
 800185e:	f005 050f 	and.w	r5, r5, #15
 8001862:	0124      	lsls	r4, r4, #4
 8001864:	b2e4      	uxtb	r4, r4
 8001866:	4b03      	ldr	r3, [pc, #12]	; (8001874 <HAL_NVIC_SetPriority+0x84>)
 8001868:	555c      	strb	r4, [r3, r5]
 800186a:	e7ed      	b.n	8001848 <HAL_NVIC_SetPriority+0x58>
 800186c:	e000ed00 	.word	0xe000ed00
 8001870:	0800473c 	.word	0x0800473c
 8001874:	e000ed14 	.word	0xe000ed14

08001878 <HAL_NVIC_EnableIRQ>:
  NVIC->ISER[(((uint32_t)(int32_t)IRQn) >> 5UL)] = (uint32_t)(1UL << (((uint32_t)(int32_t)IRQn) & 0x1FUL));
 8001878:	0942      	lsrs	r2, r0, #5
 800187a:	f000 001f 	and.w	r0, r0, #31
 800187e:	2301      	movs	r3, #1
 8001880:	fa03 f000 	lsl.w	r0, r3, r0
 8001884:	4b01      	ldr	r3, [pc, #4]	; (800188c <HAL_NVIC_EnableIRQ+0x14>)
 8001886:	f843 0022 	str.w	r0, [r3, r2, lsl #2]
  */
void HAL_NVIC_EnableIRQ(IRQn_Type IRQn)
{
  /* Enable interrupt */
  NVIC_EnableIRQ(IRQn);
}
 800188a:	4770      	bx	lr
 800188c:	e000e100 	.word	0xe000e100

08001890 <HAL_NVIC_DisableIRQ>:
  NVIC->ICER[(((uint32_t)(int32_t)IRQn) >> 5UL)] = (uint32_t)(1UL << (((uint32_t)(int32_t)IRQn) & 0x1FUL));
 8001890:	0943      	lsrs	r3, r0, #5
 8001892:	f000 001f 	and.w	r0, r0, #31
 8001896:	2201      	movs	r2, #1
 8001898:	fa02 f000 	lsl.w	r0, r2, r0
 800189c:	3320      	adds	r3, #32
 800189e:	4a02      	ldr	r2, [pc, #8]	; (80018a8 <HAL_NVIC_DisableIRQ+0x18>)
 80018a0:	f842 0023 	str.w	r0, [r2, r3, lsl #2]
  */
void HAL_NVIC_DisableIRQ(IRQn_Type IRQn)
{
  /* Disable interrupt */
  NVIC_DisableIRQ(IRQn);
}
 80018a4:	4770      	bx	lr
 80018a6:	bf00      	nop
 80018a8:	e000e100 	.word	0xe000e100

080018ac <HAL_SYSTICK_Config>:
    must contain a vendor-specific implementation of this function.

 */
__STATIC_INLINE uint32_t SysTick_Config(uint32_t ticks)
{
  if ((ticks - 1UL) > SysTick_LOAD_RELOAD_Msk) { return (1UL); }    /* Reload value impossible */
 80018ac:	3801      	subs	r0, #1
 80018ae:	f1b0 7f80 	cmp.w	r0, #16777216	; 0x1000000
 80018b2:	d20a      	bcs.n	80018ca <HAL_SYSTICK_Config+0x1e>

  SysTick->LOAD  = (uint32_t)(ticks - 1UL);                         /* set reload register */
 80018b4:	4b06      	ldr	r3, [pc, #24]	; (80018d0 <HAL_SYSTICK_Config+0x24>)
 80018b6:	6058      	str	r0, [r3, #4]
    SCB->SHP[(((uint32_t)(int32_t)IRQn) & 0xFUL)-4UL] = (uint8_t)((priority << (8 - __NVIC_PRIO_BITS)) & (uint32_t)0xFFUL);
 80018b8:	4a06      	ldr	r2, [pc, #24]	; (80018d4 <HAL_SYSTICK_Config+0x28>)
 80018ba:	21f0      	movs	r1, #240	; 0xf0
 80018bc:	f882 1023 	strb.w	r1, [r2, #35]	; 0x23
  NVIC_SetPriority (SysTick_IRQn, (1UL << __NVIC_PRIO_BITS) - 1UL); /* set Priority for Systick Interrupt */
  SysTick->VAL   = 0UL;                                             /* Load the SysTick Counter Value */
 80018c0:	2000      	movs	r0, #0
 80018c2:	6098      	str	r0, [r3, #8]
  SysTick->CTRL  = SysTick_CTRL_CLKSOURCE_Msk |
 80018c4:	2207      	movs	r2, #7
 80018c6:	601a      	str	r2, [r3, #0]
                   SysTick_CTRL_TICKINT_Msk   |
                   SysTick_CTRL_ENABLE_Msk;                         /* Enable SysTick IRQ and SysTick Timer */
  return (0UL);                                                     /* Function successful */
 80018c8:	4770      	bx	lr
  if ((ticks - 1UL) > SysTick_LOAD_RELOAD_Msk) { return (1UL); }    /* Reload value impossible */
 80018ca:	2001      	movs	r0, #1
  *                  - 1  Function failed.
  */
uint32_t HAL_SYSTICK_Config(uint32_t TicksNumb)
{
   return SysTick_Config(TicksNumb);
}
 80018cc:	4770      	bx	lr
 80018ce:	bf00      	nop
 80018d0:	e000e010 	.word	0xe000e010
 80018d4:	e000ed00 	.word	0xe000ed00

080018d8 <HAL_SYSTICK_Callback>:
__weak void HAL_SYSTICK_Callback(void)
{
  /* NOTE : This function Should not be modified, when the callback is needed,
            the HAL_SYSTICK_Callback could be implemented in the user file
   */
}
 80018d8:	4770      	bx	lr

080018da <HAL_SYSTICK_IRQHandler>:
{
 80018da:	b508      	push	{r3, lr}
  HAL_SYSTICK_Callback();
 80018dc:	f7ff fffc 	bl	80018d8 <HAL_SYSTICK_Callback>
}
 80018e0:	bd08      	pop	{r3, pc}
	...

080018e4 <HAL_GPIO_Init>:
  * @param  GPIO_Init: pointer to a GPIO_InitTypeDef structure that contains
  *         the configuration information for the specified GPIO peripheral.
  * @retval None
  */
void HAL_GPIO_Init(GPIO_TypeDef  *GPIOx, GPIO_InitTypeDef *GPIO_Init)
{ 
 80018e4:	e92d 4ff8 	stmdb	sp!, {r3, r4, r5, r6, r7, r8, r9, sl, fp, lr}
 80018e8:	4607      	mov	r7, r0
 80018ea:	460e      	mov	r6, r1
  uint32_t ioposition = 0x00;
  uint32_t iocurrent = 0x00;
  uint32_t temp = 0x00;

  /* Check the parameters */
  assert_param(IS_GPIO_PIN(GPIO_Init->Pin));
 80018ec:	880b      	ldrh	r3, [r1, #0]
 80018ee:	b30b      	cbz	r3, 8001934 <HAL_GPIO_Init+0x50>
  assert_param(IS_GPIO_MODE(GPIO_Init->Mode));
 80018f0:	6873      	ldr	r3, [r6, #4]
 80018f2:	2b03      	cmp	r3, #3
 80018f4:	d917      	bls.n	8001926 <HAL_GPIO_Init+0x42>
 80018f6:	f1a3 0211 	sub.w	r2, r3, #17
 80018fa:	2a01      	cmp	r2, #1
 80018fc:	d913      	bls.n	8001926 <HAL_GPIO_Init+0x42>
 80018fe:	f423 1200 	bic.w	r2, r3, #2097152	; 0x200000
 8001902:	497a      	ldr	r1, [pc, #488]	; (8001aec <HAL_GPIO_Init+0x208>)
 8001904:	428a      	cmp	r2, r1
 8001906:	d00e      	beq.n	8001926 <HAL_GPIO_Init+0x42>
 8001908:	f501 1180 	add.w	r1, r1, #1048576	; 0x100000
 800190c:	428b      	cmp	r3, r1
 800190e:	d00a      	beq.n	8001926 <HAL_GPIO_Init+0x42>
 8001910:	f5a1 2170 	sub.w	r1, r1, #983040	; 0xf0000
 8001914:	428a      	cmp	r2, r1
 8001916:	d006      	beq.n	8001926 <HAL_GPIO_Init+0x42>
 8001918:	4a75      	ldr	r2, [pc, #468]	; (8001af0 <HAL_GPIO_Init+0x20c>)
 800191a:	4293      	cmp	r3, r2
 800191c:	d003      	beq.n	8001926 <HAL_GPIO_Init+0x42>
 800191e:	21cf      	movs	r1, #207	; 0xcf
 8001920:	4874      	ldr	r0, [pc, #464]	; (8001af4 <HAL_GPIO_Init+0x210>)
 8001922:	f002 fb4b 	bl	8003fbc <assert_failed>
  assert_param(IS_GPIO_PULL(GPIO_Init->Pull)); 
 8001926:	68b3      	ldr	r3, [r6, #8]
 8001928:	2b02      	cmp	r3, #2
 800192a:	d808      	bhi.n	800193e <HAL_GPIO_Init+0x5a>
{ 
 800192c:	2400      	movs	r4, #0
        temp &= ~(((uint32_t)0x0F) << (4 * (position & 0x03)));
        temp |= ((uint32_t)(GET_GPIO_SOURCE(GPIOx)) << (4 * (position & 0x03)));
        SYSCFG->EXTICR[position >> 2] = temp;
                  
        /* Clear EXTI line configuration */
        temp = EXTI->IMR;
 800192e:	f8df b1d0 	ldr.w	fp, [pc, #464]	; 8001b00 <HAL_GPIO_Init+0x21c>
 8001932:	e05d      	b.n	80019f0 <HAL_GPIO_Init+0x10c>
  assert_param(IS_GPIO_PIN(GPIO_Init->Pin));
 8001934:	21ce      	movs	r1, #206	; 0xce
 8001936:	486f      	ldr	r0, [pc, #444]	; (8001af4 <HAL_GPIO_Init+0x210>)
 8001938:	f002 fb40 	bl	8003fbc <assert_failed>
 800193c:	e7d8      	b.n	80018f0 <HAL_GPIO_Init+0xc>
  assert_param(IS_GPIO_PULL(GPIO_Init->Pull)); 
 800193e:	21d0      	movs	r1, #208	; 0xd0
 8001940:	486c      	ldr	r0, [pc, #432]	; (8001af4 <HAL_GPIO_Init+0x210>)
 8001942:	f002 fb3b 	bl	8003fbc <assert_failed>
 8001946:	e7f1      	b.n	800192c <HAL_GPIO_Init+0x48>
        assert_param(IS_GPIO_AF(GPIO_Init->Alternate));
 8001948:	6933      	ldr	r3, [r6, #16]
 800194a:	2b0c      	cmp	r3, #12
 800194c:	d901      	bls.n	8001952 <HAL_GPIO_Init+0x6e>
 800194e:	2b0f      	cmp	r3, #15
 8001950:	d10f      	bne.n	8001972 <HAL_GPIO_Init+0x8e>
        temp = GPIOx->AFR[position >> 3];
 8001952:	08e2      	lsrs	r2, r4, #3
 8001954:	eb07 0282 	add.w	r2, r7, r2, lsl #2
 8001958:	6a10      	ldr	r0, [r2, #32]
        temp &= ~((uint32_t)0xF << ((uint32_t)(position & (uint32_t)0x07) * 4)) ;
 800195a:	f004 0307 	and.w	r3, r4, #7
 800195e:	0099      	lsls	r1, r3, #2
 8001960:	230f      	movs	r3, #15
 8001962:	408b      	lsls	r3, r1
 8001964:	ea20 0003 	bic.w	r0, r0, r3
        temp |= ((uint32_t)(GPIO_Init->Alternate) << (((uint32_t)position & (uint32_t)0x07) * 4));
 8001968:	6933      	ldr	r3, [r6, #16]
 800196a:	408b      	lsls	r3, r1
 800196c:	4303      	orrs	r3, r0
        GPIOx->AFR[position >> 3] = temp;
 800196e:	6213      	str	r3, [r2, #32]
 8001970:	e04b      	b.n	8001a0a <HAL_GPIO_Init+0x126>
        assert_param(IS_GPIO_AF(GPIO_Init->Alternate));
 8001972:	21e1      	movs	r1, #225	; 0xe1
 8001974:	485f      	ldr	r0, [pc, #380]	; (8001af4 <HAL_GPIO_Init+0x210>)
 8001976:	f002 fb21 	bl	8003fbc <assert_failed>
 800197a:	e7ea      	b.n	8001952 <HAL_GPIO_Init+0x6e>
        assert_param(IS_GPIO_SPEED(GPIO_Init->Speed));
 800197c:	21f4      	movs	r1, #244	; 0xf4
 800197e:	485d      	ldr	r0, [pc, #372]	; (8001af4 <HAL_GPIO_Init+0x210>)
 8001980:	f002 fb1c 	bl	8003fbc <assert_failed>
 8001984:	e05d      	b.n	8001a42 <HAL_GPIO_Init+0x15e>
        temp |= ((uint32_t)(GET_GPIO_SOURCE(GPIOx)) << (4 * (position & 0x03)));
 8001986:	2200      	movs	r2, #0
 8001988:	4082      	lsls	r2, r0
 800198a:	432a      	orrs	r2, r5
        SYSCFG->EXTICR[position >> 2] = temp;
 800198c:	609a      	str	r2, [r3, #8]
        temp = EXTI->IMR;
 800198e:	f8db 2000 	ldr.w	r2, [fp]
        temp &= ~((uint32_t)iocurrent);
 8001992:	ea6f 010a 	mvn.w	r1, sl
        if((GPIO_Init->Mode & GPIO_MODE_IT) == GPIO_MODE_IT)
 8001996:	6873      	ldr	r3, [r6, #4]
 8001998:	f413 3f80 	tst.w	r3, #65536	; 0x10000
        temp &= ~((uint32_t)iocurrent);
 800199c:	bf0c      	ite	eq
 800199e:	400a      	andeq	r2, r1
        {
          temp |= iocurrent;
 80019a0:	ea4a 0202 	orrne.w	r2, sl, r2
        }
        EXTI->IMR = temp;
 80019a4:	f8cb 2000 	str.w	r2, [fp]

        temp = EXTI->EMR;
 80019a8:	f8db 2004 	ldr.w	r2, [fp, #4]
        temp &= ~((uint32_t)iocurrent);
        if((GPIO_Init->Mode & GPIO_MODE_EVT) == GPIO_MODE_EVT)
 80019ac:	6873      	ldr	r3, [r6, #4]
 80019ae:	f413 3f00 	tst.w	r3, #131072	; 0x20000
        temp &= ~((uint32_t)iocurrent);
 80019b2:	bf0c      	ite	eq
 80019b4:	400a      	andeq	r2, r1
        { 
          temp |= iocurrent;
 80019b6:	ea4a 0202 	orrne.w	r2, sl, r2
        }
        EXTI->EMR = temp;
 80019ba:	f8cb 2004 	str.w	r2, [fp, #4]
  
        /* Clear Rising Falling edge configuration */
        temp = EXTI->RTSR;
 80019be:	f8db 2008 	ldr.w	r2, [fp, #8]
        temp &= ~((uint32_t)iocurrent);
        if((GPIO_Init->Mode & RISING_EDGE) == RISING_EDGE)
 80019c2:	6873      	ldr	r3, [r6, #4]
 80019c4:	f413 1f80 	tst.w	r3, #1048576	; 0x100000
        temp &= ~((uint32_t)iocurrent);
 80019c8:	bf0c      	ite	eq
 80019ca:	400a      	andeq	r2, r1
        {
          temp |= iocurrent;
 80019cc:	ea4a 0202 	orrne.w	r2, sl, r2
        }
        EXTI->RTSR = temp;
 80019d0:	f8cb 2008 	str.w	r2, [fp, #8]

        temp = EXTI->FTSR;
 80019d4:	f8db 300c 	ldr.w	r3, [fp, #12]
        temp &= ~((uint32_t)iocurrent);
        if((GPIO_Init->Mode & FALLING_EDGE) == FALLING_EDGE)
 80019d8:	6872      	ldr	r2, [r6, #4]
 80019da:	f412 1f00 	tst.w	r2, #2097152	; 0x200000
        temp &= ~((uint32_t)iocurrent);
 80019de:	bf0c      	ite	eq
 80019e0:	400b      	andeq	r3, r1
        {
          temp |= iocurrent;
 80019e2:	ea4a 0303 	orrne.w	r3, sl, r3
        }
        EXTI->FTSR = temp;
 80019e6:	f8cb 300c 	str.w	r3, [fp, #12]
  for (position = 0; position < GPIO_NUMBER; position++)
 80019ea:	3401      	adds	r4, #1
 80019ec:	2c10      	cmp	r4, #16
 80019ee:	d07b      	beq.n	8001ae8 <HAL_GPIO_Init+0x204>
    ioposition = ((uint32_t)0x01) << position;
 80019f0:	2501      	movs	r5, #1
 80019f2:	40a5      	lsls	r5, r4
    iocurrent = (uint32_t)(GPIO_Init->Pin) & ioposition;
 80019f4:	6833      	ldr	r3, [r6, #0]
 80019f6:	ea05 0a03 	and.w	sl, r5, r3
    if (iocurrent == ioposition)
 80019fa:	ea35 0303 	bics.w	r3, r5, r3
 80019fe:	d1f4      	bne.n	80019ea <HAL_GPIO_Init+0x106>
      if((GPIO_Init->Mode == GPIO_MODE_AF_PP) || (GPIO_Init->Mode == GPIO_MODE_AF_OD)) 
 8001a00:	6873      	ldr	r3, [r6, #4]
 8001a02:	f023 0310 	bic.w	r3, r3, #16
 8001a06:	2b02      	cmp	r3, #2
 8001a08:	d09e      	beq.n	8001948 <HAL_GPIO_Init+0x64>
      temp = GPIOx->MODER;
 8001a0a:	683a      	ldr	r2, [r7, #0]
      temp &= ~(GPIO_MODER_MODER0 << (position * 2));
 8001a0c:	ea4f 0944 	mov.w	r9, r4, lsl #1
 8001a10:	2303      	movs	r3, #3
 8001a12:	fa03 f309 	lsl.w	r3, r3, r9
 8001a16:	ea6f 0803 	mvn.w	r8, r3
 8001a1a:	ea22 0203 	bic.w	r2, r2, r3
      temp |= ((GPIO_Init->Mode & GPIO_MODE) << (position * 2));
 8001a1e:	6873      	ldr	r3, [r6, #4]
 8001a20:	f003 0303 	and.w	r3, r3, #3
 8001a24:	fa03 f309 	lsl.w	r3, r3, r9
 8001a28:	4313      	orrs	r3, r2
      GPIOx->MODER = temp;
 8001a2a:	603b      	str	r3, [r7, #0]
      if ((GPIO_Init->Mode == GPIO_MODE_OUTPUT_PP) || (GPIO_Init->Mode == GPIO_MODE_AF_PP) ||
 8001a2c:	6873      	ldr	r3, [r6, #4]
 8001a2e:	f023 0310 	bic.w	r3, r3, #16
 8001a32:	3b01      	subs	r3, #1
 8001a34:	2b01      	cmp	r3, #1
 8001a36:	d815      	bhi.n	8001a64 <HAL_GPIO_Init+0x180>
        assert_param(IS_GPIO_SPEED(GPIO_Init->Speed));
 8001a38:	68f3      	ldr	r3, [r6, #12]
 8001a3a:	2b01      	cmp	r3, #1
 8001a3c:	d901      	bls.n	8001a42 <HAL_GPIO_Init+0x15e>
 8001a3e:	2b03      	cmp	r3, #3
 8001a40:	d19c      	bne.n	800197c <HAL_GPIO_Init+0x98>
        temp = GPIOx->OSPEEDR; 
 8001a42:	68ba      	ldr	r2, [r7, #8]
        temp &= ~(GPIO_OSPEEDER_OSPEEDR0 << (position * 2));
 8001a44:	ea08 0202 	and.w	r2, r8, r2
        temp |= (GPIO_Init->Speed << (position * 2));
 8001a48:	68f3      	ldr	r3, [r6, #12]
 8001a4a:	fa03 f309 	lsl.w	r3, r3, r9
 8001a4e:	4313      	orrs	r3, r2
        GPIOx->OSPEEDR = temp;
 8001a50:	60bb      	str	r3, [r7, #8]
        temp = GPIOx->OTYPER;
 8001a52:	687a      	ldr	r2, [r7, #4]
        temp &= ~(GPIO_OTYPER_OT_0 << position) ;
 8001a54:	ea22 0205 	bic.w	r2, r2, r5
        temp |= (((GPIO_Init->Mode & GPIO_OUTPUT_TYPE) >> 4) << position);
 8001a58:	6873      	ldr	r3, [r6, #4]
 8001a5a:	f3c3 1500 	ubfx	r5, r3, #4, #1
 8001a5e:	40a5      	lsls	r5, r4
 8001a60:	4315      	orrs	r5, r2
        GPIOx->OTYPER = temp;
 8001a62:	607d      	str	r5, [r7, #4]
      temp = GPIOx->PUPDR;
 8001a64:	68fb      	ldr	r3, [r7, #12]
      temp &= ~(GPIO_PUPDR_PUPDR0 << (position * 2));
 8001a66:	ea08 0803 	and.w	r8, r8, r3
      temp |= ((GPIO_Init->Pull) << (position * 2));
 8001a6a:	68b3      	ldr	r3, [r6, #8]
 8001a6c:	fa03 f309 	lsl.w	r3, r3, r9
 8001a70:	ea43 0308 	orr.w	r3, r3, r8
      GPIOx->PUPDR = temp;
 8001a74:	60fb      	str	r3, [r7, #12]
      if((GPIO_Init->Mode & EXTI_MODE) == EXTI_MODE) 
 8001a76:	6873      	ldr	r3, [r6, #4]
 8001a78:	f013 5f80 	tst.w	r3, #268435456	; 0x10000000
 8001a7c:	d0b5      	beq.n	80019ea <HAL_GPIO_Init+0x106>
        __SYSCFG_CLK_ENABLE();
 8001a7e:	4a1e      	ldr	r2, [pc, #120]	; (8001af8 <HAL_GPIO_Init+0x214>)
 8001a80:	6993      	ldr	r3, [r2, #24]
 8001a82:	f043 0301 	orr.w	r3, r3, #1
 8001a86:	6193      	str	r3, [r2, #24]
        temp = SYSCFG->EXTICR[position >> 2];
 8001a88:	f024 0303 	bic.w	r3, r4, #3
 8001a8c:	f103 4380 	add.w	r3, r3, #1073741824	; 0x40000000
 8001a90:	f503 3380 	add.w	r3, r3, #65536	; 0x10000
 8001a94:	689d      	ldr	r5, [r3, #8]
        temp &= ~(((uint32_t)0x0F) << (4 * (position & 0x03)));
 8001a96:	f004 0203 	and.w	r2, r4, #3
 8001a9a:	0090      	lsls	r0, r2, #2
 8001a9c:	220f      	movs	r2, #15
 8001a9e:	4082      	lsls	r2, r0
 8001aa0:	ea25 0502 	bic.w	r5, r5, r2
        temp |= ((uint32_t)(GET_GPIO_SOURCE(GPIOx)) << (4 * (position & 0x03)));
 8001aa4:	f1b7 4f90 	cmp.w	r7, #1207959552	; 0x48000000
 8001aa8:	f43f af6d 	beq.w	8001986 <HAL_GPIO_Init+0xa2>
 8001aac:	4a13      	ldr	r2, [pc, #76]	; (8001afc <HAL_GPIO_Init+0x218>)
 8001aae:	4297      	cmp	r7, r2
 8001ab0:	d012      	beq.n	8001ad8 <HAL_GPIO_Init+0x1f4>
 8001ab2:	f502 6280 	add.w	r2, r2, #1024	; 0x400
 8001ab6:	4297      	cmp	r7, r2
 8001ab8:	d010      	beq.n	8001adc <HAL_GPIO_Init+0x1f8>
 8001aba:	f502 6280 	add.w	r2, r2, #1024	; 0x400
 8001abe:	4297      	cmp	r7, r2
 8001ac0:	d00e      	beq.n	8001ae0 <HAL_GPIO_Init+0x1fc>
 8001ac2:	f502 6280 	add.w	r2, r2, #1024	; 0x400
 8001ac6:	4297      	cmp	r7, r2
 8001ac8:	d00c      	beq.n	8001ae4 <HAL_GPIO_Init+0x200>
 8001aca:	f502 6280 	add.w	r2, r2, #1024	; 0x400
 8001ace:	4297      	cmp	r7, r2
 8001ad0:	bf0c      	ite	eq
 8001ad2:	2205      	moveq	r2, #5
 8001ad4:	2206      	movne	r2, #6
 8001ad6:	e757      	b.n	8001988 <HAL_GPIO_Init+0xa4>
 8001ad8:	2201      	movs	r2, #1
 8001ada:	e755      	b.n	8001988 <HAL_GPIO_Init+0xa4>
 8001adc:	2202      	movs	r2, #2
 8001ade:	e753      	b.n	8001988 <HAL_GPIO_Init+0xa4>
 8001ae0:	2203      	movs	r2, #3
 8001ae2:	e751      	b.n	8001988 <HAL_GPIO_Init+0xa4>
 8001ae4:	2204      	movs	r2, #4
 8001ae6:	e74f      	b.n	8001988 <HAL_GPIO_Init+0xa4>
      }
    }
  } 
}
 8001ae8:	e8bd 8ff8 	ldmia.w	sp!, {r3, r4, r5, r6, r7, r8, r9, sl, fp, pc}
 8001aec:	10110000 	.word	0x10110000
 8001af0:	10220000 	.word	0x10220000
 8001af4:	080047a8 	.word	0x080047a8
 8001af8:	40021000 	.word	0x40021000
 8001afc:	48000400 	.word	0x48000400
 8001b00:	40010400 	.word	0x40010400

08001b04 <HAL_GPIO_WritePin>:
  *            @arg GPIO_PIN_RESET: to clear the port pin
  *            @arg GPIO_PIN_SET: to set the port pin
  * @retval None
  */
void HAL_GPIO_WritePin(GPIO_TypeDef* GPIOx, uint16_t GPIO_Pin, GPIO_PinState PinState)
{
 8001b04:	b570      	push	{r4, r5, r6, lr}
 8001b06:	4605      	mov	r5, r0
 8001b08:	4614      	mov	r4, r2
  /* Check the parameters */
  assert_param(IS_GPIO_PIN(GPIO_Pin));
 8001b0a:	460e      	mov	r6, r1
 8001b0c:	b121      	cbz	r1, 8001b18 <HAL_GPIO_WritePin+0x14>
  assert_param(IS_GPIO_PIN_ACTION(PinState));
 8001b0e:	2c01      	cmp	r4, #1
 8001b10:	d808      	bhi.n	8001b24 <HAL_GPIO_WritePin+0x20>

  if (PinState != GPIO_PIN_RESET)
 8001b12:	b964      	cbnz	r4, 8001b2e <HAL_GPIO_WritePin+0x2a>
  {
    GPIOx->BSRRL = GPIO_Pin;
  }
  else
  {
    GPIOx->BSRRH = GPIO_Pin ;
 8001b14:	836e      	strh	r6, [r5, #26]
  }
}
 8001b16:	e00b      	b.n	8001b30 <HAL_GPIO_WritePin+0x2c>
  assert_param(IS_GPIO_PIN(GPIO_Pin));
 8001b18:	f240 11af 	movw	r1, #431	; 0x1af
 8001b1c:	4805      	ldr	r0, [pc, #20]	; (8001b34 <HAL_GPIO_WritePin+0x30>)
 8001b1e:	f002 fa4d 	bl	8003fbc <assert_failed>
 8001b22:	e7f4      	b.n	8001b0e <HAL_GPIO_WritePin+0xa>
  assert_param(IS_GPIO_PIN_ACTION(PinState));
 8001b24:	f44f 71d8 	mov.w	r1, #432	; 0x1b0
 8001b28:	4802      	ldr	r0, [pc, #8]	; (8001b34 <HAL_GPIO_WritePin+0x30>)
 8001b2a:	f002 fa47 	bl	8003fbc <assert_failed>
    GPIOx->BSRRL = GPIO_Pin;
 8001b2e:	832e      	strh	r6, [r5, #24]
}
 8001b30:	bd70      	pop	{r4, r5, r6, pc}
 8001b32:	bf00      	nop
 8001b34:	080047a8 	.word	0x080047a8

08001b38 <HAL_GPIO_EXTI_IRQHandler>:
  * @brief This function handles EXTI interrupt request.
  * @param GPIO_Pin: Specifies the pins connected EXTI line
  * @retval None
  */
void HAL_GPIO_EXTI_IRQHandler(uint16_t GPIO_Pin)
{
 8001b38:	b508      	push	{r3, lr}
  /* EXTI line interrupt detected */
  if(__HAL_GPIO_EXTI_GET_IT(GPIO_Pin) != RESET) 
 8001b3a:	4b05      	ldr	r3, [pc, #20]	; (8001b50 <HAL_GPIO_EXTI_IRQHandler+0x18>)
 8001b3c:	695b      	ldr	r3, [r3, #20]
 8001b3e:	4203      	tst	r3, r0
 8001b40:	d100      	bne.n	8001b44 <HAL_GPIO_EXTI_IRQHandler+0xc>
  { 
    __HAL_GPIO_EXTI_CLEAR_IT(GPIO_Pin);
    HAL_GPIO_EXTI_Callback(GPIO_Pin);
  }
}
 8001b42:	bd08      	pop	{r3, pc}
    __HAL_GPIO_EXTI_CLEAR_IT(GPIO_Pin);
 8001b44:	4b02      	ldr	r3, [pc, #8]	; (8001b50 <HAL_GPIO_EXTI_IRQHandler+0x18>)
 8001b46:	6158      	str	r0, [r3, #20]
    HAL_GPIO_EXTI_Callback(GPIO_Pin);
 8001b48:	f002 f8e6 	bl	8003d18 <HAL_GPIO_EXTI_Callback>
}
 8001b4c:	e7f9      	b.n	8001b42 <HAL_GPIO_EXTI_IRQHandler+0xa>
 8001b4e:	bf00      	nop
 8001b50:	40010400 	.word	0x40010400

08001b54 <HAL_RCC_ClockConfig>:
  *         If a clock source which is not yet ready is selected, the switch will
  *         occur when the clock source will be ready.
  * @retval HAL status
  */
HAL_StatusTypeDef HAL_RCC_ClockConfig(RCC_ClkInitTypeDef  *RCC_ClkInitStruct, uint32_t FLatency)
{
 8001b54:	e92d 41f0 	stmdb	sp!, {r4, r5, r6, r7, r8, lr}
 8001b58:	460c      	mov	r4, r1
  uint32_t tickstart = 0;

  /* Check the parameters */
  assert_param(RCC_ClkInitStruct != NULL);
 8001b5a:	4605      	mov	r5, r0
 8001b5c:	2800      	cmp	r0, #0
 8001b5e:	d070      	beq.n	8001c42 <HAL_RCC_ClockConfig+0xee>
  assert_param(IS_RCC_CLOCKTYPE(RCC_ClkInitStruct->ClockType));
 8001b60:	682b      	ldr	r3, [r5, #0]
 8001b62:	f013 0f0f 	tst.w	r3, #15
 8001b66:	d072      	beq.n	8001c4e <HAL_RCC_ClockConfig+0xfa>
  assert_param(IS_FLASH_LATENCY(FLatency));
 8001b68:	2c02      	cmp	r4, #2
 8001b6a:	d876      	bhi.n	8001c5a <HAL_RCC_ClockConfig+0x106>
  /* To correctly read data from FLASH memory, the number of wait states (LATENCY)
    must be correctly programmed according to the frequency of the CPU clock
    (HCLK) of the device. */

  /* Increasing the CPU frequency */
  if(FLatency > (FLASH->ACR & FLASH_ACR_LATENCY))
 8001b6c:	4bba      	ldr	r3, [pc, #744]	; (8001e58 <HAL_RCC_ClockConfig+0x304>)
 8001b6e:	681b      	ldr	r3, [r3, #0]
 8001b70:	f003 0307 	and.w	r3, r3, #7
 8001b74:	42a3      	cmp	r3, r4
 8001b76:	f080 80c8 	bcs.w	8001d0a <HAL_RCC_ClockConfig+0x1b6>
  {
    /* Program the new number of wait states to the LATENCY bits in the FLASH_ACR register */
    __HAL_FLASH_SET_LATENCY(FLatency);
 8001b7a:	4ab7      	ldr	r2, [pc, #732]	; (8001e58 <HAL_RCC_ClockConfig+0x304>)
 8001b7c:	6813      	ldr	r3, [r2, #0]
 8001b7e:	f023 0307 	bic.w	r3, r3, #7
 8001b82:	4323      	orrs	r3, r4
 8001b84:	6013      	str	r3, [r2, #0]

    /* Check that the new number of wait states is taken into account to access the Flash
    memory by reading the FLASH_ACR register */
    if((FLASH->ACR & FLASH_ACR_LATENCY) != FLatency)
 8001b86:	6813      	ldr	r3, [r2, #0]
 8001b88:	f003 0307 	and.w	r3, r3, #7
 8001b8c:	42a3      	cmp	r3, r4
 8001b8e:	f040 81b3 	bne.w	8001ef8 <HAL_RCC_ClockConfig+0x3a4>
    {
      return HAL_ERROR;
    }

    /*-------------------------- HCLK Configuration ----------------------------*/
    if(((RCC_ClkInitStruct->ClockType) & RCC_CLOCKTYPE_HCLK) == RCC_CLOCKTYPE_HCLK)
 8001b92:	682b      	ldr	r3, [r5, #0]
 8001b94:	f013 0f02 	tst.w	r3, #2
 8001b98:	d018      	beq.n	8001bcc <HAL_RCC_ClockConfig+0x78>
    {
      assert_param(IS_RCC_SYSCLK_DIV(RCC_ClkInitStruct->AHBCLKDivider));
 8001b9a:	68ab      	ldr	r3, [r5, #8]
 8001b9c:	f033 0280 	bics.w	r2, r3, #128	; 0x80
 8001ba0:	d00d      	beq.n	8001bbe <HAL_RCC_ClockConfig+0x6a>
 8001ba2:	f023 0220 	bic.w	r2, r3, #32
 8001ba6:	2a90      	cmp	r2, #144	; 0x90
 8001ba8:	d009      	beq.n	8001bbe <HAL_RCC_ClockConfig+0x6a>
 8001baa:	f023 0240 	bic.w	r2, r3, #64	; 0x40
 8001bae:	2aa0      	cmp	r2, #160	; 0xa0
 8001bb0:	d005      	beq.n	8001bbe <HAL_RCC_ClockConfig+0x6a>
 8001bb2:	f023 0210 	bic.w	r2, r3, #16
 8001bb6:	2ac0      	cmp	r2, #192	; 0xc0
 8001bb8:	d001      	beq.n	8001bbe <HAL_RCC_ClockConfig+0x6a>
 8001bba:	2bf0      	cmp	r3, #240	; 0xf0
 8001bbc:	d153      	bne.n	8001c66 <HAL_RCC_ClockConfig+0x112>
      MODIFY_REG(RCC->CFGR, RCC_CFGR_HPRE, RCC_ClkInitStruct->AHBCLKDivider);
 8001bbe:	4aa7      	ldr	r2, [pc, #668]	; (8001e5c <HAL_RCC_ClockConfig+0x308>)
 8001bc0:	6853      	ldr	r3, [r2, #4]
 8001bc2:	f023 03f0 	bic.w	r3, r3, #240	; 0xf0
 8001bc6:	68a9      	ldr	r1, [r5, #8]
 8001bc8:	430b      	orrs	r3, r1
 8001bca:	6053      	str	r3, [r2, #4]
    }

    /*------------------------- SYSCLK Configuration ---------------------------*/
    if(((RCC_ClkInitStruct->ClockType) & RCC_CLOCKTYPE_SYSCLK) == RCC_CLOCKTYPE_SYSCLK)
 8001bcc:	682b      	ldr	r3, [r5, #0]
 8001bce:	f013 0f01 	tst.w	r3, #1
 8001bd2:	f000 8152 	beq.w	8001e7a <HAL_RCC_ClockConfig+0x326>
    {
      assert_param(IS_RCC_SYSCLKSOURCE(RCC_ClkInitStruct->SYSCLKSource));
 8001bd6:	686b      	ldr	r3, [r5, #4]
 8001bd8:	2b02      	cmp	r3, #2
 8001bda:	d84a      	bhi.n	8001c72 <HAL_RCC_ClockConfig+0x11e>

      /* HSE is selected as System Clock Source */
      if(RCC_ClkInitStruct->SYSCLKSource == RCC_SYSCLKSOURCE_HSE)
 8001bdc:	6869      	ldr	r1, [r5, #4]
 8001bde:	2901      	cmp	r1, #1
 8001be0:	d04d      	beq.n	8001c7e <HAL_RCC_ClockConfig+0x12a>
        {
          return HAL_ERROR;
        }
      }
      /* PLL is selected as System Clock Source */
      else if(RCC_ClkInitStruct->SYSCLKSource == RCC_SYSCLKSOURCE_PLLCLK)
 8001be2:	2902      	cmp	r1, #2
 8001be4:	d05e      	beq.n	8001ca4 <HAL_RCC_ClockConfig+0x150>
__attribute__((always_inline)) __STATIC_INLINE uint32_t __RBIT(uint32_t value)
{
  uint32_t result;

#if       (__CORTEX_M >= 0x03) || (__CORTEX_SC >= 300)
   __ASM volatile ("rbit %0, %1" : "=r" (result) : "r" (value) );
 8001be6:	2202      	movs	r2, #2
 8001be8:	fa92 f3a2 	rbit	r3, r2
      }
      /* HSI is selected as System Clock Source */
      else
      {
        /* Check the HSI ready flag */
        if(__HAL_RCC_GET_FLAG(RCC_FLAG_HSIRDY) == RESET)
 8001bec:	4b9b      	ldr	r3, [pc, #620]	; (8001e5c <HAL_RCC_ClockConfig+0x308>)
 8001bee:	6818      	ldr	r0, [r3, #0]
 8001bf0:	fa92 f2a2 	rbit	r2, r2
 8001bf4:	fab2 f282 	clz	r2, r2
 8001bf8:	f002 021f 	and.w	r2, r2, #31
 8001bfc:	2301      	movs	r3, #1
 8001bfe:	fa03 f202 	lsl.w	r2, r3, r2
 8001c02:	4202      	tst	r2, r0
 8001c04:	f000 817a 	beq.w	8001efc <HAL_RCC_ClockConfig+0x3a8>
        {
          return HAL_ERROR;
        }
      }
      MODIFY_REG(RCC->CFGR, RCC_CFGR_SW, RCC_ClkInitStruct->SYSCLKSource);
 8001c08:	4a94      	ldr	r2, [pc, #592]	; (8001e5c <HAL_RCC_ClockConfig+0x308>)
 8001c0a:	6853      	ldr	r3, [r2, #4]
 8001c0c:	f023 0303 	bic.w	r3, r3, #3
 8001c10:	430b      	orrs	r3, r1
 8001c12:	6053      	str	r3, [r2, #4]

      /* Get timeout */
      tickstart = HAL_GetTick();
 8001c14:	f7ff fdba 	bl	800178c <HAL_GetTick>
 8001c18:	4604      	mov	r4, r0
      
      if(RCC_ClkInitStruct->SYSCLKSource == RCC_SYSCLKSOURCE_HSE)
 8001c1a:	686b      	ldr	r3, [r5, #4]
 8001c1c:	2b01      	cmp	r3, #1
 8001c1e:	d054      	beq.n	8001cca <HAL_RCC_ClockConfig+0x176>
          {
            return HAL_TIMEOUT;
          }
        }
      }
      else if(RCC_ClkInitStruct->SYSCLKSource == RCC_SYSCLKSOURCE_PLLCLK)
 8001c20:	2b02      	cmp	r3, #2
 8001c22:	d062      	beq.n	8001cea <HAL_RCC_ClockConfig+0x196>
          }
        }
      }
      else
      {
        while(__HAL_RCC_GET_SYSCLK_SOURCE() != RCC_SYSCLKSOURCE_STATUS_HSI)
 8001c24:	4e8d      	ldr	r6, [pc, #564]	; (8001e5c <HAL_RCC_ClockConfig+0x308>)
        {
          if((HAL_GetTick()-tickstart) > CLOCKSWITCH_TIMEOUT_VALUE)
 8001c26:	f241 3788 	movw	r7, #5000	; 0x1388
        while(__HAL_RCC_GET_SYSCLK_SOURCE() != RCC_SYSCLKSOURCE_STATUS_HSI)
 8001c2a:	6873      	ldr	r3, [r6, #4]
 8001c2c:	f013 0f0c 	tst.w	r3, #12
 8001c30:	f000 8123 	beq.w	8001e7a <HAL_RCC_ClockConfig+0x326>
          if((HAL_GetTick()-tickstart) > CLOCKSWITCH_TIMEOUT_VALUE)
 8001c34:	f7ff fdaa 	bl	800178c <HAL_GetTick>
 8001c38:	1b03      	subs	r3, r0, r4
 8001c3a:	42bb      	cmp	r3, r7
 8001c3c:	d9f5      	bls.n	8001c2a <HAL_RCC_ClockConfig+0xd6>
          {
            return HAL_TIMEOUT;
 8001c3e:	2003      	movs	r0, #3
 8001c40:	e158      	b.n	8001ef4 <HAL_RCC_ClockConfig+0x3a0>
  assert_param(RCC_ClkInitStruct != NULL);
 8001c42:	f240 111d 	movw	r1, #285	; 0x11d
 8001c46:	4886      	ldr	r0, [pc, #536]	; (8001e60 <HAL_RCC_ClockConfig+0x30c>)
 8001c48:	f002 f9b8 	bl	8003fbc <assert_failed>
 8001c4c:	e788      	b.n	8001b60 <HAL_RCC_ClockConfig+0xc>
  assert_param(IS_RCC_CLOCKTYPE(RCC_ClkInitStruct->ClockType));
 8001c4e:	f44f 718f 	mov.w	r1, #286	; 0x11e
 8001c52:	4883      	ldr	r0, [pc, #524]	; (8001e60 <HAL_RCC_ClockConfig+0x30c>)
 8001c54:	f002 f9b2 	bl	8003fbc <assert_failed>
 8001c58:	e786      	b.n	8001b68 <HAL_RCC_ClockConfig+0x14>
  assert_param(IS_FLASH_LATENCY(FLatency));
 8001c5a:	f240 111f 	movw	r1, #287	; 0x11f
 8001c5e:	4880      	ldr	r0, [pc, #512]	; (8001e60 <HAL_RCC_ClockConfig+0x30c>)
 8001c60:	f002 f9ac 	bl	8003fbc <assert_failed>
 8001c64:	e782      	b.n	8001b6c <HAL_RCC_ClockConfig+0x18>
      assert_param(IS_RCC_SYSCLK_DIV(RCC_ClkInitStruct->AHBCLKDivider));
 8001c66:	f240 1135 	movw	r1, #309	; 0x135
 8001c6a:	487d      	ldr	r0, [pc, #500]	; (8001e60 <HAL_RCC_ClockConfig+0x30c>)
 8001c6c:	f002 f9a6 	bl	8003fbc <assert_failed>
 8001c70:	e7a5      	b.n	8001bbe <HAL_RCC_ClockConfig+0x6a>
      assert_param(IS_RCC_SYSCLKSOURCE(RCC_ClkInitStruct->SYSCLKSource));
 8001c72:	f44f 719e 	mov.w	r1, #316	; 0x13c
 8001c76:	487a      	ldr	r0, [pc, #488]	; (8001e60 <HAL_RCC_ClockConfig+0x30c>)
 8001c78:	f002 f9a0 	bl	8003fbc <assert_failed>
 8001c7c:	e7ae      	b.n	8001bdc <HAL_RCC_ClockConfig+0x88>
 8001c7e:	f44f 3300 	mov.w	r3, #131072	; 0x20000
 8001c82:	fa93 f2a3 	rbit	r2, r3
        if(__HAL_RCC_GET_FLAG(RCC_FLAG_HSERDY) == RESET)
 8001c86:	4a75      	ldr	r2, [pc, #468]	; (8001e5c <HAL_RCC_ClockConfig+0x308>)
 8001c88:	6810      	ldr	r0, [r2, #0]
 8001c8a:	fa93 f3a3 	rbit	r3, r3
 8001c8e:	fab3 f383 	clz	r3, r3
 8001c92:	f003 031f 	and.w	r3, r3, #31
 8001c96:	2201      	movs	r2, #1
 8001c98:	fa02 f303 	lsl.w	r3, r2, r3
 8001c9c:	4203      	tst	r3, r0
 8001c9e:	d1b3      	bne.n	8001c08 <HAL_RCC_ClockConfig+0xb4>
          return HAL_ERROR;
 8001ca0:	2001      	movs	r0, #1
 8001ca2:	e127      	b.n	8001ef4 <HAL_RCC_ClockConfig+0x3a0>
 8001ca4:	f04f 7300 	mov.w	r3, #33554432	; 0x2000000
 8001ca8:	fa93 f2a3 	rbit	r2, r3
        if(__HAL_RCC_GET_FLAG(RCC_FLAG_PLLRDY) == RESET)
 8001cac:	4a6b      	ldr	r2, [pc, #428]	; (8001e5c <HAL_RCC_ClockConfig+0x308>)
 8001cae:	6810      	ldr	r0, [r2, #0]
 8001cb0:	fa93 f3a3 	rbit	r3, r3
 8001cb4:	fab3 f383 	clz	r3, r3
 8001cb8:	f003 031f 	and.w	r3, r3, #31
 8001cbc:	2201      	movs	r2, #1
 8001cbe:	fa02 f303 	lsl.w	r3, r2, r3
 8001cc2:	4203      	tst	r3, r0
 8001cc4:	d1a0      	bne.n	8001c08 <HAL_RCC_ClockConfig+0xb4>
          return HAL_ERROR;
 8001cc6:	2001      	movs	r0, #1
 8001cc8:	e114      	b.n	8001ef4 <HAL_RCC_ClockConfig+0x3a0>
        while (__HAL_RCC_GET_SYSCLK_SOURCE() != RCC_SYSCLKSOURCE_STATUS_HSE)
 8001cca:	4e64      	ldr	r6, [pc, #400]	; (8001e5c <HAL_RCC_ClockConfig+0x308>)
          if((HAL_GetTick()-tickstart) > CLOCKSWITCH_TIMEOUT_VALUE)
 8001ccc:	f241 3788 	movw	r7, #5000	; 0x1388
        while (__HAL_RCC_GET_SYSCLK_SOURCE() != RCC_SYSCLKSOURCE_STATUS_HSE)
 8001cd0:	6873      	ldr	r3, [r6, #4]
 8001cd2:	f003 030c 	and.w	r3, r3, #12
 8001cd6:	2b04      	cmp	r3, #4
 8001cd8:	f000 80cf 	beq.w	8001e7a <HAL_RCC_ClockConfig+0x326>
          if((HAL_GetTick()-tickstart) > CLOCKSWITCH_TIMEOUT_VALUE)
 8001cdc:	f7ff fd56 	bl	800178c <HAL_GetTick>
 8001ce0:	1b03      	subs	r3, r0, r4
 8001ce2:	42bb      	cmp	r3, r7
 8001ce4:	d9f4      	bls.n	8001cd0 <HAL_RCC_ClockConfig+0x17c>
            return HAL_TIMEOUT;
 8001ce6:	2003      	movs	r0, #3
 8001ce8:	e104      	b.n	8001ef4 <HAL_RCC_ClockConfig+0x3a0>
        while (__HAL_RCC_GET_SYSCLK_SOURCE() != RCC_SYSCLKSOURCE_STATUS_PLLCLK)
 8001cea:	4e5c      	ldr	r6, [pc, #368]	; (8001e5c <HAL_RCC_ClockConfig+0x308>)
          if((HAL_GetTick()-tickstart) > CLOCKSWITCH_TIMEOUT_VALUE)
 8001cec:	f241 3788 	movw	r7, #5000	; 0x1388
        while (__HAL_RCC_GET_SYSCLK_SOURCE() != RCC_SYSCLKSOURCE_STATUS_PLLCLK)
 8001cf0:	6873      	ldr	r3, [r6, #4]
 8001cf2:	f003 030c 	and.w	r3, r3, #12
 8001cf6:	2b08      	cmp	r3, #8
 8001cf8:	f000 80bf 	beq.w	8001e7a <HAL_RCC_ClockConfig+0x326>
          if((HAL_GetTick()-tickstart) > CLOCKSWITCH_TIMEOUT_VALUE)
 8001cfc:	f7ff fd46 	bl	800178c <HAL_GetTick>
 8001d00:	1b00      	subs	r0, r0, r4
 8001d02:	42b8      	cmp	r0, r7
 8001d04:	d9f4      	bls.n	8001cf0 <HAL_RCC_ClockConfig+0x19c>
            return HAL_TIMEOUT;
 8001d06:	2003      	movs	r0, #3
 8001d08:	e0f4      	b.n	8001ef4 <HAL_RCC_ClockConfig+0x3a0>
  }
  /* Decreasing the CPU frequency */
  else
  {
    /*-------------------------- HCLK Configuration ----------------------------*/
    if(((RCC_ClkInitStruct->ClockType) & RCC_CLOCKTYPE_HCLK) == RCC_CLOCKTYPE_HCLK)
 8001d0a:	682b      	ldr	r3, [r5, #0]
 8001d0c:	f013 0f02 	tst.w	r3, #2
 8001d10:	d018      	beq.n	8001d44 <HAL_RCC_ClockConfig+0x1f0>
    {
      assert_param(IS_RCC_SYSCLK_DIV(RCC_ClkInitStruct->AHBCLKDivider));
 8001d12:	68ab      	ldr	r3, [r5, #8]
 8001d14:	f033 0280 	bics.w	r2, r3, #128	; 0x80
 8001d18:	d00d      	beq.n	8001d36 <HAL_RCC_ClockConfig+0x1e2>
 8001d1a:	f023 0220 	bic.w	r2, r3, #32
 8001d1e:	2a90      	cmp	r2, #144	; 0x90
 8001d20:	d009      	beq.n	8001d36 <HAL_RCC_ClockConfig+0x1e2>
 8001d22:	f023 0240 	bic.w	r2, r3, #64	; 0x40
 8001d26:	2aa0      	cmp	r2, #160	; 0xa0
 8001d28:	d005      	beq.n	8001d36 <HAL_RCC_ClockConfig+0x1e2>
 8001d2a:	f023 0210 	bic.w	r2, r3, #16
 8001d2e:	2ac0      	cmp	r2, #192	; 0xc0
 8001d30:	d001      	beq.n	8001d36 <HAL_RCC_ClockConfig+0x1e2>
 8001d32:	2bf0      	cmp	r3, #240	; 0xf0
 8001d34:	d140      	bne.n	8001db8 <HAL_RCC_ClockConfig+0x264>
      MODIFY_REG(RCC->CFGR, RCC_CFGR_HPRE, RCC_ClkInitStruct->AHBCLKDivider);
 8001d36:	4a49      	ldr	r2, [pc, #292]	; (8001e5c <HAL_RCC_ClockConfig+0x308>)
 8001d38:	6853      	ldr	r3, [r2, #4]
 8001d3a:	f023 03f0 	bic.w	r3, r3, #240	; 0xf0
 8001d3e:	68a9      	ldr	r1, [r5, #8]
 8001d40:	430b      	orrs	r3, r1
 8001d42:	6053      	str	r3, [r2, #4]
    }

    /*------------------------- SYSCLK Configuration ---------------------------*/
    if(((RCC_ClkInitStruct->ClockType) & RCC_CLOCKTYPE_SYSCLK) == RCC_CLOCKTYPE_SYSCLK)
 8001d44:	682b      	ldr	r3, [r5, #0]
 8001d46:	f013 0f01 	tst.w	r3, #1
 8001d4a:	f000 808b 	beq.w	8001e64 <HAL_RCC_ClockConfig+0x310>
    {
      assert_param(IS_RCC_SYSCLKSOURCE(RCC_ClkInitStruct->SYSCLKSource));
 8001d4e:	686b      	ldr	r3, [r5, #4]
 8001d50:	2b02      	cmp	r3, #2
 8001d52:	d837      	bhi.n	8001dc4 <HAL_RCC_ClockConfig+0x270>

      /* HSE is selected as System Clock Source */
      if(RCC_ClkInitStruct->SYSCLKSource == RCC_SYSCLKSOURCE_HSE)
 8001d54:	6869      	ldr	r1, [r5, #4]
 8001d56:	2901      	cmp	r1, #1
 8001d58:	d03a      	beq.n	8001dd0 <HAL_RCC_ClockConfig+0x27c>
        {
          return HAL_ERROR;
        }
      }
      /* PLL is selected as System Clock Source */
      else if(RCC_ClkInitStruct->SYSCLKSource == RCC_SYSCLKSOURCE_PLLCLK)
 8001d5a:	2902      	cmp	r1, #2
 8001d5c:	d04b      	beq.n	8001df6 <HAL_RCC_ClockConfig+0x2a2>
 8001d5e:	2202      	movs	r2, #2
 8001d60:	fa92 f3a2 	rbit	r3, r2
      }
      /* HSI is selected as System Clock Source */
      else
      {
        /* Check the HSI ready flag */
        if(__HAL_RCC_GET_FLAG(RCC_FLAG_HSIRDY) == RESET)
 8001d64:	4b3d      	ldr	r3, [pc, #244]	; (8001e5c <HAL_RCC_ClockConfig+0x308>)
 8001d66:	6818      	ldr	r0, [r3, #0]
 8001d68:	fa92 f2a2 	rbit	r2, r2
 8001d6c:	fab2 f282 	clz	r2, r2
 8001d70:	f002 021f 	and.w	r2, r2, #31
 8001d74:	2301      	movs	r3, #1
 8001d76:	fa03 f202 	lsl.w	r2, r3, r2
 8001d7a:	4202      	tst	r2, r0
 8001d7c:	f000 80c0 	beq.w	8001f00 <HAL_RCC_ClockConfig+0x3ac>
        {
          return HAL_ERROR;
        }
      }
      MODIFY_REG(RCC->CFGR, RCC_CFGR_SW, RCC_ClkInitStruct->SYSCLKSource);
 8001d80:	4a36      	ldr	r2, [pc, #216]	; (8001e5c <HAL_RCC_ClockConfig+0x308>)
 8001d82:	6853      	ldr	r3, [r2, #4]
 8001d84:	f023 0303 	bic.w	r3, r3, #3
 8001d88:	430b      	orrs	r3, r1
 8001d8a:	6053      	str	r3, [r2, #4]

      /* Get timeout */
      tickstart = HAL_GetTick();
 8001d8c:	f7ff fcfe 	bl	800178c <HAL_GetTick>
 8001d90:	4606      	mov	r6, r0

      if(RCC_ClkInitStruct->SYSCLKSource == RCC_SYSCLKSOURCE_HSE)
 8001d92:	686b      	ldr	r3, [r5, #4]
 8001d94:	2b01      	cmp	r3, #1
 8001d96:	d041      	beq.n	8001e1c <HAL_RCC_ClockConfig+0x2c8>
          {
            return HAL_TIMEOUT;
          }
        }
      }
      else if(RCC_ClkInitStruct->SYSCLKSource == RCC_SYSCLKSOURCE_PLLCLK)
 8001d98:	2b02      	cmp	r3, #2
 8001d9a:	d04e      	beq.n	8001e3a <HAL_RCC_ClockConfig+0x2e6>
          }
        }
      }
      else
      {
        while(__HAL_RCC_GET_SYSCLK_SOURCE() != RCC_SYSCLKSOURCE_STATUS_HSI)
 8001d9c:	4f2f      	ldr	r7, [pc, #188]	; (8001e5c <HAL_RCC_ClockConfig+0x308>)
        {
          if((HAL_GetTick()-tickstart) > CLOCKSWITCH_TIMEOUT_VALUE)
 8001d9e:	f241 3888 	movw	r8, #5000	; 0x1388
        while(__HAL_RCC_GET_SYSCLK_SOURCE() != RCC_SYSCLKSOURCE_STATUS_HSI)
 8001da2:	687b      	ldr	r3, [r7, #4]
 8001da4:	f013 0f0c 	tst.w	r3, #12
 8001da8:	d05c      	beq.n	8001e64 <HAL_RCC_ClockConfig+0x310>
          if((HAL_GetTick()-tickstart) > CLOCKSWITCH_TIMEOUT_VALUE)
 8001daa:	f7ff fcef 	bl	800178c <HAL_GetTick>
 8001dae:	1b83      	subs	r3, r0, r6
 8001db0:	4543      	cmp	r3, r8
 8001db2:	d9f6      	bls.n	8001da2 <HAL_RCC_ClockConfig+0x24e>
          {
            return HAL_TIMEOUT;
 8001db4:	2003      	movs	r0, #3
 8001db6:	e09d      	b.n	8001ef4 <HAL_RCC_ClockConfig+0x3a0>
      assert_param(IS_RCC_SYSCLK_DIV(RCC_ClkInitStruct->AHBCLKDivider));
 8001db8:	f44f 71c2 	mov.w	r1, #388	; 0x184
 8001dbc:	4828      	ldr	r0, [pc, #160]	; (8001e60 <HAL_RCC_ClockConfig+0x30c>)
 8001dbe:	f002 f8fd 	bl	8003fbc <assert_failed>
 8001dc2:	e7b8      	b.n	8001d36 <HAL_RCC_ClockConfig+0x1e2>
      assert_param(IS_RCC_SYSCLKSOURCE(RCC_ClkInitStruct->SYSCLKSource));
 8001dc4:	f240 118b 	movw	r1, #395	; 0x18b
 8001dc8:	4825      	ldr	r0, [pc, #148]	; (8001e60 <HAL_RCC_ClockConfig+0x30c>)
 8001dca:	f002 f8f7 	bl	8003fbc <assert_failed>
 8001dce:	e7c1      	b.n	8001d54 <HAL_RCC_ClockConfig+0x200>
 8001dd0:	f44f 3300 	mov.w	r3, #131072	; 0x20000
 8001dd4:	fa93 f2a3 	rbit	r2, r3
        if(__HAL_RCC_GET_FLAG(RCC_FLAG_HSERDY) == RESET)
 8001dd8:	4a20      	ldr	r2, [pc, #128]	; (8001e5c <HAL_RCC_ClockConfig+0x308>)
 8001dda:	6810      	ldr	r0, [r2, #0]
 8001ddc:	fa93 f3a3 	rbit	r3, r3
 8001de0:	fab3 f383 	clz	r3, r3
 8001de4:	f003 031f 	and.w	r3, r3, #31
 8001de8:	2201      	movs	r2, #1
 8001dea:	fa02 f303 	lsl.w	r3, r2, r3
 8001dee:	4203      	tst	r3, r0
 8001df0:	d1c6      	bne.n	8001d80 <HAL_RCC_ClockConfig+0x22c>
          return HAL_ERROR;
 8001df2:	2001      	movs	r0, #1
 8001df4:	e07e      	b.n	8001ef4 <HAL_RCC_ClockConfig+0x3a0>
 8001df6:	f04f 7300 	mov.w	r3, #33554432	; 0x2000000
 8001dfa:	fa93 f2a3 	rbit	r2, r3
        if(__HAL_RCC_GET_FLAG(RCC_FLAG_PLLRDY) == RESET)
 8001dfe:	4a17      	ldr	r2, [pc, #92]	; (8001e5c <HAL_RCC_ClockConfig+0x308>)
 8001e00:	6810      	ldr	r0, [r2, #0]
 8001e02:	fa93 f3a3 	rbit	r3, r3
 8001e06:	fab3 f383 	clz	r3, r3
 8001e0a:	f003 031f 	and.w	r3, r3, #31
 8001e0e:	2201      	movs	r2, #1
 8001e10:	fa02 f303 	lsl.w	r3, r2, r3
 8001e14:	4203      	tst	r3, r0
 8001e16:	d1b3      	bne.n	8001d80 <HAL_RCC_ClockConfig+0x22c>
          return HAL_ERROR;
 8001e18:	2001      	movs	r0, #1
 8001e1a:	e06b      	b.n	8001ef4 <HAL_RCC_ClockConfig+0x3a0>
        while (__HAL_RCC_GET_SYSCLK_SOURCE() != RCC_SYSCLKSOURCE_STATUS_HSE)
 8001e1c:	4f0f      	ldr	r7, [pc, #60]	; (8001e5c <HAL_RCC_ClockConfig+0x308>)
          if((HAL_GetTick()-tickstart) > CLOCKSWITCH_TIMEOUT_VALUE)
 8001e1e:	f241 3888 	movw	r8, #5000	; 0x1388
        while (__HAL_RCC_GET_SYSCLK_SOURCE() != RCC_SYSCLKSOURCE_STATUS_HSE)
 8001e22:	687b      	ldr	r3, [r7, #4]
 8001e24:	f003 030c 	and.w	r3, r3, #12
 8001e28:	2b04      	cmp	r3, #4
 8001e2a:	d01b      	beq.n	8001e64 <HAL_RCC_ClockConfig+0x310>
          if((HAL_GetTick()-tickstart) > CLOCKSWITCH_TIMEOUT_VALUE)
 8001e2c:	f7ff fcae 	bl	800178c <HAL_GetTick>
 8001e30:	1b83      	subs	r3, r0, r6
 8001e32:	4543      	cmp	r3, r8
 8001e34:	d9f5      	bls.n	8001e22 <HAL_RCC_ClockConfig+0x2ce>
            return HAL_TIMEOUT;
 8001e36:	2003      	movs	r0, #3
 8001e38:	e05c      	b.n	8001ef4 <HAL_RCC_ClockConfig+0x3a0>
        while (__HAL_RCC_GET_SYSCLK_SOURCE() != RCC_SYSCLKSOURCE_STATUS_PLLCLK)
 8001e3a:	4f08      	ldr	r7, [pc, #32]	; (8001e5c <HAL_RCC_ClockConfig+0x308>)
          if((HAL_GetTick()-tickstart) > CLOCKSWITCH_TIMEOUT_VALUE)
 8001e3c:	f241 3888 	movw	r8, #5000	; 0x1388
        while (__HAL_RCC_GET_SYSCLK_SOURCE() != RCC_SYSCLKSOURCE_STATUS_PLLCLK)
 8001e40:	687b      	ldr	r3, [r7, #4]
 8001e42:	f003 030c 	and.w	r3, r3, #12
 8001e46:	2b08      	cmp	r3, #8
 8001e48:	d00c      	beq.n	8001e64 <HAL_RCC_ClockConfig+0x310>
          if((HAL_GetTick()-tickstart) > CLOCKSWITCH_TIMEOUT_VALUE)
 8001e4a:	f7ff fc9f 	bl	800178c <HAL_GetTick>
 8001e4e:	1b80      	subs	r0, r0, r6
 8001e50:	4540      	cmp	r0, r8
 8001e52:	d9f5      	bls.n	8001e40 <HAL_RCC_ClockConfig+0x2ec>
            return HAL_TIMEOUT;
 8001e54:	2003      	movs	r0, #3
 8001e56:	e04d      	b.n	8001ef4 <HAL_RCC_ClockConfig+0x3a0>
 8001e58:	40022000 	.word	0x40022000
 8001e5c:	40021000 	.word	0x40021000
 8001e60:	08004814 	.word	0x08004814
        }
      }
    }

    /* Program the new number of wait states to the LATENCY bits in the FLASH_ACR register */
    __HAL_FLASH_SET_LATENCY(FLatency);
 8001e64:	4a28      	ldr	r2, [pc, #160]	; (8001f08 <HAL_RCC_ClockConfig+0x3b4>)
 8001e66:	6813      	ldr	r3, [r2, #0]
 8001e68:	f023 0307 	bic.w	r3, r3, #7
 8001e6c:	4323      	orrs	r3, r4
 8001e6e:	6013      	str	r3, [r2, #0]

    /* Check that the new number of wait states is taken into account to access the Flash
    memory by reading the FLASH_ACR register */
    if((FLASH->ACR & FLASH_ACR_LATENCY) != FLatency)
 8001e70:	6813      	ldr	r3, [r2, #0]
 8001e72:	f003 0307 	and.w	r3, r3, #7
 8001e76:	42a3      	cmp	r3, r4
 8001e78:	d144      	bne.n	8001f04 <HAL_RCC_ClockConfig+0x3b0>
      return HAL_ERROR;
    }
 }

  /*-------------------------- PCLK1 Configuration ---------------------------*/
  if(((RCC_ClkInitStruct->ClockType) & RCC_CLOCKTYPE_PCLK1) == RCC_CLOCKTYPE_PCLK1)
 8001e7a:	682b      	ldr	r3, [r5, #0]
 8001e7c:	f013 0f04 	tst.w	r3, #4
 8001e80:	d017      	beq.n	8001eb2 <HAL_RCC_ClockConfig+0x35e>
  {
    assert_param(IS_RCC_HCLK_DIV(RCC_ClkInitStruct->APB1CLKDivider));
 8001e82:	68eb      	ldr	r3, [r5, #12]
 8001e84:	f433 6280 	bics.w	r2, r3, #1024	; 0x400
 8001e88:	d00c      	beq.n	8001ea4 <HAL_RCC_ClockConfig+0x350>
 8001e8a:	f423 7200 	bic.w	r2, r3, #512	; 0x200
 8001e8e:	f5b2 6fa0 	cmp.w	r2, #1280	; 0x500
 8001e92:	d007      	beq.n	8001ea4 <HAL_RCC_ClockConfig+0x350>
 8001e94:	f5b3 6fc0 	cmp.w	r3, #1536	; 0x600
 8001e98:	d004      	beq.n	8001ea4 <HAL_RCC_ClockConfig+0x350>
 8001e9a:	f240 11db 	movw	r1, #475	; 0x1db
 8001e9e:	481b      	ldr	r0, [pc, #108]	; (8001f0c <HAL_RCC_ClockConfig+0x3b8>)
 8001ea0:	f002 f88c 	bl	8003fbc <assert_failed>
    MODIFY_REG(RCC->CFGR, RCC_CFGR_PPRE1, RCC_ClkInitStruct->APB1CLKDivider);
 8001ea4:	4a1a      	ldr	r2, [pc, #104]	; (8001f10 <HAL_RCC_ClockConfig+0x3bc>)
 8001ea6:	6853      	ldr	r3, [r2, #4]
 8001ea8:	f423 63e0 	bic.w	r3, r3, #1792	; 0x700
 8001eac:	68e9      	ldr	r1, [r5, #12]
 8001eae:	430b      	orrs	r3, r1
 8001eb0:	6053      	str	r3, [r2, #4]
  }

  /*-------------------------- PCLK2 Configuration ---------------------------*/
  if(((RCC_ClkInitStruct->ClockType) & RCC_CLOCKTYPE_PCLK2) == RCC_CLOCKTYPE_PCLK2)
 8001eb2:	682b      	ldr	r3, [r5, #0]
 8001eb4:	f013 0f08 	tst.w	r3, #8
 8001eb8:	d018      	beq.n	8001eec <HAL_RCC_ClockConfig+0x398>
  {
    assert_param(IS_RCC_HCLK_DIV(RCC_ClkInitStruct->APB2CLKDivider));
 8001eba:	692b      	ldr	r3, [r5, #16]
 8001ebc:	f433 6280 	bics.w	r2, r3, #1024	; 0x400
 8001ec0:	d00c      	beq.n	8001edc <HAL_RCC_ClockConfig+0x388>
 8001ec2:	f423 7200 	bic.w	r2, r3, #512	; 0x200
 8001ec6:	f5b2 6fa0 	cmp.w	r2, #1280	; 0x500
 8001eca:	d007      	beq.n	8001edc <HAL_RCC_ClockConfig+0x388>
 8001ecc:	f5b3 6fc0 	cmp.w	r3, #1536	; 0x600
 8001ed0:	d004      	beq.n	8001edc <HAL_RCC_ClockConfig+0x388>
 8001ed2:	f44f 71f1 	mov.w	r1, #482	; 0x1e2
 8001ed6:	480d      	ldr	r0, [pc, #52]	; (8001f0c <HAL_RCC_ClockConfig+0x3b8>)
 8001ed8:	f002 f870 	bl	8003fbc <assert_failed>
    MODIFY_REG(RCC->CFGR, RCC_CFGR_PPRE2, ((RCC_ClkInitStruct->APB2CLKDivider) << 3));
 8001edc:	4a0c      	ldr	r2, [pc, #48]	; (8001f10 <HAL_RCC_ClockConfig+0x3bc>)
 8001ede:	6853      	ldr	r3, [r2, #4]
 8001ee0:	6929      	ldr	r1, [r5, #16]
 8001ee2:	f423 5360 	bic.w	r3, r3, #14336	; 0x3800
 8001ee6:	ea43 03c1 	orr.w	r3, r3, r1, lsl #3
 8001eea:	6053      	str	r3, [r2, #4]
  }

  /* Configure the source of time base considering new system clocks settings*/
  HAL_InitTick (TICK_INT_PRIORITY);
 8001eec:	2000      	movs	r0, #0
 8001eee:	f7ff fc1f 	bl	8001730 <HAL_InitTick>

  return HAL_OK;
 8001ef2:	2000      	movs	r0, #0
}
 8001ef4:	e8bd 81f0 	ldmia.w	sp!, {r4, r5, r6, r7, r8, pc}
      return HAL_ERROR;
 8001ef8:	2001      	movs	r0, #1
 8001efa:	e7fb      	b.n	8001ef4 <HAL_RCC_ClockConfig+0x3a0>
          return HAL_ERROR;
 8001efc:	2001      	movs	r0, #1
 8001efe:	e7f9      	b.n	8001ef4 <HAL_RCC_ClockConfig+0x3a0>
          return HAL_ERROR;
 8001f00:	2001      	movs	r0, #1
 8001f02:	e7f7      	b.n	8001ef4 <HAL_RCC_ClockConfig+0x3a0>
      return HAL_ERROR;
 8001f04:	2001      	movs	r0, #1
 8001f06:	e7f5      	b.n	8001ef4 <HAL_RCC_ClockConfig+0x3a0>
 8001f08:	40022000 	.word	0x40022000
 8001f0c:	08004814 	.word	0x08004814
 8001f10:	40021000 	.word	0x40021000

08001f14 <HAL_RCC_GetHCLKFreq>:
  *         and updated within this function
  *                       
  * @retval HCLK frequency
  */
uint32_t HAL_RCC_GetHCLKFreq(void)
{
 8001f14:	b508      	push	{r3, lr}
  SystemCoreClock = HAL_RCC_GetSysClockFreq() >> APBAHBPrescTable[(RCC->CFGR & RCC_CFGR_HPRE)>> POSITION_VAL(RCC_CFGR_HPRE)];
 8001f16:	f000 fd03 	bl	8002920 <HAL_RCC_GetSysClockFreq>
 8001f1a:	4b08      	ldr	r3, [pc, #32]	; (8001f3c <HAL_RCC_GetHCLKFreq+0x28>)
 8001f1c:	685b      	ldr	r3, [r3, #4]
 8001f1e:	22f0      	movs	r2, #240	; 0xf0
 8001f20:	fa92 f2a2 	rbit	r2, r2
 8001f24:	fab2 f282 	clz	r2, r2
 8001f28:	f003 03f0 	and.w	r3, r3, #240	; 0xf0
 8001f2c:	40d3      	lsrs	r3, r2
 8001f2e:	4a04      	ldr	r2, [pc, #16]	; (8001f40 <HAL_RCC_GetHCLKFreq+0x2c>)
 8001f30:	5cd3      	ldrb	r3, [r2, r3]
 8001f32:	40d8      	lsrs	r0, r3
 8001f34:	4b03      	ldr	r3, [pc, #12]	; (8001f44 <HAL_RCC_GetHCLKFreq+0x30>)
 8001f36:	6018      	str	r0, [r3, #0]
  return SystemCoreClock;
}
 8001f38:	bd08      	pop	{r3, pc}
 8001f3a:	bf00      	nop
 8001f3c:	40021000 	.word	0x40021000
 8001f40:	0800444c 	.word	0x0800444c
 8001f44:	20000364 	.word	0x20000364

08001f48 <HAL_RCC_GetPCLK1Freq>:
  * @note   Each time PCLK1 changes, this function must be called to update the
  *         right PCLK1 value. Otherwise, any configuration based on this function will be incorrect.
  * @retval PCLK1 frequency
  */
uint32_t HAL_RCC_GetPCLK1Freq(void)
{
 8001f48:	b508      	push	{r3, lr}
  /* Get HCLK source and Compute PCLK1 frequency ---------------------------*/
  return (HAL_RCC_GetHCLKFreq() >> APBAHBPrescTable[(RCC->CFGR & RCC_CFGR_PPRE1)>> POSITION_VAL(RCC_CFGR_PPRE1)]);
 8001f4a:	f7ff ffe3 	bl	8001f14 <HAL_RCC_GetHCLKFreq>
 8001f4e:	4b07      	ldr	r3, [pc, #28]	; (8001f6c <HAL_RCC_GetPCLK1Freq+0x24>)
 8001f50:	685b      	ldr	r3, [r3, #4]
 8001f52:	f44f 62e0 	mov.w	r2, #1792	; 0x700
 8001f56:	fa92 f2a2 	rbit	r2, r2
 8001f5a:	fab2 f282 	clz	r2, r2
 8001f5e:	f403 63e0 	and.w	r3, r3, #1792	; 0x700
 8001f62:	40d3      	lsrs	r3, r2
 8001f64:	4a02      	ldr	r2, [pc, #8]	; (8001f70 <HAL_RCC_GetPCLK1Freq+0x28>)
 8001f66:	5cd3      	ldrb	r3, [r2, r3]
}
 8001f68:	40d8      	lsrs	r0, r3
 8001f6a:	bd08      	pop	{r3, pc}
 8001f6c:	40021000 	.word	0x40021000
 8001f70:	0800444c 	.word	0x0800444c

08001f74 <HAL_RCC_GetPCLK2Freq>:
  * @note   Each time PCLK2 changes, this function must be called to update the
  *         right PCLK2 value. Otherwise, any configuration based on this function will be incorrect.
  * @retval PCLK2 frequency
  */
uint32_t HAL_RCC_GetPCLK2Freq(void)
{
 8001f74:	b508      	push	{r3, lr}
  /* Get HCLK source and Compute PCLK2 frequency ---------------------------*/
  return (HAL_RCC_GetHCLKFreq() >> APBAHBPrescTable[(RCC->CFGR & RCC_CFGR_PPRE2)>> POSITION_VAL(RCC_CFGR_PPRE2)]);
 8001f76:	f7ff ffcd 	bl	8001f14 <HAL_RCC_GetHCLKFreq>
 8001f7a:	4b07      	ldr	r3, [pc, #28]	; (8001f98 <HAL_RCC_GetPCLK2Freq+0x24>)
 8001f7c:	685b      	ldr	r3, [r3, #4]
 8001f7e:	f44f 5260 	mov.w	r2, #14336	; 0x3800
 8001f82:	fa92 f2a2 	rbit	r2, r2
 8001f86:	fab2 f282 	clz	r2, r2
 8001f8a:	f403 5360 	and.w	r3, r3, #14336	; 0x3800
 8001f8e:	40d3      	lsrs	r3, r2
 8001f90:	4a02      	ldr	r2, [pc, #8]	; (8001f9c <HAL_RCC_GetPCLK2Freq+0x28>)
 8001f92:	5cd3      	ldrb	r3, [r2, r3]
}
 8001f94:	40d8      	lsrs	r0, r3
 8001f96:	bd08      	pop	{r3, pc}
 8001f98:	40021000 	.word	0x40021000
 8001f9c:	0800444c 	.word	0x0800444c

08001fa0 <HAL_RCCEx_PeriphCLKConfig>:
  *         the backup registers) and RCC_BDCR register are set to their reset values.
  *
  * @retval HAL status
  */
HAL_StatusTypeDef HAL_RCCEx_PeriphCLKConfig(RCC_PeriphCLKInitTypeDef  *PeriphClkInit)
{
 8001fa0:	e92d 41f0 	stmdb	sp!, {r4, r5, r6, r7, r8, lr}
 8001fa4:	4604      	mov	r4, r0
  uint32_t tickstart = 0;
  uint32_t tmpreg = 0;
    
  /* Check the parameters */
  assert_param(IS_RCC_PERIPHCLK(PeriphClkInit->PeriphClockSelection));
 8001fa6:	6802      	ldr	r2, [r0, #0]
 8001fa8:	4bae      	ldr	r3, [pc, #696]	; (8002264 <HAL_RCCEx_PeriphCLKConfig+0x2c4>)
 8001faa:	429a      	cmp	r2, r3
 8001fac:	f200 811e 	bhi.w	80021ec <HAL_RCCEx_PeriphCLKConfig+0x24c>
  
   
  /*---------------------------- RTC configuration -------------------------------*/
  if(((PeriphClkInit->PeriphClockSelection) & RCC_PERIPHCLK_RTC) == (RCC_PERIPHCLK_RTC))
 8001fb0:	6823      	ldr	r3, [r4, #0]
 8001fb2:	f413 3f80 	tst.w	r3, #65536	; 0x10000
 8001fb6:	f040 811e 	bne.w	80021f6 <HAL_RCCEx_PeriphCLKConfig+0x256>
    }
    __HAL_RCC_RTC_CONFIG(PeriphClkInit->RTCClockSelection); 
  }
  
  /*------------------------------- USART1 Configuration ------------------------*/
  if(((PeriphClkInit->PeriphClockSelection) & RCC_PERIPHCLK_USART1) == RCC_PERIPHCLK_USART1)
 8001fba:	6823      	ldr	r3, [r4, #0]
 8001fbc:	f013 0f01 	tst.w	r3, #1
 8001fc0:	d00a      	beq.n	8001fd8 <HAL_RCCEx_PeriphCLKConfig+0x38>
  {
    /* Check the parameters */
    assert_param(IS_RCC_USART1CLKSOURCE(PeriphClkInit->Usart1ClockSelection));
 8001fc2:	68a3      	ldr	r3, [r4, #8]
 8001fc4:	2b03      	cmp	r3, #3
 8001fc6:	f200 817b 	bhi.w	80022c0 <HAL_RCCEx_PeriphCLKConfig+0x320>
    
    /* Configure the USART1 clock source */
    __HAL_RCC_USART1_CONFIG(PeriphClkInit->Usart1ClockSelection);
 8001fca:	4aa7      	ldr	r2, [pc, #668]	; (8002268 <HAL_RCCEx_PeriphCLKConfig+0x2c8>)
