Archive member included to satisfy reference by file (symbol)

c:/st/stm32cubeide_1.6.1/stm32cubeide/plugins/com.st.stm32cube.ide.mcu.externaltools.gnu-tools-for-stm32.9-2020-q2-update.win32_1.5.0.202011040924/tools/bin/../lib/gcc/arm-none-eabi/9.3.1/../../../../arm-none-eabi/lib/thumb/v7e-m+fp/hard\libc_nano.a(lib_a-errno.o)
                              Example/SW4STM32/syscalls.o (__errno)
c:/st/stm32cubeide_1.6.1/stm32cubeide/plugins/com.st.stm32cube.ide.mcu.externaltools.gnu-tools-for-stm32.9-2020-q2-update.win32_1.5.0.202011040924/tools/bin/../lib/gcc/arm-none-eabi/9.3.1/../../../../arm-none-eabi/lib/thumb/v7e-m+fp/hard\libc_nano.a(lib_a-exit.o)
                              c:/st/stm32cubeide_1.6.1/stm32cubeide/plugins/com.st.stm32cube.ide.mcu.externaltools.gnu-tools-for-stm32.9-2020-q2-update.win32_1.5.0.202011040924/tools/bin/../lib/gcc/arm-none-eabi/9.3.1/../../../../arm-none-eabi/lib/thumb/v7e-m+fp/hard/crt0.o (exit)
c:/st/stm32cubeide_1.6.1/stm32cubeide/plugins/com.st.stm32cube.ide.mcu.externaltools.gnu-tools-for-stm32.9-2020-q2-update.win32_1.5.0.202011040924/tools/bin/../lib/gcc/arm-none-eabi/9.3.1/../../../../arm-none-eabi/lib/thumb/v7e-m+fp/hard\libc_nano.a(lib_a-impure.o)
                              c:/st/stm32cubeide_1.6.1/stm32cubeide/plugins/com.st.stm32cube.ide.mcu.externaltools.gnu-tools-for-stm32.9-2020-q2-update.win32_1.5.0.202011040924/tools/bin/../lib/gcc/arm-none-eabi/9.3.1/../../../../arm-none-eabi/lib/thumb/v7e-m+fp/hard\libc_nano.a(lib_a-exit.o) (_global_impure_ptr)
c:/st/stm32cubeide_1.6.1/stm32cubeide/plugins/com.st.stm32cube.ide.mcu.externaltools.gnu-tools-for-stm32.9-2020-q2-update.win32_1.5.0.202011040924/tools/bin/../lib/gcc/arm-none-eabi/9.3.1/../../../../arm-none-eabi/lib/thumb/v7e-m+fp/hard\libc_nano.a(lib_a-init.o)
                              c:/st/stm32cubeide_1.6.1/stm32cubeide/plugins/com.st.stm32cube.ide.mcu.externaltools.gnu-tools-for-stm32.9-2020-q2-update.win32_1.5.0.202011040924/tools/bin/../lib/gcc/arm-none-eabi/9.3.1/../../../../arm-none-eabi/lib/thumb/v7e-m+fp/hard/crt0.o (__libc_init_array)
c:/st/stm32cubeide_1.6.1/stm32cubeide/plugins/com.st.stm32cube.ide.mcu.externaltools.gnu-tools-for-stm32.9-2020-q2-update.win32_1.5.0.202011040924/tools/bin/../lib/gcc/arm-none-eabi/9.3.1/../../../../arm-none-eabi/lib/thumb/v7e-m+fp/hard\libc_nano.a(lib_a-memset.o)
                              c:/st/stm32cubeide_1.6.1/stm32cubeide/plugins/com.st.stm32cube.ide.mcu.externaltools.gnu-tools-for-stm32.9-2020-q2-update.win32_1.5.0.202011040924/tools/bin/../lib/gcc/arm-none-eabi/9.3.1/../../../../arm-none-eabi/lib/thumb/v7e-m+fp/hard/crt0.o (memset)
c:/st/stm32cubeide_1.6.1/stm32cubeide/plugins/com.st.stm32cube.ide.mcu.externaltools.gnu-tools-for-stm32.9-2020-q2-update.win32_1.5.0.202011040924/tools/bin/../lib/gcc/arm-none-eabi/9.3.1/thumb/v7e-m+fp/hard\libgcc.a(_arm_muldf3.o)
                              Drivers/BSP/Components/L6470/L6470.o (__aeabi_dmul)
c:/st/stm32cubeide_1.6.1/stm32cubeide/plugins/com.st.stm32cube.ide.mcu.externaltools.gnu-tools-for-stm32.9-2020-q2-update.win32_1.5.0.202011040924/tools/bin/../lib/gcc/arm-none-eabi/9.3.1/thumb/v7e-m+fp/hard\libgcc.a(_arm_addsubdf3.o)
                              Drivers/BSP/Components/L6470/L6470.o (__aeabi_dadd)
c:/st/stm32cubeide_1.6.1/stm32cubeide/plugins/com.st.stm32cube.ide.mcu.externaltools.gnu-tools-for-stm32.9-2020-q2-update.win32_1.5.0.202011040924/tools/bin/../lib/gcc/arm-none-eabi/9.3.1/thumb/v7e-m+fp/hard\libgcc.a(_arm_truncdfsf2.o)
                              Drivers/BSP/Components/L6470/L6470.o (__aeabi_d2f)

Allocating common symbols
Common symbol       size              file

L6470_DaisyChainSpiRxStruct
                    0x8               Drivers/BSP/Components/L6470/L6470.o
MotorParameterDataGlobal
                    0x4               Example/User/example.o
hspi2               0x60              Drivers/BSP/X-NUCLEO-IHM02A1/xnucleoihm02a1_interface.o
L6470_DaisyChainSpiTxStruct
                    0x8               Drivers/BSP/Components/L6470/L6470.o
L6470_nCS_GPIO      0xc               Drivers/BSP/X-NUCLEO-IHM02A1/xnucleoihm02a1.o
L6470_AppCmdPkg     0x20              Drivers/BSP/Components/L6470/L6470.o
pFlash              0x20              Drivers/STM32F0xx_HAL_Driver/stm32f3xx_hal_flash.o
MotorParameterDataSingle
                    0x4               Example/User/example.o
StatusBuffer        0x4               Drivers/BSP/X-NUCLEO-IHM02A1/xnucleoihm02a1.o
hadc1               0x4c              Drivers/BSP/X-NUCLEO-IHM02A1/xnucleoihm02a1_interface.o
L6470_StatusRegister
                    0x2               Drivers/BSP/Components/L6470/L6470.o
L6470_DaisyChainMnemonic
                    0x1a              Example/User/example_usart.o
huart2              0x6c              Example/User/example_usart.o
L6470_TextCommandBundle
                    0x60              Example/User/example_usart.o
StepperMotorBoardHandle
                    0x4               Example/User/example.o
UsartTextString     0x40              Example/User/example_usart.o
delay_cnt           0x1               Drivers/BSP/Components/L6470/L6470.o

Discarded input sections

 .text          0x0000000000000000        0x0 c:/st/stm32cubeide_1.6.1/stm32cubeide/plugins/com.st.stm32cube.ide.mcu.externaltools.gnu-tools-for-stm32.9-2020-q2-update.win32_1.5.0.202011040924/tools/bin/../lib/gcc/arm-none-eabi/9.3.1/thumb/v7e-m+fp/hard/crti.o
 .data          0x0000000000000000        0x0 c:/st/stm32cubeide_1.6.1/stm32cubeide/plugins/com.st.stm32cube.ide.mcu.externaltools.gnu-tools-for-stm32.9-2020-q2-update.win32_1.5.0.202011040924/tools/bin/../lib/gcc/arm-none-eabi/9.3.1/thumb/v7e-m+fp/hard/crti.o
 .bss           0x0000000000000000        0x0 c:/st/stm32cubeide_1.6.1/stm32cubeide/plugins/com.st.stm32cube.ide.mcu.externaltools.gnu-tools-for-stm32.9-2020-q2-update.win32_1.5.0.202011040924/tools/bin/../lib/gcc/arm-none-eabi/9.3.1/thumb/v7e-m+fp/hard/crti.o
 .data          0x0000000000000000        0x4 c:/st/stm32cubeide_1.6.1/stm32cubeide/plugins/com.st.stm32cube.ide.mcu.externaltools.gnu-tools-for-stm32.9-2020-q2-update.win32_1.5.0.202011040924/tools/bin/../lib/gcc/arm-none-eabi/9.3.1/thumb/v7e-m+fp/hard/crtbegin.o
 .text          0x0000000000000000       0x7c c:/st/stm32cubeide_1.6.1/stm32cubeide/plugins/com.st.stm32cube.ide.mcu.externaltools.gnu-tools-for-stm32.9-2020-q2-update.win32_1.5.0.202011040924/tools/bin/../lib/gcc/arm-none-eabi/9.3.1/../../../../arm-none-eabi/lib/thumb/v7e-m+fp/hard/crt0.o
 .data          0x0000000000000000        0x0 c:/st/stm32cubeide_1.6.1/stm32cubeide/plugins/com.st.stm32cube.ide.mcu.externaltools.gnu-tools-for-stm32.9-2020-q2-update.win32_1.5.0.202011040924/tools/bin/../lib/gcc/arm-none-eabi/9.3.1/../../../../arm-none-eabi/lib/thumb/v7e-m+fp/hard/crt0.o
 .bss           0x0000000000000000        0x0 c:/st/stm32cubeide_1.6.1/stm32cubeide/plugins/com.st.stm32cube.ide.mcu.externaltools.gnu-tools-for-stm32.9-2020-q2-update.win32_1.5.0.202011040924/tools/bin/../lib/gcc/arm-none-eabi/9.3.1/../../../../arm-none-eabi/lib/thumb/v7e-m+fp/hard/crt0.o
 .ARM.extab     0x0000000000000000        0x0 c:/st/stm32cubeide_1.6.1/stm32cubeide/plugins/com.st.stm32cube.ide.mcu.externaltools.gnu-tools-for-stm32.9-2020-q2-update.win32_1.5.0.202011040924/tools/bin/../lib/gcc/arm-none-eabi/9.3.1/../../../../arm-none-eabi/lib/thumb/v7e-m+fp/hard/crt0.o
 .ARM.exidx     0x0000000000000000       0x10 c:/st/stm32cubeide_1.6.1/stm32cubeide/plugins/com.st.stm32cube.ide.mcu.externaltools.gnu-tools-for-stm32.9-2020-q2-update.win32_1.5.0.202011040924/tools/bin/../lib/gcc/arm-none-eabi/9.3.1/../../../../arm-none-eabi/lib/thumb/v7e-m+fp/hard/crt0.o
 .ARM.attributes
                0x0000000000000000       0x1c c:/st/stm32cubeide_1.6.1/stm32cubeide/plugins/com.st.stm32cube.ide.mcu.externaltools.gnu-tools-for-stm32.9-2020-q2-update.win32_1.5.0.202011040924/tools/bin/../lib/gcc/arm-none-eabi/9.3.1/../../../../arm-none-eabi/lib/thumb/v7e-m+fp/hard/crt0.o
 .group         0x0000000000000000        0xc Drivers/BSP/Components/L6470/L6470.o
 .group         0x0000000000000000        0xc Drivers/BSP/Components/L6470/L6470.o
 .group         0x0000000000000000        0xc Drivers/BSP/Components/L6470/L6470.o
 .group         0x0000000000000000        0xc Drivers/BSP/Components/L6470/L6470.o
 .group         0x0000000000000000        0xc Drivers/BSP/Components/L6470/L6470.o
 .group         0x0000000000000000        0xc Drivers/BSP/Components/L6470/L6470.o
 .group         0x0000000000000000        0xc Drivers/BSP/Components/L6470/L6470.o
Memory Configuration

Name             Origin             Length             Attributes
FLASH            0x0000000008000000 0x0000000000010000 xr
RAM              0x0000000020000000 0x0000000000004000 xrw
*default*        0x0000000000000000 0xffffffffffffffff

Linker script and memory map

LOAD c:/st/stm32cubeide_1.6.1/stm32cubeide/plugins/com.st.stm32cube.ide.mcu.externaltools.gnu-tools-for-stm32.9-2020-q2-update.win32_1.5.0.202011040924/tools/bin/../lib/gcc/arm-none-eabi/9.3.1/thumb/v7e-m+fp/hard/crti.o
LOAD c:/st/stm32cubeide_1.6.1/stm32cubeide/plugins/com.st.stm32cube.ide.mcu.externaltools.gnu-tools-for-stm32.9-2020-q2-update.win32_1.5.0.202011040924/tools/bin/../lib/gcc/arm-none-eabi/9.3.1/thumb/v7e-m+fp/hard/crtbegin.o
LOAD c:/st/stm32cubeide_1.6.1/stm32cubeide/plugins/com.st.stm32cube.ide.mcu.externaltools.gnu-tools-for-stm32.9-2020-q2-update.win32_1.5.0.202011040924/tools/bin/../lib/gcc/arm-none-eabi/9.3.1/../../../../arm-none-eabi/lib/thumb/v7e-m+fp/hard/crt0.o
LOAD Drivers/BSP/Components/L6470/L6470.o
LOAD Drivers/BSP/STM32F0xx-Nucleo/stm32f3xx_nucleo.o
LOAD Drivers/BSP/X-NUCLEO-IHM02A1/xnucleoihm02a1.o
LOAD Drivers/BSP/X-NUCLEO-IHM02A1/xnucleoihm02a1_interface.o
LOAD Drivers/CMSIS/system_stm32f3xx.o
LOAD Drivers/STM32F0xx_HAL_Driver/stm32f3xx_hal.o
LOAD Drivers/STM32F0xx_HAL_Driver/stm32f3xx_hal_adc.o
LOAD Drivers/STM32F0xx_HAL_Driver/stm32f3xx_hal_adc_ex.o
LOAD Drivers/STM32F0xx_HAL_Driver/stm32f3xx_hal_cortex.o
LOAD Drivers/STM32F0xx_HAL_Driver/stm32f3xx_hal_dma.o
LOAD Drivers/STM32F0xx_HAL_Driver/stm32f3xx_hal_flash.o
LOAD Drivers/STM32F0xx_HAL_Driver/stm32f3xx_hal_flash_ex.o
LOAD Drivers/STM32F0xx_HAL_Driver/stm32f3xx_hal_gpio.o
LOAD Drivers/STM32F0xx_HAL_Driver/stm32f3xx_hal_pwr.o
LOAD Drivers/STM32F0xx_HAL_Driver/stm32f3xx_hal_pwr_ex.o
LOAD Drivers/STM32F0xx_HAL_Driver/stm32f3xx_hal_rcc.o
LOAD Drivers/STM32F0xx_HAL_Driver/stm32f3xx_hal_rcc_ex.o
LOAD Drivers/STM32F0xx_HAL_Driver/stm32f3xx_hal_spi.o
LOAD Drivers/STM32F0xx_HAL_Driver/stm32f3xx_hal_uart.o
LOAD Drivers/STM32F0xx_HAL_Driver/stm32f3xx_hal_uart_ex.o
LOAD Example/SW4STM32/startup_stm32f302x8.o
LOAD Example/SW4STM32/syscalls.o
LOAD Example/User/example.o
LOAD Example/User/example_usart.o
LOAD Example/User/main.o
LOAD Example/User/params.o
LOAD Example/User/stm32f3xx_hal_msp.o
LOAD Example/User/stm32f3xx_it.o
START GROUP
LOAD c:/st/stm32cubeide_1.6.1/stm32cubeide/plugins/com.st.stm32cube.ide.mcu.externaltools.gnu-tools-for-stm32.9-2020-q2-update.win32_1.5.0.202011040924/tools/bin/../lib/gcc/arm-none-eabi/9.3.1/../../../../arm-none-eabi/lib/thumb/v7e-m+fp/hard\libc_nano.a
LOAD c:/st/stm32cubeide_1.6.1/stm32cubeide/plugins/com.st.stm32cube.ide.mcu.externaltools.gnu-tools-for-stm32.9-2020-q2-update.win32_1.5.0.202011040924/tools/bin/../lib/gcc/arm-none-eabi/9.3.1/../../../../arm-none-eabi/lib/thumb/v7e-m+fp/hard\libm.a
END GROUP
START GROUP
LOAD c:/st/stm32cubeide_1.6.1/stm32cubeide/plugins/com.st.stm32cube.ide.mcu.externaltools.gnu-tools-for-stm32.9-2020-q2-update.win32_1.5.0.202011040924/tools/bin/../lib/gcc/arm-none-eabi/9.3.1/thumb/v7e-m+fp/hard\libgcc.a
LOAD c:/st/stm32cubeide_1.6.1/stm32cubeide/plugins/com.st.stm32cube.ide.mcu.externaltools.gnu-tools-for-stm32.9-2020-q2-update.win32_1.5.0.202011040924/tools/bin/../lib/gcc/arm-none-eabi/9.3.1/../../../../arm-none-eabi/lib/thumb/v7e-m+fp/hard\libc_nano.a
END GROUP
START GROUP
LOAD c:/st/stm32cubeide_1.6.1/stm32cubeide/plugins/com.st.stm32cube.ide.mcu.externaltools.gnu-tools-for-stm32.9-2020-q2-update.win32_1.5.0.202011040924/tools/bin/../lib/gcc/arm-none-eabi/9.3.1/thumb/v7e-m+fp/hard\libgcc.a
LOAD c:/st/stm32cubeide_1.6.1/stm32cubeide/plugins/com.st.stm32cube.ide.mcu.externaltools.gnu-tools-for-stm32.9-2020-q2-update.win32_1.5.0.202011040924/tools/bin/../lib/gcc/arm-none-eabi/9.3.1/../../../../arm-none-eabi/lib/thumb/v7e-m+fp/hard\libc_nano.a
LOAD c:/st/stm32cubeide_1.6.1/stm32cubeide/plugins/com.st.stm32cube.ide.mcu.externaltools.gnu-tools-for-stm32.9-2020-q2-update.win32_1.5.0.202011040924/tools/bin/../lib/gcc/arm-none-eabi/9.3.1/../../../../arm-none-eabi/lib/thumb/v7e-m+fp/hard\libnosys.a
END GROUP
START GROUP
LOAD c:/st/stm32cubeide_1.6.1/stm32cubeide/plugins/com.st.stm32cube.ide.mcu.externaltools.gnu-tools-for-stm32.9-2020-q2-update.win32_1.5.0.202011040924/tools/bin/../lib/gcc/arm-none-eabi/9.3.1/thumb/v7e-m+fp/hard\libgcc.a
LOAD c:/st/stm32cubeide_1.6.1/stm32cubeide/plugins/com.st.stm32cube.ide.mcu.externaltools.gnu-tools-for-stm32.9-2020-q2-update.win32_1.5.0.202011040924/tools/bin/../lib/gcc/arm-none-eabi/9.3.1/../../../../arm-none-eabi/lib/thumb/v7e-m+fp/hard\libc_nano.a
LOAD c:/st/stm32cubeide_1.6.1/stm32cubeide/plugins/com.st.stm32cube.ide.mcu.externaltools.gnu-tools-for-stm32.9-2020-q2-update.win32_1.5.0.202011040924/tools/bin/../lib/gcc/arm-none-eabi/9.3.1/../../../../arm-none-eabi/lib/thumb/v7e-m+fp/hard\libnosys.a
END GROUP
LOAD c:/st/stm32cubeide_1.6.1/stm32cubeide/plugins/com.st.stm32cube.ide.mcu.externaltools.gnu-tools-for-stm32.9-2020-q2-update.win32_1.5.0.202011040924/tools/bin/../lib/gcc/arm-none-eabi/9.3.1/thumb/v7e-m+fp/hard/crtend.o
LOAD c:/st/stm32cubeide_1.6.1/stm32cubeide/plugins/com.st.stm32cube.ide.mcu.externaltools.gnu-tools-for-stm32.9-2020-q2-update.win32_1.5.0.202011040924/tools/bin/../lib/gcc/arm-none-eabi/9.3.1/thumb/v7e-m+fp/hard/crtn.o
                0x0000000020004000                _estack = 0x20004000
                0x0000000000000200                _Min_Heap_Size = 0x200
                0x0000000000000400                _Min_Stack_Size = 0x400

.isr_vector     0x0000000008000000      0x188
                0x0000000008000000                . = ALIGN (0x4)
 *(.isr_vector)
 .isr_vector    0x0000000008000000      0x188 Example/SW4STM32/startup_stm32f302x8.o
                0x0000000008000000                g_pfnVectors
                0x0000000008000188                . = ALIGN (0x4)

.text           0x0000000008000188     0x3fa4
                0x0000000008000188                . = ALIGN (0x4)
 *(.text)
 .text          0x0000000008000188       0x40 c:/st/stm32cubeide_1.6.1/stm32cubeide/plugins/com.st.stm32cube.ide.mcu.externaltools.gnu-tools-for-stm32.9-2020-q2-update.win32_1.5.0.202011040924/tools/bin/../lib/gcc/arm-none-eabi/9.3.1/thumb/v7e-m+fp/hard/crtbegin.o
 *(.text*)
 .text.L6470_ResetAppCmdPkg
                0x00000000080001c8       0x14 Drivers/BSP/Components/L6470/L6470.o
                0x00000000080001c8                L6470_ResetAppCmdPkg
 .text.L6470_PrepareAppCmdPkg
                0x00000000080001dc       0x38 Drivers/BSP/Components/L6470/L6470.o
                0x00000000080001dc                L6470_PrepareAppCmdPkg
 .text.L6470_PrepareSetParam
                0x0000000008000214       0x20 Drivers/BSP/Components/L6470/L6470.o
                0x0000000008000214                L6470_PrepareSetParam
 .text.L6470_PrepareGetParam
                0x0000000008000234       0x20 Drivers/BSP/Components/L6470/L6470.o
                0x0000000008000234                L6470_PrepareGetParam
 .text.L6470_PrepareRun
                0x0000000008000254       0x20 Drivers/BSP/Components/L6470/L6470.o
                0x0000000008000254                L6470_PrepareRun
 .text.L6470_PrepareStepClock
                0x0000000008000274       0x20 Drivers/BSP/Components/L6470/L6470.o
                0x0000000008000274                L6470_PrepareStepClock
 .text.L6470_PrepareMove
                0x0000000008000294       0x20 Drivers/BSP/Components/L6470/L6470.o
                0x0000000008000294                L6470_PrepareMove
 .text.L6470_PrepareGoTo
                0x00000000080002b4       0x20 Drivers/BSP/Components/L6470/L6470.o
                0x00000000080002b4                L6470_PrepareGoTo
 .text.L6470_PrepareGoToDir
                0x00000000080002d4       0x20 Drivers/BSP/Components/L6470/L6470.o
                0x00000000080002d4                L6470_PrepareGoToDir
 .text.L6470_PrepareGoUntil
                0x00000000080002f4       0x1c Drivers/BSP/Components/L6470/L6470.o
                0x00000000080002f4                L6470_PrepareGoUntil
 .text.L6470_PrepareReleaseSW
                0x0000000008000310       0x20 Drivers/BSP/Components/L6470/L6470.o
                0x0000000008000310                L6470_PrepareReleaseSW
 .text.L6470_PrepareGoHome
                0x0000000008000330       0x1c Drivers/BSP/Components/L6470/L6470.o
                0x0000000008000330                L6470_PrepareGoHome
 .text.L6470_PrepareGoMark
                0x000000000800034c       0x1c Drivers/BSP/Components/L6470/L6470.o
                0x000000000800034c                L6470_PrepareGoMark
 .text.L6470_PrepareResetPos
                0x0000000008000368       0x1c Drivers/BSP/Components/L6470/L6470.o
                0x0000000008000368                L6470_PrepareResetPos
 .text.L6470_PrepareResetDevice
                0x0000000008000384       0x1c Drivers/BSP/Components/L6470/L6470.o
                0x0000000008000384                L6470_PrepareResetDevice
 .text.L6470_PrepareSoftStop
                0x00000000080003a0       0x1c Drivers/BSP/Components/L6470/L6470.o
                0x00000000080003a0                L6470_PrepareSoftStop
 .text.L6470_PrepareHardStop
                0x00000000080003bc       0x1c Drivers/BSP/Components/L6470/L6470.o
                0x00000000080003bc                L6470_PrepareHardStop
 .text.L6470_PrepareSoftHiZ
                0x00000000080003d8       0x1c Drivers/BSP/Components/L6470/L6470.o
                0x00000000080003d8                L6470_PrepareSoftHiZ
 .text.L6470_PrepareHardHiZ
                0x00000000080003f4       0x1c Drivers/BSP/Components/L6470/L6470.o
                0x00000000080003f4                L6470_PrepareHardHiZ
 .text.L6470_PrepareGetStatus
                0x0000000008000410       0x1c Drivers/BSP/Components/L6470/L6470.o
                0x0000000008000410                L6470_PrepareGetStatus
 .text.L6470_PrepareDaisyChainCommand
                0x000000000800042c      0x1b8 Drivers/BSP/Components/L6470/L6470.o
                0x000000000800042c                L6470_PrepareDaisyChainCommand
 .text.Step_s_2_Speed
                0x00000000080005e4       0x2c Drivers/BSP/Components/L6470/L6470.o
                0x00000000080005e4                Step_s_2_Speed
 .text.Step_s2_2_Acc
                0x0000000008000610       0x30 Drivers/BSP/Components/L6470/L6470.o
                0x0000000008000610                Step_s2_2_Acc
 .text.Step_s2_2_Dec
                0x0000000008000640       0x30 Drivers/BSP/Components/L6470/L6470.o
                0x0000000008000640                Step_s2_2_Dec
 .text.Step_s_2_MaxSpeed
                0x0000000008000670       0x30 Drivers/BSP/Components/L6470/L6470.o
                0x0000000008000670                Step_s_2_MaxSpeed
 .text.Step_s_2_MinSpeed
                0x00000000080006a0       0x30 Drivers/BSP/Components/L6470/L6470.o
                0x00000000080006a0                Step_s_2_MinSpeed
 .text.Step_s_2_FsSpd
                0x00000000080006d0       0x38 Drivers/BSP/Components/L6470/L6470.o
                0x00000000080006d0                Step_s_2_FsSpd
 .text.Step_s_2_IntSpeed
                0x0000000008000708       0x30 Drivers/BSP/Components/L6470/L6470.o
                0x0000000008000708                Step_s_2_IntSpeed
 .text.s_Step_2_StSlp
                0x0000000008000738       0x34 Drivers/BSP/Components/L6470/L6470.o
                0x0000000008000738                s_Step_2_StSlp
 .text.s_Step_2_FnSlpAcc
                0x000000000800076c       0x34 Drivers/BSP/Components/L6470/L6470.o
                0x000000000800076c                s_Step_2_FnSlpAcc
 .text.s_Step_2_FnSlpDec
                0x00000000080007a0       0x34 Drivers/BSP/Components/L6470/L6470.o
                0x00000000080007a0                s_Step_2_FnSlpDec
 .text.mA_2_OcdTh
                0x00000000080007d4       0x54 Drivers/BSP/Components/L6470/L6470.o
                0x00000000080007d4                mA_2_OcdTh
 .text.mA_2_StallTh
                0x0000000008000828       0x54 Drivers/BSP/Components/L6470/L6470.o
                0x0000000008000828                mA_2_StallTh
 .text.L6470_ID
                0x000000000800087c        0x8 Drivers/BSP/Components/L6470/L6470.o
                0x000000000800087c                L6470_ID
 .text.L6470_DaisyChainCommand
                0x0000000008000884       0x6c Drivers/BSP/Components/L6470/L6470.o
                0x0000000008000884                L6470_DaisyChainCommand
 .text.L6470_SetParam
                0x00000000080008f0       0x38 Drivers/BSP/Components/L6470/L6470.o
                0x00000000080008f0                L6470_SetParam
 .text.L6470_Run
                0x0000000008000928       0x38 Drivers/BSP/Components/L6470/L6470.o
                0x0000000008000928                L6470_Run
 .text.L6470_StepClock
                0x0000000008000960       0x38 Drivers/BSP/Components/L6470/L6470.o
                0x0000000008000960                L6470_StepClock
 .text.L6470_Move
                0x0000000008000998       0x38 Drivers/BSP/Components/L6470/L6470.o
                0x0000000008000998                L6470_Move
 .text.L6470_GoTo
                0x00000000080009d0       0x40 Drivers/BSP/Components/L6470/L6470.o
                0x00000000080009d0                L6470_GoTo
 .text.L6470_GoToDir
                0x0000000008000a10       0x40 Drivers/BSP/Components/L6470/L6470.o
                0x0000000008000a10                L6470_GoToDir
 .text.L6470_GoUntil
                0x0000000008000a50       0x38 Drivers/BSP/Components/L6470/L6470.o
                0x0000000008000a50                L6470_GoUntil
 .text.L6470_ReleaseSW
                0x0000000008000a88       0x38 Drivers/BSP/Components/L6470/L6470.o
                0x0000000008000a88                L6470_ReleaseSW
 .text.L6470_GoHome
                0x0000000008000ac0       0x38 Drivers/BSP/Components/L6470/L6470.o
                0x0000000008000ac0                L6470_GoHome
 .text.L6470_GoMark
                0x0000000008000af8       0x38 Drivers/BSP/Components/L6470/L6470.o
                0x0000000008000af8                L6470_GoMark
 .text.L6470_ResetPos
                0x0000000008000b30       0x38 Drivers/BSP/Components/L6470/L6470.o
                0x0000000008000b30                L6470_ResetPos
 .text.L6470_ResetDevice
                0x0000000008000b68       0x38 Drivers/BSP/Components/L6470/L6470.o
                0x0000000008000b68                L6470_ResetDevice
 .text.L6470_SoftStop
                0x0000000008000ba0       0x38 Drivers/BSP/Components/L6470/L6470.o
                0x0000000008000ba0                L6470_SoftStop
 .text.L6470_HardStop
                0x0000000008000bd8       0x38 Drivers/BSP/Components/L6470/L6470.o
                0x0000000008000bd8                L6470_HardStop
 .text.L6470_SoftHiZ
                0x0000000008000c10       0x38 Drivers/BSP/Components/L6470/L6470.o
                0x0000000008000c10                L6470_SoftHiZ
 .text.L6470_HardHiZ
                0x0000000008000c48       0x38 Drivers/BSP/Components/L6470/L6470.o
                0x0000000008000c48                L6470_HardHiZ
 .text.L6470_PerformPreparedApplicationCommand
                0x0000000008000c80       0x28 Drivers/BSP/Components/L6470/L6470.o
                0x0000000008000c80                L6470_PerformPreparedApplicationCommand
 .text.L6470_ExtractReturnedData
                0x0000000008000ca8       0x26 Drivers/BSP/Components/L6470/L6470.o
                0x0000000008000ca8                L6470_ExtractReturnedData
 *fill*         0x0000000008000cce        0x2 
 .text.L6470_GetParam
                0x0000000008000cd0       0x58 Drivers/BSP/Components/L6470/L6470.o
                0x0000000008000cd0                L6470_GetParam
 .text.L6470_CheckStatusRegisterFlag
                0x0000000008000d28       0xe0 Drivers/BSP/Components/L6470/L6470.o
                0x0000000008000d28                L6470_CheckStatusRegisterFlag
 .text.L6470_GetStatus
                0x0000000008000e08       0x48 Drivers/BSP/Components/L6470/L6470.o
                0x0000000008000e08                L6470_GetStatus
 .text.L6470_GetRegisterName
                0x0000000008000e50       0x20 Drivers/BSP/Components/L6470/L6470.o
                0x0000000008000e50                L6470_GetRegisterName
 .text.L6470_Config
                0x0000000008000e70      0x214 Drivers/BSP/Components/L6470/L6470.o
                0x0000000008000e70                L6470_Config
 .text.BSP_LED_On
                0x0000000008001084       0x1c Drivers/BSP/STM32F0xx-Nucleo/stm32f3xx_nucleo.o
                0x0000000008001084                BSP_LED_On
 .text.BSP_PB_Init
                0x00000000080010a0       0x84 Drivers/BSP/STM32F0xx-Nucleo/stm32f3xx_nucleo.o
                0x00000000080010a0                BSP_PB_Init
 .text.BSP_Select
                0x0000000008001124       0x24 Drivers/BSP/X-NUCLEO-IHM02A1/xnucleoihm02a1.o
                0x0000000008001124                BSP_Select
 .text.BSP_L6470_ResetDevice
                0x0000000008001148       0x14 Drivers/BSP/X-NUCLEO-IHM02A1/xnucleoihm02a1.o
                0x0000000008001148                BSP_L6470_ResetDevice
 .text.BSP_L6470_GetStatus
                0x000000000800115c       0x16 Drivers/BSP/X-NUCLEO-IHM02A1/xnucleoihm02a1.o
                0x000000000800115c                BSP_L6470_GetStatus
 .text.BSP_L6470_SetParam
                0x0000000008001172       0x1c Drivers/BSP/X-NUCLEO-IHM02A1/xnucleoihm02a1.o
                0x0000000008001172                BSP_L6470_SetParam
 .text.BSP_L6470_GetParam
                0x000000000800118e       0x1a Drivers/BSP/X-NUCLEO-IHM02A1/xnucleoihm02a1.o
                0x000000000800118e                BSP_L6470_GetParam
 .text.BSP_L6470_Run
                0x00000000080011a8       0x1c Drivers/BSP/X-NUCLEO-IHM02A1/xnucleoihm02a1.o
                0x00000000080011a8                BSP_L6470_Run
 .text.BSP_L6470_StepClock
                0x00000000080011c4       0x18 Drivers/BSP/X-NUCLEO-IHM02A1/xnucleoihm02a1.o
                0x00000000080011c4                BSP_L6470_StepClock
 .text.BSP_L6470_Move
                0x00000000080011dc       0x1c Drivers/BSP/X-NUCLEO-IHM02A1/xnucleoihm02a1.o
                0x00000000080011dc                BSP_L6470_Move
 .text.BSP_L6470_GoTo
                0x00000000080011f8       0x18 Drivers/BSP/X-NUCLEO-IHM02A1/xnucleoihm02a1.o
                0x00000000080011f8                BSP_L6470_GoTo
 .text.BSP_L6470_GoToDir
                0x0000000008001210       0x1c Drivers/BSP/X-NUCLEO-IHM02A1/xnucleoihm02a1.o
                0x0000000008001210                BSP_L6470_GoToDir
 .text.BSP_L6470_GoUntil
                0x000000000800122c       0x1e Drivers/BSP/X-NUCLEO-IHM02A1/xnucleoihm02a1.o
                0x000000000800122c                BSP_L6470_GoUntil
 .text.BSP_L6470_ReleaseSW
                0x000000000800124a       0x1c Drivers/BSP/X-NUCLEO-IHM02A1/xnucleoihm02a1.o
                0x000000000800124a                BSP_L6470_ReleaseSW
 .text.BSP_L6470_GoHome
                0x0000000008001266       0x14 Drivers/BSP/X-NUCLEO-IHM02A1/xnucleoihm02a1.o
                0x0000000008001266                BSP_L6470_GoHome
 .text.BSP_L6470_GoMark
                0x000000000800127a       0x14 Drivers/BSP/X-NUCLEO-IHM02A1/xnucleoihm02a1.o
                0x000000000800127a                BSP_L6470_GoMark
 .text.BSP_L6470_ResetPos
                0x000000000800128e       0x14 Drivers/BSP/X-NUCLEO-IHM02A1/xnucleoihm02a1.o
                0x000000000800128e                BSP_L6470_ResetPos
 .text.BSP_L6470_SoftStop
                0x00000000080012a2       0x14 Drivers/BSP/X-NUCLEO-IHM02A1/xnucleoihm02a1.o
                0x00000000080012a2                BSP_L6470_SoftStop
 .text.BSP_L6470_HardStop
                0x00000000080012b6       0x14 Drivers/BSP/X-NUCLEO-IHM02A1/xnucleoihm02a1.o
                0x00000000080012b6                BSP_L6470_HardStop
 .text.BSP_L6470_SoftHiZ
                0x00000000080012ca       0x14 Drivers/BSP/X-NUCLEO-IHM02A1/xnucleoihm02a1.o
                0x00000000080012ca                BSP_L6470_SoftHiZ
 .text.BSP_L6470_HardHiZ
                0x00000000080012de       0x14 Drivers/BSP/X-NUCLEO-IHM02A1/xnucleoihm02a1.o
                0x00000000080012de                BSP_L6470_HardHiZ
 .text.BSP_L6470_CheckStatusRegisterFlag
                0x00000000080012f2       0x1a Drivers/BSP/X-NUCLEO-IHM02A1/xnucleoihm02a1.o
                0x00000000080012f2                BSP_L6470_CheckStatusRegisterFlag
 .text.BSP_L6470_0_0_Config
                0x000000000800130c       0x10 Drivers/BSP/X-NUCLEO-IHM02A1/xnucleoihm02a1.o
                0x000000000800130c                BSP_L6470_0_0_Config
 .text.BSP_L6470_0_1_Config
                0x000000000800131c       0x10 Drivers/BSP/X-NUCLEO-IHM02A1/xnucleoihm02a1.o
                0x000000000800131c                BSP_L6470_0_1_Config
 .text.BSP_L6470_1_0_Config
                0x000000000800132c       0x10 Drivers/BSP/X-NUCLEO-IHM02A1/xnucleoihm02a1.o
                0x000000000800132c                BSP_L6470_1_0_Config
 .text.BSP_L6470_1_1_Config
                0x000000000800133c       0x10 Drivers/BSP/X-NUCLEO-IHM02A1/xnucleoihm02a1.o
                0x000000000800133c                BSP_L6470_1_1_Config
 .text.BSP_L6470_2_0_Config
                0x000000000800134c       0x10 Drivers/BSP/X-NUCLEO-IHM02A1/xnucleoihm02a1.o
                0x000000000800134c                BSP_L6470_2_0_Config
 .text.BSP_L6470_2_1_Config
                0x000000000800135c       0x10 Drivers/BSP/X-NUCLEO-IHM02A1/xnucleoihm02a1.o
                0x000000000800135c                BSP_L6470_2_1_Config
 .text.BSP_L6470_3_0_Config
                0x000000000800136c       0x10 Drivers/BSP/X-NUCLEO-IHM02A1/xnucleoihm02a1.o
                0x000000000800136c                BSP_L6470_3_0_Config
 .text.BSP_L6470_3_1_Config
                0x000000000800137c       0x10 Drivers/BSP/X-NUCLEO-IHM02A1/xnucleoihm02a1.o
                0x000000000800137c                BSP_L6470_3_1_Config
 .text.BSP_NUCLEO_GPIO_Init
                0x000000000800138c       0xb8 Drivers/BSP/X-NUCLEO-IHM02A1/xnucleoihm02a1.o
                0x000000000800138c                BSP_NUCLEO_GPIO_Init
 .text.BSP_L6470_Init
                0x0000000008001444       0x68 Drivers/BSP/X-NUCLEO-IHM02A1/xnucleoihm02a1.o
                0x0000000008001444                BSP_L6470_Init
 .text.BSP_IRQ  0x00000000080014ac       0x22 Drivers/BSP/X-NUCLEO-IHM02A1/xnucleoihm02a1.o
                0x00000000080014ac                BSP_IRQ
 .text.EXPBRD_ID
                0x00000000080014ce        0xa Drivers/BSP/X-NUCLEO-IHM02A1/xnucleoihm02a1.o
                0x00000000080014ce                EXPBRD_ID
 .text.BSP_Init
                0x00000000080014d8       0x18 Drivers/BSP/X-NUCLEO-IHM02A1/xnucleoihm02a1.o
                0x00000000080014d8                BSP_Init
 .text.BSP_L6470_BusySynchEventManager
                0x00000000080014f0        0x4 Drivers/BSP/X-NUCLEO-IHM02A1/xnucleoihm02a1.o
                0x00000000080014f0                BSP_L6470_BusySynchEventManager
 .text.BSP_L6470_FlagEventManager
                0x00000000080014f4        0x4 Drivers/BSP/X-NUCLEO-IHM02A1/xnucleoihm02a1.o
                0x00000000080014f4                BSP_L6470_FlagEventManager
 .text.BSP_EmergencyStop
                0x00000000080014f8       0x18 Drivers/BSP/X-NUCLEO-IHM02A1/xnucleoihm02a1.o
                0x00000000080014f8                BSP_EmergencyStop
 .text.BSP_GetExpansionBoardHandle
                0x0000000008001510       0x18 Drivers/BSP/X-NUCLEO-IHM02A1/xnucleoihm02a1.o
                0x0000000008001510                BSP_GetExpansionBoardHandle
 .text.BSP_Config
                0x0000000008001528       0x20 Drivers/BSP/X-NUCLEO-IHM02A1/xnucleoihm02a1.o
                0x0000000008001528                BSP_Config
 .text.BSP_0_Config
                0x0000000008001548       0x10 Drivers/BSP/X-NUCLEO-IHM02A1/xnucleoihm02a1.o
                0x0000000008001548                BSP_0_Config
 .text.BSP_1_Config
                0x0000000008001558       0x10 Drivers/BSP/X-NUCLEO-IHM02A1/xnucleoihm02a1.o
                0x0000000008001558                BSP_1_Config
 .text.BSP_2_Config
                0x0000000008001568       0x10 Drivers/BSP/X-NUCLEO-IHM02A1/xnucleoihm02a1.o
                0x0000000008001568                BSP_2_Config
 .text.BSP_3_Config
                0x0000000008001578       0x10 Drivers/BSP/X-NUCLEO-IHM02A1/xnucleoihm02a1.o
                0x0000000008001578                BSP_3_Config
 .text.SystemClock_Config
                0x0000000008001588       0x58 Drivers/BSP/X-NUCLEO-IHM02A1/xnucleoihm02a1_interface.o
                0x0000000008001588                SystemClock_Config
 .text.MX_GPIO_Init
                0x00000000080015e0        0xc Drivers/BSP/X-NUCLEO-IHM02A1/xnucleoihm02a1_interface.o
                0x00000000080015e0                MX_GPIO_Init
 .text.MX_SPI2_Init
                0x00000000080015ec       0x94 Drivers/BSP/X-NUCLEO-IHM02A1/xnucleoihm02a1_interface.o
                0x00000000080015ec                MX_SPI2_Init
 .text.MX_USART2_Init
                0x0000000008001680       0x30 Drivers/BSP/X-NUCLEO-IHM02A1/xnucleoihm02a1_interface.o
                0x0000000008001680                MX_USART2_Init
 .text.NUCLEO_Board_Init
                0x00000000080016b0       0x18 Drivers/BSP/X-NUCLEO-IHM02A1/xnucleoihm02a1_interface.o
                0x00000000080016b0                NUCLEO_Board_Init
 .text.SystemInit
                0x00000000080016c8       0x68 Drivers/CMSIS/system_stm32f3xx.o
                0x00000000080016c8                SystemInit
 .text.HAL_InitTick
                0x0000000008001730       0x28 Drivers/STM32F0xx_HAL_Driver/stm32f3xx_hal.o
                0x0000000008001730                HAL_InitTick
 .text.HAL_Init
                0x0000000008001758       0x24 Drivers/STM32F0xx_HAL_Driver/stm32f3xx_hal.o
                0x0000000008001758                HAL_Init
 .text.HAL_IncTick
                0x000000000800177c       0x10 Drivers/STM32F0xx_HAL_Driver/stm32f3xx_hal.o
                0x000000000800177c                HAL_IncTick
 .text.HAL_GetTick
                0x000000000800178c        0xc Drivers/STM32F0xx_HAL_Driver/stm32f3xx_hal.o
                0x000000000800178c                HAL_GetTick
 .text.HAL_Delay
                0x0000000008001798       0x1c Drivers/STM32F0xx_HAL_Driver/stm32f3xx_hal.o
                0x0000000008001798                HAL_Delay
 .text.HAL_NVIC_SetPriorityGrouping
                0x00000000080017b4       0x3c Drivers/STM32F0xx_HAL_Driver/stm32f3xx_hal_cortex.o
                0x00000000080017b4                HAL_NVIC_SetPriorityGrouping
 .text.HAL_NVIC_SetPriority
                0x00000000080017f0       0x88 Drivers/STM32F0xx_HAL_Driver/stm32f3xx_hal_cortex.o
                0x00000000080017f0                HAL_NVIC_SetPriority
 .text.HAL_NVIC_EnableIRQ
                0x0000000008001878       0x18 Drivers/STM32F0xx_HAL_Driver/stm32f3xx_hal_cortex.o
                0x0000000008001878                HAL_NVIC_EnableIRQ
 .text.HAL_NVIC_DisableIRQ
                0x0000000008001890       0x1c Drivers/STM32F0xx_HAL_Driver/stm32f3xx_hal_cortex.o
                0x0000000008001890                HAL_NVIC_DisableIRQ
 .text.HAL_SYSTICK_Config
                0x00000000080018ac       0x2c Drivers/STM32F0xx_HAL_Driver/stm32f3xx_hal_cortex.o
                0x00000000080018ac                HAL_SYSTICK_Config
 .text.HAL_SYSTICK_Callback
                0x00000000080018d8        0x2 Drivers/STM32F0xx_HAL_Driver/stm32f3xx_hal_cortex.o
                0x00000000080018d8                HAL_SYSTICK_Callback
 .text.HAL_SYSTICK_IRQHandler
                0x00000000080018da        0x8 Drivers/STM32F0xx_HAL_Driver/stm32f3xx_hal_cortex.o
                0x00000000080018da                HAL_SYSTICK_IRQHandler
 *fill*         0x00000000080018e2        0x2 
 .text.HAL_GPIO_Init
                0x00000000080018e4      0x220 Drivers/STM32F0xx_HAL_Driver/stm32f3xx_hal_gpio.o
                0x00000000080018e4                HAL_GPIO_Init
 .text.HAL_GPIO_WritePin
                0x0000000008001b04       0x34 Drivers/STM32F0xx_HAL_Driver/stm32f3xx_hal_gpio.o
                0x0000000008001b04                HAL_GPIO_WritePin
 .text.HAL_GPIO_EXTI_IRQHandler
                0x0000000008001b38       0x1c Drivers/STM32F0xx_HAL_Driver/stm32f3xx_hal_gpio.o
                0x0000000008001b38                HAL_GPIO_EXTI_IRQHandler
 .text.HAL_RCC_ClockConfig
                0x0000000008001b54      0x3c0 Drivers/STM32F0xx_HAL_Driver/stm32f3xx_hal_rcc.o
                0x0000000008001b54                HAL_RCC_ClockConfig
 .text.HAL_RCC_GetHCLKFreq
                0x0000000008001f14       0x34 Drivers/STM32F0xx_HAL_Driver/stm32f3xx_hal_rcc.o
                0x0000000008001f14                HAL_RCC_GetHCLKFreq
 .text.HAL_RCC_GetPCLK1Freq
                0x0000000008001f48       0x2c Drivers/STM32F0xx_HAL_Driver/stm32f3xx_hal_rcc.o
                0x0000000008001f48                HAL_RCC_GetPCLK1Freq
 .text.HAL_RCC_GetPCLK2Freq
                0x0000000008001f74       0x2c Drivers/STM32F0xx_HAL_Driver/stm32f3xx_hal_rcc.o
                0x0000000008001f74                HAL_RCC_GetPCLK2Freq
 .text.HAL_RCCEx_PeriphCLKConfig
                0x0000000008001fa0      0x344 Drivers/STM32F0xx_HAL_Driver/stm32f3xx_hal_rcc_ex.o
                0x0000000008001fa0                HAL_RCCEx_PeriphCLKConfig
 .text.HAL_RCC_OscConfig
                0x00000000080022e4      0x63c Drivers/STM32F0xx_HAL_Driver/stm32f3xx_hal_rcc_ex.o
                0x00000000080022e4                HAL_RCC_OscConfig
 .text.HAL_RCC_GetSysClockFreq
                0x0000000008002920       0x6c Drivers/STM32F0xx_HAL_Driver/stm32f3xx_hal_rcc_ex.o
                0x0000000008002920                HAL_RCC_GetSysClockFreq
 .text.SPI_WaitFlagStateUntilTimeout
                0x000000000800298c       0xa0 Drivers/STM32F0xx_HAL_Driver/stm32f3xx_hal_spi.o
 .text.SPI_WaitFifoStateUntilTimeout
                0x0000000008002a2c       0xbe Drivers/STM32F0xx_HAL_Driver/stm32f3xx_hal_spi.o
 .text.SPI_EndRxTxTransaction
                0x0000000008002aea       0x62 Drivers/STM32F0xx_HAL_Driver/stm32f3xx_hal_spi.o
 .text.HAL_SPI_Init
                0x0000000008002b4c      0x230 Drivers/STM32F0xx_HAL_Driver/stm32f3xx_hal_spi.o
                0x0000000008002b4c                HAL_SPI_Init
 .text.HAL_SPI_TransmitReceive
                0x0000000008002d7c      0x314 Drivers/STM32F0xx_HAL_Driver/stm32f3xx_hal_spi.o
                0x0000000008002d7c                HAL_SPI_TransmitReceive
 .text.UART_WaitOnFlagUntilTimeout
                0x0000000008003090       0xc6 Drivers/STM32F0xx_HAL_Driver/stm32f3xx_hal_uart.o
                0x0000000008003090                UART_WaitOnFlagUntilTimeout
 .text.HAL_UART_Transmit
                0x0000000008003156       0xc8 Drivers/STM32F0xx_HAL_Driver/stm32f3xx_hal_uart.o
                0x0000000008003156                HAL_UART_Transmit
 .text.HAL_UART_TxCpltCallback
                0x000000000800321e        0x2 Drivers/STM32F0xx_HAL_Driver/stm32f3xx_hal_uart.o
                0x000000000800321e                HAL_UART_TxCpltCallback
 .text.HAL_UART_RxCpltCallback
                0x0000000008003220        0x2 Drivers/STM32F0xx_HAL_Driver/stm32f3xx_hal_uart.o
                0x0000000008003220                HAL_UART_RxCpltCallback
 .text.HAL_UART_ErrorCallback
                0x0000000008003222        0x2 Drivers/STM32F0xx_HAL_Driver/stm32f3xx_hal_uart.o
                0x0000000008003222                HAL_UART_ErrorCallback
 .text.HAL_UART_WakeupCallback
                0x0000000008003224        0x2 Drivers/STM32F0xx_HAL_Driver/stm32f3xx_hal_uart.o
                0x0000000008003224                HAL_UART_WakeupCallback
 .text.HAL_UART_IRQHandler
                0x0000000008003226      0x23e Drivers/STM32F0xx_HAL_Driver/stm32f3xx_hal_uart.o
                0x0000000008003226                HAL_UART_IRQHandler
 .text.UART_SetConfig
                0x0000000008003464      0x29c Drivers/STM32F0xx_HAL_Driver/stm32f3xx_hal_uart.o
                0x0000000008003464                UART_SetConfig
 .text.UART_AdvFeatureConfig
                0x0000000008003700      0x1a4 Drivers/STM32F0xx_HAL_Driver/stm32f3xx_hal_uart.o
                0x0000000008003700                UART_AdvFeatureConfig
 .text.UART_CheckIdleState
                0x00000000080038a4       0x5a Drivers/STM32F0xx_HAL_Driver/stm32f3xx_hal_uart.o
                0x00000000080038a4                UART_CheckIdleState
 *fill*         0x00000000080038fe        0x2 
 .text.HAL_UART_Init
                0x0000000008003900       0xb8 Drivers/STM32F0xx_HAL_Driver/stm32f3xx_hal_uart.o
                0x0000000008003900                HAL_UART_Init
 .text.Reset_Handler
                0x00000000080039b8       0x50 Example/SW4STM32/startup_stm32f302x8.o
                0x00000000080039b8                Reset_Handler
 .text.Default_Handler
                0x0000000008003a08        0x2 Example/SW4STM32/startup_stm32f302x8.o
                0x0000000008003a08                RTC_Alarm_IRQHandler
                0x0000000008003a08                DebugMon_Handler
                0x0000000008003a08                TIM1_CC_IRQHandler
                0x0000000008003a08                HardFault_Handler
                0x0000000008003a08                USB_HP_IRQHandler
                0x0000000008003a08                PVD_IRQHandler
                0x0000000008003a08                TAMP_STAMP_IRQHandler
                0x0000000008003a08                PendSV_Handler
                0x0000000008003a08                NMI_Handler
                0x0000000008003a08                EXTI3_IRQHandler
                0x0000000008003a08                I2C3_ER_IRQHandler
                0x0000000008003a08                USB_HP_CAN_TX_IRQHandler
                0x0000000008003a08                I2C2_EV_IRQHandler
                0x0000000008003a08                FPU_IRQHandler
                0x0000000008003a08                TIM1_UP_TIM16_IRQHandler
                0x0000000008003a08                UsageFault_Handler
                0x0000000008003a08                CAN_SCE_IRQHandler
                0x0000000008003a08                TIM6_DAC_IRQHandler
                0x0000000008003a08                DMA1_Channel4_IRQHandler
                0x0000000008003a08                ADC1_IRQHandler
                0x0000000008003a08                USART3_IRQHandler
                0x0000000008003a08                DMA1_Channel7_IRQHandler
                0x0000000008003a08                CAN_RX1_IRQHandler
                0x0000000008003a08                I2C1_EV_IRQHandler
                0x0000000008003a08                DMA1_Channel6_IRQHandler
                0x0000000008003a08                RCC_IRQHandler
                0x0000000008003a08                DMA1_Channel1_IRQHandler
                0x0000000008003a08                Default_Handler
                0x0000000008003a08                USBWakeUp_RMP_IRQHandler
                0x0000000008003a08                COMP2_IRQHandler
                0x0000000008003a08                I2C3_EV_IRQHandler
                0x0000000008003a08                EXTI9_5_IRQHandler
                0x0000000008003a08                RTC_WKUP_IRQHandler
                0x0000000008003a08                SPI2_IRQHandler
                0x0000000008003a08                USB_LP_CAN_RX0_IRQHandler
                0x0000000008003a08                MemManage_Handler
                0x0000000008003a08                SVC_Handler
                0x0000000008003a08                DMA1_Channel5_IRQHandler
                0x0000000008003a08                USB_LP_IRQHandler
                0x0000000008003a08                EXTI4_IRQHandler
                0x0000000008003a08                TIM1_TRG_COM_TIM17_IRQHandler
                0x0000000008003a08                DMA1_Channel3_IRQHandler
                0x0000000008003a08                WWDG_IRQHandler
                0x0000000008003a08                TIM2_IRQHandler
                0x0000000008003a08                COMP4_6_IRQHandler
                0x0000000008003a08                I2C2_ER_IRQHandler
                0x0000000008003a08                DMA1_Channel2_IRQHandler
                0x0000000008003a08                FLASH_IRQHandler
                0x0000000008003a08                BusFault_Handler
                0x0000000008003a08                USART1_IRQHandler
                0x0000000008003a08                SPI3_IRQHandler
                0x0000000008003a08                I2C1_ER_IRQHandler
                0x0000000008003a08                USBWakeUp_IRQHandler
                0x0000000008003a08                EXTI2_TSC_IRQHandler
                0x0000000008003a08                TIM1_BRK_TIM15_IRQHandler
 *fill*         0x0000000008003a0a        0x2 
 .text.MicrosteppingMotor_Example_01
                0x0000000008003a0c      0x30c Example/User/example.o
                0x0000000008003a0c                MicrosteppingMotor_Example_01
 .text.HAL_GPIO_EXTI_Callback
                0x0000000008003d18       0x24 Example/User/example.o
                0x0000000008003d18                HAL_GPIO_EXTI_Callback
 .text.USART_Transmit
                0x0000000008003d3c       0x16 Example/User/example_usart.o
                0x0000000008003d3c                USART_Transmit
 *fill*         0x0000000008003d52        0x2 
 .text.USART_TxWelcomeMessage
                0x0000000008003d54       0x78 Example/User/example_usart.o
                0x0000000008003d54                USART_TxWelcomeMessage
 .text.USART_ITCharManager
                0x0000000008003dcc       0x74 Example/User/example_usart.o
                0x0000000008003dcc                USART_ITCharManager
 .text.num2hex  0x0000000008003e40       0x64 Example/User/example_usart.o
                0x0000000008003e40                num2hex
 .text.USART_PrintRegisterValues
                0x0000000008003ea4       0xc4 Example/User/example_usart.o
                0x0000000008003ea4                USART_PrintRegisterValues
 .text.USART_PrintAllRegisterValues
                0x0000000008003f68       0x40 Example/User/example_usart.o
                0x0000000008003f68                USART_PrintAllRegisterValues
 .text.main     0x0000000008003fa8       0x14 Example/User/main.o
                0x0000000008003fa8                main
 .text.assert_failed
                0x0000000008003fbc        0x2 Example/User/main.o
                0x0000000008003fbc                assert_failed
 *fill*         0x0000000008003fbe        0x2 
 .text.GetMotorParameterInitData
                0x0000000008003fc0        0x8 Example/User/params.o
                0x0000000008003fc0                GetMotorParameterInitData
 .text.HAL_MspInit
                0x0000000008003fc8       0x16 Example/User/stm32f3xx_hal_msp.o
                0x0000000008003fc8                HAL_MspInit
 *fill*         0x0000000008003fde        0x2 
 .text.HAL_SPI_MspInit
                0x0000000008003fe0       0x50 Example/User/stm32f3xx_hal_msp.o
                0x0000000008003fe0                HAL_SPI_MspInit
 .text.HAL_UART_MspInit
                0x0000000008004030       0x58 Example/User/stm32f3xx_hal_msp.o
                0x0000000008004030                HAL_UART_MspInit
 .text.SysTick_Handler
                0x0000000008004088        0xc Example/User/stm32f3xx_it.o
                0x0000000008004088                SysTick_Handler
 .text.EXTI1_IRQHandler
                0x0000000008004094        0xa Example/User/stm32f3xx_it.o
                0x0000000008004094                EXTI1_IRQHandler
 .text.EXTI0_IRQHandler
                0x000000000800409e        0xa Example/User/stm32f3xx_it.o
                0x000000000800409e                EXTI0_IRQHandler
 .text.USART2_IRQHandler
                0x00000000080040a8       0x18 Example/User/stm32f3xx_it.o
                0x00000000080040a8                USART2_IRQHandler
 .text.EXTI15_10_IRQHandler
                0x00000000080040c0        0xc Example/User/stm32f3xx_it.o
                0x00000000080040c0                EXTI15_10_IRQHandler
 .text.__libc_init_array
                0x00000000080040cc       0x48 c:/st/stm32cubeide_1.6.1/stm32cubeide/plugins/com.st.stm32cube.ide.mcu.externaltools.gnu-tools-for-stm32.9-2020-q2-update.win32_1.5.0.202011040924/tools/bin/../lib/gcc/arm-none-eabi/9.3.1/../../../../arm-none-eabi/lib/thumb/v7e-m+fp/hard\libc_nano.a(lib_a-init.o)
                0x00000000080040cc                __libc_init_array
 *(.glue_7)
 .glue_7        0x0000000008004114        0x0 linker stubs
 *(.glue_7t)
 .glue_7t       0x0000000008004114        0x0 linker stubs
 *(.eh_frame)
 .eh_frame      0x0000000008004114        0x0 c:/st/stm32cubeide_1.6.1/stm32cubeide/plugins/com.st.stm32cube.ide.mcu.externaltools.gnu-tools-for-stm32.9-2020-q2-update.win32_1.5.0.202011040924/tools/bin/../lib/gcc/arm-none-eabi/9.3.1/thumb/v7e-m+fp/hard/crtbegin.o
 *(.init)
 .init          0x0000000008004114        0x4 c:/st/stm32cubeide_1.6.1/stm32cubeide/plugins/com.st.stm32cube.ide.mcu.externaltools.gnu-tools-for-stm32.9-2020-q2-update.win32_1.5.0.202011040924/tools/bin/../lib/gcc/arm-none-eabi/9.3.1/thumb/v7e-m+fp/hard/crti.o
                0x0000000008004114                _init
 .init          0x0000000008004118        0x8 c:/st/stm32cubeide_1.6.1/stm32cubeide/plugins/com.st.stm32cube.ide.mcu.externaltools.gnu-tools-for-stm32.9-2020-q2-update.win32_1.5.0.202011040924/tools/bin/../lib/gcc/arm-none-eabi/9.3.1/thumb/v7e-m+fp/hard/crtn.o
 *(.fini)
 .fini          0x0000000008004120        0x4 c:/st/stm32cubeide_1.6.1/stm32cubeide/plugins/com.st.stm32cube.ide.mcu.externaltools.gnu-tools-for-stm32.9-2020-q2-update.win32_1.5.0.202011040924/tools/bin/../lib/gcc/arm-none-eabi/9.3.1/thumb/v7e-m+fp/hard/crti.o
                0x0000000008004120                _fini
 .fini          0x0000000008004124        0x8 c:/st/stm32cubeide_1.6.1/stm32cubeide/plugins/com.st.stm32cube.ide.mcu.externaltools.gnu-tools-for-stm32.9-2020-q2-update.win32_1.5.0.202011040924/tools/bin/../lib/gcc/arm-none-eabi/9.3.1/thumb/v7e-m+fp/hard/crtn.o
                0x000000000800412c                . = ALIGN (0x4)
                0x000000000800412c                _etext = .

.vfp11_veneer   0x000000000800412c        0x0
 .vfp11_veneer  0x000000000800412c        0x0 linker stubs

.v4_bx          0x000000000800412c        0x0
 .v4_bx         0x000000000800412c        0x0 linker stubs

.iplt           0x000000000800412c        0x0
 .iplt          0x000000000800412c        0x0 c:/st/stm32cubeide_1.6.1/stm32cubeide/plugins/com.st.stm32cube.ide.mcu.externaltools.gnu-tools-for-stm32.9-2020-q2-update.win32_1.5.0.202011040924/tools/bin/../lib/gcc/arm-none-eabi/9.3.1/thumb/v7e-m+fp/hard/crtbegin.o

.rodata         0x000000000800412c      0xc7c
                0x000000000800412c                . = ALIGN (0x4)
 *(.rodata)
 .rodata        0x000000000800412c      0x31e Drivers/BSP/Components/L6470/L6470.o
                0x000000000800412c                L6470_ApplicationCommand
                0x0000000008004238                L6470_Register
                0x000000000800442c                L6470_Direction
                0x0000000008004440                L6470_ACT
 *fill*         0x000000000800444a        0x2 
 .rodata        0x000000000800444c       0x10 Drivers/STM32F0xx_HAL_Driver/stm32f3xx_hal_rcc.o
                0x000000000800444c                APBAHBPrescTable
 .rodata        0x000000000800445c       0x20 Drivers/STM32F0xx_HAL_Driver/stm32f3xx_hal_rcc_ex.o
                0x000000000800445c                PLLMULFactorTable
                0x000000000800446c                PredivFactorTable
 .rodata        0x000000000800447c      0x2c0 Example/User/params.o
                0x000000000800447c                MotorParameterInitData
 *(.rodata*)
 .rodata.str1.4
                0x000000000800473c        0x0 Drivers/BSP/Components/L6470/L6470.o
                                          0x1 (size before relaxing)
 .rodata.str1.4
                0x000000000800473c       0x66 Drivers/STM32F0xx_HAL_Driver/stm32f3xx_hal_cortex.o
 *fill*         0x00000000080047a2        0x2 
 .rodata.str1.4
                0x00000000080047a4       0x64 Drivers/STM32F0xx_HAL_Driver/stm32f3xx_hal_gpio.o
 .rodata.str1.4
                0x0000000008004808       0x63 Drivers/STM32F0xx_HAL_Driver/stm32f3xx_hal_rcc.o
 *fill*         0x000000000800486b        0x1 
 .rodata.str1.4
                0x000000000800486c       0x66 Drivers/STM32F0xx_HAL_Driver/stm32f3xx_hal_rcc_ex.o
 *fill*         0x00000000080048d2        0x2 
 .rodata.str1.4
                0x00000000080048d4       0x63 Drivers/STM32F0xx_HAL_Driver/stm32f3xx_hal_spi.o
 *fill*         0x0000000008004937        0x1 
 .rodata.str1.4
                0x0000000008004938       0x64 Drivers/STM32F0xx_HAL_Driver/stm32f3xx_hal_uart.o
 .rodata.str1.4
                0x000000000800499c       0x3f Example/User/example.o
 *fill*         0x00000000080049db        0x1 
 .rodata.str1.4
                0x00000000080049dc      0x3cb Example/User/example_usart.o
                                        0x3d7 (size before relaxing)
                0x0000000008004da8                . = ALIGN (0x4)
 *fill*         0x0000000008004da7        0x1 

.rel.dyn        0x0000000008004da8        0x0
 .rel.iplt      0x0000000008004da8        0x0 c:/st/stm32cubeide_1.6.1/stm32cubeide/plugins/com.st.stm32cube.ide.mcu.externaltools.gnu-tools-for-stm32.9-2020-q2-update.win32_1.5.0.202011040924/tools/bin/../lib/gcc/arm-none-eabi/9.3.1/thumb/v7e-m+fp/hard/crtbegin.o

.ARM.extab
 *(.ARM.extab* .gnu.linkonce.armextab.*)

.ARM            0x0000000008004da8        0x0
                0x0000000008004da8                __exidx_start = .
 *(.ARM.exidx*)
                0x0000000008004da8                __exidx_end = .

.preinit_array  0x0000000008004da8        0x0
                0x0000000008004da8                PROVIDE (__preinit_array_start = .)
 *(.preinit_array*)
                0x0000000008004da8                PROVIDE (__preinit_array_end = .)

.init_array     0x0000000008004da8        0x4
                0x0000000008004da8                PROVIDE (__init_array_start = .)
 *(SORT_BY_NAME(.init_array.*))
 *(.init_array*)
 .init_array    0x0000000008004da8        0x4 c:/st/stm32cubeide_1.6.1/stm32cubeide/plugins/com.st.stm32cube.ide.mcu.externaltools.gnu-tools-for-stm32.9-2020-q2-update.win32_1.5.0.202011040924/tools/bin/../lib/gcc/arm-none-eabi/9.3.1/thumb/v7e-m+fp/hard/crtbegin.o
                0x0000000008004dac                PROVIDE (__init_array_end = .)

.fini_array     0x0000000008004dac        0x4
                [!provide]                        PROVIDE (__fini_array_start = .)
 *(SORT_BY_NAME(.fini_array.*))
 *(.fini_array*)
 .fini_array    0x0000000008004dac        0x4 c:/st/stm32cubeide_1.6.1/stm32cubeide/plugins/com.st.stm32cube.ide.mcu.externaltools.gnu-tools-for-stm32.9-2020-q2-update.win32_1.5.0.202011040924/tools/bin/../lib/gcc/arm-none-eabi/9.3.1/thumb/v7e-m+fp/hard/crtbegin.o
                [!provide]                        PROVIDE (__fini_array_end = .)
                0x0000000008004db0                _sidata = LOADADDR (.data)

.data           0x0000000020000000      0x378 load address 0x0000000008004db0
                0x0000000020000000                . = ALIGN (0x4)
                0x0000000020000000                _sdata = .
 *(.data)
 .data          0x0000000020000000       0x98 Drivers/BSP/Components/L6470/L6470.o
                0x0000000020000000                pL6470_StatusRegister
                0x0000000020000004                L6470Command
 .data          0x0000000020000098        0xc Drivers/BSP/STM32F0xx-Nucleo/stm32f3xx_nucleo.o
                0x0000000020000098                SpixTimeout
                0x000000002000009c                LED_PORT
                0x00000000200000a0                BUTTON_PORT
 .data          0x00000000200000a4      0x2c0 Drivers/BSP/X-NUCLEO-IHM02A1/xnucleoihm02a1.o
                0x00000000200000a4                L6470_nCS_GPIO_Array
                0x00000000200000b0                L6470DrvMtx
                0x0000000020000290                L6470_nSTBY_nRST_GPIO
                0x000000002000029c                L6470_nBUSY_SYNC_GPIO
                0x00000000200002a8                L6470_nFLAG_GPIO
                0x00000000200002b4                XNUCLEOIHM02A1Drv
                0x0000000020000314                XNUCLEOIHM02A1Command
 .data          0x0000000020000364       0x14 Drivers/CMSIS/system_stm32f3xx.o
                0x0000000020000364                SystemCoreClock
                0x0000000020000368                AHBPrescTable
 *(.data*)
                0x0000000020000378                . = ALIGN (0x4)
                0x0000000020000378                _edata = .

.igot.plt       0x0000000020000378        0x0 load address 0x0000000008005128
 .igot.plt      0x0000000020000378        0x0 c:/st/stm32cubeide_1.6.1/stm32cubeide/plugins/com.st.stm32cube.ide.mcu.externaltools.gnu-tools-for-stm32.9-2020-q2-update.win32_1.5.0.202011040924/tools/bin/../lib/gcc/arm-none-eabi/9.3.1/thumb/v7e-m+fp/hard/crtbegin.o
                0x0000000020000378                . = ALIGN (0x4)

.bss            0x0000000020000378      0x25c load address 0x0000000008005128
                0x0000000020000378                _sbss = .
                0x0000000020000378                __bss_start__ = _sbss
 *(.bss)
 .bss           0x0000000020000378       0x1c c:/st/stm32cubeide_1.6.1/stm32cubeide/plugins/com.st.stm32cube.ide.mcu.externaltools.gnu-tools-for-stm32.9-2020-q2-update.win32_1.5.0.202011040924/tools/bin/../lib/gcc/arm-none-eabi/9.3.1/thumb/v7e-m+fp/hard/crtbegin.o
 .bss           0x0000000020000394        0x1 Drivers/BSP/Components/L6470/L6470.o
                0x0000000020000394                L6470_DaisyChain_HalfPrepared
 *fill*         0x0000000020000395        0x3 
 .bss           0x0000000020000398        0x4 Drivers/STM32F0xx_HAL_Driver/stm32f3xx_hal.o
 .bss           0x000000002000039c       0x14 Example/User/example_usart.o
 *(.bss*)
 *(COMMON)
 COMMON         0x00000000200003b0       0x33 Drivers/BSP/Components/L6470/L6470.o
                0x00000000200003b0                L6470_DaisyChainSpiRxStruct
                0x00000000200003b8                L6470_DaisyChainSpiTxStruct
                0x00000000200003c0                L6470_AppCmdPkg
                0x00000000200003e0                L6470_StatusRegister
                0x00000000200003e2                delay_cnt
 *fill*         0x00000000200003e3        0x1 
 COMMON         0x00000000200003e4       0x10 Drivers/BSP/X-NUCLEO-IHM02A1/xnucleoihm02a1.o
                0x00000000200003e4                L6470_nCS_GPIO
                0x00000000200003f0                StatusBuffer
 COMMON         0x00000000200003f4       0xac Drivers/BSP/X-NUCLEO-IHM02A1/xnucleoihm02a1_interface.o
                0x00000000200003f4                hspi2
                0x0000000020000454                hadc1
 COMMON         0x00000000200004a0        0xc Example/User/example.o
                0x00000000200004a0                MotorParameterDataGlobal
                0x00000000200004a4                MotorParameterDataSingle
                0x00000000200004a8                StepperMotorBoardHandle
 COMMON         0x00000000200004ac      0x128 Example/User/example_usart.o
                0x00000000200004ac                L6470_DaisyChainMnemonic
                0x00000000200004c8                huart2
                0x0000000020000534                L6470_TextCommandBundle
                0x0000000020000594                UsartTextString
                0x00000000200005d4                . = ALIGN (0x4)
                0x00000000200005d4                _ebss = .
                0x00000000200005d4                __bss_end__ = _ebss

._user_heap_stack
                0x00000000200005d4      0x604 load address 0x0000000008005128
                0x00000000200005d8                . = ALIGN (0x8)
 *fill*         0x00000000200005d4        0x4 
                0x00000000200005d8                PROVIDE (end = .)
                [!provide]                        PROVIDE (_end = .)
                0x00000000200007d8                . = (. + _Min_Heap_Size)
 *fill*         0x00000000200005d8      0x200 
                0x0000000020000bd8                . = (. + _Min_Stack_Size)
 *fill*         0x00000000200007d8      0x400 
                0x0000000020000bd8                . = ALIGN (0x8)

/DISCARD/
 libc.a(*)
 libm.a(*)
 libgcc.a(*)

.ARM.attributes
                0x0000000000000000       0x30
 *(.ARM.attributes)
 .ARM.attributes
                0x0000000000000000       0x1e c:/st/stm32cubeide_1.6.1/stm32cubeide/plugins/com.st.stm32cube.ide.mcu.externaltools.gnu-tools-for-stm32.9-2020-q2-update.win32_1.5.0.202011040924/tools/bin/../lib/gcc/arm-none-eabi/9.3.1/thumb/v7e-m+fp/hard/crti.o
 .ARM.attributes
                0x000000000000001e       0x34 c:/st/stm32cubeide_1.6.1/stm32cubeide/plugins/com.st.stm32cube.ide.mcu.externaltools.gnu-tools-for-stm32.9-2020-q2-update.win32_1.5.0.202011040924/tools/bin/../lib/gcc/arm-none-eabi/9.3.1/thumb/v7e-m+fp/hard/crtbegin.o
 .ARM.attributes
                0x0000000000000052       0x34 Drivers/BSP/Components/L6470/L6470.o
 .ARM.attributes
                0x0000000000000086       0x34 Drivers/BSP/STM32F0xx-Nucleo/stm32f3xx_nucleo.o
 .ARM.attributes
                0x00000000000000ba       0x34 Drivers/BSP/X-NUCLEO-IHM02A1/xnucleoihm02a1.o
 .ARM.attributes
                0x00000000000000ee       0x34 Drivers/BSP/X-NUCLEO-IHM02A1/xnucleoihm02a1_interface.o
 .ARM.attributes
                0x0000000000000122       0x34 Drivers/CMSIS/system_stm32f3xx.o
 .ARM.attributes
                0x0000000000000156       0x34 Drivers/STM32F0xx_HAL_Driver/stm32f3xx_hal.o
 .ARM.attributes
                0x000000000000018a       0x34 Drivers/STM32F0xx_HAL_Driver/stm32f3xx_hal_cortex.o
 .ARM.attributes
                0x00000000000001be       0x34 Drivers/STM32F0xx_HAL_Driver/stm32f3xx_hal_gpio.o
 .ARM.attributes
                0x00000000000001f2       0x34 Drivers/STM32F0xx_HAL_Driver/stm32f3xx_hal_rcc.o
 .ARM.attributes
                0x0000000000000226       0x34 Drivers/STM32F0xx_HAL_Driver/stm32f3xx_hal_rcc_ex.o
 .ARM.attributes
                0x000000000000025a       0x34 Drivers/STM32F0xx_HAL_Driver/stm32f3xx_hal_spi.o
 .ARM.attributes
                0x000000000000028e       0x34 Drivers/STM32F0xx_HAL_Driver/stm32f3xx_hal_uart.o
 .ARM.attributes
                0x00000000000002c2       0x21 Example/SW4STM32/startup_stm32f302x8.o
 .ARM.attributes
                0x00000000000002e3       0x34 Example/User/example.o
 .ARM.attributes
                0x0000000000000317       0x34 Example/User/example_usart.o
 .ARM.attributes
                0x000000000000034b       0x34 Example/User/main.o
 .ARM.attributes
                0x000000000000037f       0x34 Example/User/params.o
 .ARM.attributes
                0x00000000000003b3       0x34 Example/User/stm32f3xx_hal_msp.o
 .ARM.attributes
                0x00000000000003e7       0x34 Example/User/stm32f3xx_it.o
 .ARM.attributes
                0x000000000000041b       0x34 c:/st/stm32cubeide_1.6.1/stm32cubeide/plugins/com.st.stm32cube.ide.mcu.externaltools.gnu-tools-for-stm32.9-2020-q2-update.win32_1.5.0.202011040924/tools/bin/../lib/gcc/arm-none-eabi/9.3.1/../../../../arm-none-eabi/lib/thumb/v7e-m+fp/hard\libc_nano.a(lib_a-init.o)
 .ARM.attributes
                0x000000000000044f       0x1e c:/st/stm32cubeide_1.6.1/stm32cubeide/plugins/com.st.stm32cube.ide.mcu.externaltools.gnu-tools-for-stm32.9-2020-q2-update.win32_1.5.0.202011040924/tools/bin/../lib/gcc/arm-none-eabi/9.3.1/thumb/v7e-m+fp/hard/crtn.o
OUTPUT(X-CUBE-SPN2_F302.elf elf32-littlearm)
LOAD linker stubs
LOAD c:/st/stm32cubeide_1.6.1/stm32cubeide/plugins/com.st.stm32cube.ide.mcu.externaltools.gnu-tools-for-stm32.9-2020-q2-update.win32_1.5.0.202011040924/tools/bin/../lib/gcc/arm-none-eabi/9.3.1/../../../../arm-none-eabi/lib/thumb/v7e-m+fp/hard\libc.a
LOAD c:/st/stm32cubeide_1.6.1/stm32cubeide/plugins/com.st.stm32cube.ide.mcu.externaltools.gnu-tools-for-stm32.9-2020-q2-update.win32_1.5.0.202011040924/tools/bin/../lib/gcc/arm-none-eabi/9.3.1/../../../../arm-none-eabi/lib/thumb/v7e-m+fp/hard\libm.a
LOAD c:/st/stm32cubeide_1.6.1/stm32cubeide/plugins/com.st.stm32cube.ide.mcu.externaltools.gnu-tools-for-stm32.9-2020-q2-update.win32_1.5.0.202011040924/tools/bin/../lib/gcc/arm-none-eabi/9.3.1/thumb/v7e-m+fp/hard\libgcc.a

.debug_info     0x0000000000000000    0x19e65
 .debug_info    0x0000000000000000     0x395c Drivers/BSP/Components/L6470/L6470.o
 .debug_info    0x000000000000395c     0x1b91 Drivers/BSP/STM32F0xx-Nucleo/stm32f3xx_nucleo.o
 .debug_info    0x00000000000054ed     0x31fa Drivers/BSP/X-NUCLEO-IHM02A1/xnucleoihm02a1.o
 .debug_info    0x00000000000086e7     0x1526 Drivers/BSP/X-NUCLEO-IHM02A1/xnucleoihm02a1_interface.o
 .debug_info    0x0000000000009c0d      0x41b Drivers/CMSIS/system_stm32f3xx.o
 .debug_info    0x000000000000a028      0x6f1 Drivers/STM32F0xx_HAL_Driver/stm32f3xx_hal.o
 .debug_info    0x000000000000a719      0xe61 Drivers/STM32F0xx_HAL_Driver/stm32f3xx_hal_cortex.o
 .debug_info    0x000000000000b57a      0x884 Drivers/STM32F0xx_HAL_Driver/stm32f3xx_hal_gpio.o
 .debug_info    0x000000000000bdfe      0xcd5 Drivers/STM32F0xx_HAL_Driver/stm32f3xx_hal_rcc.o
 .debug_info    0x000000000000cad3     0x1278 Drivers/STM32F0xx_HAL_Driver/stm32f3xx_hal_rcc_ex.o
 .debug_info    0x000000000000dd4b     0x1ab1 Drivers/STM32F0xx_HAL_Driver/stm32f3xx_hal_spi.o
 .debug_info    0x000000000000f7fc     0x1a48 Drivers/STM32F0xx_HAL_Driver/stm32f3xx_hal_uart.o
 .debug_info    0x0000000000011244     0x21b9 Example/User/example.o
 .debug_info    0x00000000000133fd     0x28f4 Example/User/example_usart.o
 .debug_info    0x0000000000015cf1     0x155d Example/User/main.o
 .debug_info    0x000000000001724e      0x8c0 Example/User/params.o
 .debug_info    0x0000000000017b0e     0x1388 Example/User/stm32f3xx_hal_msp.o
 .debug_info    0x0000000000018e96      0xfcf Example/User/stm32f3xx_it.o

.debug_abbrev   0x0000000000000000     0x2d4b
 .debug_abbrev  0x0000000000000000      0x3ab Drivers/BSP/Components/L6470/L6470.o
 .debug_abbrev  0x00000000000003ab      0x3c4 Drivers/BSP/STM32F0xx-Nucleo/stm32f3xx_nucleo.o
 .debug_abbrev  0x000000000000076f      0x343 Drivers/BSP/X-NUCLEO-IHM02A1/xnucleoihm02a1.o
 .debug_abbrev  0x0000000000000ab2      0x24c Drivers/BSP/X-NUCLEO-IHM02A1/xnucleoihm02a1_interface.o
 .debug_abbrev  0x0000000000000cfe      0x142 Drivers/CMSIS/system_stm32f3xx.o
 .debug_abbrev  0x0000000000000e40      0x201 Drivers/STM32F0xx_HAL_Driver/stm32f3xx_hal.o
 .debug_abbrev  0x0000000000001041      0x34e Drivers/STM32F0xx_HAL_Driver/stm32f3xx_hal_cortex.o
 .debug_abbrev  0x000000000000138f      0x238 Drivers/STM32F0xx_HAL_Driver/stm32f3xx_hal_gpio.o
 .debug_abbrev  0x00000000000015c7      0x2e6 Drivers/STM32F0xx_HAL_Driver/stm32f3xx_hal_rcc.o
 .debug_abbrev  0x00000000000018ad      0x2fa Drivers/STM32F0xx_HAL_Driver/stm32f3xx_hal_rcc_ex.o
 .debug_abbrev  0x0000000000001ba7      0x286 Drivers/STM32F0xx_HAL_Driver/stm32f3xx_hal_spi.o
 .debug_abbrev  0x0000000000001e2d      0x2c3 Drivers/STM32F0xx_HAL_Driver/stm32f3xx_hal_uart.o
 .debug_abbrev  0x00000000000020f0      0x30f Example/User/example.o
 .debug_abbrev  0x00000000000023ff      0x2d6 Example/User/example_usart.o
 .debug_abbrev  0x00000000000026d5      0x1b9 Example/User/main.o
 .debug_abbrev  0x000000000000288e      0x13c Example/User/params.o
 .debug_abbrev  0x00000000000029ca      0x1d2 Example/User/stm32f3xx_hal_msp.o
 .debug_abbrev  0x0000000000002b9c      0x1af Example/User/stm32f3xx_it.o

.debug_loc      0x0000000000000000     0x8c10
 .debug_loc     0x0000000000000000     0x16ec Drivers/BSP/Components/L6470/L6470.o
 .debug_loc     0x00000000000016ec      0x54c Drivers/BSP/STM32F0xx-Nucleo/stm32f3xx_nucleo.o
 .debug_loc     0x0000000000001c38      0xbf9 Drivers/BSP/X-NUCLEO-IHM02A1/xnucleoihm02a1.o
 .debug_loc     0x0000000000002831      0x2c3 Drivers/BSP/X-NUCLEO-IHM02A1/xnucleoihm02a1_interface.o
 .debug_loc     0x0000000000002af4      0x13b Drivers/CMSIS/system_stm32f3xx.o
 .debug_loc     0x0000000000002c2f       0x77 Drivers/STM32F0xx_HAL_Driver/stm32f3xx_hal.o
 .debug_loc     0x0000000000002ca6      0x7cb Drivers/STM32F0xx_HAL_Driver/stm32f3xx_hal_cortex.o
 .debug_loc     0x0000000000003471      0x702 Drivers/STM32F0xx_HAL_Driver/stm32f3xx_hal_gpio.o
 .debug_loc     0x0000000000003b73      0x51f Drivers/STM32F0xx_HAL_Driver/stm32f3xx_hal_rcc.o
 .debug_loc     0x0000000000004092      0xa28 Drivers/STM32F0xx_HAL_Driver/stm32f3xx_hal_rcc_ex.o
 .debug_loc     0x0000000000004aba     0x1121 Drivers/STM32F0xx_HAL_Driver/stm32f3xx_hal_spi.o
 .debug_loc     0x0000000000005bdb     0x12ca Drivers/STM32F0xx_HAL_Driver/stm32f3xx_hal_uart.o
 .debug_loc     0x0000000000006ea5      0x500 Example/User/example.o
 .debug_loc     0x00000000000073a5     0x1736 Example/User/example_usart.o
 .debug_loc     0x0000000000008adb      0x135 Example/User/stm32f3xx_hal_msp.o

.debug_aranges  0x0000000000000000      0xbd0
 .debug_aranges
                0x0000000000000000      0x260 Drivers/BSP/Components/L6470/L6470.o
 .debug_aranges
                0x0000000000000260       0xc8 Drivers/BSP/STM32F0xx-Nucleo/stm32f3xx_nucleo.o
 .debug_aranges
                0x0000000000000328      0x170 Drivers/BSP/X-NUCLEO-IHM02A1/xnucleoihm02a1.o
 .debug_aranges
                0x0000000000000498       0x50 Drivers/BSP/X-NUCLEO-IHM02A1/xnucleoihm02a1_interface.o
 .debug_aranges
                0x00000000000004e8       0x28 Drivers/CMSIS/system_stm32f3xx.o
 .debug_aranges
                0x0000000000000510       0xb0 Drivers/STM32F0xx_HAL_Driver/stm32f3xx_hal.o
 .debug_aranges
                0x00000000000005c0       0x90 Drivers/STM32F0xx_HAL_Driver/stm32f3xx_hal_cortex.o
 .debug_aranges
                0x0000000000000650       0x58 Drivers/STM32F0xx_HAL_Driver/stm32f3xx_hal_gpio.o
 .debug_aranges
                0x00000000000006a8       0x88 Drivers/STM32F0xx_HAL_Driver/stm32f3xx_hal_rcc.o
 .debug_aranges
                0x0000000000000730       0x40 Drivers/STM32F0xx_HAL_Driver/stm32f3xx_hal_rcc_ex.o
 .debug_aranges
                0x0000000000000770      0x168 Drivers/STM32F0xx_HAL_Driver/stm32f3xx_hal_spi.o
 .debug_aranges
                0x00000000000008d8      0x160 Drivers/STM32F0xx_HAL_Driver/stm32f3xx_hal_uart.o
 .debug_aranges
                0x0000000000000a38       0x38 Example/User/example.o
 .debug_aranges
                0x0000000000000a70       0x88 Example/User/example_usart.o
 .debug_aranges
                0x0000000000000af8       0x28 Example/User/main.o
 .debug_aranges
                0x0000000000000b20       0x20 Example/User/params.o
 .debug_aranges
                0x0000000000000b40       0x50 Example/User/stm32f3xx_hal_msp.o
 .debug_aranges
                0x0000000000000b90       0x40 Example/User/stm32f3xx_it.o

.debug_ranges   0x0000000000000000      0xcc0
 .debug_ranges  0x0000000000000000      0x250 Drivers/BSP/Components/L6470/L6470.o
 .debug_ranges  0x0000000000000250       0xe8 Drivers/BSP/STM32F0xx-Nucleo/stm32f3xx_nucleo.o
 .debug_ranges  0x0000000000000338      0x160 Drivers/BSP/X-NUCLEO-IHM02A1/xnucleoihm02a1.o
 .debug_ranges  0x0000000000000498       0x40 Drivers/BSP/X-NUCLEO-IHM02A1/xnucleoihm02a1_interface.o
 .debug_ranges  0x00000000000004d8       0x18 Drivers/CMSIS/system_stm32f3xx.o
 .debug_ranges  0x00000000000004f0       0xa0 Drivers/STM32F0xx_HAL_Driver/stm32f3xx_hal.o
 .debug_ranges  0x0000000000000590       0xb0 Drivers/STM32F0xx_HAL_Driver/stm32f3xx_hal_cortex.o
 .debug_ranges  0x0000000000000640       0x48 Drivers/STM32F0xx_HAL_Driver/stm32f3xx_hal_gpio.o
 .debug_ranges  0x0000000000000688       0x78 Drivers/STM32F0xx_HAL_Driver/stm32f3xx_hal_rcc.o
 .debug_ranges  0x0000000000000700      0x180 Drivers/STM32F0xx_HAL_Driver/stm32f3xx_hal_rcc_ex.o
 .debug_ranges  0x0000000000000880      0x158 Drivers/STM32F0xx_HAL_Driver/stm32f3xx_hal_spi.o
 .debug_ranges  0x00000000000009d8      0x180 Drivers/STM32F0xx_HAL_Driver/stm32f3xx_hal_uart.o
 .debug_ranges  0x0000000000000b58       0x58 Example/User/example.o
 .debug_ranges  0x0000000000000bb0       0x78 Example/User/example_usart.o
 .debug_ranges  0x0000000000000c28       0x18 Example/User/main.o
 .debug_ranges  0x0000000000000c40       0x10 Example/User/params.o
 .debug_ranges  0x0000000000000c50       0x40 Example/User/stm32f3xx_hal_msp.o
 .debug_ranges  0x0000000000000c90       0x30 Example/User/stm32f3xx_it.o

.debug_macro    0x0000000000000000     0xdf5a
 .debug_macro   0x0000000000000000      0x1d7 Drivers/BSP/Components/L6470/L6470.o
 .debug_macro   0x00000000000001d7      0xaa2 Drivers/BSP/Components/L6470/L6470.o
 .debug_macro   0x0000000000000c79       0x22 Drivers/BSP/Components/L6470/L6470.o
 .debug_macro   0x0000000000000c9b       0x8e Drivers/BSP/Components/L6470/L6470.o
 .debug_macro   0x0000000000000d29       0x51 Drivers/BSP/Components/L6470/L6470.o
 .debug_macro   0x0000000000000d7a      0x103 Drivers/BSP/Components/L6470/L6470.o
 .debug_macro   0x0000000000000e7d       0x6a Drivers/BSP/Components/L6470/L6470.o
 .debug_macro   0x0000000000000ee7      0x1df Drivers/BSP/Components/L6470/L6470.o
 .debug_macro   0x00000000000010c6      0x100 Drivers/BSP/Components/L6470/L6470.o
 .debug_macro   0x00000000000011c6       0x28 Drivers/BSP/Components/L6470/L6470.o
 .debug_macro   0x00000000000011ee       0x28 Drivers/BSP/Components/L6470/L6470.o
 .debug_macro   0x0000000000001216       0x3b Drivers/BSP/Components/L6470/L6470.o
 .debug_macro   0x0000000000001251       0x34 Drivers/BSP/Components/L6470/L6470.o
 .debug_macro   0x0000000000001285       0x26 Drivers/BSP/Components/L6470/L6470.o
 .debug_macro   0x00000000000012ab      0xd1d Drivers/BSP/Components/L6470/L6470.o
 .debug_macro   0x0000000000001fc8     0x76a9 Drivers/BSP/Components/L6470/L6470.o
 .debug_macro   0x0000000000009671       0x43 Drivers/BSP/Components/L6470/L6470.o
 .debug_macro   0x00000000000096b4       0xa4 Drivers/BSP/Components/L6470/L6470.o
 .debug_macro   0x0000000000009758       0x56 Drivers/BSP/Components/L6470/L6470.o
 .debug_macro   0x00000000000097ae      0x747 Drivers/BSP/Components/L6470/L6470.o
 .debug_macro   0x0000000000009ef5      0x41d Drivers/BSP/Components/L6470/L6470.o
 .debug_macro   0x000000000000a312      0x138 Drivers/BSP/Components/L6470/L6470.o
 .debug_macro   0x000000000000a44a      0x15a Drivers/BSP/Components/L6470/L6470.o
 .debug_macro   0x000000000000a5a4      0x1df Drivers/BSP/Components/L6470/L6470.o
 .debug_macro   0x000000000000a783       0x2d Drivers/BSP/Components/L6470/L6470.o
 .debug_macro   0x000000000000a7b0       0x52 Drivers/BSP/Components/L6470/L6470.o
 .debug_macro   0x000000000000a802      0x822 Drivers/BSP/Components/L6470/L6470.o
 .debug_macro   0x000000000000b024      0x1ca Drivers/BSP/Components/L6470/L6470.o
 .debug_macro   0x000000000000b1ee       0xa9 Drivers/BSP/Components/L6470/L6470.o
 .debug_macro   0x000000000000b297       0xda Drivers/BSP/Components/L6470/L6470.o
 .debug_macro   0x000000000000b371       0xbe Drivers/BSP/Components/L6470/L6470.o
 .debug_macro   0x000000000000b42f      0x2b8 Drivers/BSP/Components/L6470/L6470.o
 .debug_macro   0x000000000000b6e7      0x4cc Drivers/BSP/Components/L6470/L6470.o
 .debug_macro   0x000000000000bbb3       0x42 Drivers/BSP/Components/L6470/L6470.o
 .debug_macro   0x000000000000bbf5      0x1f8 Drivers/BSP/Components/L6470/L6470.o
 .debug_macro   0x000000000000bded      0x17e Drivers/BSP/Components/L6470/L6470.o
 .debug_macro   0x000000000000bf6b       0xba Drivers/BSP/Components/L6470/L6470.o
 .debug_macro   0x000000000000c025      0x1d2 Drivers/BSP/STM32F0xx-Nucleo/stm32f3xx_nucleo.o
 .debug_macro   0x000000000000c1f7      0x178 Drivers/BSP/STM32F0xx-Nucleo/stm32f3xx_nucleo.o
 .debug_macro   0x000000000000c36f      0x1d8 Drivers/BSP/X-NUCLEO-IHM02A1/xnucleoihm02a1.o
 .debug_macro   0x000000000000c547       0x50 Drivers/BSP/X-NUCLEO-IHM02A1/xnucleoihm02a1.o
 .debug_macro   0x000000000000c597      0x1b8 Drivers/BSP/X-NUCLEO-IHM02A1/xnucleoihm02a1_interface.o
 .debug_macro   0x000000000000c74f      0x19f Drivers/CMSIS/system_stm32f3xx.o
 .debug_macro   0x000000000000c8ee      0x1bd Drivers/STM32F0xx_HAL_Driver/stm32f3xx_hal.o
 .debug_macro   0x000000000000caab      0x199 Drivers/STM32F0xx_HAL_Driver/stm32f3xx_hal_cortex.o
 .debug_macro   0x000000000000cc44      0x1d9 Drivers/STM32F0xx_HAL_Driver/stm32f3xx_hal_gpio.o
 .debug_macro   0x000000000000ce1d      0x1c9 Drivers/STM32F0xx_HAL_Driver/stm32f3xx_hal_rcc.o
 .debug_macro   0x000000000000cfe6      0x1b7 Drivers/STM32F0xx_HAL_Driver/stm32f3xx_hal_rcc_ex.o
 .debug_macro   0x000000000000d19d      0x1a0 Drivers/STM32F0xx_HAL_Driver/stm32f3xx_hal_spi.o
 .debug_macro   0x000000000000d33d      0x1a5 Drivers/STM32F0xx_HAL_Driver/stm32f3xx_hal_uart.o
 .debug_macro   0x000000000000d4e2      0x215 Example/User/example.o
 .debug_macro   0x000000000000d6f7       0x56 Example/User/example.o
 .debug_macro   0x000000000000d74d      0x201 Example/User/example_usart.o
 .debug_macro   0x000000000000d94e      0x1f8 Example/User/main.o
 .debug_macro   0x000000000000db46       0x8f Example/User/params.o
 .debug_macro   0x000000000000dbd5      0x1b1 Example/User/stm32f3xx_hal_msp.o
 .debug_macro   0x000000000000dd86      0x1c4 Example/User/stm32f3xx_it.o
 .debug_macro   0x000000000000df4a       0x10 Example/User/stm32f3xx_it.o

.debug_line     0x0000000000000000    0x11743
 .debug_line    0x0000000000000000     0x1805 Drivers/BSP/Components/L6470/L6470.o
 .debug_line    0x0000000000001805      0xdb1 Drivers/BSP/STM32F0xx-Nucleo/stm32f3xx_nucleo.o
 .debug_line    0x00000000000025b6      0xfaa Drivers/BSP/X-NUCLEO-IHM02A1/xnucleoihm02a1.o
 .debug_line    0x0000000000003560      0xa8a Drivers/BSP/X-NUCLEO-IHM02A1/xnucleoihm02a1_interface.o
 .debug_line    0x0000000000003fea      0x7e6 Drivers/CMSIS/system_stm32f3xx.o
 .debug_line    0x00000000000047d0      0x8eb Drivers/STM32F0xx_HAL_Driver/stm32f3xx_hal.o
 .debug_line    0x00000000000050bb      0xb35 Drivers/STM32F0xx_HAL_Driver/stm32f3xx_hal_cortex.o
 .debug_line    0x0000000000005bf0      0xc85 Drivers/STM32F0xx_HAL_Driver/stm32f3xx_hal_gpio.o
 .debug_line    0x0000000000006875      0xd8e Drivers/STM32F0xx_HAL_Driver/stm32f3xx_hal_rcc.o
 .debug_line    0x0000000000007603     0x1532 Drivers/STM32F0xx_HAL_Driver/stm32f3xx_hal_rcc_ex.o
 .debug_line    0x0000000000008b35     0x27c2 Drivers/STM32F0xx_HAL_Driver/stm32f3xx_hal_spi.o
 .debug_line    0x000000000000b2f7     0x1e86 Drivers/STM32F0xx_HAL_Driver/stm32f3xx_hal_uart.o
 .debug_line    0x000000000000d17d      0xe87 Example/User/example.o
 .debug_line    0x000000000000e004     0x1843 Example/User/example_usart.o
 .debug_line    0x000000000000f847      0x8c0 Example/User/main.o
 .debug_line    0x0000000000010107      0x4ea Example/User/params.o
 .debug_line    0x00000000000105f1      0x91d Example/User/stm32f3xx_hal_msp.o
 .debug_line    0x0000000000010f0e      0x835 Example/User/stm32f3xx_it.o

.debug_str      0x0000000000000000    0x51f8a
 .debug_str     0x0000000000000000    0x4eb2c Drivers/BSP/Components/L6470/L6470.o
                                      0x4f171 (size before relaxing)
 .debug_str     0x000000000004eb2c      0x990 Drivers/BSP/STM32F0xx-Nucleo/stm32f3xx_nucleo.o
                                      0x4dd7b (size before relaxing)
 .debug_str     0x000000000004f4bc      0x606 Drivers/BSP/X-NUCLEO-IHM02A1/xnucleoihm02a1.o
                                      0x4f372 (size before relaxing)
 .debug_str     0x000000000004fac2      0x3f8 Drivers/BSP/X-NUCLEO-IHM02A1/xnucleoihm02a1_interface.o
                                      0x4df88 (size before relaxing)
 .debug_str     0x000000000004feba      0x11c Drivers/CMSIS/system_stm32f3xx.o
                                      0x4c2b1 (size before relaxing)
 .debug_str     0x000000000004ffd6      0x3aa Drivers/STM32F0xx_HAL_Driver/stm32f3xx_hal.o
                                      0x4c8bf (size before relaxing)
 .debug_str     0x0000000000050380      0x25d Drivers/STM32F0xx_HAL_Driver/stm32f3xx_hal_cortex.o
                                      0x4c8e7 (size before relaxing)
 .debug_str     0x00000000000505dd      0x403 Drivers/STM32F0xx_HAL_Driver/stm32f3xx_hal_gpio.o
                                      0x4c6e3 (size before relaxing)
 .debug_str     0x00000000000509e0      0x27c Drivers/STM32F0xx_HAL_Driver/stm32f3xx_hal_rcc.o
                                      0x4c69b (size before relaxing)
 .debug_str     0x0000000000050c5c       0xdc Drivers/STM32F0xx_HAL_Driver/stm32f3xx_hal_rcc_ex.o
                                      0x4c5e2 (size before relaxing)
 .debug_str     0x0000000000050d38      0x3b2 Drivers/STM32F0xx_HAL_Driver/stm32f3xx_hal_spi.o
                                      0x4ca37 (size before relaxing)
 .debug_str     0x00000000000510ea      0x5ad Drivers/STM32F0xx_HAL_Driver/stm32f3xx_hal_uart.o
                                      0x4cd26 (size before relaxing)
 .debug_str     0x0000000000051697      0x21c Example/User/example.o
                                      0x4ec8c (size before relaxing)
 .debug_str     0x00000000000518b3      0x3c5 Example/User/example_usart.o
                                      0x4ed95 (size before relaxing)
 .debug_str     0x0000000000051c78       0xa6 Example/User/main.o
                                      0x4e791 (size before relaxing)
 .debug_str     0x0000000000051d1e       0xee Example/User/params.o
                                       0x4b0b (size before relaxing)
 .debug_str     0x0000000000051e0c       0xae Example/User/stm32f3xx_hal_msp.o
                                      0x4df7c (size before relaxing)
 .debug_str     0x0000000000051eba       0xd0 Example/User/stm32f3xx_it.o
                                      0x4dc05 (size before relaxing)

.comment        0x0000000000000000       0x53
 .comment       0x0000000000000000       0x53 Drivers/BSP/Components/L6470/L6470.o
                                         0x54 (size before relaxing)
 .comment       0x0000000000000053       0x54 Drivers/BSP/STM32F0xx-Nucleo/stm32f3xx_nucleo.o
 .comment       0x0000000000000053       0x54 Drivers/BSP/X-NUCLEO-IHM02A1/xnucleoihm02a1.o
 .comment       0x0000000000000053       0x54 Drivers/BSP/X-NUCLEO-IHM02A1/xnucleoihm02a1_interface.o
 .comment       0x0000000000000053       0x54 Drivers/CMSIS/system_stm32f3xx.o
 .comment       0x0000000000000053       0x54 Drivers/STM32F0xx_HAL_Driver/stm32f3xx_hal.o
 .comment       0x0000000000000053       0x54 Drivers/STM32F0xx_HAL_Driver/stm32f3xx_hal_cortex.o
 .comment       0x0000000000000053       0x54 Drivers/STM32F0xx_HAL_Driver/stm32f3xx_hal_gpio.o
 .comment       0x0000000000000053       0x54 Drivers/STM32F0xx_HAL_Driver/stm32f3xx_hal_rcc.o
 .comment       0x0000000000000053       0x54 Drivers/STM32F0xx_HAL_Driver/stm32f3xx_hal_rcc_ex.o
 .comment       0x0000000000000053       0x54 Drivers/STM32F0xx_HAL_Driver/stm32f3xx_hal_spi.o
 .comment       0x0000000000000053       0x54 Drivers/STM32F0xx_HAL_Driver/stm32f3xx_hal_uart.o
 .comment       0x0000000000000053       0x54 Example/User/example.o
 .comment       0x0000000000000053       0x54 Example/User/example_usart.o
 .comment       0x0000000000000053       0x54 Example/User/main.o
 .comment       0x0000000000000053       0x54 Example/User/params.o
 .comment       0x0000000000000053       0x54 Example/User/stm32f3xx_hal_msp.o
 .comment       0x0000000000000053       0x54 Example/User/stm32f3xx_it.o

.debug_frame    0x0000000000000000     0x2114
 .debug_frame   0x0000000000000000      0x748 Drivers/BSP/Components/L6470/L6470.o
 .debug_frame   0x0000000000000748      0x288 Drivers/BSP/STM32F0xx-Nucleo/stm32f3xx_nucleo.o
 .debug_frame   0x00000000000009d0      0x430 Drivers/BSP/X-NUCLEO-IHM02A1/xnucleoihm02a1.o
 .debug_frame   0x0000000000000e00       0xdc Drivers/BSP/X-NUCLEO-IHM02A1/xnucleoihm02a1_interface.o
 .debug_frame   0x0000000000000edc       0x30 Drivers/CMSIS/system_stm32f3xx.o
 .debug_frame   0x0000000000000f0c      0x168 Drivers/STM32F0xx_HAL_Driver/stm32f3xx_hal.o
 .debug_frame   0x0000000000001074      0x134 Drivers/STM32F0xx_HAL_Driver/stm32f3xx_hal_cortex.o
 .debug_frame   0x00000000000011a8       0xfc Drivers/STM32F0xx_HAL_Driver/stm32f3xx_hal_gpio.o
 .debug_frame   0x00000000000012a4      0x144 Drivers/STM32F0xx_HAL_Driver/stm32f3xx_hal_rcc.o
 .debug_frame   0x00000000000013e8       0x94 Drivers/STM32F0xx_HAL_Driver/stm32f3xx_hal_rcc_ex.o
 .debug_frame   0x000000000000147c      0x46c Drivers/STM32F0xx_HAL_Driver/stm32f3xx_hal_spi.o
 .debug_frame   0x00000000000018e8      0x3f8 Drivers/STM32F0xx_HAL_Driver/stm32f3xx_hal_uart.o
 .debug_frame   0x0000000000001ce0       0x84 Example/User/example.o
 .debug_frame   0x0000000000001d64      0x1dc Example/User/example_usart.o
 .debug_frame   0x0000000000001f40       0x38 Example/User/main.o
 .debug_frame   0x0000000000001f78       0x20 Example/User/params.o
 .debug_frame   0x0000000000001f98       0xc8 Example/User/stm32f3xx_hal_msp.o
 .debug_frame   0x0000000000002060       0x88 Example/User/stm32f3xx_it.o
 .debug_frame   0x00000000000020e8       0x2c c:/st/stm32cubeide_1.6.1/stm32cubeide/plugins/com.st.stm32cube.ide.mcu.externaltools.gnu-tools-for-stm32.9-2020-q2-update.win32_1.5.0.202011040924/tools/bin/../lib/gcc/arm-none-eabi/9.3.1/../../../../arm-none-eabi/lib/thumb/v7e-m+fp/hard\libc_nano.a(lib_a-init.o)
