
vdawgscore.elf:     file format elf32-littlearm

Sections:
Idx Name          Size      VMA       LMA       File off  Algn
  0 .isr_vector   000001c8  08000000  08000000  00010000  2**0
                  CONTENTS, ALLOC, LOAD, READONLY, DATA
  1 .text         00006d78  080001c8  080001c8  000101c8  2**2
                  CONTENTS, ALLOC, LOAD, READONLY, CODE
  2 .rodata       00000a14  08006f40  08006f40  00016f40  2**2
                  CONTENTS, ALLOC, LOAD, READONLY, DATA
  3 .ARM.extab    00000000  08007954  08007954  0002034c  2**0
                  CONTENTS
  4 .ARM          00000008  08007954  08007954  00017954  2**2
                  CONTENTS, ALLOC, LOAD, READONLY, DATA
  5 .preinit_array 00000000  0800795c  0800795c  0002034c  2**0
                  CONTENTS, ALLOC, LOAD, DATA
  6 .init_array   00000004  0800795c  0800795c  0001795c  2**2
                  CONTENTS, ALLOC, LOAD, DATA
  7 .fini_array   00000004  08007960  08007960  00017960  2**2
                  CONTENTS, ALLOC, LOAD, DATA
  8 .data         0000034c  20000000  08007964  00020000  2**2
                  CONTENTS, ALLOC, LOAD, DATA
  9 .bss          000001f8  2000034c  08007cb0  0002034c  2**2
                  ALLOC
 10 ._user_heap_stack 00000604  20000544  08007cb0  00020544  2**0
                  ALLOC
 11 .ARM.attributes 00000030  00000000  00000000  0002034c  2**0
                  CONTENTS, READONLY
 12 .debug_info   0001a5b4  00000000  00000000  0002037c  2**0
                  CONTENTS, READONLY, DEBUGGING, OCTETS
 13 .debug_abbrev 00003160  00000000  00000000  0003a930  2**0
                  CONTENTS, READONLY, DEBUGGING, OCTETS
 14 .debug_aranges 00001078  00000000  00000000  0003da90  2**3
                  CONTENTS, READONLY, DEBUGGING, OCTETS
 15 .debug_ranges 00000f10  00000000  00000000  0003eb08  2**3
                  CONTENTS, READONLY, DEBUGGING, OCTETS
 16 .debug_macro  00027e8e  00000000  00000000  0003fa18  2**0
                  CONTENTS, READONLY, DEBUGGING, OCTETS
 17 .debug_line   00014f3e  00000000  00000000  000678a6  2**0
                  CONTENTS, READONLY, DEBUGGING, OCTETS
 18 .debug_str    000f4f0a  00000000  00000000  0007c7e4  2**0
                  CONTENTS, READONLY, DEBUGGING, OCTETS
 19 .comment      00000053  00000000  00000000  001716ee  2**0
                  CONTENTS, READONLY
 20 .debug_frame  00004220  00000000  00000000  00171744  2**2
                  CONTENTS, READONLY, DEBUGGING, OCTETS

Disassembly of section .text:

080001c8 <__do_global_dtors_aux>:
 80001c8:	b510      	push	{r4, lr}
 80001ca:	4c05      	ldr	r4, [pc, #20]	; (80001e0 <__do_global_dtors_aux+0x18>)
 80001cc:	7823      	ldrb	r3, [r4, #0]
 80001ce:	b933      	cbnz	r3, 80001de <__do_global_dtors_aux+0x16>
 80001d0:	4b04      	ldr	r3, [pc, #16]	; (80001e4 <__do_global_dtors_aux+0x1c>)
 80001d2:	b113      	cbz	r3, 80001da <__do_global_dtors_aux+0x12>
 80001d4:	4804      	ldr	r0, [pc, #16]	; (80001e8 <__do_global_dtors_aux+0x20>)
 80001d6:	f3af 8000 	nop.w
 80001da:	2301      	movs	r3, #1
 80001dc:	7023      	strb	r3, [r4, #0]
 80001de:	bd10      	pop	{r4, pc}
 80001e0:	2000034c 	.word	0x2000034c
 80001e4:	00000000 	.word	0x00000000
 80001e8:	08006f28 	.word	0x08006f28

080001ec <frame_dummy>:
 80001ec:	b508      	push	{r3, lr}
 80001ee:	4b03      	ldr	r3, [pc, #12]	; (80001fc <frame_dummy+0x10>)
 80001f0:	b11b      	cbz	r3, 80001fa <frame_dummy+0xe>
 80001f2:	4903      	ldr	r1, [pc, #12]	; (8000200 <frame_dummy+0x14>)
 80001f4:	4803      	ldr	r0, [pc, #12]	; (8000204 <frame_dummy+0x18>)
 80001f6:	f3af 8000 	nop.w
 80001fa:	bd08      	pop	{r3, pc}
 80001fc:	00000000 	.word	0x00000000
 8000200:	20000350 	.word	0x20000350
 8000204:	08006f28 	.word	0x08006f28

08000208 <__aeabi_uldivmod>:
 8000208:	b953      	cbnz	r3, 8000220 <__aeabi_uldivmod+0x18>
 800020a:	b94a      	cbnz	r2, 8000220 <__aeabi_uldivmod+0x18>
 800020c:	2900      	cmp	r1, #0
 800020e:	bf08      	it	eq
 8000210:	2800      	cmpeq	r0, #0
 8000212:	bf1c      	itt	ne
 8000214:	f04f 31ff 	movne.w	r1, #4294967295
 8000218:	f04f 30ff 	movne.w	r0, #4294967295
 800021c:	f000 b96e 	b.w	80004fc <__aeabi_idiv0>
 8000220:	f1ad 0c08 	sub.w	ip, sp, #8
 8000224:	e96d ce04 	strd	ip, lr, [sp, #-16]!
 8000228:	f000 f806 	bl	8000238 <__udivmoddi4>
 800022c:	f8dd e004 	ldr.w	lr, [sp, #4]
 8000230:	e9dd 2302 	ldrd	r2, r3, [sp, #8]
 8000234:	b004      	add	sp, #16
 8000236:	4770      	bx	lr

08000238 <__udivmoddi4>:
 8000238:	e92d 47f0 	stmdb	sp!, {r4, r5, r6, r7, r8, r9, sl, lr}
 800023c:	9d08      	ldr	r5, [sp, #32]
 800023e:	4604      	mov	r4, r0
 8000240:	468c      	mov	ip, r1
 8000242:	2b00      	cmp	r3, #0
 8000244:	f040 8083 	bne.w	800034e <__udivmoddi4+0x116>
 8000248:	428a      	cmp	r2, r1
 800024a:	4617      	mov	r7, r2
 800024c:	d947      	bls.n	80002de <__udivmoddi4+0xa6>
 800024e:	fab2 f282 	clz	r2, r2
 8000252:	b142      	cbz	r2, 8000266 <__udivmoddi4+0x2e>
 8000254:	f1c2 0020 	rsb	r0, r2, #32
 8000258:	fa24 f000 	lsr.w	r0, r4, r0
 800025c:	4091      	lsls	r1, r2
 800025e:	4097      	lsls	r7, r2
 8000260:	ea40 0c01 	orr.w	ip, r0, r1
 8000264:	4094      	lsls	r4, r2
 8000266:	ea4f 4817 	mov.w	r8, r7, lsr #16
 800026a:	0c23      	lsrs	r3, r4, #16
 800026c:	fbbc f6f8 	udiv	r6, ip, r8
 8000270:	fa1f fe87 	uxth.w	lr, r7
 8000274:	fb08 c116 	mls	r1, r8, r6, ip
 8000278:	ea43 4301 	orr.w	r3, r3, r1, lsl #16
 800027c:	fb06 f10e 	mul.w	r1, r6, lr
 8000280:	4299      	cmp	r1, r3
 8000282:	d909      	bls.n	8000298 <__udivmoddi4+0x60>
 8000284:	18fb      	adds	r3, r7, r3
 8000286:	f106 30ff 	add.w	r0, r6, #4294967295
 800028a:	f080 8119 	bcs.w	80004c0 <__udivmoddi4+0x288>
 800028e:	4299      	cmp	r1, r3
 8000290:	f240 8116 	bls.w	80004c0 <__udivmoddi4+0x288>
 8000294:	3e02      	subs	r6, #2
 8000296:	443b      	add	r3, r7
 8000298:	1a5b      	subs	r3, r3, r1
 800029a:	b2a4      	uxth	r4, r4
 800029c:	fbb3 f0f8 	udiv	r0, r3, r8
 80002a0:	fb08 3310 	mls	r3, r8, r0, r3
 80002a4:	ea44 4403 	orr.w	r4, r4, r3, lsl #16
 80002a8:	fb00 fe0e 	mul.w	lr, r0, lr
 80002ac:	45a6      	cmp	lr, r4
 80002ae:	d909      	bls.n	80002c4 <__udivmoddi4+0x8c>
 80002b0:	193c      	adds	r4, r7, r4
 80002b2:	f100 33ff 	add.w	r3, r0, #4294967295
 80002b6:	f080 8105 	bcs.w	80004c4 <__udivmoddi4+0x28c>
 80002ba:	45a6      	cmp	lr, r4
 80002bc:	f240 8102 	bls.w	80004c4 <__udivmoddi4+0x28c>
 80002c0:	3802      	subs	r0, #2
 80002c2:	443c      	add	r4, r7
 80002c4:	ea40 4006 	orr.w	r0, r0, r6, lsl #16
 80002c8:	eba4 040e 	sub.w	r4, r4, lr
 80002cc:	2600      	movs	r6, #0
 80002ce:	b11d      	cbz	r5, 80002d8 <__udivmoddi4+0xa0>
 80002d0:	40d4      	lsrs	r4, r2
 80002d2:	2300      	movs	r3, #0
 80002d4:	e9c5 4300 	strd	r4, r3, [r5]
 80002d8:	4631      	mov	r1, r6
 80002da:	e8bd 87f0 	ldmia.w	sp!, {r4, r5, r6, r7, r8, r9, sl, pc}
 80002de:	b902      	cbnz	r2, 80002e2 <__udivmoddi4+0xaa>
 80002e0:	deff      	udf	#255	; 0xff
 80002e2:	fab2 f282 	clz	r2, r2
 80002e6:	2a00      	cmp	r2, #0
 80002e8:	d150      	bne.n	800038c <__udivmoddi4+0x154>
 80002ea:	1bcb      	subs	r3, r1, r7
 80002ec:	ea4f 4e17 	mov.w	lr, r7, lsr #16
 80002f0:	fa1f f887 	uxth.w	r8, r7
 80002f4:	2601      	movs	r6, #1
 80002f6:	fbb3 fcfe 	udiv	ip, r3, lr
 80002fa:	0c21      	lsrs	r1, r4, #16
 80002fc:	fb0e 331c 	mls	r3, lr, ip, r3
 8000300:	ea41 4103 	orr.w	r1, r1, r3, lsl #16
 8000304:	fb08 f30c 	mul.w	r3, r8, ip
 8000308:	428b      	cmp	r3, r1
 800030a:	d907      	bls.n	800031c <__udivmoddi4+0xe4>
 800030c:	1879      	adds	r1, r7, r1
 800030e:	f10c 30ff 	add.w	r0, ip, #4294967295
 8000312:	d202      	bcs.n	800031a <__udivmoddi4+0xe2>
 8000314:	428b      	cmp	r3, r1
 8000316:	f200 80e9 	bhi.w	80004ec <__udivmoddi4+0x2b4>
 800031a:	4684      	mov	ip, r0
 800031c:	1ac9      	subs	r1, r1, r3
 800031e:	b2a3      	uxth	r3, r4
 8000320:	fbb1 f0fe 	udiv	r0, r1, lr
 8000324:	fb0e 1110 	mls	r1, lr, r0, r1
 8000328:	ea43 4401 	orr.w	r4, r3, r1, lsl #16
 800032c:	fb08 f800 	mul.w	r8, r8, r0
 8000330:	45a0      	cmp	r8, r4
 8000332:	d907      	bls.n	8000344 <__udivmoddi4+0x10c>
 8000334:	193c      	adds	r4, r7, r4
 8000336:	f100 33ff 	add.w	r3, r0, #4294967295
 800033a:	d202      	bcs.n	8000342 <__udivmoddi4+0x10a>
 800033c:	45a0      	cmp	r8, r4
 800033e:	f200 80d9 	bhi.w	80004f4 <__udivmoddi4+0x2bc>
 8000342:	4618      	mov	r0, r3
 8000344:	eba4 0408 	sub.w	r4, r4, r8
 8000348:	ea40 400c 	orr.w	r0, r0, ip, lsl #16
 800034c:	e7bf      	b.n	80002ce <__udivmoddi4+0x96>
 800034e:	428b      	cmp	r3, r1
 8000350:	d909      	bls.n	8000366 <__udivmoddi4+0x12e>
 8000352:	2d00      	cmp	r5, #0
 8000354:	f000 80b1 	beq.w	80004ba <__udivmoddi4+0x282>
 8000358:	2600      	movs	r6, #0
 800035a:	e9c5 0100 	strd	r0, r1, [r5]
 800035e:	4630      	mov	r0, r6
 8000360:	4631      	mov	r1, r6
 8000362:	e8bd 87f0 	ldmia.w	sp!, {r4, r5, r6, r7, r8, r9, sl, pc}
 8000366:	fab3 f683 	clz	r6, r3
 800036a:	2e00      	cmp	r6, #0
 800036c:	d14a      	bne.n	8000404 <__udivmoddi4+0x1cc>
 800036e:	428b      	cmp	r3, r1
 8000370:	d302      	bcc.n	8000378 <__udivmoddi4+0x140>
 8000372:	4282      	cmp	r2, r0
 8000374:	f200 80b8 	bhi.w	80004e8 <__udivmoddi4+0x2b0>
 8000378:	1a84      	subs	r4, r0, r2
 800037a:	eb61 0103 	sbc.w	r1, r1, r3
 800037e:	2001      	movs	r0, #1
 8000380:	468c      	mov	ip, r1
 8000382:	2d00      	cmp	r5, #0
 8000384:	d0a8      	beq.n	80002d8 <__udivmoddi4+0xa0>
 8000386:	e9c5 4c00 	strd	r4, ip, [r5]
 800038a:	e7a5      	b.n	80002d8 <__udivmoddi4+0xa0>
 800038c:	f1c2 0320 	rsb	r3, r2, #32
 8000390:	fa20 f603 	lsr.w	r6, r0, r3
 8000394:	4097      	lsls	r7, r2
 8000396:	fa01 f002 	lsl.w	r0, r1, r2
 800039a:	ea4f 4e17 	mov.w	lr, r7, lsr #16
 800039e:	40d9      	lsrs	r1, r3
 80003a0:	4330      	orrs	r0, r6
 80003a2:	0c03      	lsrs	r3, r0, #16
 80003a4:	fbb1 f6fe 	udiv	r6, r1, lr
 80003a8:	fa1f f887 	uxth.w	r8, r7
 80003ac:	fb0e 1116 	mls	r1, lr, r6, r1
 80003b0:	ea43 4301 	orr.w	r3, r3, r1, lsl #16
 80003b4:	fb06 f108 	mul.w	r1, r6, r8
 80003b8:	4299      	cmp	r1, r3
 80003ba:	fa04 f402 	lsl.w	r4, r4, r2
 80003be:	d909      	bls.n	80003d4 <__udivmoddi4+0x19c>
 80003c0:	18fb      	adds	r3, r7, r3
 80003c2:	f106 3cff 	add.w	ip, r6, #4294967295
 80003c6:	f080 808d 	bcs.w	80004e4 <__udivmoddi4+0x2ac>
 80003ca:	4299      	cmp	r1, r3
 80003cc:	f240 808a 	bls.w	80004e4 <__udivmoddi4+0x2ac>
 80003d0:	3e02      	subs	r6, #2
 80003d2:	443b      	add	r3, r7
 80003d4:	1a5b      	subs	r3, r3, r1
 80003d6:	b281      	uxth	r1, r0
 80003d8:	fbb3 f0fe 	udiv	r0, r3, lr
 80003dc:	fb0e 3310 	mls	r3, lr, r0, r3
 80003e0:	ea41 4103 	orr.w	r1, r1, r3, lsl #16
 80003e4:	fb00 f308 	mul.w	r3, r0, r8
 80003e8:	428b      	cmp	r3, r1
 80003ea:	d907      	bls.n	80003fc <__udivmoddi4+0x1c4>
 80003ec:	1879      	adds	r1, r7, r1
 80003ee:	f100 3cff 	add.w	ip, r0, #4294967295
 80003f2:	d273      	bcs.n	80004dc <__udivmoddi4+0x2a4>
 80003f4:	428b      	cmp	r3, r1
 80003f6:	d971      	bls.n	80004dc <__udivmoddi4+0x2a4>
 80003f8:	3802      	subs	r0, #2
 80003fa:	4439      	add	r1, r7
 80003fc:	1acb      	subs	r3, r1, r3
 80003fe:	ea40 4606 	orr.w	r6, r0, r6, lsl #16
 8000402:	e778      	b.n	80002f6 <__udivmoddi4+0xbe>
 8000404:	f1c6 0c20 	rsb	ip, r6, #32
 8000408:	fa03 f406 	lsl.w	r4, r3, r6
 800040c:	fa22 f30c 	lsr.w	r3, r2, ip
 8000410:	431c      	orrs	r4, r3
 8000412:	fa20 f70c 	lsr.w	r7, r0, ip
 8000416:	fa01 f306 	lsl.w	r3, r1, r6
 800041a:	ea4f 4e14 	mov.w	lr, r4, lsr #16
 800041e:	fa21 f10c 	lsr.w	r1, r1, ip
 8000422:	431f      	orrs	r7, r3
 8000424:	0c3b      	lsrs	r3, r7, #16
 8000426:	fbb1 f9fe 	udiv	r9, r1, lr
 800042a:	fa1f f884 	uxth.w	r8, r4
 800042e:	fb0e 1119 	mls	r1, lr, r9, r1
 8000432:	ea43 4101 	orr.w	r1, r3, r1, lsl #16
 8000436:	fb09 fa08 	mul.w	sl, r9, r8
 800043a:	458a      	cmp	sl, r1
 800043c:	fa02 f206 	lsl.w	r2, r2, r6
 8000440:	fa00 f306 	lsl.w	r3, r0, r6
 8000444:	d908      	bls.n	8000458 <__udivmoddi4+0x220>
 8000446:	1861      	adds	r1, r4, r1
 8000448:	f109 30ff 	add.w	r0, r9, #4294967295
 800044c:	d248      	bcs.n	80004e0 <__udivmoddi4+0x2a8>
 800044e:	458a      	cmp	sl, r1
 8000450:	d946      	bls.n	80004e0 <__udivmoddi4+0x2a8>
 8000452:	f1a9 0902 	sub.w	r9, r9, #2
 8000456:	4421      	add	r1, r4
 8000458:	eba1 010a 	sub.w	r1, r1, sl
 800045c:	b2bf      	uxth	r7, r7
 800045e:	fbb1 f0fe 	udiv	r0, r1, lr
 8000462:	fb0e 1110 	mls	r1, lr, r0, r1
 8000466:	ea47 4701 	orr.w	r7, r7, r1, lsl #16
 800046a:	fb00 f808 	mul.w	r8, r0, r8
 800046e:	45b8      	cmp	r8, r7
 8000470:	d907      	bls.n	8000482 <__udivmoddi4+0x24a>
 8000472:	19e7      	adds	r7, r4, r7
 8000474:	f100 31ff 	add.w	r1, r0, #4294967295
 8000478:	d22e      	bcs.n	80004d8 <__udivmoddi4+0x2a0>
 800047a:	45b8      	cmp	r8, r7
 800047c:	d92c      	bls.n	80004d8 <__udivmoddi4+0x2a0>
 800047e:	3802      	subs	r0, #2
 8000480:	4427      	add	r7, r4
 8000482:	ea40 4009 	orr.w	r0, r0, r9, lsl #16
 8000486:	eba7 0708 	sub.w	r7, r7, r8
 800048a:	fba0 8902 	umull	r8, r9, r0, r2
 800048e:	454f      	cmp	r7, r9
 8000490:	46c6      	mov	lr, r8
 8000492:	4649      	mov	r1, r9
 8000494:	d31a      	bcc.n	80004cc <__udivmoddi4+0x294>
 8000496:	d017      	beq.n	80004c8 <__udivmoddi4+0x290>
 8000498:	b15d      	cbz	r5, 80004b2 <__udivmoddi4+0x27a>
 800049a:	ebb3 020e 	subs.w	r2, r3, lr
 800049e:	eb67 0701 	sbc.w	r7, r7, r1
 80004a2:	fa07 fc0c 	lsl.w	ip, r7, ip
 80004a6:	40f2      	lsrs	r2, r6
 80004a8:	ea4c 0202 	orr.w	r2, ip, r2
 80004ac:	40f7      	lsrs	r7, r6
 80004ae:	e9c5 2700 	strd	r2, r7, [r5]
 80004b2:	2600      	movs	r6, #0
 80004b4:	4631      	mov	r1, r6
 80004b6:	e8bd 87f0 	ldmia.w	sp!, {r4, r5, r6, r7, r8, r9, sl, pc}
 80004ba:	462e      	mov	r6, r5
 80004bc:	4628      	mov	r0, r5
 80004be:	e70b      	b.n	80002d8 <__udivmoddi4+0xa0>
 80004c0:	4606      	mov	r6, r0
 80004c2:	e6e9      	b.n	8000298 <__udivmoddi4+0x60>
 80004c4:	4618      	mov	r0, r3
 80004c6:	e6fd      	b.n	80002c4 <__udivmoddi4+0x8c>
 80004c8:	4543      	cmp	r3, r8
 80004ca:	d2e5      	bcs.n	8000498 <__udivmoddi4+0x260>
 80004cc:	ebb8 0e02 	subs.w	lr, r8, r2
 80004d0:	eb69 0104 	sbc.w	r1, r9, r4
 80004d4:	3801      	subs	r0, #1
 80004d6:	e7df      	b.n	8000498 <__udivmoddi4+0x260>
 80004d8:	4608      	mov	r0, r1
 80004da:	e7d2      	b.n	8000482 <__udivmoddi4+0x24a>
 80004dc:	4660      	mov	r0, ip
 80004de:	e78d      	b.n	80003fc <__udivmoddi4+0x1c4>
 80004e0:	4681      	mov	r9, r0
 80004e2:	e7b9      	b.n	8000458 <__udivmoddi4+0x220>
 80004e4:	4666      	mov	r6, ip
 80004e6:	e775      	b.n	80003d4 <__udivmoddi4+0x19c>
 80004e8:	4630      	mov	r0, r6
 80004ea:	e74a      	b.n	8000382 <__udivmoddi4+0x14a>
 80004ec:	f1ac 0c02 	sub.w	ip, ip, #2
 80004f0:	4439      	add	r1, r7
 80004f2:	e713      	b.n	800031c <__udivmoddi4+0xe4>
 80004f4:	3802      	subs	r0, #2
 80004f6:	443c      	add	r4, r7
 80004f8:	e724      	b.n	8000344 <__udivmoddi4+0x10c>
 80004fa:	bf00      	nop

080004fc <__aeabi_idiv0>:
 80004fc:	4770      	bx	lr
 80004fe:	bf00      	nop

08000500 <L6470_ResetAppCmdPkg>:
  * @brief  Reset the structure used to store the identifier of the L6470
  *         application command and its the needed parameters.
  * @param  L6470_AppCmdPkg   The structure to be reset.
  */
void L6470_ResetAppCmdPkg(sL6470_AppCmdPkg_t* pL6470_AppCmdPkg)
{
 8000500:	b480      	push	{r7}
 8000502:	b085      	sub	sp, #20
 8000504:	af00      	add	r7, sp, #0
 8000506:	6078      	str	r0, [r7, #4]
  uint8_t id;
  
  for(id=0; id<L6470DAISYCHAINSIZE; id++)
 8000508:	2300      	movs	r3, #0
 800050a:	73fb      	strb	r3, [r7, #15]
 800050c:	e01a      	b.n	8000544 <L6470_ResetAppCmdPkg+0x44>
  {
    (pL6470_AppCmdPkg+id)->L6470_AppCmdId=(eL6470_AppCmdId_t)0;
 800050e:	7bfb      	ldrb	r3, [r7, #15]
 8000510:	011b      	lsls	r3, r3, #4
 8000512:	687a      	ldr	r2, [r7, #4]
 8000514:	4413      	add	r3, r2
 8000516:	2200      	movs	r2, #0
 8000518:	701a      	strb	r2, [r3, #0]
    (pL6470_AppCmdPkg+id)->p1=0;
 800051a:	7bfb      	ldrb	r3, [r7, #15]
 800051c:	011b      	lsls	r3, r3, #4
 800051e:	687a      	ldr	r2, [r7, #4]
 8000520:	4413      	add	r3, r2
 8000522:	2200      	movs	r2, #0
 8000524:	605a      	str	r2, [r3, #4]
    (pL6470_AppCmdPkg+id)->p2=0;
 8000526:	7bfb      	ldrb	r3, [r7, #15]
 8000528:	011b      	lsls	r3, r3, #4
 800052a:	687a      	ldr	r2, [r7, #4]
 800052c:	4413      	add	r3, r2
 800052e:	2200      	movs	r2, #0
 8000530:	609a      	str	r2, [r3, #8]
    (pL6470_AppCmdPkg+id)->p3=0;
 8000532:	7bfb      	ldrb	r3, [r7, #15]
 8000534:	011b      	lsls	r3, r3, #4
 8000536:	687a      	ldr	r2, [r7, #4]
 8000538:	4413      	add	r3, r2
 800053a:	2200      	movs	r2, #0
 800053c:	60da      	str	r2, [r3, #12]
  for(id=0; id<L6470DAISYCHAINSIZE; id++)
 800053e:	7bfb      	ldrb	r3, [r7, #15]
 8000540:	3301      	adds	r3, #1
 8000542:	73fb      	strb	r3, [r7, #15]
 8000544:	7bfb      	ldrb	r3, [r7, #15]
 8000546:	2b01      	cmp	r3, #1
 8000548:	d9e1      	bls.n	800050e <L6470_ResetAppCmdPkg+0xe>
  }
}
 800054a:	bf00      	nop
 800054c:	bf00      	nop
 800054e:	3714      	adds	r7, #20
 8000550:	46bd      	mov	sp, r7
 8000552:	f85d 7b04 	ldr.w	r7, [sp], #4
 8000556:	4770      	bx	lr

08000558 <L6470_FillAppCmdPkg>:
  * @param  p1                The 1st parameter (if it is not needed it will be not considered).
  * @param  p2                The 2nd parameter (if it is not needed it will be not considered).
  * @param  p3                The 3rd parameter (if it is not needed it will be not considered).
  */
void L6470_FillAppCmdPkg(uint8_t L6470_Id, sL6470_AppCmdPkg_t* pL6470_AppCmdPkg, eL6470_AppCmdId_t L6470_AppCmdId, uint32_t p1, uint32_t p2, uint32_t p3)
{
 8000558:	b480      	push	{r7}
 800055a:	b085      	sub	sp, #20
 800055c:	af00      	add	r7, sp, #0
 800055e:	60b9      	str	r1, [r7, #8]
 8000560:	607b      	str	r3, [r7, #4]
 8000562:	4603      	mov	r3, r0
 8000564:	73fb      	strb	r3, [r7, #15]
 8000566:	4613      	mov	r3, r2
 8000568:	73bb      	strb	r3, [r7, #14]
  (pL6470_AppCmdPkg+L6470_Id)->L6470_AppCmdId = L6470_AppCmdId;
 800056a:	7bfb      	ldrb	r3, [r7, #15]
 800056c:	011b      	lsls	r3, r3, #4
 800056e:	68ba      	ldr	r2, [r7, #8]
 8000570:	4413      	add	r3, r2
 8000572:	7bba      	ldrb	r2, [r7, #14]
 8000574:	701a      	strb	r2, [r3, #0]
  (pL6470_AppCmdPkg+L6470_Id)->p1 = p1;
 8000576:	7bfb      	ldrb	r3, [r7, #15]
 8000578:	011b      	lsls	r3, r3, #4
 800057a:	68ba      	ldr	r2, [r7, #8]
 800057c:	4413      	add	r3, r2
 800057e:	687a      	ldr	r2, [r7, #4]
 8000580:	605a      	str	r2, [r3, #4]
  (pL6470_AppCmdPkg+L6470_Id)->p2 = p2;
 8000582:	7bfb      	ldrb	r3, [r7, #15]
 8000584:	011b      	lsls	r3, r3, #4
 8000586:	68ba      	ldr	r2, [r7, #8]
 8000588:	4413      	add	r3, r2
 800058a:	69ba      	ldr	r2, [r7, #24]
 800058c:	609a      	str	r2, [r3, #8]
  (pL6470_AppCmdPkg+L6470_Id)->p3 = p3;
 800058e:	7bfb      	ldrb	r3, [r7, #15]
 8000590:	011b      	lsls	r3, r3, #4
 8000592:	68ba      	ldr	r2, [r7, #8]
 8000594:	4413      	add	r3, r2
 8000596:	69fa      	ldr	r2, [r7, #28]
 8000598:	60da      	str	r2, [r3, #12]
}
 800059a:	bf00      	nop
 800059c:	3714      	adds	r7, #20
 800059e:	46bd      	mov	sp, r7
 80005a0:	f85d 7b04 	ldr.w	r7, [sp], #4
 80005a4:	4770      	bx	lr
	...

080005a8 <L6470_PrepareAppCmdPkg>:
  * @param  p1                The 1st parameter (if it is not needed it will be not considered).
  * @param  p2                The 2nd parameter (if it is not needed it will be not considered).
  * @param  p3                The 3rd parameter (if it is not needed it will be not considered).
  */
void L6470_PrepareAppCmdPkg(uint8_t L6470_Id, sL6470_AppCmdPkg_t* pL6470_AppCmdPkg, eL6470_AppCmdId_t L6470_AppCmdId, uint32_t p1, uint32_t p2, uint32_t p3)
{
 80005a8:	b580      	push	{r7, lr}
 80005aa:	b086      	sub	sp, #24
 80005ac:	af02      	add	r7, sp, #8
 80005ae:	60b9      	str	r1, [r7, #8]
 80005b0:	607b      	str	r3, [r7, #4]
 80005b2:	4603      	mov	r3, r0
 80005b4:	73fb      	strb	r3, [r7, #15]
 80005b6:	4613      	mov	r3, r2
 80005b8:	73bb      	strb	r3, [r7, #14]
  if(!L6470_DaisyChain_HalfPrepared)
 80005ba:	4b0c      	ldr	r3, [pc, #48]	; (80005ec <L6470_PrepareAppCmdPkg+0x44>)
 80005bc:	781b      	ldrb	r3, [r3, #0]
 80005be:	2b00      	cmp	r3, #0
 80005c0:	d105      	bne.n	80005ce <L6470_PrepareAppCmdPkg+0x26>
  {
    L6470_DaisyChain_HalfPrepared = ONE_F; /* To avoid to delete the previous entered command */
 80005c2:	4b0a      	ldr	r3, [pc, #40]	; (80005ec <L6470_PrepareAppCmdPkg+0x44>)
 80005c4:	2201      	movs	r2, #1
 80005c6:	701a      	strb	r2, [r3, #0]
    L6470_ResetAppCmdPkg(pL6470_AppCmdPkg);
 80005c8:	68b8      	ldr	r0, [r7, #8]
 80005ca:	f7ff ff99 	bl	8000500 <L6470_ResetAppCmdPkg>
  }
  
  L6470_FillAppCmdPkg(L6470_Id, pL6470_AppCmdPkg, L6470_AppCmdId, p1, p2, p3);
 80005ce:	7bba      	ldrb	r2, [r7, #14]
 80005d0:	7bf8      	ldrb	r0, [r7, #15]
 80005d2:	69fb      	ldr	r3, [r7, #28]
 80005d4:	9301      	str	r3, [sp, #4]
 80005d6:	69bb      	ldr	r3, [r7, #24]
 80005d8:	9300      	str	r3, [sp, #0]
 80005da:	687b      	ldr	r3, [r7, #4]
 80005dc:	68b9      	ldr	r1, [r7, #8]
 80005de:	f7ff ffbb 	bl	8000558 <L6470_FillAppCmdPkg>
}
 80005e2:	bf00      	nop
 80005e4:	3710      	adds	r7, #16
 80005e6:	46bd      	mov	sp, r7
 80005e8:	bd80      	pop	{r7, pc}
 80005ea:	bf00      	nop
 80005ec:	20000368 	.word	0x20000368

080005f0 <L6470_PrepareDaisyChainCommand>:
  *
  * @param  pL6470_AppCmdPkg              Pointer to the sL6470_AppCmdPkg_t to be filled.
  * @param  pL6470_DaisyChainSpiTxStruct  Pointer to the structure used by SPI to send the commands.
  */
void L6470_PrepareDaisyChainCommand(sL6470_AppCmdPkg_t* pL6470_AppCmdPkg, uint8_t* pL6470_DaisyChainSpiTxStruct)
{
 80005f0:	b480      	push	{r7}
 80005f2:	b085      	sub	sp, #20
 80005f4:	af00      	add	r7, sp, #0
 80005f6:	6078      	str	r0, [r7, #4]
 80005f8:	6039      	str	r1, [r7, #0]
  uint8_t PARAMLengthBytes; /* The number of bytes related to the numeric value for the addressed register */
  uint8_t spibyte;
  uint8_t i;
  
  /* Reset the structure used to send the command to the L6470 Daisy Chain through the SPI */
  i = 0;
 80005fa:	2300      	movs	r3, #0
 80005fc:	737b      	strb	r3, [r7, #13]
  for(spibyte=0;spibyte<L6470MAXSPICMDBYTESIZE;spibyte++)
 80005fe:	2300      	movs	r3, #0
 8000600:	73bb      	strb	r3, [r7, #14]
 8000602:	e013      	b.n	800062c <L6470_PrepareDaisyChainCommand+0x3c>
    for(PkgId=0; PkgId<L6470DAISYCHAINSIZE; PkgId++)
 8000604:	2300      	movs	r3, #0
 8000606:	73fb      	strb	r3, [r7, #15]
 8000608:	e00a      	b.n	8000620 <L6470_PrepareDaisyChainCommand+0x30>
      *(pL6470_DaisyChainSpiTxStruct+(i++)) = 0x00;
 800060a:	7b7b      	ldrb	r3, [r7, #13]
 800060c:	1c5a      	adds	r2, r3, #1
 800060e:	737a      	strb	r2, [r7, #13]
 8000610:	461a      	mov	r2, r3
 8000612:	683b      	ldr	r3, [r7, #0]
 8000614:	4413      	add	r3, r2
 8000616:	2200      	movs	r2, #0
 8000618:	701a      	strb	r2, [r3, #0]
    for(PkgId=0; PkgId<L6470DAISYCHAINSIZE; PkgId++)
 800061a:	7bfb      	ldrb	r3, [r7, #15]
 800061c:	3301      	adds	r3, #1
 800061e:	73fb      	strb	r3, [r7, #15]
 8000620:	7bfb      	ldrb	r3, [r7, #15]
 8000622:	2b01      	cmp	r3, #1
 8000624:	d9f1      	bls.n	800060a <L6470_PrepareDaisyChainCommand+0x1a>
  for(spibyte=0;spibyte<L6470MAXSPICMDBYTESIZE;spibyte++)
 8000626:	7bbb      	ldrb	r3, [r7, #14]
 8000628:	3301      	adds	r3, #1
 800062a:	73bb      	strb	r3, [r7, #14]
 800062c:	7bbb      	ldrb	r3, [r7, #14]
 800062e:	2b03      	cmp	r3, #3
 8000630:	d9e8      	bls.n	8000604 <L6470_PrepareDaisyChainCommand+0x14>
  
  for(PkgId=0; PkgId<L6470DAISYCHAINSIZE; PkgId++)
 8000632:	2300      	movs	r3, #0
 8000634:	73fb      	strb	r3, [r7, #15]
 8000636:	e1f7      	b.n	8000a28 <L6470_PrepareDaisyChainCommand+0x438>
  {
    /* Build the 1st bytes to transmit with the binary code of the command */
    *(pL6470_DaisyChainSpiTxStruct+((0*L6470DAISYCHAINSIZE)+PkgId)) = (L6470_ApplicationCommand[(pL6470_AppCmdPkg+PkgId)->L6470_AppCmdId].BinaryCode);
 8000638:	7bfb      	ldrb	r3, [r7, #15]
 800063a:	011b      	lsls	r3, r3, #4
 800063c:	687a      	ldr	r2, [r7, #4]
 800063e:	4413      	add	r3, r2
 8000640:	781b      	ldrb	r3, [r3, #0]
 8000642:	4618      	mov	r0, r3
 8000644:	7bfb      	ldrb	r3, [r7, #15]
 8000646:	683a      	ldr	r2, [r7, #0]
 8000648:	441a      	add	r2, r3
 800064a:	49b3      	ldr	r1, [pc, #716]	; (8000918 <L6470_PrepareDaisyChainCommand+0x328>)
 800064c:	4603      	mov	r3, r0
 800064e:	00db      	lsls	r3, r3, #3
 8000650:	1a1b      	subs	r3, r3, r0
 8000652:	005b      	lsls	r3, r3, #1
 8000654:	440b      	add	r3, r1
 8000656:	330c      	adds	r3, #12
 8000658:	781b      	ldrb	r3, [r3, #0]
 800065a:	7013      	strb	r3, [r2, #0]
    
    /* Perform the related L6470_AppCmdId */
    switch((pL6470_AppCmdPkg+PkgId)->L6470_AppCmdId)
 800065c:	7bfb      	ldrb	r3, [r7, #15]
 800065e:	011b      	lsls	r3, r3, #4
 8000660:	687a      	ldr	r2, [r7, #4]
 8000662:	4413      	add	r3, r2
 8000664:	781b      	ldrb	r3, [r3, #0]
 8000666:	2b12      	cmp	r3, #18
 8000668:	f200 81db 	bhi.w	8000a22 <L6470_PrepareDaisyChainCommand+0x432>
 800066c:	a201      	add	r2, pc, #4	; (adr r2, 8000674 <L6470_PrepareDaisyChainCommand+0x84>)
 800066e:	f852 f023 	ldr.w	pc, [r2, r3, lsl #2]
 8000672:	bf00      	nop
 8000674:	08000a23 	.word	0x08000a23
 8000678:	080006c1 	.word	0x080006c1
 800067c:	08000747 	.word	0x08000747
 8000680:	08000775 	.word	0x08000775
 8000684:	080007dd 	.word	0x080007dd
 8000688:	0800080b 	.word	0x0800080b
 800068c:	08000873 	.word	0x08000873
 8000690:	080008af 	.word	0x080008af
 8000694:	08000925 	.word	0x08000925
 8000698:	080009c1 	.word	0x080009c1
 800069c:	08000a23 	.word	0x08000a23
 80006a0:	08000a23 	.word	0x08000a23
 80006a4:	08000a23 	.word	0x08000a23
 80006a8:	08000a23 	.word	0x08000a23
 80006ac:	08000a23 	.word	0x08000a23
 80006b0:	08000a23 	.word	0x08000a23
 80006b4:	08000a23 	.word	0x08000a23
 80006b8:	08000a23 	.word	0x08000a23
 80006bc:	08000a23 	.word	0x08000a23
    {
    case L6470_NOP_ID:
      break;
    case L6470_SETPARAM_ID:
      /* Build the 1st bytes to transmit (PARAM) */
      *(pL6470_DaisyChainSpiTxStruct+((0*L6470DAISYCHAINSIZE)+PkgId)) |= (L6470_Register[((pL6470_AppCmdPkg+PkgId)->p1)].Address);
 80006c0:	7bfb      	ldrb	r3, [r7, #15]
 80006c2:	683a      	ldr	r2, [r7, #0]
 80006c4:	4413      	add	r3, r2
 80006c6:	7819      	ldrb	r1, [r3, #0]
 80006c8:	7bfb      	ldrb	r3, [r7, #15]
 80006ca:	011b      	lsls	r3, r3, #4
 80006cc:	687a      	ldr	r2, [r7, #4]
 80006ce:	4413      	add	r3, r2
 80006d0:	685a      	ldr	r2, [r3, #4]
 80006d2:	4892      	ldr	r0, [pc, #584]	; (800091c <L6470_PrepareDaisyChainCommand+0x32c>)
 80006d4:	4613      	mov	r3, r2
 80006d6:	009b      	lsls	r3, r3, #2
 80006d8:	4413      	add	r3, r2
 80006da:	009b      	lsls	r3, r3, #2
 80006dc:	4403      	add	r3, r0
 80006de:	781a      	ldrb	r2, [r3, #0]
 80006e0:	7bfb      	ldrb	r3, [r7, #15]
 80006e2:	6838      	ldr	r0, [r7, #0]
 80006e4:	4403      	add	r3, r0
 80006e6:	430a      	orrs	r2, r1
 80006e8:	b2d2      	uxtb	r2, r2
 80006ea:	701a      	strb	r2, [r3, #0]
      
      /* The length, in byte, of this register (PARAM) is... */
      PARAMLengthBytes = L6470_Register[((pL6470_AppCmdPkg+PkgId)->p1)].LengthByte;
 80006ec:	7bfb      	ldrb	r3, [r7, #15]
 80006ee:	011b      	lsls	r3, r3, #4
 80006f0:	687a      	ldr	r2, [r7, #4]
 80006f2:	4413      	add	r3, r2
 80006f4:	685a      	ldr	r2, [r3, #4]
 80006f6:	4989      	ldr	r1, [pc, #548]	; (800091c <L6470_PrepareDaisyChainCommand+0x32c>)
 80006f8:	4613      	mov	r3, r2
 80006fa:	009b      	lsls	r3, r3, #2
 80006fc:	4413      	add	r3, r2
 80006fe:	009b      	lsls	r3, r3, #2
 8000700:	440b      	add	r3, r1
 8000702:	330e      	adds	r3, #14
 8000704:	781b      	ldrb	r3, [r3, #0]
 8000706:	733b      	strb	r3, [r7, #12]
      
      /* Build the others bytes to transmit (VALUE) */
      for (spibyte=1; spibyte<(PARAMLengthBytes+1); spibyte++)
 8000708:	2301      	movs	r3, #1
 800070a:	73bb      	strb	r3, [r7, #14]
 800070c:	e016      	b.n	800073c <L6470_PrepareDaisyChainCommand+0x14c>
      {
        *(pL6470_DaisyChainSpiTxStruct+((spibyte*L6470DAISYCHAINSIZE)+PkgId)) = (uint8_t)(((pL6470_AppCmdPkg+PkgId)->p2) >> (8*(PARAMLengthBytes-spibyte)));
 800070e:	7bfb      	ldrb	r3, [r7, #15]
 8000710:	011b      	lsls	r3, r3, #4
 8000712:	687a      	ldr	r2, [r7, #4]
 8000714:	4413      	add	r3, r2
 8000716:	689a      	ldr	r2, [r3, #8]
 8000718:	7b39      	ldrb	r1, [r7, #12]
 800071a:	7bbb      	ldrb	r3, [r7, #14]
 800071c:	1acb      	subs	r3, r1, r3
 800071e:	00db      	lsls	r3, r3, #3
 8000720:	fa22 f103 	lsr.w	r1, r2, r3
 8000724:	7bbb      	ldrb	r3, [r7, #14]
 8000726:	005a      	lsls	r2, r3, #1
 8000728:	7bfb      	ldrb	r3, [r7, #15]
 800072a:	4413      	add	r3, r2
 800072c:	461a      	mov	r2, r3
 800072e:	683b      	ldr	r3, [r7, #0]
 8000730:	4413      	add	r3, r2
 8000732:	b2ca      	uxtb	r2, r1
 8000734:	701a      	strb	r2, [r3, #0]
      for (spibyte=1; spibyte<(PARAMLengthBytes+1); spibyte++)
 8000736:	7bbb      	ldrb	r3, [r7, #14]
 8000738:	3301      	adds	r3, #1
 800073a:	73bb      	strb	r3, [r7, #14]
 800073c:	7b3a      	ldrb	r2, [r7, #12]
 800073e:	7bbb      	ldrb	r3, [r7, #14]
 8000740:	429a      	cmp	r2, r3
 8000742:	d2e4      	bcs.n	800070e <L6470_PrepareDaisyChainCommand+0x11e>
      }
      break;
 8000744:	e16d      	b.n	8000a22 <L6470_PrepareDaisyChainCommand+0x432>
    case L6470_GETPARAM_ID:
      /* Build the 1st bytes to transmit (PARAM) */
      *(pL6470_DaisyChainSpiTxStruct+((0*L6470DAISYCHAINSIZE)+PkgId)) |= (L6470_Register[((pL6470_AppCmdPkg+PkgId)->p1)].Address);
 8000746:	7bfb      	ldrb	r3, [r7, #15]
 8000748:	683a      	ldr	r2, [r7, #0]
 800074a:	4413      	add	r3, r2
 800074c:	7819      	ldrb	r1, [r3, #0]
 800074e:	7bfb      	ldrb	r3, [r7, #15]
 8000750:	011b      	lsls	r3, r3, #4
 8000752:	687a      	ldr	r2, [r7, #4]
 8000754:	4413      	add	r3, r2
 8000756:	685a      	ldr	r2, [r3, #4]
 8000758:	4870      	ldr	r0, [pc, #448]	; (800091c <L6470_PrepareDaisyChainCommand+0x32c>)
 800075a:	4613      	mov	r3, r2
 800075c:	009b      	lsls	r3, r3, #2
 800075e:	4413      	add	r3, r2
 8000760:	009b      	lsls	r3, r3, #2
 8000762:	4403      	add	r3, r0
 8000764:	781a      	ldrb	r2, [r3, #0]
 8000766:	7bfb      	ldrb	r3, [r7, #15]
 8000768:	6838      	ldr	r0, [r7, #0]
 800076a:	4403      	add	r3, r0
 800076c:	430a      	orrs	r2, r1
 800076e:	b2d2      	uxtb	r2, r2
 8000770:	701a      	strb	r2, [r3, #0]
      break;
 8000772:	e156      	b.n	8000a22 <L6470_PrepareDaisyChainCommand+0x432>
    case L6470_RUN_ID:
      /* Build the 1st bytes to transmit (DIR) */
      *(pL6470_DaisyChainSpiTxStruct+((0*L6470DAISYCHAINSIZE)+PkgId)) |= (L6470_Direction[((pL6470_AppCmdPkg+PkgId)->p1)].BinaryCode);
 8000774:	7bfb      	ldrb	r3, [r7, #15]
 8000776:	683a      	ldr	r2, [r7, #0]
 8000778:	4413      	add	r3, r2
 800077a:	7819      	ldrb	r1, [r3, #0]
 800077c:	7bfb      	ldrb	r3, [r7, #15]
 800077e:	011b      	lsls	r3, r3, #4
 8000780:	687a      	ldr	r2, [r7, #4]
 8000782:	4413      	add	r3, r2
 8000784:	685a      	ldr	r2, [r3, #4]
 8000786:	4866      	ldr	r0, [pc, #408]	; (8000920 <L6470_PrepareDaisyChainCommand+0x330>)
 8000788:	4613      	mov	r3, r2
 800078a:	00db      	lsls	r3, r3, #3
 800078c:	4413      	add	r3, r2
 800078e:	4403      	add	r3, r0
 8000790:	3308      	adds	r3, #8
 8000792:	781a      	ldrb	r2, [r3, #0]
 8000794:	7bfb      	ldrb	r3, [r7, #15]
 8000796:	6838      	ldr	r0, [r7, #0]
 8000798:	4403      	add	r3, r0
 800079a:	430a      	orrs	r2, r1
 800079c:	b2d2      	uxtb	r2, r2
 800079e:	701a      	strb	r2, [r3, #0]
      
      /* Build the others bytes to transmit (SPD) */
      for (spibyte=1; spibyte<(3+1); spibyte++)
 80007a0:	2301      	movs	r3, #1
 80007a2:	73bb      	strb	r3, [r7, #14]
 80007a4:	e016      	b.n	80007d4 <L6470_PrepareDaisyChainCommand+0x1e4>
      {
        *(pL6470_DaisyChainSpiTxStruct+((spibyte*L6470DAISYCHAINSIZE)+PkgId)) = (uint8_t)(((pL6470_AppCmdPkg+PkgId)->p2) >> (8*(3-spibyte)));
 80007a6:	7bfb      	ldrb	r3, [r7, #15]
 80007a8:	011b      	lsls	r3, r3, #4
 80007aa:	687a      	ldr	r2, [r7, #4]
 80007ac:	4413      	add	r3, r2
 80007ae:	689a      	ldr	r2, [r3, #8]
 80007b0:	7bbb      	ldrb	r3, [r7, #14]
 80007b2:	f1c3 0303 	rsb	r3, r3, #3
 80007b6:	00db      	lsls	r3, r3, #3
 80007b8:	fa22 f103 	lsr.w	r1, r2, r3
 80007bc:	7bbb      	ldrb	r3, [r7, #14]
 80007be:	005a      	lsls	r2, r3, #1
 80007c0:	7bfb      	ldrb	r3, [r7, #15]
 80007c2:	4413      	add	r3, r2
 80007c4:	461a      	mov	r2, r3
 80007c6:	683b      	ldr	r3, [r7, #0]
 80007c8:	4413      	add	r3, r2
 80007ca:	b2ca      	uxtb	r2, r1
 80007cc:	701a      	strb	r2, [r3, #0]
      for (spibyte=1; spibyte<(3+1); spibyte++)
 80007ce:	7bbb      	ldrb	r3, [r7, #14]
 80007d0:	3301      	adds	r3, #1
 80007d2:	73bb      	strb	r3, [r7, #14]
 80007d4:	7bbb      	ldrb	r3, [r7, #14]
 80007d6:	2b03      	cmp	r3, #3
 80007d8:	d9e5      	bls.n	80007a6 <L6470_PrepareDaisyChainCommand+0x1b6>
      }
      break;
 80007da:	e122      	b.n	8000a22 <L6470_PrepareDaisyChainCommand+0x432>
    case L6470_STEPCLOCK_ID:
      /* Build the 1st bytes to transmit (DIR) */
      *(pL6470_DaisyChainSpiTxStruct+((0*L6470DAISYCHAINSIZE)+PkgId)) |= (L6470_Direction[((pL6470_AppCmdPkg+PkgId)->p1)].BinaryCode);
 80007dc:	7bfb      	ldrb	r3, [r7, #15]
 80007de:	683a      	ldr	r2, [r7, #0]
 80007e0:	4413      	add	r3, r2
 80007e2:	7819      	ldrb	r1, [r3, #0]
 80007e4:	7bfb      	ldrb	r3, [r7, #15]
 80007e6:	011b      	lsls	r3, r3, #4
 80007e8:	687a      	ldr	r2, [r7, #4]
 80007ea:	4413      	add	r3, r2
 80007ec:	685a      	ldr	r2, [r3, #4]
 80007ee:	484c      	ldr	r0, [pc, #304]	; (8000920 <L6470_PrepareDaisyChainCommand+0x330>)
 80007f0:	4613      	mov	r3, r2
 80007f2:	00db      	lsls	r3, r3, #3
 80007f4:	4413      	add	r3, r2
 80007f6:	4403      	add	r3, r0
 80007f8:	3308      	adds	r3, #8
 80007fa:	781a      	ldrb	r2, [r3, #0]
 80007fc:	7bfb      	ldrb	r3, [r7, #15]
 80007fe:	6838      	ldr	r0, [r7, #0]
 8000800:	4403      	add	r3, r0
 8000802:	430a      	orrs	r2, r1
 8000804:	b2d2      	uxtb	r2, r2
 8000806:	701a      	strb	r2, [r3, #0]
      break;
 8000808:	e10b      	b.n	8000a22 <L6470_PrepareDaisyChainCommand+0x432>
    case L6470_MOVE_ID:
      /* Build the 1st bytes to transmit (DIR) */
      *(pL6470_DaisyChainSpiTxStruct+((0*L6470DAISYCHAINSIZE)+PkgId)) |= (L6470_Direction[((pL6470_AppCmdPkg+PkgId)->p1)].BinaryCode);
 800080a:	7bfb      	ldrb	r3, [r7, #15]
 800080c:	683a      	ldr	r2, [r7, #0]
 800080e:	4413      	add	r3, r2
 8000810:	7819      	ldrb	r1, [r3, #0]
 8000812:	7bfb      	ldrb	r3, [r7, #15]
 8000814:	011b      	lsls	r3, r3, #4
 8000816:	687a      	ldr	r2, [r7, #4]
 8000818:	4413      	add	r3, r2
 800081a:	685a      	ldr	r2, [r3, #4]
 800081c:	4840      	ldr	r0, [pc, #256]	; (8000920 <L6470_PrepareDaisyChainCommand+0x330>)
 800081e:	4613      	mov	r3, r2
 8000820:	00db      	lsls	r3, r3, #3
 8000822:	4413      	add	r3, r2
 8000824:	4403      	add	r3, r0
 8000826:	3308      	adds	r3, #8
 8000828:	781a      	ldrb	r2, [r3, #0]
 800082a:	7bfb      	ldrb	r3, [r7, #15]
 800082c:	6838      	ldr	r0, [r7, #0]
 800082e:	4403      	add	r3, r0
 8000830:	430a      	orrs	r2, r1
 8000832:	b2d2      	uxtb	r2, r2
 8000834:	701a      	strb	r2, [r3, #0]
      
      /* Build the others bytes to transmit (N_STEP) */
      for (spibyte=1; spibyte<(3+1); spibyte++)
 8000836:	2301      	movs	r3, #1
 8000838:	73bb      	strb	r3, [r7, #14]
 800083a:	e016      	b.n	800086a <L6470_PrepareDaisyChainCommand+0x27a>
      {
        *(pL6470_DaisyChainSpiTxStruct+((spibyte*L6470DAISYCHAINSIZE)+PkgId)) = (uint8_t)(((pL6470_AppCmdPkg+PkgId)->p2) >> (8*(3-spibyte)));
 800083c:	7bfb      	ldrb	r3, [r7, #15]
 800083e:	011b      	lsls	r3, r3, #4
 8000840:	687a      	ldr	r2, [r7, #4]
 8000842:	4413      	add	r3, r2
 8000844:	689a      	ldr	r2, [r3, #8]
 8000846:	7bbb      	ldrb	r3, [r7, #14]
 8000848:	f1c3 0303 	rsb	r3, r3, #3
 800084c:	00db      	lsls	r3, r3, #3
 800084e:	fa22 f103 	lsr.w	r1, r2, r3
 8000852:	7bbb      	ldrb	r3, [r7, #14]
 8000854:	005a      	lsls	r2, r3, #1
 8000856:	7bfb      	ldrb	r3, [r7, #15]
 8000858:	4413      	add	r3, r2
 800085a:	461a      	mov	r2, r3
 800085c:	683b      	ldr	r3, [r7, #0]
 800085e:	4413      	add	r3, r2
 8000860:	b2ca      	uxtb	r2, r1
 8000862:	701a      	strb	r2, [r3, #0]
      for (spibyte=1; spibyte<(3+1); spibyte++)
 8000864:	7bbb      	ldrb	r3, [r7, #14]
 8000866:	3301      	adds	r3, #1
 8000868:	73bb      	strb	r3, [r7, #14]
 800086a:	7bbb      	ldrb	r3, [r7, #14]
 800086c:	2b03      	cmp	r3, #3
 800086e:	d9e5      	bls.n	800083c <L6470_PrepareDaisyChainCommand+0x24c>
      }      
      break;
 8000870:	e0d7      	b.n	8000a22 <L6470_PrepareDaisyChainCommand+0x432>
    case L6470_GOTO_ID:
      /* Build the others bytes to transmit (ABS_POS) */
      for (spibyte=1; spibyte<(3+1); spibyte++)
 8000872:	2301      	movs	r3, #1
 8000874:	73bb      	strb	r3, [r7, #14]
 8000876:	e016      	b.n	80008a6 <L6470_PrepareDaisyChainCommand+0x2b6>
      {
        *(pL6470_DaisyChainSpiTxStruct+((spibyte*L6470DAISYCHAINSIZE)+PkgId)) = (uint8_t)(((pL6470_AppCmdPkg+PkgId)->p1) >> (8*(3-spibyte)));
 8000878:	7bfb      	ldrb	r3, [r7, #15]
 800087a:	011b      	lsls	r3, r3, #4
 800087c:	687a      	ldr	r2, [r7, #4]
 800087e:	4413      	add	r3, r2
 8000880:	685a      	ldr	r2, [r3, #4]
 8000882:	7bbb      	ldrb	r3, [r7, #14]
 8000884:	f1c3 0303 	rsb	r3, r3, #3
 8000888:	00db      	lsls	r3, r3, #3
 800088a:	fa22 f103 	lsr.w	r1, r2, r3
 800088e:	7bbb      	ldrb	r3, [r7, #14]
 8000890:	005a      	lsls	r2, r3, #1
 8000892:	7bfb      	ldrb	r3, [r7, #15]
 8000894:	4413      	add	r3, r2
 8000896:	461a      	mov	r2, r3
 8000898:	683b      	ldr	r3, [r7, #0]
 800089a:	4413      	add	r3, r2
 800089c:	b2ca      	uxtb	r2, r1
 800089e:	701a      	strb	r2, [r3, #0]
      for (spibyte=1; spibyte<(3+1); spibyte++)
 80008a0:	7bbb      	ldrb	r3, [r7, #14]
 80008a2:	3301      	adds	r3, #1
 80008a4:	73bb      	strb	r3, [r7, #14]
 80008a6:	7bbb      	ldrb	r3, [r7, #14]
 80008a8:	2b03      	cmp	r3, #3
 80008aa:	d9e5      	bls.n	8000878 <L6470_PrepareDaisyChainCommand+0x288>
      }
      break;
 80008ac:	e0b9      	b.n	8000a22 <L6470_PrepareDaisyChainCommand+0x432>
    case L6470_GOTODIR_ID:
      /* Build the 1st bytes to transmit (DIR) */
      *(pL6470_DaisyChainSpiTxStruct+((0*L6470DAISYCHAINSIZE)+PkgId)) |= (L6470_Direction[((pL6470_AppCmdPkg+PkgId)->p1)].BinaryCode);
 80008ae:	7bfb      	ldrb	r3, [r7, #15]
 80008b0:	683a      	ldr	r2, [r7, #0]
 80008b2:	4413      	add	r3, r2
 80008b4:	7819      	ldrb	r1, [r3, #0]
 80008b6:	7bfb      	ldrb	r3, [r7, #15]
 80008b8:	011b      	lsls	r3, r3, #4
 80008ba:	687a      	ldr	r2, [r7, #4]
 80008bc:	4413      	add	r3, r2
 80008be:	685a      	ldr	r2, [r3, #4]
 80008c0:	4817      	ldr	r0, [pc, #92]	; (8000920 <L6470_PrepareDaisyChainCommand+0x330>)
 80008c2:	4613      	mov	r3, r2
 80008c4:	00db      	lsls	r3, r3, #3
 80008c6:	4413      	add	r3, r2
 80008c8:	4403      	add	r3, r0
 80008ca:	3308      	adds	r3, #8
 80008cc:	781a      	ldrb	r2, [r3, #0]
 80008ce:	7bfb      	ldrb	r3, [r7, #15]
 80008d0:	6838      	ldr	r0, [r7, #0]
 80008d2:	4403      	add	r3, r0
 80008d4:	430a      	orrs	r2, r1
 80008d6:	b2d2      	uxtb	r2, r2
 80008d8:	701a      	strb	r2, [r3, #0]
      
      /* Build the others bytes to transmit (ABS_POS) */
      for (spibyte=1; spibyte<(3+1); spibyte++)
 80008da:	2301      	movs	r3, #1
 80008dc:	73bb      	strb	r3, [r7, #14]
 80008de:	e016      	b.n	800090e <L6470_PrepareDaisyChainCommand+0x31e>
      {
        *(pL6470_DaisyChainSpiTxStruct+((spibyte*L6470DAISYCHAINSIZE)+PkgId)) = (uint8_t)(((pL6470_AppCmdPkg+PkgId)->p2) >> (8*(3-spibyte)));
 80008e0:	7bfb      	ldrb	r3, [r7, #15]
 80008e2:	011b      	lsls	r3, r3, #4
 80008e4:	687a      	ldr	r2, [r7, #4]
 80008e6:	4413      	add	r3, r2
 80008e8:	689a      	ldr	r2, [r3, #8]
 80008ea:	7bbb      	ldrb	r3, [r7, #14]
 80008ec:	f1c3 0303 	rsb	r3, r3, #3
 80008f0:	00db      	lsls	r3, r3, #3
 80008f2:	fa22 f103 	lsr.w	r1, r2, r3
 80008f6:	7bbb      	ldrb	r3, [r7, #14]
 80008f8:	005a      	lsls	r2, r3, #1
 80008fa:	7bfb      	ldrb	r3, [r7, #15]
 80008fc:	4413      	add	r3, r2
 80008fe:	461a      	mov	r2, r3
 8000900:	683b      	ldr	r3, [r7, #0]
 8000902:	4413      	add	r3, r2
 8000904:	b2ca      	uxtb	r2, r1
 8000906:	701a      	strb	r2, [r3, #0]
      for (spibyte=1; spibyte<(3+1); spibyte++)
 8000908:	7bbb      	ldrb	r3, [r7, #14]
 800090a:	3301      	adds	r3, #1
 800090c:	73bb      	strb	r3, [r7, #14]
 800090e:	7bbb      	ldrb	r3, [r7, #14]
 8000910:	2b03      	cmp	r3, #3
 8000912:	d9e5      	bls.n	80008e0 <L6470_PrepareDaisyChainCommand+0x2f0>
      }
      break;
 8000914:	e085      	b.n	8000a22 <L6470_PrepareDaisyChainCommand+0x432>
 8000916:	bf00      	nop
 8000918:	08007550 	.word	0x08007550
 800091c:	0800735c 	.word	0x0800735c
 8000920:	0800765c 	.word	0x0800765c
    case L6470_GOUNTIL_ID:
      /* Build the 1st bytes to transmit (ACT) */
      *(pL6470_DaisyChainSpiTxStruct+((0*L6470DAISYCHAINSIZE)+PkgId)) |= ((L6470_ACT[((pL6470_AppCmdPkg+PkgId)->p1)].BinaryCode)<<3);
 8000924:	7bfb      	ldrb	r3, [r7, #15]
 8000926:	683a      	ldr	r2, [r7, #0]
 8000928:	4413      	add	r3, r2
 800092a:	781b      	ldrb	r3, [r3, #0]
 800092c:	b259      	sxtb	r1, r3
 800092e:	7bfb      	ldrb	r3, [r7, #15]
 8000930:	011b      	lsls	r3, r3, #4
 8000932:	687a      	ldr	r2, [r7, #4]
 8000934:	4413      	add	r3, r2
 8000936:	685a      	ldr	r2, [r3, #4]
 8000938:	4841      	ldr	r0, [pc, #260]	; (8000a40 <L6470_PrepareDaisyChainCommand+0x450>)
 800093a:	4613      	mov	r3, r2
 800093c:	009b      	lsls	r3, r3, #2
 800093e:	4413      	add	r3, r2
 8000940:	4403      	add	r3, r0
 8000942:	3304      	adds	r3, #4
 8000944:	781b      	ldrb	r3, [r3, #0]
 8000946:	00db      	lsls	r3, r3, #3
 8000948:	b25b      	sxtb	r3, r3
 800094a:	430b      	orrs	r3, r1
 800094c:	b259      	sxtb	r1, r3
 800094e:	7bfb      	ldrb	r3, [r7, #15]
 8000950:	683a      	ldr	r2, [r7, #0]
 8000952:	4413      	add	r3, r2
 8000954:	b2ca      	uxtb	r2, r1
 8000956:	701a      	strb	r2, [r3, #0]
      /* Build the 1st bytes to transmit (DIR) */
      *(pL6470_DaisyChainSpiTxStruct+((0*L6470DAISYCHAINSIZE)+PkgId)) |= (L6470_Direction[((pL6470_AppCmdPkg+PkgId)->p2)].BinaryCode);
 8000958:	7bfb      	ldrb	r3, [r7, #15]
 800095a:	683a      	ldr	r2, [r7, #0]
 800095c:	4413      	add	r3, r2
 800095e:	7819      	ldrb	r1, [r3, #0]
 8000960:	7bfb      	ldrb	r3, [r7, #15]
 8000962:	011b      	lsls	r3, r3, #4
 8000964:	687a      	ldr	r2, [r7, #4]
 8000966:	4413      	add	r3, r2
 8000968:	689a      	ldr	r2, [r3, #8]
 800096a:	4836      	ldr	r0, [pc, #216]	; (8000a44 <L6470_PrepareDaisyChainCommand+0x454>)
 800096c:	4613      	mov	r3, r2
 800096e:	00db      	lsls	r3, r3, #3
 8000970:	4413      	add	r3, r2
 8000972:	4403      	add	r3, r0
 8000974:	3308      	adds	r3, #8
 8000976:	781a      	ldrb	r2, [r3, #0]
 8000978:	7bfb      	ldrb	r3, [r7, #15]
 800097a:	6838      	ldr	r0, [r7, #0]
 800097c:	4403      	add	r3, r0
 800097e:	430a      	orrs	r2, r1
 8000980:	b2d2      	uxtb	r2, r2
 8000982:	701a      	strb	r2, [r3, #0]
      
      /* Build the others bytes to transmit (SPD) */
      for (spibyte=1; spibyte<(3+1); spibyte++)
 8000984:	2301      	movs	r3, #1
 8000986:	73bb      	strb	r3, [r7, #14]
 8000988:	e016      	b.n	80009b8 <L6470_PrepareDaisyChainCommand+0x3c8>
      {
        *(pL6470_DaisyChainSpiTxStruct+((spibyte*L6470DAISYCHAINSIZE)+PkgId)) = (uint8_t)(((pL6470_AppCmdPkg+PkgId)->p3) >> (8*(3-spibyte)));
 800098a:	7bfb      	ldrb	r3, [r7, #15]
 800098c:	011b      	lsls	r3, r3, #4
 800098e:	687a      	ldr	r2, [r7, #4]
 8000990:	4413      	add	r3, r2
 8000992:	68da      	ldr	r2, [r3, #12]
 8000994:	7bbb      	ldrb	r3, [r7, #14]
 8000996:	f1c3 0303 	rsb	r3, r3, #3
 800099a:	00db      	lsls	r3, r3, #3
 800099c:	fa22 f103 	lsr.w	r1, r2, r3
 80009a0:	7bbb      	ldrb	r3, [r7, #14]
 80009a2:	005a      	lsls	r2, r3, #1
 80009a4:	7bfb      	ldrb	r3, [r7, #15]
 80009a6:	4413      	add	r3, r2
 80009a8:	461a      	mov	r2, r3
 80009aa:	683b      	ldr	r3, [r7, #0]
 80009ac:	4413      	add	r3, r2
 80009ae:	b2ca      	uxtb	r2, r1
 80009b0:	701a      	strb	r2, [r3, #0]
      for (spibyte=1; spibyte<(3+1); spibyte++)
 80009b2:	7bbb      	ldrb	r3, [r7, #14]
 80009b4:	3301      	adds	r3, #1
 80009b6:	73bb      	strb	r3, [r7, #14]
 80009b8:	7bbb      	ldrb	r3, [r7, #14]
 80009ba:	2b03      	cmp	r3, #3
 80009bc:	d9e5      	bls.n	800098a <L6470_PrepareDaisyChainCommand+0x39a>
      }
      break;
 80009be:	e030      	b.n	8000a22 <L6470_PrepareDaisyChainCommand+0x432>
    case L6470_RELEASESW_ID:
      /* Build the 1st bytes to transmit (ACT) */
      *(pL6470_DaisyChainSpiTxStruct+((0*L6470DAISYCHAINSIZE)+PkgId)) |= ((L6470_ACT[((pL6470_AppCmdPkg+PkgId)->p1)].BinaryCode)<<3);
 80009c0:	7bfb      	ldrb	r3, [r7, #15]
 80009c2:	683a      	ldr	r2, [r7, #0]
 80009c4:	4413      	add	r3, r2
 80009c6:	781b      	ldrb	r3, [r3, #0]
 80009c8:	b259      	sxtb	r1, r3
 80009ca:	7bfb      	ldrb	r3, [r7, #15]
 80009cc:	011b      	lsls	r3, r3, #4
 80009ce:	687a      	ldr	r2, [r7, #4]
 80009d0:	4413      	add	r3, r2
 80009d2:	685a      	ldr	r2, [r3, #4]
 80009d4:	481a      	ldr	r0, [pc, #104]	; (8000a40 <L6470_PrepareDaisyChainCommand+0x450>)
 80009d6:	4613      	mov	r3, r2
 80009d8:	009b      	lsls	r3, r3, #2
 80009da:	4413      	add	r3, r2
 80009dc:	4403      	add	r3, r0
 80009de:	3304      	adds	r3, #4
 80009e0:	781b      	ldrb	r3, [r3, #0]
 80009e2:	00db      	lsls	r3, r3, #3
 80009e4:	b25b      	sxtb	r3, r3
 80009e6:	430b      	orrs	r3, r1
 80009e8:	b259      	sxtb	r1, r3
 80009ea:	7bfb      	ldrb	r3, [r7, #15]
 80009ec:	683a      	ldr	r2, [r7, #0]
 80009ee:	4413      	add	r3, r2
 80009f0:	b2ca      	uxtb	r2, r1
 80009f2:	701a      	strb	r2, [r3, #0]
      /* Build the 1st bytes to transmit (DIR) */
      *(pL6470_DaisyChainSpiTxStruct+((0*L6470DAISYCHAINSIZE)+PkgId)) |= (L6470_Direction[((pL6470_AppCmdPkg+PkgId)->p2)].BinaryCode);
 80009f4:	7bfb      	ldrb	r3, [r7, #15]
 80009f6:	683a      	ldr	r2, [r7, #0]
 80009f8:	4413      	add	r3, r2
 80009fa:	7819      	ldrb	r1, [r3, #0]
 80009fc:	7bfb      	ldrb	r3, [r7, #15]
 80009fe:	011b      	lsls	r3, r3, #4
 8000a00:	687a      	ldr	r2, [r7, #4]
 8000a02:	4413      	add	r3, r2
 8000a04:	689a      	ldr	r2, [r3, #8]
 8000a06:	480f      	ldr	r0, [pc, #60]	; (8000a44 <L6470_PrepareDaisyChainCommand+0x454>)
 8000a08:	4613      	mov	r3, r2
 8000a0a:	00db      	lsls	r3, r3, #3
 8000a0c:	4413      	add	r3, r2
 8000a0e:	4403      	add	r3, r0
 8000a10:	3308      	adds	r3, #8
 8000a12:	781a      	ldrb	r2, [r3, #0]
 8000a14:	7bfb      	ldrb	r3, [r7, #15]
 8000a16:	6838      	ldr	r0, [r7, #0]
 8000a18:	4403      	add	r3, r0
 8000a1a:	430a      	orrs	r2, r1
 8000a1c:	b2d2      	uxtb	r2, r2
 8000a1e:	701a      	strb	r2, [r3, #0]
      break;
 8000a20:	bf00      	nop
  for(PkgId=0; PkgId<L6470DAISYCHAINSIZE; PkgId++)
 8000a22:	7bfb      	ldrb	r3, [r7, #15]
 8000a24:	3301      	adds	r3, #1
 8000a26:	73fb      	strb	r3, [r7, #15]
 8000a28:	7bfb      	ldrb	r3, [r7, #15]
 8000a2a:	2b01      	cmp	r3, #1
 8000a2c:	f67f ae04 	bls.w	8000638 <L6470_PrepareDaisyChainCommand+0x48>
      break;
    case L6470_GETSTATUS_ID:
      break;
    }
  }
}
 8000a30:	bf00      	nop
 8000a32:	bf00      	nop
 8000a34:	3714      	adds	r7, #20
 8000a36:	46bd      	mov	sp, r7
 8000a38:	f85d 7b04 	ldr.w	r7, [sp], #4
 8000a3c:	4770      	bx	lr
 8000a3e:	bf00      	nop
 8000a40:	08007670 	.word	0x08007670
 8000a44:	0800765c 	.word	0x0800765c

08000a48 <Step_s_2_Speed>:
  * 
  * @param  step/s      The speed as step/s.
  * @retval Speed       The SPEED register value.
  */
uint32_t Step_s_2_Speed(float Step_s)
{
 8000a48:	b480      	push	{r7}
 8000a4a:	b083      	sub	sp, #12
 8000a4c:	af00      	add	r7, sp, #0
 8000a4e:	ed87 0a01 	vstr	s0, [r7, #4]
  if (Step_s <= (L6470_MAX_SPEED * ((float)14.9012e-3)))
 8000a52:	edd7 7a01 	vldr	s15, [r7, #4]
 8000a56:	ed9f 7a0c 	vldr	s14, [pc, #48]	; 8000a88 <Step_s_2_Speed+0x40>
 8000a5a:	eef4 7ac7 	vcmpe.f32	s15, s14
 8000a5e:	eef1 fa10 	vmrs	APSR_nzcv, fpscr
 8000a62:	d80a      	bhi.n	8000a7a <Step_s_2_Speed+0x32>
    return (uint32_t)(Step_s / ((float)14.9012e-3));
 8000a64:	ed97 7a01 	vldr	s14, [r7, #4]
 8000a68:	eddf 6a08 	vldr	s13, [pc, #32]	; 8000a8c <Step_s_2_Speed+0x44>
 8000a6c:	eec7 7a26 	vdiv.f32	s15, s14, s13
 8000a70:	eefc 7ae7 	vcvt.u32.f32	s15, s15
 8000a74:	ee17 3a90 	vmov	r3, s15
 8000a78:	e000      	b.n	8000a7c <Step_s_2_Speed+0x34>
  else
    return 0;   // Warning
 8000a7a:	2300      	movs	r3, #0
}
 8000a7c:	4618      	mov	r0, r3
 8000a7e:	370c      	adds	r7, #12
 8000a80:	46bd      	mov	sp, r7
 8000a82:	f85d 7b04 	ldr.w	r7, [sp], #4
 8000a86:	4770      	bx	lr
 8000a88:	4674241b 	.word	0x4674241b
 8000a8c:	3c74242a 	.word	0x3c74242a

08000a90 <Step_s2_2_Acc>:
  * 
  * @param  step/(s^2)  The acceleration as step/(s^2).
  * @retval Acc         The ACC register value.
  */
uint16_t Step_s2_2_Acc(float Step_s2)
{
 8000a90:	b480      	push	{r7}
 8000a92:	b083      	sub	sp, #12
 8000a94:	af00      	add	r7, sp, #0
 8000a96:	ed87 0a01 	vstr	s0, [r7, #4]
  if (Step_s2 <= (L6470_MAX_ACC * ((float)1.4552e1)))
 8000a9a:	edd7 7a01 	vldr	s15, [r7, #4]
 8000a9e:	ed9f 7a0d 	vldr	s14, [pc, #52]	; 8000ad4 <Step_s2_2_Acc+0x44>
 8000aa2:	eef4 7ac7 	vcmpe.f32	s15, s14
 8000aa6:	eef1 fa10 	vmrs	APSR_nzcv, fpscr
 8000aaa:	d80b      	bhi.n	8000ac4 <Step_s2_2_Acc+0x34>
    return (uint16_t)(Step_s2 / ((float)1.4552e1));
 8000aac:	ed97 7a01 	vldr	s14, [r7, #4]
 8000ab0:	eddf 6a09 	vldr	s13, [pc, #36]	; 8000ad8 <Step_s2_2_Acc+0x48>
 8000ab4:	eec7 7a26 	vdiv.f32	s15, s14, s13
 8000ab8:	eefc 7ae7 	vcvt.u32.f32	s15, s15
 8000abc:	ee17 3a90 	vmov	r3, s15
 8000ac0:	b29b      	uxth	r3, r3
 8000ac2:	e000      	b.n	8000ac6 <Step_s2_2_Acc+0x36>
  else
    return 0;   // Warning
 8000ac4:	2300      	movs	r3, #0
}
 8000ac6:	4618      	mov	r0, r3
 8000ac8:	370c      	adds	r7, #12
 8000aca:	46bd      	mov	sp, r7
 8000acc:	f85d 7b04 	ldr.w	r7, [sp], #4
 8000ad0:	4770      	bx	lr
 8000ad2:	bf00      	nop
 8000ad4:	4768c671 	.word	0x4768c671
 8000ad8:	4168d4fe 	.word	0x4168d4fe

08000adc <Step_s2_2_Dec>:
  * 
  * @param  step/(s^2)  The deceleration as step/(s^2).
  * @retval Dec         The DEC register value.
  */
uint16_t Step_s2_2_Dec(float Step_s2)
{
 8000adc:	b480      	push	{r7}
 8000ade:	b083      	sub	sp, #12
 8000ae0:	af00      	add	r7, sp, #0
 8000ae2:	ed87 0a01 	vstr	s0, [r7, #4]
  if (Step_s2 <= (L6470_MAX_DEC * ((float)1.4552e1)))
 8000ae6:	edd7 7a01 	vldr	s15, [r7, #4]
 8000aea:	ed9f 7a0d 	vldr	s14, [pc, #52]	; 8000b20 <Step_s2_2_Dec+0x44>
 8000aee:	eef4 7ac7 	vcmpe.f32	s15, s14
 8000af2:	eef1 fa10 	vmrs	APSR_nzcv, fpscr
 8000af6:	d80b      	bhi.n	8000b10 <Step_s2_2_Dec+0x34>
    return (uint16_t)(Step_s2 / ((float)1.4552e1));
 8000af8:	ed97 7a01 	vldr	s14, [r7, #4]
 8000afc:	eddf 6a09 	vldr	s13, [pc, #36]	; 8000b24 <Step_s2_2_Dec+0x48>
 8000b00:	eec7 7a26 	vdiv.f32	s15, s14, s13
 8000b04:	eefc 7ae7 	vcvt.u32.f32	s15, s15
 8000b08:	ee17 3a90 	vmov	r3, s15
 8000b0c:	b29b      	uxth	r3, r3
 8000b0e:	e000      	b.n	8000b12 <Step_s2_2_Dec+0x36>
  else
    return 0;   // Warning
 8000b10:	2300      	movs	r3, #0
}
 8000b12:	4618      	mov	r0, r3
 8000b14:	370c      	adds	r7, #12
 8000b16:	46bd      	mov	sp, r7
 8000b18:	f85d 7b04 	ldr.w	r7, [sp], #4
 8000b1c:	4770      	bx	lr
 8000b1e:	bf00      	nop
 8000b20:	4768c671 	.word	0x4768c671
 8000b24:	4168d4fe 	.word	0x4168d4fe

08000b28 <Step_s_2_MaxSpeed>:
  * 
  * @param  step/s      The max speed as step/s.
  * @retval MaxSpeed    The MAX_SPEED register value.
  */
uint16_t Step_s_2_MaxSpeed(float Step_s)
{
 8000b28:	b480      	push	{r7}
 8000b2a:	b083      	sub	sp, #12
 8000b2c:	af00      	add	r7, sp, #0
 8000b2e:	ed87 0a01 	vstr	s0, [r7, #4]
  if (Step_s <= (L6470_MAX_MAX_SPEED * ((float)15.2588)))
 8000b32:	edd7 7a01 	vldr	s15, [r7, #4]
 8000b36:	ed9f 7a0d 	vldr	s14, [pc, #52]	; 8000b6c <Step_s_2_MaxSpeed+0x44>
 8000b3a:	eef4 7ac7 	vcmpe.f32	s15, s14
 8000b3e:	eef1 fa10 	vmrs	APSR_nzcv, fpscr
 8000b42:	d80b      	bhi.n	8000b5c <Step_s_2_MaxSpeed+0x34>
    return (uint16_t)(Step_s / ((float)15.2588));
 8000b44:	ed97 7a01 	vldr	s14, [r7, #4]
 8000b48:	eddf 6a09 	vldr	s13, [pc, #36]	; 8000b70 <Step_s_2_MaxSpeed+0x48>
 8000b4c:	eec7 7a26 	vdiv.f32	s15, s14, s13
 8000b50:	eefc 7ae7 	vcvt.u32.f32	s15, s15
 8000b54:	ee17 3a90 	vmov	r3, s15
 8000b58:	b29b      	uxth	r3, r3
 8000b5a:	e000      	b.n	8000b5e <Step_s_2_MaxSpeed+0x36>
  else
    return 0;   // Warning
 8000b5c:	2300      	movs	r3, #0
}
 8000b5e:	4618      	mov	r0, r3
 8000b60:	370c      	adds	r7, #12
 8000b62:	46bd      	mov	sp, r7
 8000b64:	f85d 7b04 	ldr.w	r7, [sp], #4
 8000b68:	4770      	bx	lr
 8000b6a:	bf00      	nop
 8000b6c:	4673e702 	.word	0x4673e702
 8000b70:	4174240b 	.word	0x4174240b

08000b74 <Step_s_2_MinSpeed>:
  * 
  * @param  step/s      The min speed as step/s.
  * @retval MinSpeed    The MIN_SPEED register value.
  */
uint16_t Step_s_2_MinSpeed(float Step_s)
{
 8000b74:	b480      	push	{r7}
 8000b76:	b083      	sub	sp, #12
 8000b78:	af00      	add	r7, sp, #0
 8000b7a:	ed87 0a01 	vstr	s0, [r7, #4]
  if (Step_s <= (L6470_MAX_MIN_SPEED * ((float)238.4186e-3)))
 8000b7e:	edd7 7a01 	vldr	s15, [r7, #4]
 8000b82:	ed9f 7a0d 	vldr	s14, [pc, #52]	; 8000bb8 <Step_s_2_MinSpeed+0x44>
 8000b86:	eef4 7ac7 	vcmpe.f32	s15, s14
 8000b8a:	eef1 fa10 	vmrs	APSR_nzcv, fpscr
 8000b8e:	d80b      	bhi.n	8000ba8 <Step_s_2_MinSpeed+0x34>
    return (uint16_t)(Step_s / ((float)238.4186e-3));
 8000b90:	ed97 7a01 	vldr	s14, [r7, #4]
 8000b94:	eddf 6a09 	vldr	s13, [pc, #36]	; 8000bbc <Step_s_2_MinSpeed+0x48>
 8000b98:	eec7 7a26 	vdiv.f32	s15, s14, s13
 8000b9c:	eefc 7ae7 	vcvt.u32.f32	s15, s15
 8000ba0:	ee17 3a90 	vmov	r3, s15
 8000ba4:	b29b      	uxth	r3, r3
 8000ba6:	e000      	b.n	8000baa <Step_s_2_MinSpeed+0x36>
  else
    return 0;   // Warning
 8000ba8:	2300      	movs	r3, #0
}
 8000baa:	4618      	mov	r0, r3
 8000bac:	370c      	adds	r7, #12
 8000bae:	46bd      	mov	sp, r7
 8000bb0:	f85d 7b04 	ldr.w	r7, [sp], #4
 8000bb4:	4770      	bx	lr
 8000bb6:	bf00      	nop
 8000bb8:	447414bf 	.word	0x447414bf
 8000bbc:	3e742401 	.word	0x3e742401

08000bc0 <Step_s_2_FsSpd>:
  * 
  * @param  step/s      The full-step speed as step/s.
  * @retval FsSpd       The FS_SPD register value.
  */
uint16_t Step_s_2_FsSpd(float Step_s)
{
 8000bc0:	b480      	push	{r7}
 8000bc2:	b083      	sub	sp, #12
 8000bc4:	af00      	add	r7, sp, #0
 8000bc6:	ed87 0a01 	vstr	s0, [r7, #4]
  if (Step_s <= ((L6470_MAX_FS_SPD+0.5) * ((float)15.25)))
 8000bca:	edd7 7a01 	vldr	s15, [r7, #4]
 8000bce:	ed9f 7a0f 	vldr	s14, [pc, #60]	; 8000c0c <Step_s_2_FsSpd+0x4c>
 8000bd2:	eef4 7ac7 	vcmpe.f32	s15, s14
 8000bd6:	eef1 fa10 	vmrs	APSR_nzcv, fpscr
 8000bda:	d80f      	bhi.n	8000bfc <Step_s_2_FsSpd+0x3c>
    return (uint16_t)((float)(Step_s / ((float)15.25)) - (float)0.5);
 8000bdc:	ed97 7a01 	vldr	s14, [r7, #4]
 8000be0:	eddf 6a0b 	vldr	s13, [pc, #44]	; 8000c10 <Step_s_2_FsSpd+0x50>
 8000be4:	eec7 7a26 	vdiv.f32	s15, s14, s13
 8000be8:	eeb6 7a00 	vmov.f32	s14, #96	; 0x3f000000  0.5
 8000bec:	ee77 7ac7 	vsub.f32	s15, s15, s14
 8000bf0:	eefc 7ae7 	vcvt.u32.f32	s15, s15
 8000bf4:	ee17 3a90 	vmov	r3, s15
 8000bf8:	b29b      	uxth	r3, r3
 8000bfa:	e000      	b.n	8000bfe <Step_s_2_FsSpd+0x3e>
  else
    return 0;   // Warning
 8000bfc:	2300      	movs	r3, #0
}
 8000bfe:	4618      	mov	r0, r3
 8000c00:	370c      	adds	r7, #12
 8000c02:	46bd      	mov	sp, r7
 8000c04:	f85d 7b04 	ldr.w	r7, [sp], #4
 8000c08:	4770      	bx	lr
 8000c0a:	bf00      	nop
 8000c0c:	4673e180 	.word	0x4673e180
 8000c10:	41740000 	.word	0x41740000

08000c14 <Step_s_2_IntSpeed>:
  * 
  * @param  step/s      The full-step speed as step/s.
  * @retval FsSpd       The FS_SPD register value.
  */
uint16_t Step_s_2_IntSpeed(float Step_s)
{
 8000c14:	b480      	push	{r7}
 8000c16:	b083      	sub	sp, #12
 8000c18:	af00      	add	r7, sp, #0
 8000c1a:	ed87 0a01 	vstr	s0, [r7, #4]
  if (Step_s <= (L6470_MAX_INT_SPEED * ((float)59.6046e-3)))
 8000c1e:	edd7 7a01 	vldr	s15, [r7, #4]
 8000c22:	ed9f 7a0d 	vldr	s14, [pc, #52]	; 8000c58 <Step_s_2_IntSpeed+0x44>
 8000c26:	eef4 7ac7 	vcmpe.f32	s15, s14
 8000c2a:	eef1 fa10 	vmrs	APSR_nzcv, fpscr
 8000c2e:	d80b      	bhi.n	8000c48 <Step_s_2_IntSpeed+0x34>
    return (uint16_t)(Step_s / ((float)59.6046e-3));
 8000c30:	ed97 7a01 	vldr	s14, [r7, #4]
 8000c34:	eddf 6a09 	vldr	s13, [pc, #36]	; 8000c5c <Step_s_2_IntSpeed+0x48>
 8000c38:	eec7 7a26 	vdiv.f32	s15, s14, s13
 8000c3c:	eefc 7ae7 	vcvt.u32.f32	s15, s15
 8000c40:	ee17 3a90 	vmov	r3, s15
 8000c44:	b29b      	uxth	r3, r3
 8000c46:	e000      	b.n	8000c4a <Step_s_2_IntSpeed+0x36>
  else
    return 0;   // Warning
 8000c48:	2300      	movs	r3, #0
}
 8000c4a:	4618      	mov	r0, r3
 8000c4c:	370c      	adds	r7, #12
 8000c4e:	46bd      	mov	sp, r7
 8000c50:	f85d 7b04 	ldr.w	r7, [sp], #4
 8000c54:	4770      	bx	lr
 8000c56:	bf00      	nop
 8000c58:	44742023 	.word	0x44742023
 8000c5c:	3d7423f4 	.word	0x3d7423f4

08000c60 <s_Step_2_StSlp>:
  * 
  * @param  step/s      The full-step speed as step/s.
  * @retval FsSpd       The FS_SPD register value.
  */
uint8_t s_Step_2_StSlp(float s_Step)
{
 8000c60:	b480      	push	{r7}
 8000c62:	b083      	sub	sp, #12
 8000c64:	af00      	add	r7, sp, #0
 8000c66:	ed87 0a01 	vstr	s0, [r7, #4]
  if (s_Step <= (L6470_MAX_ST_SLP * ((float)1.5686e-5)))
 8000c6a:	edd7 7a01 	vldr	s15, [r7, #4]
 8000c6e:	ed9f 7a0d 	vldr	s14, [pc, #52]	; 8000ca4 <s_Step_2_StSlp+0x44>
 8000c72:	eef4 7ac7 	vcmpe.f32	s15, s14
 8000c76:	eef1 fa10 	vmrs	APSR_nzcv, fpscr
 8000c7a:	d80c      	bhi.n	8000c96 <s_Step_2_StSlp+0x36>
    return (uint8_t)(s_Step / ((float)1.5686e-5));
 8000c7c:	ed97 7a01 	vldr	s14, [r7, #4]
 8000c80:	eddf 6a09 	vldr	s13, [pc, #36]	; 8000ca8 <s_Step_2_StSlp+0x48>
 8000c84:	eec7 7a26 	vdiv.f32	s15, s14, s13
 8000c88:	eefc 7ae7 	vcvt.u32.f32	s15, s15
 8000c8c:	edc7 7a00 	vstr	s15, [r7]
 8000c90:	683b      	ldr	r3, [r7, #0]
 8000c92:	b2db      	uxtb	r3, r3
 8000c94:	e000      	b.n	8000c98 <s_Step_2_StSlp+0x38>
  else
    return 0;   // Warning
 8000c96:	2300      	movs	r3, #0
}
 8000c98:	4618      	mov	r0, r3
 8000c9a:	370c      	adds	r7, #12
 8000c9c:	46bd      	mov	sp, r7
 8000c9e:	f85d 7b04 	ldr.w	r7, [sp], #4
 8000ca2:	4770      	bx	lr
 8000ca4:	3b8311d9 	.word	0x3b8311d9
 8000ca8:	3783956e 	.word	0x3783956e

08000cac <s_Step_2_FnSlpAcc>:
  * 
  * @param  step/s      The full-step speed as step/s.
  * @retval FsSpd       The FS_SPD register value.
  */
uint8_t s_Step_2_FnSlpAcc(float s_Step)
{
 8000cac:	b480      	push	{r7}
 8000cae:	b083      	sub	sp, #12
 8000cb0:	af00      	add	r7, sp, #0
 8000cb2:	ed87 0a01 	vstr	s0, [r7, #4]
  if (s_Step <= (L6470_MAX_FN_SLP_ACC * ((float)1.5686e-5)))
 8000cb6:	edd7 7a01 	vldr	s15, [r7, #4]
 8000cba:	ed9f 7a0d 	vldr	s14, [pc, #52]	; 8000cf0 <s_Step_2_FnSlpAcc+0x44>
 8000cbe:	eef4 7ac7 	vcmpe.f32	s15, s14
 8000cc2:	eef1 fa10 	vmrs	APSR_nzcv, fpscr
 8000cc6:	d80c      	bhi.n	8000ce2 <s_Step_2_FnSlpAcc+0x36>
    return (uint8_t)(s_Step / ((float)1.5686e-5));
 8000cc8:	ed97 7a01 	vldr	s14, [r7, #4]
 8000ccc:	eddf 6a09 	vldr	s13, [pc, #36]	; 8000cf4 <s_Step_2_FnSlpAcc+0x48>
 8000cd0:	eec7 7a26 	vdiv.f32	s15, s14, s13
 8000cd4:	eefc 7ae7 	vcvt.u32.f32	s15, s15
 8000cd8:	edc7 7a00 	vstr	s15, [r7]
 8000cdc:	683b      	ldr	r3, [r7, #0]
 8000cde:	b2db      	uxtb	r3, r3
 8000ce0:	e000      	b.n	8000ce4 <s_Step_2_FnSlpAcc+0x38>
  else
    return 0;   // Warning
 8000ce2:	2300      	movs	r3, #0
}
 8000ce4:	4618      	mov	r0, r3
 8000ce6:	370c      	adds	r7, #12
 8000ce8:	46bd      	mov	sp, r7
 8000cea:	f85d 7b04 	ldr.w	r7, [sp], #4
 8000cee:	4770      	bx	lr
 8000cf0:	3b8311d9 	.word	0x3b8311d9
 8000cf4:	3783956e 	.word	0x3783956e

08000cf8 <s_Step_2_FnSlpDec>:
  * 
  * @param  step/s      The full-step speed as step/s.
  * @retval FsSpd       The FS_SPD register value.
  */
uint8_t s_Step_2_FnSlpDec(float s_Step)
{
 8000cf8:	b480      	push	{r7}
 8000cfa:	b083      	sub	sp, #12
 8000cfc:	af00      	add	r7, sp, #0
 8000cfe:	ed87 0a01 	vstr	s0, [r7, #4]
  if (s_Step <= (L6470_MAX_FN_SLP_DEC * ((float)1.5686e-5)))
 8000d02:	edd7 7a01 	vldr	s15, [r7, #4]
 8000d06:	ed9f 7a0d 	vldr	s14, [pc, #52]	; 8000d3c <s_Step_2_FnSlpDec+0x44>
 8000d0a:	eef4 7ac7 	vcmpe.f32	s15, s14
 8000d0e:	eef1 fa10 	vmrs	APSR_nzcv, fpscr
 8000d12:	d80c      	bhi.n	8000d2e <s_Step_2_FnSlpDec+0x36>
    return (uint8_t)(s_Step / ((float)1.5686e-5));
 8000d14:	ed97 7a01 	vldr	s14, [r7, #4]
 8000d18:	eddf 6a09 	vldr	s13, [pc, #36]	; 8000d40 <s_Step_2_FnSlpDec+0x48>
 8000d1c:	eec7 7a26 	vdiv.f32	s15, s14, s13
 8000d20:	eefc 7ae7 	vcvt.u32.f32	s15, s15
 8000d24:	edc7 7a00 	vstr	s15, [r7]
 8000d28:	683b      	ldr	r3, [r7, #0]
 8000d2a:	b2db      	uxtb	r3, r3
 8000d2c:	e000      	b.n	8000d30 <s_Step_2_FnSlpDec+0x38>
  else
    return 0;   // Warning
 8000d2e:	2300      	movs	r3, #0
}
 8000d30:	4618      	mov	r0, r3
 8000d32:	370c      	adds	r7, #12
 8000d34:	46bd      	mov	sp, r7
 8000d36:	f85d 7b04 	ldr.w	r7, [sp], #4
 8000d3a:	4770      	bx	lr
 8000d3c:	3b8311d9 	.word	0x3b8311d9
 8000d40:	3783956e 	.word	0x3783956e

08000d44 <mA_2_OcdTh>:
  * 
  * @param  mA          The overcurrent threshold as mA.
  * @retval OcdTh       The OCD_TH register value.
  */
uint8_t mA_2_OcdTh(float mA)
{
 8000d44:	b480      	push	{r7}
 8000d46:	b085      	sub	sp, #20
 8000d48:	af00      	add	r7, sp, #0
 8000d4a:	ed87 0a01 	vstr	s0, [r7, #4]
  float result, decimal;
  
  if (mA <= ((L6470_MAX_OCD_TH+1) * ((float)375)))
 8000d4e:	edd7 7a01 	vldr	s15, [r7, #4]
 8000d52:	ed9f 7a22 	vldr	s14, [pc, #136]	; 8000ddc <mA_2_OcdTh+0x98>
 8000d56:	eef4 7ac7 	vcmpe.f32	s15, s14
 8000d5a:	eef1 fa10 	vmrs	APSR_nzcv, fpscr
 8000d5e:	d836      	bhi.n	8000dce <mA_2_OcdTh+0x8a>
  {
    result = (mA / ((float)375));
 8000d60:	ed97 7a01 	vldr	s14, [r7, #4]
 8000d64:	eddf 6a1e 	vldr	s13, [pc, #120]	; 8000de0 <mA_2_OcdTh+0x9c>
 8000d68:	eec7 7a26 	vdiv.f32	s15, s14, s13
 8000d6c:	edc7 7a03 	vstr	s15, [r7, #12]
    decimal = result - (uint8_t)result;
 8000d70:	edd7 7a03 	vldr	s15, [r7, #12]
 8000d74:	eefc 7ae7 	vcvt.u32.f32	s15, s15
 8000d78:	edc7 7a00 	vstr	s15, [r7]
 8000d7c:	683b      	ldr	r3, [r7, #0]
 8000d7e:	b2db      	uxtb	r3, r3
 8000d80:	ee07 3a90 	vmov	s15, r3
 8000d84:	eef8 7ae7 	vcvt.f32.s32	s15, s15
 8000d88:	ed97 7a03 	vldr	s14, [r7, #12]
 8000d8c:	ee77 7a67 	vsub.f32	s15, s14, s15
 8000d90:	edc7 7a02 	vstr	s15, [r7, #8]
    
    if (decimal < (float)0.5)
 8000d94:	edd7 7a02 	vldr	s15, [r7, #8]
 8000d98:	eeb6 7a00 	vmov.f32	s14, #96	; 0x3f000000  0.5
 8000d9c:	eef4 7ac7 	vcmpe.f32	s15, s14
 8000da0:	eef1 fa10 	vmrs	APSR_nzcv, fpscr
 8000da4:	d50a      	bpl.n	8000dbc <mA_2_OcdTh+0x78>
      return ((uint8_t)result - 1);
 8000da6:	edd7 7a03 	vldr	s15, [r7, #12]
 8000daa:	eefc 7ae7 	vcvt.u32.f32	s15, s15
 8000dae:	edc7 7a00 	vstr	s15, [r7]
 8000db2:	683b      	ldr	r3, [r7, #0]
 8000db4:	b2db      	uxtb	r3, r3
 8000db6:	3b01      	subs	r3, #1
 8000db8:	b2db      	uxtb	r3, r3
 8000dba:	e009      	b.n	8000dd0 <mA_2_OcdTh+0x8c>
    else
      return ((uint8_t)result);    
 8000dbc:	edd7 7a03 	vldr	s15, [r7, #12]
 8000dc0:	eefc 7ae7 	vcvt.u32.f32	s15, s15
 8000dc4:	edc7 7a00 	vstr	s15, [r7]
 8000dc8:	683b      	ldr	r3, [r7, #0]
 8000dca:	b2db      	uxtb	r3, r3
 8000dcc:	e000      	b.n	8000dd0 <mA_2_OcdTh+0x8c>
  }
  else
    return 0;   // Warning
 8000dce:	2300      	movs	r3, #0
}
 8000dd0:	4618      	mov	r0, r3
 8000dd2:	3714      	adds	r7, #20
 8000dd4:	46bd      	mov	sp, r7
 8000dd6:	f85d 7b04 	ldr.w	r7, [sp], #4
 8000dda:	4770      	bx	lr
 8000ddc:	45bb8000 	.word	0x45bb8000
 8000de0:	43bb8000 	.word	0x43bb8000

08000de4 <mA_2_StallTh>:
  * 
  * @param  mA          The stall detection threshold as mA.
  * @retval StallTh     The STALL_TH register value.
  */
uint8_t mA_2_StallTh(float mA)
{
 8000de4:	b480      	push	{r7}
 8000de6:	b085      	sub	sp, #20
 8000de8:	af00      	add	r7, sp, #0
 8000dea:	ed87 0a01 	vstr	s0, [r7, #4]
  float result, decimal;
  
  if (mA <= ((L6470_MAX_STALL_TH+1) * ((float)31.25)))
 8000dee:	edd7 7a01 	vldr	s15, [r7, #4]
 8000df2:	ed9f 7a22 	vldr	s14, [pc, #136]	; 8000e7c <mA_2_StallTh+0x98>
 8000df6:	eef4 7ac7 	vcmpe.f32	s15, s14
 8000dfa:	eef1 fa10 	vmrs	APSR_nzcv, fpscr
 8000dfe:	d836      	bhi.n	8000e6e <mA_2_StallTh+0x8a>
  {
    result = (mA / ((float)31.25));
 8000e00:	ed97 7a01 	vldr	s14, [r7, #4]
 8000e04:	eddf 6a1e 	vldr	s13, [pc, #120]	; 8000e80 <mA_2_StallTh+0x9c>
 8000e08:	eec7 7a26 	vdiv.f32	s15, s14, s13
 8000e0c:	edc7 7a03 	vstr	s15, [r7, #12]
    decimal = result - (uint8_t)result;
 8000e10:	edd7 7a03 	vldr	s15, [r7, #12]
 8000e14:	eefc 7ae7 	vcvt.u32.f32	s15, s15
 8000e18:	edc7 7a00 	vstr	s15, [r7]
 8000e1c:	683b      	ldr	r3, [r7, #0]
 8000e1e:	b2db      	uxtb	r3, r3
 8000e20:	ee07 3a90 	vmov	s15, r3
 8000e24:	eef8 7ae7 	vcvt.f32.s32	s15, s15
 8000e28:	ed97 7a03 	vldr	s14, [r7, #12]
 8000e2c:	ee77 7a67 	vsub.f32	s15, s14, s15
 8000e30:	edc7 7a02 	vstr	s15, [r7, #8]
    
    if (decimal < (float)0.5)
 8000e34:	edd7 7a02 	vldr	s15, [r7, #8]
 8000e38:	eeb6 7a00 	vmov.f32	s14, #96	; 0x3f000000  0.5
 8000e3c:	eef4 7ac7 	vcmpe.f32	s15, s14
 8000e40:	eef1 fa10 	vmrs	APSR_nzcv, fpscr
 8000e44:	d50a      	bpl.n	8000e5c <mA_2_StallTh+0x78>
      return ((uint8_t)result - 1);
 8000e46:	edd7 7a03 	vldr	s15, [r7, #12]
 8000e4a:	eefc 7ae7 	vcvt.u32.f32	s15, s15
 8000e4e:	edc7 7a00 	vstr	s15, [r7]
 8000e52:	683b      	ldr	r3, [r7, #0]
 8000e54:	b2db      	uxtb	r3, r3
 8000e56:	3b01      	subs	r3, #1
 8000e58:	b2db      	uxtb	r3, r3
 8000e5a:	e009      	b.n	8000e70 <mA_2_StallTh+0x8c>
    else
      return ((uint8_t)result);    
 8000e5c:	edd7 7a03 	vldr	s15, [r7, #12]
 8000e60:	eefc 7ae7 	vcvt.u32.f32	s15, s15
 8000e64:	edc7 7a00 	vstr	s15, [r7]
 8000e68:	683b      	ldr	r3, [r7, #0]
 8000e6a:	b2db      	uxtb	r3, r3
 8000e6c:	e000      	b.n	8000e70 <mA_2_StallTh+0x8c>
  }
  else
    return 0;   // Warning
 8000e6e:	2300      	movs	r3, #0
}
 8000e70:	4618      	mov	r0, r3
 8000e72:	3714      	adds	r7, #20
 8000e74:	46bd      	mov	sp, r7
 8000e76:	f85d 7b04 	ldr.w	r7, [sp], #4
 8000e7a:	4770      	bx	lr
 8000e7c:	457a0000 	.word	0x457a0000
 8000e80:	41fa0000 	.word	0x41fa0000

08000e84 <L6470_SetParam>:
  * @param  L6470_Id      The identifier of the L6470 target inside the daisy chain.
  * @param  L6470_RegId   The identifier of the L6470 register to be addressed.
  * @param  Value         The new value.
  */
void L6470_SetParam(uint8_t L6470_Id, eL6470_RegId_t L6470_RegId, uint32_t Value)
{
 8000e84:	b580      	push	{r7, lr}
 8000e86:	b084      	sub	sp, #16
 8000e88:	af02      	add	r7, sp, #8
 8000e8a:	4603      	mov	r3, r0
 8000e8c:	603a      	str	r2, [r7, #0]
 8000e8e:	71fb      	strb	r3, [r7, #7]
 8000e90:	460b      	mov	r3, r1
 8000e92:	71bb      	strb	r3, [r7, #6]
  L6470_PrepareAppCmdPkg(L6470_Id, L6470_AppCmdPkg, L6470_SETPARAM_ID, L6470_RegId, Value, 0);
 8000e94:	79ba      	ldrb	r2, [r7, #6]
 8000e96:	79f8      	ldrb	r0, [r7, #7]
 8000e98:	2300      	movs	r3, #0
 8000e9a:	9301      	str	r3, [sp, #4]
 8000e9c:	683b      	ldr	r3, [r7, #0]
 8000e9e:	9300      	str	r3, [sp, #0]
 8000ea0:	4613      	mov	r3, r2
 8000ea2:	2201      	movs	r2, #1
 8000ea4:	4907      	ldr	r1, [pc, #28]	; (8000ec4 <L6470_SetParam+0x40>)
 8000ea6:	f7ff fb7f 	bl	80005a8 <L6470_PrepareAppCmdPkg>
  L6470_PrepareDaisyChainCommand(L6470_AppCmdPkg, (uint8_t*)L6470_DaisyChainSpiTxStruct);
 8000eaa:	4907      	ldr	r1, [pc, #28]	; (8000ec8 <L6470_SetParam+0x44>)
 8000eac:	4805      	ldr	r0, [pc, #20]	; (8000ec4 <L6470_SetParam+0x40>)
 8000eae:	f7ff fb9f 	bl	80005f0 <L6470_PrepareDaisyChainCommand>
  L6470_DaisyChainCommand((uint8_t*)L6470_DaisyChainSpiTxStruct, (uint8_t*)L6470_DaisyChainSpiRxStruct);
 8000eb2:	4906      	ldr	r1, [pc, #24]	; (8000ecc <L6470_SetParam+0x48>)
 8000eb4:	4804      	ldr	r0, [pc, #16]	; (8000ec8 <L6470_SetParam+0x44>)
 8000eb6:	f000 fc61 	bl	800177c <L6470_DaisyChainCommand>
}
 8000eba:	bf00      	nop
 8000ebc:	3708      	adds	r7, #8
 8000ebe:	46bd      	mov	sp, r7
 8000ec0:	bd80      	pop	{r7, pc}
 8000ec2:	bf00      	nop
 8000ec4:	20000388 	.word	0x20000388
 8000ec8:	20000380 	.word	0x20000380
 8000ecc:	20000378 	.word	0x20000378

08000ed0 <L6470_GetParam>:
  * @param  L6470_RegId   The identifier of the L6470 register to be addressed.
  * 
  * @retval ReceivedValue The register value.
  */
uint32_t L6470_GetParam(uint8_t L6470_Id, eL6470_RegId_t L6470_RegId)
{
 8000ed0:	b580      	push	{r7, lr}
 8000ed2:	b086      	sub	sp, #24
 8000ed4:	af02      	add	r7, sp, #8
 8000ed6:	4603      	mov	r3, r0
 8000ed8:	460a      	mov	r2, r1
 8000eda:	71fb      	strb	r3, [r7, #7]
 8000edc:	4613      	mov	r3, r2
 8000ede:	71bb      	strb	r3, [r7, #6]
  uint8_t ValueLengthByte;
  uint32_t ReceivedValue;

  L6470_PrepareAppCmdPkg(L6470_Id, L6470_AppCmdPkg, L6470_GETPARAM_ID, L6470_RegId, 0, 0);
 8000ee0:	79bb      	ldrb	r3, [r7, #6]
 8000ee2:	79f8      	ldrb	r0, [r7, #7]
 8000ee4:	2200      	movs	r2, #0
 8000ee6:	9201      	str	r2, [sp, #4]
 8000ee8:	2200      	movs	r2, #0
 8000eea:	9200      	str	r2, [sp, #0]
 8000eec:	2202      	movs	r2, #2
 8000eee:	4910      	ldr	r1, [pc, #64]	; (8000f30 <L6470_GetParam+0x60>)
 8000ef0:	f7ff fb5a 	bl	80005a8 <L6470_PrepareAppCmdPkg>
  L6470_PrepareDaisyChainCommand(L6470_AppCmdPkg, (uint8_t*)L6470_DaisyChainSpiTxStruct);
 8000ef4:	490f      	ldr	r1, [pc, #60]	; (8000f34 <L6470_GetParam+0x64>)
 8000ef6:	480e      	ldr	r0, [pc, #56]	; (8000f30 <L6470_GetParam+0x60>)
 8000ef8:	f7ff fb7a 	bl	80005f0 <L6470_PrepareDaisyChainCommand>
  L6470_DaisyChainCommand((uint8_t*)L6470_DaisyChainSpiTxStruct, (uint8_t*)L6470_DaisyChainSpiRxStruct);
 8000efc:	490e      	ldr	r1, [pc, #56]	; (8000f38 <L6470_GetParam+0x68>)
 8000efe:	480d      	ldr	r0, [pc, #52]	; (8000f34 <L6470_GetParam+0x64>)
 8000f00:	f000 fc3c 	bl	800177c <L6470_DaisyChainCommand>
  
  ValueLengthByte = L6470_Register[L6470_RegId].LengthByte;
 8000f04:	79ba      	ldrb	r2, [r7, #6]
 8000f06:	490d      	ldr	r1, [pc, #52]	; (8000f3c <L6470_GetParam+0x6c>)
 8000f08:	4613      	mov	r3, r2
 8000f0a:	009b      	lsls	r3, r3, #2
 8000f0c:	4413      	add	r3, r2
 8000f0e:	009b      	lsls	r3, r3, #2
 8000f10:	440b      	add	r3, r1
 8000f12:	330e      	adds	r3, #14
 8000f14:	781b      	ldrb	r3, [r3, #0]
 8000f16:	73fb      	strb	r3, [r7, #15]
  
  ReceivedValue = L6470_ExtractReturnedData(L6470_Id, (uint8_t*)L6470_DaisyChainSpiRxStruct, ValueLengthByte);
 8000f18:	7bfa      	ldrb	r2, [r7, #15]
 8000f1a:	79fb      	ldrb	r3, [r7, #7]
 8000f1c:	4906      	ldr	r1, [pc, #24]	; (8000f38 <L6470_GetParam+0x68>)
 8000f1e:	4618      	mov	r0, r3
 8000f20:	f000 fc7a 	bl	8001818 <L6470_ExtractReturnedData>
 8000f24:	60b8      	str	r0, [r7, #8]
  
  return ReceivedValue;
 8000f26:	68bb      	ldr	r3, [r7, #8]
}
 8000f28:	4618      	mov	r0, r3
 8000f2a:	3710      	adds	r7, #16
 8000f2c:	46bd      	mov	sp, r7
 8000f2e:	bd80      	pop	{r7, pc}
 8000f30:	20000388 	.word	0x20000388
 8000f34:	20000380 	.word	0x20000380
 8000f38:	20000378 	.word	0x20000378
 8000f3c:	0800735c 	.word	0x0800735c

08000f40 <L6470_Run>:
  * @param  L6470_Id      The identifier of the L6470 target inside the daisy chain.
  * @param  L6470_DirId   The identifier of the L6470 motion direction.
  * @param  Speed         The speed value as (([step/s] * 250e-9) / 2^-28)
  */
void L6470_Run(uint8_t L6470_Id, eL6470_DirId_t L6470_DirId, uint32_t Speed)
{
 8000f40:	b580      	push	{r7, lr}
 8000f42:	b084      	sub	sp, #16
 8000f44:	af02      	add	r7, sp, #8
 8000f46:	4603      	mov	r3, r0
 8000f48:	603a      	str	r2, [r7, #0]
 8000f4a:	71fb      	strb	r3, [r7, #7]
 8000f4c:	460b      	mov	r3, r1
 8000f4e:	71bb      	strb	r3, [r7, #6]
  L6470_PrepareAppCmdPkg(L6470_Id, L6470_AppCmdPkg, L6470_RUN_ID, L6470_DirId, Speed, 0);
 8000f50:	79ba      	ldrb	r2, [r7, #6]
 8000f52:	79f8      	ldrb	r0, [r7, #7]
 8000f54:	2300      	movs	r3, #0
 8000f56:	9301      	str	r3, [sp, #4]
 8000f58:	683b      	ldr	r3, [r7, #0]
 8000f5a:	9300      	str	r3, [sp, #0]
 8000f5c:	4613      	mov	r3, r2
 8000f5e:	2203      	movs	r2, #3
 8000f60:	4907      	ldr	r1, [pc, #28]	; (8000f80 <L6470_Run+0x40>)
 8000f62:	f7ff fb21 	bl	80005a8 <L6470_PrepareAppCmdPkg>
  L6470_PrepareDaisyChainCommand(L6470_AppCmdPkg, (uint8_t*)L6470_DaisyChainSpiTxStruct);
 8000f66:	4907      	ldr	r1, [pc, #28]	; (8000f84 <L6470_Run+0x44>)
 8000f68:	4805      	ldr	r0, [pc, #20]	; (8000f80 <L6470_Run+0x40>)
 8000f6a:	f7ff fb41 	bl	80005f0 <L6470_PrepareDaisyChainCommand>
  L6470_DaisyChainCommand((uint8_t*)L6470_DaisyChainSpiTxStruct, (uint8_t*)L6470_DaisyChainSpiRxStruct);
 8000f6e:	4906      	ldr	r1, [pc, #24]	; (8000f88 <L6470_Run+0x48>)
 8000f70:	4804      	ldr	r0, [pc, #16]	; (8000f84 <L6470_Run+0x44>)
 8000f72:	f000 fc03 	bl	800177c <L6470_DaisyChainCommand>
}
 8000f76:	bf00      	nop
 8000f78:	3708      	adds	r7, #8
 8000f7a:	46bd      	mov	sp, r7
 8000f7c:	bd80      	pop	{r7, pc}
 8000f7e:	bf00      	nop
 8000f80:	20000388 	.word	0x20000388
 8000f84:	20000380 	.word	0x20000380
 8000f88:	20000378 	.word	0x20000378

08000f8c <L6470_StepClock>:
  * 
  * @param  L6470_Id      The identifier of the L6470 target inside the daisy chain.
  * @param  L6470_DirId   The identifier of the L6470 motion direction.
  */
void L6470_StepClock(uint8_t L6470_Id, eL6470_DirId_t L6470_DirId)
{
 8000f8c:	b580      	push	{r7, lr}
 8000f8e:	b084      	sub	sp, #16
 8000f90:	af02      	add	r7, sp, #8
 8000f92:	4603      	mov	r3, r0
 8000f94:	460a      	mov	r2, r1
 8000f96:	71fb      	strb	r3, [r7, #7]
 8000f98:	4613      	mov	r3, r2
 8000f9a:	71bb      	strb	r3, [r7, #6]
  L6470_PrepareAppCmdPkg(L6470_Id, L6470_AppCmdPkg, L6470_STEPCLOCK_ID, L6470_DirId, 0, 0);
 8000f9c:	79bb      	ldrb	r3, [r7, #6]
 8000f9e:	79f8      	ldrb	r0, [r7, #7]
 8000fa0:	2200      	movs	r2, #0
 8000fa2:	9201      	str	r2, [sp, #4]
 8000fa4:	2200      	movs	r2, #0
 8000fa6:	9200      	str	r2, [sp, #0]
 8000fa8:	2204      	movs	r2, #4
 8000faa:	4907      	ldr	r1, [pc, #28]	; (8000fc8 <L6470_StepClock+0x3c>)
 8000fac:	f7ff fafc 	bl	80005a8 <L6470_PrepareAppCmdPkg>
  L6470_PrepareDaisyChainCommand(L6470_AppCmdPkg, (uint8_t*)L6470_DaisyChainSpiTxStruct);
 8000fb0:	4906      	ldr	r1, [pc, #24]	; (8000fcc <L6470_StepClock+0x40>)
 8000fb2:	4805      	ldr	r0, [pc, #20]	; (8000fc8 <L6470_StepClock+0x3c>)
 8000fb4:	f7ff fb1c 	bl	80005f0 <L6470_PrepareDaisyChainCommand>
  L6470_DaisyChainCommand((uint8_t*)L6470_DaisyChainSpiTxStruct, (uint8_t*)L6470_DaisyChainSpiRxStruct);
 8000fb8:	4905      	ldr	r1, [pc, #20]	; (8000fd0 <L6470_StepClock+0x44>)
 8000fba:	4804      	ldr	r0, [pc, #16]	; (8000fcc <L6470_StepClock+0x40>)
 8000fbc:	f000 fbde 	bl	800177c <L6470_DaisyChainCommand>
}
 8000fc0:	bf00      	nop
 8000fc2:	3708      	adds	r7, #8
 8000fc4:	46bd      	mov	sp, r7
 8000fc6:	bd80      	pop	{r7, pc}
 8000fc8:	20000388 	.word	0x20000388
 8000fcc:	20000380 	.word	0x20000380
 8000fd0:	20000378 	.word	0x20000378

08000fd4 <L6470_Move>:
  * @param  L6470_Id      The identifier of the L6470 target inside the daisy chain.
  * @param  L6470_DirId   The identifier of the L6470 motion direction.
  * @param  N_Step        The number of microsteps.
  */
void L6470_Move(uint8_t L6470_Id, eL6470_DirId_t L6470_DirId, uint32_t N_Step)
{
 8000fd4:	b580      	push	{r7, lr}
 8000fd6:	b084      	sub	sp, #16
 8000fd8:	af02      	add	r7, sp, #8
 8000fda:	4603      	mov	r3, r0
 8000fdc:	603a      	str	r2, [r7, #0]
 8000fde:	71fb      	strb	r3, [r7, #7]
 8000fe0:	460b      	mov	r3, r1
 8000fe2:	71bb      	strb	r3, [r7, #6]
  L6470_PrepareAppCmdPkg(L6470_Id, L6470_AppCmdPkg, L6470_MOVE_ID, L6470_DirId, N_Step, 0);
 8000fe4:	79ba      	ldrb	r2, [r7, #6]
 8000fe6:	79f8      	ldrb	r0, [r7, #7]
 8000fe8:	2300      	movs	r3, #0
 8000fea:	9301      	str	r3, [sp, #4]
 8000fec:	683b      	ldr	r3, [r7, #0]
 8000fee:	9300      	str	r3, [sp, #0]
 8000ff0:	4613      	mov	r3, r2
 8000ff2:	2205      	movs	r2, #5
 8000ff4:	4907      	ldr	r1, [pc, #28]	; (8001014 <L6470_Move+0x40>)
 8000ff6:	f7ff fad7 	bl	80005a8 <L6470_PrepareAppCmdPkg>
  L6470_PrepareDaisyChainCommand(L6470_AppCmdPkg, (uint8_t*)L6470_DaisyChainSpiTxStruct);
 8000ffa:	4907      	ldr	r1, [pc, #28]	; (8001018 <L6470_Move+0x44>)
 8000ffc:	4805      	ldr	r0, [pc, #20]	; (8001014 <L6470_Move+0x40>)
 8000ffe:	f7ff faf7 	bl	80005f0 <L6470_PrepareDaisyChainCommand>
  L6470_DaisyChainCommand((uint8_t*)L6470_DaisyChainSpiTxStruct, (uint8_t*)L6470_DaisyChainSpiRxStruct);
 8001002:	4906      	ldr	r1, [pc, #24]	; (800101c <L6470_Move+0x48>)
 8001004:	4804      	ldr	r0, [pc, #16]	; (8001018 <L6470_Move+0x44>)
 8001006:	f000 fbb9 	bl	800177c <L6470_DaisyChainCommand>
}
 800100a:	bf00      	nop
 800100c:	3708      	adds	r7, #8
 800100e:	46bd      	mov	sp, r7
 8001010:	bd80      	pop	{r7, pc}
 8001012:	bf00      	nop
 8001014:	20000388 	.word	0x20000388
 8001018:	20000380 	.word	0x20000380
 800101c:	20000378 	.word	0x20000378

08001020 <L6470_GoTo>:
  * 
  * @param  L6470_Id      The identifier of the L6470 target inside the daisy chain.
  * @param  AbsPos        The target absolute position.
  */
void L6470_GoTo(uint8_t L6470_Id, uint32_t AbsPos)
{
 8001020:	b580      	push	{r7, lr}
 8001022:	b084      	sub	sp, #16
 8001024:	af02      	add	r7, sp, #8
 8001026:	4603      	mov	r3, r0
 8001028:	6039      	str	r1, [r7, #0]
 800102a:	71fb      	strb	r3, [r7, #7]
  if (AbsPos <= L6470_POSITION_RANGE)
 800102c:	683b      	ldr	r3, [r7, #0]
 800102e:	f5b3 0f80 	cmp.w	r3, #4194304	; 0x400000
 8001032:	d211      	bcs.n	8001058 <L6470_GoTo+0x38>
  {
    L6470_PrepareAppCmdPkg(L6470_Id, L6470_AppCmdPkg, L6470_GOTO_ID, AbsPos, 0, 0);
 8001034:	79f8      	ldrb	r0, [r7, #7]
 8001036:	2300      	movs	r3, #0
 8001038:	9301      	str	r3, [sp, #4]
 800103a:	2300      	movs	r3, #0
 800103c:	9300      	str	r3, [sp, #0]
 800103e:	683b      	ldr	r3, [r7, #0]
 8001040:	2206      	movs	r2, #6
 8001042:	4907      	ldr	r1, [pc, #28]	; (8001060 <L6470_GoTo+0x40>)
 8001044:	f7ff fab0 	bl	80005a8 <L6470_PrepareAppCmdPkg>
    L6470_PrepareDaisyChainCommand(L6470_AppCmdPkg, (uint8_t*)L6470_DaisyChainSpiTxStruct);
 8001048:	4906      	ldr	r1, [pc, #24]	; (8001064 <L6470_GoTo+0x44>)
 800104a:	4805      	ldr	r0, [pc, #20]	; (8001060 <L6470_GoTo+0x40>)
 800104c:	f7ff fad0 	bl	80005f0 <L6470_PrepareDaisyChainCommand>
    L6470_DaisyChainCommand((uint8_t*)L6470_DaisyChainSpiTxStruct, (uint8_t*)L6470_DaisyChainSpiRxStruct);
 8001050:	4905      	ldr	r1, [pc, #20]	; (8001068 <L6470_GoTo+0x48>)
 8001052:	4804      	ldr	r0, [pc, #16]	; (8001064 <L6470_GoTo+0x44>)
 8001054:	f000 fb92 	bl	800177c <L6470_DaisyChainCommand>
  }
}
 8001058:	bf00      	nop
 800105a:	3708      	adds	r7, #8
 800105c:	46bd      	mov	sp, r7
 800105e:	bd80      	pop	{r7, pc}
 8001060:	20000388 	.word	0x20000388
 8001064:	20000380 	.word	0x20000380
 8001068:	20000378 	.word	0x20000378

0800106c <L6470_GoToDir>:
  * @param  L6470_Id      The identifier of the L6470 target inside the daisy chain.
  * @param  L6470_DirId   The identifier of the L6470 motion direction.
  * @param  AbsPos        The target absolute position.
  */
void L6470_GoToDir(uint8_t L6470_Id, eL6470_DirId_t L6470_DirId, uint32_t AbsPos)
{
 800106c:	b580      	push	{r7, lr}
 800106e:	b084      	sub	sp, #16
 8001070:	af02      	add	r7, sp, #8
 8001072:	4603      	mov	r3, r0
 8001074:	603a      	str	r2, [r7, #0]
 8001076:	71fb      	strb	r3, [r7, #7]
 8001078:	460b      	mov	r3, r1
 800107a:	71bb      	strb	r3, [r7, #6]
  if (AbsPos <= L6470_POSITION_RANGE)
 800107c:	683b      	ldr	r3, [r7, #0]
 800107e:	f5b3 0f80 	cmp.w	r3, #4194304	; 0x400000
 8001082:	d212      	bcs.n	80010aa <L6470_GoToDir+0x3e>
  {
    L6470_PrepareAppCmdPkg(L6470_Id, L6470_AppCmdPkg, L6470_GOTODIR_ID, L6470_DirId, AbsPos, 0);
 8001084:	79ba      	ldrb	r2, [r7, #6]
 8001086:	79f8      	ldrb	r0, [r7, #7]
 8001088:	2300      	movs	r3, #0
 800108a:	9301      	str	r3, [sp, #4]
 800108c:	683b      	ldr	r3, [r7, #0]
 800108e:	9300      	str	r3, [sp, #0]
 8001090:	4613      	mov	r3, r2
 8001092:	2207      	movs	r2, #7
 8001094:	4907      	ldr	r1, [pc, #28]	; (80010b4 <L6470_GoToDir+0x48>)
 8001096:	f7ff fa87 	bl	80005a8 <L6470_PrepareAppCmdPkg>
    L6470_PrepareDaisyChainCommand(L6470_AppCmdPkg, (uint8_t*)L6470_DaisyChainSpiTxStruct);
 800109a:	4907      	ldr	r1, [pc, #28]	; (80010b8 <L6470_GoToDir+0x4c>)
 800109c:	4805      	ldr	r0, [pc, #20]	; (80010b4 <L6470_GoToDir+0x48>)
 800109e:	f7ff faa7 	bl	80005f0 <L6470_PrepareDaisyChainCommand>
    L6470_DaisyChainCommand((uint8_t*)L6470_DaisyChainSpiTxStruct, (uint8_t*)L6470_DaisyChainSpiRxStruct);
 80010a2:	4906      	ldr	r1, [pc, #24]	; (80010bc <L6470_GoToDir+0x50>)
 80010a4:	4804      	ldr	r0, [pc, #16]	; (80010b8 <L6470_GoToDir+0x4c>)
 80010a6:	f000 fb69 	bl	800177c <L6470_DaisyChainCommand>
  }
}
 80010aa:	bf00      	nop
 80010ac:	3708      	adds	r7, #8
 80010ae:	46bd      	mov	sp, r7
 80010b0:	bd80      	pop	{r7, pc}
 80010b2:	bf00      	nop
 80010b4:	20000388 	.word	0x20000388
 80010b8:	20000380 	.word	0x20000380
 80010bc:	20000378 	.word	0x20000378

080010c0 <L6470_GoUntil>:
  * @param  L6470_ActId   The identifier of the L6470 action about the absolute position.
  * @param  L6470_DirId   The identifier of the L6470 motion direction.
  * @param  Speed         The speed value as (([step/s] * 250e-9) / 2^-28)
  */
void L6470_GoUntil(uint8_t L6470_Id, eL6470_ActId_t L6470_ActId, eL6470_DirId_t L6470_DirId, uint32_t Speed)
{
 80010c0:	b580      	push	{r7, lr}
 80010c2:	b084      	sub	sp, #16
 80010c4:	af02      	add	r7, sp, #8
 80010c6:	603b      	str	r3, [r7, #0]
 80010c8:	4603      	mov	r3, r0
 80010ca:	71fb      	strb	r3, [r7, #7]
 80010cc:	460b      	mov	r3, r1
 80010ce:	71bb      	strb	r3, [r7, #6]
 80010d0:	4613      	mov	r3, r2
 80010d2:	717b      	strb	r3, [r7, #5]
  L6470_PrepareAppCmdPkg(L6470_Id, L6470_AppCmdPkg, L6470_GOUNTIL_ID, L6470_ActId, L6470_DirId, Speed);
 80010d4:	79b9      	ldrb	r1, [r7, #6]
 80010d6:	797b      	ldrb	r3, [r7, #5]
 80010d8:	79f8      	ldrb	r0, [r7, #7]
 80010da:	683a      	ldr	r2, [r7, #0]
 80010dc:	9201      	str	r2, [sp, #4]
 80010de:	9300      	str	r3, [sp, #0]
 80010e0:	460b      	mov	r3, r1
 80010e2:	2208      	movs	r2, #8
 80010e4:	4907      	ldr	r1, [pc, #28]	; (8001104 <L6470_GoUntil+0x44>)
 80010e6:	f7ff fa5f 	bl	80005a8 <L6470_PrepareAppCmdPkg>
  L6470_PrepareDaisyChainCommand(L6470_AppCmdPkg, (uint8_t*)L6470_DaisyChainSpiTxStruct);
 80010ea:	4907      	ldr	r1, [pc, #28]	; (8001108 <L6470_GoUntil+0x48>)
 80010ec:	4805      	ldr	r0, [pc, #20]	; (8001104 <L6470_GoUntil+0x44>)
 80010ee:	f7ff fa7f 	bl	80005f0 <L6470_PrepareDaisyChainCommand>
  L6470_DaisyChainCommand((uint8_t*)L6470_DaisyChainSpiTxStruct, (uint8_t*)L6470_DaisyChainSpiRxStruct);
 80010f2:	4906      	ldr	r1, [pc, #24]	; (800110c <L6470_GoUntil+0x4c>)
 80010f4:	4804      	ldr	r0, [pc, #16]	; (8001108 <L6470_GoUntil+0x48>)
 80010f6:	f000 fb41 	bl	800177c <L6470_DaisyChainCommand>
}
 80010fa:	bf00      	nop
 80010fc:	3708      	adds	r7, #8
 80010fe:	46bd      	mov	sp, r7
 8001100:	bd80      	pop	{r7, pc}
 8001102:	bf00      	nop
 8001104:	20000388 	.word	0x20000388
 8001108:	20000380 	.word	0x20000380
 800110c:	20000378 	.word	0x20000378

08001110 <L6470_ReleaseSW>:
  * @param  L6470_Id      The identifier of the L6470 target inside the daisy chain.
  * @param  L6470_ActId   The identifier of the L6470 action about the absolute position.
  * @param  L6470_DirId   The identifier of the L6470 motion direction.
  */
void L6470_ReleaseSW(uint8_t L6470_Id, eL6470_ActId_t L6470_ActId, eL6470_DirId_t L6470_DirId)
{
 8001110:	b580      	push	{r7, lr}
 8001112:	b084      	sub	sp, #16
 8001114:	af02      	add	r7, sp, #8
 8001116:	4603      	mov	r3, r0
 8001118:	71fb      	strb	r3, [r7, #7]
 800111a:	460b      	mov	r3, r1
 800111c:	71bb      	strb	r3, [r7, #6]
 800111e:	4613      	mov	r3, r2
 8001120:	717b      	strb	r3, [r7, #5]
  L6470_PrepareAppCmdPkg(L6470_Id, L6470_AppCmdPkg, L6470_RELEASESW_ID, L6470_ActId, L6470_DirId, 0);
 8001122:	79ba      	ldrb	r2, [r7, #6]
 8001124:	797b      	ldrb	r3, [r7, #5]
 8001126:	79f8      	ldrb	r0, [r7, #7]
 8001128:	2100      	movs	r1, #0
 800112a:	9101      	str	r1, [sp, #4]
 800112c:	9300      	str	r3, [sp, #0]
 800112e:	4613      	mov	r3, r2
 8001130:	2209      	movs	r2, #9
 8001132:	4907      	ldr	r1, [pc, #28]	; (8001150 <L6470_ReleaseSW+0x40>)
 8001134:	f7ff fa38 	bl	80005a8 <L6470_PrepareAppCmdPkg>
  L6470_PrepareDaisyChainCommand(L6470_AppCmdPkg, (uint8_t*)L6470_DaisyChainSpiTxStruct);
 8001138:	4906      	ldr	r1, [pc, #24]	; (8001154 <L6470_ReleaseSW+0x44>)
 800113a:	4805      	ldr	r0, [pc, #20]	; (8001150 <L6470_ReleaseSW+0x40>)
 800113c:	f7ff fa58 	bl	80005f0 <L6470_PrepareDaisyChainCommand>
  L6470_DaisyChainCommand((uint8_t*)L6470_DaisyChainSpiTxStruct, (uint8_t*)L6470_DaisyChainSpiRxStruct);
 8001140:	4905      	ldr	r1, [pc, #20]	; (8001158 <L6470_ReleaseSW+0x48>)
 8001142:	4804      	ldr	r0, [pc, #16]	; (8001154 <L6470_ReleaseSW+0x44>)
 8001144:	f000 fb1a 	bl	800177c <L6470_DaisyChainCommand>
}
 8001148:	bf00      	nop
 800114a:	3708      	adds	r7, #8
 800114c:	46bd      	mov	sp, r7
 800114e:	bd80      	pop	{r7, pc}
 8001150:	20000388 	.word	0x20000388
 8001154:	20000380 	.word	0x20000380
 8001158:	20000378 	.word	0x20000378

0800115c <L6470_GoHome>:
  *         via the shortest path.
  * 
  * @param  L6470_Id      The identifier of the L6470 target inside the daisy chain.
  */
void L6470_GoHome(uint8_t L6470_Id)
{
 800115c:	b580      	push	{r7, lr}
 800115e:	b084      	sub	sp, #16
 8001160:	af02      	add	r7, sp, #8
 8001162:	4603      	mov	r3, r0
 8001164:	71fb      	strb	r3, [r7, #7]
  L6470_PrepareAppCmdPkg(L6470_Id, L6470_AppCmdPkg, L6470_GOHOME_ID, 0, 0, 0);
 8001166:	79f8      	ldrb	r0, [r7, #7]
 8001168:	2300      	movs	r3, #0
 800116a:	9301      	str	r3, [sp, #4]
 800116c:	2300      	movs	r3, #0
 800116e:	9300      	str	r3, [sp, #0]
 8001170:	2300      	movs	r3, #0
 8001172:	220a      	movs	r2, #10
 8001174:	4907      	ldr	r1, [pc, #28]	; (8001194 <L6470_GoHome+0x38>)
 8001176:	f7ff fa17 	bl	80005a8 <L6470_PrepareAppCmdPkg>
  L6470_PrepareDaisyChainCommand(L6470_AppCmdPkg, (uint8_t*)L6470_DaisyChainSpiTxStruct);
 800117a:	4907      	ldr	r1, [pc, #28]	; (8001198 <L6470_GoHome+0x3c>)
 800117c:	4805      	ldr	r0, [pc, #20]	; (8001194 <L6470_GoHome+0x38>)
 800117e:	f7ff fa37 	bl	80005f0 <L6470_PrepareDaisyChainCommand>
  L6470_DaisyChainCommand((uint8_t*)L6470_DaisyChainSpiTxStruct, (uint8_t*)L6470_DaisyChainSpiRxStruct);
 8001182:	4906      	ldr	r1, [pc, #24]	; (800119c <L6470_GoHome+0x40>)
 8001184:	4804      	ldr	r0, [pc, #16]	; (8001198 <L6470_GoHome+0x3c>)
 8001186:	f000 faf9 	bl	800177c <L6470_DaisyChainCommand>
}
 800118a:	bf00      	nop
 800118c:	3708      	adds	r7, #8
 800118e:	46bd      	mov	sp, r7
 8001190:	bd80      	pop	{r7, pc}
 8001192:	bf00      	nop
 8001194:	20000388 	.word	0x20000388
 8001198:	20000380 	.word	0x20000380
 800119c:	20000378 	.word	0x20000378

080011a0 <L6470_GoMark>:
  *         minimum path.
  * 
  * @param  L6470_Id      The identifier of the L6470 target inside the daisy chain.
  */
void L6470_GoMark(uint8_t L6470_Id)
{
 80011a0:	b580      	push	{r7, lr}
 80011a2:	b084      	sub	sp, #16
 80011a4:	af02      	add	r7, sp, #8
 80011a6:	4603      	mov	r3, r0
 80011a8:	71fb      	strb	r3, [r7, #7]
  L6470_PrepareAppCmdPkg(L6470_Id, L6470_AppCmdPkg, L6470_GOMARK_ID, 0, 0, 0);
 80011aa:	79f8      	ldrb	r0, [r7, #7]
 80011ac:	2300      	movs	r3, #0
 80011ae:	9301      	str	r3, [sp, #4]
 80011b0:	2300      	movs	r3, #0
 80011b2:	9300      	str	r3, [sp, #0]
 80011b4:	2300      	movs	r3, #0
 80011b6:	220b      	movs	r2, #11
 80011b8:	4907      	ldr	r1, [pc, #28]	; (80011d8 <L6470_GoMark+0x38>)
 80011ba:	f7ff f9f5 	bl	80005a8 <L6470_PrepareAppCmdPkg>
  L6470_PrepareDaisyChainCommand(L6470_AppCmdPkg, (uint8_t*)L6470_DaisyChainSpiTxStruct);
 80011be:	4907      	ldr	r1, [pc, #28]	; (80011dc <L6470_GoMark+0x3c>)
 80011c0:	4805      	ldr	r0, [pc, #20]	; (80011d8 <L6470_GoMark+0x38>)
 80011c2:	f7ff fa15 	bl	80005f0 <L6470_PrepareDaisyChainCommand>
  L6470_DaisyChainCommand((uint8_t*)L6470_DaisyChainSpiTxStruct, (uint8_t*)L6470_DaisyChainSpiRxStruct);
 80011c6:	4906      	ldr	r1, [pc, #24]	; (80011e0 <L6470_GoMark+0x40>)
 80011c8:	4804      	ldr	r0, [pc, #16]	; (80011dc <L6470_GoMark+0x3c>)
 80011ca:	f000 fad7 	bl	800177c <L6470_DaisyChainCommand>
}
 80011ce:	bf00      	nop
 80011d0:	3708      	adds	r7, #8
 80011d2:	46bd      	mov	sp, r7
 80011d4:	bd80      	pop	{r7, pc}
 80011d6:	bf00      	nop
 80011d8:	20000388 	.word	0x20000388
 80011dc:	20000380 	.word	0x20000380
 80011e0:	20000378 	.word	0x20000378

080011e4 <L6470_ResetPos>:
  * @brief  ResetPos command resets the ABS_POS register to zero.
  * 
  * @param  L6470_Id      The identifier of the L6470 target inside the daisy chain.
  */
void L6470_ResetPos(uint8_t L6470_Id)
{
 80011e4:	b580      	push	{r7, lr}
 80011e6:	b084      	sub	sp, #16
 80011e8:	af02      	add	r7, sp, #8
 80011ea:	4603      	mov	r3, r0
 80011ec:	71fb      	strb	r3, [r7, #7]
  L6470_PrepareAppCmdPkg(L6470_Id, L6470_AppCmdPkg, L6470_RESETPOS_ID, 0, 0, 0);
 80011ee:	79f8      	ldrb	r0, [r7, #7]
 80011f0:	2300      	movs	r3, #0
 80011f2:	9301      	str	r3, [sp, #4]
 80011f4:	2300      	movs	r3, #0
 80011f6:	9300      	str	r3, [sp, #0]
 80011f8:	2300      	movs	r3, #0
 80011fa:	220c      	movs	r2, #12
 80011fc:	4907      	ldr	r1, [pc, #28]	; (800121c <L6470_ResetPos+0x38>)
 80011fe:	f7ff f9d3 	bl	80005a8 <L6470_PrepareAppCmdPkg>
  L6470_PrepareDaisyChainCommand(L6470_AppCmdPkg, (uint8_t*)L6470_DaisyChainSpiTxStruct);
 8001202:	4907      	ldr	r1, [pc, #28]	; (8001220 <L6470_ResetPos+0x3c>)
 8001204:	4805      	ldr	r0, [pc, #20]	; (800121c <L6470_ResetPos+0x38>)
 8001206:	f7ff f9f3 	bl	80005f0 <L6470_PrepareDaisyChainCommand>
  L6470_DaisyChainCommand((uint8_t*)L6470_DaisyChainSpiTxStruct, (uint8_t*)L6470_DaisyChainSpiRxStruct);
 800120a:	4906      	ldr	r1, [pc, #24]	; (8001224 <L6470_ResetPos+0x40>)
 800120c:	4804      	ldr	r0, [pc, #16]	; (8001220 <L6470_ResetPos+0x3c>)
 800120e:	f000 fab5 	bl	800177c <L6470_DaisyChainCommand>
}
 8001212:	bf00      	nop
 8001214:	3708      	adds	r7, #8
 8001216:	46bd      	mov	sp, r7
 8001218:	bd80      	pop	{r7, pc}
 800121a:	bf00      	nop
 800121c:	20000388 	.word	0x20000388
 8001220:	20000380 	.word	0x20000380
 8001224:	20000378 	.word	0x20000378

08001228 <L6470_ResetDevice>:
  * @brief  ResetDevice command resets the device to power-up conditions.
  * 
  * @param  L6470_Id      The identifier of the L6470 target inside the daisy chain.
  */
void L6470_ResetDevice(uint8_t L6470_Id)
{
 8001228:	b580      	push	{r7, lr}
 800122a:	b084      	sub	sp, #16
 800122c:	af02      	add	r7, sp, #8
 800122e:	4603      	mov	r3, r0
 8001230:	71fb      	strb	r3, [r7, #7]
  L6470_PrepareAppCmdPkg(L6470_Id, L6470_AppCmdPkg, L6470_RESETDEVICE_ID, 0, 0, 0);
 8001232:	79f8      	ldrb	r0, [r7, #7]
 8001234:	2300      	movs	r3, #0
 8001236:	9301      	str	r3, [sp, #4]
 8001238:	2300      	movs	r3, #0
 800123a:	9300      	str	r3, [sp, #0]
 800123c:	2300      	movs	r3, #0
 800123e:	220d      	movs	r2, #13
 8001240:	4907      	ldr	r1, [pc, #28]	; (8001260 <L6470_ResetDevice+0x38>)
 8001242:	f7ff f9b1 	bl	80005a8 <L6470_PrepareAppCmdPkg>
  L6470_PrepareDaisyChainCommand(L6470_AppCmdPkg, (uint8_t*)L6470_DaisyChainSpiTxStruct);
 8001246:	4907      	ldr	r1, [pc, #28]	; (8001264 <L6470_ResetDevice+0x3c>)
 8001248:	4805      	ldr	r0, [pc, #20]	; (8001260 <L6470_ResetDevice+0x38>)
 800124a:	f7ff f9d1 	bl	80005f0 <L6470_PrepareDaisyChainCommand>
  L6470_DaisyChainCommand((uint8_t*)L6470_DaisyChainSpiTxStruct, (uint8_t*)L6470_DaisyChainSpiRxStruct);
 800124e:	4906      	ldr	r1, [pc, #24]	; (8001268 <L6470_ResetDevice+0x40>)
 8001250:	4804      	ldr	r0, [pc, #16]	; (8001264 <L6470_ResetDevice+0x3c>)
 8001252:	f000 fa93 	bl	800177c <L6470_DaisyChainCommand>
}
 8001256:	bf00      	nop
 8001258:	3708      	adds	r7, #8
 800125a:	46bd      	mov	sp, r7
 800125c:	bd80      	pop	{r7, pc}
 800125e:	bf00      	nop
 8001260:	20000388 	.word	0x20000388
 8001264:	20000380 	.word	0x20000380
 8001268:	20000378 	.word	0x20000378

0800126c <L6470_SoftStop>:
  *         in the DEC register.
  * 
  * @param  L6470_Id      The identifier of the L6470 target inside the daisy chain.
  */
void L6470_SoftStop(uint8_t L6470_Id)
{
 800126c:	b580      	push	{r7, lr}
 800126e:	b084      	sub	sp, #16
 8001270:	af02      	add	r7, sp, #8
 8001272:	4603      	mov	r3, r0
 8001274:	71fb      	strb	r3, [r7, #7]
  L6470_PrepareAppCmdPkg(L6470_Id, L6470_AppCmdPkg, L6470_SOFTSTOP_ID, 0, 0, 0);
 8001276:	79f8      	ldrb	r0, [r7, #7]
 8001278:	2300      	movs	r3, #0
 800127a:	9301      	str	r3, [sp, #4]
 800127c:	2300      	movs	r3, #0
 800127e:	9300      	str	r3, [sp, #0]
 8001280:	2300      	movs	r3, #0
 8001282:	220e      	movs	r2, #14
 8001284:	4907      	ldr	r1, [pc, #28]	; (80012a4 <L6470_SoftStop+0x38>)
 8001286:	f7ff f98f 	bl	80005a8 <L6470_PrepareAppCmdPkg>
  L6470_PrepareDaisyChainCommand(L6470_AppCmdPkg, (uint8_t*)L6470_DaisyChainSpiTxStruct);
 800128a:	4907      	ldr	r1, [pc, #28]	; (80012a8 <L6470_SoftStop+0x3c>)
 800128c:	4805      	ldr	r0, [pc, #20]	; (80012a4 <L6470_SoftStop+0x38>)
 800128e:	f7ff f9af 	bl	80005f0 <L6470_PrepareDaisyChainCommand>
  L6470_DaisyChainCommand((uint8_t*)L6470_DaisyChainSpiTxStruct, (uint8_t*)L6470_DaisyChainSpiRxStruct);
 8001292:	4906      	ldr	r1, [pc, #24]	; (80012ac <L6470_SoftStop+0x40>)
 8001294:	4804      	ldr	r0, [pc, #16]	; (80012a8 <L6470_SoftStop+0x3c>)
 8001296:	f000 fa71 	bl	800177c <L6470_DaisyChainCommand>
}
 800129a:	bf00      	nop
 800129c:	3708      	adds	r7, #8
 800129e:	46bd      	mov	sp, r7
 80012a0:	bd80      	pop	{r7, pc}
 80012a2:	bf00      	nop
 80012a4:	20000388 	.word	0x20000388
 80012a8:	20000380 	.word	0x20000380
 80012ac:	20000378 	.word	0x20000378

080012b0 <L6470_HardStop>:
  * @brief  HardStop command causes an immediate motor stop with infinite deceleration.
  * 
  * @param  L6470_Id      The identifier of the L6470 target inside the daisy chain.
  */
void L6470_HardStop(uint8_t L6470_Id)
{
 80012b0:	b580      	push	{r7, lr}
 80012b2:	b084      	sub	sp, #16
 80012b4:	af02      	add	r7, sp, #8
 80012b6:	4603      	mov	r3, r0
 80012b8:	71fb      	strb	r3, [r7, #7]
  L6470_PrepareAppCmdPkg(L6470_Id, L6470_AppCmdPkg, L6470_HARDSTOP_ID, 0, 0, 0);
 80012ba:	79f8      	ldrb	r0, [r7, #7]
 80012bc:	2300      	movs	r3, #0
 80012be:	9301      	str	r3, [sp, #4]
 80012c0:	2300      	movs	r3, #0
 80012c2:	9300      	str	r3, [sp, #0]
 80012c4:	2300      	movs	r3, #0
 80012c6:	220f      	movs	r2, #15
 80012c8:	4907      	ldr	r1, [pc, #28]	; (80012e8 <L6470_HardStop+0x38>)
 80012ca:	f7ff f96d 	bl	80005a8 <L6470_PrepareAppCmdPkg>
  L6470_PrepareDaisyChainCommand(L6470_AppCmdPkg, (uint8_t*)L6470_DaisyChainSpiTxStruct);
 80012ce:	4907      	ldr	r1, [pc, #28]	; (80012ec <L6470_HardStop+0x3c>)
 80012d0:	4805      	ldr	r0, [pc, #20]	; (80012e8 <L6470_HardStop+0x38>)
 80012d2:	f7ff f98d 	bl	80005f0 <L6470_PrepareDaisyChainCommand>
  L6470_DaisyChainCommand((uint8_t*)L6470_DaisyChainSpiTxStruct, (uint8_t*)L6470_DaisyChainSpiRxStruct);
 80012d6:	4906      	ldr	r1, [pc, #24]	; (80012f0 <L6470_HardStop+0x40>)
 80012d8:	4804      	ldr	r0, [pc, #16]	; (80012ec <L6470_HardStop+0x3c>)
 80012da:	f000 fa4f 	bl	800177c <L6470_DaisyChainCommand>
}
 80012de:	bf00      	nop
 80012e0:	3708      	adds	r7, #8
 80012e2:	46bd      	mov	sp, r7
 80012e4:	bd80      	pop	{r7, pc}
 80012e6:	bf00      	nop
 80012e8:	20000388 	.word	0x20000388
 80012ec:	20000380 	.word	0x20000380
 80012f0:	20000378 	.word	0x20000378

080012f4 <L6470_SoftHiZ>:
  *         stored in the DEC register.
  * 
  * @param  L6470_Id      The identifier of the L6470 target inside the daisy chain.
  */
void L6470_SoftHiZ(uint8_t L6470_Id)
{
 80012f4:	b580      	push	{r7, lr}
 80012f6:	b084      	sub	sp, #16
 80012f8:	af02      	add	r7, sp, #8
 80012fa:	4603      	mov	r3, r0
 80012fc:	71fb      	strb	r3, [r7, #7]
  L6470_PrepareAppCmdPkg(L6470_Id, L6470_AppCmdPkg, L6470_SOFTHIZ_ID, 0, 0, 0);
 80012fe:	79f8      	ldrb	r0, [r7, #7]
 8001300:	2300      	movs	r3, #0
 8001302:	9301      	str	r3, [sp, #4]
 8001304:	2300      	movs	r3, #0
 8001306:	9300      	str	r3, [sp, #0]
 8001308:	2300      	movs	r3, #0
 800130a:	2210      	movs	r2, #16
 800130c:	4907      	ldr	r1, [pc, #28]	; (800132c <L6470_SoftHiZ+0x38>)
 800130e:	f7ff f94b 	bl	80005a8 <L6470_PrepareAppCmdPkg>
  L6470_PrepareDaisyChainCommand(L6470_AppCmdPkg, (uint8_t*)L6470_DaisyChainSpiTxStruct);
 8001312:	4907      	ldr	r1, [pc, #28]	; (8001330 <L6470_SoftHiZ+0x3c>)
 8001314:	4805      	ldr	r0, [pc, #20]	; (800132c <L6470_SoftHiZ+0x38>)
 8001316:	f7ff f96b 	bl	80005f0 <L6470_PrepareDaisyChainCommand>
  L6470_DaisyChainCommand((uint8_t*)L6470_DaisyChainSpiTxStruct, (uint8_t*)L6470_DaisyChainSpiRxStruct);
 800131a:	4906      	ldr	r1, [pc, #24]	; (8001334 <L6470_SoftHiZ+0x40>)
 800131c:	4804      	ldr	r0, [pc, #16]	; (8001330 <L6470_SoftHiZ+0x3c>)
 800131e:	f000 fa2d 	bl	800177c <L6470_DaisyChainCommand>
}
 8001322:	bf00      	nop
 8001324:	3708      	adds	r7, #8
 8001326:	46bd      	mov	sp, r7
 8001328:	bd80      	pop	{r7, pc}
 800132a:	bf00      	nop
 800132c:	20000388 	.word	0x20000388
 8001330:	20000380 	.word	0x20000380
 8001334:	20000378 	.word	0x20000378

08001338 <L6470_HardHiZ>:
  * @brief  HardHiZ command immediately disables the power bridges (high impedance state).
  * 
  * @param  L6470_Id      The identifier of the L6470 target inside the daisy chain.
  */
void L6470_HardHiZ(uint8_t L6470_Id)
{
 8001338:	b580      	push	{r7, lr}
 800133a:	b084      	sub	sp, #16
 800133c:	af02      	add	r7, sp, #8
 800133e:	4603      	mov	r3, r0
 8001340:	71fb      	strb	r3, [r7, #7]
  L6470_PrepareAppCmdPkg(L6470_Id, L6470_AppCmdPkg, L6470_HARDHIZ_ID, 0, 0, 0);
 8001342:	79f8      	ldrb	r0, [r7, #7]
 8001344:	2300      	movs	r3, #0
 8001346:	9301      	str	r3, [sp, #4]
 8001348:	2300      	movs	r3, #0
 800134a:	9300      	str	r3, [sp, #0]
 800134c:	2300      	movs	r3, #0
 800134e:	2211      	movs	r2, #17
 8001350:	4907      	ldr	r1, [pc, #28]	; (8001370 <L6470_HardHiZ+0x38>)
 8001352:	f7ff f929 	bl	80005a8 <L6470_PrepareAppCmdPkg>
  L6470_PrepareDaisyChainCommand(L6470_AppCmdPkg, (uint8_t*)L6470_DaisyChainSpiTxStruct);
 8001356:	4907      	ldr	r1, [pc, #28]	; (8001374 <L6470_HardHiZ+0x3c>)
 8001358:	4805      	ldr	r0, [pc, #20]	; (8001370 <L6470_HardHiZ+0x38>)
 800135a:	f7ff f949 	bl	80005f0 <L6470_PrepareDaisyChainCommand>
  L6470_DaisyChainCommand((uint8_t*)L6470_DaisyChainSpiTxStruct, (uint8_t*)L6470_DaisyChainSpiRxStruct);
 800135e:	4906      	ldr	r1, [pc, #24]	; (8001378 <L6470_HardHiZ+0x40>)
 8001360:	4804      	ldr	r0, [pc, #16]	; (8001374 <L6470_HardHiZ+0x3c>)
 8001362:	f000 fa0b 	bl	800177c <L6470_DaisyChainCommand>
}
 8001366:	bf00      	nop
 8001368:	3708      	adds	r7, #8
 800136a:	46bd      	mov	sp, r7
 800136c:	bd80      	pop	{r7, pc}
 800136e:	bf00      	nop
 8001370:	20000388 	.word	0x20000388
 8001374:	20000380 	.word	0x20000380
 8001378:	20000378 	.word	0x20000378

0800137c <L6470_GetStatus>:
  * @param  L6470_Id      The identifier of the L6470 target inside the daisy chain.
  * 
  * @retval ReceivedValue The register value.
  */
uint16_t L6470_GetStatus(uint8_t L6470_Id)
{
 800137c:	b580      	push	{r7, lr}
 800137e:	b086      	sub	sp, #24
 8001380:	af02      	add	r7, sp, #8
 8001382:	4603      	mov	r3, r0
 8001384:	71fb      	strb	r3, [r7, #7]
  uint16_t ReceivedValue;

  L6470_PrepareAppCmdPkg(L6470_Id, L6470_AppCmdPkg, L6470_GETSTATUS_ID, 0, 0, 0);
 8001386:	79f8      	ldrb	r0, [r7, #7]
 8001388:	2300      	movs	r3, #0
 800138a:	9301      	str	r3, [sp, #4]
 800138c:	2300      	movs	r3, #0
 800138e:	9300      	str	r3, [sp, #0]
 8001390:	2300      	movs	r3, #0
 8001392:	2212      	movs	r2, #18
 8001394:	490b      	ldr	r1, [pc, #44]	; (80013c4 <L6470_GetStatus+0x48>)
 8001396:	f7ff f907 	bl	80005a8 <L6470_PrepareAppCmdPkg>
  L6470_PrepareDaisyChainCommand(L6470_AppCmdPkg, (uint8_t*)L6470_DaisyChainSpiTxStruct);
 800139a:	490b      	ldr	r1, [pc, #44]	; (80013c8 <L6470_GetStatus+0x4c>)
 800139c:	4809      	ldr	r0, [pc, #36]	; (80013c4 <L6470_GetStatus+0x48>)
 800139e:	f7ff f927 	bl	80005f0 <L6470_PrepareDaisyChainCommand>
  L6470_DaisyChainCommand((uint8_t*)L6470_DaisyChainSpiTxStruct, (uint8_t*)L6470_DaisyChainSpiRxStruct);
 80013a2:	490a      	ldr	r1, [pc, #40]	; (80013cc <L6470_GetStatus+0x50>)
 80013a4:	4808      	ldr	r0, [pc, #32]	; (80013c8 <L6470_GetStatus+0x4c>)
 80013a6:	f000 f9e9 	bl	800177c <L6470_DaisyChainCommand>
  
  ReceivedValue = (uint16_t)L6470_ExtractReturnedData(L6470_Id, (uint8_t*)L6470_DaisyChainSpiRxStruct, 2);
 80013aa:	79fb      	ldrb	r3, [r7, #7]
 80013ac:	2202      	movs	r2, #2
 80013ae:	4907      	ldr	r1, [pc, #28]	; (80013cc <L6470_GetStatus+0x50>)
 80013b0:	4618      	mov	r0, r3
 80013b2:	f000 fa31 	bl	8001818 <L6470_ExtractReturnedData>
 80013b6:	4603      	mov	r3, r0
 80013b8:	81fb      	strh	r3, [r7, #14]
  
  return ReceivedValue;
 80013ba:	89fb      	ldrh	r3, [r7, #14]
}
 80013bc:	4618      	mov	r0, r3
 80013be:	3710      	adds	r7, #16
 80013c0:	46bd      	mov	sp, r7
 80013c2:	bd80      	pop	{r7, pc}
 80013c4:	20000388 	.word	0x20000388
 80013c8:	20000380 	.word	0x20000380
 80013cc:	20000378 	.word	0x20000378

080013d0 <L6470_PrepareSetParam>:
  *
  * @note   This function will properly fill the right column of the L6470_AppCmdPkg.
  * @note   The commad will be sent by @ref L6470_PerformPreparedApplicationCommand.
  */
void L6470_PrepareSetParam(uint8_t L6470_Id, eL6470_RegId_t L6470_RegId, uint32_t Value)
{
 80013d0:	b580      	push	{r7, lr}
 80013d2:	b084      	sub	sp, #16
 80013d4:	af02      	add	r7, sp, #8
 80013d6:	4603      	mov	r3, r0
 80013d8:	603a      	str	r2, [r7, #0]
 80013da:	71fb      	strb	r3, [r7, #7]
 80013dc:	460b      	mov	r3, r1
 80013de:	71bb      	strb	r3, [r7, #6]
    L6470_PrepareAppCmdPkg(L6470_Id, L6470_AppCmdPkg, L6470_SETPARAM_ID, L6470_RegId, Value, 0);
 80013e0:	79ba      	ldrb	r2, [r7, #6]
 80013e2:	79f8      	ldrb	r0, [r7, #7]
 80013e4:	2300      	movs	r3, #0
 80013e6:	9301      	str	r3, [sp, #4]
 80013e8:	683b      	ldr	r3, [r7, #0]
 80013ea:	9300      	str	r3, [sp, #0]
 80013ec:	4613      	mov	r3, r2
 80013ee:	2201      	movs	r2, #1
 80013f0:	4903      	ldr	r1, [pc, #12]	; (8001400 <L6470_PrepareSetParam+0x30>)
 80013f2:	f7ff f8d9 	bl	80005a8 <L6470_PrepareAppCmdPkg>
}
 80013f6:	bf00      	nop
 80013f8:	3708      	adds	r7, #8
 80013fa:	46bd      	mov	sp, r7
 80013fc:	bd80      	pop	{r7, pc}
 80013fe:	bf00      	nop
 8001400:	20000388 	.word	0x20000388

08001404 <L6470_PrepareGetParam>:
  *
  * @note   This function will properly fill the right column of the L6470_AppCmdPkg.
  * @note   The commad will be sent by @ref L6470_PerformPreparedApplicationCommand.
  */
void L6470_PrepareGetParam(uint8_t L6470_Id, eL6470_RegId_t L6470_RegId)
{
 8001404:	b580      	push	{r7, lr}
 8001406:	b084      	sub	sp, #16
 8001408:	af02      	add	r7, sp, #8
 800140a:	4603      	mov	r3, r0
 800140c:	460a      	mov	r2, r1
 800140e:	71fb      	strb	r3, [r7, #7]
 8001410:	4613      	mov	r3, r2
 8001412:	71bb      	strb	r3, [r7, #6]
  L6470_PrepareAppCmdPkg(L6470_Id, L6470_AppCmdPkg, L6470_GETPARAM_ID, L6470_RegId, 0, 0);
 8001414:	79bb      	ldrb	r3, [r7, #6]
 8001416:	79f8      	ldrb	r0, [r7, #7]
 8001418:	2200      	movs	r2, #0
 800141a:	9201      	str	r2, [sp, #4]
 800141c:	2200      	movs	r2, #0
 800141e:	9200      	str	r2, [sp, #0]
 8001420:	2202      	movs	r2, #2
 8001422:	4903      	ldr	r1, [pc, #12]	; (8001430 <L6470_PrepareGetParam+0x2c>)
 8001424:	f7ff f8c0 	bl	80005a8 <L6470_PrepareAppCmdPkg>
}
 8001428:	bf00      	nop
 800142a:	3708      	adds	r7, #8
 800142c:	46bd      	mov	sp, r7
 800142e:	bd80      	pop	{r7, pc}
 8001430:	20000388 	.word	0x20000388

08001434 <L6470_PrepareRun>:
  *
  * @note   This function will properly fill the right column of the L6470_AppCmdPkg.
  * @note   The commad will be sent by @ref L6470_PerformPreparedApplicationCommand.
  */
void L6470_PrepareRun(uint8_t L6470_Id, eL6470_DirId_t L6470_DirId, uint32_t Speed)
{
 8001434:	b580      	push	{r7, lr}
 8001436:	b084      	sub	sp, #16
 8001438:	af02      	add	r7, sp, #8
 800143a:	4603      	mov	r3, r0
 800143c:	603a      	str	r2, [r7, #0]
 800143e:	71fb      	strb	r3, [r7, #7]
 8001440:	460b      	mov	r3, r1
 8001442:	71bb      	strb	r3, [r7, #6]
  L6470_PrepareAppCmdPkg(L6470_Id, L6470_AppCmdPkg, L6470_RUN_ID, L6470_DirId, Speed, 0);
 8001444:	79ba      	ldrb	r2, [r7, #6]
 8001446:	79f8      	ldrb	r0, [r7, #7]
 8001448:	2300      	movs	r3, #0
 800144a:	9301      	str	r3, [sp, #4]
 800144c:	683b      	ldr	r3, [r7, #0]
 800144e:	9300      	str	r3, [sp, #0]
 8001450:	4613      	mov	r3, r2
 8001452:	2203      	movs	r2, #3
 8001454:	4903      	ldr	r1, [pc, #12]	; (8001464 <L6470_PrepareRun+0x30>)
 8001456:	f7ff f8a7 	bl	80005a8 <L6470_PrepareAppCmdPkg>
}
 800145a:	bf00      	nop
 800145c:	3708      	adds	r7, #8
 800145e:	46bd      	mov	sp, r7
 8001460:	bd80      	pop	{r7, pc}
 8001462:	bf00      	nop
 8001464:	20000388 	.word	0x20000388

08001468 <L6470_PrepareStepClock>:
  *
  * @note   This function will properly fill the right column of the L6470_AppCmdPkg.
  * @note   The commad will be sent by @ref L6470_PerformPreparedApplicationCommand.
  */
void L6470_PrepareStepClock(uint8_t L6470_Id, eL6470_DirId_t L6470_DirId)
{
 8001468:	b580      	push	{r7, lr}
 800146a:	b084      	sub	sp, #16
 800146c:	af02      	add	r7, sp, #8
 800146e:	4603      	mov	r3, r0
 8001470:	460a      	mov	r2, r1
 8001472:	71fb      	strb	r3, [r7, #7]
 8001474:	4613      	mov	r3, r2
 8001476:	71bb      	strb	r3, [r7, #6]
  L6470_PrepareAppCmdPkg(L6470_Id, L6470_AppCmdPkg, L6470_STEPCLOCK_ID, L6470_DirId, 0, 0);
 8001478:	79bb      	ldrb	r3, [r7, #6]
 800147a:	79f8      	ldrb	r0, [r7, #7]
 800147c:	2200      	movs	r2, #0
 800147e:	9201      	str	r2, [sp, #4]
 8001480:	2200      	movs	r2, #0
 8001482:	9200      	str	r2, [sp, #0]
 8001484:	2204      	movs	r2, #4
 8001486:	4903      	ldr	r1, [pc, #12]	; (8001494 <L6470_PrepareStepClock+0x2c>)
 8001488:	f7ff f88e 	bl	80005a8 <L6470_PrepareAppCmdPkg>
}
 800148c:	bf00      	nop
 800148e:	3708      	adds	r7, #8
 8001490:	46bd      	mov	sp, r7
 8001492:	bd80      	pop	{r7, pc}
 8001494:	20000388 	.word	0x20000388

08001498 <L6470_PrepareMove>:
  *
  * @note   This function will properly fill the right column of the L6470_AppCmdPkg.
  * @note   The commad will be sent by @ref L6470_PerformPreparedApplicationCommand.
  */
void L6470_PrepareMove(uint8_t L6470_Id, eL6470_DirId_t L6470_DirId, uint32_t N_Step)
{
 8001498:	b580      	push	{r7, lr}
 800149a:	b084      	sub	sp, #16
 800149c:	af02      	add	r7, sp, #8
 800149e:	4603      	mov	r3, r0
 80014a0:	603a      	str	r2, [r7, #0]
 80014a2:	71fb      	strb	r3, [r7, #7]
 80014a4:	460b      	mov	r3, r1
 80014a6:	71bb      	strb	r3, [r7, #6]
  L6470_PrepareAppCmdPkg(L6470_Id, L6470_AppCmdPkg, L6470_MOVE_ID, L6470_DirId, N_Step, 0);
 80014a8:	79ba      	ldrb	r2, [r7, #6]
 80014aa:	79f8      	ldrb	r0, [r7, #7]
 80014ac:	2300      	movs	r3, #0
 80014ae:	9301      	str	r3, [sp, #4]
 80014b0:	683b      	ldr	r3, [r7, #0]
 80014b2:	9300      	str	r3, [sp, #0]
 80014b4:	4613      	mov	r3, r2
 80014b6:	2205      	movs	r2, #5
 80014b8:	4903      	ldr	r1, [pc, #12]	; (80014c8 <L6470_PrepareMove+0x30>)
 80014ba:	f7ff f875 	bl	80005a8 <L6470_PrepareAppCmdPkg>
}
 80014be:	bf00      	nop
 80014c0:	3708      	adds	r7, #8
 80014c2:	46bd      	mov	sp, r7
 80014c4:	bd80      	pop	{r7, pc}
 80014c6:	bf00      	nop
 80014c8:	20000388 	.word	0x20000388

080014cc <L6470_PrepareGoTo>:
  *
  * @note   This function will properly fill the right column of the L6470_AppCmdPkg.
  * @note   The commad will be sent by @ref L6470_PerformPreparedApplicationCommand.
  */
void L6470_PrepareGoTo(uint8_t L6470_Id, uint32_t AbsPos)
{
 80014cc:	b580      	push	{r7, lr}
 80014ce:	b084      	sub	sp, #16
 80014d0:	af02      	add	r7, sp, #8
 80014d2:	4603      	mov	r3, r0
 80014d4:	6039      	str	r1, [r7, #0]
 80014d6:	71fb      	strb	r3, [r7, #7]
  L6470_PrepareAppCmdPkg(L6470_Id, L6470_AppCmdPkg, L6470_GOTO_ID, AbsPos, 0, 0);
 80014d8:	79f8      	ldrb	r0, [r7, #7]
 80014da:	2300      	movs	r3, #0
 80014dc:	9301      	str	r3, [sp, #4]
 80014de:	2300      	movs	r3, #0
 80014e0:	9300      	str	r3, [sp, #0]
 80014e2:	683b      	ldr	r3, [r7, #0]
 80014e4:	2206      	movs	r2, #6
 80014e6:	4903      	ldr	r1, [pc, #12]	; (80014f4 <L6470_PrepareGoTo+0x28>)
 80014e8:	f7ff f85e 	bl	80005a8 <L6470_PrepareAppCmdPkg>
}
 80014ec:	bf00      	nop
 80014ee:	3708      	adds	r7, #8
 80014f0:	46bd      	mov	sp, r7
 80014f2:	bd80      	pop	{r7, pc}
 80014f4:	20000388 	.word	0x20000388

080014f8 <L6470_PrepareGoToDir>:
  *
  * @note   This function will properly fill the right column of the L6470_AppCmdPkg.
  * @note   The commad will be sent by @ref L6470_PerformPreparedApplicationCommand.
  */
void L6470_PrepareGoToDir(uint8_t L6470_Id, eL6470_DirId_t L6470_DirId, uint32_t AbsPos)
{
 80014f8:	b580      	push	{r7, lr}
 80014fa:	b084      	sub	sp, #16
 80014fc:	af02      	add	r7, sp, #8
 80014fe:	4603      	mov	r3, r0
 8001500:	603a      	str	r2, [r7, #0]
 8001502:	71fb      	strb	r3, [r7, #7]
 8001504:	460b      	mov	r3, r1
 8001506:	71bb      	strb	r3, [r7, #6]
  L6470_PrepareAppCmdPkg(L6470_Id, L6470_AppCmdPkg, L6470_GOTODIR_ID, L6470_DirId, AbsPos, 0);
 8001508:	79ba      	ldrb	r2, [r7, #6]
 800150a:	79f8      	ldrb	r0, [r7, #7]
 800150c:	2300      	movs	r3, #0
 800150e:	9301      	str	r3, [sp, #4]
 8001510:	683b      	ldr	r3, [r7, #0]
 8001512:	9300      	str	r3, [sp, #0]
 8001514:	4613      	mov	r3, r2
 8001516:	2207      	movs	r2, #7
 8001518:	4903      	ldr	r1, [pc, #12]	; (8001528 <L6470_PrepareGoToDir+0x30>)
 800151a:	f7ff f845 	bl	80005a8 <L6470_PrepareAppCmdPkg>
}
 800151e:	bf00      	nop
 8001520:	3708      	adds	r7, #8
 8001522:	46bd      	mov	sp, r7
 8001524:	bd80      	pop	{r7, pc}
 8001526:	bf00      	nop
 8001528:	20000388 	.word	0x20000388

0800152c <L6470_PrepareGoUntil>:
  *
  * @note   This function will properly fill the right column of the L6470_AppCmdPkg.
  * @note   The commad will be sent by @ref L6470_PerformPreparedApplicationCommand.
  */
void L6470_PrepareGoUntil(uint8_t L6470_Id, eL6470_ActId_t L6470_ActId, eL6470_DirId_t L6470_DirId, uint32_t Speed)
{
 800152c:	b580      	push	{r7, lr}
 800152e:	b084      	sub	sp, #16
 8001530:	af02      	add	r7, sp, #8
 8001532:	603b      	str	r3, [r7, #0]
 8001534:	4603      	mov	r3, r0
 8001536:	71fb      	strb	r3, [r7, #7]
 8001538:	460b      	mov	r3, r1
 800153a:	71bb      	strb	r3, [r7, #6]
 800153c:	4613      	mov	r3, r2
 800153e:	717b      	strb	r3, [r7, #5]
  L6470_PrepareAppCmdPkg(L6470_Id, L6470_AppCmdPkg, L6470_GOUNTIL_ID, L6470_ActId, L6470_DirId, Speed);
 8001540:	79b9      	ldrb	r1, [r7, #6]
 8001542:	797b      	ldrb	r3, [r7, #5]
 8001544:	79f8      	ldrb	r0, [r7, #7]
 8001546:	683a      	ldr	r2, [r7, #0]
 8001548:	9201      	str	r2, [sp, #4]
 800154a:	9300      	str	r3, [sp, #0]
 800154c:	460b      	mov	r3, r1
 800154e:	2208      	movs	r2, #8
 8001550:	4903      	ldr	r1, [pc, #12]	; (8001560 <L6470_PrepareGoUntil+0x34>)
 8001552:	f7ff f829 	bl	80005a8 <L6470_PrepareAppCmdPkg>
}
 8001556:	bf00      	nop
 8001558:	3708      	adds	r7, #8
 800155a:	46bd      	mov	sp, r7
 800155c:	bd80      	pop	{r7, pc}
 800155e:	bf00      	nop
 8001560:	20000388 	.word	0x20000388

08001564 <L6470_PrepareReleaseSW>:
  *
  * @note   This function will properly fill the right column of the L6470_AppCmdPkg.
  * @note   The commad will be sent by @ref L6470_PerformPreparedApplicationCommand.
  */
void L6470_PrepareReleaseSW(uint8_t L6470_Id, eL6470_ActId_t L6470_ActId, eL6470_DirId_t L6470_DirId)
{
 8001564:	b580      	push	{r7, lr}
 8001566:	b084      	sub	sp, #16
 8001568:	af02      	add	r7, sp, #8
 800156a:	4603      	mov	r3, r0
 800156c:	71fb      	strb	r3, [r7, #7]
 800156e:	460b      	mov	r3, r1
 8001570:	71bb      	strb	r3, [r7, #6]
 8001572:	4613      	mov	r3, r2
 8001574:	717b      	strb	r3, [r7, #5]
  L6470_PrepareAppCmdPkg(L6470_Id, L6470_AppCmdPkg, L6470_RELEASESW_ID, L6470_ActId, L6470_DirId, 0);
 8001576:	79ba      	ldrb	r2, [r7, #6]
 8001578:	797b      	ldrb	r3, [r7, #5]
 800157a:	79f8      	ldrb	r0, [r7, #7]
 800157c:	2100      	movs	r1, #0
 800157e:	9101      	str	r1, [sp, #4]
 8001580:	9300      	str	r3, [sp, #0]
 8001582:	4613      	mov	r3, r2
 8001584:	2209      	movs	r2, #9
 8001586:	4903      	ldr	r1, [pc, #12]	; (8001594 <L6470_PrepareReleaseSW+0x30>)
 8001588:	f7ff f80e 	bl	80005a8 <L6470_PrepareAppCmdPkg>
}
 800158c:	bf00      	nop
 800158e:	3708      	adds	r7, #8
 8001590:	46bd      	mov	sp, r7
 8001592:	bd80      	pop	{r7, pc}
 8001594:	20000388 	.word	0x20000388

08001598 <L6470_PrepareGoHome>:
  *
  * @note   This function will properly fill the right column of the L6470_AppCmdPkg.
  * @note   The commad will be sent by @ref L6470_PerformPreparedApplicationCommand.
  */
void L6470_PrepareGoHome(uint8_t L6470_Id)
{
 8001598:	b580      	push	{r7, lr}
 800159a:	b084      	sub	sp, #16
 800159c:	af02      	add	r7, sp, #8
 800159e:	4603      	mov	r3, r0
 80015a0:	71fb      	strb	r3, [r7, #7]
  L6470_PrepareAppCmdPkg(L6470_Id, L6470_AppCmdPkg, L6470_GOHOME_ID, 0, 0, 0);
 80015a2:	79f8      	ldrb	r0, [r7, #7]
 80015a4:	2300      	movs	r3, #0
 80015a6:	9301      	str	r3, [sp, #4]
 80015a8:	2300      	movs	r3, #0
 80015aa:	9300      	str	r3, [sp, #0]
 80015ac:	2300      	movs	r3, #0
 80015ae:	220a      	movs	r2, #10
 80015b0:	4903      	ldr	r1, [pc, #12]	; (80015c0 <L6470_PrepareGoHome+0x28>)
 80015b2:	f7fe fff9 	bl	80005a8 <L6470_PrepareAppCmdPkg>
}
 80015b6:	bf00      	nop
 80015b8:	3708      	adds	r7, #8
 80015ba:	46bd      	mov	sp, r7
 80015bc:	bd80      	pop	{r7, pc}
 80015be:	bf00      	nop
 80015c0:	20000388 	.word	0x20000388

080015c4 <L6470_PrepareGoMark>:
  *
  * @note   This function will properly fill the right column of the L6470_AppCmdPkg.
  * @note   The commad will be sent by @ref L6470_PerformPreparedApplicationCommand.
  */
void L6470_PrepareGoMark(uint8_t L6470_Id)
{
 80015c4:	b580      	push	{r7, lr}
 80015c6:	b084      	sub	sp, #16
 80015c8:	af02      	add	r7, sp, #8
 80015ca:	4603      	mov	r3, r0
 80015cc:	71fb      	strb	r3, [r7, #7]
  L6470_PrepareAppCmdPkg(L6470_Id, L6470_AppCmdPkg, L6470_GOMARK_ID, 0, 0, 0);
 80015ce:	79f8      	ldrb	r0, [r7, #7]
 80015d0:	2300      	movs	r3, #0
 80015d2:	9301      	str	r3, [sp, #4]
 80015d4:	2300      	movs	r3, #0
 80015d6:	9300      	str	r3, [sp, #0]
 80015d8:	2300      	movs	r3, #0
 80015da:	220b      	movs	r2, #11
 80015dc:	4903      	ldr	r1, [pc, #12]	; (80015ec <L6470_PrepareGoMark+0x28>)
 80015de:	f7fe ffe3 	bl	80005a8 <L6470_PrepareAppCmdPkg>
}
 80015e2:	bf00      	nop
 80015e4:	3708      	adds	r7, #8
 80015e6:	46bd      	mov	sp, r7
 80015e8:	bd80      	pop	{r7, pc}
 80015ea:	bf00      	nop
 80015ec:	20000388 	.word	0x20000388

080015f0 <L6470_PrepareResetPos>:
  *
  * @note   This function will properly fill the right column of the L6470_AppCmdPkg.
  * @note   The commad will be sent by @ref L6470_PerformPreparedApplicationCommand.
  */
void L6470_PrepareResetPos(uint8_t L6470_Id)
{
 80015f0:	b580      	push	{r7, lr}
 80015f2:	b084      	sub	sp, #16
 80015f4:	af02      	add	r7, sp, #8
 80015f6:	4603      	mov	r3, r0
 80015f8:	71fb      	strb	r3, [r7, #7]
  L6470_PrepareAppCmdPkg(L6470_Id, L6470_AppCmdPkg, L6470_RESETPOS_ID, 0, 0, 0);
 80015fa:	79f8      	ldrb	r0, [r7, #7]
 80015fc:	2300      	movs	r3, #0
 80015fe:	9301      	str	r3, [sp, #4]
 8001600:	2300      	movs	r3, #0
 8001602:	9300      	str	r3, [sp, #0]
 8001604:	2300      	movs	r3, #0
 8001606:	220c      	movs	r2, #12
 8001608:	4903      	ldr	r1, [pc, #12]	; (8001618 <L6470_PrepareResetPos+0x28>)
 800160a:	f7fe ffcd 	bl	80005a8 <L6470_PrepareAppCmdPkg>
}
 800160e:	bf00      	nop
 8001610:	3708      	adds	r7, #8
 8001612:	46bd      	mov	sp, r7
 8001614:	bd80      	pop	{r7, pc}
 8001616:	bf00      	nop
 8001618:	20000388 	.word	0x20000388

0800161c <L6470_PrepareResetDevice>:
  *
  * @note   This function will properly fill the right column of the L6470_AppCmdPkg.
  * @note   The commad will be sent by @ref L6470_PerformPreparedApplicationCommand.
  */
void L6470_PrepareResetDevice(uint8_t L6470_Id)
{
 800161c:	b580      	push	{r7, lr}
 800161e:	b084      	sub	sp, #16
 8001620:	af02      	add	r7, sp, #8
 8001622:	4603      	mov	r3, r0
 8001624:	71fb      	strb	r3, [r7, #7]
  L6470_PrepareAppCmdPkg(L6470_Id, L6470_AppCmdPkg, L6470_RESETDEVICE_ID, 0, 0, 0);
 8001626:	79f8      	ldrb	r0, [r7, #7]
 8001628:	2300      	movs	r3, #0
 800162a:	9301      	str	r3, [sp, #4]
 800162c:	2300      	movs	r3, #0
 800162e:	9300      	str	r3, [sp, #0]
 8001630:	2300      	movs	r3, #0
 8001632:	220d      	movs	r2, #13
 8001634:	4903      	ldr	r1, [pc, #12]	; (8001644 <L6470_PrepareResetDevice+0x28>)
 8001636:	f7fe ffb7 	bl	80005a8 <L6470_PrepareAppCmdPkg>
}
 800163a:	bf00      	nop
 800163c:	3708      	adds	r7, #8
 800163e:	46bd      	mov	sp, r7
 8001640:	bd80      	pop	{r7, pc}
 8001642:	bf00      	nop
 8001644:	20000388 	.word	0x20000388

08001648 <L6470_PrepareSoftStop>:
  *
  * @note   This function will properly fill the right column of the L6470_AppCmdPkg.
  * @note   The commad will be sent by @ref L6470_PerformPreparedApplicationCommand.
  */
void L6470_PrepareSoftStop(uint8_t L6470_Id)
{
 8001648:	b580      	push	{r7, lr}
 800164a:	b084      	sub	sp, #16
 800164c:	af02      	add	r7, sp, #8
 800164e:	4603      	mov	r3, r0
 8001650:	71fb      	strb	r3, [r7, #7]
  L6470_PrepareAppCmdPkg(L6470_Id, L6470_AppCmdPkg, L6470_SOFTSTOP_ID, 0, 0, 0);
 8001652:	79f8      	ldrb	r0, [r7, #7]
 8001654:	2300      	movs	r3, #0
 8001656:	9301      	str	r3, [sp, #4]
 8001658:	2300      	movs	r3, #0
 800165a:	9300      	str	r3, [sp, #0]
 800165c:	2300      	movs	r3, #0
 800165e:	220e      	movs	r2, #14
 8001660:	4903      	ldr	r1, [pc, #12]	; (8001670 <L6470_PrepareSoftStop+0x28>)
 8001662:	f7fe ffa1 	bl	80005a8 <L6470_PrepareAppCmdPkg>
}
 8001666:	bf00      	nop
 8001668:	3708      	adds	r7, #8
 800166a:	46bd      	mov	sp, r7
 800166c:	bd80      	pop	{r7, pc}
 800166e:	bf00      	nop
 8001670:	20000388 	.word	0x20000388

08001674 <L6470_PrepareHardStop>:
  *
  * @note   This function will properly fill the right column of the L6470_AppCmdPkg.
  * @note   The commad will be sent by @ref L6470_PerformPreparedApplicationCommand.
  */
void L6470_PrepareHardStop(uint8_t L6470_Id)
{
 8001674:	b580      	push	{r7, lr}
 8001676:	b084      	sub	sp, #16
 8001678:	af02      	add	r7, sp, #8
 800167a:	4603      	mov	r3, r0
 800167c:	71fb      	strb	r3, [r7, #7]
  L6470_PrepareAppCmdPkg(L6470_Id, L6470_AppCmdPkg, L6470_HARDSTOP_ID, 0, 0, 0);
 800167e:	79f8      	ldrb	r0, [r7, #7]
 8001680:	2300      	movs	r3, #0
 8001682:	9301      	str	r3, [sp, #4]
 8001684:	2300      	movs	r3, #0
 8001686:	9300      	str	r3, [sp, #0]
 8001688:	2300      	movs	r3, #0
 800168a:	220f      	movs	r2, #15
 800168c:	4903      	ldr	r1, [pc, #12]	; (800169c <L6470_PrepareHardStop+0x28>)
 800168e:	f7fe ff8b 	bl	80005a8 <L6470_PrepareAppCmdPkg>
}
 8001692:	bf00      	nop
 8001694:	3708      	adds	r7, #8
 8001696:	46bd      	mov	sp, r7
 8001698:	bd80      	pop	{r7, pc}
 800169a:	bf00      	nop
 800169c:	20000388 	.word	0x20000388

080016a0 <L6470_PrepareSoftHiZ>:
  *
  * @note   This function will properly fill the right column of the L6470_AppCmdPkg.
  * @note   The commad will be sent by @ref L6470_PerformPreparedApplicationCommand.
  */
void L6470_PrepareSoftHiZ(uint8_t L6470_Id)
{
 80016a0:	b580      	push	{r7, lr}
 80016a2:	b084      	sub	sp, #16
 80016a4:	af02      	add	r7, sp, #8
 80016a6:	4603      	mov	r3, r0
 80016a8:	71fb      	strb	r3, [r7, #7]
  L6470_PrepareAppCmdPkg(L6470_Id, L6470_AppCmdPkg, L6470_SOFTHIZ_ID, 0, 0, 0);
 80016aa:	79f8      	ldrb	r0, [r7, #7]
 80016ac:	2300      	movs	r3, #0
 80016ae:	9301      	str	r3, [sp, #4]
 80016b0:	2300      	movs	r3, #0
 80016b2:	9300      	str	r3, [sp, #0]
 80016b4:	2300      	movs	r3, #0
 80016b6:	2210      	movs	r2, #16
 80016b8:	4903      	ldr	r1, [pc, #12]	; (80016c8 <L6470_PrepareSoftHiZ+0x28>)
 80016ba:	f7fe ff75 	bl	80005a8 <L6470_PrepareAppCmdPkg>
}
 80016be:	bf00      	nop
 80016c0:	3708      	adds	r7, #8
 80016c2:	46bd      	mov	sp, r7
 80016c4:	bd80      	pop	{r7, pc}
 80016c6:	bf00      	nop
 80016c8:	20000388 	.word	0x20000388

080016cc <L6470_PrepareHardHiZ>:
  *
  * @note   This function will properly fill the right column of the L6470_AppCmdPkg.
  * @note   The commad will be sent by @ref L6470_PerformPreparedApplicationCommand.
  */
void L6470_PrepareHardHiZ(uint8_t L6470_Id)
{
 80016cc:	b580      	push	{r7, lr}
 80016ce:	b084      	sub	sp, #16
 80016d0:	af02      	add	r7, sp, #8
 80016d2:	4603      	mov	r3, r0
 80016d4:	71fb      	strb	r3, [r7, #7]
  L6470_PrepareAppCmdPkg(L6470_Id, L6470_AppCmdPkg, L6470_HARDHIZ_ID, 0, 0, 0);
 80016d6:	79f8      	ldrb	r0, [r7, #7]
 80016d8:	2300      	movs	r3, #0
 80016da:	9301      	str	r3, [sp, #4]
 80016dc:	2300      	movs	r3, #0
 80016de:	9300      	str	r3, [sp, #0]
 80016e0:	2300      	movs	r3, #0
 80016e2:	2211      	movs	r2, #17
 80016e4:	4903      	ldr	r1, [pc, #12]	; (80016f4 <L6470_PrepareHardHiZ+0x28>)
 80016e6:	f7fe ff5f 	bl	80005a8 <L6470_PrepareAppCmdPkg>
}
 80016ea:	bf00      	nop
 80016ec:	3708      	adds	r7, #8
 80016ee:	46bd      	mov	sp, r7
 80016f0:	bd80      	pop	{r7, pc}
 80016f2:	bf00      	nop
 80016f4:	20000388 	.word	0x20000388

080016f8 <L6470_PrepareGetStatus>:
  *
  * @note   This function will properly fill the right column of the L6470_AppCmdPkg.
  * @note   The commad will be sent by @ref L6470_PerformPreparedApplicationCommand.
  */
void L6470_PrepareGetStatus(uint8_t L6470_Id)
{
 80016f8:	b580      	push	{r7, lr}
 80016fa:	b084      	sub	sp, #16
 80016fc:	af02      	add	r7, sp, #8
 80016fe:	4603      	mov	r3, r0
 8001700:	71fb      	strb	r3, [r7, #7]
  L6470_PrepareAppCmdPkg(L6470_Id, L6470_AppCmdPkg, L6470_GETSTATUS_ID, 0, 0, 0);
 8001702:	79f8      	ldrb	r0, [r7, #7]
 8001704:	2300      	movs	r3, #0
 8001706:	9301      	str	r3, [sp, #4]
 8001708:	2300      	movs	r3, #0
 800170a:	9300      	str	r3, [sp, #0]
 800170c:	2300      	movs	r3, #0
 800170e:	2212      	movs	r2, #18
 8001710:	4903      	ldr	r1, [pc, #12]	; (8001720 <L6470_PrepareGetStatus+0x28>)
 8001712:	f7fe ff49 	bl	80005a8 <L6470_PrepareAppCmdPkg>
}
 8001716:	bf00      	nop
 8001718:	3708      	adds	r7, #8
 800171a:	46bd      	mov	sp, r7
 800171c:	bd80      	pop	{r7, pc}
 800171e:	bf00      	nop
 8001720:	20000388 	.word	0x20000388

08001724 <L6470_PerformPreparedApplicationCommand>:
  * @retval (uint8_t*)L6470_DaisyChainSpiRxStruct  The pointer to the structure
  *         containing returned values from each L6470 of the daisy chain for each
  *         sent SPI data.
  */
uint8_t* L6470_PerformPreparedApplicationCommand(void)
{
 8001724:	b580      	push	{r7, lr}
 8001726:	af00      	add	r7, sp, #0
  L6470_PrepareDaisyChainCommand(L6470_AppCmdPkg, (uint8_t*)L6470_DaisyChainSpiTxStruct);
 8001728:	4905      	ldr	r1, [pc, #20]	; (8001740 <L6470_PerformPreparedApplicationCommand+0x1c>)
 800172a:	4806      	ldr	r0, [pc, #24]	; (8001744 <L6470_PerformPreparedApplicationCommand+0x20>)
 800172c:	f7fe ff60 	bl	80005f0 <L6470_PrepareDaisyChainCommand>
  L6470_DaisyChainCommand((uint8_t*)L6470_DaisyChainSpiTxStruct, (uint8_t*)L6470_DaisyChainSpiRxStruct);
 8001730:	4905      	ldr	r1, [pc, #20]	; (8001748 <L6470_PerformPreparedApplicationCommand+0x24>)
 8001732:	4803      	ldr	r0, [pc, #12]	; (8001740 <L6470_PerformPreparedApplicationCommand+0x1c>)
 8001734:	f000 f822 	bl	800177c <L6470_DaisyChainCommand>
  
  return (uint8_t*)(L6470_DaisyChainSpiRxStruct);
 8001738:	4b03      	ldr	r3, [pc, #12]	; (8001748 <L6470_PerformPreparedApplicationCommand+0x24>)
}
 800173a:	4618      	mov	r0, r3
 800173c:	bd80      	pop	{r7, pc}
 800173e:	bf00      	nop
 8001740:	20000380 	.word	0x20000380
 8001744:	20000388 	.word	0x20000388
 8001748:	20000378 	.word	0x20000378

0800174c <L6470_ID>:
  *
  * @note   The position '1' is close the uC MISO.
  * @note   If the position is not allowable the returned value is 0xFF.
  */
uint8_t L6470_ID(uint8_t position)
{
 800174c:	b480      	push	{r7}
 800174e:	b083      	sub	sp, #12
 8001750:	af00      	add	r7, sp, #0
 8001752:	4603      	mov	r3, r0
 8001754:	71fb      	strb	r3, [r7, #7]
   if ((position == 0) || ((position > 0) && (position < L6470DAISYCHAINSIZE)))
 8001756:	79fb      	ldrb	r3, [r7, #7]
 8001758:	2b00      	cmp	r3, #0
 800175a:	d005      	beq.n	8001768 <L6470_ID+0x1c>
 800175c:	79fb      	ldrb	r3, [r7, #7]
 800175e:	2b00      	cmp	r3, #0
 8001760:	d004      	beq.n	800176c <L6470_ID+0x20>
 8001762:	79fb      	ldrb	r3, [r7, #7]
 8001764:	2b01      	cmp	r3, #1
 8001766:	d801      	bhi.n	800176c <L6470_ID+0x20>
  {
    return (position);
 8001768:	79fb      	ldrb	r3, [r7, #7]
 800176a:	e000      	b.n	800176e <L6470_ID+0x22>
  }
  else
  {
    return 0xFF;
 800176c:	23ff      	movs	r3, #255	; 0xff
  }
}
 800176e:	4618      	mov	r0, r3
 8001770:	370c      	adds	r7, #12
 8001772:	46bd      	mov	sp, r7
 8001774:	f85d 7b04 	ldr.w	r7, [sp], #4
 8001778:	4770      	bx	lr
	...

0800177c <L6470_DaisyChainCommand>:
  * @brief  Send command to the L6470 daisy chain via SPI
  * @param  pL6470_DaisyChainSpiTxStruct  Pointer to the matrix array of bytes to be sent to the daisy chain L6470
  * @param  pL6470_DaisyChainSpiRxStruct  Pointer to the matrix array of bytes to be received from the daisy chain L6470
  */
void L6470_DaisyChainCommand(uint8_t* pL6470_DaisyChainSpiTxStruct, uint8_t* pL6470_DaisyChainSpiRxStruct)
{
 800177c:	b580      	push	{r7, lr}
 800177e:	b086      	sub	sp, #24
 8001780:	af02      	add	r7, sp, #8
 8001782:	6078      	str	r0, [r7, #4]
 8001784:	6039      	str	r1, [r7, #0]
  uint8_t spibyte;
  
  L6470_DaisyChain_HalfPrepared = ZERO_F;
 8001786:	4b20      	ldr	r3, [pc, #128]	; (8001808 <L6470_DaisyChainCommand+0x8c>)
 8001788:	2200      	movs	r2, #0
 800178a:	701a      	strb	r2, [r3, #0]
  
  /* Send all command bytes via SPI */
  for(spibyte=0; spibyte < L6470MAXSPICMDBYTESIZE; spibyte++)
 800178c:	2300      	movs	r3, #0
 800178e:	73fb      	strb	r3, [r7, #15]
 8001790:	e031      	b.n	80017f6 <L6470_DaisyChainCommand+0x7a>
  {
    /* Enable SPI communication for L6470 */
    L6470_nCS_LOW();
 8001792:	4b1e      	ldr	r3, [pc, #120]	; (800180c <L6470_DaisyChainCommand+0x90>)
 8001794:	685b      	ldr	r3, [r3, #4]
 8001796:	4a1d      	ldr	r2, [pc, #116]	; (800180c <L6470_DaisyChainCommand+0x90>)
 8001798:	8911      	ldrh	r1, [r2, #8]
 800179a:	2200      	movs	r2, #0
 800179c:	4618      	mov	r0, r3
 800179e:	f003 f9cb 	bl	8004b38 <HAL_GPIO_WritePin>
    
    /* Send the command via SPI */
    L6470_SPI_Communication(&HSPI, (pL6470_DaisyChainSpiTxStruct+(spibyte * L6470DAISYCHAINSIZE)), (pL6470_DaisyChainSpiRxStruct+(spibyte * L6470DAISYCHAINSIZE)), L6470DAISYCHAINSIZE, 10);
 80017a2:	7bfb      	ldrb	r3, [r7, #15]
 80017a4:	005b      	lsls	r3, r3, #1
 80017a6:	461a      	mov	r2, r3
 80017a8:	687b      	ldr	r3, [r7, #4]
 80017aa:	1899      	adds	r1, r3, r2
 80017ac:	7bfb      	ldrb	r3, [r7, #15]
 80017ae:	005b      	lsls	r3, r3, #1
 80017b0:	461a      	mov	r2, r3
 80017b2:	683b      	ldr	r3, [r7, #0]
 80017b4:	441a      	add	r2, r3
 80017b6:	230a      	movs	r3, #10
 80017b8:	9300      	str	r3, [sp, #0]
 80017ba:	2302      	movs	r3, #2
 80017bc:	4814      	ldr	r0, [pc, #80]	; (8001810 <L6470_DaisyChainCommand+0x94>)
 80017be:	f004 fb7e 	bl	8005ebe <HAL_SPI_TransmitReceive>
    
    /* Allow the device to decode the received command */
    L6470_nCS_HIGH();
 80017c2:	4b12      	ldr	r3, [pc, #72]	; (800180c <L6470_DaisyChainCommand+0x90>)
 80017c4:	685b      	ldr	r3, [r3, #4]
 80017c6:	4a11      	ldr	r2, [pc, #68]	; (800180c <L6470_DaisyChainCommand+0x90>)
 80017c8:	8911      	ldrh	r1, [r2, #8]
 80017ca:	2201      	movs	r2, #1
 80017cc:	4618      	mov	r0, r3
 80017ce:	f003 f9b3 	bl	8004b38 <HAL_GPIO_WritePin>
    
    _DELAY(TDISCS);
 80017d2:	4b10      	ldr	r3, [pc, #64]	; (8001814 <L6470_DaisyChainCommand+0x98>)
 80017d4:	2200      	movs	r2, #0
 80017d6:	701a      	strb	r2, [r3, #0]
 80017d8:	e006      	b.n	80017e8 <L6470_DaisyChainCommand+0x6c>
 80017da:	bf00      	nop
 80017dc:	4b0d      	ldr	r3, [pc, #52]	; (8001814 <L6470_DaisyChainCommand+0x98>)
 80017de:	781b      	ldrb	r3, [r3, #0]
 80017e0:	3301      	adds	r3, #1
 80017e2:	b2da      	uxtb	r2, r3
 80017e4:	4b0b      	ldr	r3, [pc, #44]	; (8001814 <L6470_DaisyChainCommand+0x98>)
 80017e6:	701a      	strb	r2, [r3, #0]
 80017e8:	4b0a      	ldr	r3, [pc, #40]	; (8001814 <L6470_DaisyChainCommand+0x98>)
 80017ea:	781b      	ldrb	r3, [r3, #0]
 80017ec:	2b13      	cmp	r3, #19
 80017ee:	d9f4      	bls.n	80017da <L6470_DaisyChainCommand+0x5e>
  for(spibyte=0; spibyte < L6470MAXSPICMDBYTESIZE; spibyte++)
 80017f0:	7bfb      	ldrb	r3, [r7, #15]
 80017f2:	3301      	adds	r3, #1
 80017f4:	73fb      	strb	r3, [r7, #15]
 80017f6:	7bfb      	ldrb	r3, [r7, #15]
 80017f8:	2b03      	cmp	r3, #3
 80017fa:	d9ca      	bls.n	8001792 <L6470_DaisyChainCommand+0x16>
  }
}
 80017fc:	bf00      	nop
 80017fe:	bf00      	nop
 8001800:	3710      	adds	r7, #16
 8001802:	46bd      	mov	sp, r7
 8001804:	bd80      	pop	{r7, pc}
 8001806:	bf00      	nop
 8001808:	20000368 	.word	0x20000368
 800180c:	200003ac 	.word	0x200003ac
 8001810:	20000458 	.word	0x20000458
 8001814:	200003aa 	.word	0x200003aa

08001818 <L6470_ExtractReturnedData>:
  * @param    pL6470_DaisyChainSpiRxStruct  uint8_t-pointer to the matrix that
  *           contains the received data by SPI from the L6470 daisy chain.
  * @param    LengthByte  The number of bytes about the received value.
  */
uint32_t L6470_ExtractReturnedData(uint8_t L6470_Id, uint8_t* pL6470_DaisyChainSpiRxStruct, uint8_t LengthByte)
{
 8001818:	b480      	push	{r7}
 800181a:	b085      	sub	sp, #20
 800181c:	af00      	add	r7, sp, #0
 800181e:	4603      	mov	r3, r0
 8001820:	6039      	str	r1, [r7, #0]
 8001822:	71fb      	strb	r3, [r7, #7]
 8001824:	4613      	mov	r3, r2
 8001826:	71bb      	strb	r3, [r7, #6]
  uint32_t value;
  uint8_t i;
  
  value = 0x000000;
 8001828:	2300      	movs	r3, #0
 800182a:	60fb      	str	r3, [r7, #12]
  for (i=1; i<=(L6470MAXSPICMDBYTESIZE-1); i++)
 800182c:	2301      	movs	r3, #1
 800182e:	72fb      	strb	r3, [r7, #11]
 8001830:	e015      	b.n	800185e <L6470_ExtractReturnedData+0x46>
  {
    value |= (*(pL6470_DaisyChainSpiRxStruct+(i*L6470DAISYCHAINSIZE)+L6470_Id))<<((LengthByte-i)*8);
 8001832:	7afb      	ldrb	r3, [r7, #11]
 8001834:	005b      	lsls	r3, r3, #1
 8001836:	461a      	mov	r2, r3
 8001838:	79fb      	ldrb	r3, [r7, #7]
 800183a:	4413      	add	r3, r2
 800183c:	683a      	ldr	r2, [r7, #0]
 800183e:	4413      	add	r3, r2
 8001840:	781b      	ldrb	r3, [r3, #0]
 8001842:	4619      	mov	r1, r3
 8001844:	79ba      	ldrb	r2, [r7, #6]
 8001846:	7afb      	ldrb	r3, [r7, #11]
 8001848:	1ad3      	subs	r3, r2, r3
 800184a:	00db      	lsls	r3, r3, #3
 800184c:	fa01 f303 	lsl.w	r3, r1, r3
 8001850:	461a      	mov	r2, r3
 8001852:	68fb      	ldr	r3, [r7, #12]
 8001854:	4313      	orrs	r3, r2
 8001856:	60fb      	str	r3, [r7, #12]
  for (i=1; i<=(L6470MAXSPICMDBYTESIZE-1); i++)
 8001858:	7afb      	ldrb	r3, [r7, #11]
 800185a:	3301      	adds	r3, #1
 800185c:	72fb      	strb	r3, [r7, #11]
 800185e:	7afb      	ldrb	r3, [r7, #11]
 8001860:	2b03      	cmp	r3, #3
 8001862:	d9e6      	bls.n	8001832 <L6470_ExtractReturnedData+0x1a>
  }
  
  return value;
 8001864:	68fb      	ldr	r3, [r7, #12]
}
 8001866:	4618      	mov	r0, r3
 8001868:	3714      	adds	r7, #20
 800186a:	46bd      	mov	sp, r7
 800186c:	f85d 7b04 	ldr.w	r7, [sp], #4
 8001870:	4770      	bx	lr
	...

08001874 <L6470_CheckStatusRegisterFlag>:
  *
  * @retval state The flag state.
  */

uint8_t L6470_CheckStatusRegisterFlag(uint8_t L6470_Id, uint8_t L6470_StatusRegisterFlagId)
{
 8001874:	b580      	push	{r7, lr}
 8001876:	b084      	sub	sp, #16
 8001878:	af00      	add	r7, sp, #0
 800187a:	4603      	mov	r3, r0
 800187c:	460a      	mov	r2, r1
 800187e:	71fb      	strb	r3, [r7, #7]
 8001880:	4613      	mov	r3, r2
 8001882:	71bb      	strb	r3, [r7, #6]
  uint8_t state = 0;
 8001884:	2300      	movs	r3, #0
 8001886:	73fb      	strb	r3, [r7, #15]
  
  *((uint16_t*)pL6470_StatusRegister) = L6470_GetParam(L6470_Id, L6470_STATUS_ID);
 8001888:	79fb      	ldrb	r3, [r7, #7]
 800188a:	2118      	movs	r1, #24
 800188c:	4618      	mov	r0, r3
 800188e:	f7ff fb1f 	bl	8000ed0 <L6470_GetParam>
 8001892:	4602      	mov	r2, r0
 8001894:	4b53      	ldr	r3, [pc, #332]	; (80019e4 <L6470_CheckStatusRegisterFlag+0x170>)
 8001896:	681b      	ldr	r3, [r3, #0]
 8001898:	b292      	uxth	r2, r2
 800189a:	801a      	strh	r2, [r3, #0]
  
  switch(L6470_StatusRegisterFlagId)
 800189c:	79bb      	ldrb	r3, [r7, #6]
 800189e:	2b0e      	cmp	r3, #14
 80018a0:	f200 809a 	bhi.w	80019d8 <L6470_CheckStatusRegisterFlag+0x164>
 80018a4:	a201      	add	r2, pc, #4	; (adr r2, 80018ac <L6470_CheckStatusRegisterFlag+0x38>)
 80018a6:	f852 f023 	ldr.w	pc, [r2, r3, lsl #2]
 80018aa:	bf00      	nop
 80018ac:	080018e9 	.word	0x080018e9
 80018b0:	080018f9 	.word	0x080018f9
 80018b4:	08001909 	.word	0x08001909
 80018b8:	08001919 	.word	0x08001919
 80018bc:	08001929 	.word	0x08001929
 80018c0:	08001939 	.word	0x08001939
 80018c4:	08001949 	.word	0x08001949
 80018c8:	08001959 	.word	0x08001959
 80018cc:	08001969 	.word	0x08001969
 80018d0:	08001979 	.word	0x08001979
 80018d4:	08001989 	.word	0x08001989
 80018d8:	08001999 	.word	0x08001999
 80018dc:	080019a9 	.word	0x080019a9
 80018e0:	080019b9 	.word	0x080019b9
 80018e4:	080019c9 	.word	0x080019c9
  {
  case HiZ_ID:
    state = pL6470_StatusRegister->HiZ;
 80018e8:	4b3e      	ldr	r3, [pc, #248]	; (80019e4 <L6470_CheckStatusRegisterFlag+0x170>)
 80018ea:	681b      	ldr	r3, [r3, #0]
 80018ec:	781b      	ldrb	r3, [r3, #0]
 80018ee:	f3c3 0300 	ubfx	r3, r3, #0, #1
 80018f2:	b2db      	uxtb	r3, r3
 80018f4:	73fb      	strb	r3, [r7, #15]
    break;
 80018f6:	e06f      	b.n	80019d8 <L6470_CheckStatusRegisterFlag+0x164>
  case BUSY_ID:
    state = pL6470_StatusRegister->BUSY;
 80018f8:	4b3a      	ldr	r3, [pc, #232]	; (80019e4 <L6470_CheckStatusRegisterFlag+0x170>)
 80018fa:	681b      	ldr	r3, [r3, #0]
 80018fc:	781b      	ldrb	r3, [r3, #0]
 80018fe:	f3c3 0340 	ubfx	r3, r3, #1, #1
 8001902:	b2db      	uxtb	r3, r3
 8001904:	73fb      	strb	r3, [r7, #15]
    break;
 8001906:	e067      	b.n	80019d8 <L6470_CheckStatusRegisterFlag+0x164>
  case SW_F_ID:
    state = pL6470_StatusRegister->SW_F;
 8001908:	4b36      	ldr	r3, [pc, #216]	; (80019e4 <L6470_CheckStatusRegisterFlag+0x170>)
 800190a:	681b      	ldr	r3, [r3, #0]
 800190c:	781b      	ldrb	r3, [r3, #0]
 800190e:	f3c3 0380 	ubfx	r3, r3, #2, #1
 8001912:	b2db      	uxtb	r3, r3
 8001914:	73fb      	strb	r3, [r7, #15]
    break;
 8001916:	e05f      	b.n	80019d8 <L6470_CheckStatusRegisterFlag+0x164>
  case SW_EVN_ID:
    state = pL6470_StatusRegister->SW_EVN;
 8001918:	4b32      	ldr	r3, [pc, #200]	; (80019e4 <L6470_CheckStatusRegisterFlag+0x170>)
 800191a:	681b      	ldr	r3, [r3, #0]
 800191c:	781b      	ldrb	r3, [r3, #0]
 800191e:	f3c3 03c0 	ubfx	r3, r3, #3, #1
 8001922:	b2db      	uxtb	r3, r3
 8001924:	73fb      	strb	r3, [r7, #15]
    break;
 8001926:	e057      	b.n	80019d8 <L6470_CheckStatusRegisterFlag+0x164>
  case DIR_ID:
    state = pL6470_StatusRegister->DIR;
 8001928:	4b2e      	ldr	r3, [pc, #184]	; (80019e4 <L6470_CheckStatusRegisterFlag+0x170>)
 800192a:	681b      	ldr	r3, [r3, #0]
 800192c:	781b      	ldrb	r3, [r3, #0]
 800192e:	f3c3 1300 	ubfx	r3, r3, #4, #1
 8001932:	b2db      	uxtb	r3, r3
 8001934:	73fb      	strb	r3, [r7, #15]
    break;
 8001936:	e04f      	b.n	80019d8 <L6470_CheckStatusRegisterFlag+0x164>
  case MOT_STATUS_ID:
    state = pL6470_StatusRegister->MOT_STATUS;
 8001938:	4b2a      	ldr	r3, [pc, #168]	; (80019e4 <L6470_CheckStatusRegisterFlag+0x170>)
 800193a:	681b      	ldr	r3, [r3, #0]
 800193c:	781b      	ldrb	r3, [r3, #0]
 800193e:	f3c3 1341 	ubfx	r3, r3, #5, #2
 8001942:	b2db      	uxtb	r3, r3
 8001944:	73fb      	strb	r3, [r7, #15]
    break;
 8001946:	e047      	b.n	80019d8 <L6470_CheckStatusRegisterFlag+0x164>
  case NOTPERF_CMD_ID:
    state = pL6470_StatusRegister->NOTPERF_CMD;
 8001948:	4b26      	ldr	r3, [pc, #152]	; (80019e4 <L6470_CheckStatusRegisterFlag+0x170>)
 800194a:	681b      	ldr	r3, [r3, #0]
 800194c:	781b      	ldrb	r3, [r3, #0]
 800194e:	f3c3 13c0 	ubfx	r3, r3, #7, #1
 8001952:	b2db      	uxtb	r3, r3
 8001954:	73fb      	strb	r3, [r7, #15]
    break;
 8001956:	e03f      	b.n	80019d8 <L6470_CheckStatusRegisterFlag+0x164>
  case WRONG_CMD_ID:
    state = pL6470_StatusRegister->WRONG_CMD;
 8001958:	4b22      	ldr	r3, [pc, #136]	; (80019e4 <L6470_CheckStatusRegisterFlag+0x170>)
 800195a:	681b      	ldr	r3, [r3, #0]
 800195c:	785b      	ldrb	r3, [r3, #1]
 800195e:	f3c3 0300 	ubfx	r3, r3, #0, #1
 8001962:	b2db      	uxtb	r3, r3
 8001964:	73fb      	strb	r3, [r7, #15]
    break;
 8001966:	e037      	b.n	80019d8 <L6470_CheckStatusRegisterFlag+0x164>
  case UVLO_ID:
    state = pL6470_StatusRegister->UVLO;
 8001968:	4b1e      	ldr	r3, [pc, #120]	; (80019e4 <L6470_CheckStatusRegisterFlag+0x170>)
 800196a:	681b      	ldr	r3, [r3, #0]
 800196c:	785b      	ldrb	r3, [r3, #1]
 800196e:	f3c3 0340 	ubfx	r3, r3, #1, #1
 8001972:	b2db      	uxtb	r3, r3
 8001974:	73fb      	strb	r3, [r7, #15]
    break;
 8001976:	e02f      	b.n	80019d8 <L6470_CheckStatusRegisterFlag+0x164>
  case TH_WRN_ID:
    state = pL6470_StatusRegister->TH_WRN;
 8001978:	4b1a      	ldr	r3, [pc, #104]	; (80019e4 <L6470_CheckStatusRegisterFlag+0x170>)
 800197a:	681b      	ldr	r3, [r3, #0]
 800197c:	785b      	ldrb	r3, [r3, #1]
 800197e:	f3c3 0380 	ubfx	r3, r3, #2, #1
 8001982:	b2db      	uxtb	r3, r3
 8001984:	73fb      	strb	r3, [r7, #15]
    break;
 8001986:	e027      	b.n	80019d8 <L6470_CheckStatusRegisterFlag+0x164>
  case TH_SD_ID:
    state = pL6470_StatusRegister->TH_SD;
 8001988:	4b16      	ldr	r3, [pc, #88]	; (80019e4 <L6470_CheckStatusRegisterFlag+0x170>)
 800198a:	681b      	ldr	r3, [r3, #0]
 800198c:	785b      	ldrb	r3, [r3, #1]
 800198e:	f3c3 03c0 	ubfx	r3, r3, #3, #1
 8001992:	b2db      	uxtb	r3, r3
 8001994:	73fb      	strb	r3, [r7, #15]
    break;
 8001996:	e01f      	b.n	80019d8 <L6470_CheckStatusRegisterFlag+0x164>
  case OCD_ID:
    state = pL6470_StatusRegister->OCD;
 8001998:	4b12      	ldr	r3, [pc, #72]	; (80019e4 <L6470_CheckStatusRegisterFlag+0x170>)
 800199a:	681b      	ldr	r3, [r3, #0]
 800199c:	785b      	ldrb	r3, [r3, #1]
 800199e:	f3c3 1300 	ubfx	r3, r3, #4, #1
 80019a2:	b2db      	uxtb	r3, r3
 80019a4:	73fb      	strb	r3, [r7, #15]
    break;
 80019a6:	e017      	b.n	80019d8 <L6470_CheckStatusRegisterFlag+0x164>
  case STEP_LOSS_A_ID:
    state = pL6470_StatusRegister->STEP_LOSS_A;
 80019a8:	4b0e      	ldr	r3, [pc, #56]	; (80019e4 <L6470_CheckStatusRegisterFlag+0x170>)
 80019aa:	681b      	ldr	r3, [r3, #0]
 80019ac:	785b      	ldrb	r3, [r3, #1]
 80019ae:	f3c3 1340 	ubfx	r3, r3, #5, #1
 80019b2:	b2db      	uxtb	r3, r3
 80019b4:	73fb      	strb	r3, [r7, #15]
    break;
 80019b6:	e00f      	b.n	80019d8 <L6470_CheckStatusRegisterFlag+0x164>
  case STEP_LOSS_B_ID:
    state = pL6470_StatusRegister->STEP_LOSS_B;
 80019b8:	4b0a      	ldr	r3, [pc, #40]	; (80019e4 <L6470_CheckStatusRegisterFlag+0x170>)
 80019ba:	681b      	ldr	r3, [r3, #0]
 80019bc:	785b      	ldrb	r3, [r3, #1]
 80019be:	f3c3 1380 	ubfx	r3, r3, #6, #1
 80019c2:	b2db      	uxtb	r3, r3
 80019c4:	73fb      	strb	r3, [r7, #15]
    break;
 80019c6:	e007      	b.n	80019d8 <L6470_CheckStatusRegisterFlag+0x164>
  case SCK_MOD_ID:
    state = pL6470_StatusRegister->SCK_MOD;
 80019c8:	4b06      	ldr	r3, [pc, #24]	; (80019e4 <L6470_CheckStatusRegisterFlag+0x170>)
 80019ca:	681b      	ldr	r3, [r3, #0]
 80019cc:	785b      	ldrb	r3, [r3, #1]
 80019ce:	f3c3 13c0 	ubfx	r3, r3, #7, #1
 80019d2:	b2db      	uxtb	r3, r3
 80019d4:	73fb      	strb	r3, [r7, #15]
    break;
 80019d6:	bf00      	nop
  }
  
  return state;
 80019d8:	7bfb      	ldrb	r3, [r7, #15]
}
 80019da:	4618      	mov	r0, r3
 80019dc:	3710      	adds	r7, #16
 80019de:	46bd      	mov	sp, r7
 80019e0:	bd80      	pop	{r7, pc}
 80019e2:	bf00      	nop
 80019e4:	20000094 	.word	0x20000094

080019e8 <L6470_GetRegisterName>:
/**
  * @brief  Return the mnemonic name for the L6470 register.
  * @param  id  The identifier of the L6470 register.
  */
uint8_t *L6470_GetRegisterName(uint8_t id)
{
 80019e8:	b480      	push	{r7}
 80019ea:	b083      	sub	sp, #12
 80019ec:	af00      	add	r7, sp, #0
 80019ee:	4603      	mov	r3, r0
 80019f0:	71fb      	strb	r3, [r7, #7]
  if (id < L6470REGIDSIZE)
 80019f2:	79fb      	ldrb	r3, [r7, #7]
 80019f4:	2b18      	cmp	r3, #24
 80019f6:	d808      	bhi.n	8001a0a <L6470_GetRegisterName+0x22>
  {
    return (uint8_t*)L6470_Register[id].Name;
 80019f8:	79fa      	ldrb	r2, [r7, #7]
 80019fa:	4613      	mov	r3, r2
 80019fc:	009b      	lsls	r3, r3, #2
 80019fe:	4413      	add	r3, r2
 8001a00:	009b      	lsls	r3, r3, #2
 8001a02:	4a05      	ldr	r2, [pc, #20]	; (8001a18 <L6470_GetRegisterName+0x30>)
 8001a04:	4413      	add	r3, r2
 8001a06:	3301      	adds	r3, #1
 8001a08:	e000      	b.n	8001a0c <L6470_GetRegisterName+0x24>
  }
  else
  {
    return (uint8_t*)"";
 8001a0a:	4b04      	ldr	r3, [pc, #16]	; (8001a1c <L6470_GetRegisterName+0x34>)
  }
}
 8001a0c:	4618      	mov	r0, r3
 8001a0e:	370c      	adds	r7, #12
 8001a10:	46bd      	mov	sp, r7
 8001a12:	f85d 7b04 	ldr.w	r7, [sp], #4
 8001a16:	4770      	bx	lr
 8001a18:	0800735c 	.word	0x0800735c
 8001a1c:	08006f40 	.word	0x08006f40

08001a20 <L6470_Config>:
  * @brief  Configures the L6470 registers.
  * @param  StepperMotorDriverHandle_t* The pointer to the stepper motor driver handle structure.
  * @param  MotorParameterData_t* The pointer to the related parameter data structure.
  */
void L6470_Config(StepperMotorDriverHandle_t *StepperMotorDriverHandle, MotorParameterData_t *MotorParameterData)
{
 8001a20:	b580      	push	{r7, lr}
 8001a22:	b084      	sub	sp, #16
 8001a24:	af00      	add	r7, sp, #0
 8001a26:	60f8      	str	r0, [r7, #12]
 8001a28:	60b9      	str	r1, [r7, #8]
  /* Prepare the 'Register' field of StepperMotorDriverHandle */
  StepperMotorDriverHandle->Register.ACC = Step_s2_2_Acc(MotorParameterData->acc);
 8001a2a:	68bb      	ldr	r3, [r7, #8]
 8001a2c:	edd3 7a05 	vldr	s15, [r3, #20]
 8001a30:	eeb0 0a67 	vmov.f32	s0, s15
 8001a34:	f7ff f82c 	bl	8000a90 <Step_s2_2_Acc>
 8001a38:	4603      	mov	r3, r0
 8001a3a:	461a      	mov	r2, r3
 8001a3c:	68fb      	ldr	r3, [r7, #12]
 8001a3e:	839a      	strh	r2, [r3, #28]
  StepperMotorDriverHandle->Register.DEC = Step_s2_2_Dec(MotorParameterData->dec);
 8001a40:	68bb      	ldr	r3, [r7, #8]
 8001a42:	edd3 7a06 	vldr	s15, [r3, #24]
 8001a46:	eeb0 0a67 	vmov.f32	s0, s15
 8001a4a:	f7ff f847 	bl	8000adc <Step_s2_2_Dec>
 8001a4e:	4603      	mov	r3, r0
 8001a50:	461a      	mov	r2, r3
 8001a52:	68fb      	ldr	r3, [r7, #12]
 8001a54:	83da      	strh	r2, [r3, #30]
  StepperMotorDriverHandle->Register.MAX_SPEED = Step_s_2_MaxSpeed(MotorParameterData->maxspeed);
 8001a56:	68bb      	ldr	r3, [r7, #8]
 8001a58:	edd3 7a07 	vldr	s15, [r3, #28]
 8001a5c:	eeb0 0a67 	vmov.f32	s0, s15
 8001a60:	f7ff f862 	bl	8000b28 <Step_s_2_MaxSpeed>
 8001a64:	4603      	mov	r3, r0
 8001a66:	461a      	mov	r2, r3
 8001a68:	68fb      	ldr	r3, [r7, #12]
 8001a6a:	841a      	strh	r2, [r3, #32]
  StepperMotorDriverHandle->Register.MIN_SPEED = Step_s_2_MinSpeed(MotorParameterData->minspeed);
 8001a6c:	68bb      	ldr	r3, [r7, #8]
 8001a6e:	edd3 7a08 	vldr	s15, [r3, #32]
 8001a72:	eeb0 0a67 	vmov.f32	s0, s15
 8001a76:	f7ff f87d 	bl	8000b74 <Step_s_2_MinSpeed>
 8001a7a:	4603      	mov	r3, r0
 8001a7c:	461a      	mov	r2, r3
 8001a7e:	68fb      	ldr	r3, [r7, #12]
 8001a80:	845a      	strh	r2, [r3, #34]	; 0x22
  StepperMotorDriverHandle->Register.FS_SPD = Step_s_2_FsSpd(MotorParameterData->fsspd);
 8001a82:	68bb      	ldr	r3, [r7, #8]
 8001a84:	edd3 7a09 	vldr	s15, [r3, #36]	; 0x24
 8001a88:	eeb0 0a67 	vmov.f32	s0, s15
 8001a8c:	f7ff f898 	bl	8000bc0 <Step_s_2_FsSpd>
 8001a90:	4603      	mov	r3, r0
 8001a92:	461a      	mov	r2, r3
 8001a94:	68fb      	ldr	r3, [r7, #12]
 8001a96:	849a      	strh	r2, [r3, #36]	; 0x24
  StepperMotorDriverHandle->Register.KVAL_HOLD = (uint8_t)((float)((float)(MotorParameterData->kvalhold * 256) / (MotorParameterData->motorvoltage)));
 8001a98:	68bb      	ldr	r3, [r7, #8]
 8001a9a:	edd3 7a0a 	vldr	s15, [r3, #40]	; 0x28
 8001a9e:	ed9f 7aab 	vldr	s14, [pc, #684]	; 8001d4c <L6470_Config+0x32c>
 8001aa2:	ee67 6a87 	vmul.f32	s13, s15, s14
 8001aa6:	68bb      	ldr	r3, [r7, #8]
 8001aa8:	ed93 7a00 	vldr	s14, [r3]
 8001aac:	eec6 7a87 	vdiv.f32	s15, s13, s14
 8001ab0:	eefc 7ae7 	vcvt.u32.f32	s15, s15
 8001ab4:	edc7 7a01 	vstr	s15, [r7, #4]
 8001ab8:	793b      	ldrb	r3, [r7, #4]
 8001aba:	b2da      	uxtb	r2, r3
 8001abc:	68fb      	ldr	r3, [r7, #12]
 8001abe:	f883 2026 	strb.w	r2, [r3, #38]	; 0x26
  StepperMotorDriverHandle->Register.KVAL_RUN = (uint8_t)((float)((float)(MotorParameterData->kvalrun * 256) / (MotorParameterData->motorvoltage)));
 8001ac2:	68bb      	ldr	r3, [r7, #8]
 8001ac4:	edd3 7a0b 	vldr	s15, [r3, #44]	; 0x2c
 8001ac8:	ed9f 7aa0 	vldr	s14, [pc, #640]	; 8001d4c <L6470_Config+0x32c>
 8001acc:	ee67 6a87 	vmul.f32	s13, s15, s14
 8001ad0:	68bb      	ldr	r3, [r7, #8]
 8001ad2:	ed93 7a00 	vldr	s14, [r3]
 8001ad6:	eec6 7a87 	vdiv.f32	s15, s13, s14
 8001ada:	eefc 7ae7 	vcvt.u32.f32	s15, s15
 8001ade:	edc7 7a01 	vstr	s15, [r7, #4]
 8001ae2:	793b      	ldrb	r3, [r7, #4]
 8001ae4:	b2da      	uxtb	r2, r3
 8001ae6:	68fb      	ldr	r3, [r7, #12]
 8001ae8:	f883 2027 	strb.w	r2, [r3, #39]	; 0x27
  StepperMotorDriverHandle->Register.KVAL_ACC = (uint8_t)((float)((float)(MotorParameterData->kvalacc * 256) / (MotorParameterData->motorvoltage)));
 8001aec:	68bb      	ldr	r3, [r7, #8]
 8001aee:	edd3 7a0c 	vldr	s15, [r3, #48]	; 0x30
 8001af2:	ed9f 7a96 	vldr	s14, [pc, #600]	; 8001d4c <L6470_Config+0x32c>
 8001af6:	ee67 6a87 	vmul.f32	s13, s15, s14
 8001afa:	68bb      	ldr	r3, [r7, #8]
 8001afc:	ed93 7a00 	vldr	s14, [r3]
 8001b00:	eec6 7a87 	vdiv.f32	s15, s13, s14
 8001b04:	eefc 7ae7 	vcvt.u32.f32	s15, s15
 8001b08:	edc7 7a01 	vstr	s15, [r7, #4]
 8001b0c:	793b      	ldrb	r3, [r7, #4]
 8001b0e:	b2da      	uxtb	r2, r3
 8001b10:	68fb      	ldr	r3, [r7, #12]
 8001b12:	f883 2028 	strb.w	r2, [r3, #40]	; 0x28
  StepperMotorDriverHandle->Register.KVAL_DEC = (uint8_t)((float)((float)(MotorParameterData->kvaldec * 256) / (MotorParameterData->motorvoltage)));
 8001b16:	68bb      	ldr	r3, [r7, #8]
 8001b18:	edd3 7a0d 	vldr	s15, [r3, #52]	; 0x34
 8001b1c:	ed9f 7a8b 	vldr	s14, [pc, #556]	; 8001d4c <L6470_Config+0x32c>
 8001b20:	ee67 6a87 	vmul.f32	s13, s15, s14
 8001b24:	68bb      	ldr	r3, [r7, #8]
 8001b26:	ed93 7a00 	vldr	s14, [r3]
 8001b2a:	eec6 7a87 	vdiv.f32	s15, s13, s14
 8001b2e:	eefc 7ae7 	vcvt.u32.f32	s15, s15
 8001b32:	edc7 7a01 	vstr	s15, [r7, #4]
 8001b36:	793b      	ldrb	r3, [r7, #4]
 8001b38:	b2da      	uxtb	r2, r3
 8001b3a:	68fb      	ldr	r3, [r7, #12]
 8001b3c:	f883 2029 	strb.w	r2, [r3, #41]	; 0x29
  StepperMotorDriverHandle->Register.INT_SPEED = Step_s_2_IntSpeed(MotorParameterData->intspeed);
 8001b40:	68bb      	ldr	r3, [r7, #8]
 8001b42:	edd3 7a0e 	vldr	s15, [r3, #56]	; 0x38
 8001b46:	eeb0 0a67 	vmov.f32	s0, s15
 8001b4a:	f7ff f863 	bl	8000c14 <Step_s_2_IntSpeed>
 8001b4e:	4603      	mov	r3, r0
 8001b50:	461a      	mov	r2, r3
 8001b52:	68fb      	ldr	r3, [r7, #12]
 8001b54:	855a      	strh	r2, [r3, #42]	; 0x2a
  StepperMotorDriverHandle->Register.ST_SLP = s_Step_2_StSlp(MotorParameterData->stslp);
 8001b56:	68bb      	ldr	r3, [r7, #8]
 8001b58:	edd3 7a0f 	vldr	s15, [r3, #60]	; 0x3c
 8001b5c:	eeb0 0a67 	vmov.f32	s0, s15
 8001b60:	f7ff f87e 	bl	8000c60 <s_Step_2_StSlp>
 8001b64:	4603      	mov	r3, r0
 8001b66:	461a      	mov	r2, r3
 8001b68:	68fb      	ldr	r3, [r7, #12]
 8001b6a:	f883 202c 	strb.w	r2, [r3, #44]	; 0x2c
  StepperMotorDriverHandle->Register.FN_SLP_ACC = s_Step_2_FnSlpAcc(MotorParameterData->fnslpacc);
 8001b6e:	68bb      	ldr	r3, [r7, #8]
 8001b70:	edd3 7a10 	vldr	s15, [r3, #64]	; 0x40
 8001b74:	eeb0 0a67 	vmov.f32	s0, s15
 8001b78:	f7ff f898 	bl	8000cac <s_Step_2_FnSlpAcc>
 8001b7c:	4603      	mov	r3, r0
 8001b7e:	461a      	mov	r2, r3
 8001b80:	68fb      	ldr	r3, [r7, #12]
 8001b82:	f883 202d 	strb.w	r2, [r3, #45]	; 0x2d
  StepperMotorDriverHandle->Register.FN_SLP_DEC = s_Step_2_FnSlpDec(MotorParameterData->fnslpdec);
 8001b86:	68bb      	ldr	r3, [r7, #8]
 8001b88:	edd3 7a11 	vldr	s15, [r3, #68]	; 0x44
 8001b8c:	eeb0 0a67 	vmov.f32	s0, s15
 8001b90:	f7ff f8b2 	bl	8000cf8 <s_Step_2_FnSlpDec>
 8001b94:	4603      	mov	r3, r0
 8001b96:	461a      	mov	r2, r3
 8001b98:	68fb      	ldr	r3, [r7, #12]
 8001b9a:	f883 202e 	strb.w	r2, [r3, #46]	; 0x2e
  StepperMotorDriverHandle->Register.K_THERM = MotorParameterData->kterm;
 8001b9e:	68bb      	ldr	r3, [r7, #8]
 8001ba0:	f893 2048 	ldrb.w	r2, [r3, #72]	; 0x48
 8001ba4:	68fb      	ldr	r3, [r7, #12]
 8001ba6:	f883 202f 	strb.w	r2, [r3, #47]	; 0x2f
  StepperMotorDriverHandle->Register.OCD_TH = mA_2_OcdTh(MotorParameterData->ocdth);
 8001baa:	68bb      	ldr	r3, [r7, #8]
 8001bac:	edd3 7a13 	vldr	s15, [r3, #76]	; 0x4c
 8001bb0:	eeb0 0a67 	vmov.f32	s0, s15
 8001bb4:	f7ff f8c6 	bl	8000d44 <mA_2_OcdTh>
 8001bb8:	4603      	mov	r3, r0
 8001bba:	461a      	mov	r2, r3
 8001bbc:	68fb      	ldr	r3, [r7, #12]
 8001bbe:	f883 2031 	strb.w	r2, [r3, #49]	; 0x31
  StepperMotorDriverHandle->Register.STALL_TH = mA_2_StallTh(MotorParameterData->stallth);
 8001bc2:	68bb      	ldr	r3, [r7, #8]
 8001bc4:	edd3 7a14 	vldr	s15, [r3, #80]	; 0x50
 8001bc8:	eeb0 0a67 	vmov.f32	s0, s15
 8001bcc:	f7ff f90a 	bl	8000de4 <mA_2_StallTh>
 8001bd0:	4603      	mov	r3, r0
 8001bd2:	461a      	mov	r2, r3
 8001bd4:	68fb      	ldr	r3, [r7, #12]
 8001bd6:	f883 2032 	strb.w	r2, [r3, #50]	; 0x32
  StepperMotorDriverHandle->Register.STEP_MODE = MotorParameterData->step_sel;
 8001bda:	68bb      	ldr	r3, [r7, #8]
 8001bdc:	f893 2054 	ldrb.w	r2, [r3, #84]	; 0x54
 8001be0:	68fb      	ldr	r3, [r7, #12]
 8001be2:	f883 2033 	strb.w	r2, [r3, #51]	; 0x33
  StepperMotorDriverHandle->Register.ALARM_EN = MotorParameterData->alarmen;
 8001be6:	68bb      	ldr	r3, [r7, #8]
 8001be8:	f893 2055 	ldrb.w	r2, [r3, #85]	; 0x55
 8001bec:	68fb      	ldr	r3, [r7, #12]
 8001bee:	f883 2034 	strb.w	r2, [r3, #52]	; 0x34
  StepperMotorDriverHandle->Register.CONFIG = MotorParameterData->config;
 8001bf2:	68bb      	ldr	r3, [r7, #8]
 8001bf4:	f8b3 2056 	ldrh.w	r2, [r3, #86]	; 0x56
 8001bf8:	68fb      	ldr	r3, [r7, #12]
 8001bfa:	86da      	strh	r2, [r3, #54]	; 0x36
  
  /* Write the L6470 registers with the prepared data */
  StepperMotorDriverHandle->Command->SetParam(StepperMotorDriverHandle->DaisyChainPosition, L6470_ACC_ID, StepperMotorDriverHandle->Register.ACC);
 8001bfc:	68fb      	ldr	r3, [r7, #12]
 8001bfe:	689b      	ldr	r3, [r3, #8]
 8001c00:	681b      	ldr	r3, [r3, #0]
 8001c02:	68fa      	ldr	r2, [r7, #12]
 8001c04:	7810      	ldrb	r0, [r2, #0]
 8001c06:	68fa      	ldr	r2, [r7, #12]
 8001c08:	8b92      	ldrh	r2, [r2, #28]
 8001c0a:	2104      	movs	r1, #4
 8001c0c:	4798      	blx	r3
  StepperMotorDriverHandle->Command->SetParam(StepperMotorDriverHandle->DaisyChainPosition, L6470_DEC_ID, StepperMotorDriverHandle->Register.DEC);
 8001c0e:	68fb      	ldr	r3, [r7, #12]
 8001c10:	689b      	ldr	r3, [r3, #8]
 8001c12:	681b      	ldr	r3, [r3, #0]
 8001c14:	68fa      	ldr	r2, [r7, #12]
 8001c16:	7810      	ldrb	r0, [r2, #0]
 8001c18:	68fa      	ldr	r2, [r7, #12]
 8001c1a:	8bd2      	ldrh	r2, [r2, #30]
 8001c1c:	2105      	movs	r1, #5
 8001c1e:	4798      	blx	r3
  StepperMotorDriverHandle->Command->SetParam(StepperMotorDriverHandle->DaisyChainPosition, L6470_MAX_SPEED_ID, StepperMotorDriverHandle->Register.MAX_SPEED);
 8001c20:	68fb      	ldr	r3, [r7, #12]
 8001c22:	689b      	ldr	r3, [r3, #8]
 8001c24:	681b      	ldr	r3, [r3, #0]
 8001c26:	68fa      	ldr	r2, [r7, #12]
 8001c28:	7810      	ldrb	r0, [r2, #0]
 8001c2a:	68fa      	ldr	r2, [r7, #12]
 8001c2c:	8c12      	ldrh	r2, [r2, #32]
 8001c2e:	2106      	movs	r1, #6
 8001c30:	4798      	blx	r3
  StepperMotorDriverHandle->Command->SetParam(StepperMotorDriverHandle->DaisyChainPosition, L6470_MIN_SPEED_ID, StepperMotorDriverHandle->Register.MIN_SPEED);
 8001c32:	68fb      	ldr	r3, [r7, #12]
 8001c34:	689b      	ldr	r3, [r3, #8]
 8001c36:	681b      	ldr	r3, [r3, #0]
 8001c38:	68fa      	ldr	r2, [r7, #12]
 8001c3a:	7810      	ldrb	r0, [r2, #0]
 8001c3c:	68fa      	ldr	r2, [r7, #12]
 8001c3e:	8c52      	ldrh	r2, [r2, #34]	; 0x22
 8001c40:	2107      	movs	r1, #7
 8001c42:	4798      	blx	r3
  StepperMotorDriverHandle->Command->SetParam(StepperMotorDriverHandle->DaisyChainPosition, L6470_FS_SPD_ID, StepperMotorDriverHandle->Register.FS_SPD);
 8001c44:	68fb      	ldr	r3, [r7, #12]
 8001c46:	689b      	ldr	r3, [r3, #8]
 8001c48:	681b      	ldr	r3, [r3, #0]
 8001c4a:	68fa      	ldr	r2, [r7, #12]
 8001c4c:	7810      	ldrb	r0, [r2, #0]
 8001c4e:	68fa      	ldr	r2, [r7, #12]
 8001c50:	8c92      	ldrh	r2, [r2, #36]	; 0x24
 8001c52:	2108      	movs	r1, #8
 8001c54:	4798      	blx	r3
  StepperMotorDriverHandle->Command->SetParam(StepperMotorDriverHandle->DaisyChainPosition, L6470_KVAL_HOLD_ID, StepperMotorDriverHandle->Register.KVAL_HOLD);
 8001c56:	68fb      	ldr	r3, [r7, #12]
 8001c58:	689b      	ldr	r3, [r3, #8]
 8001c5a:	681b      	ldr	r3, [r3, #0]
 8001c5c:	68fa      	ldr	r2, [r7, #12]
 8001c5e:	7810      	ldrb	r0, [r2, #0]
 8001c60:	68fa      	ldr	r2, [r7, #12]
 8001c62:	f892 2026 	ldrb.w	r2, [r2, #38]	; 0x26
 8001c66:	2109      	movs	r1, #9
 8001c68:	4798      	blx	r3
  StepperMotorDriverHandle->Command->SetParam(StepperMotorDriverHandle->DaisyChainPosition, L6470_KVAL_RUN_ID, StepperMotorDriverHandle->Register.KVAL_RUN);
 8001c6a:	68fb      	ldr	r3, [r7, #12]
 8001c6c:	689b      	ldr	r3, [r3, #8]
 8001c6e:	681b      	ldr	r3, [r3, #0]
 8001c70:	68fa      	ldr	r2, [r7, #12]
 8001c72:	7810      	ldrb	r0, [r2, #0]
 8001c74:	68fa      	ldr	r2, [r7, #12]
 8001c76:	f892 2027 	ldrb.w	r2, [r2, #39]	; 0x27
 8001c7a:	210a      	movs	r1, #10
 8001c7c:	4798      	blx	r3
  StepperMotorDriverHandle->Command->SetParam(StepperMotorDriverHandle->DaisyChainPosition, L6470_KVAL_ACC_ID, StepperMotorDriverHandle->Register.KVAL_ACC);
 8001c7e:	68fb      	ldr	r3, [r7, #12]
 8001c80:	689b      	ldr	r3, [r3, #8]
 8001c82:	681b      	ldr	r3, [r3, #0]
 8001c84:	68fa      	ldr	r2, [r7, #12]
 8001c86:	7810      	ldrb	r0, [r2, #0]
 8001c88:	68fa      	ldr	r2, [r7, #12]
 8001c8a:	f892 2028 	ldrb.w	r2, [r2, #40]	; 0x28
 8001c8e:	210b      	movs	r1, #11
 8001c90:	4798      	blx	r3
  StepperMotorDriverHandle->Command->SetParam(StepperMotorDriverHandle->DaisyChainPosition, L6470_KVAL_DEC_ID, StepperMotorDriverHandle->Register.KVAL_DEC);
 8001c92:	68fb      	ldr	r3, [r7, #12]
 8001c94:	689b      	ldr	r3, [r3, #8]
 8001c96:	681b      	ldr	r3, [r3, #0]
 8001c98:	68fa      	ldr	r2, [r7, #12]
 8001c9a:	7810      	ldrb	r0, [r2, #0]
 8001c9c:	68fa      	ldr	r2, [r7, #12]
 8001c9e:	f892 2029 	ldrb.w	r2, [r2, #41]	; 0x29
 8001ca2:	210c      	movs	r1, #12
 8001ca4:	4798      	blx	r3
  StepperMotorDriverHandle->Command->SetParam(StepperMotorDriverHandle->DaisyChainPosition, L6470_INT_SPEED_ID, StepperMotorDriverHandle->Register.INT_SPEED);
 8001ca6:	68fb      	ldr	r3, [r7, #12]
 8001ca8:	689b      	ldr	r3, [r3, #8]
 8001caa:	681b      	ldr	r3, [r3, #0]
 8001cac:	68fa      	ldr	r2, [r7, #12]
 8001cae:	7810      	ldrb	r0, [r2, #0]
 8001cb0:	68fa      	ldr	r2, [r7, #12]
 8001cb2:	8d52      	ldrh	r2, [r2, #42]	; 0x2a
 8001cb4:	210d      	movs	r1, #13
 8001cb6:	4798      	blx	r3
  StepperMotorDriverHandle->Command->SetParam(StepperMotorDriverHandle->DaisyChainPosition, L6470_ST_SLP_ID, StepperMotorDriverHandle->Register.ST_SLP);
 8001cb8:	68fb      	ldr	r3, [r7, #12]
 8001cba:	689b      	ldr	r3, [r3, #8]
 8001cbc:	681b      	ldr	r3, [r3, #0]
 8001cbe:	68fa      	ldr	r2, [r7, #12]
 8001cc0:	7810      	ldrb	r0, [r2, #0]
 8001cc2:	68fa      	ldr	r2, [r7, #12]
 8001cc4:	f892 202c 	ldrb.w	r2, [r2, #44]	; 0x2c
 8001cc8:	210e      	movs	r1, #14
 8001cca:	4798      	blx	r3
  StepperMotorDriverHandle->Command->SetParam(StepperMotorDriverHandle->DaisyChainPosition, L6470_FN_SLP_ACC_ID, StepperMotorDriverHandle->Register.FN_SLP_ACC);
 8001ccc:	68fb      	ldr	r3, [r7, #12]
 8001cce:	689b      	ldr	r3, [r3, #8]
 8001cd0:	681b      	ldr	r3, [r3, #0]
 8001cd2:	68fa      	ldr	r2, [r7, #12]
 8001cd4:	7810      	ldrb	r0, [r2, #0]
 8001cd6:	68fa      	ldr	r2, [r7, #12]
 8001cd8:	f892 202d 	ldrb.w	r2, [r2, #45]	; 0x2d
 8001cdc:	210f      	movs	r1, #15
 8001cde:	4798      	blx	r3
  StepperMotorDriverHandle->Command->SetParam(StepperMotorDriverHandle->DaisyChainPosition, L6470_FN_SLP_DEC_ID, StepperMotorDriverHandle->Register.FN_SLP_DEC);
 8001ce0:	68fb      	ldr	r3, [r7, #12]
 8001ce2:	689b      	ldr	r3, [r3, #8]
 8001ce4:	681b      	ldr	r3, [r3, #0]
 8001ce6:	68fa      	ldr	r2, [r7, #12]
 8001ce8:	7810      	ldrb	r0, [r2, #0]
 8001cea:	68fa      	ldr	r2, [r7, #12]
 8001cec:	f892 202e 	ldrb.w	r2, [r2, #46]	; 0x2e
 8001cf0:	2110      	movs	r1, #16
 8001cf2:	4798      	blx	r3
  StepperMotorDriverHandle->Command->SetParam(StepperMotorDriverHandle->DaisyChainPosition, L6470_K_THERM_ID, StepperMotorDriverHandle->Register.K_THERM);
 8001cf4:	68fb      	ldr	r3, [r7, #12]
 8001cf6:	689b      	ldr	r3, [r3, #8]
 8001cf8:	681b      	ldr	r3, [r3, #0]
 8001cfa:	68fa      	ldr	r2, [r7, #12]
 8001cfc:	7810      	ldrb	r0, [r2, #0]
 8001cfe:	68fa      	ldr	r2, [r7, #12]
 8001d00:	f892 202f 	ldrb.w	r2, [r2, #47]	; 0x2f
 8001d04:	2111      	movs	r1, #17
 8001d06:	4798      	blx	r3
  StepperMotorDriverHandle->Command->SetParam(StepperMotorDriverHandle->DaisyChainPosition, L6470_OCD_TH_ID, StepperMotorDriverHandle->Register.OCD_TH);
 8001d08:	68fb      	ldr	r3, [r7, #12]
 8001d0a:	689b      	ldr	r3, [r3, #8]
 8001d0c:	681b      	ldr	r3, [r3, #0]
 8001d0e:	68fa      	ldr	r2, [r7, #12]
 8001d10:	7810      	ldrb	r0, [r2, #0]
 8001d12:	68fa      	ldr	r2, [r7, #12]
 8001d14:	f892 2031 	ldrb.w	r2, [r2, #49]	; 0x31
 8001d18:	2113      	movs	r1, #19
 8001d1a:	4798      	blx	r3
  StepperMotorDriverHandle->Command->SetParam(StepperMotorDriverHandle->DaisyChainPosition, L6470_STALL_TH_ID, StepperMotorDriverHandle->Register.STALL_TH);
 8001d1c:	68fb      	ldr	r3, [r7, #12]
 8001d1e:	689b      	ldr	r3, [r3, #8]
 8001d20:	681b      	ldr	r3, [r3, #0]
 8001d22:	68fa      	ldr	r2, [r7, #12]
 8001d24:	7810      	ldrb	r0, [r2, #0]
 8001d26:	68fa      	ldr	r2, [r7, #12]
 8001d28:	f892 2032 	ldrb.w	r2, [r2, #50]	; 0x32
 8001d2c:	2114      	movs	r1, #20
 8001d2e:	4798      	blx	r3
  StepperMotorDriverHandle->Command->SetParam(StepperMotorDriverHandle->DaisyChainPosition, L6470_STEP_MODE_ID, StepperMotorDriverHandle->Register.STEP_MODE);
 8001d30:	68fb      	ldr	r3, [r7, #12]
 8001d32:	689b      	ldr	r3, [r3, #8]
 8001d34:	681b      	ldr	r3, [r3, #0]
 8001d36:	68fa      	ldr	r2, [r7, #12]
 8001d38:	7810      	ldrb	r0, [r2, #0]
 8001d3a:	68fa      	ldr	r2, [r7, #12]
 8001d3c:	f892 2033 	ldrb.w	r2, [r2, #51]	; 0x33
 8001d40:	2115      	movs	r1, #21
 8001d42:	4798      	blx	r3
  StepperMotorDriverHandle->Command->SetParam(StepperMotorDriverHandle->DaisyChainPosition, L6470_ALARM_EN_ID, StepperMotorDriverHandle->Register.ALARM_EN);
 8001d44:	68fb      	ldr	r3, [r7, #12]
 8001d46:	689b      	ldr	r3, [r3, #8]
 8001d48:	681b      	ldr	r3, [r3, #0]
 8001d4a:	e001      	b.n	8001d50 <L6470_Config+0x330>
 8001d4c:	43800000 	.word	0x43800000
 8001d50:	68fa      	ldr	r2, [r7, #12]
 8001d52:	7810      	ldrb	r0, [r2, #0]
 8001d54:	68fa      	ldr	r2, [r7, #12]
 8001d56:	f892 2034 	ldrb.w	r2, [r2, #52]	; 0x34
 8001d5a:	2116      	movs	r1, #22
 8001d5c:	4798      	blx	r3
  StepperMotorDriverHandle->Command->SetParam(StepperMotorDriverHandle->DaisyChainPosition, L6470_CONFIG_ID, StepperMotorDriverHandle->Register.CONFIG);
 8001d5e:	68fb      	ldr	r3, [r7, #12]
 8001d60:	689b      	ldr	r3, [r3, #8]
 8001d62:	681b      	ldr	r3, [r3, #0]
 8001d64:	68fa      	ldr	r2, [r7, #12]
 8001d66:	7810      	ldrb	r0, [r2, #0]
 8001d68:	68fa      	ldr	r2, [r7, #12]
 8001d6a:	8ed2      	ldrh	r2, [r2, #54]	; 0x36
 8001d6c:	2117      	movs	r1, #23
 8001d6e:	4798      	blx	r3
}
 8001d70:	bf00      	nop
 8001d72:	3710      	adds	r7, #16
 8001d74:	46bd      	mov	sp, r7
 8001d76:	bd80      	pop	{r7, pc}

08001d78 <BSP_L6470_Init>:

/**
  * @brief  Initialize the X-NUCLEO-IHM02A1 mounted board and theirs L6470 devices.
  */
void BSP_L6470_Init(void)
{
 8001d78:	b580      	push	{r7, lr}
 8001d7a:	b082      	sub	sp, #8
 8001d7c:	af00      	add	r7, sp, #0
  uint8_t ExpBrd;                     /* to index the expansion board to be addressed */
  uint8_t L6470_Id;                   /* to index the L6470 to be addressed */
  
  /* Disable the L6470 */
  L6470_DISABLE();
 8001d7e:	4b28      	ldr	r3, [pc, #160]	; (8001e20 <BSP_L6470_Init+0xa8>)
 8001d80:	685b      	ldr	r3, [r3, #4]
 8001d82:	4a27      	ldr	r2, [pc, #156]	; (8001e20 <BSP_L6470_Init+0xa8>)
 8001d84:	8911      	ldrh	r1, [r2, #8]
 8001d86:	2200      	movs	r2, #0
 8001d88:	4618      	mov	r0, r3
 8001d8a:	f002 fed5 	bl	8004b38 <HAL_GPIO_WritePin>
  
  /* Enable the L6470 */
  L6470_ENABLE();
 8001d8e:	4b24      	ldr	r3, [pc, #144]	; (8001e20 <BSP_L6470_Init+0xa8>)
 8001d90:	685b      	ldr	r3, [r3, #4]
 8001d92:	4a23      	ldr	r2, [pc, #140]	; (8001e20 <BSP_L6470_Init+0xa8>)
 8001d94:	8911      	ldrh	r1, [r2, #8]
 8001d96:	2201      	movs	r2, #1
 8001d98:	4618      	mov	r0, r3
 8001d9a:	f002 fecd 	bl	8004b38 <HAL_GPIO_WritePin>
  
  /* Initialize all mounted L6470 for each stacked X-NUCLEO-IHM02A1 */
  for (ExpBrd = EXPBRD_ID(0); ExpBrd <= EXPBRD_ID(EXPBRD_MOUNTED_NR-1); ExpBrd++)
 8001d9e:	2000      	movs	r0, #0
 8001da0:	f000 fa45 	bl	800222e <EXPBRD_ID>
 8001da4:	4603      	mov	r3, r0
 8001da6:	71fb      	strb	r3, [r7, #7]
 8001da8:	e027      	b.n	8001dfa <BSP_L6470_Init+0x82>
  {
    /* Select the used GPIO for the L6470 nCS mounted on the addressed X-NUCLEO-IHM02A1 */
    BSP_Select(ExpBrd);
 8001daa:	79fb      	ldrb	r3, [r7, #7]
 8001dac:	4618      	mov	r0, r3
 8001dae:	f000 fa4f 	bl	8002250 <BSP_Select>
    
    /* Disable SPI communication for L6470 */
    L6470_nCS_HIGH();
 8001db2:	4b1c      	ldr	r3, [pc, #112]	; (8001e24 <BSP_L6470_Init+0xac>)
 8001db4:	685b      	ldr	r3, [r3, #4]
 8001db6:	4a1b      	ldr	r2, [pc, #108]	; (8001e24 <BSP_L6470_Init+0xac>)
 8001db8:	8911      	ldrh	r1, [r2, #8]
 8001dba:	2201      	movs	r2, #1
 8001dbc:	4618      	mov	r0, r3
 8001dbe:	f002 febb 	bl	8004b38 <HAL_GPIO_WritePin>
    
    for (L6470_Id = L6470_ID(0); L6470_Id<=L6470_ID(L6470DAISYCHAINSIZE-1); L6470_Id++)
 8001dc2:	2000      	movs	r0, #0
 8001dc4:	f7ff fcc2 	bl	800174c <L6470_ID>
 8001dc8:	4603      	mov	r3, r0
 8001dca:	71bb      	strb	r3, [r7, #6]
 8001dcc:	e00a      	b.n	8001de4 <BSP_L6470_Init+0x6c>
    {
      /* Reset the devices */
      L6470_ResetDevice(L6470_Id);
 8001dce:	79bb      	ldrb	r3, [r7, #6]
 8001dd0:	4618      	mov	r0, r3
 8001dd2:	f7ff fa29 	bl	8001228 <L6470_ResetDevice>
      
      /* Reset all Status Register Flags */
      L6470_GetStatus(L6470_Id);
 8001dd6:	79bb      	ldrb	r3, [r7, #6]
 8001dd8:	4618      	mov	r0, r3
 8001dda:	f7ff facf 	bl	800137c <L6470_GetStatus>
    for (L6470_Id = L6470_ID(0); L6470_Id<=L6470_ID(L6470DAISYCHAINSIZE-1); L6470_Id++)
 8001dde:	79bb      	ldrb	r3, [r7, #6]
 8001de0:	3301      	adds	r3, #1
 8001de2:	71bb      	strb	r3, [r7, #6]
 8001de4:	2001      	movs	r0, #1
 8001de6:	f7ff fcb1 	bl	800174c <L6470_ID>
 8001dea:	4603      	mov	r3, r0
 8001dec:	461a      	mov	r2, r3
 8001dee:	79bb      	ldrb	r3, [r7, #6]
 8001df0:	4293      	cmp	r3, r2
 8001df2:	d9ec      	bls.n	8001dce <BSP_L6470_Init+0x56>
  for (ExpBrd = EXPBRD_ID(0); ExpBrd <= EXPBRD_ID(EXPBRD_MOUNTED_NR-1); ExpBrd++)
 8001df4:	79fb      	ldrb	r3, [r7, #7]
 8001df6:	3301      	adds	r3, #1
 8001df8:	71fb      	strb	r3, [r7, #7]
 8001dfa:	2000      	movs	r0, #0
 8001dfc:	f000 fa17 	bl	800222e <EXPBRD_ID>
 8001e00:	4603      	mov	r3, r0
 8001e02:	461a      	mov	r2, r3
 8001e04:	79fb      	ldrb	r3, [r7, #7]
 8001e06:	4293      	cmp	r3, r2
 8001e08:	d9cf      	bls.n	8001daa <BSP_L6470_Init+0x32>
    }
  }
 
  /* Select the default X-NUCLEO-IHM02A1 to be addressed by SPI */
  BSP_Select(EXPBRD_ID(0));
 8001e0a:	2000      	movs	r0, #0
 8001e0c:	f000 fa0f 	bl	800222e <EXPBRD_ID>
 8001e10:	4603      	mov	r3, r0
 8001e12:	4618      	mov	r0, r3
 8001e14:	f000 fa1c 	bl	8002250 <BSP_Select>
}
 8001e18:	bf00      	nop
 8001e1a:	3708      	adds	r7, #8
 8001e1c:	46bd      	mov	sp, r7
 8001e1e:	bd80      	pop	{r7, pc}
 8001e20:	20000328 	.word	0x20000328
 8001e24:	200003ac 	.word	0x200003ac

08001e28 <BSP_IRQ>:

/**
  * @brief  Enable the IRQ for the nBUSY_SYNC and the nFLAG of the X-NUCLEO-IHM02A1
  */
void BSP_IRQ(FunctionalState fs)
{
 8001e28:	b580      	push	{r7, lr}
 8001e2a:	b082      	sub	sp, #8
 8001e2c:	af00      	add	r7, sp, #0
 8001e2e:	4603      	mov	r3, r0
 8001e30:	71fb      	strb	r3, [r7, #7]
  if(fs == ENABLE)
 8001e32:	79fb      	ldrb	r3, [r7, #7]
 8001e34:	2b01      	cmp	r3, #1
 8001e36:	d106      	bne.n	8001e46 <BSP_IRQ+0x1e>
  {
    HAL_NVIC_EnableIRQ(L6470_nBUSY_SYNC_IRQn);
 8001e38:	2028      	movs	r0, #40	; 0x28
 8001e3a:	f002 f83e 	bl	8003eba <HAL_NVIC_EnableIRQ>
    HAL_NVIC_EnableIRQ(L6470_nFLAG_IRQn);
 8001e3e:	2017      	movs	r0, #23
 8001e40:	f002 f83b 	bl	8003eba <HAL_NVIC_EnableIRQ>
  else
  {
    HAL_NVIC_DisableIRQ(L6470_nBUSY_SYNC_IRQn);
    HAL_NVIC_DisableIRQ(L6470_nFLAG_IRQn);
  }
}
 8001e44:	e005      	b.n	8001e52 <BSP_IRQ+0x2a>
    HAL_NVIC_DisableIRQ(L6470_nBUSY_SYNC_IRQn);
 8001e46:	2028      	movs	r0, #40	; 0x28
 8001e48:	f002 f845 	bl	8003ed6 <HAL_NVIC_DisableIRQ>
    HAL_NVIC_DisableIRQ(L6470_nFLAG_IRQn);
 8001e4c:	2017      	movs	r0, #23
 8001e4e:	f002 f842 	bl	8003ed6 <HAL_NVIC_DisableIRQ>
}
 8001e52:	bf00      	nop
 8001e54:	3708      	adds	r7, #8
 8001e56:	46bd      	mov	sp, r7
 8001e58:	bd80      	pop	{r7, pc}

08001e5a <BSP_L6470_SetParam>:
  * @param  L6470_Id        The L6470 identifier inside the daisy chain
  * @param  L6470_RegId     The L6470 Register identifier
  * @param  Value           The new value for the L6470 Register
  */
void BSP_L6470_SetParam(uint8_t ExpBrd_Id, uint8_t L6470_Id, eL6470_RegId_t L6470_RegId, uint32_t Value)
{
 8001e5a:	b580      	push	{r7, lr}
 8001e5c:	b082      	sub	sp, #8
 8001e5e:	af00      	add	r7, sp, #0
 8001e60:	603b      	str	r3, [r7, #0]
 8001e62:	4603      	mov	r3, r0
 8001e64:	71fb      	strb	r3, [r7, #7]
 8001e66:	460b      	mov	r3, r1
 8001e68:	71bb      	strb	r3, [r7, #6]
 8001e6a:	4613      	mov	r3, r2
 8001e6c:	717b      	strb	r3, [r7, #5]
  /* Initialize the used GPIO for the L6470 nCS related to the addressed X-NUCLEO-IHM02A1 */
  if (BSP_Select(ExpBrd_Id))
 8001e6e:	79fb      	ldrb	r3, [r7, #7]
 8001e70:	4618      	mov	r0, r3
 8001e72:	f000 f9ed 	bl	8002250 <BSP_Select>
 8001e76:	4603      	mov	r3, r0
 8001e78:	2b00      	cmp	r3, #0
 8001e7a:	d005      	beq.n	8001e88 <BSP_L6470_SetParam+0x2e>
  {
    /* Perform the related L6470 Application Command */
    L6470_SetParam(L6470_Id, L6470_RegId, Value);
 8001e7c:	7979      	ldrb	r1, [r7, #5]
 8001e7e:	79bb      	ldrb	r3, [r7, #6]
 8001e80:	683a      	ldr	r2, [r7, #0]
 8001e82:	4618      	mov	r0, r3
 8001e84:	f7fe fffe 	bl	8000e84 <L6470_SetParam>
  }
}
 8001e88:	bf00      	nop
 8001e8a:	3708      	adds	r7, #8
 8001e8c:	46bd      	mov	sp, r7
 8001e8e:	bd80      	pop	{r7, pc}

08001e90 <BSP_L6470_GetParam>:
  * @param  L6470_Id        The L6470 identifier inside the daisy chain
  * @param  L6470_RegId     The L6470 Register identifier
  * @retval uint32_t        The value of the L6470 Register
  */
uint32_t BSP_L6470_GetParam(uint8_t ExpBrd_Id, uint8_t L6470_Id, eL6470_RegId_t L6470_RegId)
{
 8001e90:	b580      	push	{r7, lr}
 8001e92:	b082      	sub	sp, #8
 8001e94:	af00      	add	r7, sp, #0
 8001e96:	4603      	mov	r3, r0
 8001e98:	71fb      	strb	r3, [r7, #7]
 8001e9a:	460b      	mov	r3, r1
 8001e9c:	71bb      	strb	r3, [r7, #6]
 8001e9e:	4613      	mov	r3, r2
 8001ea0:	717b      	strb	r3, [r7, #5]
  /* Initialize the used GPIO for the L6470 nCS related to the addressed X-NUCLEO-IHM02A1 */
  if (BSP_Select(ExpBrd_Id))
 8001ea2:	79fb      	ldrb	r3, [r7, #7]
 8001ea4:	4618      	mov	r0, r3
 8001ea6:	f000 f9d3 	bl	8002250 <BSP_Select>
 8001eaa:	4603      	mov	r3, r0
 8001eac:	2b00      	cmp	r3, #0
 8001eae:	d007      	beq.n	8001ec0 <BSP_L6470_GetParam+0x30>
  {
    /* Perform the related L6470 Application Command */
    return L6470_GetParam(L6470_Id, L6470_RegId);
 8001eb0:	797a      	ldrb	r2, [r7, #5]
 8001eb2:	79bb      	ldrb	r3, [r7, #6]
 8001eb4:	4611      	mov	r1, r2
 8001eb6:	4618      	mov	r0, r3
 8001eb8:	f7ff f80a 	bl	8000ed0 <L6470_GetParam>
 8001ebc:	4603      	mov	r3, r0
 8001ebe:	e000      	b.n	8001ec2 <BSP_L6470_GetParam+0x32>
  }
  else
    return 0xFF;
 8001ec0:	23ff      	movs	r3, #255	; 0xff
}
 8001ec2:	4618      	mov	r0, r3
 8001ec4:	3708      	adds	r7, #8
 8001ec6:	46bd      	mov	sp, r7
 8001ec8:	bd80      	pop	{r7, pc}

08001eca <BSP_L6470_Run>:
  * @param  L6470_Id        The L6470 identifier inside the daisy chain
  * @param  L6470_DirId     The L6470 Direction identifier
  * @param  Speed           The new value about the speed
  */
void BSP_L6470_Run(uint8_t ExpBrd_Id, uint8_t L6470_Id, eL6470_DirId_t L6470_DirId, uint32_t Speed)
{
 8001eca:	b580      	push	{r7, lr}
 8001ecc:	b082      	sub	sp, #8
 8001ece:	af00      	add	r7, sp, #0
 8001ed0:	603b      	str	r3, [r7, #0]
 8001ed2:	4603      	mov	r3, r0
 8001ed4:	71fb      	strb	r3, [r7, #7]
 8001ed6:	460b      	mov	r3, r1
 8001ed8:	71bb      	strb	r3, [r7, #6]
 8001eda:	4613      	mov	r3, r2
 8001edc:	717b      	strb	r3, [r7, #5]
  /* Initialize the used GPIO for the L6470 nCS related to the addressed X-NUCLEO-IHM02A1 */
  if (BSP_Select(ExpBrd_Id))
 8001ede:	79fb      	ldrb	r3, [r7, #7]
 8001ee0:	4618      	mov	r0, r3
 8001ee2:	f000 f9b5 	bl	8002250 <BSP_Select>
 8001ee6:	4603      	mov	r3, r0
 8001ee8:	2b00      	cmp	r3, #0
 8001eea:	d005      	beq.n	8001ef8 <BSP_L6470_Run+0x2e>
  {
    /* Perform the related L6470 Application Command */
    L6470_Run(L6470_Id, L6470_DirId, Speed);
 8001eec:	7979      	ldrb	r1, [r7, #5]
 8001eee:	79bb      	ldrb	r3, [r7, #6]
 8001ef0:	683a      	ldr	r2, [r7, #0]
 8001ef2:	4618      	mov	r0, r3
 8001ef4:	f7ff f824 	bl	8000f40 <L6470_Run>
  }
}
 8001ef8:	bf00      	nop
 8001efa:	3708      	adds	r7, #8
 8001efc:	46bd      	mov	sp, r7
 8001efe:	bd80      	pop	{r7, pc}

08001f00 <BSP_L6470_StepClock>:
  * @param  ExpBrd_Id       The addressed Expansion Board
  * @param  L6470_Id        The L6470 identifier inside the daisy chain
  * @param  L6470_DirId     The L6470 Direction identifier
  */
void BSP_L6470_StepClock(uint8_t ExpBrd_Id, uint8_t L6470_Id, eL6470_DirId_t L6470_DirId)
{
 8001f00:	b580      	push	{r7, lr}
 8001f02:	b082      	sub	sp, #8
 8001f04:	af00      	add	r7, sp, #0
 8001f06:	4603      	mov	r3, r0
 8001f08:	71fb      	strb	r3, [r7, #7]
 8001f0a:	460b      	mov	r3, r1
 8001f0c:	71bb      	strb	r3, [r7, #6]
 8001f0e:	4613      	mov	r3, r2
 8001f10:	717b      	strb	r3, [r7, #5]
  /* Initialize the used GPIO for the L6470 nCS related to the addressed X-NUCLEO-IHM02A1 */
  if (BSP_Select(ExpBrd_Id))
 8001f12:	79fb      	ldrb	r3, [r7, #7]
 8001f14:	4618      	mov	r0, r3
 8001f16:	f000 f99b 	bl	8002250 <BSP_Select>
 8001f1a:	4603      	mov	r3, r0
 8001f1c:	2b00      	cmp	r3, #0
 8001f1e:	d005      	beq.n	8001f2c <BSP_L6470_StepClock+0x2c>
  {
    /* Perform the related L6470 Application Command */
    L6470_StepClock(L6470_Id, L6470_DirId);
 8001f20:	797a      	ldrb	r2, [r7, #5]
 8001f22:	79bb      	ldrb	r3, [r7, #6]
 8001f24:	4611      	mov	r1, r2
 8001f26:	4618      	mov	r0, r3
 8001f28:	f7ff f830 	bl	8000f8c <L6470_StepClock>
  }
}
 8001f2c:	bf00      	nop
 8001f2e:	3708      	adds	r7, #8
 8001f30:	46bd      	mov	sp, r7
 8001f32:	bd80      	pop	{r7, pc}

08001f34 <BSP_L6470_Move>:
  * @param  L6470_Id        The L6470 identifier inside the daisy chain
  * @param  L6470_DirId     The L6470 Direction identifier
  * @param  N_Step          The number of step about the movement to be performed
  */
void BSP_L6470_Move(uint8_t ExpBrd_Id, uint8_t L6470_Id, eL6470_DirId_t L6470_DirId, uint32_t N_Step)
{
 8001f34:	b580      	push	{r7, lr}
 8001f36:	b082      	sub	sp, #8
 8001f38:	af00      	add	r7, sp, #0
 8001f3a:	603b      	str	r3, [r7, #0]
 8001f3c:	4603      	mov	r3, r0
 8001f3e:	71fb      	strb	r3, [r7, #7]
 8001f40:	460b      	mov	r3, r1
 8001f42:	71bb      	strb	r3, [r7, #6]
 8001f44:	4613      	mov	r3, r2
 8001f46:	717b      	strb	r3, [r7, #5]
  /* Initialize the used GPIO for the L6470 nCS related to the addressed X-NUCLEO-IHM02A1 */
  if (BSP_Select(ExpBrd_Id))
 8001f48:	79fb      	ldrb	r3, [r7, #7]
 8001f4a:	4618      	mov	r0, r3
 8001f4c:	f000 f980 	bl	8002250 <BSP_Select>
 8001f50:	4603      	mov	r3, r0
 8001f52:	2b00      	cmp	r3, #0
 8001f54:	d005      	beq.n	8001f62 <BSP_L6470_Move+0x2e>
  {
    /* Perform the related L6470 Application Command */
    L6470_Move(L6470_Id, L6470_DirId, N_Step);
 8001f56:	7979      	ldrb	r1, [r7, #5]
 8001f58:	79bb      	ldrb	r3, [r7, #6]
 8001f5a:	683a      	ldr	r2, [r7, #0]
 8001f5c:	4618      	mov	r0, r3
 8001f5e:	f7ff f839 	bl	8000fd4 <L6470_Move>
  }
}
 8001f62:	bf00      	nop
 8001f64:	3708      	adds	r7, #8
 8001f66:	46bd      	mov	sp, r7
 8001f68:	bd80      	pop	{r7, pc}

08001f6a <BSP_L6470_GoTo>:
  * @param  ExpBrd_Id       The addressed Expansion Board
  * @param  L6470_Id        The L6470 identifier inside the daisy chain
  * @param  AbsPos          The L6470 absolute position to be reached
  */
void BSP_L6470_GoTo(uint8_t ExpBrd_Id, uint8_t L6470_Id, uint32_t AbsPos)
{
 8001f6a:	b580      	push	{r7, lr}
 8001f6c:	b082      	sub	sp, #8
 8001f6e:	af00      	add	r7, sp, #0
 8001f70:	4603      	mov	r3, r0
 8001f72:	603a      	str	r2, [r7, #0]
 8001f74:	71fb      	strb	r3, [r7, #7]
 8001f76:	460b      	mov	r3, r1
 8001f78:	71bb      	strb	r3, [r7, #6]
  /* Initialize the used GPIO for the L6470 nCS related to the addressed X-NUCLEO-IHM02A1 */
  if (BSP_Select(ExpBrd_Id))
 8001f7a:	79fb      	ldrb	r3, [r7, #7]
 8001f7c:	4618      	mov	r0, r3
 8001f7e:	f000 f967 	bl	8002250 <BSP_Select>
 8001f82:	4603      	mov	r3, r0
 8001f84:	2b00      	cmp	r3, #0
 8001f86:	d004      	beq.n	8001f92 <BSP_L6470_GoTo+0x28>
  {
    /* Perform the related L6470 Application Command */
    L6470_GoTo(L6470_Id, AbsPos);
 8001f88:	79bb      	ldrb	r3, [r7, #6]
 8001f8a:	6839      	ldr	r1, [r7, #0]
 8001f8c:	4618      	mov	r0, r3
 8001f8e:	f7ff f847 	bl	8001020 <L6470_GoTo>
  }
}
 8001f92:	bf00      	nop
 8001f94:	3708      	adds	r7, #8
 8001f96:	46bd      	mov	sp, r7
 8001f98:	bd80      	pop	{r7, pc}

08001f9a <BSP_L6470_GoToDir>:
  * @param  L6470_Id        The L6470 identifier inside the daisy chain
  * @param  L6470_DirId     The L6470 Direction identifier
  * @param  AbsPos          The L6470 absolute position to be reached
  */
void BSP_L6470_GoToDir(uint8_t ExpBrd_Id, uint8_t L6470_Id, eL6470_DirId_t L6470_DirId, uint32_t AbsPos)
{
 8001f9a:	b580      	push	{r7, lr}
 8001f9c:	b082      	sub	sp, #8
 8001f9e:	af00      	add	r7, sp, #0
 8001fa0:	603b      	str	r3, [r7, #0]
 8001fa2:	4603      	mov	r3, r0
 8001fa4:	71fb      	strb	r3, [r7, #7]
 8001fa6:	460b      	mov	r3, r1
 8001fa8:	71bb      	strb	r3, [r7, #6]
 8001faa:	4613      	mov	r3, r2
 8001fac:	717b      	strb	r3, [r7, #5]
  /* Initialize the used GPIO for the L6470 nCS related to the addressed X-NUCLEO-IHM02A1 */
  if (BSP_Select(ExpBrd_Id))
 8001fae:	79fb      	ldrb	r3, [r7, #7]
 8001fb0:	4618      	mov	r0, r3
 8001fb2:	f000 f94d 	bl	8002250 <BSP_Select>
 8001fb6:	4603      	mov	r3, r0
 8001fb8:	2b00      	cmp	r3, #0
 8001fba:	d005      	beq.n	8001fc8 <BSP_L6470_GoToDir+0x2e>
  {
    /* Perform the related L6470 Application Command */
    L6470_GoToDir(L6470_Id, L6470_DirId, AbsPos);
 8001fbc:	7979      	ldrb	r1, [r7, #5]
 8001fbe:	79bb      	ldrb	r3, [r7, #6]
 8001fc0:	683a      	ldr	r2, [r7, #0]
 8001fc2:	4618      	mov	r0, r3
 8001fc4:	f7ff f852 	bl	800106c <L6470_GoToDir>
  }
}
 8001fc8:	bf00      	nop
 8001fca:	3708      	adds	r7, #8
 8001fcc:	46bd      	mov	sp, r7
 8001fce:	bd80      	pop	{r7, pc}

08001fd0 <BSP_L6470_GoUntil>:
  * @param  L6470_ActId     The L6470 Action identifier about ABS_POS register
  * @param  L6470_DirId     The L6470 Direction identifier
  * @param  Speed           The new value about the speed
  */
void BSP_L6470_GoUntil(uint8_t ExpBrd_Id, uint8_t L6470_Id, eL6470_ActId_t L6470_ActId, eL6470_DirId_t L6470_DirId, uint32_t Speed)
{
 8001fd0:	b590      	push	{r4, r7, lr}
 8001fd2:	b083      	sub	sp, #12
 8001fd4:	af00      	add	r7, sp, #0
 8001fd6:	4604      	mov	r4, r0
 8001fd8:	4608      	mov	r0, r1
 8001fda:	4611      	mov	r1, r2
 8001fdc:	461a      	mov	r2, r3
 8001fde:	4623      	mov	r3, r4
 8001fe0:	71fb      	strb	r3, [r7, #7]
 8001fe2:	4603      	mov	r3, r0
 8001fe4:	71bb      	strb	r3, [r7, #6]
 8001fe6:	460b      	mov	r3, r1
 8001fe8:	717b      	strb	r3, [r7, #5]
 8001fea:	4613      	mov	r3, r2
 8001fec:	713b      	strb	r3, [r7, #4]
  /* Initialize the used GPIO for the L6470 nCS related to the addressed X-NUCLEO-IHM02A1 */
  if (BSP_Select(ExpBrd_Id))
 8001fee:	79fb      	ldrb	r3, [r7, #7]
 8001ff0:	4618      	mov	r0, r3
 8001ff2:	f000 f92d 	bl	8002250 <BSP_Select>
 8001ff6:	4603      	mov	r3, r0
 8001ff8:	2b00      	cmp	r3, #0
 8001ffa:	d005      	beq.n	8002008 <BSP_L6470_GoUntil+0x38>
  {
    /* Perform the related L6470 Application Command */
    L6470_GoUntil(L6470_Id, L6470_ActId, L6470_DirId, Speed);
 8001ffc:	793a      	ldrb	r2, [r7, #4]
 8001ffe:	7979      	ldrb	r1, [r7, #5]
 8002000:	79b8      	ldrb	r0, [r7, #6]
 8002002:	69bb      	ldr	r3, [r7, #24]
 8002004:	f7ff f85c 	bl	80010c0 <L6470_GoUntil>
  }
}
 8002008:	bf00      	nop
 800200a:	370c      	adds	r7, #12
 800200c:	46bd      	mov	sp, r7
 800200e:	bd90      	pop	{r4, r7, pc}

08002010 <BSP_L6470_ReleaseSW>:
  * @param  L6470_Id        The L6470 identifier inside the daisy chain
  * @param  L6470_ActId     The L6470 Action identifier about ABS_POS register
  * @param  L6470_DirId     The L6470 Direction identifier
  */
void BSP_L6470_ReleaseSW(uint8_t ExpBrd_Id, uint8_t L6470_Id, eL6470_ActId_t L6470_ActId, eL6470_DirId_t L6470_DirId)
{
 8002010:	b590      	push	{r4, r7, lr}
 8002012:	b083      	sub	sp, #12
 8002014:	af00      	add	r7, sp, #0
 8002016:	4604      	mov	r4, r0
 8002018:	4608      	mov	r0, r1
 800201a:	4611      	mov	r1, r2
 800201c:	461a      	mov	r2, r3
 800201e:	4623      	mov	r3, r4
 8002020:	71fb      	strb	r3, [r7, #7]
 8002022:	4603      	mov	r3, r0
 8002024:	71bb      	strb	r3, [r7, #6]
 8002026:	460b      	mov	r3, r1
 8002028:	717b      	strb	r3, [r7, #5]
 800202a:	4613      	mov	r3, r2
 800202c:	713b      	strb	r3, [r7, #4]
  /* Initialize the used GPIO for the L6470 nCS related to the addressed X-NUCLEO-IHM02A1 */
  if (BSP_Select(ExpBrd_Id))
 800202e:	79fb      	ldrb	r3, [r7, #7]
 8002030:	4618      	mov	r0, r3
 8002032:	f000 f90d 	bl	8002250 <BSP_Select>
 8002036:	4603      	mov	r3, r0
 8002038:	2b00      	cmp	r3, #0
 800203a:	d005      	beq.n	8002048 <BSP_L6470_ReleaseSW+0x38>
  {
    /* Perform the related L6470 Application Command */
    L6470_ReleaseSW(L6470_Id, L6470_ActId, L6470_DirId);
 800203c:	793a      	ldrb	r2, [r7, #4]
 800203e:	7979      	ldrb	r1, [r7, #5]
 8002040:	79bb      	ldrb	r3, [r7, #6]
 8002042:	4618      	mov	r0, r3
 8002044:	f7ff f864 	bl	8001110 <L6470_ReleaseSW>
  }
}
 8002048:	bf00      	nop
 800204a:	370c      	adds	r7, #12
 800204c:	46bd      	mov	sp, r7
 800204e:	bd90      	pop	{r4, r7, pc}

08002050 <BSP_L6470_GoHome>:
  * @brief  Perform the L6470_GoHome Application Command for the selected device on the selected Expansion Board.
  * @param  ExpBrd_Id       The addressed Expansion Board
  * @param  L6470_Id        The L6470 identifier inside the daisy chain
  */
void BSP_L6470_GoHome(uint8_t ExpBrd_Id, uint8_t L6470_Id)
{
 8002050:	b580      	push	{r7, lr}
 8002052:	b082      	sub	sp, #8
 8002054:	af00      	add	r7, sp, #0
 8002056:	4603      	mov	r3, r0
 8002058:	460a      	mov	r2, r1
 800205a:	71fb      	strb	r3, [r7, #7]
 800205c:	4613      	mov	r3, r2
 800205e:	71bb      	strb	r3, [r7, #6]
  /* Initialize the used GPIO for the L6470 nCS related to the addressed X-NUCLEO-IHM02A1 */
  if (BSP_Select(ExpBrd_Id))
 8002060:	79fb      	ldrb	r3, [r7, #7]
 8002062:	4618      	mov	r0, r3
 8002064:	f000 f8f4 	bl	8002250 <BSP_Select>
 8002068:	4603      	mov	r3, r0
 800206a:	2b00      	cmp	r3, #0
 800206c:	d003      	beq.n	8002076 <BSP_L6470_GoHome+0x26>
  {
    /* Perform the related L6470 Application Command */
    L6470_GoHome(L6470_Id);
 800206e:	79bb      	ldrb	r3, [r7, #6]
 8002070:	4618      	mov	r0, r3
 8002072:	f7ff f873 	bl	800115c <L6470_GoHome>
  }
}
 8002076:	bf00      	nop
 8002078:	3708      	adds	r7, #8
 800207a:	46bd      	mov	sp, r7
 800207c:	bd80      	pop	{r7, pc}

0800207e <BSP_L6470_GoMark>:
  * @brief  Perform the L6470_GoMark Application Command for the selected device on the selected Expansion Board.
  * @param  ExpBrd_Id       The addressed Expansion Board
  * @param  L6470_Id        The L6470 identifier inside the daisy chain
  */
void BSP_L6470_GoMark(uint8_t ExpBrd_Id, uint8_t L6470_Id)
{
 800207e:	b580      	push	{r7, lr}
 8002080:	b082      	sub	sp, #8
 8002082:	af00      	add	r7, sp, #0
 8002084:	4603      	mov	r3, r0
 8002086:	460a      	mov	r2, r1
 8002088:	71fb      	strb	r3, [r7, #7]
 800208a:	4613      	mov	r3, r2
 800208c:	71bb      	strb	r3, [r7, #6]
  /* Initialize the used GPIO for the L6470 nCS related to the addressed X-NUCLEO-IHM02A1 */
  if (BSP_Select(ExpBrd_Id))
 800208e:	79fb      	ldrb	r3, [r7, #7]
 8002090:	4618      	mov	r0, r3
 8002092:	f000 f8dd 	bl	8002250 <BSP_Select>
 8002096:	4603      	mov	r3, r0
 8002098:	2b00      	cmp	r3, #0
 800209a:	d003      	beq.n	80020a4 <BSP_L6470_GoMark+0x26>
  {
    /* Perform the related L6470 Application Command */
    L6470_GoMark(L6470_Id);
 800209c:	79bb      	ldrb	r3, [r7, #6]
 800209e:	4618      	mov	r0, r3
 80020a0:	f7ff f87e 	bl	80011a0 <L6470_GoMark>
  }
}
 80020a4:	bf00      	nop
 80020a6:	3708      	adds	r7, #8
 80020a8:	46bd      	mov	sp, r7
 80020aa:	bd80      	pop	{r7, pc}

080020ac <BSP_L6470_ResetPos>:
  * @brief  Perform the L6470_ResetPos Application Command for the selected device on the selected Expansion Board.
  * @param  ExpBrd_Id       The addressed Expansion Board
  * @param  L6470_Id        The L6470 identifier inside the daisy chain
  */
void BSP_L6470_ResetPos(uint8_t ExpBrd_Id, uint8_t L6470_Id)
{
 80020ac:	b580      	push	{r7, lr}
 80020ae:	b082      	sub	sp, #8
 80020b0:	af00      	add	r7, sp, #0
 80020b2:	4603      	mov	r3, r0
 80020b4:	460a      	mov	r2, r1
 80020b6:	71fb      	strb	r3, [r7, #7]
 80020b8:	4613      	mov	r3, r2
 80020ba:	71bb      	strb	r3, [r7, #6]
  /* Initialize the used GPIO for the L6470 nCS related to the addressed X-NUCLEO-IHM02A1 */
  if (BSP_Select(ExpBrd_Id))
 80020bc:	79fb      	ldrb	r3, [r7, #7]
 80020be:	4618      	mov	r0, r3
 80020c0:	f000 f8c6 	bl	8002250 <BSP_Select>
 80020c4:	4603      	mov	r3, r0
 80020c6:	2b00      	cmp	r3, #0
 80020c8:	d003      	beq.n	80020d2 <BSP_L6470_ResetPos+0x26>
  {
    /* Perform the related L6470 Application Command */
    L6470_ResetPos(L6470_Id);
 80020ca:	79bb      	ldrb	r3, [r7, #6]
 80020cc:	4618      	mov	r0, r3
 80020ce:	f7ff f889 	bl	80011e4 <L6470_ResetPos>
  }
}
 80020d2:	bf00      	nop
 80020d4:	3708      	adds	r7, #8
 80020d6:	46bd      	mov	sp, r7
 80020d8:	bd80      	pop	{r7, pc}

080020da <BSP_L6470_ResetDevice>:
  * @brief  Perform the L6470_ResetDevice Application Command for the selected device on the selected Expansion Board.
  * @param  ExpBrd_Id       The addressed Expansion Board
  * @param  L6470_Id        The L6470 identifier inside the daisy chain
  */
void BSP_L6470_ResetDevice(uint8_t ExpBrd_Id, uint8_t L6470_Id)
{
 80020da:	b580      	push	{r7, lr}
 80020dc:	b082      	sub	sp, #8
 80020de:	af00      	add	r7, sp, #0
 80020e0:	4603      	mov	r3, r0
 80020e2:	460a      	mov	r2, r1
 80020e4:	71fb      	strb	r3, [r7, #7]
 80020e6:	4613      	mov	r3, r2
 80020e8:	71bb      	strb	r3, [r7, #6]
  /* Initialize the used GPIO for the L6470 nCS related to the addressed X-NUCLEO-IHM02A1 */
  if (BSP_Select(ExpBrd_Id))
 80020ea:	79fb      	ldrb	r3, [r7, #7]
 80020ec:	4618      	mov	r0, r3
 80020ee:	f000 f8af 	bl	8002250 <BSP_Select>
 80020f2:	4603      	mov	r3, r0
 80020f4:	2b00      	cmp	r3, #0
 80020f6:	d003      	beq.n	8002100 <BSP_L6470_ResetDevice+0x26>
  {
    /* Perform the related L6470 Application Command */
    L6470_ResetDevice(L6470_Id);
 80020f8:	79bb      	ldrb	r3, [r7, #6]
 80020fa:	4618      	mov	r0, r3
 80020fc:	f7ff f894 	bl	8001228 <L6470_ResetDevice>
  }
}
 8002100:	bf00      	nop
 8002102:	3708      	adds	r7, #8
 8002104:	46bd      	mov	sp, r7
 8002106:	bd80      	pop	{r7, pc}

08002108 <BSP_L6470_SoftStop>:
  * @brief  Perform the L6470_SoftStop Application Command for the selected device on the selected Expansion Board.
  * @param  ExpBrd_Id       The addressed Expansion Board
  * @param  L6470_Id        The L6470 identifier inside the daisy chain
  */
void BSP_L6470_SoftStop(uint8_t ExpBrd_Id, uint8_t L6470_Id)
{
 8002108:	b580      	push	{r7, lr}
 800210a:	b082      	sub	sp, #8
 800210c:	af00      	add	r7, sp, #0
 800210e:	4603      	mov	r3, r0
 8002110:	460a      	mov	r2, r1
 8002112:	71fb      	strb	r3, [r7, #7]
 8002114:	4613      	mov	r3, r2
 8002116:	71bb      	strb	r3, [r7, #6]
  /* Initialize the used GPIO for the L6470 nCS related to the addressed X-NUCLEO-IHM02A1 */
  if (BSP_Select(ExpBrd_Id))
 8002118:	79fb      	ldrb	r3, [r7, #7]
 800211a:	4618      	mov	r0, r3
 800211c:	f000 f898 	bl	8002250 <BSP_Select>
 8002120:	4603      	mov	r3, r0
 8002122:	2b00      	cmp	r3, #0
 8002124:	d003      	beq.n	800212e <BSP_L6470_SoftStop+0x26>
  {
    /* Perform the related L6470 Application Command */
    L6470_SoftStop(L6470_Id);
 8002126:	79bb      	ldrb	r3, [r7, #6]
 8002128:	4618      	mov	r0, r3
 800212a:	f7ff f89f 	bl	800126c <L6470_SoftStop>
  }
}
 800212e:	bf00      	nop
 8002130:	3708      	adds	r7, #8
 8002132:	46bd      	mov	sp, r7
 8002134:	bd80      	pop	{r7, pc}

08002136 <BSP_L6470_HardStop>:
  * @brief  Perform the L6470_HardStop Application Command for the selected device on the selected Expansion Board.
  * @param  ExpBrd_Id       The addressed Expansion Board
  * @param  L6470_Id        The L6470 identifier inside the daisy chain
  */
void BSP_L6470_HardStop(uint8_t ExpBrd_Id, uint8_t L6470_Id)
{
 8002136:	b580      	push	{r7, lr}
 8002138:	b082      	sub	sp, #8
 800213a:	af00      	add	r7, sp, #0
 800213c:	4603      	mov	r3, r0
 800213e:	460a      	mov	r2, r1
 8002140:	71fb      	strb	r3, [r7, #7]
 8002142:	4613      	mov	r3, r2
 8002144:	71bb      	strb	r3, [r7, #6]
  /* Initialize the used GPIO for the L6470 nCS related to the addressed X-NUCLEO-IHM02A1 */
  if (BSP_Select(ExpBrd_Id))
 8002146:	79fb      	ldrb	r3, [r7, #7]
 8002148:	4618      	mov	r0, r3
 800214a:	f000 f881 	bl	8002250 <BSP_Select>
 800214e:	4603      	mov	r3, r0
 8002150:	2b00      	cmp	r3, #0
 8002152:	d003      	beq.n	800215c <BSP_L6470_HardStop+0x26>
  {
    /* Perform the related L6470 Application Command */
    L6470_HardStop(L6470_Id);
 8002154:	79bb      	ldrb	r3, [r7, #6]
 8002156:	4618      	mov	r0, r3
 8002158:	f7ff f8aa 	bl	80012b0 <L6470_HardStop>
  }
}
 800215c:	bf00      	nop
 800215e:	3708      	adds	r7, #8
 8002160:	46bd      	mov	sp, r7
 8002162:	bd80      	pop	{r7, pc}

08002164 <BSP_L6470_SoftHiZ>:
  * @brief  Perform the L6470_SoftHiZ Application Command for the selected device on the selected Expansion Board.
  * @param  ExpBrd_Id       The addressed Expansion Board
  * @param  L6470_Id        The L6470 identifier inside the daisy chain
  */
void BSP_L6470_SoftHiZ(uint8_t ExpBrd_Id, uint8_t L6470_Id)
{
 8002164:	b580      	push	{r7, lr}
 8002166:	b082      	sub	sp, #8
 8002168:	af00      	add	r7, sp, #0
 800216a:	4603      	mov	r3, r0
 800216c:	460a      	mov	r2, r1
 800216e:	71fb      	strb	r3, [r7, #7]
 8002170:	4613      	mov	r3, r2
 8002172:	71bb      	strb	r3, [r7, #6]
  /* Initialize the used GPIO for the L6470 nCS related to the addressed X-NUCLEO-IHM02A1 */
  if (BSP_Select(ExpBrd_Id))
 8002174:	79fb      	ldrb	r3, [r7, #7]
 8002176:	4618      	mov	r0, r3
 8002178:	f000 f86a 	bl	8002250 <BSP_Select>
 800217c:	4603      	mov	r3, r0
 800217e:	2b00      	cmp	r3, #0
 8002180:	d003      	beq.n	800218a <BSP_L6470_SoftHiZ+0x26>
  {
    /* Perform the related L6470 Application Command */
    L6470_SoftHiZ(L6470_Id);
 8002182:	79bb      	ldrb	r3, [r7, #6]
 8002184:	4618      	mov	r0, r3
 8002186:	f7ff f8b5 	bl	80012f4 <L6470_SoftHiZ>
  }
}
 800218a:	bf00      	nop
 800218c:	3708      	adds	r7, #8
 800218e:	46bd      	mov	sp, r7
 8002190:	bd80      	pop	{r7, pc}

08002192 <BSP_L6470_HardHiZ>:
  * @brief  Perform the L6470_HardHiZ Application Command for the selected device on the selected Expansion Board.
  * @param  ExpBrd_Id       The addressed Expansion Board
  * @param  L6470_Id        The L6470 identifier inside the daisy chain
  */
void BSP_L6470_HardHiZ(uint8_t ExpBrd_Id, uint8_t L6470_Id)
{
 8002192:	b580      	push	{r7, lr}
 8002194:	b082      	sub	sp, #8
 8002196:	af00      	add	r7, sp, #0
 8002198:	4603      	mov	r3, r0
 800219a:	460a      	mov	r2, r1
 800219c:	71fb      	strb	r3, [r7, #7]
 800219e:	4613      	mov	r3, r2
 80021a0:	71bb      	strb	r3, [r7, #6]
  /* Initialize the used GPIO for the L6470 nCS related to the addressed X-NUCLEO-IHM02A1 */
  if (BSP_Select(ExpBrd_Id))
 80021a2:	79fb      	ldrb	r3, [r7, #7]
 80021a4:	4618      	mov	r0, r3
 80021a6:	f000 f853 	bl	8002250 <BSP_Select>
 80021aa:	4603      	mov	r3, r0
 80021ac:	2b00      	cmp	r3, #0
 80021ae:	d003      	beq.n	80021b8 <BSP_L6470_HardHiZ+0x26>
  {
    /* Perform the related L6470 Application Command */
    L6470_HardHiZ(L6470_Id);
 80021b0:	79bb      	ldrb	r3, [r7, #6]
 80021b2:	4618      	mov	r0, r3
 80021b4:	f7ff f8c0 	bl	8001338 <L6470_HardHiZ>
  }
}
 80021b8:	bf00      	nop
 80021ba:	3708      	adds	r7, #8
 80021bc:	46bd      	mov	sp, r7
 80021be:	bd80      	pop	{r7, pc}

080021c0 <BSP_L6470_GetStatus>:
  * @param  ExpBrd_Id       The addressed Expansion Board
  * @param  L6470_Id        The L6470 identifier inside the daisy chain
  * @retval uint16_t        The value of the L6470 Status Register
  */
uint16_t BSP_L6470_GetStatus(uint8_t ExpBrd_Id, uint8_t L6470_Id)
{
 80021c0:	b580      	push	{r7, lr}
 80021c2:	b082      	sub	sp, #8
 80021c4:	af00      	add	r7, sp, #0
 80021c6:	4603      	mov	r3, r0
 80021c8:	460a      	mov	r2, r1
 80021ca:	71fb      	strb	r3, [r7, #7]
 80021cc:	4613      	mov	r3, r2
 80021ce:	71bb      	strb	r3, [r7, #6]
  /* Initialize the used GPIO for the L6470 nCS related to the addressed X-NUCLEO-IHM02A1 */
  if (BSP_Select(ExpBrd_Id))
 80021d0:	79fb      	ldrb	r3, [r7, #7]
 80021d2:	4618      	mov	r0, r3
 80021d4:	f000 f83c 	bl	8002250 <BSP_Select>
 80021d8:	4603      	mov	r3, r0
 80021da:	2b00      	cmp	r3, #0
 80021dc:	d005      	beq.n	80021ea <BSP_L6470_GetStatus+0x2a>
  {
    /* Perform the related L6470 Application Command */
    return L6470_GetStatus(L6470_Id);
 80021de:	79bb      	ldrb	r3, [r7, #6]
 80021e0:	4618      	mov	r0, r3
 80021e2:	f7ff f8cb 	bl	800137c <L6470_GetStatus>
 80021e6:	4603      	mov	r3, r0
 80021e8:	e000      	b.n	80021ec <BSP_L6470_GetStatus+0x2c>
  }
  else
    return 0;
 80021ea:	2300      	movs	r3, #0
}
 80021ec:	4618      	mov	r0, r3
 80021ee:	3708      	adds	r7, #8
 80021f0:	46bd      	mov	sp, r7
 80021f2:	bd80      	pop	{r7, pc}

080021f4 <BSP_L6470_CheckStatusRegisterFlag>:
  * @param  L6470_Id                    The L6470 identifier inside the daisy chain
  * @param  L6470_StatusRegisterFlagId  The L6470 Status Register Flag identifier
  * @retval uint8_t                     The actual flag status.
  */
uint8_t BSP_L6470_CheckStatusRegisterFlag(uint8_t ExpBrd_Id, uint8_t L6470_Id, uint8_t L6470_StatusRegisterFlagId)
{
 80021f4:	b580      	push	{r7, lr}
 80021f6:	b082      	sub	sp, #8
 80021f8:	af00      	add	r7, sp, #0
 80021fa:	4603      	mov	r3, r0
 80021fc:	71fb      	strb	r3, [r7, #7]
 80021fe:	460b      	mov	r3, r1
 8002200:	71bb      	strb	r3, [r7, #6]
 8002202:	4613      	mov	r3, r2
 8002204:	717b      	strb	r3, [r7, #5]
  /* Initialize the used GPIO for the L6470 nCS related to the addressed X-NUCLEO-IHM02A1 */
  if (BSP_Select(ExpBrd_Id))
 8002206:	79fb      	ldrb	r3, [r7, #7]
 8002208:	4618      	mov	r0, r3
 800220a:	f000 f821 	bl	8002250 <BSP_Select>
 800220e:	4603      	mov	r3, r0
 8002210:	2b00      	cmp	r3, #0
 8002212:	d007      	beq.n	8002224 <BSP_L6470_CheckStatusRegisterFlag+0x30>
  {
    /* Check the flag of the L6470 Register Status related to the device mounted on the addressed X-NUCLEO-IHM02A1 */
    return L6470_CheckStatusRegisterFlag(L6470_Id, L6470_StatusRegisterFlagId);
 8002214:	797a      	ldrb	r2, [r7, #5]
 8002216:	79bb      	ldrb	r3, [r7, #6]
 8002218:	4611      	mov	r1, r2
 800221a:	4618      	mov	r0, r3
 800221c:	f7ff fb2a 	bl	8001874 <L6470_CheckStatusRegisterFlag>
 8002220:	4603      	mov	r3, r0
 8002222:	e000      	b.n	8002226 <BSP_L6470_CheckStatusRegisterFlag+0x32>
  }
  else
    return 0xFF;
 8002224:	23ff      	movs	r3, #255	; 0xff
}
 8002226:	4618      	mov	r0, r3
 8002228:	3708      	adds	r7, #8
 800222a:	46bd      	mov	sp, r7
 800222c:	bd80      	pop	{r7, pc}

0800222e <EXPBRD_ID>:
  *
  * @note The first accepted position is '0'.
  * @note If the position is not allowable the returned value is 0xFF.
  */
uint8_t EXPBRD_ID(uint8_t position)
{
 800222e:	b480      	push	{r7}
 8002230:	b083      	sub	sp, #12
 8002232:	af00      	add	r7, sp, #0
 8002234:	4603      	mov	r3, r0
 8002236:	71fb      	strb	r3, [r7, #7]
  if (position < EXPBRD_MOUNTED_NR)
 8002238:	79fb      	ldrb	r3, [r7, #7]
 800223a:	2b00      	cmp	r3, #0
 800223c:	d101      	bne.n	8002242 <EXPBRD_ID+0x14>
  {
    return (position);
 800223e:	79fb      	ldrb	r3, [r7, #7]
 8002240:	e000      	b.n	8002244 <EXPBRD_ID+0x16>
  }
  else
  {
    return 0xFF;
 8002242:	23ff      	movs	r3, #255	; 0xff
  }
}
 8002244:	4618      	mov	r0, r3
 8002246:	370c      	adds	r7, #12
 8002248:	46bd      	mov	sp, r7
 800224a:	f85d 7b04 	ldr.w	r7, [sp], #4
 800224e:	4770      	bx	lr

08002250 <BSP_Select>:
  * @brief  Select the used SPI nCS mounted on the addressed X-NUCLEO-IHM02A1.
  * @param  ExpBrd_Id   The identifier of the Expansion Board to be addressed.
  * @retval FlagStatus  SET or RESET related to the result.
  */
uint8_t BSP_Select(uint8_t ExpBrd_Id)
{
 8002250:	b480      	push	{r7}
 8002252:	b083      	sub	sp, #12
 8002254:	af00      	add	r7, sp, #0
 8002256:	4603      	mov	r3, r0
 8002258:	71fb      	strb	r3, [r7, #7]
  if (ExpBrd_Id < EXPBRD_MOUNTED_NR)
 800225a:	79fb      	ldrb	r3, [r7, #7]
 800225c:	2b00      	cmp	r3, #0
 800225e:	d121      	bne.n	80022a4 <BSP_Select+0x54>
  {
    L6470_nCS_GPIO.gpio_clk_enable = L6470_nCS_GPIO_Array[ExpBrd_Id].gpio_clk_enable;
 8002260:	79fa      	ldrb	r2, [r7, #7]
 8002262:	4914      	ldr	r1, [pc, #80]	; (80022b4 <BSP_Select+0x64>)
 8002264:	4613      	mov	r3, r2
 8002266:	005b      	lsls	r3, r3, #1
 8002268:	4413      	add	r3, r2
 800226a:	009b      	lsls	r3, r3, #2
 800226c:	440b      	add	r3, r1
 800226e:	681b      	ldr	r3, [r3, #0]
 8002270:	4a11      	ldr	r2, [pc, #68]	; (80022b8 <BSP_Select+0x68>)
 8002272:	6013      	str	r3, [r2, #0]
    L6470_nCS_GPIO.port = L6470_nCS_GPIO_Array[ExpBrd_Id].port;
 8002274:	79fa      	ldrb	r2, [r7, #7]
 8002276:	490f      	ldr	r1, [pc, #60]	; (80022b4 <BSP_Select+0x64>)
 8002278:	4613      	mov	r3, r2
 800227a:	005b      	lsls	r3, r3, #1
 800227c:	4413      	add	r3, r2
 800227e:	009b      	lsls	r3, r3, #2
 8002280:	440b      	add	r3, r1
 8002282:	3304      	adds	r3, #4
 8002284:	681b      	ldr	r3, [r3, #0]
 8002286:	4a0c      	ldr	r2, [pc, #48]	; (80022b8 <BSP_Select+0x68>)
 8002288:	6053      	str	r3, [r2, #4]
    L6470_nCS_GPIO.pin = L6470_nCS_GPIO_Array[ExpBrd_Id].pin;
 800228a:	79fa      	ldrb	r2, [r7, #7]
 800228c:	4909      	ldr	r1, [pc, #36]	; (80022b4 <BSP_Select+0x64>)
 800228e:	4613      	mov	r3, r2
 8002290:	005b      	lsls	r3, r3, #1
 8002292:	4413      	add	r3, r2
 8002294:	009b      	lsls	r3, r3, #2
 8002296:	440b      	add	r3, r1
 8002298:	3308      	adds	r3, #8
 800229a:	881a      	ldrh	r2, [r3, #0]
 800229c:	4b06      	ldr	r3, [pc, #24]	; (80022b8 <BSP_Select+0x68>)
 800229e:	811a      	strh	r2, [r3, #8]
    return SET;
 80022a0:	2301      	movs	r3, #1
 80022a2:	e000      	b.n	80022a6 <BSP_Select+0x56>
  }
  else
    return RESET;
 80022a4:	2300      	movs	r3, #0
}
 80022a6:	4618      	mov	r0, r3
 80022a8:	370c      	adds	r7, #12
 80022aa:	46bd      	mov	sp, r7
 80022ac:	f85d 7b04 	ldr.w	r7, [sp], #4
 80022b0:	4770      	bx	lr
 80022b2:	bf00      	nop
 80022b4:	20000334 	.word	0x20000334
 80022b8:	200003ac 	.word	0x200003ac

080022bc <BSP_Init>:

/**
  * @brief  X-NUCLEO-IHM02A1 initialization
  */
void BSP_Init(void)
{
 80022bc:	b580      	push	{r7, lr}
 80022be:	af00      	add	r7, sp, #0
  /* Select the default L6470_nCS_GPIO */
  BSP_Select(EXPBRD_ID(0));
 80022c0:	2000      	movs	r0, #0
 80022c2:	f7ff ffb4 	bl	800222e <EXPBRD_ID>
 80022c6:	4603      	mov	r3, r0
 80022c8:	4618      	mov	r0, r3
 80022ca:	f7ff ffc1 	bl	8002250 <BSP_Select>
  
  /* Initialize the NUCLEO GPIO used by the X-NUCLEO-IHM02A1 */
  //BSP_NUCLEO_GPIO_Init();
  
  /* Initialize the L6470 devices mounted on the X-NUCLEO-IHM02A1 */
  BSP_L6470_Init();
 80022ce:	f7ff fd53 	bl	8001d78 <BSP_L6470_Init>

  /* Enable the IRQ for the nBUSY_SYNC and the nFLAG of the X-NUCLEO-IHM02A1*/
  BSP_IRQ(ENABLE);
 80022d2:	2001      	movs	r0, #1
 80022d4:	f7ff fda8 	bl	8001e28 <BSP_IRQ>
}
 80022d8:	bf00      	nop
 80022da:	bd80      	pop	{r7, pc}

080022dc <BSP_L6470_BusySynchEventManager>:

/**
  * @brief  This function manages the busy-synch event.
  */
void BSP_L6470_BusySynchEventManager(void)
{
 80022dc:	b480      	push	{r7}
 80022de:	af00      	add	r7, sp, #0
  __NOP();
 80022e0:	bf00      	nop
}
 80022e2:	bf00      	nop
 80022e4:	46bd      	mov	sp, r7
 80022e6:	f85d 7b04 	ldr.w	r7, [sp], #4
 80022ea:	4770      	bx	lr

080022ec <BSP_L6470_FlagEventManager>:

  /**
  * @brief  This function manages the status flag event.
  */
void BSP_L6470_FlagEventManager(void)
{
 80022ec:	b480      	push	{r7}
 80022ee:	af00      	add	r7, sp, #0
  __NOP();
 80022f0:	bf00      	nop
}
 80022f2:	bf00      	nop
 80022f4:	46bd      	mov	sp, r7
 80022f6:	f85d 7b04 	ldr.w	r7, [sp], #4
 80022fa:	4770      	bx	lr

080022fc <BSP_EmergencyStop>:

/**
  * @brief  This function will stop all motors connected to all stacked expansion board.
  */
void BSP_EmergencyStop(void)
{
 80022fc:	b580      	push	{r7, lr}
 80022fe:	af00      	add	r7, sp, #0
  /* Disable the L6470 */
  L6470_DISABLE();
 8002300:	4b04      	ldr	r3, [pc, #16]	; (8002314 <BSP_EmergencyStop+0x18>)
 8002302:	685b      	ldr	r3, [r3, #4]
 8002304:	4a03      	ldr	r2, [pc, #12]	; (8002314 <BSP_EmergencyStop+0x18>)
 8002306:	8911      	ldrh	r1, [r2, #8]
 8002308:	2200      	movs	r2, #0
 800230a:	4618      	mov	r0, r3
 800230c:	f002 fc14 	bl	8004b38 <HAL_GPIO_WritePin>
  
  while(1);
 8002310:	e7fe      	b.n	8002310 <BSP_EmergencyStop+0x14>
 8002312:	bf00      	nop
 8002314:	20000328 	.word	0x20000328

08002318 <BSP_0_Config>:
/**
 * @brief   Initialize the data structure related to the stepper motor board #0.
 * @param   MotorParameterData_t* The pointer to the related parameter data structure.
 */
void BSP_0_Config(MotorParameterData_t *MotorParameterData)
{
 8002318:	b580      	push	{r7, lr}
 800231a:	b084      	sub	sp, #16
 800231c:	af00      	add	r7, sp, #0
 800231e:	6078      	str	r0, [r7, #4]
  StepperMotorBoardHandle_t *StepperMotorBoardHandle;
  
  StepperMotorBoardHandle = &XNUCLEOIHM02A1Drv[0];
 8002320:	4b04      	ldr	r3, [pc, #16]	; (8002334 <BSP_0_Config+0x1c>)
 8002322:	60fb      	str	r3, [r7, #12]
  BSP_Config(StepperMotorBoardHandle, MotorParameterData);
 8002324:	6879      	ldr	r1, [r7, #4]
 8002326:	68f8      	ldr	r0, [r7, #12]
 8002328:	f000 f8f0 	bl	800250c <BSP_Config>
}
 800232c:	bf00      	nop
 800232e:	3710      	adds	r7, #16
 8002330:	46bd      	mov	sp, r7
 8002332:	bd80      	pop	{r7, pc}
 8002334:	200002c8 	.word	0x200002c8

08002338 <BSP_1_Config>:
/**
 * @brief   Initialize the data structure related to the stepper motor board #1.
