Archive member included to satisfy reference by file (symbol)

c:/st/stm32cubeide_1.6.1/stm32cubeide/plugins/com.st.stm32cube.ide.mcu.externaltools.gnu-tools-for-stm32.9-2020-q2-update.win32_1.5.0.202011040924/tools/bin/../lib/gcc/arm-none-eabi/9.3.1/../../../../arm-none-eabi/lib/thumb/v7e-m+fp/hard\libc_nano.a(lib_a-errno.o)
                              Core/Src/syscalls.o (__errno)
c:/st/stm32cubeide_1.6.1/stm32cubeide/plugins/com.st.stm32cube.ide.mcu.externaltools.gnu-tools-for-stm32.9-2020-q2-update.win32_1.5.0.202011040924/tools/bin/../lib/gcc/arm-none-eabi/9.3.1/../../../../arm-none-eabi/lib/thumb/v7e-m+fp/hard\libc_nano.a(lib_a-exit.o)
                              c:/st/stm32cubeide_1.6.1/stm32cubeide/plugins/com.st.stm32cube.ide.mcu.externaltools.gnu-tools-for-stm32.9-2020-q2-update.win32_1.5.0.202011040924/tools/bin/../lib/gcc/arm-none-eabi/9.3.1/../../../../arm-none-eabi/lib/thumb/v7e-m+fp/hard/crt0.o (exit)
c:/st/stm32cubeide_1.6.1/stm32cubeide/plugins/com.st.stm32cube.ide.mcu.externaltools.gnu-tools-for-stm32.9-2020-q2-update.win32_1.5.0.202011040924/tools/bin/../lib/gcc/arm-none-eabi/9.3.1/../../../../arm-none-eabi/lib/thumb/v7e-m+fp/hard\libc_nano.a(lib_a-impure.o)
                              c:/st/stm32cubeide_1.6.1/stm32cubeide/plugins/com.st.stm32cube.ide.mcu.externaltools.gnu-tools-for-stm32.9-2020-q2-update.win32_1.5.0.202011040924/tools/bin/../lib/gcc/arm-none-eabi/9.3.1/../../../../arm-none-eabi/lib/thumb/v7e-m+fp/hard\libc_nano.a(lib_a-exit.o) (_global_impure_ptr)
c:/st/stm32cubeide_1.6.1/stm32cubeide/plugins/com.st.stm32cube.ide.mcu.externaltools.gnu-tools-for-stm32.9-2020-q2-update.win32_1.5.0.202011040924/tools/bin/../lib/gcc/arm-none-eabi/9.3.1/../../../../arm-none-eabi/lib/thumb/v7e-m+fp/hard\libc_nano.a(lib_a-init.o)
                              c:/st/stm32cubeide_1.6.1/stm32cubeide/plugins/com.st.stm32cube.ide.mcu.externaltools.gnu-tools-for-stm32.9-2020-q2-update.win32_1.5.0.202011040924/tools/bin/../lib/gcc/arm-none-eabi/9.3.1/../../../../arm-none-eabi/lib/thumb/v7e-m+fp/hard/crt0.o (__libc_init_array)
c:/st/stm32cubeide_1.6.1/stm32cubeide/plugins/com.st.stm32cube.ide.mcu.externaltools.gnu-tools-for-stm32.9-2020-q2-update.win32_1.5.0.202011040924/tools/bin/../lib/gcc/arm-none-eabi/9.3.1/../../../../arm-none-eabi/lib/thumb/v7e-m+fp/hard\libc_nano.a(lib_a-memset.o)
                              c:/st/stm32cubeide_1.6.1/stm32cubeide/plugins/com.st.stm32cube.ide.mcu.externaltools.gnu-tools-for-stm32.9-2020-q2-update.win32_1.5.0.202011040924/tools/bin/../lib/gcc/arm-none-eabi/9.3.1/../../../../arm-none-eabi/lib/thumb/v7e-m+fp/hard/crt0.o (memset)
c:/st/stm32cubeide_1.6.1/stm32cubeide/plugins/com.st.stm32cube.ide.mcu.externaltools.gnu-tools-for-stm32.9-2020-q2-update.win32_1.5.0.202011040924/tools/bin/../lib/gcc/arm-none-eabi/9.3.1/thumb/v7e-m+fp/hard\libgcc.a(_arm_muldf3.o)
                              Core/BSP/Components/L6470/L6470.o (__aeabi_dmul)
c:/st/stm32cubeide_1.6.1/stm32cubeide/plugins/com.st.stm32cube.ide.mcu.externaltools.gnu-tools-for-stm32.9-2020-q2-update.win32_1.5.0.202011040924/tools/bin/../lib/gcc/arm-none-eabi/9.3.1/thumb/v7e-m+fp/hard\libgcc.a(_arm_addsubdf3.o)
                              Core/BSP/Components/L6470/L6470.o (__aeabi_dadd)
c:/st/stm32cubeide_1.6.1/stm32cubeide/plugins/com.st.stm32cube.ide.mcu.externaltools.gnu-tools-for-stm32.9-2020-q2-update.win32_1.5.0.202011040924/tools/bin/../lib/gcc/arm-none-eabi/9.3.1/thumb/v7e-m+fp/hard\libgcc.a(_arm_truncdfsf2.o)
                              Core/BSP/Components/L6470/L6470.o (__aeabi_d2f)
c:/st/stm32cubeide_1.6.1/stm32cubeide/plugins/com.st.stm32cube.ide.mcu.externaltools.gnu-tools-for-stm32.9-2020-q2-update.win32_1.5.0.202011040924/tools/bin/../lib/gcc/arm-none-eabi/9.3.1/thumb/v7e-m+fp/hard\libgcc.a(_aeabi_uldivmod.o)
                              Drivers/STM32F7xx_HAL_Driver/Src/stm32f7xx_hal_rcc.o (__aeabi_uldivmod)
c:/st/stm32cubeide_1.6.1/stm32cubeide/plugins/com.st.stm32cube.ide.mcu.externaltools.gnu-tools-for-stm32.9-2020-q2-update.win32_1.5.0.202011040924/tools/bin/../lib/gcc/arm-none-eabi/9.3.1/thumb/v7e-m+fp/hard\libgcc.a(_udivmoddi4.o)
                              c:/st/stm32cubeide_1.6.1/stm32cubeide/plugins/com.st.stm32cube.ide.mcu.externaltools.gnu-tools-for-stm32.9-2020-q2-update.win32_1.5.0.202011040924/tools/bin/../lib/gcc/arm-none-eabi/9.3.1/thumb/v7e-m+fp/hard\libgcc.a(_aeabi_uldivmod.o) (__udivmoddi4)
c:/st/stm32cubeide_1.6.1/stm32cubeide/plugins/com.st.stm32cube.ide.mcu.externaltools.gnu-tools-for-stm32.9-2020-q2-update.win32_1.5.0.202011040924/tools/bin/../lib/gcc/arm-none-eabi/9.3.1/thumb/v7e-m+fp/hard\libgcc.a(_dvmd_tls.o)
                              c:/st/stm32cubeide_1.6.1/stm32cubeide/plugins/com.st.stm32cube.ide.mcu.externaltools.gnu-tools-for-stm32.9-2020-q2-update.win32_1.5.0.202011040924/tools/bin/../lib/gcc/arm-none-eabi/9.3.1/thumb/v7e-m+fp/hard\libgcc.a(_aeabi_uldivmod.o) (__aeabi_ldiv0)

Allocating common symbols
Common symbol       size              file

L6470_DaisyChainSpiRxStruct
                    0x8               Core/BSP/Components/L6470/L6470.o
MotorParameterDataGlobal
                    0x4               Core/MotionControl/MicrosteppingMotor/Src/example.o
huart3              0x84              Core/Src/usart.o
L6470_DaisyChainSpiTxStruct
                    0x8               Core/BSP/Components/L6470/L6470.o
L6470_nCS_GPIO      0xc               Core/BSP/X-NUCLEO-IHM02A1/xnucleoihm02a1.o
uwTick              0x4               Drivers/STM32F7xx_HAL_Driver/Src/stm32f7xx_hal.o
L6470_AppCmdPkg     0x20              Core/BSP/Components/L6470/L6470.o
pFlash              0x1c              Drivers/STM32F7xx_HAL_Driver/Src/stm32f7xx_hal_flash.o
MotorParameterDataSingle
                    0x4               Core/MotionControl/MicrosteppingMotor/Src/example.o
StatusBuffer        0x4               Core/BSP/X-NUCLEO-IHM02A1/xnucleoihm02a1.o
hadc3               0x48              Core/Src/adc.o
L6470_StatusRegister
                    0x2               Core/BSP/Components/L6470/L6470.o
L6470_DaisyChainMnemonic
                    0x1a              Core/MotionControl/MicrosteppingMotor/Src/example_usart.o
hspi1               0x64              Core/Src/spi.o
L6470_TextCommandBundle
                    0x60              Core/MotionControl/MicrosteppingMotor/Src/example_usart.o
heth                0x48              Core/Src/eth.o
StepperMotorBoardHandle
                    0x4               Core/MotionControl/MicrosteppingMotor/Src/example.o
UsartTextString     0x40              Core/MotionControl/MicrosteppingMotor/Src/example_usart.o
delay_cnt           0x1               Core/BSP/Components/L6470/L6470.o

Discarded input sections

 .text          0x0000000000000000        0x0 c:/st/stm32cubeide_1.6.1/stm32cubeide/plugins/com.st.stm32cube.ide.mcu.externaltools.gnu-tools-for-stm32.9-2020-q2-update.win32_1.5.0.202011040924/tools/bin/../lib/gcc/arm-none-eabi/9.3.1/thumb/v7e-m+fp/hard/crti.o
 .data          0x0000000000000000        0x0 c:/st/stm32cubeide_1.6.1/stm32cubeide/plugins/com.st.stm32cube.ide.mcu.externaltools.gnu-tools-for-stm32.9-2020-q2-update.win32_1.5.0.202011040924/tools/bin/../lib/gcc/arm-none-eabi/9.3.1/thumb/v7e-m+fp/hard/crti.o
 .bss           0x0000000000000000        0x0 c:/st/stm32cubeide_1.6.1/stm32cubeide/plugins/com.st.stm32cube.ide.mcu.externaltools.gnu-tools-for-stm32.9-2020-q2-update.win32_1.5.0.202011040924/tools/bin/../lib/gcc/arm-none-eabi/9.3.1/thumb/v7e-m+fp/hard/crti.o
 .data          0x0000000000000000        0x4 c:/st/stm32cubeide_1.6.1/stm32cubeide/plugins/com.st.stm32cube.ide.mcu.externaltools.gnu-tools-for-stm32.9-2020-q2-update.win32_1.5.0.202011040924/tools/bin/../lib/gcc/arm-none-eabi/9.3.1/thumb/v7e-m+fp/hard/crtbegin.o
 .text          0x0000000000000000       0x7c c:/st/stm32cubeide_1.6.1/stm32cubeide/plugins/com.st.stm32cube.ide.mcu.externaltools.gnu-tools-for-stm32.9-2020-q2-update.win32_1.5.0.202011040924/tools/bin/../lib/gcc/arm-none-eabi/9.3.1/../../../../arm-none-eabi/lib/thumb/v7e-m+fp/hard/crt0.o
 .data          0x0000000000000000        0x0 c:/st/stm32cubeide_1.6.1/stm32cubeide/plugins/com.st.stm32cube.ide.mcu.externaltools.gnu-tools-for-stm32.9-2020-q2-update.win32_1.5.0.202011040924/tools/bin/../lib/gcc/arm-none-eabi/9.3.1/../../../../arm-none-eabi/lib/thumb/v7e-m+fp/hard/crt0.o
 .bss           0x0000000000000000        0x0 c:/st/stm32cubeide_1.6.1/stm32cubeide/plugins/com.st.stm32cube.ide.mcu.externaltools.gnu-tools-for-stm32.9-2020-q2-update.win32_1.5.0.202011040924/tools/bin/../lib/gcc/arm-none-eabi/9.3.1/../../../../arm-none-eabi/lib/thumb/v7e-m+fp/hard/crt0.o
 .ARM.extab     0x0000000000000000        0x0 c:/st/stm32cubeide_1.6.1/stm32cubeide/plugins/com.st.stm32cube.ide.mcu.externaltools.gnu-tools-for-stm32.9-2020-q2-update.win32_1.5.0.202011040924/tools/bin/../lib/gcc/arm-none-eabi/9.3.1/../../../../arm-none-eabi/lib/thumb/v7e-m+fp/hard/crt0.o
 .ARM.exidx     0x0000000000000000       0x10 c:/st/stm32cubeide_1.6.1/stm32cubeide/plugins/com.st.stm32cube.ide.mcu.externaltools.gnu-tools-for-stm32.9-2020-q2-update.win32_1.5.0.202011040924/tools/bin/../lib/gcc/arm-none-eabi/9.3.1/../../../../arm-none-eabi/lib/thumb/v7e-m+fp/hard/crt0.o
 .ARM.attributes
                0x0000000000000000       0x1c c:/st/stm32cubeide_1.6.1/stm32cubeide/plugins/com.st.stm32cube.ide.mcu.externaltools.gnu-tools-for-stm32.9-2020-q2-update.win32_1.5.0.202011040924/tools/bin/../lib/gcc/arm-none-eabi/9.3.1/../../../../arm-none-eabi/lib/thumb/v7e-m+fp/hard/crt0.o
 .group         0x0000000000000000        0xc Core/BSP/Components/L6470/L6470.o
 .group         0x0000000000000000        0xc Core/BSP/Components/L6470/L6470.o
 .group         0x0000000000000000        0xc Core/BSP/Components/L6470/L6470.o
 .group         0x0000000000000000        0xc Core/BSP/Components/L6470/L6470.o
 .group         0x0000000000000000        0xc Core/BSP/Components/L6470/L6470.o
 .group         0x0000000000000000        0xc Core/BSP/Components/L6470/L6470.o
 .group         0x0000000000000000        0xc Core/BSP/Components/L6470/L6470.o
Memory Configuration

Name             Origin             Length             Attributes
RAM              0x0000000020000000 0x0000000000050000 xrw
FLASH            0x0000000008000000 0x0000000000100000 xr
*default*        0x0000000000000000 0xffffffffffffffff

Linker script and memory map

LOAD c:/st/stm32cubeide_1.6.1/stm32cubeide/plugins/com.st.stm32cube.ide.mcu.externaltools.gnu-tools-for-stm32.9-2020-q2-update.win32_1.5.0.202011040924/tools/bin/../lib/gcc/arm-none-eabi/9.3.1/thumb/v7e-m+fp/hard/crti.o
LOAD c:/st/stm32cubeide_1.6.1/stm32cubeide/plugins/com.st.stm32cube.ide.mcu.externaltools.gnu-tools-for-stm32.9-2020-q2-update.win32_1.5.0.202011040924/tools/bin/../lib/gcc/arm-none-eabi/9.3.1/thumb/v7e-m+fp/hard/crtbegin.o
LOAD c:/st/stm32cubeide_1.6.1/stm32cubeide/plugins/com.st.stm32cube.ide.mcu.externaltools.gnu-tools-for-stm32.9-2020-q2-update.win32_1.5.0.202011040924/tools/bin/../lib/gcc/arm-none-eabi/9.3.1/../../../../arm-none-eabi/lib/thumb/v7e-m+fp/hard/crt0.o
LOAD Core/BSP/Components/L6470/L6470.o
LOAD Core/BSP/X-NUCLEO-IHM02A1/xnucleoihm02a1.o
LOAD Core/MotionControl/MicrosteppingMotor/Src/example.o
LOAD Core/MotionControl/MicrosteppingMotor/Src/example_usart.o
LOAD Core/MotionControl/MicrosteppingMotor/Src/main_app.o
LOAD Core/MotionControl/MicrosteppingMotor/Src/params.o
LOAD Core/Src/adc.o
LOAD Core/Src/eth.o
LOAD Core/Src/gpio.o
LOAD Core/Src/main.o
LOAD Core/Src/spi.o
LOAD Core/Src/stm32f7xx_hal_msp.o
LOAD Core/Src/stm32f7xx_it.o
LOAD Core/Src/syscalls.o
LOAD Core/Src/sysmem.o
LOAD Core/Src/system_stm32f7xx.o
LOAD Core/Src/usart.o
LOAD Core/Startup/startup_stm32f746zgtx.o
LOAD Drivers/STM32F7xx_HAL_Driver/Src/stm32f7xx_hal.o
LOAD Drivers/STM32F7xx_HAL_Driver/Src/stm32f7xx_hal_adc.o
LOAD Drivers/STM32F7xx_HAL_Driver/Src/stm32f7xx_hal_adc_ex.o
LOAD Drivers/STM32F7xx_HAL_Driver/Src/stm32f7xx_hal_cortex.o
LOAD Drivers/STM32F7xx_HAL_Driver/Src/stm32f7xx_hal_dma.o
LOAD Drivers/STM32F7xx_HAL_Driver/Src/stm32f7xx_hal_dma_ex.o
LOAD Drivers/STM32F7xx_HAL_Driver/Src/stm32f7xx_hal_eth.o
LOAD Drivers/STM32F7xx_HAL_Driver/Src/stm32f7xx_hal_exti.o
LOAD Drivers/STM32F7xx_HAL_Driver/Src/stm32f7xx_hal_flash.o
LOAD Drivers/STM32F7xx_HAL_Driver/Src/stm32f7xx_hal_flash_ex.o
LOAD Drivers/STM32F7xx_HAL_Driver/Src/stm32f7xx_hal_gpio.o
LOAD Drivers/STM32F7xx_HAL_Driver/Src/stm32f7xx_hal_i2c.o
LOAD Drivers/STM32F7xx_HAL_Driver/Src/stm32f7xx_hal_i2c_ex.o
LOAD Drivers/STM32F7xx_HAL_Driver/Src/stm32f7xx_hal_pwr.o
LOAD Drivers/STM32F7xx_HAL_Driver/Src/stm32f7xx_hal_pwr_ex.o
LOAD Drivers/STM32F7xx_HAL_Driver/Src/stm32f7xx_hal_rcc.o
LOAD Drivers/STM32F7xx_HAL_Driver/Src/stm32f7xx_hal_rcc_ex.o
LOAD Drivers/STM32F7xx_HAL_Driver/Src/stm32f7xx_hal_spi.o
LOAD Drivers/STM32F7xx_HAL_Driver/Src/stm32f7xx_hal_spi_ex.o
LOAD Drivers/STM32F7xx_HAL_Driver/Src/stm32f7xx_hal_tim.o
LOAD Drivers/STM32F7xx_HAL_Driver/Src/stm32f7xx_hal_tim_ex.o
LOAD Drivers/STM32F7xx_HAL_Driver/Src/stm32f7xx_hal_uart.o
LOAD Drivers/STM32F7xx_HAL_Driver/Src/stm32f7xx_hal_uart_ex.o
START GROUP
LOAD c:/st/stm32cubeide_1.6.1/stm32cubeide/plugins/com.st.stm32cube.ide.mcu.externaltools.gnu-tools-for-stm32.9-2020-q2-update.win32_1.5.0.202011040924/tools/bin/../lib/gcc/arm-none-eabi/9.3.1/../../../../arm-none-eabi/lib/thumb/v7e-m+fp/hard\libc_nano.a
LOAD c:/st/stm32cubeide_1.6.1/stm32cubeide/plugins/com.st.stm32cube.ide.mcu.externaltools.gnu-tools-for-stm32.9-2020-q2-update.win32_1.5.0.202011040924/tools/bin/../lib/gcc/arm-none-eabi/9.3.1/../../../../arm-none-eabi/lib/thumb/v7e-m+fp/hard\libm.a
END GROUP
START GROUP
LOAD c:/st/stm32cubeide_1.6.1/stm32cubeide/plugins/com.st.stm32cube.ide.mcu.externaltools.gnu-tools-for-stm32.9-2020-q2-update.win32_1.5.0.202011040924/tools/bin/../lib/gcc/arm-none-eabi/9.3.1/thumb/v7e-m+fp/hard\libgcc.a
LOAD c:/st/stm32cubeide_1.6.1/stm32cubeide/plugins/com.st.stm32cube.ide.mcu.externaltools.gnu-tools-for-stm32.9-2020-q2-update.win32_1.5.0.202011040924/tools/bin/../lib/gcc/arm-none-eabi/9.3.1/../../../../arm-none-eabi/lib/thumb/v7e-m+fp/hard\libc_nano.a
END GROUP
START GROUP
LOAD c:/st/stm32cubeide_1.6.1/stm32cubeide/plugins/com.st.stm32cube.ide.mcu.externaltools.gnu-tools-for-stm32.9-2020-q2-update.win32_1.5.0.202011040924/tools/bin/../lib/gcc/arm-none-eabi/9.3.1/thumb/v7e-m+fp/hard\libgcc.a
LOAD c:/st/stm32cubeide_1.6.1/stm32cubeide/plugins/com.st.stm32cube.ide.mcu.externaltools.gnu-tools-for-stm32.9-2020-q2-update.win32_1.5.0.202011040924/tools/bin/../lib/gcc/arm-none-eabi/9.3.1/../../../../arm-none-eabi/lib/thumb/v7e-m+fp/hard\libc_nano.a
LOAD c:/st/stm32cubeide_1.6.1/stm32cubeide/plugins/com.st.stm32cube.ide.mcu.externaltools.gnu-tools-for-stm32.9-2020-q2-update.win32_1.5.0.202011040924/tools/bin/../lib/gcc/arm-none-eabi/9.3.1/../../../../arm-none-eabi/lib/thumb/v7e-m+fp/hard\libnosys.a
END GROUP
START GROUP
LOAD c:/st/stm32cubeide_1.6.1/stm32cubeide/plugins/com.st.stm32cube.ide.mcu.externaltools.gnu-tools-for-stm32.9-2020-q2-update.win32_1.5.0.202011040924/tools/bin/../lib/gcc/arm-none-eabi/9.3.1/thumb/v7e-m+fp/hard\libgcc.a
LOAD c:/st/stm32cubeide_1.6.1/stm32cubeide/plugins/com.st.stm32cube.ide.mcu.externaltools.gnu-tools-for-stm32.9-2020-q2-update.win32_1.5.0.202011040924/tools/bin/../lib/gcc/arm-none-eabi/9.3.1/../../../../arm-none-eabi/lib/thumb/v7e-m+fp/hard\libc_nano.a
LOAD c:/st/stm32cubeide_1.6.1/stm32cubeide/plugins/com.st.stm32cube.ide.mcu.externaltools.gnu-tools-for-stm32.9-2020-q2-update.win32_1.5.0.202011040924/tools/bin/../lib/gcc/arm-none-eabi/9.3.1/../../../../arm-none-eabi/lib/thumb/v7e-m+fp/hard\libnosys.a
END GROUP
LOAD c:/st/stm32cubeide_1.6.1/stm32cubeide/plugins/com.st.stm32cube.ide.mcu.externaltools.gnu-tools-for-stm32.9-2020-q2-update.win32_1.5.0.202011040924/tools/bin/../lib/gcc/arm-none-eabi/9.3.1/thumb/v7e-m+fp/hard/crtend.o
LOAD c:/st/stm32cubeide_1.6.1/stm32cubeide/plugins/com.st.stm32cube.ide.mcu.externaltools.gnu-tools-for-stm32.9-2020-q2-update.win32_1.5.0.202011040924/tools/bin/../lib/gcc/arm-none-eabi/9.3.1/thumb/v7e-m+fp/hard/crtn.o
                0x0000000020050000                _estack = (ORIGIN (RAM) + LENGTH (RAM))
                0x0000000000000200                _Min_Heap_Size = 0x200
                0x0000000000000400                _Min_Stack_Size = 0x400

.isr_vector     0x0000000008000000      0x1c8
                0x0000000008000000                . = ALIGN (0x4)
 *(.isr_vector)
 .isr_vector    0x0000000008000000      0x1c8 Core/Startup/startup_stm32f746zgtx.o
                0x0000000008000000                g_pfnVectors
                0x00000000080001c8                . = ALIGN (0x4)

.text           0x00000000080001c8     0x6d78
                0x00000000080001c8                . = ALIGN (0x4)
 *(.text)
 .text          0x00000000080001c8       0x40 c:/st/stm32cubeide_1.6.1/stm32cubeide/plugins/com.st.stm32cube.ide.mcu.externaltools.gnu-tools-for-stm32.9-2020-q2-update.win32_1.5.0.202011040924/tools/bin/../lib/gcc/arm-none-eabi/9.3.1/thumb/v7e-m+fp/hard/crtbegin.o
 .text          0x0000000008000208       0x30 c:/st/stm32cubeide_1.6.1/stm32cubeide/plugins/com.st.stm32cube.ide.mcu.externaltools.gnu-tools-for-stm32.9-2020-q2-update.win32_1.5.0.202011040924/tools/bin/../lib/gcc/arm-none-eabi/9.3.1/thumb/v7e-m+fp/hard\libgcc.a(_aeabi_uldivmod.o)
                0x0000000008000208                __aeabi_uldivmod
 .text          0x0000000008000238      0x2c4 c:/st/stm32cubeide_1.6.1/stm32cubeide/plugins/com.st.stm32cube.ide.mcu.externaltools.gnu-tools-for-stm32.9-2020-q2-update.win32_1.5.0.202011040924/tools/bin/../lib/gcc/arm-none-eabi/9.3.1/thumb/v7e-m+fp/hard\libgcc.a(_udivmoddi4.o)
                0x0000000008000238                __udivmoddi4
 .text          0x00000000080004fc        0x4 c:/st/stm32cubeide_1.6.1/stm32cubeide/plugins/com.st.stm32cube.ide.mcu.externaltools.gnu-tools-for-stm32.9-2020-q2-update.win32_1.5.0.202011040924/tools/bin/../lib/gcc/arm-none-eabi/9.3.1/thumb/v7e-m+fp/hard\libgcc.a(_dvmd_tls.o)
                0x00000000080004fc                __aeabi_idiv0
                0x00000000080004fc                __aeabi_ldiv0
 *(.text*)
 .text.L6470_ResetAppCmdPkg
                0x0000000008000500       0x58 Core/BSP/Components/L6470/L6470.o
                0x0000000008000500                L6470_ResetAppCmdPkg
 .text.L6470_FillAppCmdPkg
                0x0000000008000558       0x4e Core/BSP/Components/L6470/L6470.o
                0x0000000008000558                L6470_FillAppCmdPkg
 *fill*         0x00000000080005a6        0x2 
 .text.L6470_PrepareAppCmdPkg
                0x00000000080005a8       0x48 Core/BSP/Components/L6470/L6470.o
                0x00000000080005a8                L6470_PrepareAppCmdPkg
 .text.L6470_PrepareDaisyChainCommand
                0x00000000080005f0      0x458 Core/BSP/Components/L6470/L6470.o
                0x00000000080005f0                L6470_PrepareDaisyChainCommand
 .text.Step_s_2_Speed
                0x0000000008000a48       0x48 Core/BSP/Components/L6470/L6470.o
                0x0000000008000a48                Step_s_2_Speed
 .text.Step_s2_2_Acc
                0x0000000008000a90       0x4c Core/BSP/Components/L6470/L6470.o
                0x0000000008000a90                Step_s2_2_Acc
 .text.Step_s2_2_Dec
                0x0000000008000adc       0x4c Core/BSP/Components/L6470/L6470.o
                0x0000000008000adc                Step_s2_2_Dec
 .text.Step_s_2_MaxSpeed
                0x0000000008000b28       0x4c Core/BSP/Components/L6470/L6470.o
                0x0000000008000b28                Step_s_2_MaxSpeed
 .text.Step_s_2_MinSpeed
                0x0000000008000b74       0x4c Core/BSP/Components/L6470/L6470.o
                0x0000000008000b74                Step_s_2_MinSpeed
 .text.Step_s_2_FsSpd
                0x0000000008000bc0       0x54 Core/BSP/Components/L6470/L6470.o
                0x0000000008000bc0                Step_s_2_FsSpd
 .text.Step_s_2_IntSpeed
                0x0000000008000c14       0x4c Core/BSP/Components/L6470/L6470.o
                0x0000000008000c14                Step_s_2_IntSpeed
 .text.s_Step_2_StSlp
                0x0000000008000c60       0x4c Core/BSP/Components/L6470/L6470.o
                0x0000000008000c60                s_Step_2_StSlp
 .text.s_Step_2_FnSlpAcc
                0x0000000008000cac       0x4c Core/BSP/Components/L6470/L6470.o
                0x0000000008000cac                s_Step_2_FnSlpAcc
 .text.s_Step_2_FnSlpDec
                0x0000000008000cf8       0x4c Core/BSP/Components/L6470/L6470.o
                0x0000000008000cf8                s_Step_2_FnSlpDec
 .text.mA_2_OcdTh
                0x0000000008000d44       0xa0 Core/BSP/Components/L6470/L6470.o
                0x0000000008000d44                mA_2_OcdTh
 .text.mA_2_StallTh
                0x0000000008000de4       0xa0 Core/BSP/Components/L6470/L6470.o
                0x0000000008000de4                mA_2_StallTh
 .text.L6470_SetParam
                0x0000000008000e84       0x4c Core/BSP/Components/L6470/L6470.o
                0x0000000008000e84                L6470_SetParam
 .text.L6470_GetParam
                0x0000000008000ed0       0x70 Core/BSP/Components/L6470/L6470.o
                0x0000000008000ed0                L6470_GetParam
 .text.L6470_Run
                0x0000000008000f40       0x4c Core/BSP/Components/L6470/L6470.o
                0x0000000008000f40                L6470_Run
 .text.L6470_StepClock
                0x0000000008000f8c       0x48 Core/BSP/Components/L6470/L6470.o
                0x0000000008000f8c                L6470_StepClock
 .text.L6470_Move
                0x0000000008000fd4       0x4c Core/BSP/Components/L6470/L6470.o
                0x0000000008000fd4                L6470_Move
 .text.L6470_GoTo
                0x0000000008001020       0x4c Core/BSP/Components/L6470/L6470.o
                0x0000000008001020                L6470_GoTo
 .text.L6470_GoToDir
                0x000000000800106c       0x54 Core/BSP/Components/L6470/L6470.o
                0x000000000800106c                L6470_GoToDir
 .text.L6470_GoUntil
                0x00000000080010c0       0x50 Core/BSP/Components/L6470/L6470.o
                0x00000000080010c0                L6470_GoUntil
 .text.L6470_ReleaseSW
                0x0000000008001110       0x4c Core/BSP/Components/L6470/L6470.o
                0x0000000008001110                L6470_ReleaseSW
 .text.L6470_GoHome
                0x000000000800115c       0x44 Core/BSP/Components/L6470/L6470.o
                0x000000000800115c                L6470_GoHome
 .text.L6470_GoMark
                0x00000000080011a0       0x44 Core/BSP/Components/L6470/L6470.o
                0x00000000080011a0                L6470_GoMark
 .text.L6470_ResetPos
                0x00000000080011e4       0x44 Core/BSP/Components/L6470/L6470.o
                0x00000000080011e4                L6470_ResetPos
 .text.L6470_ResetDevice
                0x0000000008001228       0x44 Core/BSP/Components/L6470/L6470.o
                0x0000000008001228                L6470_ResetDevice
 .text.L6470_SoftStop
                0x000000000800126c       0x44 Core/BSP/Components/L6470/L6470.o
                0x000000000800126c                L6470_SoftStop
 .text.L6470_HardStop
                0x00000000080012b0       0x44 Core/BSP/Components/L6470/L6470.o
                0x00000000080012b0                L6470_HardStop
 .text.L6470_SoftHiZ
                0x00000000080012f4       0x44 Core/BSP/Components/L6470/L6470.o
                0x00000000080012f4                L6470_SoftHiZ
 .text.L6470_HardHiZ
                0x0000000008001338       0x44 Core/BSP/Components/L6470/L6470.o
                0x0000000008001338                L6470_HardHiZ
 .text.L6470_GetStatus
                0x000000000800137c       0x54 Core/BSP/Components/L6470/L6470.o
                0x000000000800137c                L6470_GetStatus
 .text.L6470_PrepareSetParam
                0x00000000080013d0       0x34 Core/BSP/Components/L6470/L6470.o
                0x00000000080013d0                L6470_PrepareSetParam
 .text.L6470_PrepareGetParam
                0x0000000008001404       0x30 Core/BSP/Components/L6470/L6470.o
                0x0000000008001404                L6470_PrepareGetParam
 .text.L6470_PrepareRun
                0x0000000008001434       0x34 Core/BSP/Components/L6470/L6470.o
                0x0000000008001434                L6470_PrepareRun
 .text.L6470_PrepareStepClock
                0x0000000008001468       0x30 Core/BSP/Components/L6470/L6470.o
                0x0000000008001468                L6470_PrepareStepClock
 .text.L6470_PrepareMove
                0x0000000008001498       0x34 Core/BSP/Components/L6470/L6470.o
                0x0000000008001498                L6470_PrepareMove
 .text.L6470_PrepareGoTo
                0x00000000080014cc       0x2c Core/BSP/Components/L6470/L6470.o
                0x00000000080014cc                L6470_PrepareGoTo
 .text.L6470_PrepareGoToDir
                0x00000000080014f8       0x34 Core/BSP/Components/L6470/L6470.o
                0x00000000080014f8                L6470_PrepareGoToDir
 .text.L6470_PrepareGoUntil
                0x000000000800152c       0x38 Core/BSP/Components/L6470/L6470.o
                0x000000000800152c                L6470_PrepareGoUntil
 .text.L6470_PrepareReleaseSW
                0x0000000008001564       0x34 Core/BSP/Components/L6470/L6470.o
                0x0000000008001564                L6470_PrepareReleaseSW
 .text.L6470_PrepareGoHome
                0x0000000008001598       0x2c Core/BSP/Components/L6470/L6470.o
                0x0000000008001598                L6470_PrepareGoHome
 .text.L6470_PrepareGoMark
                0x00000000080015c4       0x2c Core/BSP/Components/L6470/L6470.o
                0x00000000080015c4                L6470_PrepareGoMark
 .text.L6470_PrepareResetPos
                0x00000000080015f0       0x2c Core/BSP/Components/L6470/L6470.o
                0x00000000080015f0                L6470_PrepareResetPos
 .text.L6470_PrepareResetDevice
                0x000000000800161c       0x2c Core/BSP/Components/L6470/L6470.o
                0x000000000800161c                L6470_PrepareResetDevice
 .text.L6470_PrepareSoftStop
                0x0000000008001648       0x2c Core/BSP/Components/L6470/L6470.o
                0x0000000008001648                L6470_PrepareSoftStop
 .text.L6470_PrepareHardStop
                0x0000000008001674       0x2c Core/BSP/Components/L6470/L6470.o
                0x0000000008001674                L6470_PrepareHardStop
 .text.L6470_PrepareSoftHiZ
                0x00000000080016a0       0x2c Core/BSP/Components/L6470/L6470.o
                0x00000000080016a0                L6470_PrepareSoftHiZ
 .text.L6470_PrepareHardHiZ
                0x00000000080016cc       0x2c Core/BSP/Components/L6470/L6470.o
                0x00000000080016cc                L6470_PrepareHardHiZ
 .text.L6470_PrepareGetStatus
                0x00000000080016f8       0x2c Core/BSP/Components/L6470/L6470.o
                0x00000000080016f8                L6470_PrepareGetStatus
 .text.L6470_PerformPreparedApplicationCommand
                0x0000000008001724       0x28 Core/BSP/Components/L6470/L6470.o
                0x0000000008001724                L6470_PerformPreparedApplicationCommand
 .text.L6470_ID
                0x000000000800174c       0x2e Core/BSP/Components/L6470/L6470.o
                0x000000000800174c                L6470_ID
 *fill*         0x000000000800177a        0x2 
 .text.L6470_DaisyChainCommand
                0x000000000800177c       0x9c Core/BSP/Components/L6470/L6470.o
                0x000000000800177c                L6470_DaisyChainCommand
 .text.L6470_ExtractReturnedData
                0x0000000008001818       0x5a Core/BSP/Components/L6470/L6470.o
                0x0000000008001818                L6470_ExtractReturnedData
 *fill*         0x0000000008001872        0x2 
 .text.L6470_CheckStatusRegisterFlag
                0x0000000008001874      0x174 Core/BSP/Components/L6470/L6470.o
                0x0000000008001874                L6470_CheckStatusRegisterFlag
 .text.L6470_GetRegisterName
                0x00000000080019e8       0x38 Core/BSP/Components/L6470/L6470.o
                0x00000000080019e8                L6470_GetRegisterName
 .text.L6470_Config
                0x0000000008001a20      0x358 Core/BSP/Components/L6470/L6470.o
                0x0000000008001a20                L6470_Config
 .text.BSP_L6470_Init
                0x0000000008001d78       0xb0 Core/BSP/X-NUCLEO-IHM02A1/xnucleoihm02a1.o
                0x0000000008001d78                BSP_L6470_Init
 .text.BSP_IRQ  0x0000000008001e28       0x32 Core/BSP/X-NUCLEO-IHM02A1/xnucleoihm02a1.o
                0x0000000008001e28                BSP_IRQ
 .text.BSP_L6470_SetParam
                0x0000000008001e5a       0x36 Core/BSP/X-NUCLEO-IHM02A1/xnucleoihm02a1.o
                0x0000000008001e5a                BSP_L6470_SetParam
 .text.BSP_L6470_GetParam
                0x0000000008001e90       0x3a Core/BSP/X-NUCLEO-IHM02A1/xnucleoihm02a1.o
                0x0000000008001e90                BSP_L6470_GetParam
 .text.BSP_L6470_Run
                0x0000000008001eca       0x36 Core/BSP/X-NUCLEO-IHM02A1/xnucleoihm02a1.o
                0x0000000008001eca                BSP_L6470_Run
 .text.BSP_L6470_StepClock
                0x0000000008001f00       0x34 Core/BSP/X-NUCLEO-IHM02A1/xnucleoihm02a1.o
                0x0000000008001f00                BSP_L6470_StepClock
 .text.BSP_L6470_Move
                0x0000000008001f34       0x36 Core/BSP/X-NUCLEO-IHM02A1/xnucleoihm02a1.o
                0x0000000008001f34                BSP_L6470_Move
 .text.BSP_L6470_GoTo
                0x0000000008001f6a       0x30 Core/BSP/X-NUCLEO-IHM02A1/xnucleoihm02a1.o
                0x0000000008001f6a                BSP_L6470_GoTo
 .text.BSP_L6470_GoToDir
                0x0000000008001f9a       0x36 Core/BSP/X-NUCLEO-IHM02A1/xnucleoihm02a1.o
                0x0000000008001f9a                BSP_L6470_GoToDir
 .text.BSP_L6470_GoUntil
                0x0000000008001fd0       0x40 Core/BSP/X-NUCLEO-IHM02A1/xnucleoihm02a1.o
                0x0000000008001fd0                BSP_L6470_GoUntil
 .text.BSP_L6470_ReleaseSW
                0x0000000008002010       0x40 Core/BSP/X-NUCLEO-IHM02A1/xnucleoihm02a1.o
                0x0000000008002010                BSP_L6470_ReleaseSW
 .text.BSP_L6470_GoHome
                0x0000000008002050       0x2e Core/BSP/X-NUCLEO-IHM02A1/xnucleoihm02a1.o
                0x0000000008002050                BSP_L6470_GoHome
 .text.BSP_L6470_GoMark
                0x000000000800207e       0x2e Core/BSP/X-NUCLEO-IHM02A1/xnucleoihm02a1.o
                0x000000000800207e                BSP_L6470_GoMark
 .text.BSP_L6470_ResetPos
                0x00000000080020ac       0x2e Core/BSP/X-NUCLEO-IHM02A1/xnucleoihm02a1.o
                0x00000000080020ac                BSP_L6470_ResetPos
 .text.BSP_L6470_ResetDevice
                0x00000000080020da       0x2e Core/BSP/X-NUCLEO-IHM02A1/xnucleoihm02a1.o
                0x00000000080020da                BSP_L6470_ResetDevice
 .text.BSP_L6470_SoftStop
                0x0000000008002108       0x2e Core/BSP/X-NUCLEO-IHM02A1/xnucleoihm02a1.o
                0x0000000008002108                BSP_L6470_SoftStop
 .text.BSP_L6470_HardStop
                0x0000000008002136       0x2e Core/BSP/X-NUCLEO-IHM02A1/xnucleoihm02a1.o
                0x0000000008002136                BSP_L6470_HardStop
 .text.BSP_L6470_SoftHiZ
                0x0000000008002164       0x2e Core/BSP/X-NUCLEO-IHM02A1/xnucleoihm02a1.o
                0x0000000008002164                BSP_L6470_SoftHiZ
 .text.BSP_L6470_HardHiZ
                0x0000000008002192       0x2e Core/BSP/X-NUCLEO-IHM02A1/xnucleoihm02a1.o
                0x0000000008002192                BSP_L6470_HardHiZ
 .text.BSP_L6470_GetStatus
                0x00000000080021c0       0x34 Core/BSP/X-NUCLEO-IHM02A1/xnucleoihm02a1.o
                0x00000000080021c0                BSP_L6470_GetStatus
 .text.BSP_L6470_CheckStatusRegisterFlag
                0x00000000080021f4       0x3a Core/BSP/X-NUCLEO-IHM02A1/xnucleoihm02a1.o
                0x00000000080021f4                BSP_L6470_CheckStatusRegisterFlag
 .text.EXPBRD_ID
                0x000000000800222e       0x22 Core/BSP/X-NUCLEO-IHM02A1/xnucleoihm02a1.o
                0x000000000800222e                EXPBRD_ID
 .text.BSP_Select
                0x0000000008002250       0x6c Core/BSP/X-NUCLEO-IHM02A1/xnucleoihm02a1.o
                0x0000000008002250                BSP_Select
 .text.BSP_Init
                0x00000000080022bc       0x20 Core/BSP/X-NUCLEO-IHM02A1/xnucleoihm02a1.o
                0x00000000080022bc                BSP_Init
 .text.BSP_L6470_BusySynchEventManager
                0x00000000080022dc       0x10 Core/BSP/X-NUCLEO-IHM02A1/xnucleoihm02a1.o
                0x00000000080022dc                BSP_L6470_BusySynchEventManager
 .text.BSP_L6470_FlagEventManager
                0x00000000080022ec       0x10 Core/BSP/X-NUCLEO-IHM02A1/xnucleoihm02a1.o
                0x00000000080022ec                BSP_L6470_FlagEventManager
 .text.BSP_EmergencyStop
                0x00000000080022fc       0x1c Core/BSP/X-NUCLEO-IHM02A1/xnucleoihm02a1.o
                0x00000000080022fc                BSP_EmergencyStop
 .text.BSP_0_Config
                0x0000000008002318       0x20 Core/BSP/X-NUCLEO-IHM02A1/xnucleoihm02a1.o
                0x0000000008002318                BSP_0_Config
 .text.BSP_1_Config
                0x0000000008002338       0x20 Core/BSP/X-NUCLEO-IHM02A1/xnucleoihm02a1.o
                0x0000000008002338                BSP_1_Config
 .text.BSP_2_Config
                0x0000000008002358       0x20 Core/BSP/X-NUCLEO-IHM02A1/xnucleoihm02a1.o
                0x0000000008002358                BSP_2_Config
 .text.BSP_3_Config
                0x0000000008002378       0x20 Core/BSP/X-NUCLEO-IHM02A1/xnucleoihm02a1.o
                0x0000000008002378                BSP_3_Config
 .text.BSP_L6470_0_0_Config
                0x0000000008002398       0x20 Core/BSP/X-NUCLEO-IHM02A1/xnucleoihm02a1.o
                0x0000000008002398                BSP_L6470_0_0_Config
 .text.BSP_L6470_0_1_Config
                0x00000000080023b8       0x20 Core/BSP/X-NUCLEO-IHM02A1/xnucleoihm02a1.o
                0x00000000080023b8                BSP_L6470_0_1_Config
 .text.BSP_L6470_1_0_Config
                0x00000000080023d8       0x20 Core/BSP/X-NUCLEO-IHM02A1/xnucleoihm02a1.o
                0x00000000080023d8                BSP_L6470_1_0_Config
 .text.BSP_L6470_1_1_Config
                0x00000000080023f8       0x20 Core/BSP/X-NUCLEO-IHM02A1/xnucleoihm02a1.o
                0x00000000080023f8                BSP_L6470_1_1_Config
 .text.BSP_L6470_2_0_Config
                0x0000000008002418       0x20 Core/BSP/X-NUCLEO-IHM02A1/xnucleoihm02a1.o
                0x0000000008002418                BSP_L6470_2_0_Config
 .text.BSP_L6470_2_1_Config
                0x0000000008002438       0x20 Core/BSP/X-NUCLEO-IHM02A1/xnucleoihm02a1.o
                0x0000000008002438                BSP_L6470_2_1_Config
 .text.BSP_L6470_3_0_Config
                0x0000000008002458       0x20 Core/BSP/X-NUCLEO-IHM02A1/xnucleoihm02a1.o
                0x0000000008002458                BSP_L6470_3_0_Config
 .text.BSP_L6470_3_1_Config
                0x0000000008002478       0x20 Core/BSP/X-NUCLEO-IHM02A1/xnucleoihm02a1.o
                0x0000000008002478                BSP_L6470_3_1_Config
 .text.BSP_GetExpansionBoardHandle
                0x0000000008002498       0x74 Core/BSP/X-NUCLEO-IHM02A1/xnucleoihm02a1.o
                0x0000000008002498                BSP_GetExpansionBoardHandle
 .text.BSP_Config
                0x000000000800250c       0x36 Core/BSP/X-NUCLEO-IHM02A1/xnucleoihm02a1.o
                0x000000000800250c                BSP_Config
 *fill*         0x0000000008002542        0x2 
 .text.MicrosteppingMotor_Example_01
                0x0000000008002544      0x3d4 Core/MotionControl/MicrosteppingMotor/Src/example.o
                0x0000000008002544                MicrosteppingMotor_Example_01
 .text.usrPow   0x0000000008002918       0x40 Core/MotionControl/MicrosteppingMotor/Src/example.o
                0x0000000008002918                usrPow
 .text.HAL_GPIO_EXTI_Callback
                0x0000000008002958       0x3e Core/MotionControl/MicrosteppingMotor/Src/example.o
                0x0000000008002958                HAL_GPIO_EXTI_Callback
 *fill*         0x0000000008002996        0x2 
 .text.USART_TxWelcomeMessage
                0x0000000008002998       0x78 Core/MotionControl/MicrosteppingMotor/Src/example_usart.o
                0x0000000008002998                USART_TxWelcomeMessage
 .text.USART_Transmit
                0x0000000008002a10       0x3e Core/MotionControl/MicrosteppingMotor/Src/example_usart.o
                0x0000000008002a10                USART_Transmit
 *fill*         0x0000000008002a4e        0x2 
 .text.USART_PrintRegisterValues
                0x0000000008002a50       0xe4 Core/MotionControl/MicrosteppingMotor/Src/example_usart.o
                0x0000000008002a50                USART_PrintRegisterValues
 .text.USART_PrintAllRegisterValues
                0x0000000008002b34       0x60 Core/MotionControl/MicrosteppingMotor/Src/example_usart.o
                0x0000000008002b34                USART_PrintAllRegisterValues
 .text.num2hex  0x0000000008002b94       0xc0 Core/MotionControl/MicrosteppingMotor/Src/example_usart.o
                0x0000000008002b94                num2hex
 .text.mainApp  0x0000000008002c54       0x12 Core/MotionControl/MicrosteppingMotor/Src/main_app.o
                0x0000000008002c54                mainApp
 *fill*         0x0000000008002c66        0x2 
 .text.GetMotorParameterInitData
                0x0000000008002c68       0x14 Core/MotionControl/MicrosteppingMotor/Src/params.o
                0x0000000008002c68                GetMotorParameterInitData
 .text.MX_ADC3_Init
                0x0000000008002c7c       0xa4 Core/Src/adc.o
                0x0000000008002c7c                MX_ADC3_Init
 .text.HAL_ADC_MspInit
                0x0000000008002d20       0x80 Core/Src/adc.o
                0x0000000008002d20                HAL_ADC_MspInit
 .text.MX_ETH_Init
                0x0000000008002da0       0x90 Core/Src/eth.o
                0x0000000008002da0                MX_ETH_Init
 .text.HAL_ETH_MspInit
                0x0000000008002e30      0x170 Core/Src/eth.o
                0x0000000008002e30                HAL_ETH_MspInit
 .text.MX_GPIO_Init
                0x0000000008002fa0      0x21c Core/Src/gpio.o
                0x0000000008002fa0                MX_GPIO_Init
 .text.main     0x00000000080031bc       0x26 Core/Src/main.o
                0x00000000080031bc                main
 *fill*         0x00000000080031e2        0x2 
 .text.SystemClock_Config
                0x00000000080031e4      0x120 Core/Src/main.o
                0x00000000080031e4                SystemClock_Config
 .text.Error_Handler
                0x0000000008003304        0xa Core/Src/main.o
                0x0000000008003304                Error_Handler
 *fill*         0x000000000800330e        0x2 
 .text.MX_SPI1_Init
                0x0000000008003310       0x7c Core/Src/spi.o
                0x0000000008003310                MX_SPI1_Init
 .text.HAL_SPI_MspInit
                0x000000000800338c       0xc4 Core/Src/spi.o
                0x000000000800338c                HAL_SPI_MspInit
 .text.HAL_MspInit
                0x0000000008003450       0x48 Core/Src/stm32f7xx_hal_msp.o
                0x0000000008003450                HAL_MspInit
 .text.NMI_Handler
                0x0000000008003498        0x6 Core/Src/stm32f7xx_it.o
                0x0000000008003498                NMI_Handler
 .text.HardFault_Handler
                0x000000000800349e        0x6 Core/Src/stm32f7xx_it.o
                0x000000000800349e                HardFault_Handler
 .text.MemManage_Handler
                0x00000000080034a4        0x6 Core/Src/stm32f7xx_it.o
                0x00000000080034a4                MemManage_Handler
 .text.BusFault_Handler
                0x00000000080034aa        0x6 Core/Src/stm32f7xx_it.o
                0x00000000080034aa                BusFault_Handler
 .text.UsageFault_Handler
                0x00000000080034b0        0x6 Core/Src/stm32f7xx_it.o
                0x00000000080034b0                UsageFault_Handler
 .text.SVC_Handler
                0x00000000080034b6        0xe Core/Src/stm32f7xx_it.o
                0x00000000080034b6                SVC_Handler
 .text.DebugMon_Handler
                0x00000000080034c4        0xe Core/Src/stm32f7xx_it.o
                0x00000000080034c4                DebugMon_Handler
 .text.PendSV_Handler
                0x00000000080034d2        0xe Core/Src/stm32f7xx_it.o
                0x00000000080034d2                PendSV_Handler
 .text.SysTick_Handler
                0x00000000080034e0        0xc Core/Src/stm32f7xx_it.o
                0x00000000080034e0                SysTick_Handler
 .text.EXTI9_5_IRQHandler
                0x00000000080034ec        0xe Core/Src/stm32f7xx_it.o
                0x00000000080034ec                EXTI9_5_IRQHandler
 .text.EXTI15_10_IRQHandler
                0x00000000080034fa       0x18 Core/Src/stm32f7xx_it.o
                0x00000000080034fa                EXTI15_10_IRQHandler
 *fill*         0x0000000008003512        0x2 
 .text.SystemInit
                0x0000000008003514       0x24 Core/Src/system_stm32f7xx.o
                0x0000000008003514                SystemInit
 .text.MX_USART3_UART_Init
                0x0000000008003538       0x60 Core/Src/usart.o
                0x0000000008003538                MX_USART3_UART_Init
 .text.HAL_UART_MspInit
                0x0000000008003598       0x88 Core/Src/usart.o
                0x0000000008003598                HAL_UART_MspInit
 .text.Reset_Handler
                0x0000000008003620       0x50 Core/Startup/startup_stm32f746zgtx.o
                0x0000000008003620                Reset_Handler
 .text.Default_Handler
                0x0000000008003670        0x2 Core/Startup/startup_stm32f746zgtx.o
                0x0000000008003670                RTC_Alarm_IRQHandler
                0x0000000008003670                EXTI2_IRQHandler
                0x0000000008003670                TIM8_CC_IRQHandler
                0x0000000008003670                UART8_IRQHandler
                0x0000000008003670                SPI4_IRQHandler
                0x0000000008003670                TIM1_CC_IRQHandler
                0x0000000008003670                DMA2_Stream5_IRQHandler
                0x0000000008003670                DMA1_Stream5_IRQHandler
                0x0000000008003670                PVD_IRQHandler
                0x0000000008003670                TAMP_STAMP_IRQHandler
                0x0000000008003670                CAN2_RX1_IRQHandler
                0x0000000008003670                EXTI3_IRQHandler
                0x0000000008003670                TIM8_TRG_COM_TIM14_IRQHandler
                0x0000000008003670                TIM1_UP_TIM10_IRQHandler
                0x0000000008003670                TIM8_UP_TIM13_IRQHandler
                0x0000000008003670                I2C3_ER_IRQHandler
                0x0000000008003670                EXTI0_IRQHandler
                0x0000000008003670                I2C2_EV_IRQHandler
                0x0000000008003670                DMA1_Stream2_IRQHandler
                0x0000000008003670                CAN1_RX0_IRQHandler
                0x0000000008003670                FPU_IRQHandler
                0x0000000008003670                OTG_HS_WKUP_IRQHandler
                0x0000000008003670                LTDC_ER_IRQHandler
                0x0000000008003670                CAN2_SCE_IRQHandler
                0x0000000008003670                DMA2_Stream2_IRQHandler
                0x0000000008003670                SPI1_IRQHandler
                0x0000000008003670                TIM6_DAC_IRQHandler
                0x0000000008003670                TIM1_BRK_TIM9_IRQHandler
                0x0000000008003670                DCMI_IRQHandler
                0x0000000008003670                CAN2_RX0_IRQHandler
                0x0000000008003670                DMA2_Stream3_IRQHandler
                0x0000000008003670                SAI2_IRQHandler
                0x0000000008003670                USART6_IRQHandler
                0x0000000008003670                USART3_IRQHandler
                0x0000000008003670                CAN1_RX1_IRQHandler
                0x0000000008003670                UART5_IRQHandler
                0x0000000008003670                DMA2_Stream0_IRQHandler
                0x0000000008003670                TIM4_IRQHandler
                0x0000000008003670                QUADSPI_IRQHandler
                0x0000000008003670                I2C1_EV_IRQHandler
                0x0000000008003670                DMA1_Stream6_IRQHandler
                0x0000000008003670                DMA1_Stream1_IRQHandler
                0x0000000008003670                UART4_IRQHandler
                0x0000000008003670                TIM3_IRQHandler
                0x0000000008003670                RCC_IRQHandler
                0x0000000008003670                TIM8_BRK_TIM12_IRQHandler
                0x0000000008003670                Default_Handler
                0x0000000008003670                CEC_IRQHandler
                0x0000000008003670                ADC_IRQHandler
                0x0000000008003670                DMA1_Stream7_IRQHandler
                0x0000000008003670                SPI5_IRQHandler
                0x0000000008003670                TIM7_IRQHandler
                0x0000000008003670                SDMMC1_IRQHandler
                0x0000000008003670                CAN2_TX_IRQHandler
                0x0000000008003670                TIM5_IRQHandler
                0x0000000008003670                DMA2_Stream7_IRQHandler
                0x0000000008003670                I2C3_EV_IRQHandler
                0x0000000008003670                RTC_WKUP_IRQHandler
                0x0000000008003670                LTDC_IRQHandler
                0x0000000008003670                ETH_WKUP_IRQHandler
                0x0000000008003670                SPDIF_RX_IRQHandler
                0x0000000008003670                SPI2_IRQHandler
                0x0000000008003670                OTG_HS_EP1_IN_IRQHandler
                0x0000000008003670                DMA1_Stream0_IRQHandler
                0x0000000008003670                CAN1_TX_IRQHandler
                0x0000000008003670                EXTI4_IRQHandler
                0x0000000008003670                RNG_IRQHandler
                0x0000000008003670                ETH_IRQHandler
                0x0000000008003670                OTG_HS_EP1_OUT_IRQHandler
                0x0000000008003670                WWDG_IRQHandler
                0x0000000008003670                SPI6_IRQHandler
                0x0000000008003670                I2C4_EV_IRQHandler
                0x0000000008003670                TIM2_IRQHandler
                0x0000000008003670                OTG_FS_WKUP_IRQHandler
                0x0000000008003670                TIM1_TRG_COM_TIM11_IRQHandler
                0x0000000008003670                OTG_HS_IRQHandler
                0x0000000008003670                DMA2D_IRQHandler
                0x0000000008003670                EXTI1_IRQHandler
                0x0000000008003670                UART7_IRQHandler
                0x0000000008003670                USART2_IRQHandler
                0x0000000008003670                I2C2_ER_IRQHandler
                0x0000000008003670                DMA2_Stream1_IRQHandler
                0x0000000008003670                CAN1_SCE_IRQHandler
                0x0000000008003670                FLASH_IRQHandler
                0x0000000008003670                DMA2_Stream4_IRQHandler
                0x0000000008003670                USART1_IRQHandler
                0x0000000008003670                OTG_FS_IRQHandler
                0x0000000008003670                SPI3_IRQHandler
                0x0000000008003670                DMA1_Stream4_IRQHandler
                0x0000000008003670                I2C1_ER_IRQHandler
                0x0000000008003670                FMC_IRQHandler
                0x0000000008003670                LPTIM1_IRQHandler
                0x0000000008003670                I2C4_ER_IRQHandler
                0x0000000008003670                DMA2_Stream6_IRQHandler
                0x0000000008003670                SAI1_IRQHandler
                0x0000000008003670                DMA1_Stream3_IRQHandler
 .text.HAL_Init
                0x0000000008003672       0x1a Drivers/STM32F7xx_HAL_Driver/Src/stm32f7xx_hal.o
                0x0000000008003672                HAL_Init
 .text.HAL_InitTick
                0x000000000800368c       0x60 Drivers/STM32F7xx_HAL_Driver/Src/stm32f7xx_hal.o
                0x000000000800368c                HAL_InitTick
 .text.HAL_IncTick
                0x00000000080036ec       0x28 Drivers/STM32F7xx_HAL_Driver/Src/stm32f7xx_hal.o
                0x00000000080036ec                HAL_IncTick
 .text.HAL_GetTick
                0x0000000008003714       0x18 Drivers/STM32F7xx_HAL_Driver/Src/stm32f7xx_hal.o
                0x0000000008003714                HAL_GetTick
 .text.HAL_Delay
                0x000000000800372c       0x48 Drivers/STM32F7xx_HAL_Driver/Src/stm32f7xx_hal.o
                0x000000000800372c                HAL_Delay
 .text.HAL_ADC_Init
                0x0000000008003774       0x88 Drivers/STM32F7xx_HAL_Driver/Src/stm32f7xx_hal_adc.o
                0x0000000008003774                HAL_ADC_Init
 .text.HAL_ADC_ConfigChannel
                0x00000000080037fc      0x294 Drivers/STM32F7xx_HAL_Driver/Src/stm32f7xx_hal_adc.o
                0x00000000080037fc                HAL_ADC_ConfigChannel
 .text.ADC_Init
                0x0000000008003a90      0x1f4 Drivers/STM32F7xx_HAL_Driver/Src/stm32f7xx_hal_adc.o
 .text.__NVIC_SetPriorityGrouping
                0x0000000008003c84       0x48 Drivers/STM32F7xx_HAL_Driver/Src/stm32f7xx_hal_cortex.o
 .text.__NVIC_GetPriorityGrouping
                0x0000000008003ccc       0x1c Drivers/STM32F7xx_HAL_Driver/Src/stm32f7xx_hal_cortex.o
 .text.__NVIC_EnableIRQ
                0x0000000008003ce8       0x3c Drivers/STM32F7xx_HAL_Driver/Src/stm32f7xx_hal_cortex.o
 .text.__NVIC_DisableIRQ
                0x0000000008003d24       0x48 Drivers/STM32F7xx_HAL_Driver/Src/stm32f7xx_hal_cortex.o
 .text.__NVIC_SetPriority
                0x0000000008003d6c       0x54 Drivers/STM32F7xx_HAL_Driver/Src/stm32f7xx_hal_cortex.o
 .text.NVIC_EncodePriority
                0x0000000008003dc0       0x66 Drivers/STM32F7xx_HAL_Driver/Src/stm32f7xx_hal_cortex.o
 *fill*         0x0000000008003e26        0x2 
 .text.SysTick_Config
                0x0000000008003e28       0x44 Drivers/STM32F7xx_HAL_Driver/Src/stm32f7xx_hal_cortex.o
 .text.HAL_NVIC_SetPriorityGrouping
                0x0000000008003e6c       0x16 Drivers/STM32F7xx_HAL_Driver/Src/stm32f7xx_hal_cortex.o
                0x0000000008003e6c                HAL_NVIC_SetPriorityGrouping
 .text.HAL_NVIC_SetPriority
                0x0000000008003e82       0x38 Drivers/STM32F7xx_HAL_Driver/Src/stm32f7xx_hal_cortex.o
                0x0000000008003e82                HAL_NVIC_SetPriority
 .text.HAL_NVIC_EnableIRQ
                0x0000000008003eba       0x1c Drivers/STM32F7xx_HAL_Driver/Src/stm32f7xx_hal_cortex.o
                0x0000000008003eba                HAL_NVIC_EnableIRQ
 .text.HAL_NVIC_DisableIRQ
                0x0000000008003ed6       0x1c Drivers/STM32F7xx_HAL_Driver/Src/stm32f7xx_hal_cortex.o
                0x0000000008003ed6                HAL_NVIC_DisableIRQ
 .text.HAL_SYSTICK_Config
                0x0000000008003ef2       0x18 Drivers/STM32F7xx_HAL_Driver/Src/stm32f7xx_hal_cortex.o
                0x0000000008003ef2                HAL_SYSTICK_Config
 *fill*         0x0000000008003f0a        0x2 
 .text.HAL_ETH_Init
                0x0000000008003f0c      0x334 Drivers/STM32F7xx_HAL_Driver/Src/stm32f7xx_hal_eth.o
                0x0000000008003f0c                HAL_ETH_Init
 .text.HAL_ETH_ReadPHYRegister
                0x0000000008004240       0xd0 Drivers/STM32F7xx_HAL_Driver/Src/stm32f7xx_hal_eth.o
                0x0000000008004240                HAL_ETH_ReadPHYRegister
 .text.HAL_ETH_WritePHYRegister
                0x0000000008004310       0xcc Drivers/STM32F7xx_HAL_Driver/Src/stm32f7xx_hal_eth.o
                0x0000000008004310                HAL_ETH_WritePHYRegister
 .text.ETH_MACDMAConfig
                0x00000000080043dc      0x394 Drivers/STM32F7xx_HAL_Driver/Src/stm32f7xx_hal_eth.o
 .text.ETH_MACAddressConfig
                0x0000000008004770       0x70 Drivers/STM32F7xx_HAL_Driver/Src/stm32f7xx_hal_eth.o
 .text.HAL_GPIO_Init
                0x00000000080047e0      0x358 Drivers/STM32F7xx_HAL_Driver/Src/stm32f7xx_hal_gpio.o
                0x00000000080047e0                HAL_GPIO_Init
 .text.HAL_GPIO_WritePin
                0x0000000008004b38       0x32 Drivers/STM32F7xx_HAL_Driver/Src/stm32f7xx_hal_gpio.o
                0x0000000008004b38                HAL_GPIO_WritePin
 *fill*         0x0000000008004b6a        0x2 
 .text.HAL_GPIO_EXTI_IRQHandler
                0x0000000008004b6c       0x30 Drivers/STM32F7xx_HAL_Driver/Src/stm32f7xx_hal_gpio.o
                0x0000000008004b6c                HAL_GPIO_EXTI_IRQHandler
 .text.HAL_PWREx_EnableOverDrive
                0x0000000008004b9c       0xa0 Drivers/STM32F7xx_HAL_Driver/Src/stm32f7xx_hal_pwr_ex.o
                0x0000000008004b9c                HAL_PWREx_EnableOverDrive
 .text.HAL_RCC_OscConfig
                0x0000000008004c3c      0x548 Drivers/STM32F7xx_HAL_Driver/Src/stm32f7xx_hal_rcc.o
                0x0000000008004c3c                HAL_RCC_OscConfig
 .text.HAL_RCC_ClockConfig
                0x0000000008005184      0x1d8 Drivers/STM32F7xx_HAL_Driver/Src/stm32f7xx_hal_rcc.o
                0x0000000008005184                HAL_RCC_ClockConfig
 .text.HAL_RCC_GetSysClockFreq
                0x000000000800535c      0x1c4 Drivers/STM32F7xx_HAL_Driver/Src/stm32f7xx_hal_rcc.o
                0x000000000800535c                HAL_RCC_GetSysClockFreq
 .text.HAL_RCC_GetHCLKFreq
                0x0000000008005520       0x18 Drivers/STM32F7xx_HAL_Driver/Src/stm32f7xx_hal_rcc.o
                0x0000000008005520                HAL_RCC_GetHCLKFreq
 .text.HAL_RCC_GetPCLK1Freq
                0x0000000008005538       0x28 Drivers/STM32F7xx_HAL_Driver/Src/stm32f7xx_hal_rcc.o
                0x0000000008005538                HAL_RCC_GetPCLK1Freq
 .text.HAL_RCC_GetPCLK2Freq
                0x0000000008005560       0x28 Drivers/STM32F7xx_HAL_Driver/Src/stm32f7xx_hal_rcc.o
                0x0000000008005560                HAL_RCC_GetPCLK2Freq
 .text.HAL_RCCEx_PeriphCLKConfig
                0x0000000008005588      0x7e0 Drivers/STM32F7xx_HAL_Driver/Src/stm32f7xx_hal_rcc_ex.o
                0x0000000008005588                HAL_RCCEx_PeriphCLKConfig
 .text.HAL_SPI_Init
                0x0000000008005d68      0x156 Drivers/STM32F7xx_HAL_Driver/Src/stm32f7xx_hal_spi.o
                0x0000000008005d68                HAL_SPI_Init
 .text.HAL_SPI_TransmitReceive
                0x0000000008005ebe      0x426 Drivers/STM32F7xx_HAL_Driver/Src/stm32f7xx_hal_spi.o
                0x0000000008005ebe                HAL_SPI_TransmitReceive
 .text.SPI_WaitFlagStateUntilTimeout
                0x00000000080062e4      0x110 Drivers/STM32F7xx_HAL_Driver/Src/stm32f7xx_hal_spi.o
 .text.SPI_WaitFifoStateUntilTimeout
                0x00000000080063f4      0x124 Drivers/STM32F7xx_HAL_Driver/Src/stm32f7xx_hal_spi.o
 .text.SPI_EndRxTxTransaction
                0x0000000008006518       0x8c Drivers/STM32F7xx_HAL_Driver/Src/stm32f7xx_hal_spi.o
 .text.HAL_UART_Init
                0x00000000080065a4       0x9c Drivers/STM32F7xx_HAL_Driver/Src/stm32f7xx_hal_uart.o
                0x00000000080065a4                HAL_UART_Init
 .text.HAL_UART_Transmit
                0x0000000008006640      0x126 Drivers/STM32F7xx_HAL_Driver/Src/stm32f7xx_hal_uart.o
                0x0000000008006640                HAL_UART_Transmit
 *fill*         0x0000000008006766        0x2 
 .text.UART_SetConfig
                0x0000000008006768      0x4c4 Drivers/STM32F7xx_HAL_Driver/Src/stm32f7xx_hal_uart.o
                0x0000000008006768                UART_SetConfig
 .text.UART_AdvFeatureConfig
                0x0000000008006c2c      0x144 Drivers/STM32F7xx_HAL_Driver/Src/stm32f7xx_hal_uart.o
                0x0000000008006c2c                UART_AdvFeatureConfig
 .text.UART_CheckIdleState
                0x0000000008006d70       0x66 Drivers/STM32F7xx_HAL_Driver/Src/stm32f7xx_hal_uart.o
                0x0000000008006d70                UART_CheckIdleState
 .text.UART_WaitOnFlagUntilTimeout
                0x0000000008006dd6       0xf8 Drivers/STM32F7xx_HAL_Driver/Src/stm32f7xx_hal_uart.o
                0x0000000008006dd6                UART_WaitOnFlagUntilTimeout
 *fill*         0x0000000008006ece        0x2 
 .text.__libc_init_array
                0x0000000008006ed0       0x48 c:/st/stm32cubeide_1.6.1/stm32cubeide/plugins/com.st.stm32cube.ide.mcu.externaltools.gnu-tools-for-stm32.9-2020-q2-update.win32_1.5.0.202011040924/tools/bin/../lib/gcc/arm-none-eabi/9.3.1/../../../../arm-none-eabi/lib/thumb/v7e-m+fp/hard\libc_nano.a(lib_a-init.o)
                0x0000000008006ed0                __libc_init_array
 .text.memset   0x0000000008006f18       0x10 c:/st/stm32cubeide_1.6.1/stm32cubeide/plugins/com.st.stm32cube.ide.mcu.externaltools.gnu-tools-for-stm32.9-2020-q2-update.win32_1.5.0.202011040924/tools/bin/../lib/gcc/arm-none-eabi/9.3.1/../../../../arm-none-eabi/lib/thumb/v7e-m+fp/hard\libc_nano.a(lib_a-memset.o)
                0x0000000008006f18                memset
 *(.glue_7)
 .glue_7        0x0000000008006f28        0x0 linker stubs
 *(.glue_7t)
 .glue_7t       0x0000000008006f28        0x0 linker stubs
 *(.eh_frame)
 .eh_frame      0x0000000008006f28        0x0 c:/st/stm32cubeide_1.6.1/stm32cubeide/plugins/com.st.stm32cube.ide.mcu.externaltools.gnu-tools-for-stm32.9-2020-q2-update.win32_1.5.0.202011040924/tools/bin/../lib/gcc/arm-none-eabi/9.3.1/thumb/v7e-m+fp/hard/crtbegin.o
 *(.init)
 .init          0x0000000008006f28        0x4 c:/st/stm32cubeide_1.6.1/stm32cubeide/plugins/com.st.stm32cube.ide.mcu.externaltools.gnu-tools-for-stm32.9-2020-q2-update.win32_1.5.0.202011040924/tools/bin/../lib/gcc/arm-none-eabi/9.3.1/thumb/v7e-m+fp/hard/crti.o
                0x0000000008006f28                _init
 .init          0x0000000008006f2c        0x8 c:/st/stm32cubeide_1.6.1/stm32cubeide/plugins/com.st.stm32cube.ide.mcu.externaltools.gnu-tools-for-stm32.9-2020-q2-update.win32_1.5.0.202011040924/tools/bin/../lib/gcc/arm-none-eabi/9.3.1/thumb/v7e-m+fp/hard/crtn.o
 *(.fini)
 .fini          0x0000000008006f34        0x4 c:/st/stm32cubeide_1.6.1/stm32cubeide/plugins/com.st.stm32cube.ide.mcu.externaltools.gnu-tools-for-stm32.9-2020-q2-update.win32_1.5.0.202011040924/tools/bin/../lib/gcc/arm-none-eabi/9.3.1/thumb/v7e-m+fp/hard/crti.o
                0x0000000008006f34                _fini
 .fini          0x0000000008006f38        0x8 c:/st/stm32cubeide_1.6.1/stm32cubeide/plugins/com.st.stm32cube.ide.mcu.externaltools.gnu-tools-for-stm32.9-2020-q2-update.win32_1.5.0.202011040924/tools/bin/../lib/gcc/arm-none-eabi/9.3.1/thumb/v7e-m+fp/hard/crtn.o
                0x0000000008006f40                . = ALIGN (0x4)
                0x0000000008006f40                _etext = .

.vfp11_veneer   0x0000000008006f40        0x0
 .vfp11_veneer  0x0000000008006f40        0x0 linker stubs

.v4_bx          0x0000000008006f40        0x0
 .v4_bx         0x0000000008006f40        0x0 linker stubs

.iplt           0x0000000008006f40        0x0
 .iplt          0x0000000008006f40        0x0 c:/st/stm32cubeide_1.6.1/stm32cubeide/plugins/com.st.stm32cube.ide.mcu.externaltools.gnu-tools-for-stm32.9-2020-q2-update.win32_1.5.0.202011040924/tools/bin/../lib/gcc/arm-none-eabi/9.3.1/thumb/v7e-m+fp/hard/crtbegin.o

.rodata         0x0000000008006f40      0xa14
                0x0000000008006f40                . = ALIGN (0x4)
 *(.rodata)
 .rodata        0x0000000008006f40        0x1 Core/BSP/Components/L6470/L6470.o
 *fill*         0x0000000008006f41        0x3 
 .rodata        0x0000000008006f44       0x3f Core/MotionControl/MicrosteppingMotor/Src/example.o
 *fill*         0x0000000008006f83        0x1 
 .rodata        0x0000000008006f84      0x3d7 Core/MotionControl/MicrosteppingMotor/Src/example_usart.o
 *(.rodata*)
 *fill*         0x000000000800735b        0x1 
 .rodata.L6470_Register
                0x000000000800735c      0x1f4 Core/BSP/Components/L6470/L6470.o
                0x000000000800735c                L6470_Register
 .rodata.L6470_ApplicationCommand
                0x0000000008007550      0x10a Core/BSP/Components/L6470/L6470.o
                0x0000000008007550                L6470_ApplicationCommand
 *fill*         0x000000000800765a        0x2 
 .rodata.L6470_Direction
                0x000000000800765c       0x12 Core/BSP/Components/L6470/L6470.o
                0x000000000800765c                L6470_Direction
 *fill*         0x000000000800766e        0x2 
 .rodata.L6470_ACT
                0x0000000008007670        0xa Core/BSP/Components/L6470/L6470.o
                0x0000000008007670                L6470_ACT
 *fill*         0x000000000800767a        0x2 
 .rodata.MotorParameterInitData
                0x000000000800767c      0x2c0 Core/MotionControl/MicrosteppingMotor/Src/params.o
                0x000000000800767c                MotorParameterInitData
 .rodata.AHBPrescTable
                0x000000000800793c       0x10 Core/Src/system_stm32f7xx.o
                0x000000000800793c                AHBPrescTable
 .rodata.APBPrescTable
                0x000000000800794c        0x8 Core/Src/system_stm32f7xx.o
                0x000000000800794c                APBPrescTable
                0x0000000008007954                . = ALIGN (0x4)

.ARM.extab      0x0000000008007954        0x0
                0x0000000008007954                . = ALIGN (0x4)
 *(.ARM.extab* .gnu.linkonce.armextab.*)
                0x0000000008007954                . = ALIGN (0x4)

.ARM            0x0000000008007954        0x8
                0x0000000008007954                . = ALIGN (0x4)
                0x0000000008007954                __exidx_start = .
 *(.ARM.exidx*)
 .ARM.exidx     0x0000000008007954        0x8 c:/st/stm32cubeide_1.6.1/stm32cubeide/plugins/com.st.stm32cube.ide.mcu.externaltools.gnu-tools-for-stm32.9-2020-q2-update.win32_1.5.0.202011040924/tools/bin/../lib/gcc/arm-none-eabi/9.3.1/thumb/v7e-m+fp/hard\libgcc.a(_udivmoddi4.o)
                0x000000000800795c                __exidx_end = .
                0x000000000800795c                . = ALIGN (0x4)

.rel.dyn        0x000000000800795c        0x0
 .rel.iplt      0x000000000800795c        0x0 c:/st/stm32cubeide_1.6.1/stm32cubeide/plugins/com.st.stm32cube.ide.mcu.externaltools.gnu-tools-for-stm32.9-2020-q2-update.win32_1.5.0.202011040924/tools/bin/../lib/gcc/arm-none-eabi/9.3.1/thumb/v7e-m+fp/hard/crtbegin.o

.preinit_array  0x000000000800795c        0x0
                0x000000000800795c                . = ALIGN (0x4)
                0x000000000800795c                PROVIDE (__preinit_array_start = .)
 *(.preinit_array*)
                0x000000000800795c                PROVIDE (__preinit_array_end = .)
                0x000000000800795c                . = ALIGN (0x4)

.init_array     0x000000000800795c        0x4
                0x000000000800795c                . = ALIGN (0x4)
                0x000000000800795c                PROVIDE (__init_array_start = .)
 *(SORT_BY_NAME(.init_array.*))
 *(.init_array*)
 .init_array    0x000000000800795c        0x4 c:/st/stm32cubeide_1.6.1/stm32cubeide/plugins/com.st.stm32cube.ide.mcu.externaltools.gnu-tools-for-stm32.9-2020-q2-update.win32_1.5.0.202011040924/tools/bin/../lib/gcc/arm-none-eabi/9.3.1/thumb/v7e-m+fp/hard/crtbegin.o
                0x0000000008007960                PROVIDE (__init_array_end = .)
                0x0000000008007960                . = ALIGN (0x4)

.fini_array     0x0000000008007960        0x4
                0x0000000008007960                . = ALIGN (0x4)
                [!provide]                        PROVIDE (__fini_array_start = .)
 *(SORT_BY_NAME(.fini_array.*))
 *(.fini_array*)
 .fini_array    0x0000000008007960        0x4 c:/st/stm32cubeide_1.6.1/stm32cubeide/plugins/com.st.stm32cube.ide.mcu.externaltools.gnu-tools-for-stm32.9-2020-q2-update.win32_1.5.0.202011040924/tools/bin/../lib/gcc/arm-none-eabi/9.3.1/thumb/v7e-m+fp/hard/crtbegin.o
                [!provide]                        PROVIDE (__fini_array_end = .)
                0x0000000008007964                . = ALIGN (0x4)
                0x0000000008007964                _sidata = LOADADDR (.data)

.data           0x0000000020000000      0x34c load address 0x0000000008007964
                0x0000000020000000                . = ALIGN (0x4)
                0x0000000020000000                _sdata = .
 *(.data)
 *(.data*)
 .data.L6470Command
                0x0000000020000000       0x94 Core/BSP/Components/L6470/L6470.o
                0x0000000020000000                L6470Command
 .data.pL6470_StatusRegister
                0x0000000020000094        0x4 Core/BSP/Components/L6470/L6470.o
                0x0000000020000094                pL6470_StatusRegister
 .data.XNUCLEOIHM02A1Command
                0x0000000020000098       0x50 Core/BSP/X-NUCLEO-IHM02A1/xnucleoihm02a1.o
                0x0000000020000098                XNUCLEOIHM02A1Command
 .data.L6470DrvMtx
                0x00000000200000e8      0x1e0 Core/BSP/X-NUCLEO-IHM02A1/xnucleoihm02a1.o
                0x00000000200000e8                L6470DrvMtx
 .data.XNUCLEOIHM02A1Drv
                0x00000000200002c8       0x60 Core/BSP/X-NUCLEO-IHM02A1/xnucleoihm02a1.o
                0x00000000200002c8                XNUCLEOIHM02A1Drv
 .data.L6470_nSTBY_nRST_GPIO
                0x0000000020000328        0xc Core/BSP/X-NUCLEO-IHM02A1/xnucleoihm02a1.o
                0x0000000020000328                L6470_nSTBY_nRST_GPIO
 .data.L6470_nCS_GPIO_Array
                0x0000000020000334        0xc Core/BSP/X-NUCLEO-IHM02A1/xnucleoihm02a1.o
                0x0000000020000334                L6470_nCS_GPIO_Array
 .data.SystemCoreClock
                0x0000000020000340        0x4 Core/Src/system_stm32f7xx.o
                0x0000000020000340                SystemCoreClock
 .data.uwTickPrio
                0x0000000020000344        0x4 Drivers/STM32F7xx_HAL_Driver/Src/stm32f7xx_hal.o
                0x0000000020000344                uwTickPrio
 .data.uwTickFreq
                0x0000000020000348        0x1 Drivers/STM32F7xx_HAL_Driver/Src/stm32f7xx_hal.o
                0x0000000020000348                uwTickFreq
 *(.RamFunc)
 *(.RamFunc*)
                0x000000002000034c                . = ALIGN (0x4)
 *fill*         0x0000000020000349        0x3 
                0x000000002000034c                _edata = .

.igot.plt       0x000000002000034c        0x0 load address 0x0000000008007cb0
 .igot.plt      0x000000002000034c        0x0 c:/st/stm32cubeide_1.6.1/stm32cubeide/plugins/com.st.stm32cube.ide.mcu.externaltools.gnu-tools-for-stm32.9-2020-q2-update.win32_1.5.0.202011040924/tools/bin/../lib/gcc/arm-none-eabi/9.3.1/thumb/v7e-m+fp/hard/crtbegin.o
                0x000000002000034c                . = ALIGN (0x4)

.bss            0x000000002000034c      0x1f8 load address 0x0000000008007cb0
                0x000000002000034c                _sbss = .
                0x000000002000034c                __bss_start__ = _sbss
 *(.bss)
 .bss           0x000000002000034c       0x1c c:/st/stm32cubeide_1.6.1/stm32cubeide/plugins/com.st.stm32cube.ide.mcu.externaltools.gnu-tools-for-stm32.9-2020-q2-update.win32_1.5.0.202011040924/tools/bin/../lib/gcc/arm-none-eabi/9.3.1/thumb/v7e-m+fp/hard/crtbegin.o
 *(.bss*)
 .bss.L6470_DaisyChain_HalfPrepared
                0x0000000020000368        0x1 Core/BSP/Components/L6470/L6470.o
                0x0000000020000368                L6470_DaisyChain_HalfPrepared
 *fill*         0x0000000020000369        0x3 
 .bss.HexValue.9781
                0x000000002000036c        0x9 Core/MotionControl/MicrosteppingMotor/Src/example_usart.o
 *(COMMON)
 *fill*         0x0000000020000375        0x3 
 COMMON         0x0000000020000378       0x33 Core/BSP/Components/L6470/L6470.o
                0x0000000020000378                L6470_DaisyChainSpiRxStruct
                0x0000000020000380                L6470_DaisyChainSpiTxStruct
                0x0000000020000388                L6470_AppCmdPkg
                0x00000000200003a8                L6470_StatusRegister
                0x00000000200003aa                delay_cnt
 *fill*         0x00000000200003ab        0x1 
 COMMON         0x00000000200003ac       0x10 Core/BSP/X-NUCLEO-IHM02A1/xnucleoihm02a1.o
                0x00000000200003ac                L6470_nCS_GPIO
                0x00000000200003b8                StatusBuffer
 COMMON         0x00000000200003bc        0xc Core/MotionControl/MicrosteppingMotor/Src/example.o
                0x00000000200003bc                MotorParameterDataGlobal
                0x00000000200003c0                MotorParameterDataSingle
                0x00000000200003c4                StepperMotorBoardHandle
 COMMON         0x00000000200003c8       0x48 Core/Src/adc.o
                0x00000000200003c8                hadc3
 COMMON         0x0000000020000410       0x48 Core/Src/eth.o
                0x0000000020000410                heth
 COMMON         0x0000000020000458       0x64 Core/Src/spi.o
                0x0000000020000458                hspi1
 COMMON         0x00000000200004bc       0x84 Core/Src/usart.o
                0x00000000200004bc                huart3
 COMMON         0x0000000020000540        0x4 Drivers/STM32F7xx_HAL_Driver/Src/stm32f7xx_hal.o
                0x0000000020000540                uwTick
                0x0000000020000544                . = ALIGN (0x4)
                0x0000000020000544                _ebss = .
                0x0000000020000544                __bss_end__ = _ebss

._user_heap_stack
                0x0000000020000544      0x604 load address 0x0000000008007cb0
                0x0000000020000548                . = ALIGN (0x8)
 *fill*         0x0000000020000544        0x4 
                [!provide]                        PROVIDE (end = .)
                0x0000000020000548                PROVIDE (_end = .)
                0x0000000020000748                . = (. + _Min_Heap_Size)
 *fill*         0x0000000020000548      0x200 
                0x0000000020000b48                . = (. + _Min_Stack_Size)
 *fill*         0x0000000020000748      0x400 
                0x0000000020000b48                . = ALIGN (0x8)

/DISCARD/
 libc.a(*)
 libm.a(*)
 libgcc.a(*)

.ARM.attributes
                0x0000000000000000       0x30
 *(.ARM.attributes)
 .ARM.attributes
                0x0000000000000000       0x1e c:/st/stm32cubeide_1.6.1/stm32cubeide/plugins/com.st.stm32cube.ide.mcu.externaltools.gnu-tools-for-stm32.9-2020-q2-update.win32_1.5.0.202011040924/tools/bin/../lib/gcc/arm-none-eabi/9.3.1/thumb/v7e-m+fp/hard/crti.o
 .ARM.attributes
                0x000000000000001e       0x34 c:/st/stm32cubeide_1.6.1/stm32cubeide/plugins/com.st.stm32cube.ide.mcu.externaltools.gnu-tools-for-stm32.9-2020-q2-update.win32_1.5.0.202011040924/tools/bin/../lib/gcc/arm-none-eabi/9.3.1/thumb/v7e-m+fp/hard/crtbegin.o
 .ARM.attributes
                0x0000000000000052       0x34 Core/BSP/Components/L6470/L6470.o
 .ARM.attributes
                0x0000000000000086       0x34 Core/BSP/X-NUCLEO-IHM02A1/xnucleoihm02a1.o
 .ARM.attributes
                0x00000000000000ba       0x34 Core/MotionControl/MicrosteppingMotor/Src/example.o
 .ARM.attributes
                0x00000000000000ee       0x34 Core/MotionControl/MicrosteppingMotor/Src/example_usart.o
 .ARM.attributes
                0x0000000000000122       0x34 Core/MotionControl/MicrosteppingMotor/Src/main_app.o
 .ARM.attributes
                0x0000000000000156       0x34 Core/MotionControl/MicrosteppingMotor/Src/params.o
 .ARM.attributes
                0x000000000000018a       0x34 Core/Src/adc.o
 .ARM.attributes
                0x00000000000001be       0x34 Core/Src/eth.o
 .ARM.attributes
                0x00000000000001f2       0x34 Core/Src/gpio.o
 .ARM.attributes
                0x0000000000000226       0x34 Core/Src/main.o
 .ARM.attributes
                0x000000000000025a       0x34 Core/Src/spi.o
 .ARM.attributes
                0x000000000000028e       0x34 Core/Src/stm32f7xx_hal_msp.o
 .ARM.attributes
                0x00000000000002c2       0x34 Core/Src/stm32f7xx_it.o
 .ARM.attributes
                0x00000000000002f6       0x34 Core/Src/system_stm32f7xx.o
 .ARM.attributes
                0x000000000000032a       0x34 Core/Src/usart.o
 .ARM.attributes
                0x000000000000035e       0x21 Core/Startup/startup_stm32f746zgtx.o
 .ARM.attributes
                0x000000000000037f       0x34 Drivers/STM32F7xx_HAL_Driver/Src/stm32f7xx_hal.o
 .ARM.attributes
                0x00000000000003b3       0x34 Drivers/STM32F7xx_HAL_Driver/Src/stm32f7xx_hal_adc.o
 .ARM.attributes
                0x00000000000003e7       0x34 Drivers/STM32F7xx_HAL_Driver/Src/stm32f7xx_hal_cortex.o
 .ARM.attributes
                0x000000000000041b       0x34 Drivers/STM32F7xx_HAL_Driver/Src/stm32f7xx_hal_eth.o
 .ARM.attributes
                0x000000000000044f       0x34 Drivers/STM32F7xx_HAL_Driver/Src/stm32f7xx_hal_gpio.o
 .ARM.attributes
                0x0000000000000483       0x34 Drivers/STM32F7xx_HAL_Driver/Src/stm32f7xx_hal_pwr_ex.o
 .ARM.attributes
                0x00000000000004b7       0x34 Drivers/STM32F7xx_HAL_Driver/Src/stm32f7xx_hal_rcc.o
 .ARM.attributes
                0x00000000000004eb       0x34 Drivers/STM32F7xx_HAL_Driver/Src/stm32f7xx_hal_rcc_ex.o
 .ARM.attributes
                0x000000000000051f       0x34 Drivers/STM32F7xx_HAL_Driver/Src/stm32f7xx_hal_spi.o
 .ARM.attributes
                0x0000000000000553       0x34 Drivers/STM32F7xx_HAL_Driver/Src/stm32f7xx_hal_uart.o
 .ARM.attributes
                0x0000000000000587       0x34 c:/st/stm32cubeide_1.6.1/stm32cubeide/plugins/com.st.stm32cube.ide.mcu.externaltools.gnu-tools-for-stm32.9-2020-q2-update.win32_1.5.0.202011040924/tools/bin/../lib/gcc/arm-none-eabi/9.3.1/../../../../arm-none-eabi/lib/thumb/v7e-m+fp/hard\libc_nano.a(lib_a-init.o)
 .ARM.attributes
                0x00000000000005bb       0x34 c:/st/stm32cubeide_1.6.1/stm32cubeide/plugins/com.st.stm32cube.ide.mcu.externaltools.gnu-tools-for-stm32.9-2020-q2-update.win32_1.5.0.202011040924/tools/bin/../lib/gcc/arm-none-eabi/9.3.1/../../../../arm-none-eabi/lib/thumb/v7e-m+fp/hard\libc_nano.a(lib_a-memset.o)
 .ARM.attributes
                0x00000000000005ef       0x1e c:/st/stm32cubeide_1.6.1/stm32cubeide/plugins/com.st.stm32cube.ide.mcu.externaltools.gnu-tools-for-stm32.9-2020-q2-update.win32_1.5.0.202011040924/tools/bin/../lib/gcc/arm-none-eabi/9.3.1/thumb/v7e-m+fp/hard\libgcc.a(_aeabi_uldivmod.o)
 .ARM.attributes
                0x000000000000060d       0x34 c:/st/stm32cubeide_1.6.1/stm32cubeide/plugins/com.st.stm32cube.ide.mcu.externaltools.gnu-tools-for-stm32.9-2020-q2-update.win32_1.5.0.202011040924/tools/bin/../lib/gcc/arm-none-eabi/9.3.1/thumb/v7e-m+fp/hard\libgcc.a(_udivmoddi4.o)
 .ARM.attributes
                0x0000000000000641       0x1e c:/st/stm32cubeide_1.6.1/stm32cubeide/plugins/com.st.stm32cube.ide.mcu.externaltools.gnu-tools-for-stm32.9-2020-q2-update.win32_1.5.0.202011040924/tools/bin/../lib/gcc/arm-none-eabi/9.3.1/thumb/v7e-m+fp/hard\libgcc.a(_dvmd_tls.o)
 .ARM.attributes
                0x000000000000065f       0x1e c:/st/stm32cubeide_1.6.1/stm32cubeide/plugins/com.st.stm32cube.ide.mcu.externaltools.gnu-tools-for-stm32.9-2020-q2-update.win32_1.5.0.202011040924/tools/bin/../lib/gcc/arm-none-eabi/9.3.1/thumb/v7e-m+fp/hard/crtn.o
OUTPUT(vdawgscore.elf elf32-littlearm)
LOAD linker stubs
LOAD c:/st/stm32cubeide_1.6.1/stm32cubeide/plugins/com.st.stm32cube.ide.mcu.externaltools.gnu-tools-for-stm32.9-2020-q2-update.win32_1.5.0.202011040924/tools/bin/../lib/gcc/arm-none-eabi/9.3.1/../../../../arm-none-eabi/lib/thumb/v7e-m+fp/hard\libc.a
LOAD c:/st/stm32cubeide_1.6.1/stm32cubeide/plugins/com.st.stm32cube.ide.mcu.externaltools.gnu-tools-for-stm32.9-2020-q2-update.win32_1.5.0.202011040924/tools/bin/../lib/gcc/arm-none-eabi/9.3.1/../../../../arm-none-eabi/lib/thumb/v7e-m+fp/hard\libm.a
LOAD c:/st/stm32cubeide_1.6.1/stm32cubeide/plugins/com.st.stm32cube.ide.mcu.externaltools.gnu-tools-for-stm32.9-2020-q2-update.win32_1.5.0.202011040924/tools/bin/../lib/gcc/arm-none-eabi/9.3.1/thumb/v7e-m+fp/hard\libgcc.a

.debug_info     0x0000000000000000    0x1a5b4
 .debug_info    0x0000000000000000     0x2a3c Core/BSP/Components/L6470/L6470.o
 .debug_info    0x0000000000002a3c     0x2811 Core/BSP/X-NUCLEO-IHM02A1/xnucleoihm02a1.o
 .debug_info    0x000000000000524d     0x1c16 Core/MotionControl/MicrosteppingMotor/Src/example.o
 .debug_info    0x0000000000006e63     0x1baa Core/MotionControl/MicrosteppingMotor/Src/example_usart.o
 .debug_info    0x0000000000008a0d     0x1430 Core/MotionControl/MicrosteppingMotor/Src/main_app.o
 .debug_info    0x0000000000009e3d     0x15ac Core/MotionControl/MicrosteppingMotor/Src/params.o
 .debug_info    0x000000000000b3e9      0xab8 Core/Src/adc.o
 .debug_info    0x000000000000bea1      0xd06 Core/Src/eth.o
 .debug_info    0x000000000000cba7      0x818 Core/Src/gpio.o
 .debug_info    0x000000000000d3bf     0x19af Core/Src/main.o
 .debug_info    0x000000000000ed6e      0xac8 Core/Src/spi.o
 .debug_info    0x000000000000f836      0x3be Core/Src/stm32f7xx_hal_msp.o
 .debug_info    0x000000000000fbf4      0x25e Core/Src/stm32f7xx_it.o
 .debug_info    0x000000000000fe52      0x7ad Core/Src/system_stm32f7xx.o
 .debug_info    0x00000000000105ff      0xb1a Core/Src/usart.o
 .debug_info    0x0000000000011119       0x22 Core/Startup/startup_stm32f746zgtx.o
 .debug_info    0x000000000001113b      0xa42 Drivers/STM32F7xx_HAL_Driver/Src/stm32f7xx_hal.o
 .debug_info    0x0000000000011b7d      0xd66 Drivers/STM32F7xx_HAL_Driver/Src/stm32f7xx_hal_adc.o
 .debug_info    0x00000000000128e3     0x1116 Drivers/STM32F7xx_HAL_Driver/Src/stm32f7xx_hal_cortex.o
 .debug_info    0x00000000000139f9     0x15f4 Drivers/STM32F7xx_HAL_Driver/Src/stm32f7xx_hal_eth.o
 .debug_info    0x0000000000014fed      0x868 Drivers/STM32F7xx_HAL_Driver/Src/stm32f7xx_hal_gpio.o
 .debug_info    0x0000000000015855      0x9f6 Drivers/STM32F7xx_HAL_Driver/Src/stm32f7xx_hal_pwr_ex.o
 .debug_info    0x000000000001624b      0x9cc Drivers/STM32F7xx_HAL_Driver/Src/stm32f7xx_hal_rcc.o
 .debug_info    0x0000000000016c17      0x82c Drivers/STM32F7xx_HAL_Driver/Src/stm32f7xx_hal_rcc_ex.o
 .debug_info    0x0000000000017443     0x1825 Drivers/STM32F7xx_HAL_Driver/Src/stm32f7xx_hal_spi.o
 .debug_info    0x0000000000018c68     0x194c Drivers/STM32F7xx_HAL_Driver/Src/stm32f7xx_hal_uart.o

.debug_abbrev   0x0000000000000000     0x3160
 .debug_abbrev  0x0000000000000000      0x2c1 Core/BSP/Components/L6470/L6470.o
 .debug_abbrev  0x00000000000002c1      0x2a5 Core/BSP/X-NUCLEO-IHM02A1/xnucleoihm02a1.o
 .debug_abbrev  0x0000000000000566      0x242 Core/MotionControl/MicrosteppingMotor/Src/example.o
 .debug_abbrev  0x00000000000007a8      0x2ba Core/MotionControl/MicrosteppingMotor/Src/example_usart.o
 .debug_abbrev  0x0000000000000a62      0x16c Core/MotionControl/MicrosteppingMotor/Src/main_app.o
 .debug_abbrev  0x0000000000000bce      0x17f Core/MotionControl/MicrosteppingMotor/Src/params.o
 .debug_abbrev  0x0000000000000d4d      0x1bb Core/Src/adc.o
 .debug_abbrev  0x0000000000000f08      0x1cf Core/Src/eth.o
 .debug_abbrev  0x00000000000010d7      0x157 Core/Src/gpio.o
 .debug_abbrev  0x000000000000122e      0x217 Core/Src/main.o
 .debug_abbrev  0x0000000000001445      0x1bb Core/Src/spi.o
 .debug_abbrev  0x0000000000001600      0x11d Core/Src/stm32f7xx_hal_msp.o
 .debug_abbrev  0x000000000000171d       0xd2 Core/Src/stm32f7xx_it.o
 .debug_abbrev  0x00000000000017ef      0x165 Core/Src/system_stm32f7xx.o
 .debug_abbrev  0x0000000000001954      0x1bb Core/Src/usart.o
 .debug_abbrev  0x0000000000001b0f       0x12 Core/Startup/startup_stm32f746zgtx.o
 .debug_abbrev  0x0000000000001b21      0x1ed Drivers/STM32F7xx_HAL_Driver/Src/stm32f7xx_hal.o
 .debug_abbrev  0x0000000000001d0e      0x22f Drivers/STM32F7xx_HAL_Driver/Src/stm32f7xx_hal_adc.o
 .debug_abbrev  0x0000000000001f3d      0x33c Drivers/STM32F7xx_HAL_Driver/Src/stm32f7xx_hal_cortex.o
 .debug_abbrev  0x0000000000002279      0x270 Drivers/STM32F7xx_HAL_Driver/Src/stm32f7xx_hal_eth.o
 .debug_abbrev  0x00000000000024e9      0x1f1 Drivers/STM32F7xx_HAL_Driver/Src/stm32f7xx_hal_gpio.o
 .debug_abbrev  0x00000000000026da      0x1dc Drivers/STM32F7xx_HAL_Driver/Src/stm32f7xx_hal_pwr_ex.o
 .debug_abbrev  0x00000000000028b6      0x246 Drivers/STM32F7xx_HAL_Driver/Src/stm32f7xx_hal_rcc.o
 .debug_abbrev  0x0000000000002afc      0x1d1 Drivers/STM32F7xx_HAL_Driver/Src/stm32f7xx_hal_rcc_ex.o
 .debug_abbrev  0x0000000000002ccd      0x254 Drivers/STM32F7xx_HAL_Driver/Src/stm32f7xx_hal_spi.o
 .debug_abbrev  0x0000000000002f21      0x23f Drivers/STM32F7xx_HAL_Driver/Src/stm32f7xx_hal_uart.o

.debug_aranges  0x0000000000000000     0x1078
 .debug_aranges
                0x0000000000000000      0x260 Core/BSP/Components/L6470/L6470.o
 .debug_aranges
                0x0000000000000260      0x168 Core/BSP/X-NUCLEO-IHM02A1/xnucleoihm02a1.o
 .debug_aranges
                0x00000000000003c8       0x38 Core/MotionControl/MicrosteppingMotor/Src/example.o
 .debug_aranges
                0x0000000000000400       0x88 Core/MotionControl/MicrosteppingMotor/Src/example_usart.o
 .debug_aranges
                0x0000000000000488       0x20 Core/MotionControl/MicrosteppingMotor/Src/main_app.o
 .debug_aranges
                0x00000000000004a8       0x20 Core/MotionControl/MicrosteppingMotor/Src/params.o
 .debug_aranges
                0x00000000000004c8       0x30 Core/Src/adc.o
 .debug_aranges
                0x00000000000004f8       0x30 Core/Src/eth.o
 .debug_aranges
                0x0000000000000528       0x20 Core/Src/gpio.o
 .debug_aranges
                0x0000000000000548       0x30 Core/Src/main.o
 .debug_aranges
                0x0000000000000578       0x30 Core/Src/spi.o
 .debug_aranges
                0x00000000000005a8       0x20 Core/Src/stm32f7xx_hal_msp.o
 .debug_aranges
                0x00000000000005c8       0x70 Core/Src/stm32f7xx_it.o
 .debug_aranges
                0x0000000000000638       0x28 Core/Src/system_stm32f7xx.o
 .debug_aranges
                0x0000000000000660       0x30 Core/Src/usart.o
 .debug_aranges
                0x0000000000000690       0x28 Core/Startup/startup_stm32f746zgtx.o
 .debug_aranges
                0x00000000000006b8      0x100 Drivers/STM32F7xx_HAL_Driver/Src/stm32f7xx_hal.o
 .debug_aranges
                0x00000000000007b8       0xe8 Drivers/STM32F7xx_HAL_Driver/Src/stm32f7xx_hal_adc.o
 .debug_aranges
                0x00000000000008a0      0x118 Drivers/STM32F7xx_HAL_Driver/Src/stm32f7xx_hal_cortex.o
 .debug_aranges
                0x00000000000009b8      0x110 Drivers/STM32F7xx_HAL_Driver/Src/stm32f7xx_hal_eth.o
 .debug_aranges
                0x0000000000000ac8       0x58 Drivers/STM32F7xx_HAL_Driver/Src/stm32f7xx_hal_gpio.o
 .debug_aranges
                0x0000000000000b20       0x80 Drivers/STM32F7xx_HAL_Driver/Src/stm32f7xx_hal_pwr_ex.o
 .debug_aranges
                0x0000000000000ba0       0x88 Drivers/STM32F7xx_HAL_Driver/Src/stm32f7xx_hal_rcc.o
 .debug_aranges
                0x0000000000000c28       0x50 Drivers/STM32F7xx_HAL_Driver/Src/stm32f7xx_hal_rcc_ex.o
 .debug_aranges
                0x0000000000000c78      0x1d8 Drivers/STM32F7xx_HAL_Driver/Src/stm32f7xx_hal_spi.o
 .debug_aranges
                0x0000000000000e50      0x228 Drivers/STM32F7xx_HAL_Driver/Src/stm32f7xx_hal_uart.o

.debug_ranges   0x0000000000000000      0xf10
 .debug_ranges  0x0000000000000000      0x250 Core/BSP/Components/L6470/L6470.o
 .debug_ranges  0x0000000000000250      0x158 Core/BSP/X-NUCLEO-IHM02A1/xnucleoihm02a1.o
 .debug_ranges  0x00000000000003a8       0x28 Core/MotionControl/MicrosteppingMotor/Src/example.o
 .debug_ranges  0x00000000000003d0       0x78 Core/MotionControl/MicrosteppingMotor/Src/example_usart.o
 .debug_ranges  0x0000000000000448       0x10 Core/MotionControl/MicrosteppingMotor/Src/main_app.o
 .debug_ranges  0x0000000000000458       0x10 Core/MotionControl/MicrosteppingMotor/Src/params.o
 .debug_ranges  0x0000000000000468       0x20 Core/Src/adc.o
 .debug_ranges  0x0000000000000488       0x20 Core/Src/eth.o
 .debug_ranges  0x00000000000004a8       0x10 Core/Src/gpio.o
 .debug_ranges  0x00000000000004b8       0x20 Core/Src/main.o
 .debug_ranges  0x00000000000004d8       0x20 Core/Src/spi.o
 .debug_ranges  0x00000000000004f8       0x10 Core/Src/stm32f7xx_hal_msp.o
 .debug_ranges  0x0000000000000508       0x60 Core/Src/stm32f7xx_it.o
 .debug_ranges  0x0000000000000568       0x18 Core/Src/system_stm32f7xx.o
 .debug_ranges  0x0000000000000580       0x20 Core/Src/usart.o
 .debug_ranges  0x00000000000005a0       0x20 Core/Startup/startup_stm32f746zgtx.o
 .debug_ranges  0x00000000000005c0       0xf0 Drivers/STM32F7xx_HAL_Driver/Src/stm32f7xx_hal.o
 .debug_ranges  0x00000000000006b0       0xd8 Drivers/STM32F7xx_HAL_Driver/Src/stm32f7xx_hal_adc.o
 .debug_ranges  0x0000000000000788      0x108 Drivers/STM32F7xx_HAL_Driver/Src/stm32f7xx_hal_cortex.o
 .debug_ranges  0x0000000000000890      0x100 Drivers/STM32F7xx_HAL_Driver/Src/stm32f7xx_hal_eth.o
 .debug_ranges  0x0000000000000990       0x48 Drivers/STM32F7xx_HAL_Driver/Src/stm32f7xx_hal_gpio.o
 .debug_ranges  0x00000000000009d8       0x70 Drivers/STM32F7xx_HAL_Driver/Src/stm32f7xx_hal_pwr_ex.o
 .debug_ranges  0x0000000000000a48       0x78 Drivers/STM32F7xx_HAL_Driver/Src/stm32f7xx_hal_rcc.o
 .debug_ranges  0x0000000000000ac0       0x40 Drivers/STM32F7xx_HAL_Driver/Src/stm32f7xx_hal_rcc_ex.o
 .debug_ranges  0x0000000000000b00      0x1c8 Drivers/STM32F7xx_HAL_Driver/Src/stm32f7xx_hal_spi.o
 .debug_ranges  0x0000000000000cc8      0x248 Drivers/STM32F7xx_HAL_Driver/Src/stm32f7xx_hal_uart.o

.debug_macro    0x0000000000000000    0x27e8e
 .debug_macro   0x0000000000000000      0x25a Core/BSP/Components/L6470/L6470.o
 .debug_macro   0x000000000000025a      0xaae Core/BSP/Components/L6470/L6470.o
 .debug_macro   0x0000000000000d08      0x2ad Core/BSP/Components/L6470/L6470.o
 .debug_macro   0x0000000000000fb5       0x2e Core/BSP/Components/L6470/L6470.o
 .debug_macro   0x0000000000000fe3       0x3b Core/BSP/Components/L6470/L6470.o
 .debug_macro   0x000000000000101e       0x22 Core/BSP/Components/L6470/L6470.o
 .debug_macro   0x0000000000001040       0x8e Core/BSP/Components/L6470/L6470.o
 .debug_macro   0x00000000000010ce       0x51 Core/BSP/Components/L6470/L6470.o
 .debug_macro   0x000000000000111f      0x103 Core/BSP/Components/L6470/L6470.o
 .debug_macro   0x0000000000001222       0x6a Core/BSP/Components/L6470/L6470.o
 .debug_macro   0x000000000000128c      0x1df Core/BSP/Components/L6470/L6470.o
 .debug_macro   0x000000000000146b       0x1c Core/BSP/Components/L6470/L6470.o
 .debug_macro   0x0000000000001487       0x22 Core/BSP/Components/L6470/L6470.o
 .debug_macro   0x00000000000014a9       0xdf Core/BSP/Components/L6470/L6470.o
 .debug_macro   0x0000000000001588     0x12cd Core/BSP/Components/L6470/L6470.o
 .debug_macro   0x0000000000002855      0x11f Core/BSP/Components/L6470/L6470.o
 .debug_macro   0x0000000000002974       0x19 Core/BSP/Components/L6470/L6470.o
 .debug_macro   0x000000000000298d    0x191cb Core/BSP/Components/L6470/L6470.o
 .debug_macro   0x000000000001bb58       0x43 Core/BSP/Components/L6470/L6470.o
 .debug_macro   0x000000000001bb9b     0x36c9 Core/BSP/Components/L6470/L6470.o
 .debug_macro   0x000000000001f264      0x174 Core/BSP/Components/L6470/L6470.o
 .debug_macro   0x000000000001f3d8       0x63 Core/BSP/Components/L6470/L6470.o
 .debug_macro   0x000000000001f43b     0x18ad Core/BSP/Components/L6470/L6470.o
 .debug_macro   0x0000000000020ce8      0x6c4 Core/BSP/Components/L6470/L6470.o
 .debug_macro   0x00000000000213ac      0x185 Core/BSP/Components/L6470/L6470.o
 .debug_macro   0x0000000000021531      0x117 Core/BSP/Components/L6470/L6470.o
 .debug_macro   0x0000000000021648      0x1fe Core/BSP/Components/L6470/L6470.o
 .debug_macro   0x0000000000021846       0x27 Core/BSP/Components/L6470/L6470.o
 .debug_macro   0x000000000002186d      0x24f Core/BSP/Components/L6470/L6470.o
 .debug_macro   0x0000000000021abc       0x41 Core/BSP/Components/L6470/L6470.o
 .debug_macro   0x0000000000021afd       0x58 Core/BSP/Components/L6470/L6470.o
 .debug_macro   0x0000000000021b55      0x236 Core/BSP/Components/L6470/L6470.o
 .debug_macro   0x0000000000021d8b      0x416 Core/BSP/Components/L6470/L6470.o
 .debug_macro   0x00000000000221a1      0x153 Core/BSP/Components/L6470/L6470.o
 .debug_macro   0x00000000000222f4      0x107 Core/BSP/Components/L6470/L6470.o
 .debug_macro   0x00000000000223fb      0xccf Core/BSP/Components/L6470/L6470.o
 .debug_macro   0x00000000000230ca      0x14f Core/BSP/Components/L6470/L6470.o
 .debug_macro   0x0000000000023219      0x25b Core/BSP/Components/L6470/L6470.o
 .debug_macro   0x0000000000023474       0x12 Core/BSP/Components/L6470/L6470.o
 .debug_macro   0x0000000000023486      0x22c Core/BSP/Components/L6470/L6470.o
 .debug_macro   0x00000000000236b2       0x61 Core/BSP/Components/L6470/L6470.o
 .debug_macro   0x0000000000023713       0xa5 Core/BSP/Components/L6470/L6470.o
 .debug_macro   0x00000000000237b8      0x12f Core/BSP/Components/L6470/L6470.o
 .debug_macro   0x00000000000238e7      0x108 Core/BSP/Components/L6470/L6470.o
 .debug_macro   0x00000000000239ef       0x35 Core/BSP/Components/L6470/L6470.o
 .debug_macro   0x0000000000023a24      0x2fe Core/BSP/Components/L6470/L6470.o
 .debug_macro   0x0000000000023d22      0x558 Core/BSP/Components/L6470/L6470.o
 .debug_macro   0x000000000002427a       0x44 Core/BSP/Components/L6470/L6470.o
 .debug_macro   0x00000000000242be      0x14e Core/BSP/Components/L6470/L6470.o
 .debug_macro   0x000000000002440c      0x18a Core/BSP/Components/L6470/L6470.o
 .debug_macro   0x0000000000024596       0xb9 Core/BSP/Components/L6470/L6470.o
 .debug_macro   0x000000000002464f      0x100 Core/BSP/Components/L6470/L6470.o
 .debug_macro   0x000000000002474f      0x247 Core/BSP/X-NUCLEO-IHM02A1/xnucleoihm02a1.o
 .debug_macro   0x0000000000024996       0x50 Core/BSP/X-NUCLEO-IHM02A1/xnucleoihm02a1.o
 .debug_macro   0x00000000000249e6      0x290 Core/MotionControl/MicrosteppingMotor/Src/example.o
 .debug_macro   0x0000000000024c76       0x10 Core/MotionControl/MicrosteppingMotor/Src/example.o
 .debug_macro   0x0000000000024c86       0x56 Core/MotionControl/MicrosteppingMotor/Src/example.o
 .debug_macro   0x0000000000024cdc      0x278 Core/MotionControl/MicrosteppingMotor/Src/example_usart.o
 .debug_macro   0x0000000000024f54      0x26a Core/MotionControl/MicrosteppingMotor/Src/main_app.o
 .debug_macro   0x00000000000251be      0x190 Core/MotionControl/MicrosteppingMotor/Src/main_app.o
 .debug_macro   0x000000000002534e      0x242 Core/MotionControl/MicrosteppingMotor/Src/params.o
 .debug_macro   0x0000000000025590       0xb3 Core/MotionControl/MicrosteppingMotor/Src/params.o
 .debug_macro   0x0000000000025643      0x220 Core/Src/adc.o
 .debug_macro   0x0000000000025863      0x220 Core/Src/eth.o
 .debug_macro   0x0000000000025a83      0x220 Core/Src/gpio.o
 .debug_macro   0x0000000000025ca3      0x256 Core/Src/main.o
 .debug_macro   0x0000000000025ef9      0x220 Core/Src/spi.o
 .debug_macro   0x0000000000026119      0x216 Core/Src/stm32f7xx_hal_msp.o
 .debug_macro   0x000000000002632f      0x220 Core/Src/stm32f7xx_it.o
 .debug_macro   0x000000000002654f      0x207 Core/Src/system_stm32f7xx.o
 .debug_macro   0x0000000000026756      0x220 Core/Src/usart.o
 .debug_macro   0x0000000000026976      0x22b Drivers/STM32F7xx_HAL_Driver/Src/stm32f7xx_hal.o
 .debug_macro   0x0000000000026ba1      0x208 Drivers/STM32F7xx_HAL_Driver/Src/stm32f7xx_hal_adc.o
 .debug_macro   0x0000000000026da9      0x207 Drivers/STM32F7xx_HAL_Driver/Src/stm32f7xx_hal_cortex.o
 .debug_macro   0x0000000000026fb0      0x21d Drivers/STM32F7xx_HAL_Driver/Src/stm32f7xx_hal_eth.o
 .debug_macro   0x00000000000271cd      0x23d Drivers/STM32F7xx_HAL_Driver/Src/stm32f7xx_hal_gpio.o
 .debug_macro   0x000000000002740a      0x21f Drivers/STM32F7xx_HAL_Driver/Src/stm32f7xx_hal_pwr_ex.o
 .debug_macro   0x0000000000027629      0x22b Drivers/STM32F7xx_HAL_Driver/Src/stm32f7xx_hal_rcc.o
 .debug_macro   0x0000000000027854      0x207 Drivers/STM32F7xx_HAL_Driver/Src/stm32f7xx_hal_rcc_ex.o
 .debug_macro   0x0000000000027a5b      0x20f Drivers/STM32F7xx_HAL_Driver/Src/stm32f7xx_hal_spi.o
 .debug_macro   0x0000000000027c6a      0x224 Drivers/STM32F7xx_HAL_Driver/Src/stm32f7xx_hal_uart.o

.debug_line     0x0000000000000000    0x14f3e
 .debug_line    0x0000000000000000     0x16a2 Core/BSP/Components/L6470/L6470.o
 .debug_line    0x00000000000016a2      0xd7b Core/BSP/X-NUCLEO-IHM02A1/xnucleoihm02a1.o
 .debug_line    0x000000000000241d      0xcba Core/MotionControl/MicrosteppingMotor/Src/example.o
 .debug_line    0x00000000000030d7     0x15f6 Core/MotionControl/MicrosteppingMotor/Src/example_usart.o
 .debug_line    0x00000000000046cd      0x916 Core/MotionControl/MicrosteppingMotor/Src/main_app.o
 .debug_line    0x0000000000004fe3      0x8e5 Core/MotionControl/MicrosteppingMotor/Src/params.o
 .debug_line    0x00000000000058c8      0x7b9 Core/Src/adc.o
 .debug_line    0x0000000000006081      0x80d Core/Src/eth.o
 .debug_line    0x000000000000688e      0x7ae Core/Src/gpio.o
 .debug_line    0x000000000000703c      0x850 Core/Src/main.o
 .debug_line    0x000000000000788c      0x7c4 Core/Src/spi.o
 .debug_line    0x0000000000008050      0x73a Core/Src/stm32f7xx_hal_msp.o
 .debug_line    0x000000000000878a      0x82d Core/Src/stm32f7xx_it.o
 .debug_line    0x0000000000008fb7      0x7b9 Core/Src/system_stm32f7xx.o
 .debug_line    0x0000000000009770      0x7a9 Core/Src/usart.o
 .debug_line    0x0000000000009f19       0x88 Core/Startup/startup_stm32f746zgtx.o
 .debug_line    0x0000000000009fa1      0xa4a Drivers/STM32F7xx_HAL_Driver/Src/stm32f7xx_hal.o
 .debug_line    0x000000000000a9eb     0x1294 Drivers/STM32F7xx_HAL_Driver/Src/stm32f7xx_hal_adc.o
 .debug_line    0x000000000000bc7f      0xcd0 Drivers/STM32F7xx_HAL_Driver/Src/stm32f7xx_hal_cortex.o
 .debug_line    0x000000000000c94f     0x170e Drivers/STM32F7xx_HAL_Driver/Src/stm32f7xx_hal_eth.o
 .debug_line    0x000000000000e05d      0xbcc Drivers/STM32F7xx_HAL_Driver/Src/stm32f7xx_hal_gpio.o
 .debug_line    0x000000000000ec29      0x9bf Drivers/STM32F7xx_HAL_Driver/Src/stm32f7xx_hal_pwr_ex.o
 .debug_line    0x000000000000f5e8      0xe8d Drivers/STM32F7xx_HAL_Driver/Src/stm32f7xx_hal_rcc.o
 .debug_line    0x0000000000010475      0xe46 Drivers/STM32F7xx_HAL_Driver/Src/stm32f7xx_hal_rcc_ex.o
 .debug_line    0x00000000000112bb     0x1f53 Drivers/STM32F7xx_HAL_Driver/Src/stm32f7xx_hal_spi.o
 .debug_line    0x000000000001320e     0x1d30 Drivers/STM32F7xx_HAL_Driver/Src/stm32f7xx_hal_uart.o

.debug_str      0x0000000000000000    0xf4f0a
 .debug_str     0x0000000000000000    0xf0994 Core/BSP/Components/L6470/L6470.o
                                      0xf1584 (size before relaxing)
 .debug_str     0x00000000000f0994      0xb11 Core/BSP/X-NUCLEO-IHM02A1/xnucleoihm02a1.o
                                      0xf1793 (size before relaxing)
 .debug_str     0x00000000000f14a5      0x1cd Core/MotionControl/MicrosteppingMotor/Src/example.o
                                      0xf0fcf (size before relaxing)
 .debug_str     0x00000000000f1672      0x3b7 Core/MotionControl/MicrosteppingMotor/Src/example_usart.o
                                      0xf1132 (size before relaxing)
 .debug_str     0x00000000000f1a29       0x5d Core/MotionControl/MicrosteppingMotor/Src/main_app.o
                                      0xf0b68 (size before relaxing)
 .debug_str     0x00000000000f1a86       0xbd Core/MotionControl/MicrosteppingMotor/Src/params.o
                                      0xf053a (size before relaxing)
 .debug_str     0x00000000000f1b43      0x1f2 Core/Src/adc.o
                                      0xef753 (size before relaxing)
 .debug_str     0x00000000000f1d35      0x48a Core/Src/eth.o
                                      0xef7df (size before relaxing)
 .debug_str     0x00000000000f21bf       0x20 Core/Src/gpio.o
                                      0xef8b7 (size before relaxing)
 .debug_str     0x00000000000f21df      0x3dd Core/Src/main.o
                                      0xf02b0 (size before relaxing)
 .debug_str     0x00000000000f25bc       0x4b Core/Src/spi.o
                                      0xef78c (size before relaxing)
 .debug_str     0x00000000000f2607       0x2c Core/Src/stm32f7xx_hal_msp.o
                                      0xef277 (size before relaxing)
 .debug_str     0x00000000000f2633       0xbd Core/Src/stm32f7xx_it.o
                                      0xef224 (size before relaxing)
 .debug_str     0x00000000000f26f0      0x164 Core/Src/system_stm32f7xx.o
                                      0xeecdf (size before relaxing)
 .debug_str     0x00000000000f2854       0x57 Core/Src/usart.o
                                      0xef7a5 (size before relaxing)
 .debug_str     0x00000000000f28ab       0x36 Core/Startup/startup_stm32f746zgtx.o
                                         0x5b (size before relaxing)
 .debug_str     0x00000000000f28e1      0x382 Drivers/STM32F7xx_HAL_Driver/Src/stm32f7xx_hal.o
                                      0xef5a6 (size before relaxing)
 .debug_str     0x00000000000f2c63      0x284 Drivers/STM32F7xx_HAL_Driver/Src/stm32f7xx_hal_adc.o
                                      0xef197 (size before relaxing)
 .debug_str     0x00000000000f2ee7      0x383 Drivers/STM32F7xx_HAL_Driver/Src/stm32f7xx_hal_cortex.o
                                      0xef64d (size before relaxing)
 .debug_str     0x00000000000f326a      0x74e Drivers/STM32F7xx_HAL_Driver/Src/stm32f7xx_hal_eth.o
                                      0xef809 (size before relaxing)
 .debug_str     0x00000000000f39b8      0x224 Drivers/STM32F7xx_HAL_Driver/Src/stm32f7xx_hal_gpio.o
                                      0xeeeca (size before relaxing)
 .debug_str     0x00000000000f3bdc      0x1c9 Drivers/STM32F7xx_HAL_Driver/Src/stm32f7xx_hal_pwr_ex.o
                                      0xeef6e (size before relaxing)
 .debug_str     0x00000000000f3da5      0x26d Drivers/STM32F7xx_HAL_Driver/Src/stm32f7xx_hal_rcc.o
                                      0xef00f (size before relaxing)
 .debug_str     0x00000000000f4012      0x161 Drivers/STM32F7xx_HAL_Driver/Src/stm32f7xx_hal_rcc_ex.o
                                      0xeef99 (size before relaxing)
 .debug_str     0x00000000000f4173      0x56e Drivers/STM32F7xx_HAL_Driver/Src/stm32f7xx_hal_spi.o
                                      0xef4cf (size before relaxing)
 .debug_str     0x00000000000f46e1      0x829 Drivers/STM32F7xx_HAL_Driver/Src/stm32f7xx_hal_uart.o
                                      0xef8df (size before relaxing)

.comment        0x0000000000000000       0x53
 .comment       0x0000000000000000       0x53 Core/BSP/Components/L6470/L6470.o
                                         0x54 (size before relaxing)
 .comment       0x0000000000000053       0x54 Core/BSP/X-NUCLEO-IHM02A1/xnucleoihm02a1.o
 .comment       0x0000000000000053       0x54 Core/MotionControl/MicrosteppingMotor/Src/example.o
 .comment       0x0000000000000053       0x54 Core/MotionControl/MicrosteppingMotor/Src/example_usart.o
 .comment       0x0000000000000053       0x54 Core/MotionControl/MicrosteppingMotor/Src/main_app.o
 .comment       0x0000000000000053       0x54 Core/MotionControl/MicrosteppingMotor/Src/params.o
 .comment       0x0000000000000053       0x54 Core/Src/adc.o
 .comment       0x0000000000000053       0x54 Core/Src/eth.o
 .comment       0x0000000000000053       0x54 Core/Src/gpio.o
 .comment       0x0000000000000053       0x54 Core/Src/main.o
 .comment       0x0000000000000053       0x54 Core/Src/spi.o
 .comment       0x0000000000000053       0x54 Core/Src/stm32f7xx_hal_msp.o
 .comment       0x0000000000000053       0x54 Core/Src/stm32f7xx_it.o
 .comment       0x0000000000000053       0x54 Core/Src/system_stm32f7xx.o
 .comment       0x0000000000000053       0x54 Core/Src/usart.o
 .comment       0x0000000000000053       0x54 Drivers/STM32F7xx_HAL_Driver/Src/stm32f7xx_hal.o
 .comment       0x0000000000000053       0x54 Drivers/STM32F7xx_HAL_Driver/Src/stm32f7xx_hal_adc.o
 .comment       0x0000000000000053       0x54 Drivers/STM32F7xx_HAL_Driver/Src/stm32f7xx_hal_cortex.o
 .comment       0x0000000000000053       0x54 Drivers/STM32F7xx_HAL_Driver/Src/stm32f7xx_hal_eth.o
 .comment       0x0000000000000053       0x54 Drivers/STM32F7xx_HAL_Driver/Src/stm32f7xx_hal_gpio.o
 .comment       0x0000000000000053       0x54 Drivers/STM32F7xx_HAL_Driver/Src/stm32f7xx_hal_pwr_ex.o
 .comment       0x0000000000000053       0x54 Drivers/STM32F7xx_HAL_Driver/Src/stm32f7xx_hal_rcc.o
 .comment       0x0000000000000053       0x54 Drivers/STM32F7xx_HAL_Driver/Src/stm32f7xx_hal_rcc_ex.o
 .comment       0x0000000000000053       0x54 Drivers/STM32F7xx_HAL_Driver/Src/stm32f7xx_hal_spi.o
 .comment       0x0000000000000053       0x54 Drivers/STM32F7xx_HAL_Driver/Src/stm32f7xx_hal_uart.o

.debug_frame    0x0000000000000000     0x4220
 .debug_frame   0x0000000000000000      0xad0 Core/BSP/Components/L6470/L6470.o
 .debug_frame   0x0000000000000ad0      0x5f0 Core/BSP/X-NUCLEO-IHM02A1/xnucleoihm02a1.o
 .debug_frame   0x00000000000010c0       0xa4 Core/MotionControl/MicrosteppingMotor/Src/example.o
 .debug_frame   0x0000000000001164      0x218 Core/MotionControl/MicrosteppingMotor/Src/example_usart.o
 .debug_frame   0x000000000000137c       0x2c Core/MotionControl/MicrosteppingMotor/Src/main_app.o
 .debug_frame   0x00000000000013a8       0x30 Core/MotionControl/MicrosteppingMotor/Src/params.o
 .debug_frame   0x00000000000013d8       0x7c Core/Src/adc.o
 .debug_frame   0x0000000000001454       0x74 Core/Src/eth.o
 .debug_frame   0x00000000000014c8       0x34 Core/Src/gpio.o
 .debug_frame   0x00000000000014fc       0x6c Core/Src/main.o
 .debug_frame   0x0000000000001568       0x74 Core/Src/spi.o
 .debug_frame   0x00000000000015dc       0x38 Core/Src/stm32f7xx_hal_msp.o
 .debug_frame   0x0000000000001614      0x13c Core/Src/stm32f7xx_it.o
 .debug_frame   0x0000000000001750       0x58 Core/Src/system_stm32f7xx.o
 .debug_frame   0x00000000000017a8       0x74 Core/Src/usart.o
 .debug_frame   0x000000000000181c      0x3b4 Drivers/STM32F7xx_HAL_Driver/Src/stm32f7xx_hal.o
 .debug_frame   0x0000000000001bd0      0x3fc Drivers/STM32F7xx_HAL_Driver/Src/stm32f7xx_hal_adc.o
 .debug_frame   0x0000000000001fcc      0x498 Drivers/STM32F7xx_HAL_Driver/Src/stm32f7xx_hal_cortex.o
 .debug_frame   0x0000000000002464      0x4b4 Drivers/STM32F7xx_HAL_Driver/Src/stm32f7xx_hal_eth.o
 .debug_frame   0x0000000000002918      0x14c Drivers/STM32F7xx_HAL_Driver/Src/stm32f7xx_hal_gpio.o
 .debug_frame   0x0000000000002a64      0x1c8 Drivers/STM32F7xx_HAL_Driver/Src/stm32f7xx_hal_pwr_ex.o
 .debug_frame   0x0000000000002c2c      0x1f4 Drivers/STM32F7xx_HAL_Driver/Src/stm32f7xx_hal_rcc.o
 .debug_frame   0x0000000000002e20      0x118 Drivers/STM32F7xx_HAL_Driver/Src/stm32f7xx_hal_rcc_ex.o
 .debug_frame   0x0000000000002f38      0x860 Drivers/STM32F7xx_HAL_Driver/Src/stm32f7xx_hal_spi.o
 .debug_frame   0x0000000000003798      0x9dc Drivers/STM32F7xx_HAL_Driver/Src/stm32f7xx_hal_uart.o
 .debug_frame   0x0000000000004174       0x2c c:/st/stm32cubeide_1.6.1/stm32cubeide/plugins/com.st.stm32cube.ide.mcu.externaltools.gnu-tools-for-stm32.9-2020-q2-update.win32_1.5.0.202011040924/tools/bin/../lib/gcc/arm-none-eabi/9.3.1/../../../../arm-none-eabi/lib/thumb/v7e-m+fp/hard\libc_nano.a(lib_a-init.o)
 .debug_frame   0x00000000000041a0       0x20 c:/st/stm32cubeide_1.6.1/stm32cubeide/plugins/com.st.stm32cube.ide.mcu.externaltools.gnu-tools-for-stm32.9-2020-q2-update.win32_1.5.0.202011040924/tools/bin/../lib/gcc/arm-none-eabi/9.3.1/../../../../arm-none-eabi/lib/thumb/v7e-m+fp/hard\libc_nano.a(lib_a-memset.o)
 .debug_frame   0x00000000000041c0       0x2c c:/st/stm32cubeide_1.6.1/stm32cubeide/plugins/com.st.stm32cube.ide.mcu.externaltools.gnu-tools-for-stm32.9-2020-q2-update.win32_1.5.0.202011040924/tools/bin/../lib/gcc/arm-none-eabi/9.3.1/thumb/v7e-m+fp/hard\libgcc.a(_aeabi_uldivmod.o)
 .debug_frame   0x00000000000041ec       0x34 c:/st/stm32cubeide_1.6.1/stm32cubeide/plugins/com.st.stm32cube.ide.mcu.externaltools.gnu-tools-for-stm32.9-2020-q2-update.win32_1.5.0.202011040924/tools/bin/../lib/gcc/arm-none-eabi/9.3.1/thumb/v7e-m+fp/hard\libgcc.a(_udivmoddi4.o)
