Archive member included to satisfy reference by file (symbol)

c:/st/stm32cubeide_1.6.1/stm32cubeide/plugins/com.st.stm32cube.ide.mcu.externaltools.gnu-tools-for-stm32.9-2020-q2-update.win32_1.5.0.202011040924/tools/bin/../lib/gcc/arm-none-eabi/9.3.1/../../../../arm-none-eabi/lib/thumb/v7e-m+fp/hard\libc_nano.a(lib_a-errno.o)
                              Core/Src/syscalls.o (__errno)
c:/st/stm32cubeide_1.6.1/stm32cubeide/plugins/com.st.stm32cube.ide.mcu.externaltools.gnu-tools-for-stm32.9-2020-q2-update.win32_1.5.0.202011040924/tools/bin/../lib/gcc/arm-none-eabi/9.3.1/../../../../arm-none-eabi/lib/thumb/v7e-m+fp/hard\libc_nano.a(lib_a-exit.o)
                              c:/st/stm32cubeide_1.6.1/stm32cubeide/plugins/com.st.stm32cube.ide.mcu.externaltools.gnu-tools-for-stm32.9-2020-q2-update.win32_1.5.0.202011040924/tools/bin/../lib/gcc/arm-none-eabi/9.3.1/../../../../arm-none-eabi/lib/thumb/v7e-m+fp/hard/crt0.o (exit)
c:/st/stm32cubeide_1.6.1/stm32cubeide/plugins/com.st.stm32cube.ide.mcu.externaltools.gnu-tools-for-stm32.9-2020-q2-update.win32_1.5.0.202011040924/tools/bin/../lib/gcc/arm-none-eabi/9.3.1/../../../../arm-none-eabi/lib/thumb/v7e-m+fp/hard\libc_nano.a(lib_a-impure.o)
                              c:/st/stm32cubeide_1.6.1/stm32cubeide/plugins/com.st.stm32cube.ide.mcu.externaltools.gnu-tools-for-stm32.9-2020-q2-update.win32_1.5.0.202011040924/tools/bin/../lib/gcc/arm-none-eabi/9.3.1/../../../../arm-none-eabi/lib/thumb/v7e-m+fp/hard\libc_nano.a(lib_a-exit.o) (_global_impure_ptr)
c:/st/stm32cubeide_1.6.1/stm32cubeide/plugins/com.st.stm32cube.ide.mcu.externaltools.gnu-tools-for-stm32.9-2020-q2-update.win32_1.5.0.202011040924/tools/bin/../lib/gcc/arm-none-eabi/9.3.1/../../../../arm-none-eabi/lib/thumb/v7e-m+fp/hard\libc_nano.a(lib_a-init.o)
                              c:/st/stm32cubeide_1.6.1/stm32cubeide/plugins/com.st.stm32cube.ide.mcu.externaltools.gnu-tools-for-stm32.9-2020-q2-update.win32_1.5.0.202011040924/tools/bin/../lib/gcc/arm-none-eabi/9.3.1/../../../../arm-none-eabi/lib/thumb/v7e-m+fp/hard/crt0.o (__libc_init_array)
c:/st/stm32cubeide_1.6.1/stm32cubeide/plugins/com.st.stm32cube.ide.mcu.externaltools.gnu-tools-for-stm32.9-2020-q2-update.win32_1.5.0.202011040924/tools/bin/../lib/gcc/arm-none-eabi/9.3.1/../../../../arm-none-eabi/lib/thumb/v7e-m+fp/hard\libc_nano.a(lib_a-memset.o)
                              c:/st/stm32cubeide_1.6.1/stm32cubeide/plugins/com.st.stm32cube.ide.mcu.externaltools.gnu-tools-for-stm32.9-2020-q2-update.win32_1.5.0.202011040924/tools/bin/../lib/gcc/arm-none-eabi/9.3.1/../../../../arm-none-eabi/lib/thumb/v7e-m+fp/hard/crt0.o (memset)
c:/st/stm32cubeide_1.6.1/stm32cubeide/plugins/com.st.stm32cube.ide.mcu.externaltools.gnu-tools-for-stm32.9-2020-q2-update.win32_1.5.0.202011040924/tools/bin/../lib/gcc/arm-none-eabi/9.3.1/thumb/v7e-m+fp/hard\libgcc.a(_arm_muldf3.o)
                              Core/BSP/Components/L6470/L6470.o (__aeabi_dmul)
c:/st/stm32cubeide_1.6.1/stm32cubeide/plugins/com.st.stm32cube.ide.mcu.externaltools.gnu-tools-for-stm32.9-2020-q2-update.win32_1.5.0.202011040924/tools/bin/../lib/gcc/arm-none-eabi/9.3.1/thumb/v7e-m+fp/hard\libgcc.a(_arm_addsubdf3.o)
                              Core/BSP/Components/L6470/L6470.o (__aeabi_dadd)
c:/st/stm32cubeide_1.6.1/stm32cubeide/plugins/com.st.stm32cube.ide.mcu.externaltools.gnu-tools-for-stm32.9-2020-q2-update.win32_1.5.0.202011040924/tools/bin/../lib/gcc/arm-none-eabi/9.3.1/thumb/v7e-m+fp/hard\libgcc.a(_arm_truncdfsf2.o)
                              Core/BSP/Components/L6470/L6470.o (__aeabi_d2f)

Allocating common symbols
Common symbol       size              file

L6470_DaisyChainSpiRxStruct
                    0x8               Core/BSP/Components/L6470/L6470.o
MotorParameterDataGlobal
                    0x4               Core/MotionControl/MicrosteppingMotor/Src/example.o
hspi2               0x64              Core/Src/spi.o
L6470_DaisyChainSpiTxStruct
                    0x8               Core/BSP/Components/L6470/L6470.o
L6470_nCS_GPIO      0xc               Core/BSP/X-NUCLEO-IHM02A1/xnucleoihm02a1.o
uwTick              0x4               Drivers/STM32F3xx_HAL_Driver/stm32f3xx_hal.o
L6470_AppCmdPkg     0x20              Core/BSP/Components/L6470/L6470.o
pFlash              0x20              Drivers/STM32F3xx_HAL_Driver/stm32f3xx_hal_flash.o
MotorParameterDataSingle
                    0x4               Core/MotionControl/MicrosteppingMotor/Src/example.o
StatusBuffer        0x4               Core/BSP/X-NUCLEO-IHM02A1/xnucleoihm02a1.o
hadc1               0x50              Core/Src/adc.o
L6470_StatusRegister
                    0x2               Core/BSP/Components/L6470/L6470.o
L6470_DaisyChainMnemonic
                    0x1a              Core/MotionControl/MicrosteppingMotor/Src/example_usart.o
huart2              0x84              Core/MotionControl/MicrosteppingMotor/Src/example_usart.o
L6470_TextCommandBundle
                    0x60              Core/MotionControl/MicrosteppingMotor/Src/example_usart.o
StepperMotorBoardHandle
                    0x4               Core/MotionControl/MicrosteppingMotor/Src/example.o
UsartTextString     0x40              Core/MotionControl/MicrosteppingMotor/Src/example_usart.o
delay_cnt           0x1               Core/BSP/Components/L6470/L6470.o

Discarded input sections

 .text          0x0000000000000000        0x0 c:/st/stm32cubeide_1.6.1/stm32cubeide/plugins/com.st.stm32cube.ide.mcu.externaltools.gnu-tools-for-stm32.9-2020-q2-update.win32_1.5.0.202011040924/tools/bin/../lib/gcc/arm-none-eabi/9.3.1/thumb/v7e-m+fp/hard/crti.o
 .data          0x0000000000000000        0x0 c:/st/stm32cubeide_1.6.1/stm32cubeide/plugins/com.st.stm32cube.ide.mcu.externaltools.gnu-tools-for-stm32.9-2020-q2-update.win32_1.5.0.202011040924/tools/bin/../lib/gcc/arm-none-eabi/9.3.1/thumb/v7e-m+fp/hard/crti.o
 .bss           0x0000000000000000        0x0 c:/st/stm32cubeide_1.6.1/stm32cubeide/plugins/com.st.stm32cube.ide.mcu.externaltools.gnu-tools-for-stm32.9-2020-q2-update.win32_1.5.0.202011040924/tools/bin/../lib/gcc/arm-none-eabi/9.3.1/thumb/v7e-m+fp/hard/crti.o
 .data          0x0000000000000000        0x4 c:/st/stm32cubeide_1.6.1/stm32cubeide/plugins/com.st.stm32cube.ide.mcu.externaltools.gnu-tools-for-stm32.9-2020-q2-update.win32_1.5.0.202011040924/tools/bin/../lib/gcc/arm-none-eabi/9.3.1/thumb/v7e-m+fp/hard/crtbegin.o
 .text          0x0000000000000000       0x7c c:/st/stm32cubeide_1.6.1/stm32cubeide/plugins/com.st.stm32cube.ide.mcu.externaltools.gnu-tools-for-stm32.9-2020-q2-update.win32_1.5.0.202011040924/tools/bin/../lib/gcc/arm-none-eabi/9.3.1/../../../../arm-none-eabi/lib/thumb/v7e-m+fp/hard/crt0.o
 .data          0x0000000000000000        0x0 c:/st/stm32cubeide_1.6.1/stm32cubeide/plugins/com.st.stm32cube.ide.mcu.externaltools.gnu-tools-for-stm32.9-2020-q2-update.win32_1.5.0.202011040924/tools/bin/../lib/gcc/arm-none-eabi/9.3.1/../../../../arm-none-eabi/lib/thumb/v7e-m+fp/hard/crt0.o
 .bss           0x0000000000000000        0x0 c:/st/stm32cubeide_1.6.1/stm32cubeide/plugins/com.st.stm32cube.ide.mcu.externaltools.gnu-tools-for-stm32.9-2020-q2-update.win32_1.5.0.202011040924/tools/bin/../lib/gcc/arm-none-eabi/9.3.1/../../../../arm-none-eabi/lib/thumb/v7e-m+fp/hard/crt0.o
 .ARM.extab     0x0000000000000000        0x0 c:/st/stm32cubeide_1.6.1/stm32cubeide/plugins/com.st.stm32cube.ide.mcu.externaltools.gnu-tools-for-stm32.9-2020-q2-update.win32_1.5.0.202011040924/tools/bin/../lib/gcc/arm-none-eabi/9.3.1/../../../../arm-none-eabi/lib/thumb/v7e-m+fp/hard/crt0.o
 .ARM.exidx     0x0000000000000000       0x10 c:/st/stm32cubeide_1.6.1/stm32cubeide/plugins/com.st.stm32cube.ide.mcu.externaltools.gnu-tools-for-stm32.9-2020-q2-update.win32_1.5.0.202011040924/tools/bin/../lib/gcc/arm-none-eabi/9.3.1/../../../../arm-none-eabi/lib/thumb/v7e-m+fp/hard/crt0.o
 .ARM.attributes
                0x0000000000000000       0x1c c:/st/stm32cubeide_1.6.1/stm32cubeide/plugins/com.st.stm32cube.ide.mcu.externaltools.gnu-tools-for-stm32.9-2020-q2-update.win32_1.5.0.202011040924/tools/bin/../lib/gcc/arm-none-eabi/9.3.1/../../../../arm-none-eabi/lib/thumb/v7e-m+fp/hard/crt0.o
 .group         0x0000000000000000        0xc Core/BSP/Components/L6470/L6470.o
 .group         0x0000000000000000        0xc Core/BSP/Components/L6470/L6470.o
 .group         0x0000000000000000        0xc Core/BSP/Components/L6470/L6470.o
 .group         0x0000000000000000        0xc Core/BSP/Components/L6470/L6470.o
 .group         0x0000000000000000        0xc Core/BSP/Components/L6470/L6470.o
 .group         0x0000000000000000        0xc Core/BSP/Components/L6470/L6470.o
 .group         0x0000000000000000        0xc Core/BSP/Components/L6470/L6470.o
Memory Configuration

Name             Origin             Length             Attributes
RAM              0x0000000020000000 0x0000000000004000 xrw
FLASH            0x0000000008000000 0x0000000000010000 xr
*default*        0x0000000000000000 0xffffffffffffffff

Linker script and memory map

LOAD c:/st/stm32cubeide_1.6.1/stm32cubeide/plugins/com.st.stm32cube.ide.mcu.externaltools.gnu-tools-for-stm32.9-2020-q2-update.win32_1.5.0.202011040924/tools/bin/../lib/gcc/arm-none-eabi/9.3.1/thumb/v7e-m+fp/hard/crti.o
LOAD c:/st/stm32cubeide_1.6.1/stm32cubeide/plugins/com.st.stm32cube.ide.mcu.externaltools.gnu-tools-for-stm32.9-2020-q2-update.win32_1.5.0.202011040924/tools/bin/../lib/gcc/arm-none-eabi/9.3.1/thumb/v7e-m+fp/hard/crtbegin.o
LOAD c:/st/stm32cubeide_1.6.1/stm32cubeide/plugins/com.st.stm32cube.ide.mcu.externaltools.gnu-tools-for-stm32.9-2020-q2-update.win32_1.5.0.202011040924/tools/bin/../lib/gcc/arm-none-eabi/9.3.1/../../../../arm-none-eabi/lib/thumb/v7e-m+fp/hard/crt0.o
LOAD Core/BSP/Components/L6470/L6470.o
LOAD Core/BSP/X-NUCLEO-IHM02A1/xnucleoihm02a1.o
LOAD Core/MotionControl/MicrosteppingMotor/Src/example.o
LOAD Core/MotionControl/MicrosteppingMotor/Src/example_usart.o
LOAD Core/MotionControl/MicrosteppingMotor/Src/main_app.o
LOAD Core/MotionControl/MicrosteppingMotor/Src/params.o
LOAD Core/MotionControl/MicrosteppingMotor/Src/stm32f3xx_hal_msp.o
LOAD Core/MotionControl/MicrosteppingMotor/Src/stm32f3xx_it.o
LOAD Core/Src/adc.o
LOAD Core/Src/gpio.o
LOAD Core/Src/main.o
LOAD Core/Src/spi.o
LOAD Core/Src/stm32f3xx_hal_msp.o
LOAD Core/Src/stm32f3xx_it.o
LOAD Core/Src/syscalls.o
LOAD Core/Src/sysmem.o
LOAD Core/Src/system_stm32f3xx.o
LOAD Core/Src/usart.o
LOAD Core/Startup/startup_stm32f302r8tx.o
LOAD Drivers/STM32F3xx_HAL_Driver/stm32f3xx_hal.o
LOAD Drivers/STM32F3xx_HAL_Driver/stm32f3xx_hal_adc.o
LOAD Drivers/STM32F3xx_HAL_Driver/stm32f3xx_hal_adc_ex.o
LOAD Drivers/STM32F3xx_HAL_Driver/stm32f3xx_hal_cortex.o
LOAD Drivers/STM32F3xx_HAL_Driver/stm32f3xx_hal_dma.o
LOAD Drivers/STM32F3xx_HAL_Driver/stm32f3xx_hal_exti.o
LOAD Drivers/STM32F3xx_HAL_Driver/stm32f3xx_hal_flash.o
LOAD Drivers/STM32F3xx_HAL_Driver/stm32f3xx_hal_flash_ex.o
LOAD Drivers/STM32F3xx_HAL_Driver/stm32f3xx_hal_gpio.o
LOAD Drivers/STM32F3xx_HAL_Driver/stm32f3xx_hal_i2c.o
LOAD Drivers/STM32F3xx_HAL_Driver/stm32f3xx_hal_i2c_ex.o
LOAD Drivers/STM32F3xx_HAL_Driver/stm32f3xx_hal_pwr.o
LOAD Drivers/STM32F3xx_HAL_Driver/stm32f3xx_hal_pwr_ex.o
LOAD Drivers/STM32F3xx_HAL_Driver/stm32f3xx_hal_rcc.o
LOAD Drivers/STM32F3xx_HAL_Driver/stm32f3xx_hal_rcc_ex.o
LOAD Drivers/STM32F3xx_HAL_Driver/stm32f3xx_hal_spi.o
LOAD Drivers/STM32F3xx_HAL_Driver/stm32f3xx_hal_spi_ex.o
LOAD Drivers/STM32F3xx_HAL_Driver/stm32f3xx_hal_tim.o
LOAD Drivers/STM32F3xx_HAL_Driver/stm32f3xx_hal_tim_ex.o
LOAD Drivers/STM32F3xx_HAL_Driver/stm32f3xx_hal_uart.o
LOAD Drivers/STM32F3xx_HAL_Driver/stm32f3xx_hal_uart_ex.o
START GROUP
LOAD c:/st/stm32cubeide_1.6.1/stm32cubeide/plugins/com.st.stm32cube.ide.mcu.externaltools.gnu-tools-for-stm32.9-2020-q2-update.win32_1.5.0.202011040924/tools/bin/../lib/gcc/arm-none-eabi/9.3.1/../../../../arm-none-eabi/lib/thumb/v7e-m+fp/hard\libc_nano.a
LOAD c:/st/stm32cubeide_1.6.1/stm32cubeide/plugins/com.st.stm32cube.ide.mcu.externaltools.gnu-tools-for-stm32.9-2020-q2-update.win32_1.5.0.202011040924/tools/bin/../lib/gcc/arm-none-eabi/9.3.1/../../../../arm-none-eabi/lib/thumb/v7e-m+fp/hard\libm.a
END GROUP
START GROUP
LOAD c:/st/stm32cubeide_1.6.1/stm32cubeide/plugins/com.st.stm32cube.ide.mcu.externaltools.gnu-tools-for-stm32.9-2020-q2-update.win32_1.5.0.202011040924/tools/bin/../lib/gcc/arm-none-eabi/9.3.1/thumb/v7e-m+fp/hard\libgcc.a
LOAD c:/st/stm32cubeide_1.6.1/stm32cubeide/plugins/com.st.stm32cube.ide.mcu.externaltools.gnu-tools-for-stm32.9-2020-q2-update.win32_1.5.0.202011040924/tools/bin/../lib/gcc/arm-none-eabi/9.3.1/../../../../arm-none-eabi/lib/thumb/v7e-m+fp/hard\libc_nano.a
END GROUP
START GROUP
LOAD c:/st/stm32cubeide_1.6.1/stm32cubeide/plugins/com.st.stm32cube.ide.mcu.externaltools.gnu-tools-for-stm32.9-2020-q2-update.win32_1.5.0.202011040924/tools/bin/../lib/gcc/arm-none-eabi/9.3.1/thumb/v7e-m+fp/hard\libgcc.a
LOAD c:/st/stm32cubeide_1.6.1/stm32cubeide/plugins/com.st.stm32cube.ide.mcu.externaltools.gnu-tools-for-stm32.9-2020-q2-update.win32_1.5.0.202011040924/tools/bin/../lib/gcc/arm-none-eabi/9.3.1/../../../../arm-none-eabi/lib/thumb/v7e-m+fp/hard\libc_nano.a
LOAD c:/st/stm32cubeide_1.6.1/stm32cubeide/plugins/com.st.stm32cube.ide.mcu.externaltools.gnu-tools-for-stm32.9-2020-q2-update.win32_1.5.0.202011040924/tools/bin/../lib/gcc/arm-none-eabi/9.3.1/../../../../arm-none-eabi/lib/thumb/v7e-m+fp/hard\libnosys.a
END GROUP
START GROUP
LOAD c:/st/stm32cubeide_1.6.1/stm32cubeide/plugins/com.st.stm32cube.ide.mcu.externaltools.gnu-tools-for-stm32.9-2020-q2-update.win32_1.5.0.202011040924/tools/bin/../lib/gcc/arm-none-eabi/9.3.1/thumb/v7e-m+fp/hard\libgcc.a
LOAD c:/st/stm32cubeide_1.6.1/stm32cubeide/plugins/com.st.stm32cube.ide.mcu.externaltools.gnu-tools-for-stm32.9-2020-q2-update.win32_1.5.0.202011040924/tools/bin/../lib/gcc/arm-none-eabi/9.3.1/../../../../arm-none-eabi/lib/thumb/v7e-m+fp/hard\libc_nano.a
LOAD c:/st/stm32cubeide_1.6.1/stm32cubeide/plugins/com.st.stm32cube.ide.mcu.externaltools.gnu-tools-for-stm32.9-2020-q2-update.win32_1.5.0.202011040924/tools/bin/../lib/gcc/arm-none-eabi/9.3.1/../../../../arm-none-eabi/lib/thumb/v7e-m+fp/hard\libnosys.a
END GROUP
LOAD c:/st/stm32cubeide_1.6.1/stm32cubeide/plugins/com.st.stm32cube.ide.mcu.externaltools.gnu-tools-for-stm32.9-2020-q2-update.win32_1.5.0.202011040924/tools/bin/../lib/gcc/arm-none-eabi/9.3.1/thumb/v7e-m+fp/hard/crtend.o
LOAD c:/st/stm32cubeide_1.6.1/stm32cubeide/plugins/com.st.stm32cube.ide.mcu.externaltools.gnu-tools-for-stm32.9-2020-q2-update.win32_1.5.0.202011040924/tools/bin/../lib/gcc/arm-none-eabi/9.3.1/thumb/v7e-m+fp/hard/crtn.o
                0x0000000020004000                _estack = (ORIGIN (RAM) + LENGTH (RAM))
                0x0000000000000200                _Min_Heap_Size = 0x200
                0x0000000000000400                _Min_Stack_Size = 0x400

.isr_vector     0x0000000008000000      0x188
                0x0000000008000000                . = ALIGN (0x4)
 *(.isr_vector)
 .isr_vector    0x0000000008000000      0x188 Core/Startup/startup_stm32f302r8tx.o
                0x0000000008000000                g_pfnVectors
                0x0000000008000188                . = ALIGN (0x4)

.text           0x0000000008000188     0x6e08
                0x0000000008000188                . = ALIGN (0x4)
 *(.text)
 .text          0x0000000008000188       0x40 c:/st/stm32cubeide_1.6.1/stm32cubeide/plugins/com.st.stm32cube.ide.mcu.externaltools.gnu-tools-for-stm32.9-2020-q2-update.win32_1.5.0.202011040924/tools/bin/../lib/gcc/arm-none-eabi/9.3.1/thumb/v7e-m+fp/hard/crtbegin.o
 *(.text*)
 .text.L6470_ResetAppCmdPkg
                0x00000000080001c8       0x58 Core/BSP/Components/L6470/L6470.o
                0x00000000080001c8                L6470_ResetAppCmdPkg
 .text.L6470_FillAppCmdPkg
                0x0000000008000220       0x4e Core/BSP/Components/L6470/L6470.o
                0x0000000008000220                L6470_FillAppCmdPkg
 *fill*         0x000000000800026e        0x2 
 .text.L6470_PrepareAppCmdPkg
                0x0000000008000270       0x48 Core/BSP/Components/L6470/L6470.o
                0x0000000008000270                L6470_PrepareAppCmdPkg
 .text.L6470_PrepareDaisyChainCommand
                0x00000000080002b8      0x458 Core/BSP/Components/L6470/L6470.o
                0x00000000080002b8                L6470_PrepareDaisyChainCommand
 .text.Step_s_2_Speed
                0x0000000008000710       0x48 Core/BSP/Components/L6470/L6470.o
                0x0000000008000710                Step_s_2_Speed
 .text.Step_s2_2_Acc
                0x0000000008000758       0x4c Core/BSP/Components/L6470/L6470.o
                0x0000000008000758                Step_s2_2_Acc
 .text.Step_s2_2_Dec
                0x00000000080007a4       0x4c Core/BSP/Components/L6470/L6470.o
                0x00000000080007a4                Step_s2_2_Dec
 .text.Step_s_2_MaxSpeed
                0x00000000080007f0       0x4c Core/BSP/Components/L6470/L6470.o
                0x00000000080007f0                Step_s_2_MaxSpeed
 .text.Step_s_2_MinSpeed
                0x000000000800083c       0x4c Core/BSP/Components/L6470/L6470.o
                0x000000000800083c                Step_s_2_MinSpeed
 .text.Step_s_2_FsSpd
                0x0000000008000888       0x54 Core/BSP/Components/L6470/L6470.o
                0x0000000008000888                Step_s_2_FsSpd
 .text.Step_s_2_IntSpeed
                0x00000000080008dc       0x4c Core/BSP/Components/L6470/L6470.o
                0x00000000080008dc                Step_s_2_IntSpeed
 .text.s_Step_2_StSlp
                0x0000000008000928       0x4c Core/BSP/Components/L6470/L6470.o
                0x0000000008000928                s_Step_2_StSlp
 .text.s_Step_2_FnSlpAcc
                0x0000000008000974       0x4c Core/BSP/Components/L6470/L6470.o
                0x0000000008000974                s_Step_2_FnSlpAcc
 .text.s_Step_2_FnSlpDec
                0x00000000080009c0       0x4c Core/BSP/Components/L6470/L6470.o
                0x00000000080009c0                s_Step_2_FnSlpDec
 .text.mA_2_OcdTh
                0x0000000008000a0c       0xa0 Core/BSP/Components/L6470/L6470.o
                0x0000000008000a0c                mA_2_OcdTh
 .text.mA_2_StallTh
                0x0000000008000aac       0xa0 Core/BSP/Components/L6470/L6470.o
                0x0000000008000aac                mA_2_StallTh
 .text.L6470_SetParam
                0x0000000008000b4c       0x4c Core/BSP/Components/L6470/L6470.o
                0x0000000008000b4c                L6470_SetParam
 .text.L6470_GetParam
                0x0000000008000b98       0x70 Core/BSP/Components/L6470/L6470.o
                0x0000000008000b98                L6470_GetParam
 .text.L6470_Run
                0x0000000008000c08       0x4c Core/BSP/Components/L6470/L6470.o
                0x0000000008000c08                L6470_Run
 .text.L6470_StepClock
                0x0000000008000c54       0x48 Core/BSP/Components/L6470/L6470.o
                0x0000000008000c54                L6470_StepClock
 .text.L6470_Move
                0x0000000008000c9c       0x4c Core/BSP/Components/L6470/L6470.o
                0x0000000008000c9c                L6470_Move
 .text.L6470_GoTo
                0x0000000008000ce8       0x4c Core/BSP/Components/L6470/L6470.o
                0x0000000008000ce8                L6470_GoTo
 .text.L6470_GoToDir
                0x0000000008000d34       0x54 Core/BSP/Components/L6470/L6470.o
                0x0000000008000d34                L6470_GoToDir
 .text.L6470_GoUntil
                0x0000000008000d88       0x50 Core/BSP/Components/L6470/L6470.o
                0x0000000008000d88                L6470_GoUntil
 .text.L6470_ReleaseSW
                0x0000000008000dd8       0x4c Core/BSP/Components/L6470/L6470.o
                0x0000000008000dd8                L6470_ReleaseSW
 .text.L6470_GoHome
                0x0000000008000e24       0x44 Core/BSP/Components/L6470/L6470.o
                0x0000000008000e24                L6470_GoHome
 .text.L6470_GoMark
                0x0000000008000e68       0x44 Core/BSP/Components/L6470/L6470.o
                0x0000000008000e68                L6470_GoMark
 .text.L6470_ResetPos
                0x0000000008000eac       0x44 Core/BSP/Components/L6470/L6470.o
                0x0000000008000eac                L6470_ResetPos
 .text.L6470_ResetDevice
                0x0000000008000ef0       0x44 Core/BSP/Components/L6470/L6470.o
                0x0000000008000ef0                L6470_ResetDevice
 .text.L6470_SoftStop
                0x0000000008000f34       0x44 Core/BSP/Components/L6470/L6470.o
                0x0000000008000f34                L6470_SoftStop
 .text.L6470_HardStop
                0x0000000008000f78       0x44 Core/BSP/Components/L6470/L6470.o
                0x0000000008000f78                L6470_HardStop
 .text.L6470_SoftHiZ
                0x0000000008000fbc       0x44 Core/BSP/Components/L6470/L6470.o
                0x0000000008000fbc                L6470_SoftHiZ
 .text.L6470_HardHiZ
                0x0000000008001000       0x44 Core/BSP/Components/L6470/L6470.o
                0x0000000008001000                L6470_HardHiZ
 .text.L6470_GetStatus
                0x0000000008001044       0x54 Core/BSP/Components/L6470/L6470.o
                0x0000000008001044                L6470_GetStatus
 .text.L6470_PrepareSetParam
                0x0000000008001098       0x34 Core/BSP/Components/L6470/L6470.o
                0x0000000008001098                L6470_PrepareSetParam
 .text.L6470_PrepareGetParam
                0x00000000080010cc       0x30 Core/BSP/Components/L6470/L6470.o
                0x00000000080010cc                L6470_PrepareGetParam
 .text.L6470_PrepareRun
                0x00000000080010fc       0x34 Core/BSP/Components/L6470/L6470.o
                0x00000000080010fc                L6470_PrepareRun
 .text.L6470_PrepareStepClock
                0x0000000008001130       0x30 Core/BSP/Components/L6470/L6470.o
                0x0000000008001130                L6470_PrepareStepClock
 .text.L6470_PrepareMove
                0x0000000008001160       0x34 Core/BSP/Components/L6470/L6470.o
                0x0000000008001160                L6470_PrepareMove
 .text.L6470_PrepareGoTo
                0x0000000008001194       0x2c Core/BSP/Components/L6470/L6470.o
                0x0000000008001194                L6470_PrepareGoTo
 .text.L6470_PrepareGoToDir
                0x00000000080011c0       0x34 Core/BSP/Components/L6470/L6470.o
                0x00000000080011c0                L6470_PrepareGoToDir
 .text.L6470_PrepareGoUntil
                0x00000000080011f4       0x38 Core/BSP/Components/L6470/L6470.o
                0x00000000080011f4                L6470_PrepareGoUntil
 .text.L6470_PrepareReleaseSW
                0x000000000800122c       0x34 Core/BSP/Components/L6470/L6470.o
                0x000000000800122c                L6470_PrepareReleaseSW
 .text.L6470_PrepareGoHome
                0x0000000008001260       0x2c Core/BSP/Components/L6470/L6470.o
                0x0000000008001260                L6470_PrepareGoHome
 .text.L6470_PrepareGoMark
                0x000000000800128c       0x2c Core/BSP/Components/L6470/L6470.o
                0x000000000800128c                L6470_PrepareGoMark
 .text.L6470_PrepareResetPos
                0x00000000080012b8       0x2c Core/BSP/Components/L6470/L6470.o
                0x00000000080012b8                L6470_PrepareResetPos
 .text.L6470_PrepareResetDevice
                0x00000000080012e4       0x2c Core/BSP/Components/L6470/L6470.o
                0x00000000080012e4                L6470_PrepareResetDevice
 .text.L6470_PrepareSoftStop
                0x0000000008001310       0x2c Core/BSP/Components/L6470/L6470.o
                0x0000000008001310                L6470_PrepareSoftStop
 .text.L6470_PrepareHardStop
                0x000000000800133c       0x2c Core/BSP/Components/L6470/L6470.o
                0x000000000800133c                L6470_PrepareHardStop
 .text.L6470_PrepareSoftHiZ
                0x0000000008001368       0x2c Core/BSP/Components/L6470/L6470.o
                0x0000000008001368                L6470_PrepareSoftHiZ
 .text.L6470_PrepareHardHiZ
                0x0000000008001394       0x2c Core/BSP/Components/L6470/L6470.o
                0x0000000008001394                L6470_PrepareHardHiZ
 .text.L6470_PrepareGetStatus
                0x00000000080013c0       0x2c Core/BSP/Components/L6470/L6470.o
                0x00000000080013c0                L6470_PrepareGetStatus
 .text.L6470_PerformPreparedApplicationCommand
                0x00000000080013ec       0x28 Core/BSP/Components/L6470/L6470.o
                0x00000000080013ec                L6470_PerformPreparedApplicationCommand
 .text.L6470_ID
                0x0000000008001414       0x2e Core/BSP/Components/L6470/L6470.o
                0x0000000008001414                L6470_ID
 *fill*         0x0000000008001442        0x2 
 .text.L6470_DaisyChainCommand
                0x0000000008001444       0x9c Core/BSP/Components/L6470/L6470.o
                0x0000000008001444                L6470_DaisyChainCommand
 .text.L6470_ExtractReturnedData
                0x00000000080014e0       0x5a Core/BSP/Components/L6470/L6470.o
                0x00000000080014e0                L6470_ExtractReturnedData
 *fill*         0x000000000800153a        0x2 
 .text.L6470_CheckStatusRegisterFlag
                0x000000000800153c      0x174 Core/BSP/Components/L6470/L6470.o
                0x000000000800153c                L6470_CheckStatusRegisterFlag
 .text.L6470_GetRegisterName
                0x00000000080016b0       0x38 Core/BSP/Components/L6470/L6470.o
                0x00000000080016b0                L6470_GetRegisterName
 .text.L6470_Config
                0x00000000080016e8      0x358 Core/BSP/Components/L6470/L6470.o
                0x00000000080016e8                L6470_Config
 .text.BSP_L6470_Init
                0x0000000008001a40       0xb0 Core/BSP/X-NUCLEO-IHM02A1/xnucleoihm02a1.o
                0x0000000008001a40                BSP_L6470_Init
 .text.BSP_IRQ  0x0000000008001af0       0x32 Core/BSP/X-NUCLEO-IHM02A1/xnucleoihm02a1.o
                0x0000000008001af0                BSP_IRQ
 .text.BSP_L6470_SetParam
                0x0000000008001b22       0x36 Core/BSP/X-NUCLEO-IHM02A1/xnucleoihm02a1.o
                0x0000000008001b22                BSP_L6470_SetParam
 .text.BSP_L6470_GetParam
                0x0000000008001b58       0x3a Core/BSP/X-NUCLEO-IHM02A1/xnucleoihm02a1.o
                0x0000000008001b58                BSP_L6470_GetParam
 .text.BSP_L6470_Run
                0x0000000008001b92       0x36 Core/BSP/X-NUCLEO-IHM02A1/xnucleoihm02a1.o
                0x0000000008001b92                BSP_L6470_Run
 .text.BSP_L6470_StepClock
                0x0000000008001bc8       0x34 Core/BSP/X-NUCLEO-IHM02A1/xnucleoihm02a1.o
                0x0000000008001bc8                BSP_L6470_StepClock
 .text.BSP_L6470_Move
                0x0000000008001bfc       0x36 Core/BSP/X-NUCLEO-IHM02A1/xnucleoihm02a1.o
                0x0000000008001bfc                BSP_L6470_Move
 .text.BSP_L6470_GoTo
                0x0000000008001c32       0x30 Core/BSP/X-NUCLEO-IHM02A1/xnucleoihm02a1.o
                0x0000000008001c32                BSP_L6470_GoTo
 .text.BSP_L6470_GoToDir
                0x0000000008001c62       0x36 Core/BSP/X-NUCLEO-IHM02A1/xnucleoihm02a1.o
                0x0000000008001c62                BSP_L6470_GoToDir
 .text.BSP_L6470_GoUntil
                0x0000000008001c98       0x40 Core/BSP/X-NUCLEO-IHM02A1/xnucleoihm02a1.o
                0x0000000008001c98                BSP_L6470_GoUntil
 .text.BSP_L6470_ReleaseSW
                0x0000000008001cd8       0x40 Core/BSP/X-NUCLEO-IHM02A1/xnucleoihm02a1.o
                0x0000000008001cd8                BSP_L6470_ReleaseSW
 .text.BSP_L6470_GoHome
                0x0000000008001d18       0x2e Core/BSP/X-NUCLEO-IHM02A1/xnucleoihm02a1.o
                0x0000000008001d18                BSP_L6470_GoHome
 .text.BSP_L6470_GoMark
                0x0000000008001d46       0x2e Core/BSP/X-NUCLEO-IHM02A1/xnucleoihm02a1.o
                0x0000000008001d46                BSP_L6470_GoMark
 .text.BSP_L6470_ResetPos
                0x0000000008001d74       0x2e Core/BSP/X-NUCLEO-IHM02A1/xnucleoihm02a1.o
                0x0000000008001d74                BSP_L6470_ResetPos
 .text.BSP_L6470_ResetDevice
                0x0000000008001da2       0x2e Core/BSP/X-NUCLEO-IHM02A1/xnucleoihm02a1.o
                0x0000000008001da2                BSP_L6470_ResetDevice
 .text.BSP_L6470_SoftStop
                0x0000000008001dd0       0x2e Core/BSP/X-NUCLEO-IHM02A1/xnucleoihm02a1.o
                0x0000000008001dd0                BSP_L6470_SoftStop
 .text.BSP_L6470_HardStop
                0x0000000008001dfe       0x2e Core/BSP/X-NUCLEO-IHM02A1/xnucleoihm02a1.o
                0x0000000008001dfe                BSP_L6470_HardStop
 .text.BSP_L6470_SoftHiZ
                0x0000000008001e2c       0x2e Core/BSP/X-NUCLEO-IHM02A1/xnucleoihm02a1.o
                0x0000000008001e2c                BSP_L6470_SoftHiZ
 .text.BSP_L6470_HardHiZ
                0x0000000008001e5a       0x2e Core/BSP/X-NUCLEO-IHM02A1/xnucleoihm02a1.o
                0x0000000008001e5a                BSP_L6470_HardHiZ
 .text.BSP_L6470_GetStatus
                0x0000000008001e88       0x34 Core/BSP/X-NUCLEO-IHM02A1/xnucleoihm02a1.o
                0x0000000008001e88                BSP_L6470_GetStatus
 .text.BSP_L6470_CheckStatusRegisterFlag
                0x0000000008001ebc       0x3a Core/BSP/X-NUCLEO-IHM02A1/xnucleoihm02a1.o
                0x0000000008001ebc                BSP_L6470_CheckStatusRegisterFlag
 .text.EXPBRD_ID
                0x0000000008001ef6       0x22 Core/BSP/X-NUCLEO-IHM02A1/xnucleoihm02a1.o
                0x0000000008001ef6                EXPBRD_ID
 .text.BSP_Select
                0x0000000008001f18       0x6c Core/BSP/X-NUCLEO-IHM02A1/xnucleoihm02a1.o
                0x0000000008001f18                BSP_Select
 .text.BSP_Init
                0x0000000008001f84       0x20 Core/BSP/X-NUCLEO-IHM02A1/xnucleoihm02a1.o
                0x0000000008001f84                BSP_Init
 .text.BSP_L6470_BusySynchEventManager
                0x0000000008001fa4       0x10 Core/BSP/X-NUCLEO-IHM02A1/xnucleoihm02a1.o
                0x0000000008001fa4                BSP_L6470_BusySynchEventManager
 .text.BSP_L6470_FlagEventManager
                0x0000000008001fb4       0x10 Core/BSP/X-NUCLEO-IHM02A1/xnucleoihm02a1.o
                0x0000000008001fb4                BSP_L6470_FlagEventManager
 .text.BSP_EmergencyStop
                0x0000000008001fc4       0x1c Core/BSP/X-NUCLEO-IHM02A1/xnucleoihm02a1.o
                0x0000000008001fc4                BSP_EmergencyStop
 .text.BSP_0_Config
                0x0000000008001fe0       0x20 Core/BSP/X-NUCLEO-IHM02A1/xnucleoihm02a1.o
                0x0000000008001fe0                BSP_0_Config
 .text.BSP_1_Config
                0x0000000008002000       0x20 Core/BSP/X-NUCLEO-IHM02A1/xnucleoihm02a1.o
                0x0000000008002000                BSP_1_Config
 .text.BSP_2_Config
                0x0000000008002020       0x20 Core/BSP/X-NUCLEO-IHM02A1/xnucleoihm02a1.o
                0x0000000008002020                BSP_2_Config
 .text.BSP_3_Config
                0x0000000008002040       0x20 Core/BSP/X-NUCLEO-IHM02A1/xnucleoihm02a1.o
                0x0000000008002040                BSP_3_Config
 .text.BSP_L6470_0_0_Config
                0x0000000008002060       0x20 Core/BSP/X-NUCLEO-IHM02A1/xnucleoihm02a1.o
                0x0000000008002060                BSP_L6470_0_0_Config
 .text.BSP_L6470_0_1_Config
                0x0000000008002080       0x20 Core/BSP/X-NUCLEO-IHM02A1/xnucleoihm02a1.o
                0x0000000008002080                BSP_L6470_0_1_Config
 .text.BSP_L6470_1_0_Config
                0x00000000080020a0       0x20 Core/BSP/X-NUCLEO-IHM02A1/xnucleoihm02a1.o
                0x00000000080020a0                BSP_L6470_1_0_Config
 .text.BSP_L6470_1_1_Config
                0x00000000080020c0       0x20 Core/BSP/X-NUCLEO-IHM02A1/xnucleoihm02a1.o
                0x00000000080020c0                BSP_L6470_1_1_Config
 .text.BSP_L6470_2_0_Config
                0x00000000080020e0       0x20 Core/BSP/X-NUCLEO-IHM02A1/xnucleoihm02a1.o
                0x00000000080020e0                BSP_L6470_2_0_Config
 .text.BSP_L6470_2_1_Config
                0x0000000008002100       0x20 Core/BSP/X-NUCLEO-IHM02A1/xnucleoihm02a1.o
                0x0000000008002100                BSP_L6470_2_1_Config
 .text.BSP_L6470_3_0_Config
                0x0000000008002120       0x20 Core/BSP/X-NUCLEO-IHM02A1/xnucleoihm02a1.o
                0x0000000008002120                BSP_L6470_3_0_Config
 .text.BSP_L6470_3_1_Config
                0x0000000008002140       0x20 Core/BSP/X-NUCLEO-IHM02A1/xnucleoihm02a1.o
                0x0000000008002140                BSP_L6470_3_1_Config
 .text.BSP_GetExpansionBoardHandle
                0x0000000008002160       0x74 Core/BSP/X-NUCLEO-IHM02A1/xnucleoihm02a1.o
                0x0000000008002160                BSP_GetExpansionBoardHandle
 .text.BSP_Config
                0x00000000080021d4       0x36 Core/BSP/X-NUCLEO-IHM02A1/xnucleoihm02a1.o
                0x00000000080021d4                BSP_Config
 *fill*         0x000000000800220a        0x2 
 .text.MicrosteppingMotor_Example_01
                0x000000000800220c      0x3d4 Core/MotionControl/MicrosteppingMotor/Src/example.o
                0x000000000800220c                MicrosteppingMotor_Example_01
 .text.usrPow   0x00000000080025e0       0x40 Core/MotionControl/MicrosteppingMotor/Src/example.o
                0x00000000080025e0                usrPow
 .text.HAL_GPIO_EXTI_Callback
                0x0000000008002620       0x3c Core/MotionControl/MicrosteppingMotor/Src/example.o
                0x0000000008002620                HAL_GPIO_EXTI_Callback
 .text.USART_TxWelcomeMessage
                0x000000000800265c       0x78 Core/MotionControl/MicrosteppingMotor/Src/example_usart.o
                0x000000000800265c                USART_TxWelcomeMessage
 .text.USART_Transmit
                0x00000000080026d4       0x3e Core/MotionControl/MicrosteppingMotor/Src/example_usart.o
                0x00000000080026d4                USART_Transmit
 *fill*         0x0000000008002712        0x2 
 .text.USART_PrintRegisterValues
                0x0000000008002714       0xe4 Core/MotionControl/MicrosteppingMotor/Src/example_usart.o
                0x0000000008002714                USART_PrintRegisterValues
 .text.USART_PrintAllRegisterValues
                0x00000000080027f8       0x60 Core/MotionControl/MicrosteppingMotor/Src/example_usart.o
                0x00000000080027f8                USART_PrintAllRegisterValues
 .text.num2hex  0x0000000008002858       0xc0 Core/MotionControl/MicrosteppingMotor/Src/example_usart.o
                0x0000000008002858                num2hex
 .text.mainApp  0x0000000008002918       0x12 Core/MotionControl/MicrosteppingMotor/Src/main_app.o
                0x0000000008002918                mainApp
 *fill*         0x000000000800292a        0x2 
 .text.GetMotorParameterInitData
                0x000000000800292c       0x14 Core/MotionControl/MicrosteppingMotor/Src/params.o
                0x000000000800292c                GetMotorParameterInitData
 .text.EXTI1_IRQHandler
                0x0000000008002940        0xe Core/MotionControl/MicrosteppingMotor/Src/stm32f3xx_it.o
                0x0000000008002940                EXTI1_IRQHandler
 .text.EXTI0_IRQHandler
                0x000000000800294e        0xe Core/MotionControl/MicrosteppingMotor/Src/stm32f3xx_it.o
                0x000000000800294e                EXTI0_IRQHandler
 .text.EXTI15_10_IRQHandler
                0x000000000800295c       0x10 Core/MotionControl/MicrosteppingMotor/Src/stm32f3xx_it.o
                0x000000000800295c                EXTI15_10_IRQHandler
 .text.MX_ADC1_Init
                0x000000000800296c       0xb8 Core/Src/adc.o
                0x000000000800296c                MX_ADC1_Init
 .text.HAL_ADC_MspInit
                0x0000000008002a24       0x8c Core/Src/adc.o
                0x0000000008002a24                HAL_ADC_MspInit
 .text.MX_GPIO_Init
                0x0000000008002ab0      0x13c Core/Src/gpio.o
                0x0000000008002ab0                MX_GPIO_Init
 .text.main     0x0000000008002bec       0x22 Core/Src/main.o
                0x0000000008002bec                main
 .text.SystemClock_Config
                0x0000000008002c0e       0xae Core/Src/main.o
                0x0000000008002c0e                SystemClock_Config
 .text.Error_Handler
                0x0000000008002cbc        0xa Core/Src/main.o
                0x0000000008002cbc                Error_Handler
 *fill*         0x0000000008002cc6        0x2 
 .text.MX_SPI2_Init
                0x0000000008002cc8       0x7c Core/Src/spi.o
                0x0000000008002cc8                MX_SPI2_Init
 .text.HAL_SPI_MspInit
                0x0000000008002d44       0x88 Core/Src/spi.o
                0x0000000008002d44                HAL_SPI_MspInit
 .text.HAL_MspInit
                0x0000000008002dcc       0x48 Core/Src/stm32f3xx_hal_msp.o
                0x0000000008002dcc                HAL_MspInit
 .text.NMI_Handler
                0x0000000008002e14        0x6 Core/Src/stm32f3xx_it.o
                0x0000000008002e14                NMI_Handler
 .text.HardFault_Handler
                0x0000000008002e1a        0x6 Core/Src/stm32f3xx_it.o
                0x0000000008002e1a                HardFault_Handler
 .text.MemManage_Handler
                0x0000000008002e20        0x6 Core/Src/stm32f3xx_it.o
                0x0000000008002e20                MemManage_Handler
 .text.BusFault_Handler
                0x0000000008002e26        0x6 Core/Src/stm32f3xx_it.o
                0x0000000008002e26                BusFault_Handler
 .text.UsageFault_Handler
                0x0000000008002e2c        0x6 Core/Src/stm32f3xx_it.o
                0x0000000008002e2c                UsageFault_Handler
 .text.SVC_Handler
                0x0000000008002e32        0xe Core/Src/stm32f3xx_it.o
                0x0000000008002e32                SVC_Handler
 .text.DebugMon_Handler
                0x0000000008002e40        0xe Core/Src/stm32f3xx_it.o
                0x0000000008002e40                DebugMon_Handler
 .text.PendSV_Handler
                0x0000000008002e4e        0xe Core/Src/stm32f3xx_it.o
                0x0000000008002e4e                PendSV_Handler
 .text.SysTick_Handler
                0x0000000008002e5c       0x10 Core/Src/stm32f3xx_it.o
                0x0000000008002e5c                SysTick_Handler
 .text.ADC1_IRQHandler
                0x0000000008002e6c       0x14 Core/Src/stm32f3xx_it.o
                0x0000000008002e6c                ADC1_IRQHandler
 .text.USART2_IRQHandler
                0x0000000008002e80       0x14 Core/Src/stm32f3xx_it.o
                0x0000000008002e80                USART2_IRQHandler
 .text.SystemInit
                0x0000000008002e94       0x24 Core/Src/system_stm32f3xx.o
                0x0000000008002e94                SystemInit
 .text.MX_USART2_UART_Init
                0x0000000008002eb8       0x60 Core/Src/usart.o
                0x0000000008002eb8                MX_USART2_UART_Init
 .text.HAL_UART_MspInit
                0x0000000008002f18       0x94 Core/Src/usart.o
                0x0000000008002f18                HAL_UART_MspInit
 .text.Reset_Handler
                0x0000000008002fac       0x50 Core/Startup/startup_stm32f302r8tx.o
                0x0000000008002fac                Reset_Handler
 .text.Default_Handler
                0x0000000008002ffc        0x2 Core/Startup/startup_stm32f302r8tx.o
                0x0000000008002ffc                RTC_Alarm_IRQHandler
                0x0000000008002ffc                TIM1_CC_IRQHandler
                0x0000000008002ffc                USB_HP_IRQHandler
                0x0000000008002ffc                PVD_IRQHandler
                0x0000000008002ffc                TAMP_STAMP_IRQHandler
                0x0000000008002ffc                EXTI3_IRQHandler
                0x0000000008002ffc                I2C3_ER_IRQHandler
                0x0000000008002ffc                USB_HP_CAN_TX_IRQHandler
                0x0000000008002ffc                I2C2_EV_IRQHandler
                0x0000000008002ffc                FPU_IRQHandler
                0x0000000008002ffc                TIM1_UP_TIM16_IRQHandler
                0x0000000008002ffc                CAN_SCE_IRQHandler
                0x0000000008002ffc                TIM6_DAC_IRQHandler
                0x0000000008002ffc                DMA1_Channel4_IRQHandler
                0x0000000008002ffc                USART3_IRQHandler
                0x0000000008002ffc                DMA1_Channel7_IRQHandler
                0x0000000008002ffc                CAN_RX1_IRQHandler
                0x0000000008002ffc                I2C1_EV_IRQHandler
                0x0000000008002ffc                DMA1_Channel6_IRQHandler
                0x0000000008002ffc                RCC_IRQHandler
                0x0000000008002ffc                DMA1_Channel1_IRQHandler
                0x0000000008002ffc                Default_Handler
                0x0000000008002ffc                USBWakeUp_RMP_IRQHandler
                0x0000000008002ffc                COMP2_IRQHandler
                0x0000000008002ffc                I2C3_EV_IRQHandler
                0x0000000008002ffc                EXTI9_5_IRQHandler
                0x0000000008002ffc                RTC_WKUP_IRQHandler
                0x0000000008002ffc                SPI2_IRQHandler
                0x0000000008002ffc                USB_LP_CAN_RX0_IRQHandler
                0x0000000008002ffc                DMA1_Channel5_IRQHandler
                0x0000000008002ffc                USB_LP_IRQHandler
                0x0000000008002ffc                EXTI4_IRQHandler
                0x0000000008002ffc                TIM1_TRG_COM_TIM17_IRQHandler
                0x0000000008002ffc                DMA1_Channel3_IRQHandler
                0x0000000008002ffc                WWDG_IRQHandler
                0x0000000008002ffc                TIM2_IRQHandler
                0x0000000008002ffc                COMP4_6_IRQHandler
                0x0000000008002ffc                I2C2_ER_IRQHandler
                0x0000000008002ffc                DMA1_Channel2_IRQHandler
                0x0000000008002ffc                FLASH_IRQHandler
                0x0000000008002ffc                USART1_IRQHandler
                0x0000000008002ffc                SPI3_IRQHandler
                0x0000000008002ffc                I2C1_ER_IRQHandler
                0x0000000008002ffc                USBWakeUp_IRQHandler
                0x0000000008002ffc                EXTI2_TSC_IRQHandler
                0x0000000008002ffc                TIM1_BRK_TIM15_IRQHandler
 *fill*         0x0000000008002ffe        0x2 
 .text.HAL_Init
                0x0000000008003000       0x2c Drivers/STM32F3xx_HAL_Driver/stm32f3xx_hal.o
                0x0000000008003000                HAL_Init
 .text.HAL_InitTick
                0x000000000800302c       0x60 Drivers/STM32F3xx_HAL_Driver/stm32f3xx_hal.o
                0x000000000800302c                HAL_InitTick
 .text.HAL_IncTick
                0x000000000800308c       0x28 Drivers/STM32F3xx_HAL_Driver/stm32f3xx_hal.o
                0x000000000800308c                HAL_IncTick
 .text.HAL_GetTick
                0x00000000080030b4       0x18 Drivers/STM32F3xx_HAL_Driver/stm32f3xx_hal.o
                0x00000000080030b4                HAL_GetTick
 .text.HAL_Delay
                0x00000000080030cc       0x48 Drivers/STM32F3xx_HAL_Driver/stm32f3xx_hal.o
                0x00000000080030cc                HAL_Delay
 .text.HAL_ADC_ConvCpltCallback
                0x0000000008003114       0x14 Drivers/STM32F3xx_HAL_Driver/stm32f3xx_hal_adc.o
                0x0000000008003114                HAL_ADC_ConvCpltCallback
 .text.HAL_ADC_LevelOutOfWindowCallback
                0x0000000008003128       0x14 Drivers/STM32F3xx_HAL_Driver/stm32f3xx_hal_adc.o
                0x0000000008003128                HAL_ADC_LevelOutOfWindowCallback
 .text.HAL_ADC_ErrorCallback
                0x000000000800313c       0x14 Drivers/STM32F3xx_HAL_Driver/stm32f3xx_hal_adc.o
                0x000000000800313c                HAL_ADC_ErrorCallback
 .text.HAL_ADC_Init
                0x0000000008003150      0x30c Drivers/STM32F3xx_HAL_Driver/stm32f3xx_hal_adc_ex.o
                0x0000000008003150                HAL_ADC_Init
 .text.HAL_ADC_IRQHandler
                0x000000000800345c      0x390 Drivers/STM32F3xx_HAL_Driver/stm32f3xx_hal_adc_ex.o
                0x000000000800345c                HAL_ADC_IRQHandler
 .text.HAL_ADCEx_InjectedConvCpltCallback
                0x00000000080037ec       0x14 Drivers/STM32F3xx_HAL_Driver/stm32f3xx_hal_adc_ex.o
                0x00000000080037ec                HAL_ADCEx_InjectedConvCpltCallback
 .text.HAL_ADCEx_InjectedQueueOverflowCallback
                0x0000000008003800       0x14 Drivers/STM32F3xx_HAL_Driver/stm32f3xx_hal_adc_ex.o
                0x0000000008003800                HAL_ADCEx_InjectedQueueOverflowCallback
 .text.HAL_ADCEx_LevelOutOfWindow2Callback
                0x0000000008003814       0x14 Drivers/STM32F3xx_HAL_Driver/stm32f3xx_hal_adc_ex.o
                0x0000000008003814                HAL_ADCEx_LevelOutOfWindow2Callback
 .text.HAL_ADCEx_LevelOutOfWindow3Callback
                0x0000000008003828       0x14 Drivers/STM32F3xx_HAL_Driver/stm32f3xx_hal_adc_ex.o
                0x0000000008003828                HAL_ADCEx_LevelOutOfWindow3Callback
 .text.HAL_ADC_ConfigChannel
                0x000000000800383c      0x56c Drivers/STM32F3xx_HAL_Driver/stm32f3xx_hal_adc_ex.o
                0x000000000800383c                HAL_ADC_ConfigChannel
 .text.ADC_Disable
                0x0000000008003da8       0xbe Drivers/STM32F3xx_HAL_Driver/stm32f3xx_hal_adc_ex.o
 *fill*         0x0000000008003e66        0x2 
 .text.__NVIC_SetPriorityGrouping
                0x0000000008003e68       0x48 Drivers/STM32F3xx_HAL_Driver/stm32f3xx_hal_cortex.o
 .text.__NVIC_GetPriorityGrouping
                0x0000000008003eb0       0x1c Drivers/STM32F3xx_HAL_Driver/stm32f3xx_hal_cortex.o
 .text.__NVIC_EnableIRQ
                0x0000000008003ecc       0x3c Drivers/STM32F3xx_HAL_Driver/stm32f3xx_hal_cortex.o
 .text.__NVIC_DisableIRQ
                0x0000000008003f08       0x48 Drivers/STM32F3xx_HAL_Driver/stm32f3xx_hal_cortex.o
 .text.__NVIC_SetPriority
                0x0000000008003f50       0x54 Drivers/STM32F3xx_HAL_Driver/stm32f3xx_hal_cortex.o
 .text.NVIC_EncodePriority
                0x0000000008003fa4       0x66 Drivers/STM32F3xx_HAL_Driver/stm32f3xx_hal_cortex.o
 *fill*         0x000000000800400a        0x2 
 .text.SysTick_Config
                0x000000000800400c       0x44 Drivers/STM32F3xx_HAL_Driver/stm32f3xx_hal_cortex.o
 .text.HAL_NVIC_SetPriorityGrouping
                0x0000000008004050       0x16 Drivers/STM32F3xx_HAL_Driver/stm32f3xx_hal_cortex.o
                0x0000000008004050                HAL_NVIC_SetPriorityGrouping
 .text.HAL_NVIC_SetPriority
                0x0000000008004066       0x38 Drivers/STM32F3xx_HAL_Driver/stm32f3xx_hal_cortex.o
                0x0000000008004066                HAL_NVIC_SetPriority
 .text.HAL_NVIC_EnableIRQ
                0x000000000800409e       0x1c Drivers/STM32F3xx_HAL_Driver/stm32f3xx_hal_cortex.o
                0x000000000800409e                HAL_NVIC_EnableIRQ
 .text.HAL_NVIC_DisableIRQ
                0x00000000080040ba       0x1c Drivers/STM32F3xx_HAL_Driver/stm32f3xx_hal_cortex.o
                0x00000000080040ba                HAL_NVIC_DisableIRQ
 .text.HAL_SYSTICK_Config
                0x00000000080040d6       0x18 Drivers/STM32F3xx_HAL_Driver/stm32f3xx_hal_cortex.o
                0x00000000080040d6                HAL_SYSTICK_Config
 .text.HAL_SYSTICK_IRQHandler
                0x00000000080040ee        0xc Drivers/STM32F3xx_HAL_Driver/stm32f3xx_hal_cortex.o
                0x00000000080040ee                HAL_SYSTICK_IRQHandler
 .text.HAL_SYSTICK_Callback
                0x00000000080040fa        0xe Drivers/STM32F3xx_HAL_Driver/stm32f3xx_hal_cortex.o
                0x00000000080040fa                HAL_SYSTICK_Callback
 .text.HAL_DMA_Abort
                0x0000000008004108       0x72 Drivers/STM32F3xx_HAL_Driver/stm32f3xx_hal_dma.o
                0x0000000008004108                HAL_DMA_Abort
 .text.HAL_DMA_Abort_IT
                0x000000000800417a       0x7c Drivers/STM32F3xx_HAL_Driver/stm32f3xx_hal_dma.o
                0x000000000800417a                HAL_DMA_Abort_IT
 *fill*         0x00000000080041f6        0x2 
 .text.HAL_GPIO_Init
                0x00000000080041f8      0x2e4 Drivers/STM32F3xx_HAL_Driver/stm32f3xx_hal_gpio.o
                0x00000000080041f8                HAL_GPIO_Init
 .text.HAL_GPIO_WritePin
                0x00000000080044dc       0x30 Drivers/STM32F3xx_HAL_Driver/stm32f3xx_hal_gpio.o
                0x00000000080044dc                HAL_GPIO_WritePin
 .text.HAL_GPIO_EXTI_IRQHandler
                0x000000000800450c       0x30 Drivers/STM32F3xx_HAL_Driver/stm32f3xx_hal_gpio.o
                0x000000000800450c                HAL_GPIO_EXTI_IRQHandler
 .text.HAL_RCC_OscConfig
                0x000000000800453c      0xe10 Drivers/STM32F3xx_HAL_Driver/stm32f3xx_hal_rcc.o
                0x000000000800453c                HAL_RCC_OscConfig
 .text.HAL_RCC_ClockConfig
                0x000000000800534c      0x2f8 Drivers/STM32F3xx_HAL_Driver/stm32f3xx_hal_rcc.o
                0x000000000800534c                HAL_RCC_ClockConfig
 .text.HAL_RCC_GetSysClockFreq
                0x0000000008005644       0xd4 Drivers/STM32F3xx_HAL_Driver/stm32f3xx_hal_rcc.o
                0x0000000008005644                HAL_RCC_GetSysClockFreq
 .text.HAL_RCC_GetHCLKFreq
                0x0000000008005718       0x18 Drivers/STM32F3xx_HAL_Driver/stm32f3xx_hal_rcc.o
                0x0000000008005718                HAL_RCC_GetHCLKFreq
 .text.HAL_RCC_GetPCLK1Freq
                0x0000000008005730       0x44 Drivers/STM32F3xx_HAL_Driver/stm32f3xx_hal_rcc.o
                0x0000000008005730                HAL_RCC_GetPCLK1Freq
 .text.HAL_RCC_GetPCLK2Freq
                0x0000000008005774       0x44 Drivers/STM32F3xx_HAL_Driver/stm32f3xx_hal_rcc.o
                0x0000000008005774                HAL_RCC_GetPCLK2Freq
 .text.HAL_RCCEx_PeriphCLKConfig
                0x00000000080057b8      0x324 Drivers/STM32F3xx_HAL_Driver/stm32f3xx_hal_rcc_ex.o
                0x00000000080057b8                HAL_RCCEx_PeriphCLKConfig
 .text.HAL_SPI_Init
                0x0000000008005adc      0x156 Drivers/STM32F3xx_HAL_Driver/stm32f3xx_hal_spi.o
                0x0000000008005adc                HAL_SPI_Init
 .text.HAL_SPI_TransmitReceive
                0x0000000008005c32      0x426 Drivers/STM32F3xx_HAL_Driver/stm32f3xx_hal_spi.o
                0x0000000008005c32                HAL_SPI_TransmitReceive
 .text.SPI_WaitFlagStateUntilTimeout
                0x0000000008006058      0x110 Drivers/STM32F3xx_HAL_Driver/stm32f3xx_hal_spi.o
 .text.SPI_WaitFifoStateUntilTimeout
                0x0000000008006168      0x11c Drivers/STM32F3xx_HAL_Driver/stm32f3xx_hal_spi.o
 .text.SPI_EndRxTxTransaction
                0x0000000008006284       0x8c Drivers/STM32F3xx_HAL_Driver/stm32f3xx_hal_spi.o
 .text.HAL_UART_Init
                0x0000000008006310       0x9c Drivers/STM32F3xx_HAL_Driver/stm32f3xx_hal_uart.o
                0x0000000008006310                HAL_UART_Init
 .text.HAL_UART_Transmit
                0x00000000080063ac      0x128 Drivers/STM32F3xx_HAL_Driver/stm32f3xx_hal_uart.o
                0x00000000080063ac                HAL_UART_Transmit
 .text.HAL_UART_IRQHandler
                0x00000000080064d4      0x400 Drivers/STM32F3xx_HAL_Driver/stm32f3xx_hal_uart.o
                0x00000000080064d4                HAL_UART_IRQHandler
 .text.HAL_UART_TxCpltCallback
                0x00000000080068d4       0x14 Drivers/STM32F3xx_HAL_Driver/stm32f3xx_hal_uart.o
                0x00000000080068d4                HAL_UART_TxCpltCallback
 .text.HAL_UART_ErrorCallback
                0x00000000080068e8       0x14 Drivers/STM32F3xx_HAL_Driver/stm32f3xx_hal_uart.o
                0x00000000080068e8                HAL_UART_ErrorCallback
 .text.HAL_UARTEx_RxEventCallback
                0x00000000080068fc       0x18 Drivers/STM32F3xx_HAL_Driver/stm32f3xx_hal_uart.o
                0x00000000080068fc                HAL_UARTEx_RxEventCallback
 .text.UART_SetConfig
                0x0000000008006914      0x26c Drivers/STM32F3xx_HAL_Driver/stm32f3xx_hal_uart.o
                0x0000000008006914                UART_SetConfig
 .text.UART_AdvFeatureConfig
                0x0000000008006b80      0x144 Drivers/STM32F3xx_HAL_Driver/stm32f3xx_hal_uart.o
                0x0000000008006b80                UART_AdvFeatureConfig
 .text.UART_CheckIdleState
                0x0000000008006cc4       0x92 Drivers/STM32F3xx_HAL_Driver/stm32f3xx_hal_uart.o
                0x0000000008006cc4                UART_CheckIdleState
 .text.UART_WaitOnFlagUntilTimeout
                0x0000000008006d56       0xf8 Drivers/STM32F3xx_HAL_Driver/stm32f3xx_hal_uart.o
                0x0000000008006d56                UART_WaitOnFlagUntilTimeout
 .text.UART_EndRxTransfer
                0x0000000008006e4e       0x5e Drivers/STM32F3xx_HAL_Driver/stm32f3xx_hal_uart.o
 .text.UART_DMAAbortOnError
                0x0000000008006eac       0x2c Drivers/STM32F3xx_HAL_Driver/stm32f3xx_hal_uart.o
 .text.UART_EndTransmit_IT
                0x0000000008006ed8       0x32 Drivers/STM32F3xx_HAL_Driver/stm32f3xx_hal_uart.o
 .text.HAL_UARTEx_WakeupCallback
                0x0000000008006f0a       0x14 Drivers/STM32F3xx_HAL_Driver/stm32f3xx_hal_uart_ex.o
                0x0000000008006f0a                HAL_UARTEx_WakeupCallback
 *fill*         0x0000000008006f1e        0x2 
 .text.__libc_init_array
                0x0000000008006f20       0x48 c:/st/stm32cubeide_1.6.1/stm32cubeide/plugins/com.st.stm32cube.ide.mcu.externaltools.gnu-tools-for-stm32.9-2020-q2-update.win32_1.5.0.202011040924/tools/bin/../lib/gcc/arm-none-eabi/9.3.1/../../../../arm-none-eabi/lib/thumb/v7e-m+fp/hard\libc_nano.a(lib_a-init.o)
                0x0000000008006f20                __libc_init_array
 .text.memset   0x0000000008006f68       0x10 c:/st/stm32cubeide_1.6.1/stm32cubeide/plugins/com.st.stm32cube.ide.mcu.externaltools.gnu-tools-for-stm32.9-2020-q2-update.win32_1.5.0.202011040924/tools/bin/../lib/gcc/arm-none-eabi/9.3.1/../../../../arm-none-eabi/lib/thumb/v7e-m+fp/hard\libc_nano.a(lib_a-memset.o)
                0x0000000008006f68                memset
 *(.glue_7)
 .glue_7        0x0000000008006f78        0x0 linker stubs
 *(.glue_7t)
 .glue_7t       0x0000000008006f78        0x0 linker stubs
 *(.eh_frame)
 .eh_frame      0x0000000008006f78        0x0 c:/st/stm32cubeide_1.6.1/stm32cubeide/plugins/com.st.stm32cube.ide.mcu.externaltools.gnu-tools-for-stm32.9-2020-q2-update.win32_1.5.0.202011040924/tools/bin/../lib/gcc/arm-none-eabi/9.3.1/thumb/v7e-m+fp/hard/crtbegin.o
 *(.init)
 .init          0x0000000008006f78        0x4 c:/st/stm32cubeide_1.6.1/stm32cubeide/plugins/com.st.stm32cube.ide.mcu.externaltools.gnu-tools-for-stm32.9-2020-q2-update.win32_1.5.0.202011040924/tools/bin/../lib/gcc/arm-none-eabi/9.3.1/thumb/v7e-m+fp/hard/crti.o
                0x0000000008006f78                _init
 .init          0x0000000008006f7c        0x8 c:/st/stm32cubeide_1.6.1/stm32cubeide/plugins/com.st.stm32cube.ide.mcu.externaltools.gnu-tools-for-stm32.9-2020-q2-update.win32_1.5.0.202011040924/tools/bin/../lib/gcc/arm-none-eabi/9.3.1/thumb/v7e-m+fp/hard/crtn.o
 *(.fini)
 .fini          0x0000000008006f84        0x4 c:/st/stm32cubeide_1.6.1/stm32cubeide/plugins/com.st.stm32cube.ide.mcu.externaltools.gnu-tools-for-stm32.9-2020-q2-update.win32_1.5.0.202011040924/tools/bin/../lib/gcc/arm-none-eabi/9.3.1/thumb/v7e-m+fp/hard/crti.o
                0x0000000008006f84                _fini
 .fini          0x0000000008006f88        0x8 c:/st/stm32cubeide_1.6.1/stm32cubeide/plugins/com.st.stm32cube.ide.mcu.externaltools.gnu-tools-for-stm32.9-2020-q2-update.win32_1.5.0.202011040924/tools/bin/../lib/gcc/arm-none-eabi/9.3.1/thumb/v7e-m+fp/hard/crtn.o
                0x0000000008006f90                . = ALIGN (0x4)
                0x0000000008006f90                _etext = .

.vfp11_veneer   0x0000000008006f90        0x0
 .vfp11_veneer  0x0000000008006f90        0x0 linker stubs

.v4_bx          0x0000000008006f90        0x0
 .v4_bx         0x0000000008006f90        0x0 linker stubs

.iplt           0x0000000008006f90        0x0
 .iplt          0x0000000008006f90        0x0 c:/st/stm32cubeide_1.6.1/stm32cubeide/plugins/com.st.stm32cube.ide.mcu.externaltools.gnu-tools-for-stm32.9-2020-q2-update.win32_1.5.0.202011040924/tools/bin/../lib/gcc/arm-none-eabi/9.3.1/thumb/v7e-m+fp/hard/crtbegin.o

.rodata         0x0000000008006f90      0xa34
                0x0000000008006f90                . = ALIGN (0x4)
 *(.rodata)
 .rodata        0x0000000008006f90        0x1 Core/BSP/Components/L6470/L6470.o
 *fill*         0x0000000008006f91        0x3 
 .rodata        0x0000000008006f94       0x3f Core/MotionControl/MicrosteppingMotor/Src/example.o
 *fill*         0x0000000008006fd3        0x1 
 .rodata        0x0000000008006fd4      0x3d7 Core/MotionControl/MicrosteppingMotor/Src/example_usart.o
 *(.rodata*)
 *fill*         0x00000000080073ab        0x1 
 .rodata.L6470_Register
                0x00000000080073ac      0x1f4 Core/BSP/Components/L6470/L6470.o
                0x00000000080073ac                L6470_Register
 .rodata.L6470_ApplicationCommand
                0x00000000080075a0      0x10a Core/BSP/Components/L6470/L6470.o
                0x00000000080075a0                L6470_ApplicationCommand
 *fill*         0x00000000080076aa        0x2 
 .rodata.L6470_Direction
                0x00000000080076ac       0x12 Core/BSP/Components/L6470/L6470.o
                0x00000000080076ac                L6470_Direction
 *fill*         0x00000000080076be        0x2 
 .rodata.L6470_ACT
                0x00000000080076c0        0xa Core/BSP/Components/L6470/L6470.o
                0x00000000080076c0                L6470_ACT
 *fill*         0x00000000080076ca        0x2 
 .rodata.MotorParameterInitData
                0x00000000080076cc      0x2c0 Core/MotionControl/MicrosteppingMotor/Src/params.o
                0x00000000080076cc                MotorParameterInitData
 .rodata.AHBPrescTable
                0x000000000800798c       0x10 Core/Src/system_stm32f3xx.o
                0x000000000800798c                AHBPrescTable
 .rodata.APBPrescTable
                0x000000000800799c        0x8 Core/Src/system_stm32f3xx.o
                0x000000000800799c                APBPrescTable
 .rodata.aPLLMULFactorTable
                0x00000000080079a4       0x10 Drivers/STM32F3xx_HAL_Driver/stm32f3xx_hal_rcc.o
                0x00000000080079a4                aPLLMULFactorTable
 .rodata.aPredivFactorTable
                0x00000000080079b4       0x10 Drivers/STM32F3xx_HAL_Driver/stm32f3xx_hal_rcc.o
                0x00000000080079b4                aPredivFactorTable
                0x00000000080079c4                . = ALIGN (0x4)

.rel.dyn        0x00000000080079c4        0x0
 .rel.iplt      0x00000000080079c4        0x0 c:/st/stm32cubeide_1.6.1/stm32cubeide/plugins/com.st.stm32cube.ide.mcu.externaltools.gnu-tools-for-stm32.9-2020-q2-update.win32_1.5.0.202011040924/tools/bin/../lib/gcc/arm-none-eabi/9.3.1/thumb/v7e-m+fp/hard/crtbegin.o

.ARM.extab      0x00000000080079c4        0x0
                0x00000000080079c4                . = ALIGN (0x4)
 *(.ARM.extab* .gnu.linkonce.armextab.*)
                0x00000000080079c4                . = ALIGN (0x4)

.ARM            0x00000000080079c4        0x0
                0x00000000080079c4                . = ALIGN (0x4)
                0x00000000080079c4                __exidx_start = .
 *(.ARM.exidx*)
                0x00000000080079c4                __exidx_end = .
                0x00000000080079c4                . = ALIGN (0x4)

.preinit_array  0x00000000080079c4        0x0
                0x00000000080079c4                . = ALIGN (0x4)
                0x00000000080079c4                PROVIDE (__preinit_array_start = .)
 *(.preinit_array*)
                0x00000000080079c4                PROVIDE (__preinit_array_end = .)
                0x00000000080079c4                . = ALIGN (0x4)

.init_array     0x00000000080079c4        0x4
                0x00000000080079c4                . = ALIGN (0x4)
                0x00000000080079c4                PROVIDE (__init_array_start = .)
 *(SORT_BY_NAME(.init_array.*))
 *(.init_array*)
 .init_array    0x00000000080079c4        0x4 c:/st/stm32cubeide_1.6.1/stm32cubeide/plugins/com.st.stm32cube.ide.mcu.externaltools.gnu-tools-for-stm32.9-2020-q2-update.win32_1.5.0.202011040924/tools/bin/../lib/gcc/arm-none-eabi/9.3.1/thumb/v7e-m+fp/hard/crtbegin.o
                0x00000000080079c8                PROVIDE (__init_array_end = .)
                0x00000000080079c8                . = ALIGN (0x4)

.fini_array     0x00000000080079c8        0x4
                0x00000000080079c8                . = ALIGN (0x4)
                [!provide]                        PROVIDE (__fini_array_start = .)
 *(SORT_BY_NAME(.fini_array.*))
 *(.fini_array*)
 .fini_array    0x00000000080079c8        0x4 c:/st/stm32cubeide_1.6.1/stm32cubeide/plugins/com.st.stm32cube.ide.mcu.externaltools.gnu-tools-for-stm32.9-2020-q2-update.win32_1.5.0.202011040924/tools/bin/../lib/gcc/arm-none-eabi/9.3.1/thumb/v7e-m+fp/hard/crtbegin.o
                [!provide]                        PROVIDE (__fini_array_end = .)
                0x00000000080079cc                . = ALIGN (0x4)
                0x00000000080079cc                _sidata = LOADADDR (.data)

.data           0x0000000020000000      0x34c load address 0x00000000080079cc
                0x0000000020000000                . = ALIGN (0x4)
                0x0000000020000000                _sdata = .
 *(.data)
 *(.data*)
 .data.L6470Command
                0x0000000020000000       0x94 Core/BSP/Components/L6470/L6470.o
                0x0000000020000000                L6470Command
 .data.pL6470_StatusRegister
                0x0000000020000094        0x4 Core/BSP/Components/L6470/L6470.o
                0x0000000020000094                pL6470_StatusRegister
 .data.XNUCLEOIHM02A1Command
                0x0000000020000098       0x50 Core/BSP/X-NUCLEO-IHM02A1/xnucleoihm02a1.o
                0x0000000020000098                XNUCLEOIHM02A1Command
 .data.L6470DrvMtx
                0x00000000200000e8      0x1e0 Core/BSP/X-NUCLEO-IHM02A1/xnucleoihm02a1.o
                0x00000000200000e8                L6470DrvMtx
 .data.XNUCLEOIHM02A1Drv
                0x00000000200002c8       0x60 Core/BSP/X-NUCLEO-IHM02A1/xnucleoihm02a1.o
                0x00000000200002c8                XNUCLEOIHM02A1Drv
 .data.L6470_nSTBY_nRST_GPIO
                0x0000000020000328        0xc Core/BSP/X-NUCLEO-IHM02A1/xnucleoihm02a1.o
                0x0000000020000328                L6470_nSTBY_nRST_GPIO
 .data.L6470_nCS_GPIO_Array
                0x0000000020000334        0xc Core/BSP/X-NUCLEO-IHM02A1/xnucleoihm02a1.o
                0x0000000020000334                L6470_nCS_GPIO_Array
 .data.SystemCoreClock
                0x0000000020000340        0x4 Core/Src/system_stm32f3xx.o
                0x0000000020000340                SystemCoreClock
 .data.uwTickPrio
                0x0000000020000344        0x4 Drivers/STM32F3xx_HAL_Driver/stm32f3xx_hal.o
                0x0000000020000344                uwTickPrio
 .data.uwTickFreq
                0x0000000020000348        0x1 Drivers/STM32F3xx_HAL_Driver/stm32f3xx_hal.o
                0x0000000020000348                uwTickFreq
 *(.RamFunc)
 *(.RamFunc*)
                0x000000002000034c                . = ALIGN (0x4)
 *fill*         0x0000000020000349        0x3 
                0x000000002000034c                _edata = .

.igot.plt       0x000000002000034c        0x0 load address 0x0000000008007d18
 .igot.plt      0x000000002000034c        0x0 c:/st/stm32cubeide_1.6.1/stm32cubeide/plugins/com.st.stm32cube.ide.mcu.externaltools.gnu-tools-for-stm32.9-2020-q2-update.win32_1.5.0.202011040924/tools/bin/../lib/gcc/arm-none-eabi/9.3.1/thumb/v7e-m+fp/hard/crtbegin.o
                0x000000002000034c                . = ALIGN (0x4)

.bss            0x000000002000034c      0x274 load address 0x0000000008007d18
                0x000000002000034c                _sbss = .
                0x000000002000034c                __bss_start__ = _sbss
 *(.bss)
 .bss           0x000000002000034c       0x1c c:/st/stm32cubeide_1.6.1/stm32cubeide/plugins/com.st.stm32cube.ide.mcu.externaltools.gnu-tools-for-stm32.9-2020-q2-update.win32_1.5.0.202011040924/tools/bin/../lib/gcc/arm-none-eabi/9.3.1/thumb/v7e-m+fp/hard/crtbegin.o
 *(.bss*)
 .bss.L6470_DaisyChain_HalfPrepared
                0x0000000020000368        0x1 Core/BSP/Components/L6470/L6470.o
                0x0000000020000368                L6470_DaisyChain_HalfPrepared
 *fill*         0x0000000020000369        0x3 
 .bss.HexValue.9065
                0x000000002000036c        0x9 Core/MotionControl/MicrosteppingMotor/Src/example_usart.o
 *(COMMON)
 *fill*         0x0000000020000375        0x3 
 COMMON         0x0000000020000378       0x33 Core/BSP/Components/L6470/L6470.o
                0x0000000020000378                L6470_DaisyChainSpiRxStruct
                0x0000000020000380                L6470_DaisyChainSpiTxStruct
                0x0000000020000388                L6470_AppCmdPkg
                0x00000000200003a8                L6470_StatusRegister
                0x00000000200003aa                delay_cnt
 *fill*         0x00000000200003ab        0x1 
 COMMON         0x00000000200003ac       0x10 Core/BSP/X-NUCLEO-IHM02A1/xnucleoihm02a1.o
                0x00000000200003ac                L6470_nCS_GPIO
                0x00000000200003b8                StatusBuffer
 COMMON         0x00000000200003bc        0xc Core/MotionControl/MicrosteppingMotor/Src/example.o
                0x00000000200003bc                MotorParameterDataGlobal
                0x00000000200003c0                MotorParameterDataSingle
                0x00000000200003c4                StepperMotorBoardHandle
 COMMON         0x00000000200003c8      0x140 Core/MotionControl/MicrosteppingMotor/Src/example_usart.o
                0x00000000200003c8                L6470_DaisyChainMnemonic
                0x00000000200003e4                huart2
                0x0000000020000468                L6470_TextCommandBundle
                0x00000000200004c8                UsartTextString
 COMMON         0x0000000020000508       0x50 Core/Src/adc.o
                0x0000000020000508                hadc1
 COMMON         0x0000000020000558       0x64 Core/Src/spi.o
                0x0000000020000558                hspi2
 COMMON         0x00000000200005bc        0x4 Drivers/STM32F3xx_HAL_Driver/stm32f3xx_hal.o
                0x00000000200005bc                uwTick
                0x00000000200005c0                . = ALIGN (0x4)
                0x00000000200005c0                _ebss = .
                0x00000000200005c0                __bss_end__ = _ebss

._user_heap_stack
                0x00000000200005c0      0x600 load address 0x0000000008007d18
                0x00000000200005c0                . = ALIGN (0x8)
                [!provide]                        PROVIDE (end = .)
                0x00000000200005c0                PROVIDE (_end = .)
                0x00000000200007c0                . = (. + _Min_Heap_Size)
 *fill*         0x00000000200005c0      0x200 
                0x0000000020000bc0                . = (. + _Min_Stack_Size)
 *fill*         0x00000000200007c0      0x400 
                0x0000000020000bc0                . = ALIGN (0x8)

/DISCARD/
 libc.a(*)
 libm.a(*)
 libgcc.a(*)

.ARM.attributes
                0x0000000000000000       0x30
 *(.ARM.attributes)
 .ARM.attributes
                0x0000000000000000       0x1e c:/st/stm32cubeide_1.6.1/stm32cubeide/plugins/com.st.stm32cube.ide.mcu.externaltools.gnu-tools-for-stm32.9-2020-q2-update.win32_1.5.0.202011040924/tools/bin/../lib/gcc/arm-none-eabi/9.3.1/thumb/v7e-m+fp/hard/crti.o
 .ARM.attributes
                0x000000000000001e       0x34 c:/st/stm32cubeide_1.6.1/stm32cubeide/plugins/com.st.stm32cube.ide.mcu.externaltools.gnu-tools-for-stm32.9-2020-q2-update.win32_1.5.0.202011040924/tools/bin/../lib/gcc/arm-none-eabi/9.3.1/thumb/v7e-m+fp/hard/crtbegin.o
 .ARM.attributes
                0x0000000000000052       0x34 Core/BSP/Components/L6470/L6470.o
 .ARM.attributes
                0x0000000000000086       0x34 Core/BSP/X-NUCLEO-IHM02A1/xnucleoihm02a1.o
 .ARM.attributes
                0x00000000000000ba       0x34 Core/MotionControl/MicrosteppingMotor/Src/example.o
 .ARM.attributes
                0x00000000000000ee       0x34 Core/MotionControl/MicrosteppingMotor/Src/example_usart.o
 .ARM.attributes
                0x0000000000000122       0x34 Core/MotionControl/MicrosteppingMotor/Src/main_app.o
 .ARM.attributes
                0x0000000000000156       0x34 Core/MotionControl/MicrosteppingMotor/Src/params.o
 .ARM.attributes
                0x000000000000018a       0x34 Core/MotionControl/MicrosteppingMotor/Src/stm32f3xx_it.o
 .ARM.attributes
                0x00000000000001be       0x34 Core/Src/adc.o
 .ARM.attributes
                0x00000000000001f2       0x34 Core/Src/gpio.o
 .ARM.attributes
                0x0000000000000226       0x34 Core/Src/main.o
 .ARM.attributes
                0x000000000000025a       0x34 Core/Src/spi.o
 .ARM.attributes
                0x000000000000028e       0x34 Core/Src/stm32f3xx_hal_msp.o
 .ARM.attributes
                0x00000000000002c2       0x34 Core/Src/stm32f3xx_it.o
 .ARM.attributes
                0x00000000000002f6       0x34 Core/Src/system_stm32f3xx.o
 .ARM.attributes
                0x000000000000032a       0x34 Core/Src/usart.o
 .ARM.attributes
                0x000000000000035e       0x21 Core/Startup/startup_stm32f302r8tx.o
 .ARM.attributes
                0x000000000000037f       0x34 Drivers/STM32F3xx_HAL_Driver/stm32f3xx_hal.o
 .ARM.attributes
                0x00000000000003b3       0x34 Drivers/STM32F3xx_HAL_Driver/stm32f3xx_hal_adc.o
 .ARM.attributes
                0x00000000000003e7       0x34 Drivers/STM32F3xx_HAL_Driver/stm32f3xx_hal_adc_ex.o
 .ARM.attributes
                0x000000000000041b       0x34 Drivers/STM32F3xx_HAL_Driver/stm32f3xx_hal_cortex.o
 .ARM.attributes
                0x000000000000044f       0x34 Drivers/STM32F3xx_HAL_Driver/stm32f3xx_hal_dma.o
 .ARM.attributes
                0x0000000000000483       0x34 Drivers/STM32F3xx_HAL_Driver/stm32f3xx_hal_gpio.o
 .ARM.attributes
                0x00000000000004b7       0x34 Drivers/STM32F3xx_HAL_Driver/stm32f3xx_hal_rcc.o
 .ARM.attributes
                0x00000000000004eb       0x34 Drivers/STM32F3xx_HAL_Driver/stm32f3xx_hal_rcc_ex.o
 .ARM.attributes
                0x000000000000051f       0x34 Drivers/STM32F3xx_HAL_Driver/stm32f3xx_hal_spi.o
 .ARM.attributes
                0x0000000000000553       0x34 Drivers/STM32F3xx_HAL_Driver/stm32f3xx_hal_uart.o
 .ARM.attributes
                0x0000000000000587       0x34 Drivers/STM32F3xx_HAL_Driver/stm32f3xx_hal_uart_ex.o
 .ARM.attributes
                0x00000000000005bb       0x34 c:/st/stm32cubeide_1.6.1/stm32cubeide/plugins/com.st.stm32cube.ide.mcu.externaltools.gnu-tools-for-stm32.9-2020-q2-update.win32_1.5.0.202011040924/tools/bin/../lib/gcc/arm-none-eabi/9.3.1/../../../../arm-none-eabi/lib/thumb/v7e-m+fp/hard\libc_nano.a(lib_a-init.o)
 .ARM.attributes
                0x00000000000005ef       0x34 c:/st/stm32cubeide_1.6.1/stm32cubeide/plugins/com.st.stm32cube.ide.mcu.externaltools.gnu-tools-for-stm32.9-2020-q2-update.win32_1.5.0.202011040924/tools/bin/../lib/gcc/arm-none-eabi/9.3.1/../../../../arm-none-eabi/lib/thumb/v7e-m+fp/hard\libc_nano.a(lib_a-memset.o)
 .ARM.attributes
                0x0000000000000623       0x1e c:/st/stm32cubeide_1.6.1/stm32cubeide/plugins/com.st.stm32cube.ide.mcu.externaltools.gnu-tools-for-stm32.9-2020-q2-update.win32_1.5.0.202011040924/tools/bin/../lib/gcc/arm-none-eabi/9.3.1/thumb/v7e-m+fp/hard/crtn.o
OUTPUT(StepperDriveL6470Interfacing.elf elf32-littlearm)
LOAD linker stubs
LOAD c:/st/stm32cubeide_1.6.1/stm32cubeide/plugins/com.st.stm32cube.ide.mcu.externaltools.gnu-tools-for-stm32.9-2020-q2-update.win32_1.5.0.202011040924/tools/bin/../lib/gcc/arm-none-eabi/9.3.1/../../../../arm-none-eabi/lib/thumb/v7e-m+fp/hard\libc.a
LOAD c:/st/stm32cubeide_1.6.1/stm32cubeide/plugins/com.st.stm32cube.ide.mcu.externaltools.gnu-tools-for-stm32.9-2020-q2-update.win32_1.5.0.202011040924/tools/bin/../lib/gcc/arm-none-eabi/9.3.1/../../../../arm-none-eabi/lib/thumb/v7e-m+fp/hard\libm.a
LOAD c:/st/stm32cubeide_1.6.1/stm32cubeide/plugins/com.st.stm32cube.ide.mcu.externaltools.gnu-tools-for-stm32.9-2020-q2-update.win32_1.5.0.202011040924/tools/bin/../lib/gcc/arm-none-eabi/9.3.1/thumb/v7e-m+fp/hard\libgcc.a

.debug_info     0x0000000000000000    0x1aba5
 .debug_info    0x0000000000000000     0x2b5b Core/BSP/Components/L6470/L6470.o
 .debug_info    0x0000000000002b5b     0x281c Core/BSP/X-NUCLEO-IHM02A1/xnucleoihm02a1.o
 .debug_info    0x0000000000005377     0x1d29 Core/MotionControl/MicrosteppingMotor/Src/example.o
 .debug_info    0x00000000000070a0     0x1ccb Core/MotionControl/MicrosteppingMotor/Src/example_usart.o
 .debug_info    0x0000000000008d6b     0x1543 Core/MotionControl/MicrosteppingMotor/Src/main_app.o
 .debug_info    0x000000000000a2ae     0x16cb Core/MotionControl/MicrosteppingMotor/Src/params.o
 .debug_info    0x000000000000b979      0xef9 Core/MotionControl/MicrosteppingMotor/Src/stm32f3xx_it.o
 .debug_info    0x000000000000c872      0xc1e Core/Src/adc.o
 .debug_info    0x000000000000d490      0x425 Core/Src/gpio.o
 .debug_info    0x000000000000d8b5     0x1027 Core/Src/main.o
 .debug_info    0x000000000000e8dc      0x947 Core/Src/spi.o
 .debug_info    0x000000000000f223      0x299 Core/Src/stm32f3xx_hal_msp.o
 .debug_info    0x000000000000f4bc      0xb90 Core/Src/stm32f3xx_it.o
 .debug_info    0x000000000001004c      0x49a Core/Src/system_stm32f3xx.o
 .debug_info    0x00000000000104e6      0xb43 Core/Src/usart.o
 .debug_info    0x0000000000011029       0x22 Core/Startup/startup_stm32f302r8tx.o
 .debug_info    0x000000000001104b      0x7dd Drivers/STM32F3xx_HAL_Driver/stm32f3xx_hal.o
 .debug_info    0x0000000000011828      0xc8d Drivers/STM32F3xx_HAL_Driver/stm32f3xx_hal_adc.o
 .debug_info    0x00000000000124b5     0x1498 Drivers/STM32F3xx_HAL_Driver/stm32f3xx_hal_adc_ex.o
 .debug_info    0x000000000001394d      0xc09 Drivers/STM32F3xx_HAL_Driver/stm32f3xx_hal_cortex.o
 .debug_info    0x0000000000014556      0x839 Drivers/STM32F3xx_HAL_Driver/stm32f3xx_hal_dma.o
 .debug_info    0x0000000000014d8f      0x779 Drivers/STM32F3xx_HAL_Driver/stm32f3xx_hal_gpio.o
 .debug_info    0x0000000000015508     0x15b5 Drivers/STM32F3xx_HAL_Driver/stm32f3xx_hal_rcc.o
 .debug_info    0x0000000000016abd      0x671 Drivers/STM32F3xx_HAL_Driver/stm32f3xx_hal_rcc_ex.o
 .debug_info    0x000000000001712e     0x17cb Drivers/STM32F3xx_HAL_Driver/stm32f3xx_hal_spi.o
 .debug_info    0x00000000000188f9     0x17f6 Drivers/STM32F3xx_HAL_Driver/stm32f3xx_hal_uart.o
 .debug_info    0x000000000001a0ef      0xab6 Drivers/STM32F3xx_HAL_Driver/stm32f3xx_hal_uart_ex.o

.debug_abbrev   0x0000000000000000     0x3382
 .debug_abbrev  0x0000000000000000      0x2c1 Core/BSP/Components/L6470/L6470.o
 .debug_abbrev  0x00000000000002c1      0x2a5 Core/BSP/X-NUCLEO-IHM02A1/xnucleoihm02a1.o
 .debug_abbrev  0x0000000000000566      0x242 Core/MotionControl/MicrosteppingMotor/Src/example.o
 .debug_abbrev  0x00000000000007a8      0x2ba Core/MotionControl/MicrosteppingMotor/Src/example_usart.o
 .debug_abbrev  0x0000000000000a62      0x16c Core/MotionControl/MicrosteppingMotor/Src/main_app.o
 .debug_abbrev  0x0000000000000bce      0x17f Core/MotionControl/MicrosteppingMotor/Src/params.o
 .debug_abbrev  0x0000000000000d4d      0x15f Core/MotionControl/MicrosteppingMotor/Src/stm32f3xx_it.o
 .debug_abbrev  0x0000000000000eac      0x1c4 Core/Src/adc.o
 .debug_abbrev  0x0000000000001070      0x14e Core/Src/gpio.o
 .debug_abbrev  0x00000000000011be      0x1c7 Core/Src/main.o
 .debug_abbrev  0x0000000000001385      0x1bb Core/Src/spi.o
 .debug_abbrev  0x0000000000001540      0x11d Core/Src/stm32f3xx_hal_msp.o
 .debug_abbrev  0x000000000000165d      0x174 Core/Src/stm32f3xx_it.o
 .debug_abbrev  0x00000000000017d1      0x145 Core/Src/system_stm32f3xx.o
 .debug_abbrev  0x0000000000001916      0x1c4 Core/Src/usart.o
 .debug_abbrev  0x0000000000001ada       0x12 Core/Startup/startup_stm32f302r8tx.o
 .debug_abbrev  0x0000000000001aec      0x1ed Drivers/STM32F3xx_HAL_Driver/stm32f3xx_hal.o
 .debug_abbrev  0x0000000000001cd9      0x1a7 Drivers/STM32F3xx_HAL_Driver/stm32f3xx_hal_adc.o
 .debug_abbrev  0x0000000000001e80      0x253 Drivers/STM32F3xx_HAL_Driver/stm32f3xx_hal_adc_ex.o
 .debug_abbrev  0x00000000000020d3      0x313 Drivers/STM32F3xx_HAL_Driver/stm32f3xx_hal_cortex.o
 .debug_abbrev  0x00000000000023e6      0x228 Drivers/STM32F3xx_HAL_Driver/stm32f3xx_hal_dma.o
 .debug_abbrev  0x000000000000260e      0x1e8 Drivers/STM32F3xx_HAL_Driver/stm32f3xx_hal_gpio.o
 .debug_abbrev  0x00000000000027f6      0x2c4 Drivers/STM32F3xx_HAL_Driver/stm32f3xx_hal_rcc.o
 .debug_abbrev  0x0000000000002aba      0x22b Drivers/STM32F3xx_HAL_Driver/stm32f3xx_hal_rcc_ex.o
 .debug_abbrev  0x0000000000002ce5      0x254 Drivers/STM32F3xx_HAL_Driver/stm32f3xx_hal_spi.o
 .debug_abbrev  0x0000000000002f39      0x23f Drivers/STM32F3xx_HAL_Driver/stm32f3xx_hal_uart.o
 .debug_abbrev  0x0000000000003178      0x20a Drivers/STM32F3xx_HAL_Driver/stm32f3xx_hal_uart_ex.o

.debug_aranges  0x0000000000000000     0x10a8
 .debug_aranges
                0x0000000000000000      0x260 Core/BSP/Components/L6470/L6470.o
 .debug_aranges
                0x0000000000000260      0x168 Core/BSP/X-NUCLEO-IHM02A1/xnucleoihm02a1.o
 .debug_aranges
                0x00000000000003c8       0x38 Core/MotionControl/MicrosteppingMotor/Src/example.o
 .debug_aranges
                0x0000000000000400       0x88 Core/MotionControl/MicrosteppingMotor/Src/example_usart.o
 .debug_aranges
                0x0000000000000488       0x20 Core/MotionControl/MicrosteppingMotor/Src/main_app.o
 .debug_aranges
                0x00000000000004a8       0x20 Core/MotionControl/MicrosteppingMotor/Src/params.o
 .debug_aranges
                0x00000000000004c8       0x30 Core/MotionControl/MicrosteppingMotor/Src/stm32f3xx_it.o
 .debug_aranges
                0x00000000000004f8       0x30 Core/Src/adc.o
 .debug_aranges
                0x0000000000000528       0x20 Core/Src/gpio.o
 .debug_aranges
                0x0000000000000548       0x30 Core/Src/main.o
 .debug_aranges
                0x0000000000000578       0x30 Core/Src/spi.o
 .debug_aranges
                0x00000000000005a8       0x20 Core/Src/stm32f3xx_hal_msp.o
 .debug_aranges
                0x00000000000005c8       0x70 Core/Src/stm32f3xx_it.o
 .debug_aranges
                0x0000000000000638       0x28 Core/Src/system_stm32f3xx.o
 .debug_aranges
                0x0000000000000660       0x30 Core/Src/usart.o
 .debug_aranges
                0x0000000000000690       0x28 Core/Startup/startup_stm32f302r8tx.o
 .debug_aranges
                0x00000000000006b8       0xe0 Drivers/STM32F3xx_HAL_Driver/stm32f3xx_hal.o
 .debug_aranges
                0x0000000000000798       0xc8 Drivers/STM32F3xx_HAL_Driver/stm32f3xx_hal_adc.o
 .debug_aranges
                0x0000000000000860      0x140 Drivers/STM32F3xx_HAL_Driver/stm32f3xx_hal_adc_ex.o
 .debug_aranges
                0x00000000000009a0      0x100 Drivers/STM32F3xx_HAL_Driver/stm32f3xx_hal_cortex.o
 .debug_aranges
                0x0000000000000aa0       0x88 Drivers/STM32F3xx_HAL_Driver/stm32f3xx_hal_dma.o
 .debug_aranges
                0x0000000000000b28       0x58 Drivers/STM32F3xx_HAL_Driver/stm32f3xx_hal_gpio.o
 .debug_aranges
                0x0000000000000b80       0x88 Drivers/STM32F3xx_HAL_Driver/stm32f3xx_hal_rcc.o
 .debug_aranges
                0x0000000000000c08       0x38 Drivers/STM32F3xx_HAL_Driver/stm32f3xx_hal_rcc_ex.o
 .debug_aranges
                0x0000000000000c40      0x1d8 Drivers/STM32F3xx_HAL_Driver/stm32f3xx_hal_spi.o
 .debug_aranges
                0x0000000000000e18      0x228 Drivers/STM32F3xx_HAL_Driver/stm32f3xx_hal_uart.o
 .debug_aranges
                0x0000000000001040       0x68 Drivers/STM32F3xx_HAL_Driver/stm32f3xx_hal_uart_ex.o

.debug_ranges   0x0000000000000000      0xf30
 .debug_ranges  0x0000000000000000      0x250 Core/BSP/Components/L6470/L6470.o
 .debug_ranges  0x0000000000000250      0x158 Core/BSP/X-NUCLEO-IHM02A1/xnucleoihm02a1.o
 .debug_ranges  0x00000000000003a8       0x28 Core/MotionControl/MicrosteppingMotor/Src/example.o
 .debug_ranges  0x00000000000003d0       0x78 Core/MotionControl/MicrosteppingMotor/Src/example_usart.o
 .debug_ranges  0x0000000000000448       0x10 Core/MotionControl/MicrosteppingMotor/Src/main_app.o
 .debug_ranges  0x0000000000000458       0x10 Core/MotionControl/MicrosteppingMotor/Src/params.o
 .debug_ranges  0x0000000000000468       0x20 Core/MotionControl/MicrosteppingMotor/Src/stm32f3xx_it.o
 .debug_ranges  0x0000000000000488       0x20 Core/Src/adc.o
 .debug_ranges  0x00000000000004a8       0x10 Core/Src/gpio.o
 .debug_ranges  0x00000000000004b8       0x20 Core/Src/main.o
 .debug_ranges  0x00000000000004d8       0x20 Core/Src/spi.o
 .debug_ranges  0x00000000000004f8       0x10 Core/Src/stm32f3xx_hal_msp.o
 .debug_ranges  0x0000000000000508       0x60 Core/Src/stm32f3xx_it.o
 .debug_ranges  0x0000000000000568       0x18 Core/Src/system_stm32f3xx.o
 .debug_ranges  0x0000000000000580       0x20 Core/Src/usart.o
 .debug_ranges  0x00000000000005a0       0x20 Core/Startup/startup_stm32f302r8tx.o
 .debug_ranges  0x00000000000005c0       0xd0 Drivers/STM32F3xx_HAL_Driver/stm32f3xx_hal.o
 .debug_ranges  0x0000000000000690       0xb8 Drivers/STM32F3xx_HAL_Driver/stm32f3xx_hal_adc.o
 .debug_ranges  0x0000000000000748      0x130 Drivers/STM32F3xx_HAL_Driver/stm32f3xx_hal_adc_ex.o
 .debug_ranges  0x0000000000000878       0xf0 Drivers/STM32F3xx_HAL_Driver/stm32f3xx_hal_cortex.o
 .debug_ranges  0x0000000000000968       0x78 Drivers/STM32F3xx_HAL_Driver/stm32f3xx_hal_dma.o
 .debug_ranges  0x00000000000009e0       0x48 Drivers/STM32F3xx_HAL_Driver/stm32f3xx_hal_gpio.o
 .debug_ranges  0x0000000000000a28       0x78 Drivers/STM32F3xx_HAL_Driver/stm32f3xx_hal_rcc.o
 .debug_ranges  0x0000000000000aa0       0x28 Drivers/STM32F3xx_HAL_Driver/stm32f3xx_hal_rcc_ex.o
 .debug_ranges  0x0000000000000ac8      0x1c8 Drivers/STM32F3xx_HAL_Driver/stm32f3xx_hal_spi.o
 .debug_ranges  0x0000000000000c90      0x248 Drivers/STM32F3xx_HAL_Driver/stm32f3xx_hal_uart.o
 .debug_ranges  0x0000000000000ed8       0x58 Drivers/STM32F3xx_HAL_Driver/stm32f3xx_hal_uart_ex.o

.debug_macro    0x0000000000000000    0x1d0a7
 .debug_macro   0x0000000000000000      0x239 Core/BSP/Components/L6470/L6470.o
 .debug_macro   0x0000000000000239      0xaa8 Core/BSP/Components/L6470/L6470.o
 .debug_macro   0x0000000000000ce1      0x15d Core/BSP/Components/L6470/L6470.o
 .debug_macro   0x0000000000000e3e       0x2e Core/BSP/Components/L6470/L6470.o
 .debug_macro   0x0000000000000e6c       0x28 Core/BSP/Components/L6470/L6470.o
 .debug_macro   0x0000000000000e94       0x22 Core/BSP/Components/L6470/L6470.o
 .debug_macro   0x0000000000000eb6       0x8e Core/BSP/Components/L6470/L6470.o
 .debug_macro   0x0000000000000f44       0x51 Core/BSP/Components/L6470/L6470.o
 .debug_macro   0x0000000000000f95      0x103 Core/BSP/Components/L6470/L6470.o
 .debug_macro   0x0000000000001098       0x6a Core/BSP/Components/L6470/L6470.o
 .debug_macro   0x0000000000001102      0x1df Core/BSP/Components/L6470/L6470.o
 .debug_macro   0x00000000000012e1       0x1c Core/BSP/Components/L6470/L6470.o
 .debug_macro   0x00000000000012fd       0x22 Core/BSP/Components/L6470/L6470.o
 .debug_macro   0x000000000000131f       0xdf Core/BSP/Components/L6470/L6470.o
 .debug_macro   0x00000000000013fe      0xf07 Core/BSP/Components/L6470/L6470.o
 .debug_macro   0x0000000000002305    0x110e1 Core/BSP/Components/L6470/L6470.o
 .debug_macro   0x00000000000133e6       0x43 Core/BSP/Components/L6470/L6470.o
 .debug_macro   0x0000000000013429     0x35e9 Core/BSP/Components/L6470/L6470.o
 .debug_macro   0x0000000000016a12      0x174 Core/BSP/Components/L6470/L6470.o
 .debug_macro   0x0000000000016b86       0x55 Core/BSP/Components/L6470/L6470.o
 .debug_macro   0x0000000000016bdb      0x8f9 Core/BSP/Components/L6470/L6470.o
 .debug_macro   0x00000000000174d4      0x41b Core/BSP/Components/L6470/L6470.o
 .debug_macro   0x00000000000178ef      0x12f Core/BSP/Components/L6470/L6470.o
 .debug_macro   0x0000000000017a1e      0x161 Core/BSP/Components/L6470/L6470.o
 .debug_macro   0x0000000000017b7f      0x1d5 Core/BSP/Components/L6470/L6470.o
 .debug_macro   0x0000000000017d54      0x1bc Core/BSP/Components/L6470/L6470.o
 .debug_macro   0x0000000000017f10       0x34 Core/BSP/Components/L6470/L6470.o
 .debug_macro   0x0000000000017f44       0x3c Core/BSP/Components/L6470/L6470.o
 .debug_macro   0x0000000000017f80       0x57 Core/BSP/Components/L6470/L6470.o
 .debug_macro   0x0000000000017fd7      0x7b9 Core/BSP/Components/L6470/L6470.o
 .debug_macro   0x0000000000018790       0x77 Core/BSP/Components/L6470/L6470.o
 .debug_macro   0x0000000000018807       0xc5 Core/BSP/Components/L6470/L6470.o
 .debug_macro   0x00000000000188cc      0x19f Core/BSP/Components/L6470/L6470.o
 .debug_macro   0x0000000000018a6b      0x22c Core/BSP/Components/L6470/L6470.o
 .debug_macro   0x0000000000018c97       0x5b Core/BSP/Components/L6470/L6470.o
 .debug_macro   0x0000000000018cf2       0xa5 Core/BSP/Components/L6470/L6470.o
 .debug_macro   0x0000000000018d97       0x81 Core/BSP/Components/L6470/L6470.o
 .debug_macro   0x0000000000018e18       0xd3 Core/BSP/Components/L6470/L6470.o
 .debug_macro   0x0000000000018eeb      0x2fe Core/BSP/Components/L6470/L6470.o
 .debug_macro   0x00000000000191e9      0x5a5 Core/BSP/Components/L6470/L6470.o
 .debug_macro   0x000000000001978e       0x44 Core/BSP/Components/L6470/L6470.o
 .debug_macro   0x00000000000197d2      0x1f7 Core/BSP/Components/L6470/L6470.o
 .debug_macro   0x00000000000199c9       0x94 Core/BSP/Components/L6470/L6470.o
 .debug_macro   0x0000000000019a5d       0xba Core/BSP/Components/L6470/L6470.o
 .debug_macro   0x0000000000019b17      0x100 Core/BSP/Components/L6470/L6470.o
 .debug_macro   0x0000000000019c17      0x220 Core/BSP/X-NUCLEO-IHM02A1/xnucleoihm02a1.o
 .debug_macro   0x0000000000019e37       0x50 Core/BSP/X-NUCLEO-IHM02A1/xnucleoihm02a1.o
 .debug_macro   0x0000000000019e87      0x26a Core/MotionControl/MicrosteppingMotor/Src/example.o
 .debug_macro   0x000000000001a0f1       0x56 Core/MotionControl/MicrosteppingMotor/Src/example.o
 .debug_macro   0x000000000001a147      0x252 Core/MotionControl/MicrosteppingMotor/Src/example_usart.o
 .debug_macro   0x000000000001a399      0x244 Core/MotionControl/MicrosteppingMotor/Src/main_app.o
 .debug_macro   0x000000000001a5dd       0x9a Core/MotionControl/MicrosteppingMotor/Src/main_app.o
 .debug_macro   0x000000000001a677      0x21b Core/MotionControl/MicrosteppingMotor/Src/params.o
 .debug_macro   0x000000000001a892       0xb4 Core/MotionControl/MicrosteppingMotor/Src/params.o
 .debug_macro   0x000000000001a946      0x220 Core/MotionControl/MicrosteppingMotor/Src/stm32f3xx_it.o
 .debug_macro   0x000000000001ab66      0x1f9 Core/Src/adc.o
 .debug_macro   0x000000000001ad5f      0x1f9 Core/Src/gpio.o
 .debug_macro   0x000000000001af58      0x225 Core/Src/main.o
 .debug_macro   0x000000000001b17d      0x1f9 Core/Src/spi.o
 .debug_macro   0x000000000001b376      0x1ef Core/Src/stm32f3xx_hal_msp.o
 .debug_macro   0x000000000001b565      0x1f9 Core/Src/stm32f3xx_it.o
 .debug_macro   0x000000000001b75e      0x1e0 Core/Src/system_stm32f3xx.o
 .debug_macro   0x000000000001b93e      0x1f9 Core/Src/usart.o
 .debug_macro   0x000000000001bb37      0x204 Drivers/STM32F3xx_HAL_Driver/stm32f3xx_hal.o
 .debug_macro   0x000000000001bd3b      0x1e1 Drivers/STM32F3xx_HAL_Driver/stm32f3xx_hal_adc.o
 .debug_macro   0x000000000001bf1c      0x20a Drivers/STM32F3xx_HAL_Driver/stm32f3xx_hal_adc_ex.o
 .debug_macro   0x000000000001c126      0x1e0 Drivers/STM32F3xx_HAL_Driver/stm32f3xx_hal_cortex.o
 .debug_macro   0x000000000001c306      0x1e0 Drivers/STM32F3xx_HAL_Driver/stm32f3xx_hal_dma.o
 .debug_macro   0x000000000001c4e6      0x218 Drivers/STM32F3xx_HAL_Driver/stm32f3xx_hal_gpio.o
 .debug_macro   0x000000000001c6fe      0x204 Drivers/STM32F3xx_HAL_Driver/stm32f3xx_hal_rcc.o
 .debug_macro   0x000000000001c902      0x1e0 Drivers/STM32F3xx_HAL_Driver/stm32f3xx_hal_rcc_ex.o
 .debug_macro   0x000000000001cae2      0x1e8 Drivers/STM32F3xx_HAL_Driver/stm32f3xx_hal_spi.o
 .debug_macro   0x000000000001ccca      0x1fd Drivers/STM32F3xx_HAL_Driver/stm32f3xx_hal_uart.o
 .debug_macro   0x000000000001cec7      0x1e0 Drivers/STM32F3xx_HAL_Driver/stm32f3xx_hal_uart_ex.o

.debug_line     0x0000000000000000    0x17238
 .debug_line    0x0000000000000000     0x17b2 Core/BSP/Components/L6470/L6470.o
 .debug_line    0x00000000000017b2      0xeb5 Core/BSP/X-NUCLEO-IHM02A1/xnucleoihm02a1.o
 .debug_line    0x0000000000002667      0xe48 Core/MotionControl/MicrosteppingMotor/Src/example.o
 .debug_line    0x00000000000034af     0x1784 Core/MotionControl/MicrosteppingMotor/Src/example_usart.o
 .debug_line    0x0000000000004c33      0xaa4 Core/MotionControl/MicrosteppingMotor/Src/main_app.o
 .debug_line    0x00000000000056d7      0xa73 Core/MotionControl/MicrosteppingMotor/Src/params.o
 .debug_line    0x000000000000614a      0x902 Core/MotionControl/MicrosteppingMotor/Src/stm32f3xx_it.o
 .debug_line    0x0000000000006a4c      0x887 Core/Src/adc.o
 .debug_line    0x00000000000072d3      0x837 Core/Src/gpio.o
 .debug_line    0x0000000000007b0a      0x91f Core/Src/main.o
 .debug_line    0x0000000000008429      0x870 Core/Src/spi.o
 .debug_line    0x0000000000008c99      0x7f9 Core/Src/stm32f3xx_hal_msp.o
 .debug_line    0x0000000000009492      0x8eb Core/Src/stm32f3xx_it.o
 .debug_line    0x0000000000009d7d      0x86e Core/Src/system_stm32f3xx.o
 .debug_line    0x000000000000a5eb      0x86a Core/Src/usart.o
 .debug_line    0x000000000000ae55       0x88 Core/Startup/startup_stm32f302r8tx.o
 .debug_line    0x000000000000aedd      0xadc Drivers/STM32F3xx_HAL_Driver/stm32f3xx_hal.o
 .debug_line    0x000000000000b9b9      0xa20 Drivers/STM32F3xx_HAL_Driver/stm32f3xx_hal_adc.o
 .debug_line    0x000000000000c3d9     0x1c87 Drivers/STM32F3xx_HAL_Driver/stm32f3xx_hal_adc_ex.o
 .debug_line    0x000000000000e060      0xcc4 Drivers/STM32F3xx_HAL_Driver/stm32f3xx_hal_cortex.o
 .debug_line    0x000000000000ed24      0xdca Drivers/STM32F3xx_HAL_Driver/stm32f3xx_hal_dma.o
 .debug_line    0x000000000000faee      0xc33 Drivers/STM32F3xx_HAL_Driver/stm32f3xx_hal_gpio.o
 .debug_line    0x0000000000010721     0x14b6 Drivers/STM32F3xx_HAL_Driver/stm32f3xx_hal_rcc.o
 .debug_line    0x0000000000011bd7      0xd1a Drivers/STM32F3xx_HAL_Driver/stm32f3xx_hal_rcc_ex.o
 .debug_line    0x00000000000128f1     0x2044 Drivers/STM32F3xx_HAL_Driver/stm32f3xx_hal_spi.o
 .debug_line    0x0000000000014935     0x1d60 Drivers/STM32F3xx_HAL_Driver/stm32f3xx_hal_uart.o
 .debug_line    0x0000000000016695      0xba3 Drivers/STM32F3xx_HAL_Driver/stm32f3xx_hal_uart_ex.o

.debug_str      0x0000000000000000    0xa36dd
 .debug_str     0x0000000000000000    0x9fa1a Core/BSP/Components/L6470/L6470.o
                                      0xa01e3 (size before relaxing)
 .debug_str     0x000000000009fa1a      0x7f8 Core/BSP/X-NUCLEO-IHM02A1/xnucleoihm02a1.o
                                      0xa019d (size before relaxing)
 .debug_str     0x00000000000a0212      0x1b8 Core/MotionControl/MicrosteppingMotor/Src/example.o
                                      0x9fc12 (size before relaxing)
 .debug_str     0x00000000000a03ca      0x3b7 Core/MotionControl/MicrosteppingMotor/Src/example_usart.o
                                      0x9fd75 (size before relaxing)
 .debug_str     0x00000000000a0781       0x5d Core/MotionControl/MicrosteppingMotor/Src/main_app.o
                                      0x9f7ab (size before relaxing)
 .debug_str     0x00000000000a07de       0xbd Core/MotionControl/MicrosteppingMotor/Src/params.o
                                      0x9f5f9 (size before relaxing)
 .debug_str     0x00000000000a089b       0x63 Core/MotionControl/MicrosteppingMotor/Src/stm32f3xx_it.o
                                      0x9eb94 (size before relaxing)
 .debug_str     0x00000000000a08fe      0x118 Core/Src/adc.o
                                      0x9e724 (size before relaxing)
 .debug_str     0x00000000000a0a16       0x20 Core/Src/gpio.o
                                      0x9df13 (size before relaxing)
 .debug_str     0x00000000000a0a36      0x2ab Core/Src/main.o
                                      0x9e8ec (size before relaxing)
 .debug_str     0x00000000000a0ce1       0x4b Core/Src/spi.o
                                      0x9e316 (size before relaxing)
 .debug_str     0x00000000000a0d2c       0x2c Core/Src/stm32f3xx_hal_msp.o
                                      0x9de76 (size before relaxing)
 .debug_str     0x00000000000a0d58       0xbd Core/Src/stm32f3xx_it.o
                                      0x9e52c (size before relaxing)
 .debug_str     0x00000000000a0e15       0xb3 Core/Src/system_stm32f3xx.o
                                      0x9dc83 (size before relaxing)
 .debug_str     0x00000000000a0ec8       0x57 Core/Src/usart.o
                                      0x9e691 (size before relaxing)
 .debug_str     0x00000000000a0f1f       0x36 Core/Startup/startup_stm32f302r8tx.o
                                         0x85 (size before relaxing)
 .debug_str     0x00000000000a0f55      0x346 Drivers/STM32F3xx_HAL_Driver/stm32f3xx_hal.o
                                      0x9e374 (size before relaxing)
 .debug_str     0x00000000000a129b      0x268 Drivers/STM32F3xx_HAL_Driver/stm32f3xx_hal_adc.o
                                      0x9e2e7 (size before relaxing)
 .debug_str     0x00000000000a1503      0x652 Drivers/STM32F3xx_HAL_Driver/stm32f3xx_hal_adc_ex.o
                                      0x9e830 (size before relaxing)
 .debug_str     0x00000000000a1b55      0x2bd Drivers/STM32F3xx_HAL_Driver/stm32f3xx_hal_cortex.o
                                      0x9e355 (size before relaxing)
 .debug_str     0x00000000000a1e12      0x281 Drivers/STM32F3xx_HAL_Driver/stm32f3xx_hal_dma.o
                                      0x9e036 (size before relaxing)
 .debug_str     0x00000000000a2093      0x234 Drivers/STM32F3xx_HAL_Driver/stm32f3xx_hal_gpio.o
                                      0x9df2b (size before relaxing)
 .debug_str     0x00000000000a22c7      0x31e Drivers/STM32F3xx_HAL_Driver/stm32f3xx_hal_rcc.o
                                      0x9e12a (size before relaxing)
 .debug_str     0x00000000000a25e5      0x111 Drivers/STM32F3xx_HAL_Driver/stm32f3xx_hal_rcc_ex.o
                                      0x9dec3 (size before relaxing)
 .debug_str     0x00000000000a26f6      0x5a1 Drivers/STM32F3xx_HAL_Driver/stm32f3xx_hal_spi.o
                                      0x9e5b1 (size before relaxing)
 .debug_str     0x00000000000a2c97      0x86f Drivers/STM32F3xx_HAL_Driver/stm32f3xx_hal_uart.o
                                      0x9e917 (size before relaxing)
 .debug_str     0x00000000000a3506      0x1d7 Drivers/STM32F3xx_HAL_Driver/stm32f3xx_hal_uart_ex.o
                                      0x9e200 (size before relaxing)

.comment        0x0000000000000000       0x53
 .comment       0x0000000000000000       0x53 Core/BSP/Components/L6470/L6470.o
                                         0x54 (size before relaxing)
 .comment       0x0000000000000053       0x54 Core/BSP/X-NUCLEO-IHM02A1/xnucleoihm02a1.o
 .comment       0x0000000000000053       0x54 Core/MotionControl/MicrosteppingMotor/Src/example.o
 .comment       0x0000000000000053       0x54 Core/MotionControl/MicrosteppingMotor/Src/example_usart.o
 .comment       0x0000000000000053       0x54 Core/MotionControl/MicrosteppingMotor/Src/main_app.o
 .comment       0x0000000000000053       0x54 Core/MotionControl/MicrosteppingMotor/Src/params.o
 .comment       0x0000000000000053       0x54 Core/MotionControl/MicrosteppingMotor/Src/stm32f3xx_it.o
 .comment       0x0000000000000053       0x54 Core/Src/adc.o
 .comment       0x0000000000000053       0x54 Core/Src/gpio.o
 .comment       0x0000000000000053       0x54 Core/Src/main.o
 .comment       0x0000000000000053       0x54 Core/Src/spi.o
 .comment       0x0000000000000053       0x54 Core/Src/stm32f3xx_hal_msp.o
 .comment       0x0000000000000053       0x54 Core/Src/stm32f3xx_it.o
 .comment       0x0000000000000053       0x54 Core/Src/system_stm32f3xx.o
 .comment       0x0000000000000053       0x54 Core/Src/usart.o
 .comment       0x0000000000000053       0x54 Drivers/STM32F3xx_HAL_Driver/stm32f3xx_hal.o
 .comment       0x0000000000000053       0x54 Drivers/STM32F3xx_HAL_Driver/stm32f3xx_hal_adc.o
 .comment       0x0000000000000053       0x54 Drivers/STM32F3xx_HAL_Driver/stm32f3xx_hal_adc_ex.o
 .comment       0x0000000000000053       0x54 Drivers/STM32F3xx_HAL_Driver/stm32f3xx_hal_cortex.o
 .comment       0x0000000000000053       0x54 Drivers/STM32F3xx_HAL_Driver/stm32f3xx_hal_dma.o
 .comment       0x0000000000000053       0x54 Drivers/STM32F3xx_HAL_Driver/stm32f3xx_hal_gpio.o
 .comment       0x0000000000000053       0x54 Drivers/STM32F3xx_HAL_Driver/stm32f3xx_hal_rcc.o
 .comment       0x0000000000000053       0x54 Drivers/STM32F3xx_HAL_Driver/stm32f3xx_hal_rcc_ex.o
 .comment       0x0000000000000053       0x54 Drivers/STM32F3xx_HAL_Driver/stm32f3xx_hal_spi.o
 .comment       0x0000000000000053       0x54 Drivers/STM32F3xx_HAL_Driver/stm32f3xx_hal_uart.o
 .comment       0x0000000000000053       0x54 Drivers/STM32F3xx_HAL_Driver/stm32f3xx_hal_uart_ex.o

.debug_frame    0x0000000000000000     0x42b0
 .debug_frame   0x0000000000000000      0xad0 Core/BSP/Components/L6470/L6470.o
 .debug_frame   0x0000000000000ad0      0x5f0 Core/BSP/X-NUCLEO-IHM02A1/xnucleoihm02a1.o
 .debug_frame   0x00000000000010c0       0xa4 Core/MotionControl/MicrosteppingMotor/Src/example.o
 .debug_frame   0x0000000000001164      0x218 Core/MotionControl/MicrosteppingMotor/Src/example_usart.o
 .debug_frame   0x000000000000137c       0x2c Core/MotionControl/MicrosteppingMotor/Src/main_app.o
 .debug_frame   0x00000000000013a8       0x30 Core/MotionControl/MicrosteppingMotor/Src/params.o
 .debug_frame   0x00000000000013d8       0x64 Core/MotionControl/MicrosteppingMotor/Src/stm32f3xx_it.o
 .debug_frame   0x000000000000143c       0x7c Core/Src/adc.o
 .debug_frame   0x00000000000014b8       0x34 Core/Src/gpio.o
 .debug_frame   0x00000000000014ec       0x68 Core/Src/main.o
 .debug_frame   0x0000000000001554       0x74 Core/Src/spi.o
 .debug_frame   0x00000000000015c8       0x34 Core/Src/stm32f3xx_hal_msp.o
 .debug_frame   0x00000000000015fc      0x13c Core/Src/stm32f3xx_it.o
 .debug_frame   0x0000000000001738       0x58 Core/Src/system_stm32f3xx.o
 .debug_frame   0x0000000000001790       0x74 Core/Src/usart.o
 .debug_frame   0x0000000000001804      0x334 Drivers/STM32F3xx_HAL_Driver/stm32f3xx_hal.o
 .debug_frame   0x0000000000001b38      0x380 Drivers/STM32F3xx_HAL_Driver/stm32f3xx_hal_adc.o
 .debug_frame   0x0000000000001eb8      0x57c Drivers/STM32F3xx_HAL_Driver/stm32f3xx_hal_adc_ex.o
 .debug_frame   0x0000000000002434      0x428 Drivers/STM32F3xx_HAL_Driver/stm32f3xx_hal_cortex.o
 .debug_frame   0x000000000000285c      0x224 Drivers/STM32F3xx_HAL_Driver/stm32f3xx_hal_dma.o
 .debug_frame   0x0000000000002a80      0x14c Drivers/STM32F3xx_HAL_Driver/stm32f3xx_hal_gpio.o
 .debug_frame   0x0000000000002bcc      0x214 Drivers/STM32F3xx_HAL_Driver/stm32f3xx_hal_rcc.o
 .debug_frame   0x0000000000002de0       0xb4 Drivers/STM32F3xx_HAL_Driver/stm32f3xx_hal_rcc_ex.o
 .debug_frame   0x0000000000002e94      0x860 Drivers/STM32F3xx_HAL_Driver/stm32f3xx_hal_spi.o
 .debug_frame   0x00000000000036f4      0x9e0 Drivers/STM32F3xx_HAL_Driver/stm32f3xx_hal_uart.o
 .debug_frame   0x00000000000040d4      0x190 Drivers/STM32F3xx_HAL_Driver/stm32f3xx_hal_uart_ex.o
 .debug_frame   0x0000000000004264       0x2c c:/st/stm32cubeide_1.6.1/stm32cubeide/plugins/com.st.stm32cube.ide.mcu.externaltools.gnu-tools-for-stm32.9-2020-q2-update.win32_1.5.0.202011040924/tools/bin/../lib/gcc/arm-none-eabi/9.3.1/../../../../arm-none-eabi/lib/thumb/v7e-m+fp/hard\libc_nano.a(lib_a-init.o)
 .debug_frame   0x0000000000004290       0x20 c:/st/stm32cubeide_1.6.1/stm32cubeide/plugins/com.st.stm32cube.ide.mcu.externaltools.gnu-tools-for-stm32.9-2020-q2-update.win32_1.5.0.202011040924/tools/bin/../lib/gcc/arm-none-eabi/9.3.1/../../../../arm-none-eabi/lib/thumb/v7e-m+fp/hard\libc_nano.a(lib_a-memset.o)
