
StepperDriveL6470Interfacing.elf:     file format elf32-littlearm

Sections:
Idx Name          Size      VMA       LMA       File off  Algn
  0 .isr_vector   00000188  08000000  08000000  00010000  2**0
                  CONTENTS, ALLOC, LOAD, READONLY, DATA
  1 .text         00006e08  08000188  08000188  00010188  2**2
                  CONTENTS, ALLOC, LOAD, READONLY, CODE
  2 .rodata       00000a34  08006f90  08006f90  00016f90  2**2
                  CONTENTS, ALLOC, LOAD, READONLY, DATA
  3 .ARM.extab    00000000  080079c4  080079c4  0002034c  2**0
                  CONTENTS
  4 .ARM          00000000  080079c4  080079c4  0002034c  2**0
                  CONTENTS
  5 .preinit_array 00000000  080079c4  080079c4  0002034c  2**0
                  CONTENTS, ALLOC, LOAD, DATA
  6 .init_array   00000004  080079c4  080079c4  000179c4  2**2
                  CONTENTS, ALLOC, LOAD, DATA
  7 .fini_array   00000004  080079c8  080079c8  000179c8  2**2
                  CONTENTS, ALLOC, LOAD, DATA
  8 .data         0000034c  20000000  080079cc  00020000  2**2
                  CONTENTS, ALLOC, LOAD, DATA
  9 .bss          00000274  2000034c  08007d18  0002034c  2**2
                  ALLOC
 10 ._user_heap_stack 00000600  200005c0  08007d18  000205c0  2**0
                  ALLOC
 11 .ARM.attributes 00000030  00000000  00000000  0002034c  2**0
                  CONTENTS, READONLY
 12 .debug_info   0001aba5  00000000  00000000  0002037c  2**0
                  CONTENTS, READONLY, DEBUGGING, OCTETS
 13 .debug_abbrev 00003382  00000000  00000000  0003af21  2**0
                  CONTENTS, READONLY, DEBUGGING, OCTETS
 14 .debug_aranges 000010a8  00000000  00000000  0003e2a8  2**3
                  CONTENTS, READONLY, DEBUGGING, OCTETS
 15 .debug_ranges 00000f30  00000000  00000000  0003f350  2**3
                  CONTENTS, READONLY, DEBUGGING, OCTETS
 16 .debug_macro  0001d0a7  00000000  00000000  00040280  2**0
                  CONTENTS, READONLY, DEBUGGING, OCTETS
 17 .debug_line   00017238  00000000  00000000  0005d327  2**0
                  CONTENTS, READONLY, DEBUGGING, OCTETS
 18 .debug_str    000a36dd  00000000  00000000  0007455f  2**0
                  CONTENTS, READONLY, DEBUGGING, OCTETS
 19 .comment      00000053  00000000  00000000  00117c3c  2**0
                  CONTENTS, READONLY
 20 .debug_frame  000042b0  00000000  00000000  00117c90  2**2
                  CONTENTS, READONLY, DEBUGGING, OCTETS

Disassembly of section .text:

08000188 <__do_global_dtors_aux>:
 8000188:	b510      	push	{r4, lr}
 800018a:	4c05      	ldr	r4, [pc, #20]	; (80001a0 <__do_global_dtors_aux+0x18>)
 800018c:	7823      	ldrb	r3, [r4, #0]
 800018e:	b933      	cbnz	r3, 800019e <__do_global_dtors_aux+0x16>
 8000190:	4b04      	ldr	r3, [pc, #16]	; (80001a4 <__do_global_dtors_aux+0x1c>)
 8000192:	b113      	cbz	r3, 800019a <__do_global_dtors_aux+0x12>
 8000194:	4804      	ldr	r0, [pc, #16]	; (80001a8 <__do_global_dtors_aux+0x20>)
 8000196:	f3af 8000 	nop.w
 800019a:	2301      	movs	r3, #1
 800019c:	7023      	strb	r3, [r4, #0]
 800019e:	bd10      	pop	{r4, pc}
 80001a0:	2000034c 	.word	0x2000034c
 80001a4:	00000000 	.word	0x00000000
 80001a8:	08006f78 	.word	0x08006f78

080001ac <frame_dummy>:
 80001ac:	b508      	push	{r3, lr}
 80001ae:	4b03      	ldr	r3, [pc, #12]	; (80001bc <frame_dummy+0x10>)
 80001b0:	b11b      	cbz	r3, 80001ba <frame_dummy+0xe>
 80001b2:	4903      	ldr	r1, [pc, #12]	; (80001c0 <frame_dummy+0x14>)
 80001b4:	4803      	ldr	r0, [pc, #12]	; (80001c4 <frame_dummy+0x18>)
 80001b6:	f3af 8000 	nop.w
 80001ba:	bd08      	pop	{r3, pc}
 80001bc:	00000000 	.word	0x00000000
 80001c0:	20000350 	.word	0x20000350
 80001c4:	08006f78 	.word	0x08006f78

080001c8 <L6470_ResetAppCmdPkg>:
  * @brief  Reset the structure used to store the identifier of the L6470
  *         application command and its the needed parameters.
  * @param  L6470_AppCmdPkg   The structure to be reset.
  */
void L6470_ResetAppCmdPkg(sL6470_AppCmdPkg_t* pL6470_AppCmdPkg)
{
 80001c8:	b480      	push	{r7}
 80001ca:	b085      	sub	sp, #20
 80001cc:	af00      	add	r7, sp, #0
 80001ce:	6078      	str	r0, [r7, #4]
  uint8_t id;
  
  for(id=0; id<L6470DAISYCHAINSIZE; id++)
 80001d0:	2300      	movs	r3, #0
 80001d2:	73fb      	strb	r3, [r7, #15]
 80001d4:	e01a      	b.n	800020c <L6470_ResetAppCmdPkg+0x44>
  {
    (pL6470_AppCmdPkg+id)->L6470_AppCmdId=(eL6470_AppCmdId_t)0;
 80001d6:	7bfb      	ldrb	r3, [r7, #15]
 80001d8:	011b      	lsls	r3, r3, #4
 80001da:	687a      	ldr	r2, [r7, #4]
 80001dc:	4413      	add	r3, r2
 80001de:	2200      	movs	r2, #0
 80001e0:	701a      	strb	r2, [r3, #0]
    (pL6470_AppCmdPkg+id)->p1=0;
 80001e2:	7bfb      	ldrb	r3, [r7, #15]
 80001e4:	011b      	lsls	r3, r3, #4
 80001e6:	687a      	ldr	r2, [r7, #4]
 80001e8:	4413      	add	r3, r2
 80001ea:	2200      	movs	r2, #0
 80001ec:	605a      	str	r2, [r3, #4]
    (pL6470_AppCmdPkg+id)->p2=0;
 80001ee:	7bfb      	ldrb	r3, [r7, #15]
 80001f0:	011b      	lsls	r3, r3, #4
 80001f2:	687a      	ldr	r2, [r7, #4]
 80001f4:	4413      	add	r3, r2
 80001f6:	2200      	movs	r2, #0
 80001f8:	609a      	str	r2, [r3, #8]
    (pL6470_AppCmdPkg+id)->p3=0;
 80001fa:	7bfb      	ldrb	r3, [r7, #15]
 80001fc:	011b      	lsls	r3, r3, #4
 80001fe:	687a      	ldr	r2, [r7, #4]
 8000200:	4413      	add	r3, r2
 8000202:	2200      	movs	r2, #0
 8000204:	60da      	str	r2, [r3, #12]
  for(id=0; id<L6470DAISYCHAINSIZE; id++)
 8000206:	7bfb      	ldrb	r3, [r7, #15]
 8000208:	3301      	adds	r3, #1
 800020a:	73fb      	strb	r3, [r7, #15]
 800020c:	7bfb      	ldrb	r3, [r7, #15]
 800020e:	2b01      	cmp	r3, #1
 8000210:	d9e1      	bls.n	80001d6 <L6470_ResetAppCmdPkg+0xe>
  }
}
 8000212:	bf00      	nop
 8000214:	bf00      	nop
 8000216:	3714      	adds	r7, #20
 8000218:	46bd      	mov	sp, r7
 800021a:	f85d 7b04 	ldr.w	r7, [sp], #4
 800021e:	4770      	bx	lr

08000220 <L6470_FillAppCmdPkg>:
  * @param  p1                The 1st parameter (if it is not needed it will be not considered).
  * @param  p2                The 2nd parameter (if it is not needed it will be not considered).
  * @param  p3                The 3rd parameter (if it is not needed it will be not considered).
  */
void L6470_FillAppCmdPkg(uint8_t L6470_Id, sL6470_AppCmdPkg_t* pL6470_AppCmdPkg, eL6470_AppCmdId_t L6470_AppCmdId, uint32_t p1, uint32_t p2, uint32_t p3)
{
 8000220:	b480      	push	{r7}
 8000222:	b085      	sub	sp, #20
 8000224:	af00      	add	r7, sp, #0
 8000226:	60b9      	str	r1, [r7, #8]
 8000228:	607b      	str	r3, [r7, #4]
 800022a:	4603      	mov	r3, r0
 800022c:	73fb      	strb	r3, [r7, #15]
 800022e:	4613      	mov	r3, r2
 8000230:	73bb      	strb	r3, [r7, #14]
  (pL6470_AppCmdPkg+L6470_Id)->L6470_AppCmdId = L6470_AppCmdId;
 8000232:	7bfb      	ldrb	r3, [r7, #15]
 8000234:	011b      	lsls	r3, r3, #4
 8000236:	68ba      	ldr	r2, [r7, #8]
 8000238:	4413      	add	r3, r2
 800023a:	7bba      	ldrb	r2, [r7, #14]
 800023c:	701a      	strb	r2, [r3, #0]
  (pL6470_AppCmdPkg+L6470_Id)->p1 = p1;
 800023e:	7bfb      	ldrb	r3, [r7, #15]
 8000240:	011b      	lsls	r3, r3, #4
 8000242:	68ba      	ldr	r2, [r7, #8]
 8000244:	4413      	add	r3, r2
 8000246:	687a      	ldr	r2, [r7, #4]
 8000248:	605a      	str	r2, [r3, #4]
  (pL6470_AppCmdPkg+L6470_Id)->p2 = p2;
 800024a:	7bfb      	ldrb	r3, [r7, #15]
 800024c:	011b      	lsls	r3, r3, #4
 800024e:	68ba      	ldr	r2, [r7, #8]
 8000250:	4413      	add	r3, r2
 8000252:	69ba      	ldr	r2, [r7, #24]
 8000254:	609a      	str	r2, [r3, #8]
  (pL6470_AppCmdPkg+L6470_Id)->p3 = p3;
 8000256:	7bfb      	ldrb	r3, [r7, #15]
 8000258:	011b      	lsls	r3, r3, #4
 800025a:	68ba      	ldr	r2, [r7, #8]
 800025c:	4413      	add	r3, r2
 800025e:	69fa      	ldr	r2, [r7, #28]
 8000260:	60da      	str	r2, [r3, #12]
}
 8000262:	bf00      	nop
 8000264:	3714      	adds	r7, #20
 8000266:	46bd      	mov	sp, r7
 8000268:	f85d 7b04 	ldr.w	r7, [sp], #4
 800026c:	4770      	bx	lr
	...

08000270 <L6470_PrepareAppCmdPkg>:
  * @param  p1                The 1st parameter (if it is not needed it will be not considered).
  * @param  p2                The 2nd parameter (if it is not needed it will be not considered).
  * @param  p3                The 3rd parameter (if it is not needed it will be not considered).
  */
void L6470_PrepareAppCmdPkg(uint8_t L6470_Id, sL6470_AppCmdPkg_t* pL6470_AppCmdPkg, eL6470_AppCmdId_t L6470_AppCmdId, uint32_t p1, uint32_t p2, uint32_t p3)
{
 8000270:	b580      	push	{r7, lr}
 8000272:	b086      	sub	sp, #24
 8000274:	af02      	add	r7, sp, #8
 8000276:	60b9      	str	r1, [r7, #8]
 8000278:	607b      	str	r3, [r7, #4]
 800027a:	4603      	mov	r3, r0
 800027c:	73fb      	strb	r3, [r7, #15]
 800027e:	4613      	mov	r3, r2
 8000280:	73bb      	strb	r3, [r7, #14]
  if(!L6470_DaisyChain_HalfPrepared)
 8000282:	4b0c      	ldr	r3, [pc, #48]	; (80002b4 <L6470_PrepareAppCmdPkg+0x44>)
 8000284:	781b      	ldrb	r3, [r3, #0]
 8000286:	2b00      	cmp	r3, #0
 8000288:	d105      	bne.n	8000296 <L6470_PrepareAppCmdPkg+0x26>
  {
    L6470_DaisyChain_HalfPrepared = ONE_F; /* To avoid to delete the previous entered command */
 800028a:	4b0a      	ldr	r3, [pc, #40]	; (80002b4 <L6470_PrepareAppCmdPkg+0x44>)
 800028c:	2201      	movs	r2, #1
 800028e:	701a      	strb	r2, [r3, #0]
    L6470_ResetAppCmdPkg(pL6470_AppCmdPkg);
 8000290:	68b8      	ldr	r0, [r7, #8]
 8000292:	f7ff ff99 	bl	80001c8 <L6470_ResetAppCmdPkg>
  }
  
  L6470_FillAppCmdPkg(L6470_Id, pL6470_AppCmdPkg, L6470_AppCmdId, p1, p2, p3);
 8000296:	7bba      	ldrb	r2, [r7, #14]
 8000298:	7bf8      	ldrb	r0, [r7, #15]
 800029a:	69fb      	ldr	r3, [r7, #28]
 800029c:	9301      	str	r3, [sp, #4]
 800029e:	69bb      	ldr	r3, [r7, #24]
 80002a0:	9300      	str	r3, [sp, #0]
 80002a2:	687b      	ldr	r3, [r7, #4]
 80002a4:	68b9      	ldr	r1, [r7, #8]
 80002a6:	f7ff ffbb 	bl	8000220 <L6470_FillAppCmdPkg>
}
 80002aa:	bf00      	nop
 80002ac:	3710      	adds	r7, #16
 80002ae:	46bd      	mov	sp, r7
 80002b0:	bd80      	pop	{r7, pc}
 80002b2:	bf00      	nop
 80002b4:	20000368 	.word	0x20000368

080002b8 <L6470_PrepareDaisyChainCommand>:
  *
  * @param  pL6470_AppCmdPkg              Pointer to the sL6470_AppCmdPkg_t to be filled.
  * @param  pL6470_DaisyChainSpiTxStruct  Pointer to the structure used by SPI to send the commands.
  */
void L6470_PrepareDaisyChainCommand(sL6470_AppCmdPkg_t* pL6470_AppCmdPkg, uint8_t* pL6470_DaisyChainSpiTxStruct)
{
 80002b8:	b480      	push	{r7}
 80002ba:	b085      	sub	sp, #20
 80002bc:	af00      	add	r7, sp, #0
 80002be:	6078      	str	r0, [r7, #4]
 80002c0:	6039      	str	r1, [r7, #0]
  uint8_t PARAMLengthBytes; /* The number of bytes related to the numeric value for the addressed register */
  uint8_t spibyte;
  uint8_t i;
  
  /* Reset the structure used to send the command to the L6470 Daisy Chain through the SPI */
  i = 0;
 80002c2:	2300      	movs	r3, #0
 80002c4:	737b      	strb	r3, [r7, #13]
  for(spibyte=0;spibyte<L6470MAXSPICMDBYTESIZE;spibyte++)
 80002c6:	2300      	movs	r3, #0
 80002c8:	73bb      	strb	r3, [r7, #14]
 80002ca:	e013      	b.n	80002f4 <L6470_PrepareDaisyChainCommand+0x3c>
    for(PkgId=0; PkgId<L6470DAISYCHAINSIZE; PkgId++)
 80002cc:	2300      	movs	r3, #0
 80002ce:	73fb      	strb	r3, [r7, #15]
 80002d0:	e00a      	b.n	80002e8 <L6470_PrepareDaisyChainCommand+0x30>
      *(pL6470_DaisyChainSpiTxStruct+(i++)) = 0x00;
 80002d2:	7b7b      	ldrb	r3, [r7, #13]
 80002d4:	1c5a      	adds	r2, r3, #1
 80002d6:	737a      	strb	r2, [r7, #13]
 80002d8:	461a      	mov	r2, r3
 80002da:	683b      	ldr	r3, [r7, #0]
 80002dc:	4413      	add	r3, r2
 80002de:	2200      	movs	r2, #0
 80002e0:	701a      	strb	r2, [r3, #0]
    for(PkgId=0; PkgId<L6470DAISYCHAINSIZE; PkgId++)
 80002e2:	7bfb      	ldrb	r3, [r7, #15]
 80002e4:	3301      	adds	r3, #1
 80002e6:	73fb      	strb	r3, [r7, #15]
 80002e8:	7bfb      	ldrb	r3, [r7, #15]
 80002ea:	2b01      	cmp	r3, #1
 80002ec:	d9f1      	bls.n	80002d2 <L6470_PrepareDaisyChainCommand+0x1a>
  for(spibyte=0;spibyte<L6470MAXSPICMDBYTESIZE;spibyte++)
 80002ee:	7bbb      	ldrb	r3, [r7, #14]
 80002f0:	3301      	adds	r3, #1
 80002f2:	73bb      	strb	r3, [r7, #14]
 80002f4:	7bbb      	ldrb	r3, [r7, #14]
 80002f6:	2b03      	cmp	r3, #3
 80002f8:	d9e8      	bls.n	80002cc <L6470_PrepareDaisyChainCommand+0x14>
  
  for(PkgId=0; PkgId<L6470DAISYCHAINSIZE; PkgId++)
 80002fa:	2300      	movs	r3, #0
 80002fc:	73fb      	strb	r3, [r7, #15]
 80002fe:	e1f7      	b.n	80006f0 <L6470_PrepareDaisyChainCommand+0x438>
  {
    /* Build the 1st bytes to transmit with the binary code of the command */
    *(pL6470_DaisyChainSpiTxStruct+((0*L6470DAISYCHAINSIZE)+PkgId)) = (L6470_ApplicationCommand[(pL6470_AppCmdPkg+PkgId)->L6470_AppCmdId].BinaryCode);
 8000300:	7bfb      	ldrb	r3, [r7, #15]
 8000302:	011b      	lsls	r3, r3, #4
 8000304:	687a      	ldr	r2, [r7, #4]
 8000306:	4413      	add	r3, r2
 8000308:	781b      	ldrb	r3, [r3, #0]
 800030a:	4618      	mov	r0, r3
 800030c:	7bfb      	ldrb	r3, [r7, #15]
 800030e:	683a      	ldr	r2, [r7, #0]
 8000310:	441a      	add	r2, r3
 8000312:	49b3      	ldr	r1, [pc, #716]	; (80005e0 <L6470_PrepareDaisyChainCommand+0x328>)
 8000314:	4603      	mov	r3, r0
 8000316:	00db      	lsls	r3, r3, #3
 8000318:	1a1b      	subs	r3, r3, r0
 800031a:	005b      	lsls	r3, r3, #1
 800031c:	440b      	add	r3, r1
 800031e:	330c      	adds	r3, #12
 8000320:	781b      	ldrb	r3, [r3, #0]
 8000322:	7013      	strb	r3, [r2, #0]
    
    /* Perform the related L6470_AppCmdId */
    switch((pL6470_AppCmdPkg+PkgId)->L6470_AppCmdId)
 8000324:	7bfb      	ldrb	r3, [r7, #15]
 8000326:	011b      	lsls	r3, r3, #4
 8000328:	687a      	ldr	r2, [r7, #4]
 800032a:	4413      	add	r3, r2
 800032c:	781b      	ldrb	r3, [r3, #0]
 800032e:	2b12      	cmp	r3, #18
 8000330:	f200 81db 	bhi.w	80006ea <L6470_PrepareDaisyChainCommand+0x432>
 8000334:	a201      	add	r2, pc, #4	; (adr r2, 800033c <L6470_PrepareDaisyChainCommand+0x84>)
 8000336:	f852 f023 	ldr.w	pc, [r2, r3, lsl #2]
 800033a:	bf00      	nop
 800033c:	080006eb 	.word	0x080006eb
 8000340:	08000389 	.word	0x08000389
 8000344:	0800040f 	.word	0x0800040f
 8000348:	0800043d 	.word	0x0800043d
 800034c:	080004a5 	.word	0x080004a5
 8000350:	080004d3 	.word	0x080004d3
 8000354:	0800053b 	.word	0x0800053b
 8000358:	08000577 	.word	0x08000577
 800035c:	080005ed 	.word	0x080005ed
 8000360:	08000689 	.word	0x08000689
 8000364:	080006eb 	.word	0x080006eb
 8000368:	080006eb 	.word	0x080006eb
 800036c:	080006eb 	.word	0x080006eb
 8000370:	080006eb 	.word	0x080006eb
 8000374:	080006eb 	.word	0x080006eb
 8000378:	080006eb 	.word	0x080006eb
 800037c:	080006eb 	.word	0x080006eb
 8000380:	080006eb 	.word	0x080006eb
 8000384:	080006eb 	.word	0x080006eb
    {
    case L6470_NOP_ID:
      break;
    case L6470_SETPARAM_ID:
      /* Build the 1st bytes to transmit (PARAM) */
      *(pL6470_DaisyChainSpiTxStruct+((0*L6470DAISYCHAINSIZE)+PkgId)) |= (L6470_Register[((pL6470_AppCmdPkg+PkgId)->p1)].Address);
 8000388:	7bfb      	ldrb	r3, [r7, #15]
 800038a:	683a      	ldr	r2, [r7, #0]
 800038c:	4413      	add	r3, r2
 800038e:	7819      	ldrb	r1, [r3, #0]
 8000390:	7bfb      	ldrb	r3, [r7, #15]
 8000392:	011b      	lsls	r3, r3, #4
 8000394:	687a      	ldr	r2, [r7, #4]
 8000396:	4413      	add	r3, r2
 8000398:	685a      	ldr	r2, [r3, #4]
 800039a:	4892      	ldr	r0, [pc, #584]	; (80005e4 <L6470_PrepareDaisyChainCommand+0x32c>)
 800039c:	4613      	mov	r3, r2
 800039e:	009b      	lsls	r3, r3, #2
 80003a0:	4413      	add	r3, r2
 80003a2:	009b      	lsls	r3, r3, #2
 80003a4:	4403      	add	r3, r0
 80003a6:	781a      	ldrb	r2, [r3, #0]
 80003a8:	7bfb      	ldrb	r3, [r7, #15]
 80003aa:	6838      	ldr	r0, [r7, #0]
 80003ac:	4403      	add	r3, r0
 80003ae:	430a      	orrs	r2, r1
 80003b0:	b2d2      	uxtb	r2, r2
 80003b2:	701a      	strb	r2, [r3, #0]
      
      /* The length, in byte, of this register (PARAM) is... */
      PARAMLengthBytes = L6470_Register[((pL6470_AppCmdPkg+PkgId)->p1)].LengthByte;
 80003b4:	7bfb      	ldrb	r3, [r7, #15]
 80003b6:	011b      	lsls	r3, r3, #4
 80003b8:	687a      	ldr	r2, [r7, #4]
 80003ba:	4413      	add	r3, r2
 80003bc:	685a      	ldr	r2, [r3, #4]
 80003be:	4989      	ldr	r1, [pc, #548]	; (80005e4 <L6470_PrepareDaisyChainCommand+0x32c>)
 80003c0:	4613      	mov	r3, r2
 80003c2:	009b      	lsls	r3, r3, #2
 80003c4:	4413      	add	r3, r2
 80003c6:	009b      	lsls	r3, r3, #2
 80003c8:	440b      	add	r3, r1
 80003ca:	330e      	adds	r3, #14
 80003cc:	781b      	ldrb	r3, [r3, #0]
 80003ce:	733b      	strb	r3, [r7, #12]
      
      /* Build the others bytes to transmit (VALUE) */
      for (spibyte=1; spibyte<(PARAMLengthBytes+1); spibyte++)
 80003d0:	2301      	movs	r3, #1
 80003d2:	73bb      	strb	r3, [r7, #14]
 80003d4:	e016      	b.n	8000404 <L6470_PrepareDaisyChainCommand+0x14c>
      {
        *(pL6470_DaisyChainSpiTxStruct+((spibyte*L6470DAISYCHAINSIZE)+PkgId)) = (uint8_t)(((pL6470_AppCmdPkg+PkgId)->p2) >> (8*(PARAMLengthBytes-spibyte)));
 80003d6:	7bfb      	ldrb	r3, [r7, #15]
 80003d8:	011b      	lsls	r3, r3, #4
 80003da:	687a      	ldr	r2, [r7, #4]
 80003dc:	4413      	add	r3, r2
 80003de:	689a      	ldr	r2, [r3, #8]
 80003e0:	7b39      	ldrb	r1, [r7, #12]
 80003e2:	7bbb      	ldrb	r3, [r7, #14]
 80003e4:	1acb      	subs	r3, r1, r3
 80003e6:	00db      	lsls	r3, r3, #3
 80003e8:	fa22 f103 	lsr.w	r1, r2, r3
 80003ec:	7bbb      	ldrb	r3, [r7, #14]
 80003ee:	005a      	lsls	r2, r3, #1
 80003f0:	7bfb      	ldrb	r3, [r7, #15]
 80003f2:	4413      	add	r3, r2
 80003f4:	461a      	mov	r2, r3
 80003f6:	683b      	ldr	r3, [r7, #0]
 80003f8:	4413      	add	r3, r2
 80003fa:	b2ca      	uxtb	r2, r1
 80003fc:	701a      	strb	r2, [r3, #0]
      for (spibyte=1; spibyte<(PARAMLengthBytes+1); spibyte++)
 80003fe:	7bbb      	ldrb	r3, [r7, #14]
 8000400:	3301      	adds	r3, #1
 8000402:	73bb      	strb	r3, [r7, #14]
 8000404:	7b3a      	ldrb	r2, [r7, #12]
 8000406:	7bbb      	ldrb	r3, [r7, #14]
 8000408:	429a      	cmp	r2, r3
 800040a:	d2e4      	bcs.n	80003d6 <L6470_PrepareDaisyChainCommand+0x11e>
      }
      break;
 800040c:	e16d      	b.n	80006ea <L6470_PrepareDaisyChainCommand+0x432>
    case L6470_GETPARAM_ID:
      /* Build the 1st bytes to transmit (PARAM) */
      *(pL6470_DaisyChainSpiTxStruct+((0*L6470DAISYCHAINSIZE)+PkgId)) |= (L6470_Register[((pL6470_AppCmdPkg+PkgId)->p1)].Address);
 800040e:	7bfb      	ldrb	r3, [r7, #15]
 8000410:	683a      	ldr	r2, [r7, #0]
 8000412:	4413      	add	r3, r2
 8000414:	7819      	ldrb	r1, [r3, #0]
 8000416:	7bfb      	ldrb	r3, [r7, #15]
 8000418:	011b      	lsls	r3, r3, #4
 800041a:	687a      	ldr	r2, [r7, #4]
 800041c:	4413      	add	r3, r2
 800041e:	685a      	ldr	r2, [r3, #4]
 8000420:	4870      	ldr	r0, [pc, #448]	; (80005e4 <L6470_PrepareDaisyChainCommand+0x32c>)
 8000422:	4613      	mov	r3, r2
 8000424:	009b      	lsls	r3, r3, #2
 8000426:	4413      	add	r3, r2
 8000428:	009b      	lsls	r3, r3, #2
 800042a:	4403      	add	r3, r0
 800042c:	781a      	ldrb	r2, [r3, #0]
 800042e:	7bfb      	ldrb	r3, [r7, #15]
 8000430:	6838      	ldr	r0, [r7, #0]
 8000432:	4403      	add	r3, r0
 8000434:	430a      	orrs	r2, r1
 8000436:	b2d2      	uxtb	r2, r2
 8000438:	701a      	strb	r2, [r3, #0]
      break;
 800043a:	e156      	b.n	80006ea <L6470_PrepareDaisyChainCommand+0x432>
    case L6470_RUN_ID:
      /* Build the 1st bytes to transmit (DIR) */
      *(pL6470_DaisyChainSpiTxStruct+((0*L6470DAISYCHAINSIZE)+PkgId)) |= (L6470_Direction[((pL6470_AppCmdPkg+PkgId)->p1)].BinaryCode);
 800043c:	7bfb      	ldrb	r3, [r7, #15]
 800043e:	683a      	ldr	r2, [r7, #0]
 8000440:	4413      	add	r3, r2
 8000442:	7819      	ldrb	r1, [r3, #0]
 8000444:	7bfb      	ldrb	r3, [r7, #15]
 8000446:	011b      	lsls	r3, r3, #4
 8000448:	687a      	ldr	r2, [r7, #4]
 800044a:	4413      	add	r3, r2
 800044c:	685a      	ldr	r2, [r3, #4]
 800044e:	4866      	ldr	r0, [pc, #408]	; (80005e8 <L6470_PrepareDaisyChainCommand+0x330>)
 8000450:	4613      	mov	r3, r2
 8000452:	00db      	lsls	r3, r3, #3
 8000454:	4413      	add	r3, r2
 8000456:	4403      	add	r3, r0
 8000458:	3308      	adds	r3, #8
 800045a:	781a      	ldrb	r2, [r3, #0]
 800045c:	7bfb      	ldrb	r3, [r7, #15]
 800045e:	6838      	ldr	r0, [r7, #0]
 8000460:	4403      	add	r3, r0
 8000462:	430a      	orrs	r2, r1
 8000464:	b2d2      	uxtb	r2, r2
 8000466:	701a      	strb	r2, [r3, #0]
      
      /* Build the others bytes to transmit (SPD) */
      for (spibyte=1; spibyte<(3+1); spibyte++)
 8000468:	2301      	movs	r3, #1
 800046a:	73bb      	strb	r3, [r7, #14]
 800046c:	e016      	b.n	800049c <L6470_PrepareDaisyChainCommand+0x1e4>
      {
        *(pL6470_DaisyChainSpiTxStruct+((spibyte*L6470DAISYCHAINSIZE)+PkgId)) = (uint8_t)(((pL6470_AppCmdPkg+PkgId)->p2) >> (8*(3-spibyte)));
 800046e:	7bfb      	ldrb	r3, [r7, #15]
 8000470:	011b      	lsls	r3, r3, #4
 8000472:	687a      	ldr	r2, [r7, #4]
 8000474:	4413      	add	r3, r2
 8000476:	689a      	ldr	r2, [r3, #8]
 8000478:	7bbb      	ldrb	r3, [r7, #14]
 800047a:	f1c3 0303 	rsb	r3, r3, #3
 800047e:	00db      	lsls	r3, r3, #3
 8000480:	fa22 f103 	lsr.w	r1, r2, r3
 8000484:	7bbb      	ldrb	r3, [r7, #14]
 8000486:	005a      	lsls	r2, r3, #1
 8000488:	7bfb      	ldrb	r3, [r7, #15]
 800048a:	4413      	add	r3, r2
 800048c:	461a      	mov	r2, r3
 800048e:	683b      	ldr	r3, [r7, #0]
 8000490:	4413      	add	r3, r2
 8000492:	b2ca      	uxtb	r2, r1
 8000494:	701a      	strb	r2, [r3, #0]
      for (spibyte=1; spibyte<(3+1); spibyte++)
 8000496:	7bbb      	ldrb	r3, [r7, #14]
 8000498:	3301      	adds	r3, #1
 800049a:	73bb      	strb	r3, [r7, #14]
 800049c:	7bbb      	ldrb	r3, [r7, #14]
 800049e:	2b03      	cmp	r3, #3
 80004a0:	d9e5      	bls.n	800046e <L6470_PrepareDaisyChainCommand+0x1b6>
      }
      break;
 80004a2:	e122      	b.n	80006ea <L6470_PrepareDaisyChainCommand+0x432>
    case L6470_STEPCLOCK_ID:
      /* Build the 1st bytes to transmit (DIR) */
      *(pL6470_DaisyChainSpiTxStruct+((0*L6470DAISYCHAINSIZE)+PkgId)) |= (L6470_Direction[((pL6470_AppCmdPkg+PkgId)->p1)].BinaryCode);
 80004a4:	7bfb      	ldrb	r3, [r7, #15]
 80004a6:	683a      	ldr	r2, [r7, #0]
 80004a8:	4413      	add	r3, r2
 80004aa:	7819      	ldrb	r1, [r3, #0]
 80004ac:	7bfb      	ldrb	r3, [r7, #15]
 80004ae:	011b      	lsls	r3, r3, #4
 80004b0:	687a      	ldr	r2, [r7, #4]
 80004b2:	4413      	add	r3, r2
 80004b4:	685a      	ldr	r2, [r3, #4]
 80004b6:	484c      	ldr	r0, [pc, #304]	; (80005e8 <L6470_PrepareDaisyChainCommand+0x330>)
 80004b8:	4613      	mov	r3, r2
 80004ba:	00db      	lsls	r3, r3, #3
 80004bc:	4413      	add	r3, r2
 80004be:	4403      	add	r3, r0
 80004c0:	3308      	adds	r3, #8
 80004c2:	781a      	ldrb	r2, [r3, #0]
 80004c4:	7bfb      	ldrb	r3, [r7, #15]
 80004c6:	6838      	ldr	r0, [r7, #0]
 80004c8:	4403      	add	r3, r0
 80004ca:	430a      	orrs	r2, r1
 80004cc:	b2d2      	uxtb	r2, r2
 80004ce:	701a      	strb	r2, [r3, #0]
      break;
 80004d0:	e10b      	b.n	80006ea <L6470_PrepareDaisyChainCommand+0x432>
    case L6470_MOVE_ID:
      /* Build the 1st bytes to transmit (DIR) */
      *(pL6470_DaisyChainSpiTxStruct+((0*L6470DAISYCHAINSIZE)+PkgId)) |= (L6470_Direction[((pL6470_AppCmdPkg+PkgId)->p1)].BinaryCode);
 80004d2:	7bfb      	ldrb	r3, [r7, #15]
 80004d4:	683a      	ldr	r2, [r7, #0]
 80004d6:	4413      	add	r3, r2
 80004d8:	7819      	ldrb	r1, [r3, #0]
 80004da:	7bfb      	ldrb	r3, [r7, #15]
 80004dc:	011b      	lsls	r3, r3, #4
 80004de:	687a      	ldr	r2, [r7, #4]
 80004e0:	4413      	add	r3, r2
 80004e2:	685a      	ldr	r2, [r3, #4]
 80004e4:	4840      	ldr	r0, [pc, #256]	; (80005e8 <L6470_PrepareDaisyChainCommand+0x330>)
 80004e6:	4613      	mov	r3, r2
 80004e8:	00db      	lsls	r3, r3, #3
 80004ea:	4413      	add	r3, r2
 80004ec:	4403      	add	r3, r0
 80004ee:	3308      	adds	r3, #8
 80004f0:	781a      	ldrb	r2, [r3, #0]
 80004f2:	7bfb      	ldrb	r3, [r7, #15]
 80004f4:	6838      	ldr	r0, [r7, #0]
 80004f6:	4403      	add	r3, r0
 80004f8:	430a      	orrs	r2, r1
 80004fa:	b2d2      	uxtb	r2, r2
 80004fc:	701a      	strb	r2, [r3, #0]
      
      /* Build the others bytes to transmit (N_STEP) */
      for (spibyte=1; spibyte<(3+1); spibyte++)
 80004fe:	2301      	movs	r3, #1
 8000500:	73bb      	strb	r3, [r7, #14]
 8000502:	e016      	b.n	8000532 <L6470_PrepareDaisyChainCommand+0x27a>
      {
        *(pL6470_DaisyChainSpiTxStruct+((spibyte*L6470DAISYCHAINSIZE)+PkgId)) = (uint8_t)(((pL6470_AppCmdPkg+PkgId)->p2) >> (8*(3-spibyte)));
 8000504:	7bfb      	ldrb	r3, [r7, #15]
 8000506:	011b      	lsls	r3, r3, #4
 8000508:	687a      	ldr	r2, [r7, #4]
 800050a:	4413      	add	r3, r2
 800050c:	689a      	ldr	r2, [r3, #8]
 800050e:	7bbb      	ldrb	r3, [r7, #14]
 8000510:	f1c3 0303 	rsb	r3, r3, #3
 8000514:	00db      	lsls	r3, r3, #3
 8000516:	fa22 f103 	lsr.w	r1, r2, r3
 800051a:	7bbb      	ldrb	r3, [r7, #14]
 800051c:	005a      	lsls	r2, r3, #1
 800051e:	7bfb      	ldrb	r3, [r7, #15]
 8000520:	4413      	add	r3, r2
 8000522:	461a      	mov	r2, r3
 8000524:	683b      	ldr	r3, [r7, #0]
 8000526:	4413      	add	r3, r2
 8000528:	b2ca      	uxtb	r2, r1
 800052a:	701a      	strb	r2, [r3, #0]
      for (spibyte=1; spibyte<(3+1); spibyte++)
 800052c:	7bbb      	ldrb	r3, [r7, #14]
 800052e:	3301      	adds	r3, #1
 8000530:	73bb      	strb	r3, [r7, #14]
 8000532:	7bbb      	ldrb	r3, [r7, #14]
 8000534:	2b03      	cmp	r3, #3
 8000536:	d9e5      	bls.n	8000504 <L6470_PrepareDaisyChainCommand+0x24c>
      }      
      break;
 8000538:	e0d7      	b.n	80006ea <L6470_PrepareDaisyChainCommand+0x432>
    case L6470_GOTO_ID:
      /* Build the others bytes to transmit (ABS_POS) */
      for (spibyte=1; spibyte<(3+1); spibyte++)
 800053a:	2301      	movs	r3, #1
 800053c:	73bb      	strb	r3, [r7, #14]
 800053e:	e016      	b.n	800056e <L6470_PrepareDaisyChainCommand+0x2b6>
      {
        *(pL6470_DaisyChainSpiTxStruct+((spibyte*L6470DAISYCHAINSIZE)+PkgId)) = (uint8_t)(((pL6470_AppCmdPkg+PkgId)->p1) >> (8*(3-spibyte)));
 8000540:	7bfb      	ldrb	r3, [r7, #15]
 8000542:	011b      	lsls	r3, r3, #4
 8000544:	687a      	ldr	r2, [r7, #4]
 8000546:	4413      	add	r3, r2
 8000548:	685a      	ldr	r2, [r3, #4]
 800054a:	7bbb      	ldrb	r3, [r7, #14]
 800054c:	f1c3 0303 	rsb	r3, r3, #3
 8000550:	00db      	lsls	r3, r3, #3
 8000552:	fa22 f103 	lsr.w	r1, r2, r3
 8000556:	7bbb      	ldrb	r3, [r7, #14]
 8000558:	005a      	lsls	r2, r3, #1
 800055a:	7bfb      	ldrb	r3, [r7, #15]
 800055c:	4413      	add	r3, r2
 800055e:	461a      	mov	r2, r3
 8000560:	683b      	ldr	r3, [r7, #0]
 8000562:	4413      	add	r3, r2
 8000564:	b2ca      	uxtb	r2, r1
 8000566:	701a      	strb	r2, [r3, #0]
      for (spibyte=1; spibyte<(3+1); spibyte++)
 8000568:	7bbb      	ldrb	r3, [r7, #14]
 800056a:	3301      	adds	r3, #1
 800056c:	73bb      	strb	r3, [r7, #14]
 800056e:	7bbb      	ldrb	r3, [r7, #14]
 8000570:	2b03      	cmp	r3, #3
 8000572:	d9e5      	bls.n	8000540 <L6470_PrepareDaisyChainCommand+0x288>
      }
      break;
 8000574:	e0b9      	b.n	80006ea <L6470_PrepareDaisyChainCommand+0x432>
    case L6470_GOTODIR_ID:
      /* Build the 1st bytes to transmit (DIR) */
      *(pL6470_DaisyChainSpiTxStruct+((0*L6470DAISYCHAINSIZE)+PkgId)) |= (L6470_Direction[((pL6470_AppCmdPkg+PkgId)->p1)].BinaryCode);
 8000576:	7bfb      	ldrb	r3, [r7, #15]
 8000578:	683a      	ldr	r2, [r7, #0]
 800057a:	4413      	add	r3, r2
 800057c:	7819      	ldrb	r1, [r3, #0]
 800057e:	7bfb      	ldrb	r3, [r7, #15]
 8000580:	011b      	lsls	r3, r3, #4
 8000582:	687a      	ldr	r2, [r7, #4]
 8000584:	4413      	add	r3, r2
 8000586:	685a      	ldr	r2, [r3, #4]
 8000588:	4817      	ldr	r0, [pc, #92]	; (80005e8 <L6470_PrepareDaisyChainCommand+0x330>)
 800058a:	4613      	mov	r3, r2
 800058c:	00db      	lsls	r3, r3, #3
 800058e:	4413      	add	r3, r2
 8000590:	4403      	add	r3, r0
 8000592:	3308      	adds	r3, #8
 8000594:	781a      	ldrb	r2, [r3, #0]
 8000596:	7bfb      	ldrb	r3, [r7, #15]
 8000598:	6838      	ldr	r0, [r7, #0]
 800059a:	4403      	add	r3, r0
 800059c:	430a      	orrs	r2, r1
 800059e:	b2d2      	uxtb	r2, r2
 80005a0:	701a      	strb	r2, [r3, #0]
      
      /* Build the others bytes to transmit (ABS_POS) */
      for (spibyte=1; spibyte<(3+1); spibyte++)
 80005a2:	2301      	movs	r3, #1
 80005a4:	73bb      	strb	r3, [r7, #14]
 80005a6:	e016      	b.n	80005d6 <L6470_PrepareDaisyChainCommand+0x31e>
      {
        *(pL6470_DaisyChainSpiTxStruct+((spibyte*L6470DAISYCHAINSIZE)+PkgId)) = (uint8_t)(((pL6470_AppCmdPkg+PkgId)->p2) >> (8*(3-spibyte)));
 80005a8:	7bfb      	ldrb	r3, [r7, #15]
 80005aa:	011b      	lsls	r3, r3, #4
 80005ac:	687a      	ldr	r2, [r7, #4]
 80005ae:	4413      	add	r3, r2
 80005b0:	689a      	ldr	r2, [r3, #8]
 80005b2:	7bbb      	ldrb	r3, [r7, #14]
 80005b4:	f1c3 0303 	rsb	r3, r3, #3
 80005b8:	00db      	lsls	r3, r3, #3
 80005ba:	fa22 f103 	lsr.w	r1, r2, r3
 80005be:	7bbb      	ldrb	r3, [r7, #14]
 80005c0:	005a      	lsls	r2, r3, #1
 80005c2:	7bfb      	ldrb	r3, [r7, #15]
 80005c4:	4413      	add	r3, r2
 80005c6:	461a      	mov	r2, r3
 80005c8:	683b      	ldr	r3, [r7, #0]
 80005ca:	4413      	add	r3, r2
 80005cc:	b2ca      	uxtb	r2, r1
 80005ce:	701a      	strb	r2, [r3, #0]
      for (spibyte=1; spibyte<(3+1); spibyte++)
 80005d0:	7bbb      	ldrb	r3, [r7, #14]
 80005d2:	3301      	adds	r3, #1
 80005d4:	73bb      	strb	r3, [r7, #14]
 80005d6:	7bbb      	ldrb	r3, [r7, #14]
 80005d8:	2b03      	cmp	r3, #3
 80005da:	d9e5      	bls.n	80005a8 <L6470_PrepareDaisyChainCommand+0x2f0>
      }
      break;
 80005dc:	e085      	b.n	80006ea <L6470_PrepareDaisyChainCommand+0x432>
 80005de:	bf00      	nop
 80005e0:	080075a0 	.word	0x080075a0
 80005e4:	080073ac 	.word	0x080073ac
 80005e8:	080076ac 	.word	0x080076ac
    case L6470_GOUNTIL_ID:
      /* Build the 1st bytes to transmit (ACT) */
      *(pL6470_DaisyChainSpiTxStruct+((0*L6470DAISYCHAINSIZE)+PkgId)) |= ((L6470_ACT[((pL6470_AppCmdPkg+PkgId)->p1)].BinaryCode)<<3);
 80005ec:	7bfb      	ldrb	r3, [r7, #15]
 80005ee:	683a      	ldr	r2, [r7, #0]
 80005f0:	4413      	add	r3, r2
 80005f2:	781b      	ldrb	r3, [r3, #0]
 80005f4:	b259      	sxtb	r1, r3
 80005f6:	7bfb      	ldrb	r3, [r7, #15]
 80005f8:	011b      	lsls	r3, r3, #4
 80005fa:	687a      	ldr	r2, [r7, #4]
 80005fc:	4413      	add	r3, r2
 80005fe:	685a      	ldr	r2, [r3, #4]
 8000600:	4841      	ldr	r0, [pc, #260]	; (8000708 <L6470_PrepareDaisyChainCommand+0x450>)
 8000602:	4613      	mov	r3, r2
 8000604:	009b      	lsls	r3, r3, #2
 8000606:	4413      	add	r3, r2
 8000608:	4403      	add	r3, r0
 800060a:	3304      	adds	r3, #4
 800060c:	781b      	ldrb	r3, [r3, #0]
 800060e:	00db      	lsls	r3, r3, #3
 8000610:	b25b      	sxtb	r3, r3
 8000612:	430b      	orrs	r3, r1
 8000614:	b259      	sxtb	r1, r3
 8000616:	7bfb      	ldrb	r3, [r7, #15]
 8000618:	683a      	ldr	r2, [r7, #0]
 800061a:	4413      	add	r3, r2
 800061c:	b2ca      	uxtb	r2, r1
 800061e:	701a      	strb	r2, [r3, #0]
      /* Build the 1st bytes to transmit (DIR) */
      *(pL6470_DaisyChainSpiTxStruct+((0*L6470DAISYCHAINSIZE)+PkgId)) |= (L6470_Direction[((pL6470_AppCmdPkg+PkgId)->p2)].BinaryCode);
 8000620:	7bfb      	ldrb	r3, [r7, #15]
 8000622:	683a      	ldr	r2, [r7, #0]
 8000624:	4413      	add	r3, r2
 8000626:	7819      	ldrb	r1, [r3, #0]
 8000628:	7bfb      	ldrb	r3, [r7, #15]
 800062a:	011b      	lsls	r3, r3, #4
 800062c:	687a      	ldr	r2, [r7, #4]
 800062e:	4413      	add	r3, r2
 8000630:	689a      	ldr	r2, [r3, #8]
 8000632:	4836      	ldr	r0, [pc, #216]	; (800070c <L6470_PrepareDaisyChainCommand+0x454>)
 8000634:	4613      	mov	r3, r2
 8000636:	00db      	lsls	r3, r3, #3
 8000638:	4413      	add	r3, r2
 800063a:	4403      	add	r3, r0
 800063c:	3308      	adds	r3, #8
 800063e:	781a      	ldrb	r2, [r3, #0]
 8000640:	7bfb      	ldrb	r3, [r7, #15]
 8000642:	6838      	ldr	r0, [r7, #0]
 8000644:	4403      	add	r3, r0
 8000646:	430a      	orrs	r2, r1
 8000648:	b2d2      	uxtb	r2, r2
 800064a:	701a      	strb	r2, [r3, #0]
      
      /* Build the others bytes to transmit (SPD) */
      for (spibyte=1; spibyte<(3+1); spibyte++)
 800064c:	2301      	movs	r3, #1
 800064e:	73bb      	strb	r3, [r7, #14]
 8000650:	e016      	b.n	8000680 <L6470_PrepareDaisyChainCommand+0x3c8>
      {
        *(pL6470_DaisyChainSpiTxStruct+((spibyte*L6470DAISYCHAINSIZE)+PkgId)) = (uint8_t)(((pL6470_AppCmdPkg+PkgId)->p3) >> (8*(3-spibyte)));
 8000652:	7bfb      	ldrb	r3, [r7, #15]
 8000654:	011b      	lsls	r3, r3, #4
 8000656:	687a      	ldr	r2, [r7, #4]
 8000658:	4413      	add	r3, r2
 800065a:	68da      	ldr	r2, [r3, #12]
 800065c:	7bbb      	ldrb	r3, [r7, #14]
 800065e:	f1c3 0303 	rsb	r3, r3, #3
 8000662:	00db      	lsls	r3, r3, #3
 8000664:	fa22 f103 	lsr.w	r1, r2, r3
 8000668:	7bbb      	ldrb	r3, [r7, #14]
 800066a:	005a      	lsls	r2, r3, #1
 800066c:	7bfb      	ldrb	r3, [r7, #15]
 800066e:	4413      	add	r3, r2
 8000670:	461a      	mov	r2, r3
 8000672:	683b      	ldr	r3, [r7, #0]
 8000674:	4413      	add	r3, r2
 8000676:	b2ca      	uxtb	r2, r1
 8000678:	701a      	strb	r2, [r3, #0]
      for (spibyte=1; spibyte<(3+1); spibyte++)
 800067a:	7bbb      	ldrb	r3, [r7, #14]
 800067c:	3301      	adds	r3, #1
 800067e:	73bb      	strb	r3, [r7, #14]
 8000680:	7bbb      	ldrb	r3, [r7, #14]
 8000682:	2b03      	cmp	r3, #3
 8000684:	d9e5      	bls.n	8000652 <L6470_PrepareDaisyChainCommand+0x39a>
      }
      break;
 8000686:	e030      	b.n	80006ea <L6470_PrepareDaisyChainCommand+0x432>
    case L6470_RELEASESW_ID:
      /* Build the 1st bytes to transmit (ACT) */
      *(pL6470_DaisyChainSpiTxStruct+((0*L6470DAISYCHAINSIZE)+PkgId)) |= ((L6470_ACT[((pL6470_AppCmdPkg+PkgId)->p1)].BinaryCode)<<3);
 8000688:	7bfb      	ldrb	r3, [r7, #15]
 800068a:	683a      	ldr	r2, [r7, #0]
 800068c:	4413      	add	r3, r2
 800068e:	781b      	ldrb	r3, [r3, #0]
 8000690:	b259      	sxtb	r1, r3
 8000692:	7bfb      	ldrb	r3, [r7, #15]
 8000694:	011b      	lsls	r3, r3, #4
 8000696:	687a      	ldr	r2, [r7, #4]
 8000698:	4413      	add	r3, r2
 800069a:	685a      	ldr	r2, [r3, #4]
 800069c:	481a      	ldr	r0, [pc, #104]	; (8000708 <L6470_PrepareDaisyChainCommand+0x450>)
 800069e:	4613      	mov	r3, r2
 80006a0:	009b      	lsls	r3, r3, #2
 80006a2:	4413      	add	r3, r2
 80006a4:	4403      	add	r3, r0
 80006a6:	3304      	adds	r3, #4
 80006a8:	781b      	ldrb	r3, [r3, #0]
 80006aa:	00db      	lsls	r3, r3, #3
 80006ac:	b25b      	sxtb	r3, r3
 80006ae:	430b      	orrs	r3, r1
 80006b0:	b259      	sxtb	r1, r3
 80006b2:	7bfb      	ldrb	r3, [r7, #15]
 80006b4:	683a      	ldr	r2, [r7, #0]
 80006b6:	4413      	add	r3, r2
 80006b8:	b2ca      	uxtb	r2, r1
 80006ba:	701a      	strb	r2, [r3, #0]
      /* Build the 1st bytes to transmit (DIR) */
      *(pL6470_DaisyChainSpiTxStruct+((0*L6470DAISYCHAINSIZE)+PkgId)) |= (L6470_Direction[((pL6470_AppCmdPkg+PkgId)->p2)].BinaryCode);
 80006bc:	7bfb      	ldrb	r3, [r7, #15]
 80006be:	683a      	ldr	r2, [r7, #0]
 80006c0:	4413      	add	r3, r2
 80006c2:	7819      	ldrb	r1, [r3, #0]
 80006c4:	7bfb      	ldrb	r3, [r7, #15]
 80006c6:	011b      	lsls	r3, r3, #4
 80006c8:	687a      	ldr	r2, [r7, #4]
 80006ca:	4413      	add	r3, r2
 80006cc:	689a      	ldr	r2, [r3, #8]
 80006ce:	480f      	ldr	r0, [pc, #60]	; (800070c <L6470_PrepareDaisyChainCommand+0x454>)
 80006d0:	4613      	mov	r3, r2
 80006d2:	00db      	lsls	r3, r3, #3
 80006d4:	4413      	add	r3, r2
 80006d6:	4403      	add	r3, r0
 80006d8:	3308      	adds	r3, #8
 80006da:	781a      	ldrb	r2, [r3, #0]
 80006dc:	7bfb      	ldrb	r3, [r7, #15]
 80006de:	6838      	ldr	r0, [r7, #0]
 80006e0:	4403      	add	r3, r0
 80006e2:	430a      	orrs	r2, r1
 80006e4:	b2d2      	uxtb	r2, r2
 80006e6:	701a      	strb	r2, [r3, #0]
      break;
 80006e8:	bf00      	nop
  for(PkgId=0; PkgId<L6470DAISYCHAINSIZE; PkgId++)
 80006ea:	7bfb      	ldrb	r3, [r7, #15]
 80006ec:	3301      	adds	r3, #1
 80006ee:	73fb      	strb	r3, [r7, #15]
 80006f0:	7bfb      	ldrb	r3, [r7, #15]
 80006f2:	2b01      	cmp	r3, #1
 80006f4:	f67f ae04 	bls.w	8000300 <L6470_PrepareDaisyChainCommand+0x48>
      break;
    case L6470_GETSTATUS_ID:
      break;
    }
  }
}
 80006f8:	bf00      	nop
 80006fa:	bf00      	nop
 80006fc:	3714      	adds	r7, #20
 80006fe:	46bd      	mov	sp, r7
 8000700:	f85d 7b04 	ldr.w	r7, [sp], #4
 8000704:	4770      	bx	lr
 8000706:	bf00      	nop
 8000708:	080076c0 	.word	0x080076c0
 800070c:	080076ac 	.word	0x080076ac

08000710 <Step_s_2_Speed>:
  * 
  * @param  step/s      The speed as step/s.
  * @retval Speed       The SPEED register value.
  */
uint32_t Step_s_2_Speed(float Step_s)
{
 8000710:	b480      	push	{r7}
 8000712:	b083      	sub	sp, #12
 8000714:	af00      	add	r7, sp, #0
 8000716:	ed87 0a01 	vstr	s0, [r7, #4]
  if (Step_s <= (L6470_MAX_SPEED * ((float)14.9012e-3)))
 800071a:	edd7 7a01 	vldr	s15, [r7, #4]
 800071e:	ed9f 7a0c 	vldr	s14, [pc, #48]	; 8000750 <Step_s_2_Speed+0x40>
 8000722:	eef4 7ac7 	vcmpe.f32	s15, s14
 8000726:	eef1 fa10 	vmrs	APSR_nzcv, fpscr
 800072a:	d80a      	bhi.n	8000742 <Step_s_2_Speed+0x32>
    return (uint32_t)(Step_s / ((float)14.9012e-3));
 800072c:	ed97 7a01 	vldr	s14, [r7, #4]
 8000730:	eddf 6a08 	vldr	s13, [pc, #32]	; 8000754 <Step_s_2_Speed+0x44>
 8000734:	eec7 7a26 	vdiv.f32	s15, s14, s13
 8000738:	eefc 7ae7 	vcvt.u32.f32	s15, s15
 800073c:	ee17 3a90 	vmov	r3, s15
 8000740:	e000      	b.n	8000744 <Step_s_2_Speed+0x34>
  else
    return 0;   // Warning
 8000742:	2300      	movs	r3, #0
}
 8000744:	4618      	mov	r0, r3
 8000746:	370c      	adds	r7, #12
 8000748:	46bd      	mov	sp, r7
 800074a:	f85d 7b04 	ldr.w	r7, [sp], #4
 800074e:	4770      	bx	lr
 8000750:	4674241b 	.word	0x4674241b
 8000754:	3c74242a 	.word	0x3c74242a

08000758 <Step_s2_2_Acc>:
  * 
  * @param  step/(s^2)  The acceleration as step/(s^2).
  * @retval Acc         The ACC register value.
  */
uint16_t Step_s2_2_Acc(float Step_s2)
{
 8000758:	b480      	push	{r7}
 800075a:	b083      	sub	sp, #12
 800075c:	af00      	add	r7, sp, #0
 800075e:	ed87 0a01 	vstr	s0, [r7, #4]
  if (Step_s2 <= (L6470_MAX_ACC * ((float)1.4552e1)))
 8000762:	edd7 7a01 	vldr	s15, [r7, #4]
 8000766:	ed9f 7a0d 	vldr	s14, [pc, #52]	; 800079c <Step_s2_2_Acc+0x44>
 800076a:	eef4 7ac7 	vcmpe.f32	s15, s14
 800076e:	eef1 fa10 	vmrs	APSR_nzcv, fpscr
 8000772:	d80b      	bhi.n	800078c <Step_s2_2_Acc+0x34>
    return (uint16_t)(Step_s2 / ((float)1.4552e1));
 8000774:	ed97 7a01 	vldr	s14, [r7, #4]
 8000778:	eddf 6a09 	vldr	s13, [pc, #36]	; 80007a0 <Step_s2_2_Acc+0x48>
 800077c:	eec7 7a26 	vdiv.f32	s15, s14, s13
 8000780:	eefc 7ae7 	vcvt.u32.f32	s15, s15
 8000784:	ee17 3a90 	vmov	r3, s15
 8000788:	b29b      	uxth	r3, r3
 800078a:	e000      	b.n	800078e <Step_s2_2_Acc+0x36>
  else
    return 0;   // Warning
 800078c:	2300      	movs	r3, #0
}
 800078e:	4618      	mov	r0, r3
 8000790:	370c      	adds	r7, #12
 8000792:	46bd      	mov	sp, r7
 8000794:	f85d 7b04 	ldr.w	r7, [sp], #4
 8000798:	4770      	bx	lr
 800079a:	bf00      	nop
 800079c:	4768c671 	.word	0x4768c671
 80007a0:	4168d4fe 	.word	0x4168d4fe

080007a4 <Step_s2_2_Dec>:
  * 
  * @param  step/(s^2)  The deceleration as step/(s^2).
  * @retval Dec         The DEC register value.
  */
uint16_t Step_s2_2_Dec(float Step_s2)
{
 80007a4:	b480      	push	{r7}
 80007a6:	b083      	sub	sp, #12
 80007a8:	af00      	add	r7, sp, #0
 80007aa:	ed87 0a01 	vstr	s0, [r7, #4]
  if (Step_s2 <= (L6470_MAX_DEC * ((float)1.4552e1)))
 80007ae:	edd7 7a01 	vldr	s15, [r7, #4]
 80007b2:	ed9f 7a0d 	vldr	s14, [pc, #52]	; 80007e8 <Step_s2_2_Dec+0x44>
 80007b6:	eef4 7ac7 	vcmpe.f32	s15, s14
 80007ba:	eef1 fa10 	vmrs	APSR_nzcv, fpscr
 80007be:	d80b      	bhi.n	80007d8 <Step_s2_2_Dec+0x34>
    return (uint16_t)(Step_s2 / ((float)1.4552e1));
 80007c0:	ed97 7a01 	vldr	s14, [r7, #4]
 80007c4:	eddf 6a09 	vldr	s13, [pc, #36]	; 80007ec <Step_s2_2_Dec+0x48>
 80007c8:	eec7 7a26 	vdiv.f32	s15, s14, s13
 80007cc:	eefc 7ae7 	vcvt.u32.f32	s15, s15
 80007d0:	ee17 3a90 	vmov	r3, s15
 80007d4:	b29b      	uxth	r3, r3
 80007d6:	e000      	b.n	80007da <Step_s2_2_Dec+0x36>
  else
    return 0;   // Warning
 80007d8:	2300      	movs	r3, #0
}
 80007da:	4618      	mov	r0, r3
 80007dc:	370c      	adds	r7, #12
 80007de:	46bd      	mov	sp, r7
 80007e0:	f85d 7b04 	ldr.w	r7, [sp], #4
 80007e4:	4770      	bx	lr
 80007e6:	bf00      	nop
 80007e8:	4768c671 	.word	0x4768c671
 80007ec:	4168d4fe 	.word	0x4168d4fe

080007f0 <Step_s_2_MaxSpeed>:
  * 
  * @param  step/s      The max speed as step/s.
  * @retval MaxSpeed    The MAX_SPEED register value.
  */
uint16_t Step_s_2_MaxSpeed(float Step_s)
{
 80007f0:	b480      	push	{r7}
 80007f2:	b083      	sub	sp, #12
 80007f4:	af00      	add	r7, sp, #0
 80007f6:	ed87 0a01 	vstr	s0, [r7, #4]
  if (Step_s <= (L6470_MAX_MAX_SPEED * ((float)15.2588)))
 80007fa:	edd7 7a01 	vldr	s15, [r7, #4]
 80007fe:	ed9f 7a0d 	vldr	s14, [pc, #52]	; 8000834 <Step_s_2_MaxSpeed+0x44>
 8000802:	eef4 7ac7 	vcmpe.f32	s15, s14
 8000806:	eef1 fa10 	vmrs	APSR_nzcv, fpscr
 800080a:	d80b      	bhi.n	8000824 <Step_s_2_MaxSpeed+0x34>
    return (uint16_t)(Step_s / ((float)15.2588));
 800080c:	ed97 7a01 	vldr	s14, [r7, #4]
 8000810:	eddf 6a09 	vldr	s13, [pc, #36]	; 8000838 <Step_s_2_MaxSpeed+0x48>
 8000814:	eec7 7a26 	vdiv.f32	s15, s14, s13
 8000818:	eefc 7ae7 	vcvt.u32.f32	s15, s15
 800081c:	ee17 3a90 	vmov	r3, s15
 8000820:	b29b      	uxth	r3, r3
 8000822:	e000      	b.n	8000826 <Step_s_2_MaxSpeed+0x36>
  else
    return 0;   // Warning
 8000824:	2300      	movs	r3, #0
}
 8000826:	4618      	mov	r0, r3
 8000828:	370c      	adds	r7, #12
 800082a:	46bd      	mov	sp, r7
 800082c:	f85d 7b04 	ldr.w	r7, [sp], #4
 8000830:	4770      	bx	lr
 8000832:	bf00      	nop
 8000834:	4673e702 	.word	0x4673e702
 8000838:	4174240b 	.word	0x4174240b

0800083c <Step_s_2_MinSpeed>:
  * 
  * @param  step/s      The min speed as step/s.
  * @retval MinSpeed    The MIN_SPEED register value.
  */
uint16_t Step_s_2_MinSpeed(float Step_s)
{
 800083c:	b480      	push	{r7}
 800083e:	b083      	sub	sp, #12
 8000840:	af00      	add	r7, sp, #0
 8000842:	ed87 0a01 	vstr	s0, [r7, #4]
  if (Step_s <= (L6470_MAX_MIN_SPEED * ((float)238.4186e-3)))
 8000846:	edd7 7a01 	vldr	s15, [r7, #4]
 800084a:	ed9f 7a0d 	vldr	s14, [pc, #52]	; 8000880 <Step_s_2_MinSpeed+0x44>
 800084e:	eef4 7ac7 	vcmpe.f32	s15, s14
 8000852:	eef1 fa10 	vmrs	APSR_nzcv, fpscr
 8000856:	d80b      	bhi.n	8000870 <Step_s_2_MinSpeed+0x34>
    return (uint16_t)(Step_s / ((float)238.4186e-3));
 8000858:	ed97 7a01 	vldr	s14, [r7, #4]
 800085c:	eddf 6a09 	vldr	s13, [pc, #36]	; 8000884 <Step_s_2_MinSpeed+0x48>
 8000860:	eec7 7a26 	vdiv.f32	s15, s14, s13
 8000864:	eefc 7ae7 	vcvt.u32.f32	s15, s15
 8000868:	ee17 3a90 	vmov	r3, s15
 800086c:	b29b      	uxth	r3, r3
 800086e:	e000      	b.n	8000872 <Step_s_2_MinSpeed+0x36>
  else
    return 0;   // Warning
 8000870:	2300      	movs	r3, #0
}
 8000872:	4618      	mov	r0, r3
 8000874:	370c      	adds	r7, #12
 8000876:	46bd      	mov	sp, r7
 8000878:	f85d 7b04 	ldr.w	r7, [sp], #4
 800087c:	4770      	bx	lr
 800087e:	bf00      	nop
 8000880:	447414bf 	.word	0x447414bf
 8000884:	3e742401 	.word	0x3e742401

08000888 <Step_s_2_FsSpd>:
  * 
  * @param  step/s      The full-step speed as step/s.
  * @retval FsSpd       The FS_SPD register value.
  */
uint16_t Step_s_2_FsSpd(float Step_s)
{
 8000888:	b480      	push	{r7}
 800088a:	b083      	sub	sp, #12
 800088c:	af00      	add	r7, sp, #0
 800088e:	ed87 0a01 	vstr	s0, [r7, #4]
  if (Step_s <= ((L6470_MAX_FS_SPD+0.5) * ((float)15.25)))
 8000892:	edd7 7a01 	vldr	s15, [r7, #4]
 8000896:	ed9f 7a0f 	vldr	s14, [pc, #60]	; 80008d4 <Step_s_2_FsSpd+0x4c>
 800089a:	eef4 7ac7 	vcmpe.f32	s15, s14
 800089e:	eef1 fa10 	vmrs	APSR_nzcv, fpscr
 80008a2:	d80f      	bhi.n	80008c4 <Step_s_2_FsSpd+0x3c>
    return (uint16_t)((float)(Step_s / ((float)15.25)) - (float)0.5);
 80008a4:	ed97 7a01 	vldr	s14, [r7, #4]
 80008a8:	eddf 6a0b 	vldr	s13, [pc, #44]	; 80008d8 <Step_s_2_FsSpd+0x50>
 80008ac:	eec7 7a26 	vdiv.f32	s15, s14, s13
 80008b0:	eeb6 7a00 	vmov.f32	s14, #96	; 0x3f000000  0.5
 80008b4:	ee77 7ac7 	vsub.f32	s15, s15, s14
 80008b8:	eefc 7ae7 	vcvt.u32.f32	s15, s15
 80008bc:	ee17 3a90 	vmov	r3, s15
 80008c0:	b29b      	uxth	r3, r3
 80008c2:	e000      	b.n	80008c6 <Step_s_2_FsSpd+0x3e>
  else
    return 0;   // Warning
 80008c4:	2300      	movs	r3, #0
}
 80008c6:	4618      	mov	r0, r3
 80008c8:	370c      	adds	r7, #12
 80008ca:	46bd      	mov	sp, r7
 80008cc:	f85d 7b04 	ldr.w	r7, [sp], #4
 80008d0:	4770      	bx	lr
 80008d2:	bf00      	nop
 80008d4:	4673e180 	.word	0x4673e180
 80008d8:	41740000 	.word	0x41740000

080008dc <Step_s_2_IntSpeed>:
  * 
  * @param  step/s      The full-step speed as step/s.
  * @retval FsSpd       The FS_SPD register value.
  */
uint16_t Step_s_2_IntSpeed(float Step_s)
{
 80008dc:	b480      	push	{r7}
 80008de:	b083      	sub	sp, #12
 80008e0:	af00      	add	r7, sp, #0
 80008e2:	ed87 0a01 	vstr	s0, [r7, #4]
  if (Step_s <= (L6470_MAX_INT_SPEED * ((float)59.6046e-3)))
 80008e6:	edd7 7a01 	vldr	s15, [r7, #4]
 80008ea:	ed9f 7a0d 	vldr	s14, [pc, #52]	; 8000920 <Step_s_2_IntSpeed+0x44>
 80008ee:	eef4 7ac7 	vcmpe.f32	s15, s14
 80008f2:	eef1 fa10 	vmrs	APSR_nzcv, fpscr
 80008f6:	d80b      	bhi.n	8000910 <Step_s_2_IntSpeed+0x34>
    return (uint16_t)(Step_s / ((float)59.6046e-3));
 80008f8:	ed97 7a01 	vldr	s14, [r7, #4]
 80008fc:	eddf 6a09 	vldr	s13, [pc, #36]	; 8000924 <Step_s_2_IntSpeed+0x48>
 8000900:	eec7 7a26 	vdiv.f32	s15, s14, s13
 8000904:	eefc 7ae7 	vcvt.u32.f32	s15, s15
 8000908:	ee17 3a90 	vmov	r3, s15
 800090c:	b29b      	uxth	r3, r3
 800090e:	e000      	b.n	8000912 <Step_s_2_IntSpeed+0x36>
  else
    return 0;   // Warning
 8000910:	2300      	movs	r3, #0
}
 8000912:	4618      	mov	r0, r3
 8000914:	370c      	adds	r7, #12
 8000916:	46bd      	mov	sp, r7
 8000918:	f85d 7b04 	ldr.w	r7, [sp], #4
 800091c:	4770      	bx	lr
 800091e:	bf00      	nop
 8000920:	44742023 	.word	0x44742023
 8000924:	3d7423f4 	.word	0x3d7423f4

08000928 <s_Step_2_StSlp>:
  * 
  * @param  step/s      The full-step speed as step/s.
  * @retval FsSpd       The FS_SPD register value.
  */
uint8_t s_Step_2_StSlp(float s_Step)
{
 8000928:	b480      	push	{r7}
 800092a:	b083      	sub	sp, #12
 800092c:	af00      	add	r7, sp, #0
 800092e:	ed87 0a01 	vstr	s0, [r7, #4]
  if (s_Step <= (L6470_MAX_ST_SLP * ((float)1.5686e-5)))
 8000932:	edd7 7a01 	vldr	s15, [r7, #4]
 8000936:	ed9f 7a0d 	vldr	s14, [pc, #52]	; 800096c <s_Step_2_StSlp+0x44>
 800093a:	eef4 7ac7 	vcmpe.f32	s15, s14
 800093e:	eef1 fa10 	vmrs	APSR_nzcv, fpscr
 8000942:	d80c      	bhi.n	800095e <s_Step_2_StSlp+0x36>
    return (uint8_t)(s_Step / ((float)1.5686e-5));
 8000944:	ed97 7a01 	vldr	s14, [r7, #4]
 8000948:	eddf 6a09 	vldr	s13, [pc, #36]	; 8000970 <s_Step_2_StSlp+0x48>
 800094c:	eec7 7a26 	vdiv.f32	s15, s14, s13
 8000950:	eefc 7ae7 	vcvt.u32.f32	s15, s15
 8000954:	edc7 7a00 	vstr	s15, [r7]
 8000958:	683b      	ldr	r3, [r7, #0]
 800095a:	b2db      	uxtb	r3, r3
 800095c:	e000      	b.n	8000960 <s_Step_2_StSlp+0x38>
  else
    return 0;   // Warning
 800095e:	2300      	movs	r3, #0
}
 8000960:	4618      	mov	r0, r3
 8000962:	370c      	adds	r7, #12
 8000964:	46bd      	mov	sp, r7
 8000966:	f85d 7b04 	ldr.w	r7, [sp], #4
 800096a:	4770      	bx	lr
 800096c:	3b8311d9 	.word	0x3b8311d9
 8000970:	3783956e 	.word	0x3783956e

08000974 <s_Step_2_FnSlpAcc>:
  * 
  * @param  step/s      The full-step speed as step/s.
  * @retval FsSpd       The FS_SPD register value.
  */
uint8_t s_Step_2_FnSlpAcc(float s_Step)
{
 8000974:	b480      	push	{r7}
 8000976:	b083      	sub	sp, #12
 8000978:	af00      	add	r7, sp, #0
 800097a:	ed87 0a01 	vstr	s0, [r7, #4]
  if (s_Step <= (L6470_MAX_FN_SLP_ACC * ((float)1.5686e-5)))
 800097e:	edd7 7a01 	vldr	s15, [r7, #4]
 8000982:	ed9f 7a0d 	vldr	s14, [pc, #52]	; 80009b8 <s_Step_2_FnSlpAcc+0x44>
 8000986:	eef4 7ac7 	vcmpe.f32	s15, s14
 800098a:	eef1 fa10 	vmrs	APSR_nzcv, fpscr
 800098e:	d80c      	bhi.n	80009aa <s_Step_2_FnSlpAcc+0x36>
    return (uint8_t)(s_Step / ((float)1.5686e-5));
 8000990:	ed97 7a01 	vldr	s14, [r7, #4]
 8000994:	eddf 6a09 	vldr	s13, [pc, #36]	; 80009bc <s_Step_2_FnSlpAcc+0x48>
 8000998:	eec7 7a26 	vdiv.f32	s15, s14, s13
 800099c:	eefc 7ae7 	vcvt.u32.f32	s15, s15
 80009a0:	edc7 7a00 	vstr	s15, [r7]
 80009a4:	683b      	ldr	r3, [r7, #0]
 80009a6:	b2db      	uxtb	r3, r3
 80009a8:	e000      	b.n	80009ac <s_Step_2_FnSlpAcc+0x38>
  else
    return 0;   // Warning
 80009aa:	2300      	movs	r3, #0
}
 80009ac:	4618      	mov	r0, r3
 80009ae:	370c      	adds	r7, #12
 80009b0:	46bd      	mov	sp, r7
 80009b2:	f85d 7b04 	ldr.w	r7, [sp], #4
 80009b6:	4770      	bx	lr
 80009b8:	3b8311d9 	.word	0x3b8311d9
 80009bc:	3783956e 	.word	0x3783956e

080009c0 <s_Step_2_FnSlpDec>:
  * 
  * @param  step/s      The full-step speed as step/s.
  * @retval FsSpd       The FS_SPD register value.
  */
uint8_t s_Step_2_FnSlpDec(float s_Step)
{
 80009c0:	b480      	push	{r7}
 80009c2:	b083      	sub	sp, #12
 80009c4:	af00      	add	r7, sp, #0
 80009c6:	ed87 0a01 	vstr	s0, [r7, #4]
  if (s_Step <= (L6470_MAX_FN_SLP_DEC * ((float)1.5686e-5)))
 80009ca:	edd7 7a01 	vldr	s15, [r7, #4]
 80009ce:	ed9f 7a0d 	vldr	s14, [pc, #52]	; 8000a04 <s_Step_2_FnSlpDec+0x44>
 80009d2:	eef4 7ac7 	vcmpe.f32	s15, s14
 80009d6:	eef1 fa10 	vmrs	APSR_nzcv, fpscr
 80009da:	d80c      	bhi.n	80009f6 <s_Step_2_FnSlpDec+0x36>
    return (uint8_t)(s_Step / ((float)1.5686e-5));
 80009dc:	ed97 7a01 	vldr	s14, [r7, #4]
 80009e0:	eddf 6a09 	vldr	s13, [pc, #36]	; 8000a08 <s_Step_2_FnSlpDec+0x48>
 80009e4:	eec7 7a26 	vdiv.f32	s15, s14, s13
 80009e8:	eefc 7ae7 	vcvt.u32.f32	s15, s15
 80009ec:	edc7 7a00 	vstr	s15, [r7]
 80009f0:	683b      	ldr	r3, [r7, #0]
 80009f2:	b2db      	uxtb	r3, r3
 80009f4:	e000      	b.n	80009f8 <s_Step_2_FnSlpDec+0x38>
  else
    return 0;   // Warning
 80009f6:	2300      	movs	r3, #0
}
 80009f8:	4618      	mov	r0, r3
 80009fa:	370c      	adds	r7, #12
 80009fc:	46bd      	mov	sp, r7
 80009fe:	f85d 7b04 	ldr.w	r7, [sp], #4
 8000a02:	4770      	bx	lr
 8000a04:	3b8311d9 	.word	0x3b8311d9
 8000a08:	3783956e 	.word	0x3783956e

08000a0c <mA_2_OcdTh>:
  * 
  * @param  mA          The overcurrent threshold as mA.
  * @retval OcdTh       The OCD_TH register value.
  */
uint8_t mA_2_OcdTh(float mA)
{
 8000a0c:	b480      	push	{r7}
 8000a0e:	b085      	sub	sp, #20
 8000a10:	af00      	add	r7, sp, #0
 8000a12:	ed87 0a01 	vstr	s0, [r7, #4]
  float result, decimal;
  
  if (mA <= ((L6470_MAX_OCD_TH+1) * ((float)375)))
 8000a16:	edd7 7a01 	vldr	s15, [r7, #4]
 8000a1a:	ed9f 7a22 	vldr	s14, [pc, #136]	; 8000aa4 <mA_2_OcdTh+0x98>
 8000a1e:	eef4 7ac7 	vcmpe.f32	s15, s14
 8000a22:	eef1 fa10 	vmrs	APSR_nzcv, fpscr
 8000a26:	d836      	bhi.n	8000a96 <mA_2_OcdTh+0x8a>
  {
    result = (mA / ((float)375));
 8000a28:	ed97 7a01 	vldr	s14, [r7, #4]
 8000a2c:	eddf 6a1e 	vldr	s13, [pc, #120]	; 8000aa8 <mA_2_OcdTh+0x9c>
 8000a30:	eec7 7a26 	vdiv.f32	s15, s14, s13
 8000a34:	edc7 7a03 	vstr	s15, [r7, #12]
    decimal = result - (uint8_t)result;
 8000a38:	edd7 7a03 	vldr	s15, [r7, #12]
 8000a3c:	eefc 7ae7 	vcvt.u32.f32	s15, s15
 8000a40:	edc7 7a00 	vstr	s15, [r7]
 8000a44:	683b      	ldr	r3, [r7, #0]
 8000a46:	b2db      	uxtb	r3, r3
 8000a48:	ee07 3a90 	vmov	s15, r3
 8000a4c:	eef8 7ae7 	vcvt.f32.s32	s15, s15
 8000a50:	ed97 7a03 	vldr	s14, [r7, #12]
 8000a54:	ee77 7a67 	vsub.f32	s15, s14, s15
 8000a58:	edc7 7a02 	vstr	s15, [r7, #8]
    
    if (decimal < (float)0.5)
 8000a5c:	edd7 7a02 	vldr	s15, [r7, #8]
 8000a60:	eeb6 7a00 	vmov.f32	s14, #96	; 0x3f000000  0.5
 8000a64:	eef4 7ac7 	vcmpe.f32	s15, s14
 8000a68:	eef1 fa10 	vmrs	APSR_nzcv, fpscr
 8000a6c:	d50a      	bpl.n	8000a84 <mA_2_OcdTh+0x78>
      return ((uint8_t)result - 1);
 8000a6e:	edd7 7a03 	vldr	s15, [r7, #12]
 8000a72:	eefc 7ae7 	vcvt.u32.f32	s15, s15
 8000a76:	edc7 7a00 	vstr	s15, [r7]
 8000a7a:	683b      	ldr	r3, [r7, #0]
 8000a7c:	b2db      	uxtb	r3, r3
 8000a7e:	3b01      	subs	r3, #1
 8000a80:	b2db      	uxtb	r3, r3
 8000a82:	e009      	b.n	8000a98 <mA_2_OcdTh+0x8c>
    else
      return ((uint8_t)result);    
 8000a84:	edd7 7a03 	vldr	s15, [r7, #12]
 8000a88:	eefc 7ae7 	vcvt.u32.f32	s15, s15
 8000a8c:	edc7 7a00 	vstr	s15, [r7]
 8000a90:	683b      	ldr	r3, [r7, #0]
 8000a92:	b2db      	uxtb	r3, r3
 8000a94:	e000      	b.n	8000a98 <mA_2_OcdTh+0x8c>
  }
  else
    return 0;   // Warning
 8000a96:	2300      	movs	r3, #0
}
 8000a98:	4618      	mov	r0, r3
 8000a9a:	3714      	adds	r7, #20
 8000a9c:	46bd      	mov	sp, r7
 8000a9e:	f85d 7b04 	ldr.w	r7, [sp], #4
 8000aa2:	4770      	bx	lr
 8000aa4:	45bb8000 	.word	0x45bb8000
 8000aa8:	43bb8000 	.word	0x43bb8000

08000aac <mA_2_StallTh>:
  * 
  * @param  mA          The stall detection threshold as mA.
  * @retval StallTh     The STALL_TH register value.
  */
uint8_t mA_2_StallTh(float mA)
{
 8000aac:	b480      	push	{r7}
 8000aae:	b085      	sub	sp, #20
 8000ab0:	af00      	add	r7, sp, #0
 8000ab2:	ed87 0a01 	vstr	s0, [r7, #4]
  float result, decimal;
  
  if (mA <= ((L6470_MAX_STALL_TH+1) * ((float)31.25)))
 8000ab6:	edd7 7a01 	vldr	s15, [r7, #4]
 8000aba:	ed9f 7a22 	vldr	s14, [pc, #136]	; 8000b44 <mA_2_StallTh+0x98>
 8000abe:	eef4 7ac7 	vcmpe.f32	s15, s14
 8000ac2:	eef1 fa10 	vmrs	APSR_nzcv, fpscr
 8000ac6:	d836      	bhi.n	8000b36 <mA_2_StallTh+0x8a>
  {
    result = (mA / ((float)31.25));
 8000ac8:	ed97 7a01 	vldr	s14, [r7, #4]
 8000acc:	eddf 6a1e 	vldr	s13, [pc, #120]	; 8000b48 <mA_2_StallTh+0x9c>
 8000ad0:	eec7 7a26 	vdiv.f32	s15, s14, s13
 8000ad4:	edc7 7a03 	vstr	s15, [r7, #12]
    decimal = result - (uint8_t)result;
 8000ad8:	edd7 7a03 	vldr	s15, [r7, #12]
 8000adc:	eefc 7ae7 	vcvt.u32.f32	s15, s15
 8000ae0:	edc7 7a00 	vstr	s15, [r7]
 8000ae4:	683b      	ldr	r3, [r7, #0]
 8000ae6:	b2db      	uxtb	r3, r3
 8000ae8:	ee07 3a90 	vmov	s15, r3
 8000aec:	eef8 7ae7 	vcvt.f32.s32	s15, s15
 8000af0:	ed97 7a03 	vldr	s14, [r7, #12]
 8000af4:	ee77 7a67 	vsub.f32	s15, s14, s15
 8000af8:	edc7 7a02 	vstr	s15, [r7, #8]
    
    if (decimal < (float)0.5)
 8000afc:	edd7 7a02 	vldr	s15, [r7, #8]
 8000b00:	eeb6 7a00 	vmov.f32	s14, #96	; 0x3f000000  0.5
 8000b04:	eef4 7ac7 	vcmpe.f32	s15, s14
 8000b08:	eef1 fa10 	vmrs	APSR_nzcv, fpscr
 8000b0c:	d50a      	bpl.n	8000b24 <mA_2_StallTh+0x78>
      return ((uint8_t)result - 1);
 8000b0e:	edd7 7a03 	vldr	s15, [r7, #12]
 8000b12:	eefc 7ae7 	vcvt.u32.f32	s15, s15
 8000b16:	edc7 7a00 	vstr	s15, [r7]
 8000b1a:	683b      	ldr	r3, [r7, #0]
 8000b1c:	b2db      	uxtb	r3, r3
 8000b1e:	3b01      	subs	r3, #1
 8000b20:	b2db      	uxtb	r3, r3
 8000b22:	e009      	b.n	8000b38 <mA_2_StallTh+0x8c>
    else
      return ((uint8_t)result);    
 8000b24:	edd7 7a03 	vldr	s15, [r7, #12]
 8000b28:	eefc 7ae7 	vcvt.u32.f32	s15, s15
 8000b2c:	edc7 7a00 	vstr	s15, [r7]
 8000b30:	683b      	ldr	r3, [r7, #0]
 8000b32:	b2db      	uxtb	r3, r3
 8000b34:	e000      	b.n	8000b38 <mA_2_StallTh+0x8c>
  }
  else
    return 0;   // Warning
 8000b36:	2300      	movs	r3, #0
}
 8000b38:	4618      	mov	r0, r3
 8000b3a:	3714      	adds	r7, #20
 8000b3c:	46bd      	mov	sp, r7
 8000b3e:	f85d 7b04 	ldr.w	r7, [sp], #4
 8000b42:	4770      	bx	lr
 8000b44:	457a0000 	.word	0x457a0000
 8000b48:	41fa0000 	.word	0x41fa0000

08000b4c <L6470_SetParam>:
  * @param  L6470_Id      The identifier of the L6470 target inside the daisy chain.
  * @param  L6470_RegId   The identifier of the L6470 register to be addressed.
  * @param  Value         The new value.
  */
void L6470_SetParam(uint8_t L6470_Id, eL6470_RegId_t L6470_RegId, uint32_t Value)
{
 8000b4c:	b580      	push	{r7, lr}
 8000b4e:	b084      	sub	sp, #16
 8000b50:	af02      	add	r7, sp, #8
 8000b52:	4603      	mov	r3, r0
 8000b54:	603a      	str	r2, [r7, #0]
 8000b56:	71fb      	strb	r3, [r7, #7]
 8000b58:	460b      	mov	r3, r1
 8000b5a:	71bb      	strb	r3, [r7, #6]
  L6470_PrepareAppCmdPkg(L6470_Id, L6470_AppCmdPkg, L6470_SETPARAM_ID, L6470_RegId, Value, 0);
 8000b5c:	79ba      	ldrb	r2, [r7, #6]
 8000b5e:	79f8      	ldrb	r0, [r7, #7]
 8000b60:	2300      	movs	r3, #0
 8000b62:	9301      	str	r3, [sp, #4]
 8000b64:	683b      	ldr	r3, [r7, #0]
 8000b66:	9300      	str	r3, [sp, #0]
 8000b68:	4613      	mov	r3, r2
 8000b6a:	2201      	movs	r2, #1
 8000b6c:	4907      	ldr	r1, [pc, #28]	; (8000b8c <L6470_SetParam+0x40>)
 8000b6e:	f7ff fb7f 	bl	8000270 <L6470_PrepareAppCmdPkg>
  L6470_PrepareDaisyChainCommand(L6470_AppCmdPkg, (uint8_t*)L6470_DaisyChainSpiTxStruct);
 8000b72:	4907      	ldr	r1, [pc, #28]	; (8000b90 <L6470_SetParam+0x44>)
 8000b74:	4805      	ldr	r0, [pc, #20]	; (8000b8c <L6470_SetParam+0x40>)
 8000b76:	f7ff fb9f 	bl	80002b8 <L6470_PrepareDaisyChainCommand>
  L6470_DaisyChainCommand((uint8_t*)L6470_DaisyChainSpiTxStruct, (uint8_t*)L6470_DaisyChainSpiRxStruct);
 8000b7a:	4906      	ldr	r1, [pc, #24]	; (8000b94 <L6470_SetParam+0x48>)
 8000b7c:	4804      	ldr	r0, [pc, #16]	; (8000b90 <L6470_SetParam+0x44>)
 8000b7e:	f000 fc61 	bl	8001444 <L6470_DaisyChainCommand>
}
 8000b82:	bf00      	nop
 8000b84:	3708      	adds	r7, #8
 8000b86:	46bd      	mov	sp, r7
 8000b88:	bd80      	pop	{r7, pc}
 8000b8a:	bf00      	nop
 8000b8c:	20000388 	.word	0x20000388
 8000b90:	20000380 	.word	0x20000380
 8000b94:	20000378 	.word	0x20000378

08000b98 <L6470_GetParam>:
  * @param  L6470_RegId   The identifier of the L6470 register to be addressed.
  * 
  * @retval ReceivedValue The register value.
  */
uint32_t L6470_GetParam(uint8_t L6470_Id, eL6470_RegId_t L6470_RegId)
{
 8000b98:	b580      	push	{r7, lr}
 8000b9a:	b086      	sub	sp, #24
 8000b9c:	af02      	add	r7, sp, #8
 8000b9e:	4603      	mov	r3, r0
 8000ba0:	460a      	mov	r2, r1
 8000ba2:	71fb      	strb	r3, [r7, #7]
 8000ba4:	4613      	mov	r3, r2
 8000ba6:	71bb      	strb	r3, [r7, #6]
  uint8_t ValueLengthByte;
  uint32_t ReceivedValue;

  L6470_PrepareAppCmdPkg(L6470_Id, L6470_AppCmdPkg, L6470_GETPARAM_ID, L6470_RegId, 0, 0);
 8000ba8:	79bb      	ldrb	r3, [r7, #6]
 8000baa:	79f8      	ldrb	r0, [r7, #7]
 8000bac:	2200      	movs	r2, #0
 8000bae:	9201      	str	r2, [sp, #4]
 8000bb0:	2200      	movs	r2, #0
 8000bb2:	9200      	str	r2, [sp, #0]
 8000bb4:	2202      	movs	r2, #2
 8000bb6:	4910      	ldr	r1, [pc, #64]	; (8000bf8 <L6470_GetParam+0x60>)
 8000bb8:	f7ff fb5a 	bl	8000270 <L6470_PrepareAppCmdPkg>
  L6470_PrepareDaisyChainCommand(L6470_AppCmdPkg, (uint8_t*)L6470_DaisyChainSpiTxStruct);
 8000bbc:	490f      	ldr	r1, [pc, #60]	; (8000bfc <L6470_GetParam+0x64>)
 8000bbe:	480e      	ldr	r0, [pc, #56]	; (8000bf8 <L6470_GetParam+0x60>)
 8000bc0:	f7ff fb7a 	bl	80002b8 <L6470_PrepareDaisyChainCommand>
  L6470_DaisyChainCommand((uint8_t*)L6470_DaisyChainSpiTxStruct, (uint8_t*)L6470_DaisyChainSpiRxStruct);
 8000bc4:	490e      	ldr	r1, [pc, #56]	; (8000c00 <L6470_GetParam+0x68>)
 8000bc6:	480d      	ldr	r0, [pc, #52]	; (8000bfc <L6470_GetParam+0x64>)
 8000bc8:	f000 fc3c 	bl	8001444 <L6470_DaisyChainCommand>
  
  ValueLengthByte = L6470_Register[L6470_RegId].LengthByte;
 8000bcc:	79ba      	ldrb	r2, [r7, #6]
 8000bce:	490d      	ldr	r1, [pc, #52]	; (8000c04 <L6470_GetParam+0x6c>)
 8000bd0:	4613      	mov	r3, r2
 8000bd2:	009b      	lsls	r3, r3, #2
 8000bd4:	4413      	add	r3, r2
 8000bd6:	009b      	lsls	r3, r3, #2
 8000bd8:	440b      	add	r3, r1
 8000bda:	330e      	adds	r3, #14
 8000bdc:	781b      	ldrb	r3, [r3, #0]
 8000bde:	73fb      	strb	r3, [r7, #15]
  
  ReceivedValue = L6470_ExtractReturnedData(L6470_Id, (uint8_t*)L6470_DaisyChainSpiRxStruct, ValueLengthByte);
 8000be0:	7bfa      	ldrb	r2, [r7, #15]
 8000be2:	79fb      	ldrb	r3, [r7, #7]
 8000be4:	4906      	ldr	r1, [pc, #24]	; (8000c00 <L6470_GetParam+0x68>)
 8000be6:	4618      	mov	r0, r3
 8000be8:	f000 fc7a 	bl	80014e0 <L6470_ExtractReturnedData>
 8000bec:	60b8      	str	r0, [r7, #8]
  
  return ReceivedValue;
 8000bee:	68bb      	ldr	r3, [r7, #8]
}
 8000bf0:	4618      	mov	r0, r3
 8000bf2:	3710      	adds	r7, #16
 8000bf4:	46bd      	mov	sp, r7
 8000bf6:	bd80      	pop	{r7, pc}
 8000bf8:	20000388 	.word	0x20000388
 8000bfc:	20000380 	.word	0x20000380
 8000c00:	20000378 	.word	0x20000378
 8000c04:	080073ac 	.word	0x080073ac

08000c08 <L6470_Run>:
  * @param  L6470_Id      The identifier of the L6470 target inside the daisy chain.
  * @param  L6470_DirId   The identifier of the L6470 motion direction.
  * @param  Speed         The speed value as (([step/s] * 250e-9) / 2^-28)
  */
void L6470_Run(uint8_t L6470_Id, eL6470_DirId_t L6470_DirId, uint32_t Speed)
{
 8000c08:	b580      	push	{r7, lr}
 8000c0a:	b084      	sub	sp, #16
 8000c0c:	af02      	add	r7, sp, #8
 8000c0e:	4603      	mov	r3, r0
 8000c10:	603a      	str	r2, [r7, #0]
 8000c12:	71fb      	strb	r3, [r7, #7]
 8000c14:	460b      	mov	r3, r1
 8000c16:	71bb      	strb	r3, [r7, #6]
  L6470_PrepareAppCmdPkg(L6470_Id, L6470_AppCmdPkg, L6470_RUN_ID, L6470_DirId, Speed, 0);
 8000c18:	79ba      	ldrb	r2, [r7, #6]
 8000c1a:	79f8      	ldrb	r0, [r7, #7]
 8000c1c:	2300      	movs	r3, #0
 8000c1e:	9301      	str	r3, [sp, #4]
 8000c20:	683b      	ldr	r3, [r7, #0]
 8000c22:	9300      	str	r3, [sp, #0]
 8000c24:	4613      	mov	r3, r2
 8000c26:	2203      	movs	r2, #3
 8000c28:	4907      	ldr	r1, [pc, #28]	; (8000c48 <L6470_Run+0x40>)
 8000c2a:	f7ff fb21 	bl	8000270 <L6470_PrepareAppCmdPkg>
  L6470_PrepareDaisyChainCommand(L6470_AppCmdPkg, (uint8_t*)L6470_DaisyChainSpiTxStruct);
 8000c2e:	4907      	ldr	r1, [pc, #28]	; (8000c4c <L6470_Run+0x44>)
 8000c30:	4805      	ldr	r0, [pc, #20]	; (8000c48 <L6470_Run+0x40>)
 8000c32:	f7ff fb41 	bl	80002b8 <L6470_PrepareDaisyChainCommand>
  L6470_DaisyChainCommand((uint8_t*)L6470_DaisyChainSpiTxStruct, (uint8_t*)L6470_DaisyChainSpiRxStruct);
 8000c36:	4906      	ldr	r1, [pc, #24]	; (8000c50 <L6470_Run+0x48>)
 8000c38:	4804      	ldr	r0, [pc, #16]	; (8000c4c <L6470_Run+0x44>)
 8000c3a:	f000 fc03 	bl	8001444 <L6470_DaisyChainCommand>
}
 8000c3e:	bf00      	nop
 8000c40:	3708      	adds	r7, #8
 8000c42:	46bd      	mov	sp, r7
 8000c44:	bd80      	pop	{r7, pc}
 8000c46:	bf00      	nop
 8000c48:	20000388 	.word	0x20000388
 8000c4c:	20000380 	.word	0x20000380
 8000c50:	20000378 	.word	0x20000378

08000c54 <L6470_StepClock>:
  * 
  * @param  L6470_Id      The identifier of the L6470 target inside the daisy chain.
  * @param  L6470_DirId   The identifier of the L6470 motion direction.
  */
void L6470_StepClock(uint8_t L6470_Id, eL6470_DirId_t L6470_DirId)
{
 8000c54:	b580      	push	{r7, lr}
 8000c56:	b084      	sub	sp, #16
 8000c58:	af02      	add	r7, sp, #8
 8000c5a:	4603      	mov	r3, r0
 8000c5c:	460a      	mov	r2, r1
 8000c5e:	71fb      	strb	r3, [r7, #7]
 8000c60:	4613      	mov	r3, r2
 8000c62:	71bb      	strb	r3, [r7, #6]
  L6470_PrepareAppCmdPkg(L6470_Id, L6470_AppCmdPkg, L6470_STEPCLOCK_ID, L6470_DirId, 0, 0);
 8000c64:	79bb      	ldrb	r3, [r7, #6]
 8000c66:	79f8      	ldrb	r0, [r7, #7]
 8000c68:	2200      	movs	r2, #0
 8000c6a:	9201      	str	r2, [sp, #4]
 8000c6c:	2200      	movs	r2, #0
 8000c6e:	9200      	str	r2, [sp, #0]
 8000c70:	2204      	movs	r2, #4
 8000c72:	4907      	ldr	r1, [pc, #28]	; (8000c90 <L6470_StepClock+0x3c>)
 8000c74:	f7ff fafc 	bl	8000270 <L6470_PrepareAppCmdPkg>
  L6470_PrepareDaisyChainCommand(L6470_AppCmdPkg, (uint8_t*)L6470_DaisyChainSpiTxStruct);
 8000c78:	4906      	ldr	r1, [pc, #24]	; (8000c94 <L6470_StepClock+0x40>)
 8000c7a:	4805      	ldr	r0, [pc, #20]	; (8000c90 <L6470_StepClock+0x3c>)
 8000c7c:	f7ff fb1c 	bl	80002b8 <L6470_PrepareDaisyChainCommand>
  L6470_DaisyChainCommand((uint8_t*)L6470_DaisyChainSpiTxStruct, (uint8_t*)L6470_DaisyChainSpiRxStruct);
 8000c80:	4905      	ldr	r1, [pc, #20]	; (8000c98 <L6470_StepClock+0x44>)
 8000c82:	4804      	ldr	r0, [pc, #16]	; (8000c94 <L6470_StepClock+0x40>)
 8000c84:	f000 fbde 	bl	8001444 <L6470_DaisyChainCommand>
}
 8000c88:	bf00      	nop
 8000c8a:	3708      	adds	r7, #8
 8000c8c:	46bd      	mov	sp, r7
 8000c8e:	bd80      	pop	{r7, pc}
 8000c90:	20000388 	.word	0x20000388
 8000c94:	20000380 	.word	0x20000380
 8000c98:	20000378 	.word	0x20000378

08000c9c <L6470_Move>:
  * @param  L6470_Id      The identifier of the L6470 target inside the daisy chain.
  * @param  L6470_DirId   The identifier of the L6470 motion direction.
  * @param  N_Step        The number of microsteps.
  */
void L6470_Move(uint8_t L6470_Id, eL6470_DirId_t L6470_DirId, uint32_t N_Step)
{
 8000c9c:	b580      	push	{r7, lr}
 8000c9e:	b084      	sub	sp, #16
 8000ca0:	af02      	add	r7, sp, #8
 8000ca2:	4603      	mov	r3, r0
 8000ca4:	603a      	str	r2, [r7, #0]
 8000ca6:	71fb      	strb	r3, [r7, #7]
 8000ca8:	460b      	mov	r3, r1
 8000caa:	71bb      	strb	r3, [r7, #6]
  L6470_PrepareAppCmdPkg(L6470_Id, L6470_AppCmdPkg, L6470_MOVE_ID, L6470_DirId, N_Step, 0);
 8000cac:	79ba      	ldrb	r2, [r7, #6]
 8000cae:	79f8      	ldrb	r0, [r7, #7]
 8000cb0:	2300      	movs	r3, #0
 8000cb2:	9301      	str	r3, [sp, #4]
 8000cb4:	683b      	ldr	r3, [r7, #0]
 8000cb6:	9300      	str	r3, [sp, #0]
 8000cb8:	4613      	mov	r3, r2
 8000cba:	2205      	movs	r2, #5
 8000cbc:	4907      	ldr	r1, [pc, #28]	; (8000cdc <L6470_Move+0x40>)
 8000cbe:	f7ff fad7 	bl	8000270 <L6470_PrepareAppCmdPkg>
  L6470_PrepareDaisyChainCommand(L6470_AppCmdPkg, (uint8_t*)L6470_DaisyChainSpiTxStruct);
 8000cc2:	4907      	ldr	r1, [pc, #28]	; (8000ce0 <L6470_Move+0x44>)
 8000cc4:	4805      	ldr	r0, [pc, #20]	; (8000cdc <L6470_Move+0x40>)
 8000cc6:	f7ff faf7 	bl	80002b8 <L6470_PrepareDaisyChainCommand>
  L6470_DaisyChainCommand((uint8_t*)L6470_DaisyChainSpiTxStruct, (uint8_t*)L6470_DaisyChainSpiRxStruct);
 8000cca:	4906      	ldr	r1, [pc, #24]	; (8000ce4 <L6470_Move+0x48>)
 8000ccc:	4804      	ldr	r0, [pc, #16]	; (8000ce0 <L6470_Move+0x44>)
 8000cce:	f000 fbb9 	bl	8001444 <L6470_DaisyChainCommand>
}
 8000cd2:	bf00      	nop
 8000cd4:	3708      	adds	r7, #8
 8000cd6:	46bd      	mov	sp, r7
 8000cd8:	bd80      	pop	{r7, pc}
 8000cda:	bf00      	nop
 8000cdc:	20000388 	.word	0x20000388
 8000ce0:	20000380 	.word	0x20000380
 8000ce4:	20000378 	.word	0x20000378

08000ce8 <L6470_GoTo>:
  * 
  * @param  L6470_Id      The identifier of the L6470 target inside the daisy chain.
  * @param  AbsPos        The target absolute position.
  */
void L6470_GoTo(uint8_t L6470_Id, uint32_t AbsPos)
{
 8000ce8:	b580      	push	{r7, lr}
 8000cea:	b084      	sub	sp, #16
 8000cec:	af02      	add	r7, sp, #8
 8000cee:	4603      	mov	r3, r0
 8000cf0:	6039      	str	r1, [r7, #0]
 8000cf2:	71fb      	strb	r3, [r7, #7]
  if (AbsPos <= L6470_POSITION_RANGE)
 8000cf4:	683b      	ldr	r3, [r7, #0]
 8000cf6:	f5b3 0f80 	cmp.w	r3, #4194304	; 0x400000
 8000cfa:	d211      	bcs.n	8000d20 <L6470_GoTo+0x38>
  {
    L6470_PrepareAppCmdPkg(L6470_Id, L6470_AppCmdPkg, L6470_GOTO_ID, AbsPos, 0, 0);
 8000cfc:	79f8      	ldrb	r0, [r7, #7]
 8000cfe:	2300      	movs	r3, #0
 8000d00:	9301      	str	r3, [sp, #4]
 8000d02:	2300      	movs	r3, #0
 8000d04:	9300      	str	r3, [sp, #0]
 8000d06:	683b      	ldr	r3, [r7, #0]
 8000d08:	2206      	movs	r2, #6
 8000d0a:	4907      	ldr	r1, [pc, #28]	; (8000d28 <L6470_GoTo+0x40>)
 8000d0c:	f7ff fab0 	bl	8000270 <L6470_PrepareAppCmdPkg>
    L6470_PrepareDaisyChainCommand(L6470_AppCmdPkg, (uint8_t*)L6470_DaisyChainSpiTxStruct);
 8000d10:	4906      	ldr	r1, [pc, #24]	; (8000d2c <L6470_GoTo+0x44>)
 8000d12:	4805      	ldr	r0, [pc, #20]	; (8000d28 <L6470_GoTo+0x40>)
 8000d14:	f7ff fad0 	bl	80002b8 <L6470_PrepareDaisyChainCommand>
    L6470_DaisyChainCommand((uint8_t*)L6470_DaisyChainSpiTxStruct, (uint8_t*)L6470_DaisyChainSpiRxStruct);
 8000d18:	4905      	ldr	r1, [pc, #20]	; (8000d30 <L6470_GoTo+0x48>)
 8000d1a:	4804      	ldr	r0, [pc, #16]	; (8000d2c <L6470_GoTo+0x44>)
 8000d1c:	f000 fb92 	bl	8001444 <L6470_DaisyChainCommand>
  }
}
 8000d20:	bf00      	nop
 8000d22:	3708      	adds	r7, #8
 8000d24:	46bd      	mov	sp, r7
 8000d26:	bd80      	pop	{r7, pc}
 8000d28:	20000388 	.word	0x20000388
 8000d2c:	20000380 	.word	0x20000380
 8000d30:	20000378 	.word	0x20000378

08000d34 <L6470_GoToDir>:
  * @param  L6470_Id      The identifier of the L6470 target inside the daisy chain.
  * @param  L6470_DirId   The identifier of the L6470 motion direction.
  * @param  AbsPos        The target absolute position.
  */
void L6470_GoToDir(uint8_t L6470_Id, eL6470_DirId_t L6470_DirId, uint32_t AbsPos)
{
 8000d34:	b580      	push	{r7, lr}
 8000d36:	b084      	sub	sp, #16
 8000d38:	af02      	add	r7, sp, #8
 8000d3a:	4603      	mov	r3, r0
 8000d3c:	603a      	str	r2, [r7, #0]
 8000d3e:	71fb      	strb	r3, [r7, #7]
 8000d40:	460b      	mov	r3, r1
 8000d42:	71bb      	strb	r3, [r7, #6]
  if (AbsPos <= L6470_POSITION_RANGE)
 8000d44:	683b      	ldr	r3, [r7, #0]
 8000d46:	f5b3 0f80 	cmp.w	r3, #4194304	; 0x400000
 8000d4a:	d212      	bcs.n	8000d72 <L6470_GoToDir+0x3e>
  {
    L6470_PrepareAppCmdPkg(L6470_Id, L6470_AppCmdPkg, L6470_GOTODIR_ID, L6470_DirId, AbsPos, 0);
 8000d4c:	79ba      	ldrb	r2, [r7, #6]
 8000d4e:	79f8      	ldrb	r0, [r7, #7]
 8000d50:	2300      	movs	r3, #0
 8000d52:	9301      	str	r3, [sp, #4]
 8000d54:	683b      	ldr	r3, [r7, #0]
 8000d56:	9300      	str	r3, [sp, #0]
 8000d58:	4613      	mov	r3, r2
 8000d5a:	2207      	movs	r2, #7
 8000d5c:	4907      	ldr	r1, [pc, #28]	; (8000d7c <L6470_GoToDir+0x48>)
 8000d5e:	f7ff fa87 	bl	8000270 <L6470_PrepareAppCmdPkg>
    L6470_PrepareDaisyChainCommand(L6470_AppCmdPkg, (uint8_t*)L6470_DaisyChainSpiTxStruct);
 8000d62:	4907      	ldr	r1, [pc, #28]	; (8000d80 <L6470_GoToDir+0x4c>)
 8000d64:	4805      	ldr	r0, [pc, #20]	; (8000d7c <L6470_GoToDir+0x48>)
 8000d66:	f7ff faa7 	bl	80002b8 <L6470_PrepareDaisyChainCommand>
    L6470_DaisyChainCommand((uint8_t*)L6470_DaisyChainSpiTxStruct, (uint8_t*)L6470_DaisyChainSpiRxStruct);
 8000d6a:	4906      	ldr	r1, [pc, #24]	; (8000d84 <L6470_GoToDir+0x50>)
 8000d6c:	4804      	ldr	r0, [pc, #16]	; (8000d80 <L6470_GoToDir+0x4c>)
 8000d6e:	f000 fb69 	bl	8001444 <L6470_DaisyChainCommand>
  }
}
 8000d72:	bf00      	nop
 8000d74:	3708      	adds	r7, #8
 8000d76:	46bd      	mov	sp, r7
 8000d78:	bd80      	pop	{r7, pc}
 8000d7a:	bf00      	nop
 8000d7c:	20000388 	.word	0x20000388
 8000d80:	20000380 	.word	0x20000380
 8000d84:	20000378 	.word	0x20000378

08000d88 <L6470_GoUntil>:
  * @param  L6470_ActId   The identifier of the L6470 action about the absolute position.
  * @param  L6470_DirId   The identifier of the L6470 motion direction.
  * @param  Speed         The speed value as (([step/s] * 250e-9) / 2^-28)
  */
void L6470_GoUntil(uint8_t L6470_Id, eL6470_ActId_t L6470_ActId, eL6470_DirId_t L6470_DirId, uint32_t Speed)
{
 8000d88:	b580      	push	{r7, lr}
 8000d8a:	b084      	sub	sp, #16
 8000d8c:	af02      	add	r7, sp, #8
 8000d8e:	603b      	str	r3, [r7, #0]
 8000d90:	4603      	mov	r3, r0
 8000d92:	71fb      	strb	r3, [r7, #7]
 8000d94:	460b      	mov	r3, r1
 8000d96:	71bb      	strb	r3, [r7, #6]
 8000d98:	4613      	mov	r3, r2
 8000d9a:	717b      	strb	r3, [r7, #5]
  L6470_PrepareAppCmdPkg(L6470_Id, L6470_AppCmdPkg, L6470_GOUNTIL_ID, L6470_ActId, L6470_DirId, Speed);
 8000d9c:	79b9      	ldrb	r1, [r7, #6]
 8000d9e:	797b      	ldrb	r3, [r7, #5]
 8000da0:	79f8      	ldrb	r0, [r7, #7]
 8000da2:	683a      	ldr	r2, [r7, #0]
 8000da4:	9201      	str	r2, [sp, #4]
 8000da6:	9300      	str	r3, [sp, #0]
 8000da8:	460b      	mov	r3, r1
 8000daa:	2208      	movs	r2, #8
 8000dac:	4907      	ldr	r1, [pc, #28]	; (8000dcc <L6470_GoUntil+0x44>)
 8000dae:	f7ff fa5f 	bl	8000270 <L6470_PrepareAppCmdPkg>
  L6470_PrepareDaisyChainCommand(L6470_AppCmdPkg, (uint8_t*)L6470_DaisyChainSpiTxStruct);
 8000db2:	4907      	ldr	r1, [pc, #28]	; (8000dd0 <L6470_GoUntil+0x48>)
 8000db4:	4805      	ldr	r0, [pc, #20]	; (8000dcc <L6470_GoUntil+0x44>)
 8000db6:	f7ff fa7f 	bl	80002b8 <L6470_PrepareDaisyChainCommand>
  L6470_DaisyChainCommand((uint8_t*)L6470_DaisyChainSpiTxStruct, (uint8_t*)L6470_DaisyChainSpiRxStruct);
 8000dba:	4906      	ldr	r1, [pc, #24]	; (8000dd4 <L6470_GoUntil+0x4c>)
 8000dbc:	4804      	ldr	r0, [pc, #16]	; (8000dd0 <L6470_GoUntil+0x48>)
 8000dbe:	f000 fb41 	bl	8001444 <L6470_DaisyChainCommand>
}
 8000dc2:	bf00      	nop
 8000dc4:	3708      	adds	r7, #8
 8000dc6:	46bd      	mov	sp, r7
 8000dc8:	bd80      	pop	{r7, pc}
 8000dca:	bf00      	nop
 8000dcc:	20000388 	.word	0x20000388
 8000dd0:	20000380 	.word	0x20000380
 8000dd4:	20000378 	.word	0x20000378

08000dd8 <L6470_ReleaseSW>:
  * @param  L6470_Id      The identifier of the L6470 target inside the daisy chain.
  * @param  L6470_ActId   The identifier of the L6470 action about the absolute position.
  * @param  L6470_DirId   The identifier of the L6470 motion direction.
  */
void L6470_ReleaseSW(uint8_t L6470_Id, eL6470_ActId_t L6470_ActId, eL6470_DirId_t L6470_DirId)
{
 8000dd8:	b580      	push	{r7, lr}
 8000dda:	b084      	sub	sp, #16
 8000ddc:	af02      	add	r7, sp, #8
 8000dde:	4603      	mov	r3, r0
 8000de0:	71fb      	strb	r3, [r7, #7]
 8000de2:	460b      	mov	r3, r1
 8000de4:	71bb      	strb	r3, [r7, #6]
 8000de6:	4613      	mov	r3, r2
 8000de8:	717b      	strb	r3, [r7, #5]
  L6470_PrepareAppCmdPkg(L6470_Id, L6470_AppCmdPkg, L6470_RELEASESW_ID, L6470_ActId, L6470_DirId, 0);
 8000dea:	79ba      	ldrb	r2, [r7, #6]
 8000dec:	797b      	ldrb	r3, [r7, #5]
 8000dee:	79f8      	ldrb	r0, [r7, #7]
 8000df0:	2100      	movs	r1, #0
 8000df2:	9101      	str	r1, [sp, #4]
 8000df4:	9300      	str	r3, [sp, #0]
 8000df6:	4613      	mov	r3, r2
 8000df8:	2209      	movs	r2, #9
 8000dfa:	4907      	ldr	r1, [pc, #28]	; (8000e18 <L6470_ReleaseSW+0x40>)
 8000dfc:	f7ff fa38 	bl	8000270 <L6470_PrepareAppCmdPkg>
  L6470_PrepareDaisyChainCommand(L6470_AppCmdPkg, (uint8_t*)L6470_DaisyChainSpiTxStruct);
 8000e00:	4906      	ldr	r1, [pc, #24]	; (8000e1c <L6470_ReleaseSW+0x44>)
 8000e02:	4805      	ldr	r0, [pc, #20]	; (8000e18 <L6470_ReleaseSW+0x40>)
 8000e04:	f7ff fa58 	bl	80002b8 <L6470_PrepareDaisyChainCommand>
  L6470_DaisyChainCommand((uint8_t*)L6470_DaisyChainSpiTxStruct, (uint8_t*)L6470_DaisyChainSpiRxStruct);
 8000e08:	4905      	ldr	r1, [pc, #20]	; (8000e20 <L6470_ReleaseSW+0x48>)
 8000e0a:	4804      	ldr	r0, [pc, #16]	; (8000e1c <L6470_ReleaseSW+0x44>)
 8000e0c:	f000 fb1a 	bl	8001444 <L6470_DaisyChainCommand>
}
 8000e10:	bf00      	nop
 8000e12:	3708      	adds	r7, #8
 8000e14:	46bd      	mov	sp, r7
 8000e16:	bd80      	pop	{r7, pc}
 8000e18:	20000388 	.word	0x20000388
 8000e1c:	20000380 	.word	0x20000380
 8000e20:	20000378 	.word	0x20000378

08000e24 <L6470_GoHome>:
  *         via the shortest path.
  * 
  * @param  L6470_Id      The identifier of the L6470 target inside the daisy chain.
  */
void L6470_GoHome(uint8_t L6470_Id)
{
 8000e24:	b580      	push	{r7, lr}
 8000e26:	b084      	sub	sp, #16
 8000e28:	af02      	add	r7, sp, #8
 8000e2a:	4603      	mov	r3, r0
 8000e2c:	71fb      	strb	r3, [r7, #7]
  L6470_PrepareAppCmdPkg(L6470_Id, L6470_AppCmdPkg, L6470_GOHOME_ID, 0, 0, 0);
 8000e2e:	79f8      	ldrb	r0, [r7, #7]
 8000e30:	2300      	movs	r3, #0
 8000e32:	9301      	str	r3, [sp, #4]
 8000e34:	2300      	movs	r3, #0
 8000e36:	9300      	str	r3, [sp, #0]
 8000e38:	2300      	movs	r3, #0
 8000e3a:	220a      	movs	r2, #10
 8000e3c:	4907      	ldr	r1, [pc, #28]	; (8000e5c <L6470_GoHome+0x38>)
 8000e3e:	f7ff fa17 	bl	8000270 <L6470_PrepareAppCmdPkg>
  L6470_PrepareDaisyChainCommand(L6470_AppCmdPkg, (uint8_t*)L6470_DaisyChainSpiTxStruct);
 8000e42:	4907      	ldr	r1, [pc, #28]	; (8000e60 <L6470_GoHome+0x3c>)
 8000e44:	4805      	ldr	r0, [pc, #20]	; (8000e5c <L6470_GoHome+0x38>)
 8000e46:	f7ff fa37 	bl	80002b8 <L6470_PrepareDaisyChainCommand>
  L6470_DaisyChainCommand((uint8_t*)L6470_DaisyChainSpiTxStruct, (uint8_t*)L6470_DaisyChainSpiRxStruct);
 8000e4a:	4906      	ldr	r1, [pc, #24]	; (8000e64 <L6470_GoHome+0x40>)
 8000e4c:	4804      	ldr	r0, [pc, #16]	; (8000e60 <L6470_GoHome+0x3c>)
 8000e4e:	f000 faf9 	bl	8001444 <L6470_DaisyChainCommand>
}
 8000e52:	bf00      	nop
 8000e54:	3708      	adds	r7, #8
 8000e56:	46bd      	mov	sp, r7
 8000e58:	bd80      	pop	{r7, pc}
 8000e5a:	bf00      	nop
 8000e5c:	20000388 	.word	0x20000388
 8000e60:	20000380 	.word	0x20000380
 8000e64:	20000378 	.word	0x20000378

08000e68 <L6470_GoMark>:
  *         minimum path.
  * 
  * @param  L6470_Id      The identifier of the L6470 target inside the daisy chain.
  */
void L6470_GoMark(uint8_t L6470_Id)
{
 8000e68:	b580      	push	{r7, lr}
 8000e6a:	b084      	sub	sp, #16
 8000e6c:	af02      	add	r7, sp, #8
 8000e6e:	4603      	mov	r3, r0
 8000e70:	71fb      	strb	r3, [r7, #7]
  L6470_PrepareAppCmdPkg(L6470_Id, L6470_AppCmdPkg, L6470_GOMARK_ID, 0, 0, 0);
 8000e72:	79f8      	ldrb	r0, [r7, #7]
 8000e74:	2300      	movs	r3, #0
 8000e76:	9301      	str	r3, [sp, #4]
 8000e78:	2300      	movs	r3, #0
 8000e7a:	9300      	str	r3, [sp, #0]
 8000e7c:	2300      	movs	r3, #0
 8000e7e:	220b      	movs	r2, #11
 8000e80:	4907      	ldr	r1, [pc, #28]	; (8000ea0 <L6470_GoMark+0x38>)
 8000e82:	f7ff f9f5 	bl	8000270 <L6470_PrepareAppCmdPkg>
  L6470_PrepareDaisyChainCommand(L6470_AppCmdPkg, (uint8_t*)L6470_DaisyChainSpiTxStruct);
 8000e86:	4907      	ldr	r1, [pc, #28]	; (8000ea4 <L6470_GoMark+0x3c>)
 8000e88:	4805      	ldr	r0, [pc, #20]	; (8000ea0 <L6470_GoMark+0x38>)
 8000e8a:	f7ff fa15 	bl	80002b8 <L6470_PrepareDaisyChainCommand>
  L6470_DaisyChainCommand((uint8_t*)L6470_DaisyChainSpiTxStruct, (uint8_t*)L6470_DaisyChainSpiRxStruct);
 8000e8e:	4906      	ldr	r1, [pc, #24]	; (8000ea8 <L6470_GoMark+0x40>)
 8000e90:	4804      	ldr	r0, [pc, #16]	; (8000ea4 <L6470_GoMark+0x3c>)
 8000e92:	f000 fad7 	bl	8001444 <L6470_DaisyChainCommand>
}
 8000e96:	bf00      	nop
 8000e98:	3708      	adds	r7, #8
 8000e9a:	46bd      	mov	sp, r7
 8000e9c:	bd80      	pop	{r7, pc}
 8000e9e:	bf00      	nop
 8000ea0:	20000388 	.word	0x20000388
 8000ea4:	20000380 	.word	0x20000380
 8000ea8:	20000378 	.word	0x20000378

08000eac <L6470_ResetPos>:
  * @brief  ResetPos command resets the ABS_POS register to zero.
  * 
  * @param  L6470_Id      The identifier of the L6470 target inside the daisy chain.
  */
void L6470_ResetPos(uint8_t L6470_Id)
{
 8000eac:	b580      	push	{r7, lr}
 8000eae:	b084      	sub	sp, #16
 8000eb0:	af02      	add	r7, sp, #8
 8000eb2:	4603      	mov	r3, r0
 8000eb4:	71fb      	strb	r3, [r7, #7]
  L6470_PrepareAppCmdPkg(L6470_Id, L6470_AppCmdPkg, L6470_RESETPOS_ID, 0, 0, 0);
 8000eb6:	79f8      	ldrb	r0, [r7, #7]
 8000eb8:	2300      	movs	r3, #0
 8000eba:	9301      	str	r3, [sp, #4]
 8000ebc:	2300      	movs	r3, #0
 8000ebe:	9300      	str	r3, [sp, #0]
 8000ec0:	2300      	movs	r3, #0
 8000ec2:	220c      	movs	r2, #12
 8000ec4:	4907      	ldr	r1, [pc, #28]	; (8000ee4 <L6470_ResetPos+0x38>)
 8000ec6:	f7ff f9d3 	bl	8000270 <L6470_PrepareAppCmdPkg>
  L6470_PrepareDaisyChainCommand(L6470_AppCmdPkg, (uint8_t*)L6470_DaisyChainSpiTxStruct);
 8000eca:	4907      	ldr	r1, [pc, #28]	; (8000ee8 <L6470_ResetPos+0x3c>)
 8000ecc:	4805      	ldr	r0, [pc, #20]	; (8000ee4 <L6470_ResetPos+0x38>)
 8000ece:	f7ff f9f3 	bl	80002b8 <L6470_PrepareDaisyChainCommand>
  L6470_DaisyChainCommand((uint8_t*)L6470_DaisyChainSpiTxStruct, (uint8_t*)L6470_DaisyChainSpiRxStruct);
 8000ed2:	4906      	ldr	r1, [pc, #24]	; (8000eec <L6470_ResetPos+0x40>)
 8000ed4:	4804      	ldr	r0, [pc, #16]	; (8000ee8 <L6470_ResetPos+0x3c>)
 8000ed6:	f000 fab5 	bl	8001444 <L6470_DaisyChainCommand>
}
 8000eda:	bf00      	nop
 8000edc:	3708      	adds	r7, #8
 8000ede:	46bd      	mov	sp, r7
 8000ee0:	bd80      	pop	{r7, pc}
 8000ee2:	bf00      	nop
 8000ee4:	20000388 	.word	0x20000388
 8000ee8:	20000380 	.word	0x20000380
 8000eec:	20000378 	.word	0x20000378

08000ef0 <L6470_ResetDevice>:
  * @brief  ResetDevice command resets the device to power-up conditions.
  * 
  * @param  L6470_Id      The identifier of the L6470 target inside the daisy chain.
  */
void L6470_ResetDevice(uint8_t L6470_Id)
{
 8000ef0:	b580      	push	{r7, lr}
 8000ef2:	b084      	sub	sp, #16
 8000ef4:	af02      	add	r7, sp, #8
 8000ef6:	4603      	mov	r3, r0
 8000ef8:	71fb      	strb	r3, [r7, #7]
  L6470_PrepareAppCmdPkg(L6470_Id, L6470_AppCmdPkg, L6470_RESETDEVICE_ID, 0, 0, 0);
 8000efa:	79f8      	ldrb	r0, [r7, #7]
 8000efc:	2300      	movs	r3, #0
 8000efe:	9301      	str	r3, [sp, #4]
 8000f00:	2300      	movs	r3, #0
 8000f02:	9300      	str	r3, [sp, #0]
 8000f04:	2300      	movs	r3, #0
 8000f06:	220d      	movs	r2, #13
 8000f08:	4907      	ldr	r1, [pc, #28]	; (8000f28 <L6470_ResetDevice+0x38>)
 8000f0a:	f7ff f9b1 	bl	8000270 <L6470_PrepareAppCmdPkg>
  L6470_PrepareDaisyChainCommand(L6470_AppCmdPkg, (uint8_t*)L6470_DaisyChainSpiTxStruct);
 8000f0e:	4907      	ldr	r1, [pc, #28]	; (8000f2c <L6470_ResetDevice+0x3c>)
 8000f10:	4805      	ldr	r0, [pc, #20]	; (8000f28 <L6470_ResetDevice+0x38>)
 8000f12:	f7ff f9d1 	bl	80002b8 <L6470_PrepareDaisyChainCommand>
  L6470_DaisyChainCommand((uint8_t*)L6470_DaisyChainSpiTxStruct, (uint8_t*)L6470_DaisyChainSpiRxStruct);
 8000f16:	4906      	ldr	r1, [pc, #24]	; (8000f30 <L6470_ResetDevice+0x40>)
 8000f18:	4804      	ldr	r0, [pc, #16]	; (8000f2c <L6470_ResetDevice+0x3c>)
 8000f1a:	f000 fa93 	bl	8001444 <L6470_DaisyChainCommand>
}
 8000f1e:	bf00      	nop
 8000f20:	3708      	adds	r7, #8
 8000f22:	46bd      	mov	sp, r7
 8000f24:	bd80      	pop	{r7, pc}
 8000f26:	bf00      	nop
 8000f28:	20000388 	.word	0x20000388
 8000f2c:	20000380 	.word	0x20000380
 8000f30:	20000378 	.word	0x20000378

08000f34 <L6470_SoftStop>:
  *         in the DEC register.
  * 
  * @param  L6470_Id      The identifier of the L6470 target inside the daisy chain.
  */
void L6470_SoftStop(uint8_t L6470_Id)
{
 8000f34:	b580      	push	{r7, lr}
 8000f36:	b084      	sub	sp, #16
 8000f38:	af02      	add	r7, sp, #8
 8000f3a:	4603      	mov	r3, r0
 8000f3c:	71fb      	strb	r3, [r7, #7]
  L6470_PrepareAppCmdPkg(L6470_Id, L6470_AppCmdPkg, L6470_SOFTSTOP_ID, 0, 0, 0);
 8000f3e:	79f8      	ldrb	r0, [r7, #7]
 8000f40:	2300      	movs	r3, #0
 8000f42:	9301      	str	r3, [sp, #4]
 8000f44:	2300      	movs	r3, #0
 8000f46:	9300      	str	r3, [sp, #0]
 8000f48:	2300      	movs	r3, #0
 8000f4a:	220e      	movs	r2, #14
 8000f4c:	4907      	ldr	r1, [pc, #28]	; (8000f6c <L6470_SoftStop+0x38>)
 8000f4e:	f7ff f98f 	bl	8000270 <L6470_PrepareAppCmdPkg>
  L6470_PrepareDaisyChainCommand(L6470_AppCmdPkg, (uint8_t*)L6470_DaisyChainSpiTxStruct);
 8000f52:	4907      	ldr	r1, [pc, #28]	; (8000f70 <L6470_SoftStop+0x3c>)
 8000f54:	4805      	ldr	r0, [pc, #20]	; (8000f6c <L6470_SoftStop+0x38>)
 8000f56:	f7ff f9af 	bl	80002b8 <L6470_PrepareDaisyChainCommand>
  L6470_DaisyChainCommand((uint8_t*)L6470_DaisyChainSpiTxStruct, (uint8_t*)L6470_DaisyChainSpiRxStruct);
 8000f5a:	4906      	ldr	r1, [pc, #24]	; (8000f74 <L6470_SoftStop+0x40>)
 8000f5c:	4804      	ldr	r0, [pc, #16]	; (8000f70 <L6470_SoftStop+0x3c>)
 8000f5e:	f000 fa71 	bl	8001444 <L6470_DaisyChainCommand>
}
 8000f62:	bf00      	nop
 8000f64:	3708      	adds	r7, #8
 8000f66:	46bd      	mov	sp, r7
 8000f68:	bd80      	pop	{r7, pc}
 8000f6a:	bf00      	nop
 8000f6c:	20000388 	.word	0x20000388
 8000f70:	20000380 	.word	0x20000380
 8000f74:	20000378 	.word	0x20000378

08000f78 <L6470_HardStop>:
  * @brief  HardStop command causes an immediate motor stop with infinite deceleration.
  * 
  * @param  L6470_Id      The identifier of the L6470 target inside the daisy chain.
  */
void L6470_HardStop(uint8_t L6470_Id)
{
 8000f78:	b580      	push	{r7, lr}
 8000f7a:	b084      	sub	sp, #16
 8000f7c:	af02      	add	r7, sp, #8
 8000f7e:	4603      	mov	r3, r0
 8000f80:	71fb      	strb	r3, [r7, #7]
  L6470_PrepareAppCmdPkg(L6470_Id, L6470_AppCmdPkg, L6470_HARDSTOP_ID, 0, 0, 0);
 8000f82:	79f8      	ldrb	r0, [r7, #7]
 8000f84:	2300      	movs	r3, #0
 8000f86:	9301      	str	r3, [sp, #4]
 8000f88:	2300      	movs	r3, #0
 8000f8a:	9300      	str	r3, [sp, #0]
 8000f8c:	2300      	movs	r3, #0
 8000f8e:	220f      	movs	r2, #15
 8000f90:	4907      	ldr	r1, [pc, #28]	; (8000fb0 <L6470_HardStop+0x38>)
 8000f92:	f7ff f96d 	bl	8000270 <L6470_PrepareAppCmdPkg>
  L6470_PrepareDaisyChainCommand(L6470_AppCmdPkg, (uint8_t*)L6470_DaisyChainSpiTxStruct);
 8000f96:	4907      	ldr	r1, [pc, #28]	; (8000fb4 <L6470_HardStop+0x3c>)
 8000f98:	4805      	ldr	r0, [pc, #20]	; (8000fb0 <L6470_HardStop+0x38>)
 8000f9a:	f7ff f98d 	bl	80002b8 <L6470_PrepareDaisyChainCommand>
  L6470_DaisyChainCommand((uint8_t*)L6470_DaisyChainSpiTxStruct, (uint8_t*)L6470_DaisyChainSpiRxStruct);
 8000f9e:	4906      	ldr	r1, [pc, #24]	; (8000fb8 <L6470_HardStop+0x40>)
 8000fa0:	4804      	ldr	r0, [pc, #16]	; (8000fb4 <L6470_HardStop+0x3c>)
 8000fa2:	f000 fa4f 	bl	8001444 <L6470_DaisyChainCommand>
}
 8000fa6:	bf00      	nop
 8000fa8:	3708      	adds	r7, #8
 8000faa:	46bd      	mov	sp, r7
 8000fac:	bd80      	pop	{r7, pc}
 8000fae:	bf00      	nop
 8000fb0:	20000388 	.word	0x20000388
 8000fb4:	20000380 	.word	0x20000380
 8000fb8:	20000378 	.word	0x20000378

08000fbc <L6470_SoftHiZ>:
  *         stored in the DEC register.
  * 
  * @param  L6470_Id      The identifier of the L6470 target inside the daisy chain.
  */
void L6470_SoftHiZ(uint8_t L6470_Id)
{
 8000fbc:	b580      	push	{r7, lr}
 8000fbe:	b084      	sub	sp, #16
 8000fc0:	af02      	add	r7, sp, #8
 8000fc2:	4603      	mov	r3, r0
 8000fc4:	71fb      	strb	r3, [r7, #7]
  L6470_PrepareAppCmdPkg(L6470_Id, L6470_AppCmdPkg, L6470_SOFTHIZ_ID, 0, 0, 0);
 8000fc6:	79f8      	ldrb	r0, [r7, #7]
 8000fc8:	2300      	movs	r3, #0
 8000fca:	9301      	str	r3, [sp, #4]
 8000fcc:	2300      	movs	r3, #0
 8000fce:	9300      	str	r3, [sp, #0]
 8000fd0:	2300      	movs	r3, #0
 8000fd2:	2210      	movs	r2, #16
 8000fd4:	4907      	ldr	r1, [pc, #28]	; (8000ff4 <L6470_SoftHiZ+0x38>)
 8000fd6:	f7ff f94b 	bl	8000270 <L6470_PrepareAppCmdPkg>
  L6470_PrepareDaisyChainCommand(L6470_AppCmdPkg, (uint8_t*)L6470_DaisyChainSpiTxStruct);
 8000fda:	4907      	ldr	r1, [pc, #28]	; (8000ff8 <L6470_SoftHiZ+0x3c>)
 8000fdc:	4805      	ldr	r0, [pc, #20]	; (8000ff4 <L6470_SoftHiZ+0x38>)
 8000fde:	f7ff f96b 	bl	80002b8 <L6470_PrepareDaisyChainCommand>
  L6470_DaisyChainCommand((uint8_t*)L6470_DaisyChainSpiTxStruct, (uint8_t*)L6470_DaisyChainSpiRxStruct);
 8000fe2:	4906      	ldr	r1, [pc, #24]	; (8000ffc <L6470_SoftHiZ+0x40>)
 8000fe4:	4804      	ldr	r0, [pc, #16]	; (8000ff8 <L6470_SoftHiZ+0x3c>)
 8000fe6:	f000 fa2d 	bl	8001444 <L6470_DaisyChainCommand>
}
 8000fea:	bf00      	nop
 8000fec:	3708      	adds	r7, #8
 8000fee:	46bd      	mov	sp, r7
 8000ff0:	bd80      	pop	{r7, pc}
 8000ff2:	bf00      	nop
 8000ff4:	20000388 	.word	0x20000388
 8000ff8:	20000380 	.word	0x20000380
 8000ffc:	20000378 	.word	0x20000378

08001000 <L6470_HardHiZ>:
  * @brief  HardHiZ command immediately disables the power bridges (high impedance state).
  * 
  * @param  L6470_Id      The identifier of the L6470 target inside the daisy chain.
  */
void L6470_HardHiZ(uint8_t L6470_Id)
{
 8001000:	b580      	push	{r7, lr}
 8001002:	b084      	sub	sp, #16
 8001004:	af02      	add	r7, sp, #8
 8001006:	4603      	mov	r3, r0
 8001008:	71fb      	strb	r3, [r7, #7]
  L6470_PrepareAppCmdPkg(L6470_Id, L6470_AppCmdPkg, L6470_HARDHIZ_ID, 0, 0, 0);
 800100a:	79f8      	ldrb	r0, [r7, #7]
 800100c:	2300      	movs	r3, #0
 800100e:	9301      	str	r3, [sp, #4]
 8001010:	2300      	movs	r3, #0
 8001012:	9300      	str	r3, [sp, #0]
 8001014:	2300      	movs	r3, #0
 8001016:	2211      	movs	r2, #17
 8001018:	4907      	ldr	r1, [pc, #28]	; (8001038 <L6470_HardHiZ+0x38>)
 800101a:	f7ff f929 	bl	8000270 <L6470_PrepareAppCmdPkg>
  L6470_PrepareDaisyChainCommand(L6470_AppCmdPkg, (uint8_t*)L6470_DaisyChainSpiTxStruct);
 800101e:	4907      	ldr	r1, [pc, #28]	; (800103c <L6470_HardHiZ+0x3c>)
 8001020:	4805      	ldr	r0, [pc, #20]	; (8001038 <L6470_HardHiZ+0x38>)
 8001022:	f7ff f949 	bl	80002b8 <L6470_PrepareDaisyChainCommand>
  L6470_DaisyChainCommand((uint8_t*)L6470_DaisyChainSpiTxStruct, (uint8_t*)L6470_DaisyChainSpiRxStruct);
 8001026:	4906      	ldr	r1, [pc, #24]	; (8001040 <L6470_HardHiZ+0x40>)
 8001028:	4804      	ldr	r0, [pc, #16]	; (800103c <L6470_HardHiZ+0x3c>)
 800102a:	f000 fa0b 	bl	8001444 <L6470_DaisyChainCommand>
}
 800102e:	bf00      	nop
 8001030:	3708      	adds	r7, #8
 8001032:	46bd      	mov	sp, r7
 8001034:	bd80      	pop	{r7, pc}
 8001036:	bf00      	nop
 8001038:	20000388 	.word	0x20000388
 800103c:	20000380 	.word	0x20000380
 8001040:	20000378 	.word	0x20000378

08001044 <L6470_GetStatus>:
  * @param  L6470_Id      The identifier of the L6470 target inside the daisy chain.
  * 
  * @retval ReceivedValue The register value.
  */
uint16_t L6470_GetStatus(uint8_t L6470_Id)
{
 8001044:	b580      	push	{r7, lr}
 8001046:	b086      	sub	sp, #24
 8001048:	af02      	add	r7, sp, #8
 800104a:	4603      	mov	r3, r0
 800104c:	71fb      	strb	r3, [r7, #7]
  uint16_t ReceivedValue;

  L6470_PrepareAppCmdPkg(L6470_Id, L6470_AppCmdPkg, L6470_GETSTATUS_ID, 0, 0, 0);
 800104e:	79f8      	ldrb	r0, [r7, #7]
 8001050:	2300      	movs	r3, #0
 8001052:	9301      	str	r3, [sp, #4]
 8001054:	2300      	movs	r3, #0
 8001056:	9300      	str	r3, [sp, #0]
 8001058:	2300      	movs	r3, #0
 800105a:	2212      	movs	r2, #18
 800105c:	490b      	ldr	r1, [pc, #44]	; (800108c <L6470_GetStatus+0x48>)
 800105e:	f7ff f907 	bl	8000270 <L6470_PrepareAppCmdPkg>
  L6470_PrepareDaisyChainCommand(L6470_AppCmdPkg, (uint8_t*)L6470_DaisyChainSpiTxStruct);
 8001062:	490b      	ldr	r1, [pc, #44]	; (8001090 <L6470_GetStatus+0x4c>)
 8001064:	4809      	ldr	r0, [pc, #36]	; (800108c <L6470_GetStatus+0x48>)
 8001066:	f7ff f927 	bl	80002b8 <L6470_PrepareDaisyChainCommand>
  L6470_DaisyChainCommand((uint8_t*)L6470_DaisyChainSpiTxStruct, (uint8_t*)L6470_DaisyChainSpiRxStruct);
 800106a:	490a      	ldr	r1, [pc, #40]	; (8001094 <L6470_GetStatus+0x50>)
 800106c:	4808      	ldr	r0, [pc, #32]	; (8001090 <L6470_GetStatus+0x4c>)
 800106e:	f000 f9e9 	bl	8001444 <L6470_DaisyChainCommand>
  
  ReceivedValue = (uint16_t)L6470_ExtractReturnedData(L6470_Id, (uint8_t*)L6470_DaisyChainSpiRxStruct, 2);
 8001072:	79fb      	ldrb	r3, [r7, #7]
 8001074:	2202      	movs	r2, #2
 8001076:	4907      	ldr	r1, [pc, #28]	; (8001094 <L6470_GetStatus+0x50>)
 8001078:	4618      	mov	r0, r3
 800107a:	f000 fa31 	bl	80014e0 <L6470_ExtractReturnedData>
 800107e:	4603      	mov	r3, r0
 8001080:	81fb      	strh	r3, [r7, #14]
  
  return ReceivedValue;
 8001082:	89fb      	ldrh	r3, [r7, #14]
}
 8001084:	4618      	mov	r0, r3
 8001086:	3710      	adds	r7, #16
 8001088:	46bd      	mov	sp, r7
 800108a:	bd80      	pop	{r7, pc}
 800108c:	20000388 	.word	0x20000388
 8001090:	20000380 	.word	0x20000380
 8001094:	20000378 	.word	0x20000378

08001098 <L6470_PrepareSetParam>:
  *
  * @note   This function will properly fill the right column of the L6470_AppCmdPkg.
  * @note   The commad will be sent by @ref L6470_PerformPreparedApplicationCommand.
  */
void L6470_PrepareSetParam(uint8_t L6470_Id, eL6470_RegId_t L6470_RegId, uint32_t Value)
{
 8001098:	b580      	push	{r7, lr}
 800109a:	b084      	sub	sp, #16
 800109c:	af02      	add	r7, sp, #8
 800109e:	4603      	mov	r3, r0
 80010a0:	603a      	str	r2, [r7, #0]
 80010a2:	71fb      	strb	r3, [r7, #7]
 80010a4:	460b      	mov	r3, r1
 80010a6:	71bb      	strb	r3, [r7, #6]
    L6470_PrepareAppCmdPkg(L6470_Id, L6470_AppCmdPkg, L6470_SETPARAM_ID, L6470_RegId, Value, 0);
 80010a8:	79ba      	ldrb	r2, [r7, #6]
 80010aa:	79f8      	ldrb	r0, [r7, #7]
 80010ac:	2300      	movs	r3, #0
 80010ae:	9301      	str	r3, [sp, #4]
 80010b0:	683b      	ldr	r3, [r7, #0]
 80010b2:	9300      	str	r3, [sp, #0]
 80010b4:	4613      	mov	r3, r2
 80010b6:	2201      	movs	r2, #1
 80010b8:	4903      	ldr	r1, [pc, #12]	; (80010c8 <L6470_PrepareSetParam+0x30>)
 80010ba:	f7ff f8d9 	bl	8000270 <L6470_PrepareAppCmdPkg>
}
 80010be:	bf00      	nop
 80010c0:	3708      	adds	r7, #8
 80010c2:	46bd      	mov	sp, r7
 80010c4:	bd80      	pop	{r7, pc}
 80010c6:	bf00      	nop
 80010c8:	20000388 	.word	0x20000388

080010cc <L6470_PrepareGetParam>:
  *
  * @note   This function will properly fill the right column of the L6470_AppCmdPkg.
  * @note   The commad will be sent by @ref L6470_PerformPreparedApplicationCommand.
  */
void L6470_PrepareGetParam(uint8_t L6470_Id, eL6470_RegId_t L6470_RegId)
{
 80010cc:	b580      	push	{r7, lr}
 80010ce:	b084      	sub	sp, #16
 80010d0:	af02      	add	r7, sp, #8
 80010d2:	4603      	mov	r3, r0
 80010d4:	460a      	mov	r2, r1
 80010d6:	71fb      	strb	r3, [r7, #7]
 80010d8:	4613      	mov	r3, r2
 80010da:	71bb      	strb	r3, [r7, #6]
  L6470_PrepareAppCmdPkg(L6470_Id, L6470_AppCmdPkg, L6470_GETPARAM_ID, L6470_RegId, 0, 0);
 80010dc:	79bb      	ldrb	r3, [r7, #6]
 80010de:	79f8      	ldrb	r0, [r7, #7]
 80010e0:	2200      	movs	r2, #0
 80010e2:	9201      	str	r2, [sp, #4]
 80010e4:	2200      	movs	r2, #0
 80010e6:	9200      	str	r2, [sp, #0]
 80010e8:	2202      	movs	r2, #2
 80010ea:	4903      	ldr	r1, [pc, #12]	; (80010f8 <L6470_PrepareGetParam+0x2c>)
 80010ec:	f7ff f8c0 	bl	8000270 <L6470_PrepareAppCmdPkg>
}
 80010f0:	bf00      	nop
 80010f2:	3708      	adds	r7, #8
 80010f4:	46bd      	mov	sp, r7
 80010f6:	bd80      	pop	{r7, pc}
 80010f8:	20000388 	.word	0x20000388

080010fc <L6470_PrepareRun>:
  *
  * @note   This function will properly fill the right column of the L6470_AppCmdPkg.
  * @note   The commad will be sent by @ref L6470_PerformPreparedApplicationCommand.
  */
void L6470_PrepareRun(uint8_t L6470_Id, eL6470_DirId_t L6470_DirId, uint32_t Speed)
{
 80010fc:	b580      	push	{r7, lr}
 80010fe:	b084      	sub	sp, #16
 8001100:	af02      	add	r7, sp, #8
 8001102:	4603      	mov	r3, r0
 8001104:	603a      	str	r2, [r7, #0]
 8001106:	71fb      	strb	r3, [r7, #7]
 8001108:	460b      	mov	r3, r1
 800110a:	71bb      	strb	r3, [r7, #6]
  L6470_PrepareAppCmdPkg(L6470_Id, L6470_AppCmdPkg, L6470_RUN_ID, L6470_DirId, Speed, 0);
 800110c:	79ba      	ldrb	r2, [r7, #6]
 800110e:	79f8      	ldrb	r0, [r7, #7]
 8001110:	2300      	movs	r3, #0
 8001112:	9301      	str	r3, [sp, #4]
 8001114:	683b      	ldr	r3, [r7, #0]
 8001116:	9300      	str	r3, [sp, #0]
 8001118:	4613      	mov	r3, r2
 800111a:	2203      	movs	r2, #3
 800111c:	4903      	ldr	r1, [pc, #12]	; (800112c <L6470_PrepareRun+0x30>)
 800111e:	f7ff f8a7 	bl	8000270 <L6470_PrepareAppCmdPkg>
}
 8001122:	bf00      	nop
 8001124:	3708      	adds	r7, #8
 8001126:	46bd      	mov	sp, r7
 8001128:	bd80      	pop	{r7, pc}
 800112a:	bf00      	nop
 800112c:	20000388 	.word	0x20000388

08001130 <L6470_PrepareStepClock>:
  *
  * @note   This function will properly fill the right column of the L6470_AppCmdPkg.
  * @note   The commad will be sent by @ref L6470_PerformPreparedApplicationCommand.
  */
void L6470_PrepareStepClock(uint8_t L6470_Id, eL6470_DirId_t L6470_DirId)
{
 8001130:	b580      	push	{r7, lr}
 8001132:	b084      	sub	sp, #16
 8001134:	af02      	add	r7, sp, #8
 8001136:	4603      	mov	r3, r0
 8001138:	460a      	mov	r2, r1
 800113a:	71fb      	strb	r3, [r7, #7]
 800113c:	4613      	mov	r3, r2
 800113e:	71bb      	strb	r3, [r7, #6]
  L6470_PrepareAppCmdPkg(L6470_Id, L6470_AppCmdPkg, L6470_STEPCLOCK_ID, L6470_DirId, 0, 0);
 8001140:	79bb      	ldrb	r3, [r7, #6]
 8001142:	79f8      	ldrb	r0, [r7, #7]
 8001144:	2200      	movs	r2, #0
 8001146:	9201      	str	r2, [sp, #4]
 8001148:	2200      	movs	r2, #0
 800114a:	9200      	str	r2, [sp, #0]
 800114c:	2204      	movs	r2, #4
 800114e:	4903      	ldr	r1, [pc, #12]	; (800115c <L6470_PrepareStepClock+0x2c>)
 8001150:	f7ff f88e 	bl	8000270 <L6470_PrepareAppCmdPkg>
}
 8001154:	bf00      	nop
 8001156:	3708      	adds	r7, #8
 8001158:	46bd      	mov	sp, r7
 800115a:	bd80      	pop	{r7, pc}
 800115c:	20000388 	.word	0x20000388

08001160 <L6470_PrepareMove>:
  *
  * @note   This function will properly fill the right column of the L6470_AppCmdPkg.
  * @note   The commad will be sent by @ref L6470_PerformPreparedApplicationCommand.
  */
void L6470_PrepareMove(uint8_t L6470_Id, eL6470_DirId_t L6470_DirId, uint32_t N_Step)
{
 8001160:	b580      	push	{r7, lr}
 8001162:	b084      	sub	sp, #16
 8001164:	af02      	add	r7, sp, #8
 8001166:	4603      	mov	r3, r0
 8001168:	603a      	str	r2, [r7, #0]
 800116a:	71fb      	strb	r3, [r7, #7]
 800116c:	460b      	mov	r3, r1
 800116e:	71bb      	strb	r3, [r7, #6]
  L6470_PrepareAppCmdPkg(L6470_Id, L6470_AppCmdPkg, L6470_MOVE_ID, L6470_DirId, N_Step, 0);
 8001170:	79ba      	ldrb	r2, [r7, #6]
 8001172:	79f8      	ldrb	r0, [r7, #7]
 8001174:	2300      	movs	r3, #0
 8001176:	9301      	str	r3, [sp, #4]
 8001178:	683b      	ldr	r3, [r7, #0]
 800117a:	9300      	str	r3, [sp, #0]
 800117c:	4613      	mov	r3, r2
 800117e:	2205      	movs	r2, #5
 8001180:	4903      	ldr	r1, [pc, #12]	; (8001190 <L6470_PrepareMove+0x30>)
 8001182:	f7ff f875 	bl	8000270 <L6470_PrepareAppCmdPkg>
}
 8001186:	bf00      	nop
 8001188:	3708      	adds	r7, #8
 800118a:	46bd      	mov	sp, r7
 800118c:	bd80      	pop	{r7, pc}
 800118e:	bf00      	nop
 8001190:	20000388 	.word	0x20000388

08001194 <L6470_PrepareGoTo>:
  *
  * @note   This function will properly fill the right column of the L6470_AppCmdPkg.
  * @note   The commad will be sent by @ref L6470_PerformPreparedApplicationCommand.
  */
void L6470_PrepareGoTo(uint8_t L6470_Id, uint32_t AbsPos)
{
 8001194:	b580      	push	{r7, lr}
 8001196:	b084      	sub	sp, #16
 8001198:	af02      	add	r7, sp, #8
 800119a:	4603      	mov	r3, r0
 800119c:	6039      	str	r1, [r7, #0]
 800119e:	71fb      	strb	r3, [r7, #7]
  L6470_PrepareAppCmdPkg(L6470_Id, L6470_AppCmdPkg, L6470_GOTO_ID, AbsPos, 0, 0);
 80011a0:	79f8      	ldrb	r0, [r7, #7]
 80011a2:	2300      	movs	r3, #0
 80011a4:	9301      	str	r3, [sp, #4]
 80011a6:	2300      	movs	r3, #0
 80011a8:	9300      	str	r3, [sp, #0]
 80011aa:	683b      	ldr	r3, [r7, #0]
 80011ac:	2206      	movs	r2, #6
 80011ae:	4903      	ldr	r1, [pc, #12]	; (80011bc <L6470_PrepareGoTo+0x28>)
 80011b0:	f7ff f85e 	bl	8000270 <L6470_PrepareAppCmdPkg>
}
 80011b4:	bf00      	nop
 80011b6:	3708      	adds	r7, #8
 80011b8:	46bd      	mov	sp, r7
 80011ba:	bd80      	pop	{r7, pc}
 80011bc:	20000388 	.word	0x20000388

080011c0 <L6470_PrepareGoToDir>:
  *
  * @note   This function will properly fill the right column of the L6470_AppCmdPkg.
  * @note   The commad will be sent by @ref L6470_PerformPreparedApplicationCommand.
  */
void L6470_PrepareGoToDir(uint8_t L6470_Id, eL6470_DirId_t L6470_DirId, uint32_t AbsPos)
{
 80011c0:	b580      	push	{r7, lr}
 80011c2:	b084      	sub	sp, #16
 80011c4:	af02      	add	r7, sp, #8
 80011c6:	4603      	mov	r3, r0
 80011c8:	603a      	str	r2, [r7, #0]
 80011ca:	71fb      	strb	r3, [r7, #7]
 80011cc:	460b      	mov	r3, r1
 80011ce:	71bb      	strb	r3, [r7, #6]
  L6470_PrepareAppCmdPkg(L6470_Id, L6470_AppCmdPkg, L6470_GOTODIR_ID, L6470_DirId, AbsPos, 0);
 80011d0:	79ba      	ldrb	r2, [r7, #6]
 80011d2:	79f8      	ldrb	r0, [r7, #7]
 80011d4:	2300      	movs	r3, #0
 80011d6:	9301      	str	r3, [sp, #4]
 80011d8:	683b      	ldr	r3, [r7, #0]
 80011da:	9300      	str	r3, [sp, #0]
 80011dc:	4613      	mov	r3, r2
 80011de:	2207      	movs	r2, #7
 80011e0:	4903      	ldr	r1, [pc, #12]	; (80011f0 <L6470_PrepareGoToDir+0x30>)
 80011e2:	f7ff f845 	bl	8000270 <L6470_PrepareAppCmdPkg>
}
 80011e6:	bf00      	nop
 80011e8:	3708      	adds	r7, #8
 80011ea:	46bd      	mov	sp, r7
 80011ec:	bd80      	pop	{r7, pc}
 80011ee:	bf00      	nop
 80011f0:	20000388 	.word	0x20000388

080011f4 <L6470_PrepareGoUntil>:
  *
  * @note   This function will properly fill the right column of the L6470_AppCmdPkg.
  * @note   The commad will be sent by @ref L6470_PerformPreparedApplicationCommand.
  */
void L6470_PrepareGoUntil(uint8_t L6470_Id, eL6470_ActId_t L6470_ActId, eL6470_DirId_t L6470_DirId, uint32_t Speed)
{
 80011f4:	b580      	push	{r7, lr}
 80011f6:	b084      	sub	sp, #16
 80011f8:	af02      	add	r7, sp, #8
 80011fa:	603b      	str	r3, [r7, #0]
 80011fc:	4603      	mov	r3, r0
 80011fe:	71fb      	strb	r3, [r7, #7]
 8001200:	460b      	mov	r3, r1
 8001202:	71bb      	strb	r3, [r7, #6]
 8001204:	4613      	mov	r3, r2
 8001206:	717b      	strb	r3, [r7, #5]
  L6470_PrepareAppCmdPkg(L6470_Id, L6470_AppCmdPkg, L6470_GOUNTIL_ID, L6470_ActId, L6470_DirId, Speed);
 8001208:	79b9      	ldrb	r1, [r7, #6]
 800120a:	797b      	ldrb	r3, [r7, #5]
 800120c:	79f8      	ldrb	r0, [r7, #7]
 800120e:	683a      	ldr	r2, [r7, #0]
 8001210:	9201      	str	r2, [sp, #4]
 8001212:	9300      	str	r3, [sp, #0]
 8001214:	460b      	mov	r3, r1
 8001216:	2208      	movs	r2, #8
 8001218:	4903      	ldr	r1, [pc, #12]	; (8001228 <L6470_PrepareGoUntil+0x34>)
 800121a:	f7ff f829 	bl	8000270 <L6470_PrepareAppCmdPkg>
}
 800121e:	bf00      	nop
 8001220:	3708      	adds	r7, #8
 8001222:	46bd      	mov	sp, r7
 8001224:	bd80      	pop	{r7, pc}
 8001226:	bf00      	nop
 8001228:	20000388 	.word	0x20000388

0800122c <L6470_PrepareReleaseSW>:
  *
  * @note   This function will properly fill the right column of the L6470_AppCmdPkg.
  * @note   The commad will be sent by @ref L6470_PerformPreparedApplicationCommand.
  */
void L6470_PrepareReleaseSW(uint8_t L6470_Id, eL6470_ActId_t L6470_ActId, eL6470_DirId_t L6470_DirId)
{
 800122c:	b580      	push	{r7, lr}
 800122e:	b084      	sub	sp, #16
 8001230:	af02      	add	r7, sp, #8
 8001232:	4603      	mov	r3, r0
 8001234:	71fb      	strb	r3, [r7, #7]
 8001236:	460b      	mov	r3, r1
 8001238:	71bb      	strb	r3, [r7, #6]
 800123a:	4613      	mov	r3, r2
 800123c:	717b      	strb	r3, [r7, #5]
  L6470_PrepareAppCmdPkg(L6470_Id, L6470_AppCmdPkg, L6470_RELEASESW_ID, L6470_ActId, L6470_DirId, 0);
 800123e:	79ba      	ldrb	r2, [r7, #6]
 8001240:	797b      	ldrb	r3, [r7, #5]
 8001242:	79f8      	ldrb	r0, [r7, #7]
 8001244:	2100      	movs	r1, #0
 8001246:	9101      	str	r1, [sp, #4]
 8001248:	9300      	str	r3, [sp, #0]
 800124a:	4613      	mov	r3, r2
 800124c:	2209      	movs	r2, #9
 800124e:	4903      	ldr	r1, [pc, #12]	; (800125c <L6470_PrepareReleaseSW+0x30>)
 8001250:	f7ff f80e 	bl	8000270 <L6470_PrepareAppCmdPkg>
}
 8001254:	bf00      	nop
 8001256:	3708      	adds	r7, #8
 8001258:	46bd      	mov	sp, r7
 800125a:	bd80      	pop	{r7, pc}
 800125c:	20000388 	.word	0x20000388

08001260 <L6470_PrepareGoHome>:
  *
  * @note   This function will properly fill the right column of the L6470_AppCmdPkg.
  * @note   The commad will be sent by @ref L6470_PerformPreparedApplicationCommand.
  */
void L6470_PrepareGoHome(uint8_t L6470_Id)
{
 8001260:	b580      	push	{r7, lr}
 8001262:	b084      	sub	sp, #16
 8001264:	af02      	add	r7, sp, #8
 8001266:	4603      	mov	r3, r0
 8001268:	71fb      	strb	r3, [r7, #7]
  L6470_PrepareAppCmdPkg(L6470_Id, L6470_AppCmdPkg, L6470_GOHOME_ID, 0, 0, 0);
 800126a:	79f8      	ldrb	r0, [r7, #7]
 800126c:	2300      	movs	r3, #0
 800126e:	9301      	str	r3, [sp, #4]
 8001270:	2300      	movs	r3, #0
 8001272:	9300      	str	r3, [sp, #0]
 8001274:	2300      	movs	r3, #0
 8001276:	220a      	movs	r2, #10
 8001278:	4903      	ldr	r1, [pc, #12]	; (8001288 <L6470_PrepareGoHome+0x28>)
 800127a:	f7fe fff9 	bl	8000270 <L6470_PrepareAppCmdPkg>
}
 800127e:	bf00      	nop
 8001280:	3708      	adds	r7, #8
 8001282:	46bd      	mov	sp, r7
 8001284:	bd80      	pop	{r7, pc}
 8001286:	bf00      	nop
 8001288:	20000388 	.word	0x20000388

0800128c <L6470_PrepareGoMark>:
  *
  * @note   This function will properly fill the right column of the L6470_AppCmdPkg.
  * @note   The commad will be sent by @ref L6470_PerformPreparedApplicationCommand.
  */
void L6470_PrepareGoMark(uint8_t L6470_Id)
{
 800128c:	b580      	push	{r7, lr}
 800128e:	b084      	sub	sp, #16
 8001290:	af02      	add	r7, sp, #8
 8001292:	4603      	mov	r3, r0
 8001294:	71fb      	strb	r3, [r7, #7]
  L6470_PrepareAppCmdPkg(L6470_Id, L6470_AppCmdPkg, L6470_GOMARK_ID, 0, 0, 0);
 8001296:	79f8      	ldrb	r0, [r7, #7]
 8001298:	2300      	movs	r3, #0
 800129a:	9301      	str	r3, [sp, #4]
 800129c:	2300      	movs	r3, #0
 800129e:	9300      	str	r3, [sp, #0]
 80012a0:	2300      	movs	r3, #0
 80012a2:	220b      	movs	r2, #11
 80012a4:	4903      	ldr	r1, [pc, #12]	; (80012b4 <L6470_PrepareGoMark+0x28>)
 80012a6:	f7fe ffe3 	bl	8000270 <L6470_PrepareAppCmdPkg>
}
 80012aa:	bf00      	nop
 80012ac:	3708      	adds	r7, #8
 80012ae:	46bd      	mov	sp, r7
 80012b0:	bd80      	pop	{r7, pc}
 80012b2:	bf00      	nop
 80012b4:	20000388 	.word	0x20000388

080012b8 <L6470_PrepareResetPos>:
  *
  * @note   This function will properly fill the right column of the L6470_AppCmdPkg.
  * @note   The commad will be sent by @ref L6470_PerformPreparedApplicationCommand.
  */
void L6470_PrepareResetPos(uint8_t L6470_Id)
{
 80012b8:	b580      	push	{r7, lr}
 80012ba:	b084      	sub	sp, #16
 80012bc:	af02      	add	r7, sp, #8
 80012be:	4603      	mov	r3, r0
 80012c0:	71fb      	strb	r3, [r7, #7]
  L6470_PrepareAppCmdPkg(L6470_Id, L6470_AppCmdPkg, L6470_RESETPOS_ID, 0, 0, 0);
 80012c2:	79f8      	ldrb	r0, [r7, #7]
 80012c4:	2300      	movs	r3, #0
 80012c6:	9301      	str	r3, [sp, #4]
 80012c8:	2300      	movs	r3, #0
 80012ca:	9300      	str	r3, [sp, #0]
 80012cc:	2300      	movs	r3, #0
 80012ce:	220c      	movs	r2, #12
 80012d0:	4903      	ldr	r1, [pc, #12]	; (80012e0 <L6470_PrepareResetPos+0x28>)
 80012d2:	f7fe ffcd 	bl	8000270 <L6470_PrepareAppCmdPkg>
}
 80012d6:	bf00      	nop
 80012d8:	3708      	adds	r7, #8
 80012da:	46bd      	mov	sp, r7
 80012dc:	bd80      	pop	{r7, pc}
 80012de:	bf00      	nop
 80012e0:	20000388 	.word	0x20000388

080012e4 <L6470_PrepareResetDevice>:
  *
  * @note   This function will properly fill the right column of the L6470_AppCmdPkg.
  * @note   The commad will be sent by @ref L6470_PerformPreparedApplicationCommand.
  */
void L6470_PrepareResetDevice(uint8_t L6470_Id)
{
 80012e4:	b580      	push	{r7, lr}
 80012e6:	b084      	sub	sp, #16
 80012e8:	af02      	add	r7, sp, #8
 80012ea:	4603      	mov	r3, r0
 80012ec:	71fb      	strb	r3, [r7, #7]
  L6470_PrepareAppCmdPkg(L6470_Id, L6470_AppCmdPkg, L6470_RESETDEVICE_ID, 0, 0, 0);
 80012ee:	79f8      	ldrb	r0, [r7, #7]
 80012f0:	2300      	movs	r3, #0
 80012f2:	9301      	str	r3, [sp, #4]
 80012f4:	2300      	movs	r3, #0
 80012f6:	9300      	str	r3, [sp, #0]
 80012f8:	2300      	movs	r3, #0
 80012fa:	220d      	movs	r2, #13
 80012fc:	4903      	ldr	r1, [pc, #12]	; (800130c <L6470_PrepareResetDevice+0x28>)
 80012fe:	f7fe ffb7 	bl	8000270 <L6470_PrepareAppCmdPkg>
}
 8001302:	bf00      	nop
 8001304:	3708      	adds	r7, #8
 8001306:	46bd      	mov	sp, r7
 8001308:	bd80      	pop	{r7, pc}
 800130a:	bf00      	nop
 800130c:	20000388 	.word	0x20000388

08001310 <L6470_PrepareSoftStop>:
  *
  * @note   This function will properly fill the right column of the L6470_AppCmdPkg.
  * @note   The commad will be sent by @ref L6470_PerformPreparedApplicationCommand.
  */
void L6470_PrepareSoftStop(uint8_t L6470_Id)
{
 8001310:	b580      	push	{r7, lr}
 8001312:	b084      	sub	sp, #16
 8001314:	af02      	add	r7, sp, #8
 8001316:	4603      	mov	r3, r0
 8001318:	71fb      	strb	r3, [r7, #7]
  L6470_PrepareAppCmdPkg(L6470_Id, L6470_AppCmdPkg, L6470_SOFTSTOP_ID, 0, 0, 0);
 800131a:	79f8      	ldrb	r0, [r7, #7]
 800131c:	2300      	movs	r3, #0
 800131e:	9301      	str	r3, [sp, #4]
 8001320:	2300      	movs	r3, #0
 8001322:	9300      	str	r3, [sp, #0]
 8001324:	2300      	movs	r3, #0
 8001326:	220e      	movs	r2, #14
 8001328:	4903      	ldr	r1, [pc, #12]	; (8001338 <L6470_PrepareSoftStop+0x28>)
 800132a:	f7fe ffa1 	bl	8000270 <L6470_PrepareAppCmdPkg>
}
 800132e:	bf00      	nop
 8001330:	3708      	adds	r7, #8
 8001332:	46bd      	mov	sp, r7
 8001334:	bd80      	pop	{r7, pc}
 8001336:	bf00      	nop
 8001338:	20000388 	.word	0x20000388

0800133c <L6470_PrepareHardStop>:
  *
  * @note   This function will properly fill the right column of the L6470_AppCmdPkg.
  * @note   The commad will be sent by @ref L6470_PerformPreparedApplicationCommand.
  */
void L6470_PrepareHardStop(uint8_t L6470_Id)
{
 800133c:	b580      	push	{r7, lr}
 800133e:	b084      	sub	sp, #16
 8001340:	af02      	add	r7, sp, #8
 8001342:	4603      	mov	r3, r0
 8001344:	71fb      	strb	r3, [r7, #7]
  L6470_PrepareAppCmdPkg(L6470_Id, L6470_AppCmdPkg, L6470_HARDSTOP_ID, 0, 0, 0);
 8001346:	79f8      	ldrb	r0, [r7, #7]
 8001348:	2300      	movs	r3, #0
 800134a:	9301      	str	r3, [sp, #4]
 800134c:	2300      	movs	r3, #0
 800134e:	9300      	str	r3, [sp, #0]
 8001350:	2300      	movs	r3, #0
 8001352:	220f      	movs	r2, #15
 8001354:	4903      	ldr	r1, [pc, #12]	; (8001364 <L6470_PrepareHardStop+0x28>)
 8001356:	f7fe ff8b 	bl	8000270 <L6470_PrepareAppCmdPkg>
}
 800135a:	bf00      	nop
 800135c:	3708      	adds	r7, #8
 800135e:	46bd      	mov	sp, r7
 8001360:	bd80      	pop	{r7, pc}
 8001362:	bf00      	nop
 8001364:	20000388 	.word	0x20000388

08001368 <L6470_PrepareSoftHiZ>:
  *
  * @note   This function will properly fill the right column of the L6470_AppCmdPkg.
  * @note   The commad will be sent by @ref L6470_PerformPreparedApplicationCommand.
  */
void L6470_PrepareSoftHiZ(uint8_t L6470_Id)
{
 8001368:	b580      	push	{r7, lr}
 800136a:	b084      	sub	sp, #16
 800136c:	af02      	add	r7, sp, #8
 800136e:	4603      	mov	r3, r0
 8001370:	71fb      	strb	r3, [r7, #7]
  L6470_PrepareAppCmdPkg(L6470_Id, L6470_AppCmdPkg, L6470_SOFTHIZ_ID, 0, 0, 0);
 8001372:	79f8      	ldrb	r0, [r7, #7]
 8001374:	2300      	movs	r3, #0
 8001376:	9301      	str	r3, [sp, #4]
 8001378:	2300      	movs	r3, #0
 800137a:	9300      	str	r3, [sp, #0]
 800137c:	2300      	movs	r3, #0
 800137e:	2210      	movs	r2, #16
 8001380:	4903      	ldr	r1, [pc, #12]	; (8001390 <L6470_PrepareSoftHiZ+0x28>)
 8001382:	f7fe ff75 	bl	8000270 <L6470_PrepareAppCmdPkg>
}
 8001386:	bf00      	nop
 8001388:	3708      	adds	r7, #8
 800138a:	46bd      	mov	sp, r7
 800138c:	bd80      	pop	{r7, pc}
 800138e:	bf00      	nop
 8001390:	20000388 	.word	0x20000388

08001394 <L6470_PrepareHardHiZ>:
  *
  * @note   This function will properly fill the right column of the L6470_AppCmdPkg.
  * @note   The commad will be sent by @ref L6470_PerformPreparedApplicationCommand.
  */
void L6470_PrepareHardHiZ(uint8_t L6470_Id)
{
 8001394:	b580      	push	{r7, lr}
 8001396:	b084      	sub	sp, #16
 8001398:	af02      	add	r7, sp, #8
 800139a:	4603      	mov	r3, r0
 800139c:	71fb      	strb	r3, [r7, #7]
  L6470_PrepareAppCmdPkg(L6470_Id, L6470_AppCmdPkg, L6470_HARDHIZ_ID, 0, 0, 0);
 800139e:	79f8      	ldrb	r0, [r7, #7]
 80013a0:	2300      	movs	r3, #0
 80013a2:	9301      	str	r3, [sp, #4]
 80013a4:	2300      	movs	r3, #0
 80013a6:	9300      	str	r3, [sp, #0]
 80013a8:	2300      	movs	r3, #0
 80013aa:	2211      	movs	r2, #17
 80013ac:	4903      	ldr	r1, [pc, #12]	; (80013bc <L6470_PrepareHardHiZ+0x28>)
 80013ae:	f7fe ff5f 	bl	8000270 <L6470_PrepareAppCmdPkg>
}
 80013b2:	bf00      	nop
 80013b4:	3708      	adds	r7, #8
 80013b6:	46bd      	mov	sp, r7
 80013b8:	bd80      	pop	{r7, pc}
 80013ba:	bf00      	nop
 80013bc:	20000388 	.word	0x20000388

080013c0 <L6470_PrepareGetStatus>:
  *
  * @note   This function will properly fill the right column of the L6470_AppCmdPkg.
  * @note   The commad will be sent by @ref L6470_PerformPreparedApplicationCommand.
  */
void L6470_PrepareGetStatus(uint8_t L6470_Id)
{
 80013c0:	b580      	push	{r7, lr}
 80013c2:	b084      	sub	sp, #16
 80013c4:	af02      	add	r7, sp, #8
 80013c6:	4603      	mov	r3, r0
 80013c8:	71fb      	strb	r3, [r7, #7]
  L6470_PrepareAppCmdPkg(L6470_Id, L6470_AppCmdPkg, L6470_GETSTATUS_ID, 0, 0, 0);
 80013ca:	79f8      	ldrb	r0, [r7, #7]
 80013cc:	2300      	movs	r3, #0
 80013ce:	9301      	str	r3, [sp, #4]
 80013d0:	2300      	movs	r3, #0
 80013d2:	9300      	str	r3, [sp, #0]
 80013d4:	2300      	movs	r3, #0
 80013d6:	2212      	movs	r2, #18
 80013d8:	4903      	ldr	r1, [pc, #12]	; (80013e8 <L6470_PrepareGetStatus+0x28>)
 80013da:	f7fe ff49 	bl	8000270 <L6470_PrepareAppCmdPkg>
}
 80013de:	bf00      	nop
 80013e0:	3708      	adds	r7, #8
 80013e2:	46bd      	mov	sp, r7
 80013e4:	bd80      	pop	{r7, pc}
 80013e6:	bf00      	nop
 80013e8:	20000388 	.word	0x20000388

080013ec <L6470_PerformPreparedApplicationCommand>:
  * @retval (uint8_t*)L6470_DaisyChainSpiRxStruct  The pointer to the structure
  *         containing returned values from each L6470 of the daisy chain for each
  *         sent SPI data.
  */
uint8_t* L6470_PerformPreparedApplicationCommand(void)
{
 80013ec:	b580      	push	{r7, lr}
 80013ee:	af00      	add	r7, sp, #0
  L6470_PrepareDaisyChainCommand(L6470_AppCmdPkg, (uint8_t*)L6470_DaisyChainSpiTxStruct);
 80013f0:	4905      	ldr	r1, [pc, #20]	; (8001408 <L6470_PerformPreparedApplicationCommand+0x1c>)
 80013f2:	4806      	ldr	r0, [pc, #24]	; (800140c <L6470_PerformPreparedApplicationCommand+0x20>)
 80013f4:	f7fe ff60 	bl	80002b8 <L6470_PrepareDaisyChainCommand>
  L6470_DaisyChainCommand((uint8_t*)L6470_DaisyChainSpiTxStruct, (uint8_t*)L6470_DaisyChainSpiRxStruct);
 80013f8:	4905      	ldr	r1, [pc, #20]	; (8001410 <L6470_PerformPreparedApplicationCommand+0x24>)
 80013fa:	4803      	ldr	r0, [pc, #12]	; (8001408 <L6470_PerformPreparedApplicationCommand+0x1c>)
 80013fc:	f000 f822 	bl	8001444 <L6470_DaisyChainCommand>
  
  return (uint8_t*)(L6470_DaisyChainSpiRxStruct);
 8001400:	4b03      	ldr	r3, [pc, #12]	; (8001410 <L6470_PerformPreparedApplicationCommand+0x24>)
}
 8001402:	4618      	mov	r0, r3
 8001404:	bd80      	pop	{r7, pc}
 8001406:	bf00      	nop
 8001408:	20000380 	.word	0x20000380
 800140c:	20000388 	.word	0x20000388
 8001410:	20000378 	.word	0x20000378

08001414 <L6470_ID>:
  *
  * @note   The position '1' is close the uC MISO.
  * @note   If the position is not allowable the returned value is 0xFF.
  */
uint8_t L6470_ID(uint8_t position)
{
 8001414:	b480      	push	{r7}
 8001416:	b083      	sub	sp, #12
 8001418:	af00      	add	r7, sp, #0
 800141a:	4603      	mov	r3, r0
 800141c:	71fb      	strb	r3, [r7, #7]
   if ((position == 0) || ((position > 0) && (position < L6470DAISYCHAINSIZE)))
 800141e:	79fb      	ldrb	r3, [r7, #7]
 8001420:	2b00      	cmp	r3, #0
 8001422:	d005      	beq.n	8001430 <L6470_ID+0x1c>
 8001424:	79fb      	ldrb	r3, [r7, #7]
 8001426:	2b00      	cmp	r3, #0
 8001428:	d004      	beq.n	8001434 <L6470_ID+0x20>
 800142a:	79fb      	ldrb	r3, [r7, #7]
 800142c:	2b01      	cmp	r3, #1
 800142e:	d801      	bhi.n	8001434 <L6470_ID+0x20>
  {
    return (position);
 8001430:	79fb      	ldrb	r3, [r7, #7]
 8001432:	e000      	b.n	8001436 <L6470_ID+0x22>
  }
  else
  {
    return 0xFF;
 8001434:	23ff      	movs	r3, #255	; 0xff
  }
}
 8001436:	4618      	mov	r0, r3
 8001438:	370c      	adds	r7, #12
 800143a:	46bd      	mov	sp, r7
 800143c:	f85d 7b04 	ldr.w	r7, [sp], #4
 8001440:	4770      	bx	lr
	...

08001444 <L6470_DaisyChainCommand>:
  * @brief  Send command to the L6470 daisy chain via SPI
  * @param  pL6470_DaisyChainSpiTxStruct  Pointer to the matrix array of bytes to be sent to the daisy chain L6470
  * @param  pL6470_DaisyChainSpiRxStruct  Pointer to the matrix array of bytes to be received from the daisy chain L6470
  */
void L6470_DaisyChainCommand(uint8_t* pL6470_DaisyChainSpiTxStruct, uint8_t* pL6470_DaisyChainSpiRxStruct)
{
 8001444:	b580      	push	{r7, lr}
 8001446:	b086      	sub	sp, #24
 8001448:	af02      	add	r7, sp, #8
 800144a:	6078      	str	r0, [r7, #4]
 800144c:	6039      	str	r1, [r7, #0]
  uint8_t spibyte;
  
  L6470_DaisyChain_HalfPrepared = ZERO_F;
 800144e:	4b20      	ldr	r3, [pc, #128]	; (80014d0 <L6470_DaisyChainCommand+0x8c>)
 8001450:	2200      	movs	r2, #0
 8001452:	701a      	strb	r2, [r3, #0]
  
  /* Send all command bytes via SPI */
  for(spibyte=0; spibyte < L6470MAXSPICMDBYTESIZE; spibyte++)
 8001454:	2300      	movs	r3, #0
 8001456:	73fb      	strb	r3, [r7, #15]
 8001458:	e031      	b.n	80014be <L6470_DaisyChainCommand+0x7a>
  {
    /* Enable SPI communication for L6470 */
    L6470_nCS_LOW();
 800145a:	4b1e      	ldr	r3, [pc, #120]	; (80014d4 <L6470_DaisyChainCommand+0x90>)
 800145c:	685b      	ldr	r3, [r3, #4]
 800145e:	4a1d      	ldr	r2, [pc, #116]	; (80014d4 <L6470_DaisyChainCommand+0x90>)
 8001460:	8911      	ldrh	r1, [r2, #8]
 8001462:	2200      	movs	r2, #0
 8001464:	4618      	mov	r0, r3
 8001466:	f003 f839 	bl	80044dc <HAL_GPIO_WritePin>
    
    /* Send the command via SPI */
    L6470_SPI_Communication(&HSPI, (pL6470_DaisyChainSpiTxStruct+(spibyte * L6470DAISYCHAINSIZE)), (pL6470_DaisyChainSpiRxStruct+(spibyte * L6470DAISYCHAINSIZE)), L6470DAISYCHAINSIZE, 10);
 800146a:	7bfb      	ldrb	r3, [r7, #15]
 800146c:	005b      	lsls	r3, r3, #1
 800146e:	461a      	mov	r2, r3
 8001470:	687b      	ldr	r3, [r7, #4]
 8001472:	1899      	adds	r1, r3, r2
 8001474:	7bfb      	ldrb	r3, [r7, #15]
 8001476:	005b      	lsls	r3, r3, #1
 8001478:	461a      	mov	r2, r3
 800147a:	683b      	ldr	r3, [r7, #0]
 800147c:	441a      	add	r2, r3
 800147e:	230a      	movs	r3, #10
 8001480:	9300      	str	r3, [sp, #0]
 8001482:	2302      	movs	r3, #2
 8001484:	4814      	ldr	r0, [pc, #80]	; (80014d8 <L6470_DaisyChainCommand+0x94>)
 8001486:	f004 fbd4 	bl	8005c32 <HAL_SPI_TransmitReceive>
    
    /* Allow the device to decode the received command */
    L6470_nCS_HIGH();
 800148a:	4b12      	ldr	r3, [pc, #72]	; (80014d4 <L6470_DaisyChainCommand+0x90>)
 800148c:	685b      	ldr	r3, [r3, #4]
 800148e:	4a11      	ldr	r2, [pc, #68]	; (80014d4 <L6470_DaisyChainCommand+0x90>)
 8001490:	8911      	ldrh	r1, [r2, #8]
 8001492:	2201      	movs	r2, #1
 8001494:	4618      	mov	r0, r3
 8001496:	f003 f821 	bl	80044dc <HAL_GPIO_WritePin>
    
    _DELAY(TDISCS);
 800149a:	4b10      	ldr	r3, [pc, #64]	; (80014dc <L6470_DaisyChainCommand+0x98>)
 800149c:	2200      	movs	r2, #0
 800149e:	701a      	strb	r2, [r3, #0]
 80014a0:	e006      	b.n	80014b0 <L6470_DaisyChainCommand+0x6c>
 80014a2:	bf00      	nop
 80014a4:	4b0d      	ldr	r3, [pc, #52]	; (80014dc <L6470_DaisyChainCommand+0x98>)
 80014a6:	781b      	ldrb	r3, [r3, #0]
 80014a8:	3301      	adds	r3, #1
 80014aa:	b2da      	uxtb	r2, r3
 80014ac:	4b0b      	ldr	r3, [pc, #44]	; (80014dc <L6470_DaisyChainCommand+0x98>)
 80014ae:	701a      	strb	r2, [r3, #0]
 80014b0:	4b0a      	ldr	r3, [pc, #40]	; (80014dc <L6470_DaisyChainCommand+0x98>)
 80014b2:	781b      	ldrb	r3, [r3, #0]
 80014b4:	2b13      	cmp	r3, #19
 80014b6:	d9f4      	bls.n	80014a2 <L6470_DaisyChainCommand+0x5e>
  for(spibyte=0; spibyte < L6470MAXSPICMDBYTESIZE; spibyte++)
 80014b8:	7bfb      	ldrb	r3, [r7, #15]
 80014ba:	3301      	adds	r3, #1
 80014bc:	73fb      	strb	r3, [r7, #15]
 80014be:	7bfb      	ldrb	r3, [r7, #15]
 80014c0:	2b03      	cmp	r3, #3
 80014c2:	d9ca      	bls.n	800145a <L6470_DaisyChainCommand+0x16>
  }
}
 80014c4:	bf00      	nop
 80014c6:	bf00      	nop
 80014c8:	3710      	adds	r7, #16
 80014ca:	46bd      	mov	sp, r7
 80014cc:	bd80      	pop	{r7, pc}
 80014ce:	bf00      	nop
 80014d0:	20000368 	.word	0x20000368
 80014d4:	200003ac 	.word	0x200003ac
 80014d8:	20000558 	.word	0x20000558
 80014dc:	200003aa 	.word	0x200003aa

080014e0 <L6470_ExtractReturnedData>:
  * @param    pL6470_DaisyChainSpiRxStruct  uint8_t-pointer to the matrix that
  *           contains the received data by SPI from the L6470 daisy chain.
  * @param    LengthByte  The number of bytes about the received value.
  */
uint32_t L6470_ExtractReturnedData(uint8_t L6470_Id, uint8_t* pL6470_DaisyChainSpiRxStruct, uint8_t LengthByte)
{
 80014e0:	b480      	push	{r7}
 80014e2:	b085      	sub	sp, #20
 80014e4:	af00      	add	r7, sp, #0
 80014e6:	4603      	mov	r3, r0
 80014e8:	6039      	str	r1, [r7, #0]
 80014ea:	71fb      	strb	r3, [r7, #7]
 80014ec:	4613      	mov	r3, r2
 80014ee:	71bb      	strb	r3, [r7, #6]
  uint32_t value;
  uint8_t i;
  
  value = 0x000000;
 80014f0:	2300      	movs	r3, #0
 80014f2:	60fb      	str	r3, [r7, #12]
  for (i=1; i<=(L6470MAXSPICMDBYTESIZE-1); i++)
 80014f4:	2301      	movs	r3, #1
 80014f6:	72fb      	strb	r3, [r7, #11]
 80014f8:	e015      	b.n	8001526 <L6470_ExtractReturnedData+0x46>
  {
    value |= (*(pL6470_DaisyChainSpiRxStruct+(i*L6470DAISYCHAINSIZE)+L6470_Id))<<((LengthByte-i)*8);
 80014fa:	7afb      	ldrb	r3, [r7, #11]
 80014fc:	005b      	lsls	r3, r3, #1
 80014fe:	461a      	mov	r2, r3
 8001500:	79fb      	ldrb	r3, [r7, #7]
 8001502:	4413      	add	r3, r2
 8001504:	683a      	ldr	r2, [r7, #0]
 8001506:	4413      	add	r3, r2
 8001508:	781b      	ldrb	r3, [r3, #0]
 800150a:	4619      	mov	r1, r3
 800150c:	79ba      	ldrb	r2, [r7, #6]
 800150e:	7afb      	ldrb	r3, [r7, #11]
 8001510:	1ad3      	subs	r3, r2, r3
 8001512:	00db      	lsls	r3, r3, #3
 8001514:	fa01 f303 	lsl.w	r3, r1, r3
 8001518:	461a      	mov	r2, r3
 800151a:	68fb      	ldr	r3, [r7, #12]
 800151c:	4313      	orrs	r3, r2
 800151e:	60fb      	str	r3, [r7, #12]
  for (i=1; i<=(L6470MAXSPICMDBYTESIZE-1); i++)
 8001520:	7afb      	ldrb	r3, [r7, #11]
 8001522:	3301      	adds	r3, #1
 8001524:	72fb      	strb	r3, [r7, #11]
 8001526:	7afb      	ldrb	r3, [r7, #11]
 8001528:	2b03      	cmp	r3, #3
 800152a:	d9e6      	bls.n	80014fa <L6470_ExtractReturnedData+0x1a>
  }
  
  return value;
 800152c:	68fb      	ldr	r3, [r7, #12]
}
 800152e:	4618      	mov	r0, r3
 8001530:	3714      	adds	r7, #20
 8001532:	46bd      	mov	sp, r7
 8001534:	f85d 7b04 	ldr.w	r7, [sp], #4
 8001538:	4770      	bx	lr
	...

0800153c <L6470_CheckStatusRegisterFlag>:
  *
  * @retval state The flag state.
  */

uint8_t L6470_CheckStatusRegisterFlag(uint8_t L6470_Id, uint8_t L6470_StatusRegisterFlagId)
{
 800153c:	b580      	push	{r7, lr}
 800153e:	b084      	sub	sp, #16
 8001540:	af00      	add	r7, sp, #0
 8001542:	4603      	mov	r3, r0
 8001544:	460a      	mov	r2, r1
 8001546:	71fb      	strb	r3, [r7, #7]
 8001548:	4613      	mov	r3, r2
 800154a:	71bb      	strb	r3, [r7, #6]
  uint8_t state = 0;
 800154c:	2300      	movs	r3, #0
 800154e:	73fb      	strb	r3, [r7, #15]
  
  *((uint16_t*)pL6470_StatusRegister) = L6470_GetParam(L6470_Id, L6470_STATUS_ID);
 8001550:	79fb      	ldrb	r3, [r7, #7]
 8001552:	2118      	movs	r1, #24
 8001554:	4618      	mov	r0, r3
 8001556:	f7ff fb1f 	bl	8000b98 <L6470_GetParam>
 800155a:	4602      	mov	r2, r0
 800155c:	4b53      	ldr	r3, [pc, #332]	; (80016ac <L6470_CheckStatusRegisterFlag+0x170>)
 800155e:	681b      	ldr	r3, [r3, #0]
 8001560:	b292      	uxth	r2, r2
 8001562:	801a      	strh	r2, [r3, #0]
  
  switch(L6470_StatusRegisterFlagId)
 8001564:	79bb      	ldrb	r3, [r7, #6]
 8001566:	2b0e      	cmp	r3, #14
 8001568:	f200 809a 	bhi.w	80016a0 <L6470_CheckStatusRegisterFlag+0x164>
 800156c:	a201      	add	r2, pc, #4	; (adr r2, 8001574 <L6470_CheckStatusRegisterFlag+0x38>)
 800156e:	f852 f023 	ldr.w	pc, [r2, r3, lsl #2]
 8001572:	bf00      	nop
 8001574:	080015b1 	.word	0x080015b1
 8001578:	080015c1 	.word	0x080015c1
 800157c:	080015d1 	.word	0x080015d1
 8001580:	080015e1 	.word	0x080015e1
 8001584:	080015f1 	.word	0x080015f1
 8001588:	08001601 	.word	0x08001601
 800158c:	08001611 	.word	0x08001611
 8001590:	08001621 	.word	0x08001621
 8001594:	08001631 	.word	0x08001631
 8001598:	08001641 	.word	0x08001641
 800159c:	08001651 	.word	0x08001651
 80015a0:	08001661 	.word	0x08001661
 80015a4:	08001671 	.word	0x08001671
 80015a8:	08001681 	.word	0x08001681
 80015ac:	08001691 	.word	0x08001691
  {
  case HiZ_ID:
    state = pL6470_StatusRegister->HiZ;
 80015b0:	4b3e      	ldr	r3, [pc, #248]	; (80016ac <L6470_CheckStatusRegisterFlag+0x170>)
 80015b2:	681b      	ldr	r3, [r3, #0]
 80015b4:	781b      	ldrb	r3, [r3, #0]
 80015b6:	f3c3 0300 	ubfx	r3, r3, #0, #1
 80015ba:	b2db      	uxtb	r3, r3
 80015bc:	73fb      	strb	r3, [r7, #15]
    break;
 80015be:	e06f      	b.n	80016a0 <L6470_CheckStatusRegisterFlag+0x164>
  case BUSY_ID:
    state = pL6470_StatusRegister->BUSY;
 80015c0:	4b3a      	ldr	r3, [pc, #232]	; (80016ac <L6470_CheckStatusRegisterFlag+0x170>)
 80015c2:	681b      	ldr	r3, [r3, #0]
 80015c4:	781b      	ldrb	r3, [r3, #0]
 80015c6:	f3c3 0340 	ubfx	r3, r3, #1, #1
 80015ca:	b2db      	uxtb	r3, r3
 80015cc:	73fb      	strb	r3, [r7, #15]
    break;
 80015ce:	e067      	b.n	80016a0 <L6470_CheckStatusRegisterFlag+0x164>
  case SW_F_ID:
    state = pL6470_StatusRegister->SW_F;
 80015d0:	4b36      	ldr	r3, [pc, #216]	; (80016ac <L6470_CheckStatusRegisterFlag+0x170>)
 80015d2:	681b      	ldr	r3, [r3, #0]
 80015d4:	781b      	ldrb	r3, [r3, #0]
 80015d6:	f3c3 0380 	ubfx	r3, r3, #2, #1
 80015da:	b2db      	uxtb	r3, r3
 80015dc:	73fb      	strb	r3, [r7, #15]
    break;
 80015de:	e05f      	b.n	80016a0 <L6470_CheckStatusRegisterFlag+0x164>
  case SW_EVN_ID:
    state = pL6470_StatusRegister->SW_EVN;
 80015e0:	4b32      	ldr	r3, [pc, #200]	; (80016ac <L6470_CheckStatusRegisterFlag+0x170>)
 80015e2:	681b      	ldr	r3, [r3, #0]
 80015e4:	781b      	ldrb	r3, [r3, #0]
 80015e6:	f3c3 03c0 	ubfx	r3, r3, #3, #1
 80015ea:	b2db      	uxtb	r3, r3
 80015ec:	73fb      	strb	r3, [r7, #15]
    break;
 80015ee:	e057      	b.n	80016a0 <L6470_CheckStatusRegisterFlag+0x164>
  case DIR_ID:
    state = pL6470_StatusRegister->DIR;
 80015f0:	4b2e      	ldr	r3, [pc, #184]	; (80016ac <L6470_CheckStatusRegisterFlag+0x170>)
 80015f2:	681b      	ldr	r3, [r3, #0]
 80015f4:	781b      	ldrb	r3, [r3, #0]
 80015f6:	f3c3 1300 	ubfx	r3, r3, #4, #1
 80015fa:	b2db      	uxtb	r3, r3
 80015fc:	73fb      	strb	r3, [r7, #15]
    break;
 80015fe:	e04f      	b.n	80016a0 <L6470_CheckStatusRegisterFlag+0x164>
  case MOT_STATUS_ID:
    state = pL6470_StatusRegister->MOT_STATUS;
 8001600:	4b2a      	ldr	r3, [pc, #168]	; (80016ac <L6470_CheckStatusRegisterFlag+0x170>)
 8001602:	681b      	ldr	r3, [r3, #0]
 8001604:	781b      	ldrb	r3, [r3, #0]
 8001606:	f3c3 1341 	ubfx	r3, r3, #5, #2
 800160a:	b2db      	uxtb	r3, r3
 800160c:	73fb      	strb	r3, [r7, #15]
    break;
 800160e:	e047      	b.n	80016a0 <L6470_CheckStatusRegisterFlag+0x164>
  case NOTPERF_CMD_ID:
    state = pL6470_StatusRegister->NOTPERF_CMD;
 8001610:	4b26      	ldr	r3, [pc, #152]	; (80016ac <L6470_CheckStatusRegisterFlag+0x170>)
 8001612:	681b      	ldr	r3, [r3, #0]
 8001614:	781b      	ldrb	r3, [r3, #0]
 8001616:	f3c3 13c0 	ubfx	r3, r3, #7, #1
 800161a:	b2db      	uxtb	r3, r3
 800161c:	73fb      	strb	r3, [r7, #15]
    break;
 800161e:	e03f      	b.n	80016a0 <L6470_CheckStatusRegisterFlag+0x164>
  case WRONG_CMD_ID:
    state = pL6470_StatusRegister->WRONG_CMD;
 8001620:	4b22      	ldr	r3, [pc, #136]	; (80016ac <L6470_CheckStatusRegisterFlag+0x170>)
 8001622:	681b      	ldr	r3, [r3, #0]
 8001624:	785b      	ldrb	r3, [r3, #1]
 8001626:	f3c3 0300 	ubfx	r3, r3, #0, #1
 800162a:	b2db      	uxtb	r3, r3
 800162c:	73fb      	strb	r3, [r7, #15]
    break;
 800162e:	e037      	b.n	80016a0 <L6470_CheckStatusRegisterFlag+0x164>
  case UVLO_ID:
    state = pL6470_StatusRegister->UVLO;
 8001630:	4b1e      	ldr	r3, [pc, #120]	; (80016ac <L6470_CheckStatusRegisterFlag+0x170>)
 8001632:	681b      	ldr	r3, [r3, #0]
 8001634:	785b      	ldrb	r3, [r3, #1]
 8001636:	f3c3 0340 	ubfx	r3, r3, #1, #1
 800163a:	b2db      	uxtb	r3, r3
 800163c:	73fb      	strb	r3, [r7, #15]
    break;
 800163e:	e02f      	b.n	80016a0 <L6470_CheckStatusRegisterFlag+0x164>
  case TH_WRN_ID:
    state = pL6470_StatusRegister->TH_WRN;
 8001640:	4b1a      	ldr	r3, [pc, #104]	; (80016ac <L6470_CheckStatusRegisterFlag+0x170>)
 8001642:	681b      	ldr	r3, [r3, #0]
 8001644:	785b      	ldrb	r3, [r3, #1]
 8001646:	f3c3 0380 	ubfx	r3, r3, #2, #1
 800164a:	b2db      	uxtb	r3, r3
 800164c:	73fb      	strb	r3, [r7, #15]
    break;
 800164e:	e027      	b.n	80016a0 <L6470_CheckStatusRegisterFlag+0x164>
  case TH_SD_ID:
    state = pL6470_StatusRegister->TH_SD;
 8001650:	4b16      	ldr	r3, [pc, #88]	; (80016ac <L6470_CheckStatusRegisterFlag+0x170>)
 8001652:	681b      	ldr	r3, [r3, #0]
 8001654:	785b      	ldrb	r3, [r3, #1]
 8001656:	f3c3 03c0 	ubfx	r3, r3, #3, #1
 800165a:	b2db      	uxtb	r3, r3
 800165c:	73fb      	strb	r3, [r7, #15]
    break;
 800165e:	e01f      	b.n	80016a0 <L6470_CheckStatusRegisterFlag+0x164>
  case OCD_ID:
    state = pL6470_StatusRegister->OCD;
 8001660:	4b12      	ldr	r3, [pc, #72]	; (80016ac <L6470_CheckStatusRegisterFlag+0x170>)
 8001662:	681b      	ldr	r3, [r3, #0]
 8001664:	785b      	ldrb	r3, [r3, #1]
 8001666:	f3c3 1300 	ubfx	r3, r3, #4, #1
 800166a:	b2db      	uxtb	r3, r3
 800166c:	73fb      	strb	r3, [r7, #15]
    break;
 800166e:	e017      	b.n	80016a0 <L6470_CheckStatusRegisterFlag+0x164>
  case STEP_LOSS_A_ID:
    state = pL6470_StatusRegister->STEP_LOSS_A;
 8001670:	4b0e      	ldr	r3, [pc, #56]	; (80016ac <L6470_CheckStatusRegisterFlag+0x170>)
 8001672:	681b      	ldr	r3, [r3, #0]
 8001674:	785b      	ldrb	r3, [r3, #1]
 8001676:	f3c3 1340 	ubfx	r3, r3, #5, #1
 800167a:	b2db      	uxtb	r3, r3
 800167c:	73fb      	strb	r3, [r7, #15]
    break;
 800167e:	e00f      	b.n	80016a0 <L6470_CheckStatusRegisterFlag+0x164>
  case STEP_LOSS_B_ID:
    state = pL6470_StatusRegister->STEP_LOSS_B;
 8001680:	4b0a      	ldr	r3, [pc, #40]	; (80016ac <L6470_CheckStatusRegisterFlag+0x170>)
 8001682:	681b      	ldr	r3, [r3, #0]
 8001684:	785b      	ldrb	r3, [r3, #1]
 8001686:	f3c3 1380 	ubfx	r3, r3, #6, #1
 800168a:	b2db      	uxtb	r3, r3
 800168c:	73fb      	strb	r3, [r7, #15]
    break;
 800168e:	e007      	b.n	80016a0 <L6470_CheckStatusRegisterFlag+0x164>
  case SCK_MOD_ID:
    state = pL6470_StatusRegister->SCK_MOD;
 8001690:	4b06      	ldr	r3, [pc, #24]	; (80016ac <L6470_CheckStatusRegisterFlag+0x170>)
 8001692:	681b      	ldr	r3, [r3, #0]
 8001694:	785b      	ldrb	r3, [r3, #1]
 8001696:	f3c3 13c0 	ubfx	r3, r3, #7, #1
 800169a:	b2db      	uxtb	r3, r3
 800169c:	73fb      	strb	r3, [r7, #15]
    break;
 800169e:	bf00      	nop
  }
  
  return state;
 80016a0:	7bfb      	ldrb	r3, [r7, #15]
}
 80016a2:	4618      	mov	r0, r3
 80016a4:	3710      	adds	r7, #16
 80016a6:	46bd      	mov	sp, r7
 80016a8:	bd80      	pop	{r7, pc}
 80016aa:	bf00      	nop
 80016ac:	20000094 	.word	0x20000094

080016b0 <L6470_GetRegisterName>:
/**
  * @brief  Return the mnemonic name for the L6470 register.
  * @param  id  The identifier of the L6470 register.
  */
uint8_t *L6470_GetRegisterName(uint8_t id)
{
 80016b0:	b480      	push	{r7}
 80016b2:	b083      	sub	sp, #12
 80016b4:	af00      	add	r7, sp, #0
 80016b6:	4603      	mov	r3, r0
 80016b8:	71fb      	strb	r3, [r7, #7]
  if (id < L6470REGIDSIZE)
 80016ba:	79fb      	ldrb	r3, [r7, #7]
 80016bc:	2b18      	cmp	r3, #24
 80016be:	d808      	bhi.n	80016d2 <L6470_GetRegisterName+0x22>
  {
    return (uint8_t*)L6470_Register[id].Name;
 80016c0:	79fa      	ldrb	r2, [r7, #7]
 80016c2:	4613      	mov	r3, r2
 80016c4:	009b      	lsls	r3, r3, #2
 80016c6:	4413      	add	r3, r2
 80016c8:	009b      	lsls	r3, r3, #2
 80016ca:	4a05      	ldr	r2, [pc, #20]	; (80016e0 <L6470_GetRegisterName+0x30>)
 80016cc:	4413      	add	r3, r2
 80016ce:	3301      	adds	r3, #1
 80016d0:	e000      	b.n	80016d4 <L6470_GetRegisterName+0x24>
  }
  else
  {
    return (uint8_t*)"";
 80016d2:	4b04      	ldr	r3, [pc, #16]	; (80016e4 <L6470_GetRegisterName+0x34>)
  }
}
 80016d4:	4618      	mov	r0, r3
 80016d6:	370c      	adds	r7, #12
 80016d8:	46bd      	mov	sp, r7
 80016da:	f85d 7b04 	ldr.w	r7, [sp], #4
 80016de:	4770      	bx	lr
 80016e0:	080073ac 	.word	0x080073ac
 80016e4:	08006f90 	.word	0x08006f90

080016e8 <L6470_Config>:
  * @brief  Configures the L6470 registers.
  * @param  StepperMotorDriverHandle_t* The pointer to the stepper motor driver handle structure.
  * @param  MotorParameterData_t* The pointer to the related parameter data structure.
  */
void L6470_Config(StepperMotorDriverHandle_t *StepperMotorDriverHandle, MotorParameterData_t *MotorParameterData)
{
 80016e8:	b580      	push	{r7, lr}
 80016ea:	b084      	sub	sp, #16
 80016ec:	af00      	add	r7, sp, #0
 80016ee:	60f8      	str	r0, [r7, #12]
 80016f0:	60b9      	str	r1, [r7, #8]
  /* Prepare the 'Register' field of StepperMotorDriverHandle */
  StepperMotorDriverHandle->Register.ACC = Step_s2_2_Acc(MotorParameterData->acc);
 80016f2:	68bb      	ldr	r3, [r7, #8]
 80016f4:	edd3 7a05 	vldr	s15, [r3, #20]
 80016f8:	eeb0 0a67 	vmov.f32	s0, s15
 80016fc:	f7ff f82c 	bl	8000758 <Step_s2_2_Acc>
 8001700:	4603      	mov	r3, r0
 8001702:	461a      	mov	r2, r3
 8001704:	68fb      	ldr	r3, [r7, #12]
 8001706:	839a      	strh	r2, [r3, #28]
  StepperMotorDriverHandle->Register.DEC = Step_s2_2_Dec(MotorParameterData->dec);
 8001708:	68bb      	ldr	r3, [r7, #8]
 800170a:	edd3 7a06 	vldr	s15, [r3, #24]
 800170e:	eeb0 0a67 	vmov.f32	s0, s15
 8001712:	f7ff f847 	bl	80007a4 <Step_s2_2_Dec>
 8001716:	4603      	mov	r3, r0
 8001718:	461a      	mov	r2, r3
 800171a:	68fb      	ldr	r3, [r7, #12]
 800171c:	83da      	strh	r2, [r3, #30]
  StepperMotorDriverHandle->Register.MAX_SPEED = Step_s_2_MaxSpeed(MotorParameterData->maxspeed);
 800171e:	68bb      	ldr	r3, [r7, #8]
 8001720:	edd3 7a07 	vldr	s15, [r3, #28]
 8001724:	eeb0 0a67 	vmov.f32	s0, s15
 8001728:	f7ff f862 	bl	80007f0 <Step_s_2_MaxSpeed>
 800172c:	4603      	mov	r3, r0
 800172e:	461a      	mov	r2, r3
 8001730:	68fb      	ldr	r3, [r7, #12]
 8001732:	841a      	strh	r2, [r3, #32]
  StepperMotorDriverHandle->Register.MIN_SPEED = Step_s_2_MinSpeed(MotorParameterData->minspeed);
 8001734:	68bb      	ldr	r3, [r7, #8]
 8001736:	edd3 7a08 	vldr	s15, [r3, #32]
 800173a:	eeb0 0a67 	vmov.f32	s0, s15
 800173e:	f7ff f87d 	bl	800083c <Step_s_2_MinSpeed>
 8001742:	4603      	mov	r3, r0
 8001744:	461a      	mov	r2, r3
 8001746:	68fb      	ldr	r3, [r7, #12]
 8001748:	845a      	strh	r2, [r3, #34]	; 0x22
  StepperMotorDriverHandle->Register.FS_SPD = Step_s_2_FsSpd(MotorParameterData->fsspd);
 800174a:	68bb      	ldr	r3, [r7, #8]
 800174c:	edd3 7a09 	vldr	s15, [r3, #36]	; 0x24
 8001750:	eeb0 0a67 	vmov.f32	s0, s15
 8001754:	f7ff f898 	bl	8000888 <Step_s_2_FsSpd>
 8001758:	4603      	mov	r3, r0
 800175a:	461a      	mov	r2, r3
 800175c:	68fb      	ldr	r3, [r7, #12]
 800175e:	849a      	strh	r2, [r3, #36]	; 0x24
  StepperMotorDriverHandle->Register.KVAL_HOLD = (uint8_t)((float)((float)(MotorParameterData->kvalhold * 256) / (MotorParameterData->motorvoltage)));
 8001760:	68bb      	ldr	r3, [r7, #8]
 8001762:	edd3 7a0a 	vldr	s15, [r3, #40]	; 0x28
 8001766:	ed9f 7aab 	vldr	s14, [pc, #684]	; 8001a14 <L6470_Config+0x32c>
 800176a:	ee67 6a87 	vmul.f32	s13, s15, s14
 800176e:	68bb      	ldr	r3, [r7, #8]
 8001770:	ed93 7a00 	vldr	s14, [r3]
 8001774:	eec6 7a87 	vdiv.f32	s15, s13, s14
 8001778:	eefc 7ae7 	vcvt.u32.f32	s15, s15
 800177c:	edc7 7a01 	vstr	s15, [r7, #4]
 8001780:	793b      	ldrb	r3, [r7, #4]
 8001782:	b2da      	uxtb	r2, r3
 8001784:	68fb      	ldr	r3, [r7, #12]
 8001786:	f883 2026 	strb.w	r2, [r3, #38]	; 0x26
  StepperMotorDriverHandle->Register.KVAL_RUN = (uint8_t)((float)((float)(MotorParameterData->kvalrun * 256) / (MotorParameterData->motorvoltage)));
 800178a:	68bb      	ldr	r3, [r7, #8]
 800178c:	edd3 7a0b 	vldr	s15, [r3, #44]	; 0x2c
 8001790:	ed9f 7aa0 	vldr	s14, [pc, #640]	; 8001a14 <L6470_Config+0x32c>
 8001794:	ee67 6a87 	vmul.f32	s13, s15, s14
 8001798:	68bb      	ldr	r3, [r7, #8]
 800179a:	ed93 7a00 	vldr	s14, [r3]
 800179e:	eec6 7a87 	vdiv.f32	s15, s13, s14
 80017a2:	eefc 7ae7 	vcvt.u32.f32	s15, s15
 80017a6:	edc7 7a01 	vstr	s15, [r7, #4]
 80017aa:	793b      	ldrb	r3, [r7, #4]
 80017ac:	b2da      	uxtb	r2, r3
 80017ae:	68fb      	ldr	r3, [r7, #12]
 80017b0:	f883 2027 	strb.w	r2, [r3, #39]	; 0x27
  StepperMotorDriverHandle->Register.KVAL_ACC = (uint8_t)((float)((float)(MotorParameterData->kvalacc * 256) / (MotorParameterData->motorvoltage)));
 80017b4:	68bb      	ldr	r3, [r7, #8]
 80017b6:	edd3 7a0c 	vldr	s15, [r3, #48]	; 0x30
 80017ba:	ed9f 7a96 	vldr	s14, [pc, #600]	; 8001a14 <L6470_Config+0x32c>
 80017be:	ee67 6a87 	vmul.f32	s13, s15, s14
 80017c2:	68bb      	ldr	r3, [r7, #8]
 80017c4:	ed93 7a00 	vldr	s14, [r3]
 80017c8:	eec6 7a87 	vdiv.f32	s15, s13, s14
 80017cc:	eefc 7ae7 	vcvt.u32.f32	s15, s15
 80017d0:	edc7 7a01 	vstr	s15, [r7, #4]
 80017d4:	793b      	ldrb	r3, [r7, #4]
 80017d6:	b2da      	uxtb	r2, r3
 80017d8:	68fb      	ldr	r3, [r7, #12]
 80017da:	f883 2028 	strb.w	r2, [r3, #40]	; 0x28
  StepperMotorDriverHandle->Register.KVAL_DEC = (uint8_t)((float)((float)(MotorParameterData->kvaldec * 256) / (MotorParameterData->motorvoltage)));
 80017de:	68bb      	ldr	r3, [r7, #8]
 80017e0:	edd3 7a0d 	vldr	s15, [r3, #52]	; 0x34
 80017e4:	ed9f 7a8b 	vldr	s14, [pc, #556]	; 8001a14 <L6470_Config+0x32c>
 80017e8:	ee67 6a87 	vmul.f32	s13, s15, s14
 80017ec:	68bb      	ldr	r3, [r7, #8]
 80017ee:	ed93 7a00 	vldr	s14, [r3]
 80017f2:	eec6 7a87 	vdiv.f32	s15, s13, s14
 80017f6:	eefc 7ae7 	vcvt.u32.f32	s15, s15
 80017fa:	edc7 7a01 	vstr	s15, [r7, #4]
 80017fe:	793b      	ldrb	r3, [r7, #4]
 8001800:	b2da      	uxtb	r2, r3
 8001802:	68fb      	ldr	r3, [r7, #12]
 8001804:	f883 2029 	strb.w	r2, [r3, #41]	; 0x29
  StepperMotorDriverHandle->Register.INT_SPEED = Step_s_2_IntSpeed(MotorParameterData->intspeed);
 8001808:	68bb      	ldr	r3, [r7, #8]
 800180a:	edd3 7a0e 	vldr	s15, [r3, #56]	; 0x38
 800180e:	eeb0 0a67 	vmov.f32	s0, s15
 8001812:	f7ff f863 	bl	80008dc <Step_s_2_IntSpeed>
 8001816:	4603      	mov	r3, r0
 8001818:	461a      	mov	r2, r3
 800181a:	68fb      	ldr	r3, [r7, #12]
 800181c:	855a      	strh	r2, [r3, #42]	; 0x2a
  StepperMotorDriverHandle->Register.ST_SLP = s_Step_2_StSlp(MotorParameterData->stslp);
 800181e:	68bb      	ldr	r3, [r7, #8]
 8001820:	edd3 7a0f 	vldr	s15, [r3, #60]	; 0x3c
 8001824:	eeb0 0a67 	vmov.f32	s0, s15
 8001828:	f7ff f87e 	bl	8000928 <s_Step_2_StSlp>
 800182c:	4603      	mov	r3, r0
 800182e:	461a      	mov	r2, r3
 8001830:	68fb      	ldr	r3, [r7, #12]
 8001832:	f883 202c 	strb.w	r2, [r3, #44]	; 0x2c
  StepperMotorDriverHandle->Register.FN_SLP_ACC = s_Step_2_FnSlpAcc(MotorParameterData->fnslpacc);
 8001836:	68bb      	ldr	r3, [r7, #8]
 8001838:	edd3 7a10 	vldr	s15, [r3, #64]	; 0x40
 800183c:	eeb0 0a67 	vmov.f32	s0, s15
 8001840:	f7ff f898 	bl	8000974 <s_Step_2_FnSlpAcc>
 8001844:	4603      	mov	r3, r0
 8001846:	461a      	mov	r2, r3
 8001848:	68fb      	ldr	r3, [r7, #12]
 800184a:	f883 202d 	strb.w	r2, [r3, #45]	; 0x2d
  StepperMotorDriverHandle->Register.FN_SLP_DEC = s_Step_2_FnSlpDec(MotorParameterData->fnslpdec);
 800184e:	68bb      	ldr	r3, [r7, #8]
 8001850:	edd3 7a11 	vldr	s15, [r3, #68]	; 0x44
 8001854:	eeb0 0a67 	vmov.f32	s0, s15
 8001858:	f7ff f8b2 	bl	80009c0 <s_Step_2_FnSlpDec>
 800185c:	4603      	mov	r3, r0
 800185e:	461a      	mov	r2, r3
 8001860:	68fb      	ldr	r3, [r7, #12]
 8001862:	f883 202e 	strb.w	r2, [r3, #46]	; 0x2e
  StepperMotorDriverHandle->Register.K_THERM = MotorParameterData->kterm;
 8001866:	68bb      	ldr	r3, [r7, #8]
 8001868:	f893 2048 	ldrb.w	r2, [r3, #72]	; 0x48
 800186c:	68fb      	ldr	r3, [r7, #12]
 800186e:	f883 202f 	strb.w	r2, [r3, #47]	; 0x2f
  StepperMotorDriverHandle->Register.OCD_TH = mA_2_OcdTh(MotorParameterData->ocdth);
 8001872:	68bb      	ldr	r3, [r7, #8]
 8001874:	edd3 7a13 	vldr	s15, [r3, #76]	; 0x4c
 8001878:	eeb0 0a67 	vmov.f32	s0, s15
 800187c:	f7ff f8c6 	bl	8000a0c <mA_2_OcdTh>
 8001880:	4603      	mov	r3, r0
 8001882:	461a      	mov	r2, r3
 8001884:	68fb      	ldr	r3, [r7, #12]
 8001886:	f883 2031 	strb.w	r2, [r3, #49]	; 0x31
  StepperMotorDriverHandle->Register.STALL_TH = mA_2_StallTh(MotorParameterData->stallth);
 800188a:	68bb      	ldr	r3, [r7, #8]
 800188c:	edd3 7a14 	vldr	s15, [r3, #80]	; 0x50
 8001890:	eeb0 0a67 	vmov.f32	s0, s15
 8001894:	f7ff f90a 	bl	8000aac <mA_2_StallTh>
 8001898:	4603      	mov	r3, r0
 800189a:	461a      	mov	r2, r3
 800189c:	68fb      	ldr	r3, [r7, #12]
 800189e:	f883 2032 	strb.w	r2, [r3, #50]	; 0x32
  StepperMotorDriverHandle->Register.STEP_MODE = MotorParameterData->step_sel;
 80018a2:	68bb      	ldr	r3, [r7, #8]
 80018a4:	f893 2054 	ldrb.w	r2, [r3, #84]	; 0x54
 80018a8:	68fb      	ldr	r3, [r7, #12]
 80018aa:	f883 2033 	strb.w	r2, [r3, #51]	; 0x33
  StepperMotorDriverHandle->Register.ALARM_EN = MotorParameterData->alarmen;
 80018ae:	68bb      	ldr	r3, [r7, #8]
 80018b0:	f893 2055 	ldrb.w	r2, [r3, #85]	; 0x55
 80018b4:	68fb      	ldr	r3, [r7, #12]
 80018b6:	f883 2034 	strb.w	r2, [r3, #52]	; 0x34
  StepperMotorDriverHandle->Register.CONFIG = MotorParameterData->config;
 80018ba:	68bb      	ldr	r3, [r7, #8]
 80018bc:	f8b3 2056 	ldrh.w	r2, [r3, #86]	; 0x56
 80018c0:	68fb      	ldr	r3, [r7, #12]
 80018c2:	86da      	strh	r2, [r3, #54]	; 0x36
  
  /* Write the L6470 registers with the prepared data */
  StepperMotorDriverHandle->Command->SetParam(StepperMotorDriverHandle->DaisyChainPosition, L6470_ACC_ID, StepperMotorDriverHandle->Register.ACC);
 80018c4:	68fb      	ldr	r3, [r7, #12]
 80018c6:	689b      	ldr	r3, [r3, #8]
 80018c8:	681b      	ldr	r3, [r3, #0]
 80018ca:	68fa      	ldr	r2, [r7, #12]
 80018cc:	7810      	ldrb	r0, [r2, #0]
 80018ce:	68fa      	ldr	r2, [r7, #12]
 80018d0:	8b92      	ldrh	r2, [r2, #28]
 80018d2:	2104      	movs	r1, #4
 80018d4:	4798      	blx	r3
  StepperMotorDriverHandle->Command->SetParam(StepperMotorDriverHandle->DaisyChainPosition, L6470_DEC_ID, StepperMotorDriverHandle->Register.DEC);
 80018d6:	68fb      	ldr	r3, [r7, #12]
 80018d8:	689b      	ldr	r3, [r3, #8]
 80018da:	681b      	ldr	r3, [r3, #0]
 80018dc:	68fa      	ldr	r2, [r7, #12]
 80018de:	7810      	ldrb	r0, [r2, #0]
 80018e0:	68fa      	ldr	r2, [r7, #12]
 80018e2:	8bd2      	ldrh	r2, [r2, #30]
 80018e4:	2105      	movs	r1, #5
 80018e6:	4798      	blx	r3
  StepperMotorDriverHandle->Command->SetParam(StepperMotorDriverHandle->DaisyChainPosition, L6470_MAX_SPEED_ID, StepperMotorDriverHandle->Register.MAX_SPEED);
 80018e8:	68fb      	ldr	r3, [r7, #12]
 80018ea:	689b      	ldr	r3, [r3, #8]
 80018ec:	681b      	ldr	r3, [r3, #0]
 80018ee:	68fa      	ldr	r2, [r7, #12]
 80018f0:	7810      	ldrb	r0, [r2, #0]
 80018f2:	68fa      	ldr	r2, [r7, #12]
 80018f4:	8c12      	ldrh	r2, [r2, #32]
 80018f6:	2106      	movs	r1, #6
 80018f8:	4798      	blx	r3
  StepperMotorDriverHandle->Command->SetParam(StepperMotorDriverHandle->DaisyChainPosition, L6470_MIN_SPEED_ID, StepperMotorDriverHandle->Register.MIN_SPEED);
 80018fa:	68fb      	ldr	r3, [r7, #12]
 80018fc:	689b      	ldr	r3, [r3, #8]
 80018fe:	681b      	ldr	r3, [r3, #0]
 8001900:	68fa      	ldr	r2, [r7, #12]
 8001902:	7810      	ldrb	r0, [r2, #0]
 8001904:	68fa      	ldr	r2, [r7, #12]
 8001906:	8c52      	ldrh	r2, [r2, #34]	; 0x22
 8001908:	2107      	movs	r1, #7
 800190a:	4798      	blx	r3
  StepperMotorDriverHandle->Command->SetParam(StepperMotorDriverHandle->DaisyChainPosition, L6470_FS_SPD_ID, StepperMotorDriverHandle->Register.FS_SPD);
 800190c:	68fb      	ldr	r3, [r7, #12]
 800190e:	689b      	ldr	r3, [r3, #8]
 8001910:	681b      	ldr	r3, [r3, #0]
 8001912:	68fa      	ldr	r2, [r7, #12]
 8001914:	7810      	ldrb	r0, [r2, #0]
 8001916:	68fa      	ldr	r2, [r7, #12]
 8001918:	8c92      	ldrh	r2, [r2, #36]	; 0x24
 800191a:	2108      	movs	r1, #8
 800191c:	4798      	blx	r3
  StepperMotorDriverHandle->Command->SetParam(StepperMotorDriverHandle->DaisyChainPosition, L6470_KVAL_HOLD_ID, StepperMotorDriverHandle->Register.KVAL_HOLD);
 800191e:	68fb      	ldr	r3, [r7, #12]
 8001920:	689b      	ldr	r3, [r3, #8]
 8001922:	681b      	ldr	r3, [r3, #0]
 8001924:	68fa      	ldr	r2, [r7, #12]
 8001926:	7810      	ldrb	r0, [r2, #0]
 8001928:	68fa      	ldr	r2, [r7, #12]
 800192a:	f892 2026 	ldrb.w	r2, [r2, #38]	; 0x26
 800192e:	2109      	movs	r1, #9
 8001930:	4798      	blx	r3
  StepperMotorDriverHandle->Command->SetParam(StepperMotorDriverHandle->DaisyChainPosition, L6470_KVAL_RUN_ID, StepperMotorDriverHandle->Register.KVAL_RUN);
 8001932:	68fb      	ldr	r3, [r7, #12]
 8001934:	689b      	ldr	r3, [r3, #8]
 8001936:	681b      	ldr	r3, [r3, #0]
 8001938:	68fa      	ldr	r2, [r7, #12]
 800193a:	7810      	ldrb	r0, [r2, #0]
 800193c:	68fa      	ldr	r2, [r7, #12]
 800193e:	f892 2027 	ldrb.w	r2, [r2, #39]	; 0x27
 8001942:	210a      	movs	r1, #10
 8001944:	4798      	blx	r3
  StepperMotorDriverHandle->Command->SetParam(StepperMotorDriverHandle->DaisyChainPosition, L6470_KVAL_ACC_ID, StepperMotorDriverHandle->Register.KVAL_ACC);
 8001946:	68fb      	ldr	r3, [r7, #12]
 8001948:	689b      	ldr	r3, [r3, #8]
 800194a:	681b      	ldr	r3, [r3, #0]
 800194c:	68fa      	ldr	r2, [r7, #12]
 800194e:	7810      	ldrb	r0, [r2, #0]
 8001950:	68fa      	ldr	r2, [r7, #12]
 8001952:	f892 2028 	ldrb.w	r2, [r2, #40]	; 0x28
 8001956:	210b      	movs	r1, #11
 8001958:	4798      	blx	r3
  StepperMotorDriverHandle->Command->SetParam(StepperMotorDriverHandle->DaisyChainPosition, L6470_KVAL_DEC_ID, StepperMotorDriverHandle->Register.KVAL_DEC);
 800195a:	68fb      	ldr	r3, [r7, #12]
 800195c:	689b      	ldr	r3, [r3, #8]
 800195e:	681b      	ldr	r3, [r3, #0]
 8001960:	68fa      	ldr	r2, [r7, #12]
 8001962:	7810      	ldrb	r0, [r2, #0]
 8001964:	68fa      	ldr	r2, [r7, #12]
 8001966:	f892 2029 	ldrb.w	r2, [r2, #41]	; 0x29
 800196a:	210c      	movs	r1, #12
 800196c:	4798      	blx	r3
  StepperMotorDriverHandle->Command->SetParam(StepperMotorDriverHandle->DaisyChainPosition, L6470_INT_SPEED_ID, StepperMotorDriverHandle->Register.INT_SPEED);
 800196e:	68fb      	ldr	r3, [r7, #12]
 8001970:	689b      	ldr	r3, [r3, #8]
 8001972:	681b      	ldr	r3, [r3, #0]
 8001974:	68fa      	ldr	r2, [r7, #12]
 8001976:	7810      	ldrb	r0, [r2, #0]
 8001978:	68fa      	ldr	r2, [r7, #12]
 800197a:	8d52      	ldrh	r2, [r2, #42]	; 0x2a
 800197c:	210d      	movs	r1, #13
 800197e:	4798      	blx	r3
  StepperMotorDriverHandle->Command->SetParam(StepperMotorDriverHandle->DaisyChainPosition, L6470_ST_SLP_ID, StepperMotorDriverHandle->Register.ST_SLP);
 8001980:	68fb      	ldr	r3, [r7, #12]
 8001982:	689b      	ldr	r3, [r3, #8]
 8001984:	681b      	ldr	r3, [r3, #0]
 8001986:	68fa      	ldr	r2, [r7, #12]
 8001988:	7810      	ldrb	r0, [r2, #0]
 800198a:	68fa      	ldr	r2, [r7, #12]
 800198c:	f892 202c 	ldrb.w	r2, [r2, #44]	; 0x2c
 8001990:	210e      	movs	r1, #14
 8001992:	4798      	blx	r3
  StepperMotorDriverHandle->Command->SetParam(StepperMotorDriverHandle->DaisyChainPosition, L6470_FN_SLP_ACC_ID, StepperMotorDriverHandle->Register.FN_SLP_ACC);
 8001994:	68fb      	ldr	r3, [r7, #12]
 8001996:	689b      	ldr	r3, [r3, #8]
 8001998:	681b      	ldr	r3, [r3, #0]
 800199a:	68fa      	ldr	r2, [r7, #12]
 800199c:	7810      	ldrb	r0, [r2, #0]
 800199e:	68fa      	ldr	r2, [r7, #12]
 80019a0:	f892 202d 	ldrb.w	r2, [r2, #45]	; 0x2d
 80019a4:	210f      	movs	r1, #15
 80019a6:	4798      	blx	r3
  StepperMotorDriverHandle->Command->SetParam(StepperMotorDriverHandle->DaisyChainPosition, L6470_FN_SLP_DEC_ID, StepperMotorDriverHandle->Register.FN_SLP_DEC);
 80019a8:	68fb      	ldr	r3, [r7, #12]
 80019aa:	689b      	ldr	r3, [r3, #8]
 80019ac:	681b      	ldr	r3, [r3, #0]
 80019ae:	68fa      	ldr	r2, [r7, #12]
 80019b0:	7810      	ldrb	r0, [r2, #0]
 80019b2:	68fa      	ldr	r2, [r7, #12]
 80019b4:	f892 202e 	ldrb.w	r2, [r2, #46]	; 0x2e
 80019b8:	2110      	movs	r1, #16
 80019ba:	4798      	blx	r3
  StepperMotorDriverHandle->Command->SetParam(StepperMotorDriverHandle->DaisyChainPosition, L6470_K_THERM_ID, StepperMotorDriverHandle->Register.K_THERM);
 80019bc:	68fb      	ldr	r3, [r7, #12]
 80019be:	689b      	ldr	r3, [r3, #8]
 80019c0:	681b      	ldr	r3, [r3, #0]
 80019c2:	68fa      	ldr	r2, [r7, #12]
 80019c4:	7810      	ldrb	r0, [r2, #0]
 80019c6:	68fa      	ldr	r2, [r7, #12]
 80019c8:	f892 202f 	ldrb.w	r2, [r2, #47]	; 0x2f
 80019cc:	2111      	movs	r1, #17
 80019ce:	4798      	blx	r3
  StepperMotorDriverHandle->Command->SetParam(StepperMotorDriverHandle->DaisyChainPosition, L6470_OCD_TH_ID, StepperMotorDriverHandle->Register.OCD_TH);
 80019d0:	68fb      	ldr	r3, [r7, #12]
 80019d2:	689b      	ldr	r3, [r3, #8]
 80019d4:	681b      	ldr	r3, [r3, #0]
 80019d6:	68fa      	ldr	r2, [r7, #12]
 80019d8:	7810      	ldrb	r0, [r2, #0]
 80019da:	68fa      	ldr	r2, [r7, #12]
 80019dc:	f892 2031 	ldrb.w	r2, [r2, #49]	; 0x31
 80019e0:	2113      	movs	r1, #19
 80019e2:	4798      	blx	r3
  StepperMotorDriverHandle->Command->SetParam(StepperMotorDriverHandle->DaisyChainPosition, L6470_STALL_TH_ID, StepperMotorDriverHandle->Register.STALL_TH);
 80019e4:	68fb      	ldr	r3, [r7, #12]
 80019e6:	689b      	ldr	r3, [r3, #8]
 80019e8:	681b      	ldr	r3, [r3, #0]
 80019ea:	68fa      	ldr	r2, [r7, #12]
 80019ec:	7810      	ldrb	r0, [r2, #0]
 80019ee:	68fa      	ldr	r2, [r7, #12]
 80019f0:	f892 2032 	ldrb.w	r2, [r2, #50]	; 0x32
 80019f4:	2114      	movs	r1, #20
 80019f6:	4798      	blx	r3
  StepperMotorDriverHandle->Command->SetParam(StepperMotorDriverHandle->DaisyChainPosition, L6470_STEP_MODE_ID, StepperMotorDriverHandle->Register.STEP_MODE);
 80019f8:	68fb      	ldr	r3, [r7, #12]
 80019fa:	689b      	ldr	r3, [r3, #8]
 80019fc:	681b      	ldr	r3, [r3, #0]
 80019fe:	68fa      	ldr	r2, [r7, #12]
 8001a00:	7810      	ldrb	r0, [r2, #0]
 8001a02:	68fa      	ldr	r2, [r7, #12]
 8001a04:	f892 2033 	ldrb.w	r2, [r2, #51]	; 0x33
 8001a08:	2115      	movs	r1, #21
 8001a0a:	4798      	blx	r3
  StepperMotorDriverHandle->Command->SetParam(StepperMotorDriverHandle->DaisyChainPosition, L6470_ALARM_EN_ID, StepperMotorDriverHandle->Register.ALARM_EN);
 8001a0c:	68fb      	ldr	r3, [r7, #12]
 8001a0e:	689b      	ldr	r3, [r3, #8]
 8001a10:	681b      	ldr	r3, [r3, #0]
 8001a12:	e001      	b.n	8001a18 <L6470_Config+0x330>
 8001a14:	43800000 	.word	0x43800000
 8001a18:	68fa      	ldr	r2, [r7, #12]
 8001a1a:	7810      	ldrb	r0, [r2, #0]
 8001a1c:	68fa      	ldr	r2, [r7, #12]
 8001a1e:	f892 2034 	ldrb.w	r2, [r2, #52]	; 0x34
 8001a22:	2116      	movs	r1, #22
 8001a24:	4798      	blx	r3
  StepperMotorDriverHandle->Command->SetParam(StepperMotorDriverHandle->DaisyChainPosition, L6470_CONFIG_ID, StepperMotorDriverHandle->Register.CONFIG);
 8001a26:	68fb      	ldr	r3, [r7, #12]
 8001a28:	689b      	ldr	r3, [r3, #8]
 8001a2a:	681b      	ldr	r3, [r3, #0]
 8001a2c:	68fa      	ldr	r2, [r7, #12]
 8001a2e:	7810      	ldrb	r0, [r2, #0]
 8001a30:	68fa      	ldr	r2, [r7, #12]
 8001a32:	8ed2      	ldrh	r2, [r2, #54]	; 0x36
 8001a34:	2117      	movs	r1, #23
 8001a36:	4798      	blx	r3
}
 8001a38:	bf00      	nop
 8001a3a:	3710      	adds	r7, #16
 8001a3c:	46bd      	mov	sp, r7
 8001a3e:	bd80      	pop	{r7, pc}

08001a40 <BSP_L6470_Init>:

/**
  * @brief  Initialize the X-NUCLEO-IHM02A1 mounted board and theirs L6470 devices.
  */
void BSP_L6470_Init(void)
{
 8001a40:	b580      	push	{r7, lr}
 8001a42:	b082      	sub	sp, #8
 8001a44:	af00      	add	r7, sp, #0
  uint8_t ExpBrd;                     /* to index the expansion board to be addressed */
  uint8_t L6470_Id;                   /* to index the L6470 to be addressed */
  
  /* Disable the L6470 */
  L6470_DISABLE();
 8001a46:	4b28      	ldr	r3, [pc, #160]	; (8001ae8 <BSP_L6470_Init+0xa8>)
 8001a48:	685b      	ldr	r3, [r3, #4]
 8001a4a:	4a27      	ldr	r2, [pc, #156]	; (8001ae8 <BSP_L6470_Init+0xa8>)
 8001a4c:	8911      	ldrh	r1, [r2, #8]
 8001a4e:	2200      	movs	r2, #0
 8001a50:	4618      	mov	r0, r3
 8001a52:	f002 fd43 	bl	80044dc <HAL_GPIO_WritePin>
  
  /* Enable the L6470 */
  L6470_ENABLE();
 8001a56:	4b24      	ldr	r3, [pc, #144]	; (8001ae8 <BSP_L6470_Init+0xa8>)
 8001a58:	685b      	ldr	r3, [r3, #4]
 8001a5a:	4a23      	ldr	r2, [pc, #140]	; (8001ae8 <BSP_L6470_Init+0xa8>)
 8001a5c:	8911      	ldrh	r1, [r2, #8]
 8001a5e:	2201      	movs	r2, #1
 8001a60:	4618      	mov	r0, r3
 8001a62:	f002 fd3b 	bl	80044dc <HAL_GPIO_WritePin>
  
  /* Initialize all mounted L6470 for each stacked X-NUCLEO-IHM02A1 */
  for (ExpBrd = EXPBRD_ID(0); ExpBrd <= EXPBRD_ID(EXPBRD_MOUNTED_NR-1); ExpBrd++)
 8001a66:	2000      	movs	r0, #0
 8001a68:	f000 fa45 	bl	8001ef6 <EXPBRD_ID>
 8001a6c:	4603      	mov	r3, r0
 8001a6e:	71fb      	strb	r3, [r7, #7]
 8001a70:	e027      	b.n	8001ac2 <BSP_L6470_Init+0x82>
  {
    /* Select the used GPIO for the L6470 nCS mounted on the addressed X-NUCLEO-IHM02A1 */
    BSP_Select(ExpBrd);
 8001a72:	79fb      	ldrb	r3, [r7, #7]
 8001a74:	4618      	mov	r0, r3
 8001a76:	f000 fa4f 	bl	8001f18 <BSP_Select>
    
    /* Disable SPI communication for L6470 */
    L6470_nCS_HIGH();
 8001a7a:	4b1c      	ldr	r3, [pc, #112]	; (8001aec <BSP_L6470_Init+0xac>)
 8001a7c:	685b      	ldr	r3, [r3, #4]
 8001a7e:	4a1b      	ldr	r2, [pc, #108]	; (8001aec <BSP_L6470_Init+0xac>)
 8001a80:	8911      	ldrh	r1, [r2, #8]
 8001a82:	2201      	movs	r2, #1
 8001a84:	4618      	mov	r0, r3
 8001a86:	f002 fd29 	bl	80044dc <HAL_GPIO_WritePin>
    
    for (L6470_Id = L6470_ID(0); L6470_Id<=L6470_ID(L6470DAISYCHAINSIZE-1); L6470_Id++)
 8001a8a:	2000      	movs	r0, #0
 8001a8c:	f7ff fcc2 	bl	8001414 <L6470_ID>
 8001a90:	4603      	mov	r3, r0
 8001a92:	71bb      	strb	r3, [r7, #6]
 8001a94:	e00a      	b.n	8001aac <BSP_L6470_Init+0x6c>
    {
      /* Reset the devices */
      L6470_ResetDevice(L6470_Id);
 8001a96:	79bb      	ldrb	r3, [r7, #6]
 8001a98:	4618      	mov	r0, r3
 8001a9a:	f7ff fa29 	bl	8000ef0 <L6470_ResetDevice>
      
      /* Reset all Status Register Flags */
      L6470_GetStatus(L6470_Id);
 8001a9e:	79bb      	ldrb	r3, [r7, #6]
 8001aa0:	4618      	mov	r0, r3
 8001aa2:	f7ff facf 	bl	8001044 <L6470_GetStatus>
    for (L6470_Id = L6470_ID(0); L6470_Id<=L6470_ID(L6470DAISYCHAINSIZE-1); L6470_Id++)
 8001aa6:	79bb      	ldrb	r3, [r7, #6]
 8001aa8:	3301      	adds	r3, #1
 8001aaa:	71bb      	strb	r3, [r7, #6]
 8001aac:	2001      	movs	r0, #1
 8001aae:	f7ff fcb1 	bl	8001414 <L6470_ID>
 8001ab2:	4603      	mov	r3, r0
 8001ab4:	461a      	mov	r2, r3
 8001ab6:	79bb      	ldrb	r3, [r7, #6]
 8001ab8:	4293      	cmp	r3, r2
 8001aba:	d9ec      	bls.n	8001a96 <BSP_L6470_Init+0x56>
  for (ExpBrd = EXPBRD_ID(0); ExpBrd <= EXPBRD_ID(EXPBRD_MOUNTED_NR-1); ExpBrd++)
 8001abc:	79fb      	ldrb	r3, [r7, #7]
 8001abe:	3301      	adds	r3, #1
 8001ac0:	71fb      	strb	r3, [r7, #7]
 8001ac2:	2000      	movs	r0, #0
 8001ac4:	f000 fa17 	bl	8001ef6 <EXPBRD_ID>
 8001ac8:	4603      	mov	r3, r0
 8001aca:	461a      	mov	r2, r3
 8001acc:	79fb      	ldrb	r3, [r7, #7]
 8001ace:	4293      	cmp	r3, r2
 8001ad0:	d9cf      	bls.n	8001a72 <BSP_L6470_Init+0x32>
    }
  }
 
  /* Select the default X-NUCLEO-IHM02A1 to be addressed by SPI */
  BSP_Select(EXPBRD_ID(0));
 8001ad2:	2000      	movs	r0, #0
 8001ad4:	f000 fa0f 	bl	8001ef6 <EXPBRD_ID>
 8001ad8:	4603      	mov	r3, r0
 8001ada:	4618      	mov	r0, r3
 8001adc:	f000 fa1c 	bl	8001f18 <BSP_Select>
}
 8001ae0:	bf00      	nop
 8001ae2:	3708      	adds	r7, #8
 8001ae4:	46bd      	mov	sp, r7
 8001ae6:	bd80      	pop	{r7, pc}
 8001ae8:	20000328 	.word	0x20000328
 8001aec:	200003ac 	.word	0x200003ac

08001af0 <BSP_IRQ>:

/**
  * @brief  Enable the IRQ for the nBUSY_SYNC and the nFLAG of the X-NUCLEO-IHM02A1
  */
void BSP_IRQ(FunctionalState fs)
{
 8001af0:	b580      	push	{r7, lr}
 8001af2:	b082      	sub	sp, #8
 8001af4:	af00      	add	r7, sp, #0
 8001af6:	4603      	mov	r3, r0
 8001af8:	71fb      	strb	r3, [r7, #7]
  if(fs == ENABLE)
 8001afa:	79fb      	ldrb	r3, [r7, #7]
 8001afc:	2b01      	cmp	r3, #1
 8001afe:	d106      	bne.n	8001b0e <BSP_IRQ+0x1e>
  {
    HAL_NVIC_EnableIRQ(L6470_nBUSY_SYNC_IRQn);
 8001b00:	2006      	movs	r0, #6
 8001b02:	f002 facc 	bl	800409e <HAL_NVIC_EnableIRQ>
    HAL_NVIC_EnableIRQ(L6470_nFLAG_IRQn);
 8001b06:	2007      	movs	r0, #7
 8001b08:	f002 fac9 	bl	800409e <HAL_NVIC_EnableIRQ>
  else
  {
    HAL_NVIC_DisableIRQ(L6470_nBUSY_SYNC_IRQn);
    HAL_NVIC_DisableIRQ(L6470_nFLAG_IRQn);
  }
}
 8001b0c:	e005      	b.n	8001b1a <BSP_IRQ+0x2a>
    HAL_NVIC_DisableIRQ(L6470_nBUSY_SYNC_IRQn);
 8001b0e:	2006      	movs	r0, #6
 8001b10:	f002 fad3 	bl	80040ba <HAL_NVIC_DisableIRQ>
    HAL_NVIC_DisableIRQ(L6470_nFLAG_IRQn);
 8001b14:	2007      	movs	r0, #7
 8001b16:	f002 fad0 	bl	80040ba <HAL_NVIC_DisableIRQ>
}
 8001b1a:	bf00      	nop
 8001b1c:	3708      	adds	r7, #8
 8001b1e:	46bd      	mov	sp, r7
 8001b20:	bd80      	pop	{r7, pc}

08001b22 <BSP_L6470_SetParam>:
  * @param  L6470_Id        The L6470 identifier inside the daisy chain
  * @param  L6470_RegId     The L6470 Register identifier
  * @param  Value           The new value for the L6470 Register
  */
void BSP_L6470_SetParam(uint8_t ExpBrd_Id, uint8_t L6470_Id, eL6470_RegId_t L6470_RegId, uint32_t Value)
{
 8001b22:	b580      	push	{r7, lr}
 8001b24:	b082      	sub	sp, #8
 8001b26:	af00      	add	r7, sp, #0
 8001b28:	603b      	str	r3, [r7, #0]
 8001b2a:	4603      	mov	r3, r0
 8001b2c:	71fb      	strb	r3, [r7, #7]
 8001b2e:	460b      	mov	r3, r1
 8001b30:	71bb      	strb	r3, [r7, #6]
 8001b32:	4613      	mov	r3, r2
 8001b34:	717b      	strb	r3, [r7, #5]
  /* Initialize the used GPIO for the L6470 nCS related to the addressed X-NUCLEO-IHM02A1 */
  if (BSP_Select(ExpBrd_Id))
 8001b36:	79fb      	ldrb	r3, [r7, #7]
 8001b38:	4618      	mov	r0, r3
 8001b3a:	f000 f9ed 	bl	8001f18 <BSP_Select>
 8001b3e:	4603      	mov	r3, r0
 8001b40:	2b00      	cmp	r3, #0
 8001b42:	d005      	beq.n	8001b50 <BSP_L6470_SetParam+0x2e>
  {
    /* Perform the related L6470 Application Command */
    L6470_SetParam(L6470_Id, L6470_RegId, Value);
 8001b44:	7979      	ldrb	r1, [r7, #5]
 8001b46:	79bb      	ldrb	r3, [r7, #6]
 8001b48:	683a      	ldr	r2, [r7, #0]
 8001b4a:	4618      	mov	r0, r3
 8001b4c:	f7fe fffe 	bl	8000b4c <L6470_SetParam>
  }
}
 8001b50:	bf00      	nop
 8001b52:	3708      	adds	r7, #8
 8001b54:	46bd      	mov	sp, r7
 8001b56:	bd80      	pop	{r7, pc}

08001b58 <BSP_L6470_GetParam>:
  * @param  L6470_Id        The L6470 identifier inside the daisy chain
  * @param  L6470_RegId     The L6470 Register identifier
  * @retval uint32_t        The value of the L6470 Register
  */
uint32_t BSP_L6470_GetParam(uint8_t ExpBrd_Id, uint8_t L6470_Id, eL6470_RegId_t L6470_RegId)
{
 8001b58:	b580      	push	{r7, lr}
 8001b5a:	b082      	sub	sp, #8
 8001b5c:	af00      	add	r7, sp, #0
 8001b5e:	4603      	mov	r3, r0
 8001b60:	71fb      	strb	r3, [r7, #7]
 8001b62:	460b      	mov	r3, r1
 8001b64:	71bb      	strb	r3, [r7, #6]
 8001b66:	4613      	mov	r3, r2
 8001b68:	717b      	strb	r3, [r7, #5]
  /* Initialize the used GPIO for the L6470 nCS related to the addressed X-NUCLEO-IHM02A1 */
  if (BSP_Select(ExpBrd_Id))
 8001b6a:	79fb      	ldrb	r3, [r7, #7]
 8001b6c:	4618      	mov	r0, r3
 8001b6e:	f000 f9d3 	bl	8001f18 <BSP_Select>
 8001b72:	4603      	mov	r3, r0
 8001b74:	2b00      	cmp	r3, #0
 8001b76:	d007      	beq.n	8001b88 <BSP_L6470_GetParam+0x30>
  {
    /* Perform the related L6470 Application Command */
    return L6470_GetParam(L6470_Id, L6470_RegId);
 8001b78:	797a      	ldrb	r2, [r7, #5]
 8001b7a:	79bb      	ldrb	r3, [r7, #6]
 8001b7c:	4611      	mov	r1, r2
 8001b7e:	4618      	mov	r0, r3
 8001b80:	f7ff f80a 	bl	8000b98 <L6470_GetParam>
 8001b84:	4603      	mov	r3, r0
 8001b86:	e000      	b.n	8001b8a <BSP_L6470_GetParam+0x32>
  }
  else
    return 0xFF;
 8001b88:	23ff      	movs	r3, #255	; 0xff
}
 8001b8a:	4618      	mov	r0, r3
 8001b8c:	3708      	adds	r7, #8
 8001b8e:	46bd      	mov	sp, r7
 8001b90:	bd80      	pop	{r7, pc}

08001b92 <BSP_L6470_Run>:
  * @param  L6470_Id        The L6470 identifier inside the daisy chain
  * @param  L6470_DirId     The L6470 Direction identifier
  * @param  Speed           The new value about the speed
  */
void BSP_L6470_Run(uint8_t ExpBrd_Id, uint8_t L6470_Id, eL6470_DirId_t L6470_DirId, uint32_t Speed)
{
 8001b92:	b580      	push	{r7, lr}
 8001b94:	b082      	sub	sp, #8
 8001b96:	af00      	add	r7, sp, #0
 8001b98:	603b      	str	r3, [r7, #0]
 8001b9a:	4603      	mov	r3, r0
 8001b9c:	71fb      	strb	r3, [r7, #7]
 8001b9e:	460b      	mov	r3, r1
 8001ba0:	71bb      	strb	r3, [r7, #6]
 8001ba2:	4613      	mov	r3, r2
 8001ba4:	717b      	strb	r3, [r7, #5]
  /* Initialize the used GPIO for the L6470 nCS related to the addressed X-NUCLEO-IHM02A1 */
  if (BSP_Select(ExpBrd_Id))
 8001ba6:	79fb      	ldrb	r3, [r7, #7]
 8001ba8:	4618      	mov	r0, r3
 8001baa:	f000 f9b5 	bl	8001f18 <BSP_Select>
 8001bae:	4603      	mov	r3, r0
 8001bb0:	2b00      	cmp	r3, #0
 8001bb2:	d005      	beq.n	8001bc0 <BSP_L6470_Run+0x2e>
  {
    /* Perform the related L6470 Application Command */
    L6470_Run(L6470_Id, L6470_DirId, Speed);
 8001bb4:	7979      	ldrb	r1, [r7, #5]
 8001bb6:	79bb      	ldrb	r3, [r7, #6]
 8001bb8:	683a      	ldr	r2, [r7, #0]
 8001bba:	4618      	mov	r0, r3
 8001bbc:	f7ff f824 	bl	8000c08 <L6470_Run>
  }
}
 8001bc0:	bf00      	nop
 8001bc2:	3708      	adds	r7, #8
 8001bc4:	46bd      	mov	sp, r7
 8001bc6:	bd80      	pop	{r7, pc}

08001bc8 <BSP_L6470_StepClock>:
  * @param  ExpBrd_Id       The addressed Expansion Board
  * @param  L6470_Id        The L6470 identifier inside the daisy chain
  * @param  L6470_DirId     The L6470 Direction identifier
  */
void BSP_L6470_StepClock(uint8_t ExpBrd_Id, uint8_t L6470_Id, eL6470_DirId_t L6470_DirId)
{
 8001bc8:	b580      	push	{r7, lr}
 8001bca:	b082      	sub	sp, #8
 8001bcc:	af00      	add	r7, sp, #0
 8001bce:	4603      	mov	r3, r0
 8001bd0:	71fb      	strb	r3, [r7, #7]
 8001bd2:	460b      	mov	r3, r1
 8001bd4:	71bb      	strb	r3, [r7, #6]
 8001bd6:	4613      	mov	r3, r2
 8001bd8:	717b      	strb	r3, [r7, #5]
  /* Initialize the used GPIO for the L6470 nCS related to the addressed X-NUCLEO-IHM02A1 */
  if (BSP_Select(ExpBrd_Id))
 8001bda:	79fb      	ldrb	r3, [r7, #7]
 8001bdc:	4618      	mov	r0, r3
 8001bde:	f000 f99b 	bl	8001f18 <BSP_Select>
 8001be2:	4603      	mov	r3, r0
 8001be4:	2b00      	cmp	r3, #0
 8001be6:	d005      	beq.n	8001bf4 <BSP_L6470_StepClock+0x2c>
  {
    /* Perform the related L6470 Application Command */
    L6470_StepClock(L6470_Id, L6470_DirId);
 8001be8:	797a      	ldrb	r2, [r7, #5]
 8001bea:	79bb      	ldrb	r3, [r7, #6]
 8001bec:	4611      	mov	r1, r2
 8001bee:	4618      	mov	r0, r3
 8001bf0:	f7ff f830 	bl	8000c54 <L6470_StepClock>
  }
}
 8001bf4:	bf00      	nop
 8001bf6:	3708      	adds	r7, #8
 8001bf8:	46bd      	mov	sp, r7
 8001bfa:	bd80      	pop	{r7, pc}

08001bfc <BSP_L6470_Move>:
  * @param  L6470_Id        The L6470 identifier inside the daisy chain
  * @param  L6470_DirId     The L6470 Direction identifier
  * @param  N_Step          The number of step about the movement to be performed
  */
void BSP_L6470_Move(uint8_t ExpBrd_Id, uint8_t L6470_Id, eL6470_DirId_t L6470_DirId, uint32_t N_Step)
{
 8001bfc:	b580      	push	{r7, lr}
 8001bfe:	b082      	sub	sp, #8
 8001c00:	af00      	add	r7, sp, #0
 8001c02:	603b      	str	r3, [r7, #0]
 8001c04:	4603      	mov	r3, r0
 8001c06:	71fb      	strb	r3, [r7, #7]
 8001c08:	460b      	mov	r3, r1
 8001c0a:	71bb      	strb	r3, [r7, #6]
 8001c0c:	4613      	mov	r3, r2
 8001c0e:	717b      	strb	r3, [r7, #5]
  /* Initialize the used GPIO for the L6470 nCS related to the addressed X-NUCLEO-IHM02A1 */
  if (BSP_Select(ExpBrd_Id))
 8001c10:	79fb      	ldrb	r3, [r7, #7]
 8001c12:	4618      	mov	r0, r3
 8001c14:	f000 f980 	bl	8001f18 <BSP_Select>
 8001c18:	4603      	mov	r3, r0
 8001c1a:	2b00      	cmp	r3, #0
 8001c1c:	d005      	beq.n	8001c2a <BSP_L6470_Move+0x2e>
  {
    /* Perform the related L6470 Application Command */
    L6470_Move(L6470_Id, L6470_DirId, N_Step);
 8001c1e:	7979      	ldrb	r1, [r7, #5]
 8001c20:	79bb      	ldrb	r3, [r7, #6]
 8001c22:	683a      	ldr	r2, [r7, #0]
 8001c24:	4618      	mov	r0, r3
 8001c26:	f7ff f839 	bl	8000c9c <L6470_Move>
  }
}
 8001c2a:	bf00      	nop
 8001c2c:	3708      	adds	r7, #8
 8001c2e:	46bd      	mov	sp, r7
 8001c30:	bd80      	pop	{r7, pc}

08001c32 <BSP_L6470_GoTo>:
  * @param  ExpBrd_Id       The addressed Expansion Board
  * @param  L6470_Id        The L6470 identifier inside the daisy chain
  * @param  AbsPos          The L6470 absolute position to be reached
  */
void BSP_L6470_GoTo(uint8_t ExpBrd_Id, uint8_t L6470_Id, uint32_t AbsPos)
{
 8001c32:	b580      	push	{r7, lr}
 8001c34:	b082      	sub	sp, #8
 8001c36:	af00      	add	r7, sp, #0
 8001c38:	4603      	mov	r3, r0
 8001c3a:	603a      	str	r2, [r7, #0]
 8001c3c:	71fb      	strb	r3, [r7, #7]
 8001c3e:	460b      	mov	r3, r1
 8001c40:	71bb      	strb	r3, [r7, #6]
  /* Initialize the used GPIO for the L6470 nCS related to the addressed X-NUCLEO-IHM02A1 */
  if (BSP_Select(ExpBrd_Id))
 8001c42:	79fb      	ldrb	r3, [r7, #7]
 8001c44:	4618      	mov	r0, r3
 8001c46:	f000 f967 	bl	8001f18 <BSP_Select>
 8001c4a:	4603      	mov	r3, r0
 8001c4c:	2b00      	cmp	r3, #0
 8001c4e:	d004      	beq.n	8001c5a <BSP_L6470_GoTo+0x28>
  {
    /* Perform the related L6470 Application Command */
    L6470_GoTo(L6470_Id, AbsPos);
 8001c50:	79bb      	ldrb	r3, [r7, #6]
 8001c52:	6839      	ldr	r1, [r7, #0]
 8001c54:	4618      	mov	r0, r3
 8001c56:	f7ff f847 	bl	8000ce8 <L6470_GoTo>
  }
}
 8001c5a:	bf00      	nop
 8001c5c:	3708      	adds	r7, #8
 8001c5e:	46bd      	mov	sp, r7
 8001c60:	bd80      	pop	{r7, pc}

08001c62 <BSP_L6470_GoToDir>:
  * @param  L6470_Id        The L6470 identifier inside the daisy chain
  * @param  L6470_DirId     The L6470 Direction identifier
  * @param  AbsPos          The L6470 absolute position to be reached
  */
void BSP_L6470_GoToDir(uint8_t ExpBrd_Id, uint8_t L6470_Id, eL6470_DirId_t L6470_DirId, uint32_t AbsPos)
{
 8001c62:	b580      	push	{r7, lr}
 8001c64:	b082      	sub	sp, #8
 8001c66:	af00      	add	r7, sp, #0
 8001c68:	603b      	str	r3, [r7, #0]
 8001c6a:	4603      	mov	r3, r0
 8001c6c:	71fb      	strb	r3, [r7, #7]
 8001c6e:	460b      	mov	r3, r1
 8001c70:	71bb      	strb	r3, [r7, #6]
 8001c72:	4613      	mov	r3, r2
 8001c74:	717b      	strb	r3, [r7, #5]
  /* Initialize the used GPIO for the L6470 nCS related to the addressed X-NUCLEO-IHM02A1 */
  if (BSP_Select(ExpBrd_Id))
 8001c76:	79fb      	ldrb	r3, [r7, #7]
 8001c78:	4618      	mov	r0, r3
 8001c7a:	f000 f94d 	bl	8001f18 <BSP_Select>
 8001c7e:	4603      	mov	r3, r0
 8001c80:	2b00      	cmp	r3, #0
 8001c82:	d005      	beq.n	8001c90 <BSP_L6470_GoToDir+0x2e>
  {
    /* Perform the related L6470 Application Command */
    L6470_GoToDir(L6470_Id, L6470_DirId, AbsPos);
 8001c84:	7979      	ldrb	r1, [r7, #5]
 8001c86:	79bb      	ldrb	r3, [r7, #6]
 8001c88:	683a      	ldr	r2, [r7, #0]
 8001c8a:	4618      	mov	r0, r3
 8001c8c:	f7ff f852 	bl	8000d34 <L6470_GoToDir>
  }
}
 8001c90:	bf00      	nop
 8001c92:	3708      	adds	r7, #8
 8001c94:	46bd      	mov	sp, r7
 8001c96:	bd80      	pop	{r7, pc}

08001c98 <BSP_L6470_GoUntil>:
  * @param  L6470_ActId     The L6470 Action identifier about ABS_POS register
  * @param  L6470_DirId     The L6470 Direction identifier
  * @param  Speed           The new value about the speed
  */
void BSP_L6470_GoUntil(uint8_t ExpBrd_Id, uint8_t L6470_Id, eL6470_ActId_t L6470_ActId, eL6470_DirId_t L6470_DirId, uint32_t Speed)
{
 8001c98:	b590      	push	{r4, r7, lr}
 8001c9a:	b083      	sub	sp, #12
 8001c9c:	af00      	add	r7, sp, #0
 8001c9e:	4604      	mov	r4, r0
 8001ca0:	4608      	mov	r0, r1
 8001ca2:	4611      	mov	r1, r2
 8001ca4:	461a      	mov	r2, r3
 8001ca6:	4623      	mov	r3, r4
 8001ca8:	71fb      	strb	r3, [r7, #7]
 8001caa:	4603      	mov	r3, r0
 8001cac:	71bb      	strb	r3, [r7, #6]
 8001cae:	460b      	mov	r3, r1
 8001cb0:	717b      	strb	r3, [r7, #5]
 8001cb2:	4613      	mov	r3, r2
 8001cb4:	713b      	strb	r3, [r7, #4]
  /* Initialize the used GPIO for the L6470 nCS related to the addressed X-NUCLEO-IHM02A1 */
  if (BSP_Select(ExpBrd_Id))
 8001cb6:	79fb      	ldrb	r3, [r7, #7]
 8001cb8:	4618      	mov	r0, r3
 8001cba:	f000 f92d 	bl	8001f18 <BSP_Select>
 8001cbe:	4603      	mov	r3, r0
 8001cc0:	2b00      	cmp	r3, #0
 8001cc2:	d005      	beq.n	8001cd0 <BSP_L6470_GoUntil+0x38>
  {
    /* Perform the related L6470 Application Command */
    L6470_GoUntil(L6470_Id, L6470_ActId, L6470_DirId, Speed);
 8001cc4:	793a      	ldrb	r2, [r7, #4]
 8001cc6:	7979      	ldrb	r1, [r7, #5]
 8001cc8:	79b8      	ldrb	r0, [r7, #6]
 8001cca:	69bb      	ldr	r3, [r7, #24]
 8001ccc:	f7ff f85c 	bl	8000d88 <L6470_GoUntil>
  }
}
 8001cd0:	bf00      	nop
 8001cd2:	370c      	adds	r7, #12
 8001cd4:	46bd      	mov	sp, r7
 8001cd6:	bd90      	pop	{r4, r7, pc}

08001cd8 <BSP_L6470_ReleaseSW>:
  * @param  L6470_Id        The L6470 identifier inside the daisy chain
  * @param  L6470_ActId     The L6470 Action identifier about ABS_POS register
  * @param  L6470_DirId     The L6470 Direction identifier
  */
void BSP_L6470_ReleaseSW(uint8_t ExpBrd_Id, uint8_t L6470_Id, eL6470_ActId_t L6470_ActId, eL6470_DirId_t L6470_DirId)
{
 8001cd8:	b590      	push	{r4, r7, lr}
 8001cda:	b083      	sub	sp, #12
 8001cdc:	af00      	add	r7, sp, #0
 8001cde:	4604      	mov	r4, r0
 8001ce0:	4608      	mov	r0, r1
 8001ce2:	4611      	mov	r1, r2
 8001ce4:	461a      	mov	r2, r3
 8001ce6:	4623      	mov	r3, r4
 8001ce8:	71fb      	strb	r3, [r7, #7]
 8001cea:	4603      	mov	r3, r0
 8001cec:	71bb      	strb	r3, [r7, #6]
 8001cee:	460b      	mov	r3, r1
 8001cf0:	717b      	strb	r3, [r7, #5]
 8001cf2:	4613      	mov	r3, r2
 8001cf4:	713b      	strb	r3, [r7, #4]
  /* Initialize the used GPIO for the L6470 nCS related to the addressed X-NUCLEO-IHM02A1 */
  if (BSP_Select(ExpBrd_Id))
 8001cf6:	79fb      	ldrb	r3, [r7, #7]
 8001cf8:	4618      	mov	r0, r3
 8001cfa:	f000 f90d 	bl	8001f18 <BSP_Select>
 8001cfe:	4603      	mov	r3, r0
 8001d00:	2b00      	cmp	r3, #0
 8001d02:	d005      	beq.n	8001d10 <BSP_L6470_ReleaseSW+0x38>
  {
    /* Perform the related L6470 Application Command */
    L6470_ReleaseSW(L6470_Id, L6470_ActId, L6470_DirId);
 8001d04:	793a      	ldrb	r2, [r7, #4]
 8001d06:	7979      	ldrb	r1, [r7, #5]
 8001d08:	79bb      	ldrb	r3, [r7, #6]
 8001d0a:	4618      	mov	r0, r3
 8001d0c:	f7ff f864 	bl	8000dd8 <L6470_ReleaseSW>
  }
}
 8001d10:	bf00      	nop
 8001d12:	370c      	adds	r7, #12
 8001d14:	46bd      	mov	sp, r7
 8001d16:	bd90      	pop	{r4, r7, pc}

08001d18 <BSP_L6470_GoHome>:
  * @brief  Perform the L6470_GoHome Application Command for the selected device on the selected Expansion Board.
  * @param  ExpBrd_Id       The addressed Expansion Board
  * @param  L6470_Id        The L6470 identifier inside the daisy chain
  */
void BSP_L6470_GoHome(uint8_t ExpBrd_Id, uint8_t L6470_Id)
{
 8001d18:	b580      	push	{r7, lr}
 8001d1a:	b082      	sub	sp, #8
 8001d1c:	af00      	add	r7, sp, #0
 8001d1e:	4603      	mov	r3, r0
 8001d20:	460a      	mov	r2, r1
 8001d22:	71fb      	strb	r3, [r7, #7]
 8001d24:	4613      	mov	r3, r2
 8001d26:	71bb      	strb	r3, [r7, #6]
  /* Initialize the used GPIO for the L6470 nCS related to the addressed X-NUCLEO-IHM02A1 */
  if (BSP_Select(ExpBrd_Id))
 8001d28:	79fb      	ldrb	r3, [r7, #7]
 8001d2a:	4618      	mov	r0, r3
 8001d2c:	f000 f8f4 	bl	8001f18 <BSP_Select>
 8001d30:	4603      	mov	r3, r0
 8001d32:	2b00      	cmp	r3, #0
 8001d34:	d003      	beq.n	8001d3e <BSP_L6470_GoHome+0x26>
  {
    /* Perform the related L6470 Application Command */
    L6470_GoHome(L6470_Id);
 8001d36:	79bb      	ldrb	r3, [r7, #6]
 8001d38:	4618      	mov	r0, r3
 8001d3a:	f7ff f873 	bl	8000e24 <L6470_GoHome>
  }
}
 8001d3e:	bf00      	nop
 8001d40:	3708      	adds	r7, #8
 8001d42:	46bd      	mov	sp, r7
 8001d44:	bd80      	pop	{r7, pc}

08001d46 <BSP_L6470_GoMark>:
  * @brief  Perform the L6470_GoMark Application Command for the selected device on the selected Expansion Board.
  * @param  ExpBrd_Id       The addressed Expansion Board
  * @param  L6470_Id        The L6470 identifier inside the daisy chain
  */
void BSP_L6470_GoMark(uint8_t ExpBrd_Id, uint8_t L6470_Id)
{
 8001d46:	b580      	push	{r7, lr}
 8001d48:	b082      	sub	sp, #8
 8001d4a:	af00      	add	r7, sp, #0
 8001d4c:	4603      	mov	r3, r0
 8001d4e:	460a      	mov	r2, r1
 8001d50:	71fb      	strb	r3, [r7, #7]
 8001d52:	4613      	mov	r3, r2
 8001d54:	71bb      	strb	r3, [r7, #6]
  /* Initialize the used GPIO for the L6470 nCS related to the addressed X-NUCLEO-IHM02A1 */
  if (BSP_Select(ExpBrd_Id))
 8001d56:	79fb      	ldrb	r3, [r7, #7]
 8001d58:	4618      	mov	r0, r3
 8001d5a:	f000 f8dd 	bl	8001f18 <BSP_Select>
 8001d5e:	4603      	mov	r3, r0
 8001d60:	2b00      	cmp	r3, #0
 8001d62:	d003      	beq.n	8001d6c <BSP_L6470_GoMark+0x26>
  {
    /* Perform the related L6470 Application Command */
    L6470_GoMark(L6470_Id);
 8001d64:	79bb      	ldrb	r3, [r7, #6]
 8001d66:	4618      	mov	r0, r3
 8001d68:	f7ff f87e 	bl	8000e68 <L6470_GoMark>
  }
}
 8001d6c:	bf00      	nop
 8001d6e:	3708      	adds	r7, #8
 8001d70:	46bd      	mov	sp, r7
 8001d72:	bd80      	pop	{r7, pc}

08001d74 <BSP_L6470_ResetPos>:
  * @brief  Perform the L6470_ResetPos Application Command for the selected device on the selected Expansion Board.
  * @param  ExpBrd_Id       The addressed Expansion Board
  * @param  L6470_Id        The L6470 identifier inside the daisy chain
  */
void BSP_L6470_ResetPos(uint8_t ExpBrd_Id, uint8_t L6470_Id)
{
 8001d74:	b580      	push	{r7, lr}
 8001d76:	b082      	sub	sp, #8
 8001d78:	af00      	add	r7, sp, #0
 8001d7a:	4603      	mov	r3, r0
 8001d7c:	460a      	mov	r2, r1
 8001d7e:	71fb      	strb	r3, [r7, #7]
 8001d80:	4613      	mov	r3, r2
 8001d82:	71bb      	strb	r3, [r7, #6]
  /* Initialize the used GPIO for the L6470 nCS related to the addressed X-NUCLEO-IHM02A1 */
  if (BSP_Select(ExpBrd_Id))
 8001d84:	79fb      	ldrb	r3, [r7, #7]
 8001d86:	4618      	mov	r0, r3
 8001d88:	f000 f8c6 	bl	8001f18 <BSP_Select>
 8001d8c:	4603      	mov	r3, r0
 8001d8e:	2b00      	cmp	r3, #0
 8001d90:	d003      	beq.n	8001d9a <BSP_L6470_ResetPos+0x26>
  {
    /* Perform the related L6470 Application Command */
    L6470_ResetPos(L6470_Id);
 8001d92:	79bb      	ldrb	r3, [r7, #6]
 8001d94:	4618      	mov	r0, r3
 8001d96:	f7ff f889 	bl	8000eac <L6470_ResetPos>
  }
}
 8001d9a:	bf00      	nop
 8001d9c:	3708      	adds	r7, #8
 8001d9e:	46bd      	mov	sp, r7
 8001da0:	bd80      	pop	{r7, pc}

08001da2 <BSP_L6470_ResetDevice>:
  * @brief  Perform the L6470_ResetDevice Application Command for the selected device on the selected Expansion Board.
  * @param  ExpBrd_Id       The addressed Expansion Board
  * @param  L6470_Id        The L6470 identifier inside the daisy chain
  */
void BSP_L6470_ResetDevice(uint8_t ExpBrd_Id, uint8_t L6470_Id)
{
 8001da2:	b580      	push	{r7, lr}
 8001da4:	b082      	sub	sp, #8
 8001da6:	af00      	add	r7, sp, #0
 8001da8:	4603      	mov	r3, r0
 8001daa:	460a      	mov	r2, r1
 8001dac:	71fb      	strb	r3, [r7, #7]
 8001dae:	4613      	mov	r3, r2
 8001db0:	71bb      	strb	r3, [r7, #6]
  /* Initialize the used GPIO for the L6470 nCS related to the addressed X-NUCLEO-IHM02A1 */
  if (BSP_Select(ExpBrd_Id))
 8001db2:	79fb      	ldrb	r3, [r7, #7]
 8001db4:	4618      	mov	r0, r3
 8001db6:	f000 f8af 	bl	8001f18 <BSP_Select>
 8001dba:	4603      	mov	r3, r0
 8001dbc:	2b00      	cmp	r3, #0
 8001dbe:	d003      	beq.n	8001dc8 <BSP_L6470_ResetDevice+0x26>
  {
    /* Perform the related L6470 Application Command */
    L6470_ResetDevice(L6470_Id);
 8001dc0:	79bb      	ldrb	r3, [r7, #6]
 8001dc2:	4618      	mov	r0, r3
 8001dc4:	f7ff f894 	bl	8000ef0 <L6470_ResetDevice>
  }
}
 8001dc8:	bf00      	nop
 8001dca:	3708      	adds	r7, #8
 8001dcc:	46bd      	mov	sp, r7
 8001dce:	bd80      	pop	{r7, pc}

08001dd0 <BSP_L6470_SoftStop>:
  * @brief  Perform the L6470_SoftStop Application Command for the selected device on the selected Expansion Board.
  * @param  ExpBrd_Id       The addressed Expansion Board
  * @param  L6470_Id        The L6470 identifier inside the daisy chain
  */
void BSP_L6470_SoftStop(uint8_t ExpBrd_Id, uint8_t L6470_Id)
{
 8001dd0:	b580      	push	{r7, lr}
 8001dd2:	b082      	sub	sp, #8
 8001dd4:	af00      	add	r7, sp, #0
 8001dd6:	4603      	mov	r3, r0
 8001dd8:	460a      	mov	r2, r1
 8001dda:	71fb      	strb	r3, [r7, #7]
 8001ddc:	4613      	mov	r3, r2
 8001dde:	71bb      	strb	r3, [r7, #6]
  /* Initialize the used GPIO for the L6470 nCS related to the addressed X-NUCLEO-IHM02A1 */
  if (BSP_Select(ExpBrd_Id))
 8001de0:	79fb      	ldrb	r3, [r7, #7]
 8001de2:	4618      	mov	r0, r3
 8001de4:	f000 f898 	bl	8001f18 <BSP_Select>
 8001de8:	4603      	mov	r3, r0
 8001dea:	2b00      	cmp	r3, #0
 8001dec:	d003      	beq.n	8001df6 <BSP_L6470_SoftStop+0x26>
  {
    /* Perform the related L6470 Application Command */
    L6470_SoftStop(L6470_Id);
 8001dee:	79bb      	ldrb	r3, [r7, #6]
 8001df0:	4618      	mov	r0, r3
 8001df2:	f7ff f89f 	bl	8000f34 <L6470_SoftStop>
  }
}
 8001df6:	bf00      	nop
 8001df8:	3708      	adds	r7, #8
 8001dfa:	46bd      	mov	sp, r7
 8001dfc:	bd80      	pop	{r7, pc}

08001dfe <BSP_L6470_HardStop>:
  * @brief  Perform the L6470_HardStop Application Command for the selected device on the selected Expansion Board.
  * @param  ExpBrd_Id       The addressed Expansion Board
  * @param  L6470_Id        The L6470 identifier inside the daisy chain
  */
void BSP_L6470_HardStop(uint8_t ExpBrd_Id, uint8_t L6470_Id)
{
 8001dfe:	b580      	push	{r7, lr}
 8001e00:	b082      	sub	sp, #8
 8001e02:	af00      	add	r7, sp, #0
 8001e04:	4603      	mov	r3, r0
 8001e06:	460a      	mov	r2, r1
 8001e08:	71fb      	strb	r3, [r7, #7]
 8001e0a:	4613      	mov	r3, r2
 8001e0c:	71bb      	strb	r3, [r7, #6]
  /* Initialize the used GPIO for the L6470 nCS related to the addressed X-NUCLEO-IHM02A1 */
  if (BSP_Select(ExpBrd_Id))
 8001e0e:	79fb      	ldrb	r3, [r7, #7]
 8001e10:	4618      	mov	r0, r3
 8001e12:	f000 f881 	bl	8001f18 <BSP_Select>
 8001e16:	4603      	mov	r3, r0
 8001e18:	2b00      	cmp	r3, #0
 8001e1a:	d003      	beq.n	8001e24 <BSP_L6470_HardStop+0x26>
  {
    /* Perform the related L6470 Application Command */
    L6470_HardStop(L6470_Id);
 8001e1c:	79bb      	ldrb	r3, [r7, #6]
 8001e1e:	4618      	mov	r0, r3
 8001e20:	f7ff f8aa 	bl	8000f78 <L6470_HardStop>
  }
}
 8001e24:	bf00      	nop
 8001e26:	3708      	adds	r7, #8
 8001e28:	46bd      	mov	sp, r7
 8001e2a:	bd80      	pop	{r7, pc}

08001e2c <BSP_L6470_SoftHiZ>:
  * @brief  Perform the L6470_SoftHiZ Application Command for the selected device on the selected Expansion Board.
  * @param  ExpBrd_Id       The addressed Expansion Board
  * @param  L6470_Id        The L6470 identifier inside the daisy chain
  */
void BSP_L6470_SoftHiZ(uint8_t ExpBrd_Id, uint8_t L6470_Id)
{
 8001e2c:	b580      	push	{r7, lr}
 8001e2e:	b082      	sub	sp, #8
 8001e30:	af00      	add	r7, sp, #0
 8001e32:	4603      	mov	r3, r0
 8001e34:	460a      	mov	r2, r1
 8001e36:	71fb      	strb	r3, [r7, #7]
 8001e38:	4613      	mov	r3, r2
 8001e3a:	71bb      	strb	r3, [r7, #6]
  /* Initialize the used GPIO for the L6470 nCS related to the addressed X-NUCLEO-IHM02A1 */
  if (BSP_Select(ExpBrd_Id))
 8001e3c:	79fb      	ldrb	r3, [r7, #7]
 8001e3e:	4618      	mov	r0, r3
 8001e40:	f000 f86a 	bl	8001f18 <BSP_Select>
 8001e44:	4603      	mov	r3, r0
 8001e46:	2b00      	cmp	r3, #0
 8001e48:	d003      	beq.n	8001e52 <BSP_L6470_SoftHiZ+0x26>
  {
    /* Perform the related L6470 Application Command */
    L6470_SoftHiZ(L6470_Id);
 8001e4a:	79bb      	ldrb	r3, [r7, #6]
 8001e4c:	4618      	mov	r0, r3
 8001e4e:	f7ff f8b5 	bl	8000fbc <L6470_SoftHiZ>
  }
}
 8001e52:	bf00      	nop
 8001e54:	3708      	adds	r7, #8
 8001e56:	46bd      	mov	sp, r7
 8001e58:	bd80      	pop	{r7, pc}

08001e5a <BSP_L6470_HardHiZ>:
  * @brief  Perform the L6470_HardHiZ Application Command for the selected device on the selected Expansion Board.
  * @param  ExpBrd_Id       The addressed Expansion Board
  * @param  L6470_Id        The L6470 identifier inside the daisy chain
  */
void BSP_L6470_HardHiZ(uint8_t ExpBrd_Id, uint8_t L6470_Id)
{
 8001e5a:	b580      	push	{r7, lr}
 8001e5c:	b082      	sub	sp, #8
 8001e5e:	af00      	add	r7, sp, #0
 8001e60:	4603      	mov	r3, r0
 8001e62:	460a      	mov	r2, r1
 8001e64:	71fb      	strb	r3, [r7, #7]
 8001e66:	4613      	mov	r3, r2
 8001e68:	71bb      	strb	r3, [r7, #6]
  /* Initialize the used GPIO for the L6470 nCS related to the addressed X-NUCLEO-IHM02A1 */
  if (BSP_Select(ExpBrd_Id))
 8001e6a:	79fb      	ldrb	r3, [r7, #7]
 8001e6c:	4618      	mov	r0, r3
 8001e6e:	f000 f853 	bl	8001f18 <BSP_Select>
 8001e72:	4603      	mov	r3, r0
 8001e74:	2b00      	cmp	r3, #0
 8001e76:	d003      	beq.n	8001e80 <BSP_L6470_HardHiZ+0x26>
  {
    /* Perform the related L6470 Application Command */
    L6470_HardHiZ(L6470_Id);
 8001e78:	79bb      	ldrb	r3, [r7, #6]
 8001e7a:	4618      	mov	r0, r3
 8001e7c:	f7ff f8c0 	bl	8001000 <L6470_HardHiZ>
  }
}
 8001e80:	bf00      	nop
 8001e82:	3708      	adds	r7, #8
 8001e84:	46bd      	mov	sp, r7
 8001e86:	bd80      	pop	{r7, pc}

08001e88 <BSP_L6470_GetStatus>:
  * @param  ExpBrd_Id       The addressed Expansion Board
  * @param  L6470_Id        The L6470 identifier inside the daisy chain
  * @retval uint16_t        The value of the L6470 Status Register
  */
uint16_t BSP_L6470_GetStatus(uint8_t ExpBrd_Id, uint8_t L6470_Id)
{
 8001e88:	b580      	push	{r7, lr}
 8001e8a:	b082      	sub	sp, #8
 8001e8c:	af00      	add	r7, sp, #0
 8001e8e:	4603      	mov	r3, r0
 8001e90:	460a      	mov	r2, r1
 8001e92:	71fb      	strb	r3, [r7, #7]
 8001e94:	4613      	mov	r3, r2
 8001e96:	71bb      	strb	r3, [r7, #6]
  /* Initialize the used GPIO for the L6470 nCS related to the addressed X-NUCLEO-IHM02A1 */
  if (BSP_Select(ExpBrd_Id))
 8001e98:	79fb      	ldrb	r3, [r7, #7]
 8001e9a:	4618      	mov	r0, r3
 8001e9c:	f000 f83c 	bl	8001f18 <BSP_Select>
 8001ea0:	4603      	mov	r3, r0
 8001ea2:	2b00      	cmp	r3, #0
 8001ea4:	d005      	beq.n	8001eb2 <BSP_L6470_GetStatus+0x2a>
  {
    /* Perform the related L6470 Application Command */
    return L6470_GetStatus(L6470_Id);
 8001ea6:	79bb      	ldrb	r3, [r7, #6]
 8001ea8:	4618      	mov	r0, r3
 8001eaa:	f7ff f8cb 	bl	8001044 <L6470_GetStatus>
 8001eae:	4603      	mov	r3, r0
 8001eb0:	e000      	b.n	8001eb4 <BSP_L6470_GetStatus+0x2c>
  }
  else
    return 0;
 8001eb2:	2300      	movs	r3, #0
}
 8001eb4:	4618      	mov	r0, r3
 8001eb6:	3708      	adds	r7, #8
 8001eb8:	46bd      	mov	sp, r7
 8001eba:	bd80      	pop	{r7, pc}

08001ebc <BSP_L6470_CheckStatusRegisterFlag>:
  * @param  L6470_Id                    The L6470 identifier inside the daisy chain
  * @param  L6470_StatusRegisterFlagId  The L6470 Status Register Flag identifier
  * @retval uint8_t                     The actual flag status.
  */
uint8_t BSP_L6470_CheckStatusRegisterFlag(uint8_t ExpBrd_Id, uint8_t L6470_Id, uint8_t L6470_StatusRegisterFlagId)
{
 8001ebc:	b580      	push	{r7, lr}
 8001ebe:	b082      	sub	sp, #8
 8001ec0:	af00      	add	r7, sp, #0
 8001ec2:	4603      	mov	r3, r0
 8001ec4:	71fb      	strb	r3, [r7, #7]
 8001ec6:	460b      	mov	r3, r1
 8001ec8:	71bb      	strb	r3, [r7, #6]
 8001eca:	4613      	mov	r3, r2
 8001ecc:	717b      	strb	r3, [r7, #5]
  /* Initialize the used GPIO for the L6470 nCS related to the addressed X-NUCLEO-IHM02A1 */
  if (BSP_Select(ExpBrd_Id))
 8001ece:	79fb      	ldrb	r3, [r7, #7]
 8001ed0:	4618      	mov	r0, r3
 8001ed2:	f000 f821 	bl	8001f18 <BSP_Select>
 8001ed6:	4603      	mov	r3, r0
 8001ed8:	2b00      	cmp	r3, #0
 8001eda:	d007      	beq.n	8001eec <BSP_L6470_CheckStatusRegisterFlag+0x30>
  {
    /* Check the flag of the L6470 Register Status related to the device mounted on the addressed X-NUCLEO-IHM02A1 */
    return L6470_CheckStatusRegisterFlag(L6470_Id, L6470_StatusRegisterFlagId);
 8001edc:	797a      	ldrb	r2, [r7, #5]
 8001ede:	79bb      	ldrb	r3, [r7, #6]
 8001ee0:	4611      	mov	r1, r2
 8001ee2:	4618      	mov	r0, r3
 8001ee4:	f7ff fb2a 	bl	800153c <L6470_CheckStatusRegisterFlag>
 8001ee8:	4603      	mov	r3, r0
 8001eea:	e000      	b.n	8001eee <BSP_L6470_CheckStatusRegisterFlag+0x32>
  }
  else
    return 0xFF;
 8001eec:	23ff      	movs	r3, #255	; 0xff
}
 8001eee:	4618      	mov	r0, r3
 8001ef0:	3708      	adds	r7, #8
 8001ef2:	46bd      	mov	sp, r7
 8001ef4:	bd80      	pop	{r7, pc}

08001ef6 <EXPBRD_ID>:
  *
  * @note The first accepted position is '0'.
  * @note If the position is not allowable the returned value is 0xFF.
  */
uint8_t EXPBRD_ID(uint8_t position)
{
 8001ef6:	b480      	push	{r7}
 8001ef8:	b083      	sub	sp, #12
 8001efa:	af00      	add	r7, sp, #0
 8001efc:	4603      	mov	r3, r0
 8001efe:	71fb      	strb	r3, [r7, #7]
  if (position < EXPBRD_MOUNTED_NR)
 8001f00:	79fb      	ldrb	r3, [r7, #7]
 8001f02:	2b00      	cmp	r3, #0
 8001f04:	d101      	bne.n	8001f0a <EXPBRD_ID+0x14>
  {
    return (position);
 8001f06:	79fb      	ldrb	r3, [r7, #7]
 8001f08:	e000      	b.n	8001f0c <EXPBRD_ID+0x16>
  }
  else
  {
    return 0xFF;
 8001f0a:	23ff      	movs	r3, #255	; 0xff
  }
}
 8001f0c:	4618      	mov	r0, r3
 8001f0e:	370c      	adds	r7, #12
 8001f10:	46bd      	mov	sp, r7
 8001f12:	f85d 7b04 	ldr.w	r7, [sp], #4
 8001f16:	4770      	bx	lr

08001f18 <BSP_Select>:
  * @brief  Select the used SPI nCS mounted on the addressed X-NUCLEO-IHM02A1.
  * @param  ExpBrd_Id   The identifier of the Expansion Board to be addressed.
  * @retval FlagStatus  SET or RESET related to the result.
  */
uint8_t BSP_Select(uint8_t ExpBrd_Id)
{
 8001f18:	b480      	push	{r7}
 8001f1a:	b083      	sub	sp, #12
 8001f1c:	af00      	add	r7, sp, #0
 8001f1e:	4603      	mov	r3, r0
 8001f20:	71fb      	strb	r3, [r7, #7]
  if (ExpBrd_Id < EXPBRD_MOUNTED_NR)
 8001f22:	79fb      	ldrb	r3, [r7, #7]
 8001f24:	2b00      	cmp	r3, #0
 8001f26:	d121      	bne.n	8001f6c <BSP_Select+0x54>
  {
    L6470_nCS_GPIO.gpio_clk_enable = L6470_nCS_GPIO_Array[ExpBrd_Id].gpio_clk_enable;
 8001f28:	79fa      	ldrb	r2, [r7, #7]
 8001f2a:	4914      	ldr	r1, [pc, #80]	; (8001f7c <BSP_Select+0x64>)
 8001f2c:	4613      	mov	r3, r2
 8001f2e:	005b      	lsls	r3, r3, #1
 8001f30:	4413      	add	r3, r2
 8001f32:	009b      	lsls	r3, r3, #2
 8001f34:	440b      	add	r3, r1
 8001f36:	681b      	ldr	r3, [r3, #0]
 8001f38:	4a11      	ldr	r2, [pc, #68]	; (8001f80 <BSP_Select+0x68>)
 8001f3a:	6013      	str	r3, [r2, #0]
    L6470_nCS_GPIO.port = L6470_nCS_GPIO_Array[ExpBrd_Id].port;
 8001f3c:	79fa      	ldrb	r2, [r7, #7]
 8001f3e:	490f      	ldr	r1, [pc, #60]	; (8001f7c <BSP_Select+0x64>)
 8001f40:	4613      	mov	r3, r2
 8001f42:	005b      	lsls	r3, r3, #1
 8001f44:	4413      	add	r3, r2
 8001f46:	009b      	lsls	r3, r3, #2
 8001f48:	440b      	add	r3, r1
 8001f4a:	3304      	adds	r3, #4
 8001f4c:	681b      	ldr	r3, [r3, #0]
 8001f4e:	4a0c      	ldr	r2, [pc, #48]	; (8001f80 <BSP_Select+0x68>)
 8001f50:	6053      	str	r3, [r2, #4]
    L6470_nCS_GPIO.pin = L6470_nCS_GPIO_Array[ExpBrd_Id].pin;
 8001f52:	79fa      	ldrb	r2, [r7, #7]
 8001f54:	4909      	ldr	r1, [pc, #36]	; (8001f7c <BSP_Select+0x64>)
 8001f56:	4613      	mov	r3, r2
 8001f58:	005b      	lsls	r3, r3, #1
 8001f5a:	4413      	add	r3, r2
 8001f5c:	009b      	lsls	r3, r3, #2
 8001f5e:	440b      	add	r3, r1
 8001f60:	3308      	adds	r3, #8
 8001f62:	881a      	ldrh	r2, [r3, #0]
 8001f64:	4b06      	ldr	r3, [pc, #24]	; (8001f80 <BSP_Select+0x68>)
 8001f66:	811a      	strh	r2, [r3, #8]
    return SET;
 8001f68:	2301      	movs	r3, #1
 8001f6a:	e000      	b.n	8001f6e <BSP_Select+0x56>
  }
  else
    return RESET;
 8001f6c:	2300      	movs	r3, #0
}
 8001f6e:	4618      	mov	r0, r3
 8001f70:	370c      	adds	r7, #12
 8001f72:	46bd      	mov	sp, r7
 8001f74:	f85d 7b04 	ldr.w	r7, [sp], #4
 8001f78:	4770      	bx	lr
 8001f7a:	bf00      	nop
 8001f7c:	20000334 	.word	0x20000334
 8001f80:	200003ac 	.word	0x200003ac

08001f84 <BSP_Init>:

/**
  * @brief  X-NUCLEO-IHM02A1 initialization
  */
void BSP_Init(void)
{
 8001f84:	b580      	push	{r7, lr}
 8001f86:	af00      	add	r7, sp, #0
  /* Select the default L6470_nCS_GPIO */
  BSP_Select(EXPBRD_ID(0));
 8001f88:	2000      	movs	r0, #0
 8001f8a:	f7ff ffb4 	bl	8001ef6 <EXPBRD_ID>
 8001f8e:	4603      	mov	r3, r0
 8001f90:	4618      	mov	r0, r3
 8001f92:	f7ff ffc1 	bl	8001f18 <BSP_Select>
  
  /* Initialize the NUCLEO GPIO used by the X-NUCLEO-IHM02A1 */
  //BSP_NUCLEO_GPIO_Init();
  
  /* Initialize the L6470 devices mounted on the X-NUCLEO-IHM02A1 */
  BSP_L6470_Init();
 8001f96:	f7ff fd53 	bl	8001a40 <BSP_L6470_Init>

  /* Enable the IRQ for the nBUSY_SYNC and the nFLAG of the X-NUCLEO-IHM02A1*/
  BSP_IRQ(ENABLE);
 8001f9a:	2001      	movs	r0, #1
 8001f9c:	f7ff fda8 	bl	8001af0 <BSP_IRQ>
}
 8001fa0:	bf00      	nop
 8001fa2:	bd80      	pop	{r7, pc}

08001fa4 <BSP_L6470_BusySynchEventManager>:

/**
  * @brief  This function manages the busy-synch event.
  */
void BSP_L6470_BusySynchEventManager(void)
{
 8001fa4:	b480      	push	{r7}
 8001fa6:	af00      	add	r7, sp, #0
  __NOP();
 8001fa8:	bf00      	nop
}
 8001faa:	bf00      	nop
 8001fac:	46bd      	mov	sp, r7
 8001fae:	f85d 7b04 	ldr.w	r7, [sp], #4
 8001fb2:	4770      	bx	lr

08001fb4 <BSP_L6470_FlagEventManager>:

  /**
  * @brief  This function manages the status flag event.
  */
void BSP_L6470_FlagEventManager(void)
{
 8001fb4:	b480      	push	{r7}
 8001fb6:	af00      	add	r7, sp, #0
  __NOP();
 8001fb8:	bf00      	nop
}
 8001fba:	bf00      	nop
 8001fbc:	46bd      	mov	sp, r7
 8001fbe:	f85d 7b04 	ldr.w	r7, [sp], #4
 8001fc2:	4770      	bx	lr

08001fc4 <BSP_EmergencyStop>:

/**
  * @brief  This function will stop all motors connected to all stacked expansion board.
  */
void BSP_EmergencyStop(void)
{
 8001fc4:	b580      	push	{r7, lr}
 8001fc6:	af00      	add	r7, sp, #0
  /* Disable the L6470 */
  L6470_DISABLE();
 8001fc8:	4b04      	ldr	r3, [pc, #16]	; (8001fdc <BSP_EmergencyStop+0x18>)
 8001fca:	685b      	ldr	r3, [r3, #4]
 8001fcc:	4a03      	ldr	r2, [pc, #12]	; (8001fdc <BSP_EmergencyStop+0x18>)
 8001fce:	8911      	ldrh	r1, [r2, #8]
 8001fd0:	2200      	movs	r2, #0
 8001fd2:	4618      	mov	r0, r3
 8001fd4:	f002 fa82 	bl	80044dc <HAL_GPIO_WritePin>
  
  while(1);
 8001fd8:	e7fe      	b.n	8001fd8 <BSP_EmergencyStop+0x14>
 8001fda:	bf00      	nop
 8001fdc:	20000328 	.word	0x20000328

08001fe0 <BSP_0_Config>:
/**
 * @brief   Initialize the data structure related to the stepper motor board #0.
 * @param   MotorParameterData_t* The pointer to the related parameter data structure.
 */
void BSP_0_Config(MotorParameterData_t *MotorParameterData)
{
 8001fe0:	b580      	push	{r7, lr}
 8001fe2:	b084      	sub	sp, #16
 8001fe4:	af00      	add	r7, sp, #0
 8001fe6:	6078      	str	r0, [r7, #4]
  StepperMotorBoardHandle_t *StepperMotorBoardHandle;
  
  StepperMotorBoardHandle = &XNUCLEOIHM02A1Drv[0];
 8001fe8:	4b04      	ldr	r3, [pc, #16]	; (8001ffc <BSP_0_Config+0x1c>)
 8001fea:	60fb      	str	r3, [r7, #12]
  BSP_Config(StepperMotorBoardHandle, MotorParameterData);
 8001fec:	6879      	ldr	r1, [r7, #4]
 8001fee:	68f8      	ldr	r0, [r7, #12]
 8001ff0:	f000 f8f0 	bl	80021d4 <BSP_Config>
}
 8001ff4:	bf00      	nop
 8001ff6:	3710      	adds	r7, #16
 8001ff8:	46bd      	mov	sp, r7
 8001ffa:	bd80      	pop	{r7, pc}
 8001ffc:	200002c8 	.word	0x200002c8

08002000 <BSP_1_Config>:
/**
 * @brief   Initialize the data structure related to the stepper motor board #1.
 * @param   MotorParameterData_t* The pointer to the related parameter data structure.
 */
void BSP_1_Config(MotorParameterData_t *MotorParameterData)
{
 8002000:	b580      	push	{r7, lr}
 8002002:	b084      	sub	sp, #16
 8002004:	af00      	add	r7, sp, #0
 8002006:	6078      	str	r0, [r7, #4]
  StepperMotorBoardHandle_t *StepperMotorBoardHandle;
  
  StepperMotorBoardHandle = &XNUCLEOIHM02A1Drv[1];
 8002008:	4b04      	ldr	r3, [pc, #16]	; (800201c <BSP_1_Config+0x1c>)
 800200a:	60fb      	str	r3, [r7, #12]
  BSP_Config(StepperMotorBoardHandle, MotorParameterData);
 800200c:	6879      	ldr	r1, [r7, #4]
 800200e:	68f8      	ldr	r0, [r7, #12]
 8002010:	f000 f8e0 	bl	80021d4 <BSP_Config>
}
 8002014:	bf00      	nop
 8002016:	3710      	adds	r7, #16
 8002018:	46bd      	mov	sp, r7
 800201a:	bd80      	pop	{r7, pc}
 800201c:	200002e0 	.word	0x200002e0

08002020 <BSP_2_Config>:
/**
 * @brief   Initialize the data structure related to the stepper motor board #2.
 * @param   MotorParameterData_t* The pointer to the related parameter data structure.
 */
void BSP_2_Config(MotorParameterData_t *MotorParameterData)
{
 8002020:	b580      	push	{r7, lr}
 8002022:	b084      	sub	sp, #16
 8002024:	af00      	add	r7, sp, #0
 8002026:	6078      	str	r0, [r7, #4]
  StepperMotorBoardHandle_t *StepperMotorBoardHandle;
  
  StepperMotorBoardHandle = &XNUCLEOIHM02A1Drv[2];
 8002028:	4b04      	ldr	r3, [pc, #16]	; (800203c <BSP_2_Config+0x1c>)
 800202a:	60fb      	str	r3, [r7, #12]
  BSP_Config(StepperMotorBoardHandle, MotorParameterData);
 800202c:	6879      	ldr	r1, [r7, #4]
 800202e:	68f8      	ldr	r0, [r7, #12]
 8002030:	f000 f8d0 	bl	80021d4 <BSP_Config>
}
 8002034:	bf00      	nop
 8002036:	3710      	adds	r7, #16
 8002038:	46bd      	mov	sp, r7
 800203a:	bd80      	pop	{r7, pc}
 800203c:	200002f8 	.word	0x200002f8

08002040 <BSP_3_Config>:
/**
 * @brief   Initialize the data structure related to the stepper motor board #3.
 * @param   MotorParameterData_t* The pointer to the related parameter data structure.
 */
void BSP_3_Config(MotorParameterData_t *MotorParameterData)
{
 8002040:	b580      	push	{r7, lr}
 8002042:	b084      	sub	sp, #16
 8002044:	af00      	add	r7, sp, #0
 8002046:	6078      	str	r0, [r7, #4]
  StepperMotorBoardHandle_t *StepperMotorBoardHandle;
  
  StepperMotorBoardHandle = &XNUCLEOIHM02A1Drv[3];
 8002048:	4b04      	ldr	r3, [pc, #16]	; (800205c <BSP_3_Config+0x1c>)
 800204a:	60fb      	str	r3, [r7, #12]
  BSP_Config(StepperMotorBoardHandle, MotorParameterData);
 800204c:	6879      	ldr	r1, [r7, #4]
 800204e:	68f8      	ldr	r0, [r7, #12]
 8002050:	f000 f8c0 	bl	80021d4 <BSP_Config>
}
 8002054:	bf00      	nop
 8002056:	3710      	adds	r7, #16
 8002058:	46bd      	mov	sp, r7
 800205a:	bd80      	pop	{r7, pc}
 800205c:	20000310 	.word	0x20000310

08002060 <BSP_L6470_0_0_Config>:
 * @brief   Initialize the data structure related to the stepper motor driver #0
 *          of the expansion board #0.
 * @param   MotorParameterData_t* The pointer to the related parameter data structure.
*/
void BSP_L6470_0_0_Config(MotorParameterData_t *MotorParameterData)
{
 8002060:	b580      	push	{r7, lr}
 8002062:	b084      	sub	sp, #16
 8002064:	af00      	add	r7, sp, #0
 8002066:	6078      	str	r0, [r7, #4]
  StepperMotorDriverHandle_t *StepperMotorDriverHandle;
  
  StepperMotorDriverHandle = &L6470DrvMtx[0][0];
 8002068:	4b04      	ldr	r3, [pc, #16]	; (800207c <BSP_L6470_0_0_Config+0x1c>)
 800206a:	60fb      	str	r3, [r7, #12]
  L6470_Config(StepperMotorDriverHandle, MotorParameterData);
 800206c:	6879      	ldr	r1, [r7, #4]
 800206e:	68f8      	ldr	r0, [r7, #12]
 8002070:	f7ff fb3a 	bl	80016e8 <L6470_Config>
}
 8002074:	bf00      	nop
 8002076:	3710      	adds	r7, #16
 8002078:	46bd      	mov	sp, r7
 800207a:	bd80      	pop	{r7, pc}
 800207c:	200000e8 	.word	0x200000e8

08002080 <BSP_L6470_0_1_Config>:
 * @brief   Initialize the data structure related to the stepper motor driver #1
 *          of the expansion board #0.
 * @param   MotorParameterData_t* The pointer to the related parameter data structure.
 */
void BSP_L6470_0_1_Config(MotorParameterData_t *MotorParameterData)
{
 8002080:	b580      	push	{r7, lr}
 8002082:	b084      	sub	sp, #16
 8002084:	af00      	add	r7, sp, #0
 8002086:	6078      	str	r0, [r7, #4]
  StepperMotorDriverHandle_t *StepperMotorDriverHandle;
  
  StepperMotorDriverHandle = &L6470DrvMtx[0][1];
 8002088:	4b04      	ldr	r3, [pc, #16]	; (800209c <BSP_L6470_0_1_Config+0x1c>)
 800208a:	60fb      	str	r3, [r7, #12]
  L6470_Config(StepperMotorDriverHandle, MotorParameterData);
 800208c:	6879      	ldr	r1, [r7, #4]
 800208e:	68f8      	ldr	r0, [r7, #12]
 8002090:	f7ff fb2a 	bl	80016e8 <L6470_Config>
}
 8002094:	bf00      	nop
 8002096:	3710      	adds	r7, #16
 8002098:	46bd      	mov	sp, r7
 800209a:	bd80      	pop	{r7, pc}
 800209c:	20000124 	.word	0x20000124

080020a0 <BSP_L6470_1_0_Config>:
 * @brief   Initialize the data structure related to the stepper motor driver #0
 *          of the expansion board #1.
 * @param   MotorParameterData_t* The pointer to the related parameter data structure.
 */
void BSP_L6470_1_0_Config(MotorParameterData_t *MotorParameterData)
{
 80020a0:	b580      	push	{r7, lr}
 80020a2:	b084      	sub	sp, #16
 80020a4:	af00      	add	r7, sp, #0
 80020a6:	6078      	str	r0, [r7, #4]
  StepperMotorDriverHandle_t *StepperMotorDriverHandle;
  
  StepperMotorDriverHandle = &L6470DrvMtx[1][0];
 80020a8:	4b04      	ldr	r3, [pc, #16]	; (80020bc <BSP_L6470_1_0_Config+0x1c>)
 80020aa:	60fb      	str	r3, [r7, #12]
  L6470_Config(StepperMotorDriverHandle, MotorParameterData);
 80020ac:	6879      	ldr	r1, [r7, #4]
 80020ae:	68f8      	ldr	r0, [r7, #12]
 80020b0:	f7ff fb1a 	bl	80016e8 <L6470_Config>
}
 80020b4:	bf00      	nop
 80020b6:	3710      	adds	r7, #16
 80020b8:	46bd      	mov	sp, r7
 80020ba:	bd80      	pop	{r7, pc}
 80020bc:	20000160 	.word	0x20000160

080020c0 <BSP_L6470_1_1_Config>:
 * @brief   Initialize the data structure related to the stepper motor driver #1
 *          of the expansion board #1.
 * @param   MotorParameterData_t* The pointer to the related parameter data structure.
 */
void BSP_L6470_1_1_Config(MotorParameterData_t *MotorParameterData)
{
 80020c0:	b580      	push	{r7, lr}
 80020c2:	b084      	sub	sp, #16
 80020c4:	af00      	add	r7, sp, #0
 80020c6:	6078      	str	r0, [r7, #4]
  StepperMotorDriverHandle_t *StepperMotorDriverHandle;
  
  StepperMotorDriverHandle = &L6470DrvMtx[1][1];
 80020c8:	4b04      	ldr	r3, [pc, #16]	; (80020dc <BSP_L6470_1_1_Config+0x1c>)
 80020ca:	60fb      	str	r3, [r7, #12]
  L6470_Config(StepperMotorDriverHandle, MotorParameterData);
 80020cc:	6879      	ldr	r1, [r7, #4]
 80020ce:	68f8      	ldr	r0, [r7, #12]
 80020d0:	f7ff fb0a 	bl	80016e8 <L6470_Config>
}
 80020d4:	bf00      	nop
 80020d6:	3710      	adds	r7, #16
 80020d8:	46bd      	mov	sp, r7
 80020da:	bd80      	pop	{r7, pc}
 80020dc:	2000019c 	.word	0x2000019c

080020e0 <BSP_L6470_2_0_Config>:
 * @brief   Initialize the data structure related to the stepper motor driver #0
 *          of the expansion board #2.
 * @param   MotorParameterData_t* The pointer to the related parameter data structure.
 */
void BSP_L6470_2_0_Config(MotorParameterData_t *MotorParameterData)
{
 80020e0:	b580      	push	{r7, lr}
 80020e2:	b084      	sub	sp, #16
 80020e4:	af00      	add	r7, sp, #0
 80020e6:	6078      	str	r0, [r7, #4]
  StepperMotorDriverHandle_t *StepperMotorDriverHandle;
  
  StepperMotorDriverHandle = &L6470DrvMtx[2][0];
 80020e8:	4b04      	ldr	r3, [pc, #16]	; (80020fc <BSP_L6470_2_0_Config+0x1c>)
 80020ea:	60fb      	str	r3, [r7, #12]
  L6470_Config(StepperMotorDriverHandle, MotorParameterData);
 80020ec:	6879      	ldr	r1, [r7, #4]
 80020ee:	68f8      	ldr	r0, [r7, #12]
 80020f0:	f7ff fafa 	bl	80016e8 <L6470_Config>
}
 80020f4:	bf00      	nop
 80020f6:	3710      	adds	r7, #16
 80020f8:	46bd      	mov	sp, r7
 80020fa:	bd80      	pop	{r7, pc}
 80020fc:	200001d8 	.word	0x200001d8

08002100 <BSP_L6470_2_1_Config>:
 * @brief   Initialize the data structure related to the stepper motor driver #1
 *          of the expansion board #2.
 * @param   MotorParameterData_t* The pointer to the related parameter data structure.
 */
void BSP_L6470_2_1_Config(MotorParameterData_t *MotorParameterData)
{
 8002100:	b580      	push	{r7, lr}
 8002102:	b084      	sub	sp, #16
 8002104:	af00      	add	r7, sp, #0
 8002106:	6078      	str	r0, [r7, #4]
  StepperMotorDriverHandle_t *StepperMotorDriverHandle;
  
  StepperMotorDriverHandle = &L6470DrvMtx[2][1];
 8002108:	4b04      	ldr	r3, [pc, #16]	; (800211c <BSP_L6470_2_1_Config+0x1c>)
 800210a:	60fb      	str	r3, [r7, #12]
  L6470_Config(StepperMotorDriverHandle, MotorParameterData);
 800210c:	6879      	ldr	r1, [r7, #4]
 800210e:	68f8      	ldr	r0, [r7, #12]
 8002110:	f7ff faea 	bl	80016e8 <L6470_Config>
}
 8002114:	bf00      	nop
 8002116:	3710      	adds	r7, #16
 8002118:	46bd      	mov	sp, r7
 800211a:	bd80      	pop	{r7, pc}
 800211c:	20000214 	.word	0x20000214

08002120 <BSP_L6470_3_0_Config>:
 * @brief   Initialize the data structure related to the stepper motor driver #0
 *          of the expansion board #3.
 * @param   MotorParameterData_t* The pointer to the related parameter data structure.
 */
void BSP_L6470_3_0_Config(MotorParameterData_t *MotorParameterData)
{
 8002120:	b580      	push	{r7, lr}
 8002122:	b084      	sub	sp, #16
 8002124:	af00      	add	r7, sp, #0
 8002126:	6078      	str	r0, [r7, #4]
  StepperMotorDriverHandle_t *StepperMotorDriverHandle;
  
  StepperMotorDriverHandle = &L6470DrvMtx[3][0];
 8002128:	4b04      	ldr	r3, [pc, #16]	; (800213c <BSP_L6470_3_0_Config+0x1c>)
 800212a:	60fb      	str	r3, [r7, #12]
  L6470_Config(StepperMotorDriverHandle, MotorParameterData);
 800212c:	6879      	ldr	r1, [r7, #4]
 800212e:	68f8      	ldr	r0, [r7, #12]
 8002130:	f7ff fada 	bl	80016e8 <L6470_Config>
}
 8002134:	bf00      	nop
 8002136:	3710      	adds	r7, #16
 8002138:	46bd      	mov	sp, r7
 800213a:	bd80      	pop	{r7, pc}
 800213c:	20000250 	.word	0x20000250

08002140 <BSP_L6470_3_1_Config>:
 * @brief   Initialize the data structure related to the stepper motor driver #1
 *          of the expansion board #3.
 * @param   MotorParameterData_t* The pointer to the related parameter data structure.
 */
void BSP_L6470_3_1_Config(MotorParameterData_t *MotorParameterData)
{
 8002140:	b580      	push	{r7, lr}
 8002142:	b084      	sub	sp, #16
 8002144:	af00      	add	r7, sp, #0
 8002146:	6078      	str	r0, [r7, #4]
  StepperMotorDriverHandle_t *StepperMotorDriverHandle;
  
  StepperMotorDriverHandle = &L6470DrvMtx[3][1];
 8002148:	4b04      	ldr	r3, [pc, #16]	; (800215c <BSP_L6470_3_1_Config+0x1c>)
 800214a:	60fb      	str	r3, [r7, #12]
  L6470_Config(StepperMotorDriverHandle, MotorParameterData);
 800214c:	6879      	ldr	r1, [r7, #4]
 800214e:	68f8      	ldr	r0, [r7, #12]
 8002150:	f7ff faca 	bl	80016e8 <L6470_Config>
}
 8002154:	bf00      	nop
 8002156:	3710      	adds	r7, #16
 8002158:	46bd      	mov	sp, r7
 800215a:	bd80      	pop	{r7, pc}
 800215c:	2000028c 	.word	0x2000028c

08002160 <BSP_GetExpansionBoardHandle>:
